{
  "abi": [
    {
      "inputs": [
        {
          "internalType": "uint256",
          "name": "_trustedAccountCooldown",
          "type": "uint256"
        }
      ],
      "stateMutability": "nonpayable",
      "type": "constructor"
    },
    {
      "anonymous": false,
      "inputs": [
        {
          "indexed": true,
          "internalType": "address",
          "name": "user",
          "type": "address"
        },
        {
          "indexed": true,
          "internalType": "address",
          "name": "auditor",
          "type": "address"
        }
      ],
      "name": "AcceptAuditor",
      "type": "event"
    },
    {
      "anonymous": false,
      "inputs": [
        {
          "indexed": true,
          "internalType": "address",
          "name": "auditor",
          "type": "address"
        },
        {
          "indexed": true,
          "internalType": "address",
          "name": "user",
          "type": "address"
        }
      ],
      "name": "AcceptUser",
      "type": "event"
    },
    {
      "anonymous": false,
      "inputs": [
        {
          "indexed": true,
          "internalType": "address",
          "name": "owner",
          "type": "address"
        },
        {
          "indexed": true,
          "internalType": "address",
          "name": "approved",
          "type": "address"
        },
        {
          "indexed": true,
          "internalType": "uint256",
          "name": "tokenId",
          "type": "uint256"
        }
      ],
      "name": "Approval",
      "type": "event"
    },
    {
      "anonymous": false,
      "inputs": [
        {
          "indexed": true,
          "internalType": "address",
          "name": "owner",
          "type": "address"
        },
        {
          "indexed": true,
          "internalType": "address",
          "name": "operator",
          "type": "address"
        },
        {
          "indexed": false,
          "internalType": "bool",
          "name": "approved",
          "type": "bool"
        }
      ],
      "name": "ApprovalForAll",
      "type": "event"
    },
    {
      "anonymous": false,
      "inputs": [
        {
          "indexed": true,
          "internalType": "address",
          "name": "bearer",
          "type": "address"
        },
        {
          "indexed": true,
          "internalType": "uint256",
          "name": "tokenId",
          "type": "uint256"
        }
      ],
      "name": "Cash",
      "type": "event"
    },
    {
      "anonymous": false,
      "inputs": [
        {
          "indexed": true,
          "internalType": "contract IERC20",
          "name": "_token",
          "type": "address"
        },
        {
          "indexed": true,
          "internalType": "address",
          "name": "to",
          "type": "address"
        },
        {
          "indexed": false,
          "internalType": "uint256",
          "name": "amount",
          "type": "uint256"
        }
      ],
      "name": "Deposit",
      "type": "event"
    },
    {
      "anonymous": false,
      "inputs": [
        {
          "indexed": true,
          "internalType": "contract IERC20",
          "name": "_token",
          "type": "address"
        },
        {
          "indexed": true,
          "internalType": "address",
          "name": "to",
          "type": "address"
        },
        {
          "indexed": false,
          "internalType": "uint256",
          "name": "_amount",
          "type": "uint256"
        }
      ],
      "name": "DirectTransfer",
      "type": "event"
    },
    {
      "anonymous": false,
      "inputs": [
        {
          "indexed": true,
          "internalType": "address",
          "name": "previousOwner",
          "type": "address"
        },
        {
          "indexed": true,
          "internalType": "address",
          "name": "newOwner",
          "type": "address"
        }
      ],
      "name": "OwnershipTransferred",
      "type": "event"
    },
    {
      "anonymous": false,
      "inputs": [
        {
          "indexed": false,
          "internalType": "contract IERC20",
          "name": "_token",
          "type": "address"
        },
        {
          "indexed": false,
          "internalType": "uint256",
          "name": "amount",
          "type": "uint256"
        }
      ],
      "name": "SetProtocolFee",
      "type": "event"
    },
    {
      "anonymous": false,
      "inputs": [
        {
          "indexed": true,
          "internalType": "address",
          "name": "from",
          "type": "address"
        },
        {
          "indexed": true,
          "internalType": "address",
          "name": "to",
          "type": "address"
        },
        {
          "indexed": true,
          "internalType": "uint256",
          "name": "tokenId",
          "type": "uint256"
        }
      ],
      "name": "Transfer",
      "type": "event"
    },
    {
      "anonymous": false,
      "inputs": [
        {
          "indexed": true,
          "internalType": "address",
          "name": "drawer",
          "type": "address"
        },
        {
          "indexed": true,
          "internalType": "address",
          "name": "auditor",
          "type": "address"
        },
        {
          "indexed": true,
          "internalType": "uint256",
          "name": "tokenId",
          "type": "uint256"
        }
      ],
      "name": "Void",
      "type": "event"
    },
    {
      "anonymous": false,
      "inputs": [
        {
          "indexed": true,
          "internalType": "address",
          "name": "_address",
          "type": "address"
        },
        {
          "indexed": false,
          "internalType": "uint256",
          "name": "amount",
          "type": "uint256"
        }
      ],
      "name": "Withdraw",
      "type": "event"
    },
    {
      "inputs": [
        {
          "internalType": "address",
          "name": "auditor",
          "type": "address"
        }
      ],
      "name": "acceptAuditor",
      "outputs": [
        {
          "internalType": "bool",
          "name": "",
          "type": "bool"
        }
      ],
      "stateMutability": "nonpayable",
      "type": "function"
    },
    {
      "inputs": [
        {
          "internalType": "address",
          "name": "drawer",
          "type": "address"
        }
      ],
      "name": "acceptUser",
      "outputs": [
        {
          "internalType": "bool",
          "name": "",
          "type": "bool"
        }
      ],
      "stateMutability": "nonpayable",
      "type": "function"
    },
    {
      "inputs": [
        {
          "internalType": "address",
          "name": "",
          "type": "address"
        },
        {
          "internalType": "uint256",
          "name": "",
          "type": "uint256"
        }
      ],
      "name": "acceptedAuditorUsers",
      "outputs": [
        {
          "internalType": "address",
          "name": "",
          "type": "address"
        }
      ],
      "stateMutability": "view",
      "type": "function"
    },
    {
      "inputs": [
        {
          "internalType": "address",
          "name": "",
          "type": "address"
        },
        {
          "internalType": "uint256",
          "name": "",
          "type": "uint256"
        }
      ],
      "name": "acceptedUserAuditors",
      "outputs": [
        {
          "internalType": "address",
          "name": "",
          "type": "address"
        }
      ],
      "stateMutability": "view",
      "type": "function"
    },
    {
      "inputs": [
        {
          "internalType": "address",
          "name": "to",
          "type": "address"
        },
        {
          "internalType": "uint256",
          "name": "tokenId",
          "type": "uint256"
        }
      ],
      "name": "approve",
      "outputs": [],
      "stateMutability": "nonpayable",
      "type": "function"
    },
    {
      "inputs": [
        {
          "internalType": "address",
          "name": "",
          "type": "address"
        },
        {
          "internalType": "uint256",
          "name": "",
          "type": "uint256"
        }
      ],
      "name": "auditorDurations",
      "outputs": [
        {
          "internalType": "bool",
          "name": "",
          "type": "bool"
        }
      ],
      "stateMutability": "view",
      "type": "function"
    },
    {
      "inputs": [
        {
          "internalType": "address",
          "name": "",
          "type": "address"
        },
        {
          "internalType": "address",
          "name": "",
          "type": "address"
        }
      ],
      "name": "auditorUser",
      "outputs": [
        {
          "internalType": "bool",
          "name": "",
          "type": "bool"
        }
      ],
      "stateMutability": "view",
      "type": "function"
    },
    {
      "inputs": [
        {
          "internalType": "address",
          "name": "owner",
          "type": "address"
        }
      ],
      "name": "balanceOf",
      "outputs": [
        {
          "internalType": "uint256",
          "name": "",
          "type": "uint256"
        }
      ],
      "stateMutability": "view",
      "type": "function"
    },
    {
      "inputs": [
        {
          "internalType": "uint256",
          "name": "chequeID",
          "type": "uint256"
        }
      ],
      "name": "cashCheque",
      "outputs": [],
      "stateMutability": "nonpayable",
      "type": "function"
    },
    {
      "inputs": [
        {
          "internalType": "uint256",
          "name": "chequeId",
          "type": "uint256"
        }
      ],
      "name": "chequeAmount",
      "outputs": [
        {
          "internalType": "uint256",
          "name": "",
          "type": "uint256"
        }
      ],
      "stateMutability": "view",
      "type": "function"
    },
    {
      "inputs": [
        {
          "internalType": "uint256",
          "name": "chequeId",
          "type": "uint256"
        }
      ],
      "name": "chequeAuditor",
      "outputs": [
        {
          "internalType": "address",
          "name": "",
          "type": "address"
        }
      ],
      "stateMutability": "view",
      "type": "function"
    },
    {
      "inputs": [
        {
          "internalType": "uint256",
          "name": "chequeId",
          "type": "uint256"
        }
      ],
      "name": "chequeCreated",
      "outputs": [
        {
          "internalType": "uint256",
          "name": "",
          "type": "uint256"
        }
      ],
      "stateMutability": "view",
      "type": "function"
    },
    {
      "inputs": [
        {
          "internalType": "uint256",
          "name": "chequeId",
          "type": "uint256"
        }
      ],
      "name": "chequeDrawer",
      "outputs": [
        {
          "internalType": "address",
          "name": "",
          "type": "address"
        }
      ],
      "stateMutability": "view",
      "type": "function"
    },
    {
      "inputs": [
        {
          "internalType": "uint256",
          "name": "chequeId",
          "type": "uint256"
        }
      ],
      "name": "chequeExpiry",
      "outputs": [
        {
          "internalType": "uint256",
          "name": "",
          "type": "uint256"
        }
      ],
      "stateMutability": "view",
      "type": "function"
    },
    {
      "inputs": [
        {
          "internalType": "uint256",
          "name": "",
          "type": "uint256"
        }
      ],
      "name": "chequeInfo",
      "outputs": [
        {
          "internalType": "uint256",
          "name": "amount",
          "type": "uint256"
        },
        {
          "internalType": "uint256",
          "name": "created",
          "type": "uint256"
        },
        {
          "internalType": "uint256",
          "name": "expiry",
          "type": "uint256"
        },
        {
          "internalType": "contract IERC20",
          "name": "token",
          "type": "address"
        },
        {
          "internalType": "address",
          "name": "drawer",
          "type": "address"
        },
        {
          "internalType": "address",
          "name": "recipient",
          "type": "address"
        },
        {
          "internalType": "address",
          "name": "auditor",
          "type": "address"
        }
      ],
      "stateMutability": "view",
      "type": "function"
    },
    {
      "inputs": [
        {
          "internalType": "uint256",
          "name": "chequeId",
          "type": "uint256"
        }
      ],
      "name": "chequeRecipient",
      "outputs": [
        {
          "internalType": "address",
          "name": "",
          "type": "address"
        }
      ],
      "stateMutability": "view",
      "type": "function"
    },
    {
      "inputs": [
        {
          "internalType": "uint256",
          "name": "chequeId",
          "type": "uint256"
        }
      ],
      "name": "chequeToken",
      "outputs": [
        {
          "internalType": "contract IERC20",
          "name": "",
          "type": "address"
        }
      ],
      "stateMutability": "view",
      "type": "function"
    },
    {
      "inputs": [
        {
          "internalType": "contract IERC20",
          "name": "_token",
          "type": "address"
        },
        {
          "internalType": "uint256",
          "name": "_amount",
          "type": "uint256"
        }
      ],
      "name": "deposit",
      "outputs": [
        {
          "internalType": "bool",
          "name": "",
          "type": "bool"
        }
      ],
      "stateMutability": "nonpayable",
      "type": "function"
    },
    {
      "inputs": [
        {
          "internalType": "contract IERC20",
          "name": "_token",
          "type": "address"
        },
        {
          "internalType": "uint256",
          "name": "_amount",
          "type": "uint256"
        },
        {
          "internalType": "address",
          "name": "_address",
          "type": "address"
        }
      ],
      "name": "deposit",
      "outputs": [
        {
          "internalType": "bool",
          "name": "",
          "type": "bool"
        }
      ],
      "stateMutability": "nonpayable",
      "type": "function"
    },
    {
      "inputs": [
        {
          "internalType": "address",
          "name": "",
          "type": "address"
        },
        {
          "internalType": "contract IERC20",
          "name": "",
          "type": "address"
        }
      ],
      "name": "deposits",
      "outputs": [
        {
          "internalType": "uint256",
          "name": "",
          "type": "uint256"
        }
      ],
      "stateMutability": "view",
      "type": "function"
    },
    {
      "inputs": [
        {
          "internalType": "contract IERC20",
          "name": "_token",
          "type": "address"
        },
        {
          "internalType": "address",
          "name": "_to",
          "type": "address"
        },
        {
          "internalType": "uint256",
          "name": "_amount",
          "type": "uint256"
        }
      ],
      "name": "directTransfer",
      "outputs": [],
      "stateMutability": "nonpayable",
      "type": "function"
    },
    {
      "inputs": [
        {
          "internalType": "address",
          "name": "_address",
          "type": "address"
        }
      ],
      "name": "getAcceptedAuditorUsers",
      "outputs": [
        {
          "internalType": "address[]",
          "name": "",
          "type": "address[]"
        }
      ],
      "stateMutability": "view",
      "type": "function"
    },
    {
      "inputs": [
        {
          "internalType": "address",
          "name": "_address",
          "type": "address"
        }
      ],
      "name": "getAcceptedUserAuditors",
      "outputs": [
        {
          "internalType": "address[]",
          "name": "",
          "type": "address[]"
        }
      ],
      "stateMutability": "view",
      "type": "function"
    },
    {
      "inputs": [
        {
          "internalType": "uint256",
          "name": "tokenId",
          "type": "uint256"
        }
      ],
      "name": "getApproved",
      "outputs": [
        {
          "internalType": "address",
          "name": "",
          "type": "address"
        }
      ],
      "stateMutability": "view",
      "type": "function"
    },
    {
      "inputs": [
        {
          "internalType": "address",
          "name": "owner",
          "type": "address"
        },
        {
          "internalType": "address",
          "name": "operator",
          "type": "address"
        }
      ],
      "name": "isApprovedForAll",
      "outputs": [
        {
          "internalType": "bool",
          "name": "",
          "type": "bool"
        }
      ],
      "stateMutability": "view",
      "type": "function"
    },
    {
      "inputs": [
        {
          "internalType": "address",
          "name": "",
          "type": "address"
        }
      ],
      "name": "lastTrustedChange",
      "outputs": [
        {
          "internalType": "uint256",
          "name": "",
          "type": "uint256"
        }
      ],
      "stateMutability": "view",
      "type": "function"
    },
    {
      "inputs": [],
      "name": "name",
      "outputs": [
        {
          "internalType": "string",
          "name": "",
          "type": "string"
        }
      ],
      "stateMutability": "view",
      "type": "function"
    },
    {
      "inputs": [],
      "name": "owner",
      "outputs": [
        {
          "internalType": "address",
          "name": "",
          "type": "address"
        }
      ],
      "stateMutability": "view",
      "type": "function"
    },
    {
      "inputs": [
        {
          "internalType": "uint256",
          "name": "tokenId",
          "type": "uint256"
        }
      ],
      "name": "ownerOf",
      "outputs": [
        {
          "internalType": "address",
          "name": "",
          "type": "address"
        }
      ],
      "stateMutability": "view",
      "type": "function"
    },
    {
      "inputs": [
        {
          "internalType": "contract IERC20",
          "name": "",
          "type": "address"
        }
      ],
      "name": "protocolFee",
      "outputs": [
        {
          "internalType": "uint256",
          "name": "",
          "type": "uint256"
        }
      ],
      "stateMutability": "view",
      "type": "function"
    },
    {
      "inputs": [
        {
          "internalType": "contract IERC20",
          "name": "",
          "type": "address"
        }
      ],
      "name": "protocolReserve",
      "outputs": [
        {
          "internalType": "uint256",
          "name": "",
          "type": "uint256"
        }
      ],
      "stateMutability": "view",
      "type": "function"
    },
    {
      "inputs": [],
      "name": "renounceOwnership",
      "outputs": [],
      "stateMutability": "nonpayable",
      "type": "function"
    },
    {
      "inputs": [
        {
          "internalType": "address",
          "name": "from",
          "type": "address"
        },
        {
          "internalType": "address",
          "name": "to",
          "type": "address"
        },
        {
          "internalType": "uint256",
          "name": "tokenId",
          "type": "uint256"
        }
      ],
      "name": "safeTransferFrom",
      "outputs": [],
      "stateMutability": "nonpayable",
      "type": "function"
    },
    {
      "inputs": [
        {
          "internalType": "address",
          "name": "from",
          "type": "address"
        },
        {
          "internalType": "address",
          "name": "to",
          "type": "address"
        },
        {
          "internalType": "uint256",
          "name": "chequeID",
          "type": "uint256"
        },
        {
          "internalType": "bytes",
          "name": "data",
          "type": "bytes"
        }
      ],
      "name": "safeTransferFrom",
      "outputs": [],
      "stateMutability": "nonpayable",
      "type": "function"
    },
    {
      "inputs": [
        {
          "internalType": "uint256",
          "name": "duration",
          "type": "uint256"
        }
      ],
      "name": "setAllowedDuration",
      "outputs": [],
      "stateMutability": "nonpayable",
      "type": "function"
    },
    {
      "inputs": [
        {
          "internalType": "address",
          "name": "operator",
          "type": "address"
        },
        {
          "internalType": "bool",
          "name": "approved",
          "type": "bool"
        }
      ],
      "name": "setApprovalForAll",
      "outputs": [],
      "stateMutability": "nonpayable",
      "type": "function"
    },
    {
      "inputs": [
        {
          "internalType": "contract IERC20",
          "name": "_token",
          "type": "address"
        },
        {
          "internalType": "uint256",
          "name": "_protocolFee",
          "type": "uint256"
        }
      ],
      "name": "setProtocolFee",
      "outputs": [],
      "stateMutability": "nonpayable",
      "type": "function"
    },
    {
      "inputs": [
        {
          "internalType": "address",
          "name": "account",
          "type": "address"
        }
      ],
      "name": "setTrustedAccount",
      "outputs": [],
      "stateMutability": "nonpayable",
      "type": "function"
    },
    {
      "inputs": [
        {
          "internalType": "bytes4",
          "name": "interfaceId",
          "type": "bytes4"
        }
      ],
      "name": "supportsInterface",
      "outputs": [
        {
          "internalType": "bool",
          "name": "",
          "type": "bool"
        }
      ],
      "stateMutability": "view",
      "type": "function"
    },
    {
      "inputs": [],
      "name": "symbol",
      "outputs": [
        {
          "internalType": "string",
          "name": "",
          "type": "string"
        }
      ],
      "stateMutability": "view",
      "type": "function"
    },
    {
      "inputs": [
        {
          "internalType": "uint256",
          "name": "tokenId",
          "type": "uint256"
        }
      ],
      "name": "tokenURI",
      "outputs": [
        {
          "internalType": "string",
          "name": "",
          "type": "string"
        }
      ],
      "stateMutability": "view",
      "type": "function"
    },
    {
      "inputs": [
        {
          "internalType": "address",
          "name": "from",
          "type": "address"
        },
        {
          "internalType": "address",
          "name": "to",
          "type": "address"
        },
        {
          "internalType": "uint256",
          "name": "chequeID",
          "type": "uint256"
        }
      ],
      "name": "transferFrom",
      "outputs": [],
      "stateMutability": "nonpayable",
      "type": "function"
    },
    {
      "inputs": [
        {
          "internalType": "address",
          "name": "newOwner",
          "type": "address"
        }
      ],
      "name": "transferOwnership",
      "outputs": [],
      "stateMutability": "nonpayable",
      "type": "function"
    },
    {
      "inputs": [
        {
          "internalType": "address",
          "name": "",
          "type": "address"
        }
      ],
      "name": "trustedAccount",
      "outputs": [
        {
          "internalType": "address",
          "name": "",
          "type": "address"
        }
      ],
      "stateMutability": "view",
      "type": "function"
    },
    {
      "inputs": [],
      "name": "trustedAccountCooldown",
      "outputs": [
        {
          "internalType": "uint256",
          "name": "",
          "type": "uint256"
        }
      ],
      "stateMutability": "view",
      "type": "function"
    },
    {
      "inputs": [
        {
          "internalType": "address",
          "name": "",
          "type": "address"
        },
        {
          "internalType": "address",
          "name": "",
          "type": "address"
        }
      ],
      "name": "userAuditor",
      "outputs": [
        {
          "internalType": "bool",
          "name": "",
          "type": "bool"
        }
      ],
      "stateMutability": "view",
      "type": "function"
    },
    {
      "inputs": [
        {
          "internalType": "uint256",
          "name": "chequeID",
          "type": "uint256"
        }
      ],
      "name": "voidCheque",
      "outputs": [],
      "stateMutability": "nonpayable",
      "type": "function"
    },
    {
      "inputs": [
        {
          "internalType": "uint256",
          "name": "chequeID",
          "type": "uint256"
        }
      ],
      "name": "voidRescueCheque",
      "outputs": [],
      "stateMutability": "nonpayable",
      "type": "function"
    },
    {
      "inputs": [
        {
          "internalType": "contract IERC20",
          "name": "_token",
          "type": "address"
        },
        {
          "internalType": "uint256",
          "name": "_amount",
          "type": "uint256"
        }
      ],
      "name": "withdraw",
      "outputs": [],
      "stateMutability": "nonpayable",
      "type": "function"
    },
    {
      "inputs": [
        {
          "internalType": "contract IERC20",
          "name": "_token",
          "type": "address"
        },
        {
          "internalType": "uint256",
          "name": "amount",
          "type": "uint256"
        },
        {
          "internalType": "uint256",
          "name": "duration",
          "type": "uint256"
        },
        {
          "internalType": "address",
          "name": "auditor",
          "type": "address"
        },
        {
          "internalType": "address",
          "name": "recipient",
          "type": "address"
        }
      ],
      "name": "writeCheque",
      "outputs": [
        {
          "internalType": "uint256",
          "name": "",
          "type": "uint256"
        }
      ],
      "stateMutability": "nonpayable",
      "type": "function"
    }
  ],
  "bytecode": {
    "object": "0x60806040523480156200001157600080fd5b50604051620030723803806200307283398101604081905262000034916200010d565b604051806040016040528060078152602001666443686571756560c81b815250604051806040016040528060048152602001636443485160e01b8152508160009081620000829190620001cc565b506001620000918282620001cc565b505050620000ae620000a8620000b760201b60201c565b620000bb565b600e5562000298565b3390565b600680546001600160a01b038381166001600160a01b0319831681179093556040519116919082907f8be0079c531659141344cd1fd0a4f28419497f9722a3daafe3b4186f6b6457e090600090a35050565b6000602082840312156200012057600080fd5b5051919050565b634e487b7160e01b600052604160045260246000fd5b600181811c908216806200015257607f821691505b6020821081036200017357634e487b7160e01b600052602260045260246000fd5b50919050565b601f821115620001c757600081815260208120601f850160051c81016020861015620001a25750805b601f850160051c820191505b81811015620001c357828155600101620001ae565b5050505b505050565b81516001600160401b03811115620001e857620001e862000127565b6200020081620001f984546200013d565b8462000179565b602080601f8311600181146200023857600084156200021f5750858301515b600019600386901b1c1916600185901b178555620001c3565b600085815260208120601f198616915b82811015620002695788860151825594840194600190910190840162000248565b5085821015620002885787850151600019600388901b60f8161c191681555b5050505050600190811b01905550565b612dca80620002a86000396000f3fe608060405234801561001057600080fd5b50600436106102d65760003560e01c80638f601f6611610182578063c1d6fa08116100e9578063e985e9c5116100a2578063f45346dc1161007c578063f45346dc1461086e578063f83d179114610881578063fc9a7cfd14610894578063ff9081a8146108a757600080fd5b8063e985e9c51461080c578063f2fde38b14610848578063f3fef3a31461085b57600080fd5b8063c1d6fa081461077d578063c87b56dd14610790578063cb3b5a26146107a3578063d7ad71eb146107b6578063e50c42b0146107d9578063e5e8343a146107f957600080fd5b8063aa6342001161013b578063aa634200146106b4578063b5b3ca2c146106e0578063b62b31e4146106f3578063b88d4fde14610713578063bb2d42b914610726578063bc3ee7171461075457600080fd5b80638f601f661461060157806390090fe61461062c57806395d89b411461065857806396753bec14610660578063a22cb4651461068e578063a74d6701146106a157600080fd5b806343707fc01161024157806370a08231116101fa57806379089355116101d4578063790893551461051d57806386cb5e07146105bb5780638b944423146105e75780638da5cb5b146105f057600080fd5b806370a08231146104e2578063715018a6146104f557806376696e80146104fd57600080fd5b806343707fc01461043657806345fc5443146104495780634663b4dc1461047557806347e7ef2414610488578063584b22d11461049b5780636352211e146104cf57600080fd5b8063122229ed11610293578063122229ed1461039c578063133f6571146103bc57806322cb4433146103cf57806323b872dd146103fd5780632a5f290a1461041057806342842e0e1461042357600080fd5b806301ffc9a7146102db578063067893461461030357806306fdde0314610334578063081812fc1461034957806308bdc24d14610374578063095ea7b314610387575b600080fd5b6102ee6102e9366004612828565b6108c7565b60405190151581526020015b60405180910390f35b610326610311366004612845565b6000908152600f602052604090206001015490565b6040519081526020016102fa565b61033c610919565b6040516102fa91906128ae565b61035c610357366004612845565b6109ab565b6040516001600160a01b0390911681526020016102fa565b6102ee6103823660046128d6565b6109d2565b61039a6103953660046128f3565b610aeb565b005b6103af6103aa3660046128d6565b610c05565b6040516102fa919061291f565b6103af6103ca3660046128d6565b610c7b565b6102ee6103dd3660046128f3565b600960209081526000928352604080842090915290825290205460ff1681565b61039a61040b36600461296c565b610cef565b61032661041e3660046129ad565b610d4f565b61039a61043136600461296c565b611156565b61039a610444366004612845565b611171565b61035c610457366004612845565b6000908152600f60205260409020600501546001600160a01b031690565b61039a610483366004612845565b611230565b6102ee6104963660046128f3565b6112b3565b61039a6104a9366004612845565b33600090815260096020908152604080832093835292905220805460ff19166001179055565b61035c6104dd366004612845565b6112c9565b6103266104f03660046128d6565b611329565b61039a6113af565b61032661050b3660046128d6565b600d6020526000908152604090205481565b61057861052b366004612845565b600f6020526000908152604090208054600182015460028301546003840154600485015460058601546006909601549495939492936001600160a01b039283169391831692908116911687565b604080519788526020880196909652948601939093526001600160a01b0391821660608601528116608085015290811660a08401521660c082015260e0016102fa565b61035c6105c9366004612845565b6000908152600f60205260409020600601546001600160a01b031690565b610326600e5481565b6006546001600160a01b031661035c565b61032661060f366004612a0c565b601060209081526000928352604080842090915290825290205481565b61035c61063a366004612845565b6000908152600f60205260409020600401546001600160a01b031690565b61033c6113c3565b6102ee61066e366004612a0c565b600860209081526000928352604080842090915290825290205460ff1681565b61039a61069c366004612a53565b6113d2565b61039a6106af366004612845565b6113dd565b61035c6106c2366004612845565b6000908152600f60205260409020600301546001600160a01b031690565b61039a6106ee3660046128f3565b611573565b6103266107013660046128d6565b60126020526000908152604090205481565b61039a610721366004612a97565b6115d3565b6102ee610734366004612a0c565b600760209081526000928352604080842090915290825290205460ff1681565b61035c6107623660046128d6565b600c602052600090815260409020546001600160a01b031681565b61035c61078b3660046128f3565b611639565b61033c61079e366004612845565b611671565b61039a6107b13660046128d6565b6116e5565b6103266107c4366004612845565b6000908152600f602052604090206002015490565b6103266107e7366004612845565b6000908152600f602052604090205490565b61035c6108073660046128f3565b6117a7565b6102ee61081a366004612a0c565b6001600160a01b03918216600090815260056020908152604080832093909416825291909152205460ff1690565b61039a6108563660046128d6565b6117c3565b61039a6108693660046128f3565b61183c565b6102ee61087c366004612b77565b6119bd565b61039a61088f36600461296c565b6119d4565b6102ee6108a23660046128d6565b611aef565b6103266108b53660046128d6565b60136020526000908152604090205481565b60006001600160e01b031982166380ac58cd60e01b14806108f857506001600160e01b03198216635b5e139f60e01b145b8061091357506301ffc9a760e01b6001600160e01b03198316145b92915050565b60606000805461092890612bb9565b80601f016020809104026020016040519081016040528092919081815260200182805461095490612bb9565b80156109a15780601f10610976576101008083540402835291602001916109a1565b820191906000526020600020905b81548152906001019060200180831161098457829003601f168201915b5050505050905090565b60006109b682611c08565b506000908152600460205260409020546001600160a01b031690565b3360009081526008602090815260408083206001600160a01b038516845290915281205460ff1615610a0657506001919050565b3360008181526008602090815260408083206001600160a01b03871684528252808320805460ff1916600117905560078252808320938352929052205460ff1615610aad576001600160a01b0382166000818152600a60209081526040808320805460018082018355918552838520018054336001600160a01b03199182168117909255908552600b84529184208054918201815584529190922001805490911690911790555b6040516001600160a01b0383169033907f078dc5664c64160be6b3015282df84a6fba4f7887007587d8b836aada89801c790600090a3506001919050565b6000610af6826112c9565b9050806001600160a01b0316836001600160a01b031603610b685760405162461bcd60e51b815260206004820152602160248201527f4552433732313a20617070726f76616c20746f2063757272656e74206f776e656044820152603960f91b60648201526084015b60405180910390fd5b336001600160a01b0382161480610b845750610b84813361081a565b610bf65760405162461bcd60e51b815260206004820152603d60248201527f4552433732313a20617070726f76652063616c6c6572206973206e6f7420746f60448201527f6b656e206f776e6572206f7220617070726f76656420666f7220616c6c0000006064820152608401610b5f565b610c008383611c67565b505050565b6001600160a01b0381166000908152600a6020908152604091829020805483518184028101840190945280845260609392830182828015610c6f57602002820191906000526020600020905b81546001600160a01b03168152600190910190602001808311610c51575b50505050509050919050565b6001600160a01b0381166000908152600b6020908152604091829020805483518184028101840190945280845260609392830182828015610c6f576020028201919060005260206000209081546001600160a01b03168152600190910190602001808311610c515750505050509050919050565b610cf93382611cd5565b610d3b5760405162461bcd60e51b8152602060048201526013602482015272151c985b9cd9995c88191a5cd85b1b1bddd959606a1b6044820152606401610b5f565b610d4481611d54565b610c00838383611dd0565b3360009081526007602090815260408083206001600160a01b03861684529091528120548690869085908790869060ff16610dc15760405162461bcd60e51b81526020600482015260126024820152712ab730b8383937bb32b21030bab234ba37b960711b6044820152606401610b5f565b6001600160a01b038316600090815260086020908152604080832033845290915290205460ff16610e345760405162461bcd60e51b815260206004820152601860248201527f41756469746f72206d75737420617070726f766520796f7500000000000000006044820152606401610b5f565b6001600160a01b0380841660009081526008602090815260408083209385168352929052205460ff16610ea95760405162461bcd60e51b815260206004820152601e60248201527f41756469746f72206d75737420617070726f766520726563697069656e7400006044820152606401610b5f565b6001600160a01b0380821660009081526007602090815260408083209387168352929052205460ff16610f1e5760405162461bcd60e51b815260206004820152601e60248201527f526563697069656e74206d75737420617070726f76652061756469746f7200006044820152606401610b5f565b6001600160a01b038316600090815260096020908152604080832085845290915290205460ff16610f885760405162461bcd60e51b8152602060048201526014602482015273111d5c985d1a5bdb881b9bdd08185b1b1bddd95960621b6044820152606401610b5f565b3360009081526010602090815260408083206001600160a01b038f1684529091529020548a1115610ff25760405162461bcd60e51b8152602060048201526014602482015273496e73756666696369656e742062616c616e636560601b6044820152606401610b5f565b3360009081526010602090815260408083206001600160a01b038f168452909152812080548c9290611025908490612c09565b9250508190555061103887601154611f7b565b6040518060e001604052808b81526020014281526020018a4261105b9190612c1c565b81526001600160a01b038d166020820152604001336001600160a01b0390811682528981166020808401919091528b8216604093840152601180546000908152600f8352848120865181559286015160018085019190915594860151600284015560608601516003840180546001600160a01b03199081169287169290921790556080870151600485018054831691871691909117905560a0870151600585018054831691871691909117905560c0909601516006909301805490961692909316919091179093558254919291611133908490612c1c565b909155505060115461114790600190612c09565b9b9a5050505050505050505050565b610c00838383604051806020016040528060008152506115d3565b6000818152600f60209081526040808320815160e0810183528154815260018201548185015260028201548184015260038201546001600160a01b03908116606083015260048301548116608083018190526005840154821660a0840152600690930154811660c0830152918552600c909352922054909116806112255760405162461bcd60e51b815260206004820152600b60248201526a4e6f2046616c6c6261636b60a81b6044820152606401610b5f565b610c00828483611f95565b6000818152600f6020908152604091829020825160e0810184528154815260018201549281019290925260028101549282019290925260038201546001600160a01b03908116606083015260048301548116608083018190526005840154821660a08401526006909301541660c0820152906112af9082908490611f95565b5050565b60006112c08333846120b8565b50600192915050565b6000818152600260205260408120546001600160a01b0316806109135760405162461bcd60e51b8152602060048201526018602482015277115490cdcc8c4e881a5b9d985b1a59081d1bdad95b88125160421b6044820152606401610b5f565b60006001600160a01b0382166113935760405162461bcd60e51b815260206004820152602960248201527f4552433732313a2061646472657373207a65726f206973206e6f7420612076616044820152683634b21037bbb732b960b91b6064820152608401610b5f565b506001600160a01b031660009081526003602052604090205490565b6113b7612244565b6113c1600061229e565b565b60606001805461092890612bb9565b6112af3383836122f0565b6000818152600f602052604090206113f6335b83611cd5565b61142e5760405162461bcd60e51b81526020600482015260096024820152682737b716b7bbb732b960b91b6044820152606401610b5f565b428160020154111561146e5760405162461bcd60e51b81526020600482015260096024820152685072656d617475726560b81b6044820152606401610b5f565b60038101546000906001600160a01b031663a9059cbb33845460405160e084901b6001600160e01b03191681526001600160a01b03909216600483015260248201526044016020604051808303816000875af11580156114d2573d6000803e3d6000fd5b505050506040513d601f19601f820116820180604052508101906114f69190612c2f565b9050806115385760405162461bcd60e51b815260206004820152601060248201526f2a3930b739b332b9103330b4b632b21760811b6044820152606401610b5f565b611541836123be565b604051839033907f730831a1e4aa2d187ddd8e03d7beeac760a3927da5f112d645e0f8df7494b36790600090a3505050565b61157b612244565b6001600160a01b038216600081815260126020908152604091829020849055815192835282018390527f8fcddb702fa6c4fe68a01a3dbae30ae032fc6ce52e4aec0ce68bcc33d395cca5910160405180910390a15050565b6115dc336113f0565b61161e5760405162461bcd60e51b8152602060048201526013602482015272151c985b9cd9995c88191a5cd85b1b1bddd959606a1b6044820152606401610b5f565b61162782611d54565b61163384848484612468565b50505050565b600a602052816000526040600020818154811061165557600080fd5b6000918252602090912001546001600160a01b03169150829050565b606061167c82611c08565b600061169360408051602081019091526000815290565b905060008151116116b357604051806020016040528060008152506116de565b806116bd8461249b565b6040516020016116ce929190612c4c565b6040516020818303038152906040525b9392505050565b42600e54600d60006116f43390565b6001600160a01b03166001600160a01b031681526020019081526020016000205461171f9190612c1c565b1061176c5760405162461bcd60e51b815260206004820152601860248201527f54727573746564206163636f756e7420636f6f6c646f776e00000000000000006044820152606401610b5f565b336000908152600c6020908152604080832080546001600160a01b0319166001600160a01b039590951694909417909355600d905220429055565b600b602052816000526040600020818154811061165557600080fd5b6117cb612244565b6001600160a01b0381166118305760405162461bcd60e51b815260206004820152602660248201527f4f776e61626c653a206e6577206f776e657220697320746865207a65726f206160448201526564647265737360d01b6064820152608401610b5f565b6118398161229e565b50565b611844612244565b6001600160a01b0382166000908152601360205260409020548111156118a25760405162461bcd60e51b81526020600482015260136024820152724d6f7265207468616e20617661696c61626c6560681b6044820152606401610b5f565b6001600160a01b038216600081815260136020526040812080548490039055906323b872dd30336040516001600160e01b031960e085901b1681526001600160a01b03928316600482015291166024820152604481018590526064016020604051808303816000875af115801561191d573d6000803e3d6000fd5b505050506040513d601f19601f820116820180604052508101906119419190612c2f565b9050806119835760405162461bcd60e51b815260206004820152601060248201526f2a3930b739b332b9103330b4b632b21760811b6044820152606401610b5f565b60405182815233907f884edad9ce6fa2440d8a54cc123490eb96d2768479d49ff9c7366125a94243649060200160405180910390a2505050565b60006119ca8483856120b8565b5060019392505050565b3360009081526010602090815260408083206001600160a01b038716845290915290205481811015611a485760405162461bcd60e51b815260206004820152601f60248201527f7472616e7366657220616d6f756e7420657863656564732062616c616e6365006044820152606401610b5f565b3360009081526010602081815260408084206001600160a01b0389811680875291845282862088880390558816855292825280842092845291905281208054849290611a95908490612c1c565b92505081905550826001600160a01b0316846001600160a01b03167fb2088b6984899b75218f85e4ec9c562bf38a827569cf242f21bccb07b7965f9784604051611ae191815260200190565b60405180910390a350505050565b3360009081526007602090815260408083206001600160a01b038516845290915281205460ff1615611b2357506001919050565b3360008181526007602090815260408083206001600160a01b03871684528252808320805460ff1916600117905560088252808320938352929052205460ff1615611bca576001600160a01b0382166000818152600b60209081526040808320805460018082018355918552838520018054336001600160a01b03199182168117909255908552600a84529184208054918201815584529190922001805490911690911790555b6040516001600160a01b0383169033907f299ee620f7f943423e6a9788774c2ef64ca767ff063236ec6dc9f8c9c6462eb790600090a3506001919050565b6000818152600260205260409020546001600160a01b03166118395760405162461bcd60e51b8152602060048201526018602482015277115490cdcc8c4e881a5b9d985b1a59081d1bdad95b88125160421b6044820152606401610b5f565b600081815260046020526040902080546001600160a01b0319166001600160a01b0384169081179091558190611c9c826112c9565b6001600160a01b03167f8c5be1e5ebec7d5bd14f71427d1e84f3dd0314c0f7b2291e5b200ac8c7c3b92560405160405180910390a45050565b600080611ce1836112c9565b9050806001600160a01b0316846001600160a01b03161480611d2857506001600160a01b0380821660009081526005602090815260408083209388168352929052205460ff165b80611d4c5750836001600160a01b0316611d41846109ab565b6001600160a01b0316145b949350505050565b6000818152600f6020908152604080832060038101546001600160a01b0316808552601290935292205482541015611d8b57600080fd5b6001600160a01b0381166000908152601260209081526040808320805486540386555460139092528220805491929091611dc6908490612c1c565b9091555050505050565b826001600160a01b0316611de3826112c9565b6001600160a01b031614611e475760405162461bcd60e51b815260206004820152602560248201527f4552433732313a207472616e736665722066726f6d20696e636f72726563742060448201526437bbb732b960d91b6064820152608401610b5f565b6001600160a01b038216611ea95760405162461bcd60e51b8152602060048201526024808201527f4552433732313a207472616e7366657220746f20746865207a65726f206164646044820152637265737360e01b6064820152608401610b5f565b600081815260046020908152604080832080546001600160a01b03191690556001600160a01b038616835260039091528120805460019290611eec908490612c09565b90915550506001600160a01b0382166000908152600360205260408120805460019290611f1a908490612c1c565b909155505060008181526002602052604080822080546001600160a01b0319166001600160a01b0386811691821790925591518493918716917fddf252ad1be2c89b69c2b068fc378daa952ba7f163c4a11628f55a4df523b3ef91a4505050565b6112af82826040518060200160405280600081525061259c565b60c08301516001600160a01b03163314611fdf5760405162461bcd60e51b815260206004820152600b60248201526a2737ba1030bab234ba37b960a91b6044820152606401610b5f565b42836040015110156120245760405162461bcd60e51b815260206004820152600e60248201526d10da195c5d59481b585d1d5c995960921b6044820152606401610b5f565b61202d826123be565b82516001600160a01b03808316600090815260106020908152604080832060608901519094168352929052908120805490919061206b908490612c1c565b909155505060c0830151608084015160405184926001600160a01b039081169216907fea3bb9cc6e72cd3053091f2031a5c9606f318e8220e0a781142e33c23431baa090600090a4505050565b600081116120f75760405162461bcd60e51b815260206004820152600c60248201526b16995c9bc819195c1bdcda5d60a21b6044820152606401610b5f565b60006001600160a01b0384166323b872dd336040516001600160e01b031960e084901b1681526001600160a01b039091166004820152306024820152604481018590526064016020604051808303816000875af115801561215c573d6000803e3d6000fd5b505050506040513d601f19601f820116820180604052508101906121809190612c2f565b9050806121c15760405162461bcd60e51b815260206004820152600f60248201526e151c985b9cd9995c8819985a5b1959608a1b6044820152606401610b5f565b6001600160a01b038084166000908152601060209081526040808320938816835292905290812080548492906121f8908490612c1c565b92505081905550826001600160a01b0316846001600160a01b03167f5548c837ab068cf56a2c2479df0882a4922fd203edb7517321831d95078c5f6284604051611ae191815260200190565b6006546001600160a01b031633146113c15760405162461bcd60e51b815260206004820181905260248201527f4f776e61626c653a2063616c6c6572206973206e6f7420746865206f776e65726044820152606401610b5f565b600680546001600160a01b038381166001600160a01b0319831681179093556040519116919082907f8be0079c531659141344cd1fd0a4f28419497f9722a3daafe3b4186f6b6457e090600090a35050565b816001600160a01b0316836001600160a01b0316036123515760405162461bcd60e51b815260206004820152601960248201527f4552433732313a20617070726f766520746f2063616c6c6572000000000000006044820152606401610b5f565b6001600160a01b03838116600081815260056020908152604080832094871680845294825291829020805460ff191686151590811790915591519182527f17307eab39ab6107e8899845ad3d59bd9653f200f220920489ca2b5937696c31910160405180910390a3505050565b60006123c9826112c9565b9050600082815260046020908152604080832080546001600160a01b03191690556001600160a01b03841683526003909152812080546001929061240e908490612c09565b909155505060008281526002602052604080822080546001600160a01b0319169055518391906001600160a01b038416907fddf252ad1be2c89b69c2b068fc378daa952ba7f163c4a11628f55a4df523b3ef908390a45050565b612473848484611dd0565b61247f848484846125cf565b6116335760405162461bcd60e51b8152600401610b5f90612c7b565b6060816000036124c25750506040805180820190915260018152600360fc1b602082015290565b8160005b81156124ec57806124d681612ccd565b91506124e59050600a83612cfc565b91506124c6565b60008167ffffffffffffffff81111561250757612507612a81565b6040519080825280601f01601f191660200182016040528015612531576020820181803683370190505b5090505b8415611d4c57612546600183612c09565b9150612553600a86612d10565b61255e906030612c1c565b60f81b81838151811061257357612573612d24565b60200101906001600160f81b031916908160001a905350612595600a86612cfc565b9450612535565b6125a683836126d0565b6125b360008484846125cf565b610c005760405162461bcd60e51b8152600401610b5f90612c7b565b60006001600160a01b0384163b156126c557604051630a85bd0160e11b81526001600160a01b0385169063150b7a0290612613903390899088908890600401612d3a565b6020604051808303816000875af192505050801561264e575060408051601f3d908101601f1916820190925261264b91810190612d77565b60015b6126ab573d80801561267c576040519150601f19603f3d011682016040523d82523d6000602084013e612681565b606091505b5080516000036126a35760405162461bcd60e51b8152600401610b5f90612c7b565b805181602001fd5b6001600160e01b031916630a85bd0160e11b149050611d4c565b506001949350505050565b6001600160a01b0382166127265760405162461bcd60e51b815260206004820181905260248201527f4552433732313a206d696e7420746f20746865207a65726f20616464726573736044820152606401610b5f565b6000818152600260205260409020546001600160a01b03161561278b5760405162461bcd60e51b815260206004820152601c60248201527f4552433732313a20746f6b656e20616c7265616479206d696e746564000000006044820152606401610b5f565b6001600160a01b03821660009081526003602052604081208054600192906127b4908490612c1c565b909155505060008181526002602052604080822080546001600160a01b0319166001600160a01b03861690811790915590518392907fddf252ad1be2c89b69c2b068fc378daa952ba7f163c4a11628f55a4df523b3ef908290a45050565b6001600160e01b03198116811461183957600080fd5b60006020828403121561283a57600080fd5b81356116de81612812565b60006020828403121561285757600080fd5b5035919050565b60005b83811015612879578181015183820152602001612861565b50506000910152565b6000815180845261289a81602086016020860161285e565b601f01601f19169290920160200192915050565b6020815260006116de6020830184612882565b6001600160a01b038116811461183957600080fd5b6000602082840312156128e857600080fd5b81356116de816128c1565b6000806040838503121561290657600080fd5b8235612911816128c1565b946020939093013593505050565b6020808252825182820181905260009190848201906040850190845b818110156129605783516001600160a01b03168352928401929184019160010161293b565b50909695505050505050565b60008060006060848603121561298157600080fd5b833561298c816128c1565b9250602084013561299c816128c1565b929592945050506040919091013590565b600080600080600060a086880312156129c557600080fd5b85356129d0816128c1565b9450602086013593506040860135925060608601356129ee816128c1565b915060808601356129fe816128c1565b809150509295509295909350565b60008060408385031215612a1f57600080fd5b8235612a2a816128c1565b91506020830135612a3a816128c1565b809150509250929050565b801515811461183957600080fd5b60008060408385031215612a6657600080fd5b8235612a71816128c1565b91506020830135612a3a81612a45565b634e487b7160e01b600052604160045260246000fd5b60008060008060808587031215612aad57600080fd5b8435612ab8816128c1565b93506020850135612ac8816128c1565b925060408501359150606085013567ffffffffffffffff80821115612aec57600080fd5b818701915087601f830112612b0057600080fd5b813581811115612b1257612b12612a81565b604051601f8201601f19908116603f01168101908382118183101715612b3a57612b3a612a81565b816040528281528a6020848701011115612b5357600080fd5b82602086016020830137600060208483010152809550505050505092959194509250565b600080600060608486031215612b8c57600080fd5b8335612b97816128c1565b9250602084013591506040840135612bae816128c1565b809150509250925092565b600181811c90821680612bcd57607f821691505b602082108103612bed57634e487b7160e01b600052602260045260246000fd5b50919050565b634e487b7160e01b600052601160045260246000fd5b8181038181111561091357610913612bf3565b8082018082111561091357610913612bf3565b600060208284031215612c4157600080fd5b81516116de81612a45565b60008351612c5e81846020880161285e565b835190830190612c7281836020880161285e565b01949350505050565b60208082526032908201527f4552433732313a207472616e7366657220746f206e6f6e20455243373231526560408201527131b2b4bb32b91034b6b83632b6b2b73a32b960711b606082015260800190565b600060018201612cdf57612cdf612bf3565b5060010190565b634e487b7160e01b600052601260045260246000fd5b600082612d0b57612d0b612ce6565b500490565b600082612d1f57612d1f612ce6565b500690565b634e487b7160e01b600052603260045260246000fd5b6001600160a01b0385811682528416602082015260408101839052608060608201819052600090612d6d90830184612882565b9695505050505050565b600060208284031215612d8957600080fd5b81516116de8161281256fea264697066735822122064d094f1a25b1d6b5af10a4bf15eaed1c57c213087e389e60ad06d741e1dde1f64736f6c63430008100033",
    "linkReferences": {}
  },
  "methodIdentifiers": {
    "acceptAuditor(address)": "fc9a7cfd",
    "acceptUser(address)": "08bdc24d",
    "acceptedAuditorUsers(address,uint256)": "e5e8343a",
    "acceptedUserAuditors(address,uint256)": "c1d6fa08",
    "approve(address,uint256)": "095ea7b3",
    "auditorDurations(address,uint256)": "22cb4433",
    "auditorUser(address,address)": "96753bec",
    "balanceOf(address)": "70a08231",
    "cashCheque(uint256)": "a74d6701",
    "chequeAmount(uint256)": "e50c42b0",
    "chequeAuditor(uint256)": "86cb5e07",
    "chequeCreated(uint256)": "06789346",
    "chequeDrawer(uint256)": "90090fe6",
    "chequeExpiry(uint256)": "d7ad71eb",
    "chequeInfo(uint256)": "79089355",
    "chequeRecipient(uint256)": "45fc5443",
    "chequeToken(uint256)": "aa634200",
    "deposit(address,uint256)": "47e7ef24",
    "deposit(address,uint256,address)": "f45346dc",
    "deposits(address,address)": "8f601f66",
    "directTransfer(address,address,uint256)": "f83d1791",
    "getAcceptedAuditorUsers(address)": "133f6571",
    "getAcceptedUserAuditors(address)": "122229ed",
    "getApproved(uint256)": "081812fc",
    "isApprovedForAll(address,address)": "e985e9c5",
    "lastTrustedChange(address)": "76696e80",
    "name()": "06fdde03",
    "owner()": "8da5cb5b",
    "ownerOf(uint256)": "6352211e",
    "protocolFee(address)": "b62b31e4",
    "protocolReserve(address)": "ff9081a8",
    "renounceOwnership()": "715018a6",
    "safeTransferFrom(address,address,uint256)": "42842e0e",
    "safeTransferFrom(address,address,uint256,bytes)": "b88d4fde",
    "setAllowedDuration(uint256)": "584b22d1",
    "setApprovalForAll(address,bool)": "a22cb465",
    "setProtocolFee(address,uint256)": "b5b3ca2c",
    "setTrustedAccount(address)": "cb3b5a26",
    "supportsInterface(bytes4)": "01ffc9a7",
    "symbol()": "95d89b41",
    "tokenURI(uint256)": "c87b56dd",
    "transferFrom(address,address,uint256)": "23b872dd",
    "transferOwnership(address)": "f2fde38b",
    "trustedAccount(address)": "bc3ee717",
    "trustedAccountCooldown()": "8b944423",
    "userAuditor(address,address)": "bb2d42b9",
    "voidCheque(uint256)": "4663b4dc",
    "voidRescueCheque(uint256)": "43707fc0",
    "withdraw(address,uint256)": "f3fef3a3",
    "writeCheque(address,uint256,uint256,address,address)": "2a5f290a"
  },
  "id": 19
}