{
  "abi": [
    {
      "anonymous": false,
      "inputs": [
        {
          "indexed": true,
          "internalType": "address",
          "name": "previousOwner",
          "type": "address"
        },
        {
          "indexed": true,
          "internalType": "address",
          "name": "newOwner",
          "type": "address"
        }
      ],
      "name": "OwnershipTransferred",
      "type": "event"
    },
    {
      "inputs": [
        {
          "internalType": "address",
          "name": "module",
          "type": "address"
        }
      ],
      "name": "_returnCodeHash",
      "outputs": [
        {
          "internalType": "bytes32",
          "name": "",
          "type": "bytes32"
        }
      ],
      "stateMutability": "view",
      "type": "function"
    },
    {
      "inputs": [
        {
          "internalType": "address",
          "name": "module",
          "type": "address"
        }
      ],
      "name": "moduleWhitelisted",
      "outputs": [
        {
          "internalType": "bool",
          "name": "",
          "type": "bool"
        },
        {
          "internalType": "bool",
          "name": "",
          "type": "bool"
        }
      ],
      "stateMutability": "view",
      "type": "function"
    },
    {
      "inputs": [
        {
          "internalType": "address",
          "name": "token",
          "type": "address"
        },
        {
          "internalType": "uint256",
          "name": "amount",
          "type": "uint256"
        },
        {
          "internalType": "address",
          "name": "to",
          "type": "address"
        }
      ],
      "name": "moduleWithdraw",
      "outputs": [],
      "stateMutability": "nonpayable",
      "type": "function"
    },
    {
      "inputs": [],
      "name": "owner",
      "outputs": [
        {
          "internalType": "address",
          "name": "",
          "type": "address"
        }
      ],
      "stateMutability": "view",
      "type": "function"
    },
    {
      "inputs": [],
      "name": "renounceOwnership",
      "outputs": [],
      "stateMutability": "nonpayable",
      "type": "function"
    },
    {
      "inputs": [
        {
          "internalType": "address",
          "name": "token",
          "type": "address"
        }
      ],
      "name": "tokenWhitelisted",
      "outputs": [
        {
          "internalType": "bool",
          "name": "",
          "type": "bool"
        }
      ],
      "stateMutability": "view",
      "type": "function"
    },
    {
      "inputs": [
        {
          "internalType": "address",
          "name": "newOwner",
          "type": "address"
        }
      ],
      "name": "transferOwnership",
      "outputs": [],
      "stateMutability": "nonpayable",
      "type": "function"
    },
    {
      "inputs": [
        {
          "internalType": "address",
          "name": "module",
          "type": "address"
        },
        {
          "internalType": "address",
          "name": "token",
          "type": "address"
        }
      ],
      "name": "validWrite",
      "outputs": [
        {
          "internalType": "bool",
          "name": "",
          "type": "bool"
        }
      ],
      "stateMutability": "view",
      "type": "function"
    },
    {
      "inputs": [
        {
          "internalType": "address",
          "name": "module",
          "type": "address"
        },
        {
          "internalType": "bool",
          "name": "bytecodeAccepted",
          "type": "bool"
        },
        {
          "internalType": "bool",
          "name": "addressAccepted",
          "type": "bool"
        }
      ],
      "name": "whitelistModule",
      "outputs": [],
      "stateMutability": "nonpayable",
      "type": "function"
    },
    {
      "inputs": [
        {
          "internalType": "address",
          "name": "_token",
          "type": "address"
        },
        {
          "internalType": "bool",
          "name": "accepted",
          "type": "bool"
        }
      ],
      "name": "whitelistToken",
      "outputs": [],
      "stateMutability": "nonpayable",
      "type": "function"
    }
  ],
  "bytecode": {
    "object": "0x608060405234801561001057600080fd5b5061001a3361001f565b61006f565b600080546001600160a01b038381166001600160a01b0319831681178455604051919092169283917f8be0079c531659141344cd1fd0a4f28419497f9722a3daafe3b4186f6b6457e09190a35050565b610a478061007e6000396000f3fe608060405234801561001057600080fd5b506004361061009e5760003560e01c80638da5cb5b116100665780638da5cb5b14610150578063d6a4f84c1461016b578063dfd5d8111461017e578063f2fde38b146101a1578063ff8507e8146101b457600080fd5b80630ffb1d8b146100a3578063107e2f3b146100b857806352f37f56146100dd57806353aafb6914610135578063715018a614610148575b600080fd5b6100b66100b1366004610877565b6101e0565b005b6100ca6100c63660046108ae565b3f90565b6040519081526020015b60405180910390f35b61011e6100eb3660046108ae565b6001600160a01b038116600090815260036020908152604080832054933f8352600290915290205460ff91821692911690565b6040805192151583529015156020830152016100d4565b6100b66101433660046108c9565b610256565b6100b6610344565b6000546040516001600160a01b0390911681526020016100d4565b6100b6610179366004610912565b610358565b61019161018c36600461094e565b6103f5565b60405190151581526020016100d4565b6100b66101af3660046108ae565b61042b565b6101916101c23660046108ae565b6001600160a01b031660009081526004602052604090205460ff1690565b6101e86104a4565b6001600160a01b0382166000818152600460205260409020805460ff1916831515908117909155907f1bf5ef6ada443138fcac941f79625fe01e92ff514fee9f160bff18363199c7a033604080516001600160a01b0390921682524260208301520160405180910390a35050565b61025e6104a4565b801515821515141580610277575081806102755750805b155b6102bc5760405162461bcd60e51b8152602060048201526011602482015270086829c4ea8be8286868aa0a8be849ea89607b1b60448201526064015b60405180910390fd5b823f6000908152600260209081526040808320805486151560ff1991821681179092556001600160a01b03881680865260038552948390208054871515921682179055825191825292810192909252429082015233907fe82584b416ef90b398503af85e6daba1407060c9e2d2050c858719c4f1b076479060600160405180910390a3505050565b61034c6104a4565b61035660006104fe565b565b3360009081526001602090815260408083206001600160a01b03871684529091529020548211156103b95760405162461bcd60e51b815260206004820152600b60248201526a494e5355465f46554e445360a81b60448201526064016102b3565b3360009081526001602090815260408083206001600160a01b0387168085529252909120805484900390556103f09030838561054e565b505050565b6000610400836105ae565b801561042457506001600160a01b03821660009081526004602052604090205460ff165b9392505050565b6104336104a4565b6001600160a01b0381166104985760405162461bcd60e51b815260206004820152602660248201527f4f776e61626c653a206e6577206f776e657220697320746865207a65726f206160448201526564647265737360d01b60648201526084016102b3565b6104a1816104fe565b50565b6000546001600160a01b031633146103565760405162461bcd60e51b815260206004820181905260248201527f4f776e61626c653a2063616c6c6572206973206e6f7420746865206f776e657260448201526064016102b3565b600080546001600160a01b038381166001600160a01b0319831681178455604051919092169283917f8be0079c531659141344cd1fd0a4f28419497f9722a3daafe3b4186f6b6457e09190a35050565b604080516001600160a01b0385811660248301528416604482015260648082018490528251808303909101815260849091019091526020810180516001600160e01b03166323b872dd60e01b1790526105a89085906105eb565b50505050565b6001600160a01b03811660009081526003602052604081205460ff16806105e55750813f60009081526002602052604090205460ff165b92915050565b6000610640826040518060400160405280602081526020017f5361666545524332303a206c6f772d6c6576656c2063616c6c206661696c6564815250856001600160a01b03166106bd9092919063ffffffff16565b8051909150156103f0578080602001905181019061065e9190610981565b6103f05760405162461bcd60e51b815260206004820152602a60248201527f5361666545524332303a204552433230206f7065726174696f6e20646964206e6044820152691bdd081cdd58d8d9595960b21b60648201526084016102b3565b60606106cc84846000856106d4565b949350505050565b6060824710156107355760405162461bcd60e51b815260206004820152602660248201527f416464726573733a20696e73756666696369656e742062616c616e636520666f6044820152651c8818d85b1b60d21b60648201526084016102b3565b600080866001600160a01b0316858760405161075191906109c2565b60006040518083038185875af1925050503d806000811461078e576040519150601f19603f3d011682016040523d82523d6000602084013e610793565b606091505b50915091506107a4878383876107af565b979650505050505050565b6060831561081e578251600003610817576001600160a01b0385163b6108175760405162461bcd60e51b815260206004820152601d60248201527f416464726573733a2063616c6c20746f206e6f6e2d636f6e747261637400000060448201526064016102b3565b50816106cc565b6106cc83838151156108335781518083602001fd5b8060405162461bcd60e51b81526004016102b391906109de565b80356001600160a01b038116811461086457600080fd5b919050565b80151581146104a157600080fd5b6000806040838503121561088a57600080fd5b6108938361084d565b915060208301356108a381610869565b809150509250929050565b6000602082840312156108c057600080fd5b6104248261084d565b6000806000606084860312156108de57600080fd5b6108e78461084d565b925060208401356108f781610869565b9150604084013561090781610869565b809150509250925092565b60008060006060848603121561092757600080fd5b6109308461084d565b9250602084013591506109456040850161084d565b90509250925092565b6000806040838503121561096157600080fd5b61096a8361084d565b91506109786020840161084d565b90509250929050565b60006020828403121561099357600080fd5b815161042481610869565b60005b838110156109b95781810151838201526020016109a1565b50506000910152565b600082516109d481846020870161099e565b9190910192915050565b60208152600082518060208401526109fd81604085016020870161099e565b601f01601f1916919091016040019291505056fea26469706673582212201549528ee4ac917913335e46fb59a9251e9b5c22b3acf033e2976b790e414a2464736f6c63430008100033",
    "linkReferences": {}
  },
  "methodIdentifiers": {
    "_returnCodeHash(address)": "107e2f3b",
    "moduleWhitelisted(address)": "52f37f56",
    "moduleWithdraw(address,uint256,address)": "d6a4f84c",
    "owner()": "8da5cb5b",
    "renounceOwnership()": "715018a6",
    "tokenWhitelisted(address)": "ff8507e8",
    "transferOwnership(address)": "f2fde38b",
    "validWrite(address,address)": "dfd5d811",
    "whitelistModule(address,bool,bool)": "53aafb69",
    "whitelistToken(address,bool)": "0ffb1d8b"
  },
  "id": 17
}