{
  "abi": [
    {
      "inputs": [
        {
          "internalType": "address",
          "name": "registrar",
          "type": "address"
        },
        {
          "internalType": "address",
          "name": "_writeRule",
          "type": "address"
        },
        {
          "internalType": "address",
          "name": "_transferRule",
          "type": "address"
        },
        {
          "internalType": "address",
          "name": "_fundRule",
          "type": "address"
        },
        {
          "internalType": "address",
          "name": "_cashRule",
          "type": "address"
        },
        {
          "internalType": "address",
          "name": "_approveRule",
          "type": "address"
        },
        {
          "components": [
            {
              "internalType": "uint256",
              "name": "writeBPS",
              "type": "uint256"
            },
            {
              "internalType": "uint256",
              "name": "transferBPS",
              "type": "uint256"
            },
            {
              "internalType": "uint256",
              "name": "fundBPS",
              "type": "uint256"
            },
            {
              "internalType": "uint256",
              "name": "cashBPS",
              "type": "uint256"
            }
          ],
          "internalType": "struct DataTypes.WTFCFees",
          "name": "_fees",
          "type": "tuple"
        },
        {
          "internalType": "string",
          "name": "__baseURI",
          "type": "string"
        }
      ],
      "stateMutability": "nonpayable",
      "type": "constructor"
    },
    {
      "inputs": [],
      "name": "InitParamsInvalid",
      "type": "error"
    },
    {
      "inputs": [],
      "name": "NotRegistrar",
      "type": "error"
    },
    {
      "inputs": [],
      "name": "REGISTRAR",
      "outputs": [
        {
          "internalType": "address",
          "name": "",
          "type": "address"
        }
      ],
      "stateMutability": "view",
      "type": "function"
    },
    {
      "inputs": [],
      "name": "_URI",
      "outputs": [
        {
          "internalType": "string",
          "name": "",
          "type": "string"
        }
      ],
      "stateMutability": "view",
      "type": "function"
    },
    {
      "inputs": [],
      "name": "approveRule",
      "outputs": [
        {
          "internalType": "address",
          "name": "",
          "type": "address"
        }
      ],
      "stateMutability": "view",
      "type": "function"
    },
    {
      "inputs": [],
      "name": "cashRule",
      "outputs": [
        {
          "internalType": "address",
          "name": "",
          "type": "address"
        }
      ],
      "stateMutability": "view",
      "type": "function"
    },
    {
      "inputs": [],
      "name": "fees",
      "outputs": [
        {
          "internalType": "uint256",
          "name": "writeBPS",
          "type": "uint256"
        },
        {
          "internalType": "uint256",
          "name": "transferBPS",
          "type": "uint256"
        },
        {
          "internalType": "uint256",
          "name": "fundBPS",
          "type": "uint256"
        },
        {
          "internalType": "uint256",
          "name": "cashBPS",
          "type": "uint256"
        }
      ],
      "stateMutability": "view",
      "type": "function"
    },
    {
      "inputs": [],
      "name": "fundRule",
      "outputs": [
        {
          "internalType": "address",
          "name": "",
          "type": "address"
        }
      ],
      "stateMutability": "view",
      "type": "function"
    },
    {
      "inputs": [],
      "name": "getFees",
      "outputs": [
        {
          "internalType": "uint256",
          "name": "",
          "type": "uint256"
        },
        {
          "internalType": "uint256",
          "name": "",
          "type": "uint256"
        },
        {
          "internalType": "uint256",
          "name": "",
          "type": "uint256"
        },
        {
          "internalType": "uint256",
          "name": "",
          "type": "uint256"
        }
      ],
      "stateMutability": "view",
      "type": "function"
    },
    {
      "inputs": [
        {
          "internalType": "address",
          "name": "caller",
          "type": "address"
        },
        {
          "internalType": "address",
          "name": "owner",
          "type": "address"
        },
        {
          "internalType": "address",
          "name": "to",
          "type": "address"
        },
        {
          "internalType": "uint256",
          "name": "cheqId",
          "type": "uint256"
        },
        {
          "components": [
            {
              "internalType": "address",
              "name": "currency",
              "type": "address"
            },
            {
              "internalType": "uint256",
              "name": "escrowed",
              "type": "uint256"
            },
            {
              "internalType": "uint256",
              "name": "createdAt",
              "type": "uint256"
            },
            {
              "internalType": "address",
              "name": "module",
              "type": "address"
            }
          ],
          "internalType": "struct DataTypes.Cheq",
          "name": "cheq",
          "type": "tuple"
        },
        {
          "internalType": "bytes",
          "name": "initData",
          "type": "bytes"
        }
      ],
      "name": "processApproval",
      "outputs": [],
      "stateMutability": "nonpayable",
      "type": "function"
    },
    {
      "inputs": [
        {
          "internalType": "address",
          "name": "caller",
          "type": "address"
        },
        {
          "internalType": "address",
          "name": "owner",
          "type": "address"
        },
        {
          "internalType": "address",
          "name": "to",
          "type": "address"
        },
        {
          "internalType": "uint256",
          "name": "amount",
          "type": "uint256"
        },
        {
          "internalType": "uint256",
          "name": "cheqId",
          "type": "uint256"
        },
        {
          "components": [
            {
              "internalType": "address",
              "name": "currency",
              "type": "address"
            },
            {
              "internalType": "uint256",
              "name": "escrowed",
              "type": "uint256"
            },
            {
              "internalType": "uint256",
              "name": "createdAt",
              "type": "uint256"
            },
            {
              "internalType": "address",
              "name": "module",
              "type": "address"
            }
          ],
          "internalType": "struct DataTypes.Cheq",
          "name": "cheq",
          "type": "tuple"
        },
        {
          "internalType": "bytes",
          "name": "initData",
          "type": "bytes"
        }
      ],
      "name": "processCash",
      "outputs": [
        {
          "internalType": "uint256",
          "name": "",
          "type": "uint256"
        }
      ],
      "stateMutability": "nonpayable",
      "type": "function"
    },
    {
      "inputs": [
        {
          "internalType": "address",
          "name": "caller",
          "type": "address"
        },
        {
          "internalType": "address",
          "name": "owner",
          "type": "address"
        },
        {
          "internalType": "uint256",
          "name": "amount",
          "type": "uint256"
        },
        {
          "internalType": "uint256",
          "name": "instant",
          "type": "uint256"
        },
        {
          "internalType": "uint256",
          "name": "cheqId",
          "type": "uint256"
        },
        {
          "components": [
            {
              "internalType": "address",
              "name": "currency",
              "type": "address"
            },
            {
              "internalType": "uint256",
              "name": "escrowed",
              "type": "uint256"
            },
            {
              "internalType": "uint256",
              "name": "createdAt",
              "type": "uint256"
            },
            {
              "internalType": "address",
              "name": "module",
              "type": "address"
            }
          ],
          "internalType": "struct DataTypes.Cheq",
          "name": "cheq",
          "type": "tuple"
        },
        {
          "internalType": "bytes",
          "name": "initData",
          "type": "bytes"
        }
      ],
      "name": "processFund",
      "outputs": [
        {
          "internalType": "uint256",
          "name": "",
          "type": "uint256"
        }
      ],
      "stateMutability": "nonpayable",
      "type": "function"
    },
    {
      "inputs": [
        {
          "internalType": "uint256",
          "name": "tokenId",
          "type": "uint256"
        }
      ],
      "name": "processTokenURI",
      "outputs": [
        {
          "internalType": "string",
          "name": "",
          "type": "string"
        }
      ],
      "stateMutability": "view",
      "type": "function"
    },
    {
      "inputs": [
        {
          "internalType": "address",
          "name": "caller",
          "type": "address"
        },
        {
          "internalType": "address",
          "name": "approved",
          "type": "address"
        },
        {
          "internalType": "address",
          "name": "owner",
          "type": "address"
        },
        {
          "internalType": "address",
          "name": "from",
          "type": "address"
        },
        {
          "internalType": "address",
          "name": "to",
          "type": "address"
        },
        {
          "internalType": "uint256",
          "name": "cheqId",
          "type": "uint256"
        },
        {
          "internalType": "address",
          "name": "currency",
          "type": "address"
        },
        {
          "internalType": "uint256",
          "name": "escrowed",
          "type": "uint256"
        },
        {
          "internalType": "uint256",
          "name": "createdAt",
          "type": "uint256"
        },
        {
          "internalType": "bytes",
          "name": "data",
          "type": "bytes"
        }
      ],
      "name": "processTransfer",
      "outputs": [
        {
          "internalType": "uint256",
          "name": "",
          "type": "uint256"
        }
      ],
      "stateMutability": "nonpayable",
      "type": "function"
    },
    {
      "inputs": [
        {
          "internalType": "address",
          "name": "caller",
          "type": "address"
        },
        {
          "internalType": "address",
          "name": "owner",
          "type": "address"
        },
        {
          "internalType": "uint256",
          "name": "cheqId",
          "type": "uint256"
        },
        {
          "internalType": "address",
          "name": "currency",
          "type": "address"
        },
        {
          "internalType": "uint256",
          "name": "escrowed",
          "type": "uint256"
        },
        {
          "internalType": "uint256",
          "name": "instant",
          "type": "uint256"
        },
        {
          "internalType": "bytes",
          "name": "initData",
          "type": "bytes"
        }
      ],
      "name": "processWrite",
      "outputs": [
        {
          "internalType": "uint256",
          "name": "",
          "type": "uint256"
        }
      ],
      "stateMutability": "nonpayable",
      "type": "function"
    },
    {
      "inputs": [
        {
          "internalType": "address",
          "name": "",
          "type": "address"
        },
        {
          "internalType": "address",
          "name": "",
          "type": "address"
        }
      ],
      "name": "revenue",
      "outputs": [
        {
          "internalType": "uint256",
          "name": "",
          "type": "uint256"
        }
      ],
      "stateMutability": "view",
      "type": "function"
    },
    {
      "inputs": [],
      "name": "transferRule",
      "outputs": [
        {
          "internalType": "address",
          "name": "",
          "type": "address"
        }
      ],
      "stateMutability": "view",
      "type": "function"
    },
    {
      "inputs": [
        {
          "internalType": "address",
          "name": "token",
          "type": "address"
        }
      ],
      "name": "withdrawFees",
      "outputs": [],
      "stateMutability": "nonpayable",
      "type": "function"
    },
    {
      "inputs": [],
      "name": "writeRule",
      "outputs": [
        {
          "internalType": "address",
          "name": "",
          "type": "address"
        }
      ],
      "stateMutability": "view",
      "type": "function"
    }
  ],
  "bytecode": {
    "object": "0x60a06040523480156200001157600080fd5b506040516200160838038062001608833981016040819052620000349162000441565b878787878787876001600160a01b03871662000063576040516348be0eb360e01b815260040160405180910390fd5b6001600160a01b038781166080819052604051631fa5b09760e11b81528883166004820152878316602482015286831660448201528583166064820152918416608483015290633f4b612e9060a401602060405180830381865afa158015620000d0573d6000803e3d6000fd5b505050506040513d601f19601f82011682018060405250810190620000f691906200053e565b620001385760405162461bcd60e51b815260206004820152600d60248201526c1495531154d7d2539590531251609a1b60448201526064015b60405180910390fd5b600280546001600160a01b03199081166001600160a01b038981169190911790925560038054821688841617905560048054821687841617905560058054821686841617905560068054909116918416919091179055805161271011620001d15760405162461bcd60e51b81526020600482015260146024820152600080516020620015e883398151915260448201526064016200012f565b612710816020015110620002175760405162461bcd60e51b81526020600482015260146024820152600080516020620015e883398151915260448201526064016200012f565b6127108160400151106200025d5760405162461bcd60e51b81526020600482015260146024820152600080516020620015e883398151915260448201526064016200012f565b612710816060015110620002a35760405162461bcd60e51b81526020600482015260146024820152600080516020620015e883398151915260448201526064016200012f565b80516007556020808201516008556040808301516009556060830151600a55514281526001600160a01b038916917ff1a1fa6b64aa95186f5a1285e76198d0da80d9c5a88062641d447f1d7c54e56c910160405180910390a2505050505050508060009081620003149190620005f8565b505050505050505050620006c4565b80516001600160a01b03811681146200033b57600080fd5b919050565b634e487b7160e01b600052604160045260246000fd5b604051608081016001600160401b03811182821017156200037b576200037b62000340565b60405290565b604051601f8201601f191681016001600160401b0381118282101715620003ac57620003ac62000340565b604052919050565b600082601f830112620003c657600080fd5b81516001600160401b03811115620003e257620003e262000340565b6020620003f8601f8301601f1916820162000381565b82815285828487010111156200040d57600080fd5b60005b838110156200042d57858101830151828201840152820162000410565b506000928101909101919091529392505050565b600080600080600080600080888a036101608112156200046057600080fd5b6200046b8a62000323565b98506200047b60208b0162000323565b97506200048b60408b0162000323565b96506200049b60608b0162000323565b9550620004ab60808b0162000323565b9450620004bb60a08b0162000323565b9350608060bf1982011215620004d057600080fd5b50620004db62000356565b60c08a0151815260e08a015160208201526101008a015160408201526101208a015160608201526101408a01519092506001600160401b038111156200052057600080fd5b6200052e8b828c01620003b4565b9150509295985092959890939650565b6000602082840312156200055157600080fd5b815180151581146200056257600080fd5b9392505050565b600181811c908216806200057e57607f821691505b6020821081036200059f57634e487b7160e01b600052602260045260246000fd5b50919050565b601f821115620005f357600081815260208120601f850160051c81016020861015620005ce5750805b601f850160051c820191505b81811015620005ef57828155600101620005da565b5050505b505050565b81516001600160401b0381111562000614576200061462000340565b6200062c8162000625845462000569565b84620005a5565b602080601f8311600181146200066457600084156200064b5750858301515b600019600386901b1c1916600185901b178555620005ef565b600085815260208120601f198616915b82811015620006955788860151825594840194600190910190840162000674565b5085821015620006b45787850151600019600388901b60f8161c191681555b5050505050600190811b01905550565b608051610ede6200070a60003960008181610250015281816102dc0152818161043201528181610596015281816105f1015281816106bb01526107170152610ede6000f3fe608060405234801561001057600080fd5b506004361061010b5760003560e01c8063b5d701ba116100a2578063d4c301da11610071578063d4c301da14610272578063db8d55f114610285578063df1cdb4614610296578063e4175968146102a9578063f3ea001e146102bc57600080fd5b8063b5d701ba14610212578063be2f3fdd14610225578063c0c9572c14610238578063cb6090771461024b57600080fd5b80634fe17e1a116100de5780634fe17e1a146101895780639a0ea37a146101a95780639af1d35a146101d4578063b4e87e8f1461020a57600080fd5b806306890cd0146101105780630d02cde714610136578063164e68de14610161578063433d3a7714610176575b600080fd5b61012361011e366004610846565b6102cf565b6040519081526020015b60405180910390f35b600354610149906001600160a01b031681565b6040516001600160a01b03909116815260200161012d565b61017461016f3660046108e2565b61039a565b005b600654610149906001600160a01b031681565b61019c610197366004610904565b6104cf565b60405161012d9190610963565b6101236101b7366004610976565b600160209081526000928352604080842090915290825290205481565b600754600854600954600a546101ea9392919084565b60408051948552602085019390935291830152606082015260800161012d565b61019c6104fb565b6101236102203660046109a9565b610589565b610123610233366004610a1b565b6105e4565b610123610246366004610a73565b6106ae565b6101497f000000000000000000000000000000000000000000000000000000000000000081565b600454610149906001600160a01b031681565b600754600854600954600a546101ea565b600254610149906001600160a01b031681565b6101746102b7366004610b53565b61070c565b600554610149906001600160a01b031681565b6000336001600160a01b037f0000000000000000000000000000000000000000000000000000000000000000161461031a57604051632ad9535160e01b815260040160405180910390fd5b60055460405163a81fc39560e01b81526001600160a01b039091169063a81fc39590610358908c908c908c908c908c908c908c908c90600401610cbc565b600060405180830381600087803b15801561037257600080fd5b505af1158015610386573d6000803e3d6000fd5b5050600a549b9a5050505050505050505050565b3360009081526001602081815260408084206001600160a01b0386168552909152909120549081116104095760405162461bcd60e51b8152602060048201526014602482015273496e73756666696369656e7420726576656e756560601b604482015260640160405180910390fd5b3360009081526001602081815260408084206001600160a01b03878116865292529092208190557f00000000000000000000000000000000000000000000000000000000000000009091169063d6a4f84c9084906104679085610d1b565b6040516001600160e01b031960e085901b1681526001600160a01b0390921660048301526024820152336044820152606401600060405180830381600087803b1580156104b357600080fd5b505af11580156104c7573d6000803e3d6000fd5b505050505050565b60606000826040516020016104e5929190610d76565b6040516020818303038152906040529050919050565b6000805461050890610d42565b80601f016020809104026020016040519081016040528092919081815260200182805461053490610d42565b80156105815780601f1061055657610100808354040283529160200191610581565b820191906000526020600020905b81548152906001019060200180831161056457829003601f168201915b505050505081565b6000336001600160a01b037f000000000000000000000000000000000000000000000000000000000000000016146105d457604051632ad9535160e01b815260040160405180910390fd5b5060075498975050505050505050565b6000336001600160a01b037f0000000000000000000000000000000000000000000000000000000000000000161461062f57604051632ad9535160e01b815260040160405180910390fd5b6004805460405163741c963960e01b81526001600160a01b039091169163741c96399161066c918d918d918d918d918d918d918d918d9101610e18565b600060405180830381600087803b15801561068657600080fd5b505af115801561069a573d6000803e3d6000fd5b50506009549b9a5050505050505050505050565b6000336001600160a01b037f000000000000000000000000000000000000000000000000000000000000000016146106f957604051632ad9535160e01b815260040160405180910390fd5b506008549b9a5050505050505050505050565b336001600160a01b037f0000000000000000000000000000000000000000000000000000000000000000161461075557604051632ad9535160e01b815260040160405180910390fd5b6006546040516306d25e6160e01b81526001600160a01b03909116906306d25e619061078f90899089908990899089908990600401610e53565b600060405180830381600087803b1580156107a957600080fd5b505af11580156107bd573d6000803e3d6000fd5b50505050505050505050565b80356001600160a01b03811681146107e057600080fd5b919050565b6000608082840312156107f757600080fd5b50919050565b60008083601f84011261080f57600080fd5b50813567ffffffffffffffff81111561082757600080fd5b60208301915083602082850101111561083f57600080fd5b9250929050565b600080600080600080600080610140898b03121561086357600080fd5b61086c896107c9565b975061087a60208a016107c9565b965061088860408a016107c9565b955060608901359450608089013593506108a58a60a08b016107e5565b925061012089013567ffffffffffffffff8111156108c257600080fd5b6108ce8b828c016107fd565b999c989b5096995094979396929594505050565b6000602082840312156108f457600080fd5b6108fd826107c9565b9392505050565b60006020828403121561091657600080fd5b5035919050565b6000815180845260005b8181101561094357602081850181015186830182015201610927565b506000602082860101526020601f19601f83011685010191505092915050565b6020815260006108fd602083018461091d565b6000806040838503121561098957600080fd5b610992836107c9565b91506109a0602084016107c9565b90509250929050565b60008060008060008060008060e0898b0312156109c557600080fd5b6109ce896107c9565b97506109dc60208a016107c9565b9650604089013595506109f160608a016107c9565b94506080890135935060a0890135925060c089013567ffffffffffffffff8111156108c257600080fd5b600080600080600080600080610140898b031215610a3857600080fd5b610a41896107c9565b9750610a4f60208a016107c9565b96506040890135955060608901359450608089013593506108a58a60a08b016107e5565b60008060008060008060008060008060006101408c8e031215610a9557600080fd5b610a9e8c6107c9565b9a50610aac60208d016107c9565b9950610aba60408d016107c9565b9850610ac860608d016107c9565b9750610ad660808d016107c9565b965060a08c01359550610aeb60c08d016107c9565b945060e08c013593506101008c013592506101208c013567ffffffffffffffff811115610b1757600080fd5b610b238e828f016107fd565b915080935050809150509295989b509295989b9093969950565b634e487b7160e01b600052604160045260246000fd5b6000806000806000806101208789031215610b6d57600080fd5b610b76876107c9565b9550610b84602088016107c9565b9450610b92604088016107c9565b935060608701359250610ba888608089016107e5565b915061010087013567ffffffffffffffff80821115610bc657600080fd5b818901915089601f830112610bda57600080fd5b813581811115610bec57610bec610b3d565b604051601f8201601f19908116603f01168101908382118183101715610c1457610c14610b3d565b816040528281528c6020848701011115610c2d57600080fd5b8260208601602083013760006020848301015280955050505050509295509295509295565b6001600160a01b0380610c64836107c9565b168352602082013560208401526040820135604084015280610c88606084016107c9565b166060840152505050565b81835281816020850137506000828201602090810191909152601f909101601f19169091010190565b6001600160a01b03898116825288811660208301528716604082015260608101869052608081018590526000610140610cf860a0840187610c52565b80610120840152610d0c8184018587610c93565b9b9a5050505050505050505050565b81810381811115610d3c57634e487b7160e01b600052601160045260246000fd5b92915050565b600181811c90821680610d5657607f821691505b6020821081036107f757634e487b7160e01b600052602260045260246000fd5b600080845481600182811c915080831680610d9257607f831692505b60208084108203610db157634e487b7160e01b86526022600452602486fd5b818015610dc55760018114610dda57610e07565b60ff1986168952841515850289019650610e07565b60008b81526020902060005b86811015610dff5781548b820152908501908301610de6565b505084890196505b509785525050509301949350505050565b6001600160a01b038981168252881660208201526040810187905260608101869052608081018590526000610140610cf860a0840187610c52565b6001600160a01b038781168252868116602083015285166040820152606081018490526000610120610e886080840186610c52565b80610100840152610e9b8184018561091d565b999850505050505050505056fea26469706673582212201f3ad1b43ed88c2d63acf6bb02a0026cc2b677f8bb8f82ae3f01b81110c8141064736f6c634300081000334d6f64756c653a2046656520746f6f2068696768000000000000000000000000",
    "linkReferences": {}
  },
  "methodIdentifiers": {
    "REGISTRAR()": "cb609077",
    "_URI()": "b4e87e8f",
    "approveRule()": "433d3a77",
    "cashRule()": "f3ea001e",
    "fees()": "9af1d35a",
    "fundRule()": "d4c301da",
    "getFees()": "db8d55f1",
    "processApproval(address,address,address,uint256,(address,uint256,uint256,address),bytes)": "e4175968",
    "processCash(address,address,address,uint256,uint256,(address,uint256,uint256,address),bytes)": "06890cd0",
    "processFund(address,address,uint256,uint256,uint256,(address,uint256,uint256,address),bytes)": "be2f3fdd",
    "processTokenURI(uint256)": "4fe17e1a",
    "processTransfer(address,address,address,address,address,uint256,address,uint256,uint256,bytes)": "c0c9572c",
    "processWrite(address,address,uint256,address,uint256,uint256,bytes)": "b5d701ba",
    "revenue(address,address)": "9a0ea37a",
    "transferRule()": "0d02cde7",
    "withdrawFees(address)": "164e68de",
    "writeRule()": "df1cdb46"
  },
  "id": 56
}