{
  "abi": [
    {
      "inputs": [
        {
          "internalType": "address",
          "name": "registrar",
          "type": "address"
        },
        {
          "components": [
            {
              "internalType": "uint256",
              "name": "writeBPS",
              "type": "uint256"
            },
            {
              "internalType": "uint256",
              "name": "transferBPS",
              "type": "uint256"
            },
            {
              "internalType": "uint256",
              "name": "fundBPS",
              "type": "uint256"
            },
            {
              "internalType": "uint256",
              "name": "cashBPS",
              "type": "uint256"
            }
          ],
          "internalType": "struct DataTypes.WTFCFees",
          "name": "_fees",
          "type": "tuple"
        },
        {
          "internalType": "string",
          "name": "__baseURI",
          "type": "string"
        }
      ],
      "stateMutability": "nonpayable",
      "type": "constructor"
    },
    {
      "inputs": [],
      "name": "InitParamsInvalid",
      "type": "error"
    },
    {
      "inputs": [],
      "name": "NotRegistrar",
      "type": "error"
    },
    {
      "inputs": [],
      "name": "REGISTRAR",
      "outputs": [
        {
          "internalType": "address",
          "name": "",
          "type": "address"
        }
      ],
      "stateMutability": "view",
      "type": "function"
    },
    {
      "inputs": [],
      "name": "_URI",
      "outputs": [
        {
          "internalType": "string",
          "name": "",
          "type": "string"
        }
      ],
      "stateMutability": "view",
      "type": "function"
    },
    {
      "inputs": [],
      "name": "fees",
      "outputs": [
        {
          "internalType": "uint256",
          "name": "writeBPS",
          "type": "uint256"
        },
        {
          "internalType": "uint256",
          "name": "transferBPS",
          "type": "uint256"
        },
        {
          "internalType": "uint256",
          "name": "fundBPS",
          "type": "uint256"
        },
        {
          "internalType": "uint256",
          "name": "cashBPS",
          "type": "uint256"
        }
      ],
      "stateMutability": "view",
      "type": "function"
    },
    {
      "inputs": [],
      "name": "getFees",
      "outputs": [
        {
          "internalType": "uint256",
          "name": "",
          "type": "uint256"
        },
        {
          "internalType": "uint256",
          "name": "",
          "type": "uint256"
        },
        {
          "internalType": "uint256",
          "name": "",
          "type": "uint256"
        },
        {
          "internalType": "uint256",
          "name": "",
          "type": "uint256"
        }
      ],
      "stateMutability": "view",
      "type": "function"
    },
    {
      "inputs": [
        {
          "internalType": "address",
          "name": "caller",
          "type": "address"
        },
        {
          "internalType": "address",
          "name": "owner",
          "type": "address"
        },
        {
          "internalType": "address",
          "name": "to",
          "type": "address"
        },
        {
          "internalType": "uint256",
          "name": "cheqId",
          "type": "uint256"
        },
        {
          "components": [
            {
              "internalType": "address",
              "name": "currency",
              "type": "address"
            },
            {
              "internalType": "uint256",
              "name": "escrowed",
              "type": "uint256"
            },
            {
              "internalType": "uint256",
              "name": "createdAt",
              "type": "uint256"
            },
            {
              "internalType": "address",
              "name": "module",
              "type": "address"
            }
          ],
          "internalType": "struct DataTypes.Cheq",
          "name": "cheq",
          "type": "tuple"
        },
        {
          "internalType": "bytes",
          "name": "initData",
          "type": "bytes"
        }
      ],
      "name": "processApproval",
      "outputs": [],
      "stateMutability": "nonpayable",
      "type": "function"
    },
    {
      "inputs": [
        {
          "internalType": "address",
          "name": "caller",
          "type": "address"
        },
        {
          "internalType": "address",
          "name": "owner",
          "type": "address"
        },
        {
          "internalType": "address",
          "name": "to",
          "type": "address"
        },
        {
          "internalType": "uint256",
          "name": "amount",
          "type": "uint256"
        },
        {
          "internalType": "uint256",
          "name": "cheqId",
          "type": "uint256"
        },
        {
          "components": [
            {
              "internalType": "address",
              "name": "currency",
              "type": "address"
            },
            {
              "internalType": "uint256",
              "name": "escrowed",
              "type": "uint256"
            },
            {
              "internalType": "uint256",
              "name": "createdAt",
              "type": "uint256"
            },
            {
              "internalType": "address",
              "name": "module",
              "type": "address"
            }
          ],
          "internalType": "struct DataTypes.Cheq",
          "name": "cheq",
          "type": "tuple"
        },
        {
          "internalType": "bytes",
          "name": "initData",
          "type": "bytes"
        }
      ],
      "name": "processCash",
      "outputs": [
        {
          "internalType": "uint256",
          "name": "",
          "type": "uint256"
        }
      ],
      "stateMutability": "nonpayable",
      "type": "function"
    },
    {
      "inputs": [
        {
          "internalType": "address",
          "name": "caller",
          "type": "address"
        },
        {
          "internalType": "address",
          "name": "owner",
          "type": "address"
        },
        {
          "internalType": "uint256",
          "name": "amount",
          "type": "uint256"
        },
        {
          "internalType": "uint256",
          "name": "instant",
          "type": "uint256"
        },
        {
          "internalType": "uint256",
          "name": "cheqId",
          "type": "uint256"
        },
        {
          "components": [
            {
              "internalType": "address",
              "name": "currency",
              "type": "address"
            },
            {
              "internalType": "uint256",
              "name": "escrowed",
              "type": "uint256"
            },
            {
              "internalType": "uint256",
              "name": "createdAt",
              "type": "uint256"
            },
            {
              "internalType": "address",
              "name": "module",
              "type": "address"
            }
          ],
          "internalType": "struct DataTypes.Cheq",
          "name": "cheq",
          "type": "tuple"
        },
        {
          "internalType": "bytes",
          "name": "initData",
          "type": "bytes"
        }
      ],
      "name": "processFund",
      "outputs": [
        {
          "internalType": "uint256",
          "name": "",
          "type": "uint256"
        }
      ],
      "stateMutability": "nonpayable",
      "type": "function"
    },
    {
      "inputs": [
        {
          "internalType": "uint256",
          "name": "tokenId",
          "type": "uint256"
        }
      ],
      "name": "processTokenURI",
      "outputs": [
        {
          "internalType": "string",
          "name": "",
          "type": "string"
        }
      ],
      "stateMutability": "view",
      "type": "function"
    },
    {
      "inputs": [
        {
          "internalType": "address",
          "name": "caller",
          "type": "address"
        },
        {
          "internalType": "address",
          "name": "approved",
          "type": "address"
        },
        {
          "internalType": "address",
          "name": "owner",
          "type": "address"
        },
        {
          "internalType": "address",
          "name": "from",
          "type": "address"
        },
        {
          "internalType": "address",
          "name": "to",
          "type": "address"
        },
        {
          "internalType": "uint256",
          "name": "cheqId",
          "type": "uint256"
        },
        {
          "internalType": "address",
          "name": "currency",
          "type": "address"
        },
        {
          "internalType": "uint256",
          "name": "escrowed",
          "type": "uint256"
        },
        {
          "internalType": "uint256",
          "name": "createdAt",
          "type": "uint256"
        },
        {
          "internalType": "bytes",
          "name": "data",
          "type": "bytes"
        }
      ],
      "name": "processTransfer",
      "outputs": [
        {
          "internalType": "uint256",
          "name": "",
          "type": "uint256"
        }
      ],
      "stateMutability": "nonpayable",
      "type": "function"
    },
    {
      "inputs": [
        {
          "internalType": "address",
          "name": "caller",
          "type": "address"
        },
        {
          "internalType": "address",
          "name": "owner",
          "type": "address"
        },
        {
          "internalType": "uint256",
          "name": "cheqId",
          "type": "uint256"
        },
        {
          "internalType": "address",
          "name": "currency",
          "type": "address"
        },
        {
          "internalType": "uint256",
          "name": "escrowed",
          "type": "uint256"
        },
        {
          "internalType": "uint256",
          "name": "instant",
          "type": "uint256"
        },
        {
          "internalType": "bytes",
          "name": "initData",
          "type": "bytes"
        }
      ],
      "name": "processWrite",
      "outputs": [
        {
          "internalType": "uint256",
          "name": "",
          "type": "uint256"
        }
      ],
      "stateMutability": "nonpayable",
      "type": "function"
    },
    {
      "inputs": [
        {
          "internalType": "address",
          "name": "",
          "type": "address"
        },
        {
          "internalType": "address",
          "name": "",
          "type": "address"
        }
      ],
      "name": "revenue",
      "outputs": [
        {
          "internalType": "uint256",
          "name": "",
          "type": "uint256"
        }
      ],
      "stateMutability": "view",
      "type": "function"
    },
    {
      "inputs": [
        {
          "internalType": "address",
          "name": "token",
          "type": "address"
        }
      ],
      "name": "withdrawFees",
      "outputs": [],
      "stateMutability": "nonpayable",
      "type": "function"
    }
  ],
  "bytecode": {
    "object": "0x60a06040523480156200001157600080fd5b50604051620010d4380380620010d48339810160408190526200003491620002f9565b82826001600160a01b0382166200005e576040516348be0eb360e01b815260040160405180910390fd5b6001600160a01b038216608052805161271011620000b25760405162461bcd60e51b81526020600482015260146024820152600080516020620010b483398151915260448201526064015b60405180910390fd5b612710816020015110620000f85760405162461bcd60e51b81526020600482015260146024820152600080516020620010b48339815191526044820152606401620000a9565b6127108160400151106200013e5760405162461bcd60e51b81526020600482015260146024820152600080516020620010b48339815191526044820152606401620000a9565b612710816060015110620001845760405162461bcd60e51b81526020600482015260146024820152600080516020620010b48339815191526044820152606401620000a9565b80516002556020808201516003556040808301516004556060830151600555514281526001600160a01b038416917ff1a1fa6b64aa95186f5a1285e76198d0da80d9c5a88062641d447f1d7c54e56c910160405180910390a25060009050620001ee828262000431565b50505050620004fd565b634e487b7160e01b600052604160045260246000fd5b604051608081016001600160401b0381118282101715620002335762000233620001f8565b60405290565b604051601f8201601f191681016001600160401b0381118282101715620002645762000264620001f8565b604052919050565b600082601f8301126200027e57600080fd5b81516001600160401b038111156200029a576200029a620001f8565b6020620002b0601f8301601f1916820162000239565b8281528582848701011115620002c557600080fd5b60005b83811015620002e5578581018301518282018401528201620002c8565b506000928101909101919091529392505050565b600080600083850360c08112156200031057600080fd5b84516001600160a01b03811681146200032857600080fd5b93506080601f19820112156200033d57600080fd5b50620003486200020e565b602085015181526040850151602082015260608501516040820152608085015160608201528092505060a084015160018060401b038111156200038a57600080fd5b62000398868287016200026c565b9150509250925092565b600181811c90821680620003b757607f821691505b602082108103620003d857634e487b7160e01b600052602260045260246000fd5b50919050565b601f8211156200042c57600081815260208120601f850160051c81016020861015620004075750805b601f850160051c820191505b81811015620004285782815560010162000413565b5050505b505050565b81516001600160401b038111156200044d576200044d620001f8565b62000465816200045e8454620003a2565b84620003de565b602080601f8311600181146200049d5760008415620004845750858301515b600019600386901b1c1916600185901b17855562000428565b600085815260208120601f198616915b82811015620004ce57888601518255948401946001909101908401620004ad565b5085821015620004ed5787850151600019600388901b60f8161c191681555b5050505050600190811b01905550565b608051610b7162000543600039600081816101bb015281816102260152818161030c01528181610470015281816104cb0152818161052601526105820152610b716000f3fe608060405234801561001057600080fd5b50600436106100b45760003560e01c8063b5d701ba11610071578063b5d701ba1461017d578063be2f3fdd14610190578063c0c9572c146101a3578063cb609077146101b6578063db8d55f1146101f5578063e41759681461020657600080fd5b806306890cd0146100b9578063164e68de146100df5780634fe17e1a146100f45780639a0ea37a146101145780639af1d35a1461013f578063b4e87e8f14610175575b600080fd5b6100cc6100c736600461063d565b610219565b6040519081526020015b60405180910390f35b6100f26100ed3660046106d9565b610274565b005b6101076101023660046106fb565b6103a9565b6040516100d69190610714565b6100cc610122366004610762565b600160209081526000928352604080842090915290825290205481565b6002546003546004546005546101559392919084565b6040805194855260208501939093529183015260608201526080016100d6565b6101076103d5565b6100cc61018b366004610795565b610463565b6100cc61019e366004610807565b6104be565b6100cc6101b136600461085f565b610519565b6101dd7f000000000000000000000000000000000000000000000000000000000000000081565b6040516001600160a01b0390911681526020016100d6565b600254600354600454600554610155565b6100f261021436600461093f565b610577565b6000336001600160a01b037f0000000000000000000000000000000000000000000000000000000000000000161461026457604051632ad9535160e01b815260040160405180910390fd5b5060055498975050505050505050565b3360009081526001602081815260408084206001600160a01b0386168552909152909120549081116102e35760405162461bcd60e51b8152602060048201526014602482015273496e73756666696369656e7420726576656e756560601b604482015260640160405180910390fd5b3360009081526001602081815260408084206001600160a01b03878116865292529092208190557f00000000000000000000000000000000000000000000000000000000000000009091169063d6a4f84c9084906103419085610a3e565b6040516001600160e01b031960e085901b1681526001600160a01b0390921660048301526024820152336044820152606401600060405180830381600087803b15801561038d57600080fd5b505af11580156103a1573d6000803e3d6000fd5b505050505050565b60606000826040516020016103bf929190610a99565b6040516020818303038152906040529050919050565b600080546103e290610a65565b80601f016020809104026020016040519081016040528092919081815260200182805461040e90610a65565b801561045b5780601f106104305761010080835404028352916020019161045b565b820191906000526020600020905b81548152906001019060200180831161043e57829003601f168201915b505050505081565b6000336001600160a01b037f000000000000000000000000000000000000000000000000000000000000000016146104ae57604051632ad9535160e01b815260040160405180910390fd5b5060025498975050505050505050565b6000336001600160a01b037f0000000000000000000000000000000000000000000000000000000000000000161461050957604051632ad9535160e01b815260040160405180910390fd5b5060045498975050505050505050565b6000336001600160a01b037f0000000000000000000000000000000000000000000000000000000000000000161461056457604051632ad9535160e01b815260040160405180910390fd5b506003549b9a5050505050505050505050565b336001600160a01b037f000000000000000000000000000000000000000000000000000000000000000016146103a157604051632ad9535160e01b815260040160405180910390fd5b80356001600160a01b03811681146105d757600080fd5b919050565b6000608082840312156105ee57600080fd5b50919050565b60008083601f84011261060657600080fd5b50813567ffffffffffffffff81111561061e57600080fd5b60208301915083602082850101111561063657600080fd5b9250929050565b600080600080600080600080610140898b03121561065a57600080fd5b610663896105c0565b975061067160208a016105c0565b965061067f60408a016105c0565b9550606089013594506080890135935061069c8a60a08b016105dc565b925061012089013567ffffffffffffffff8111156106b957600080fd5b6106c58b828c016105f4565b999c989b5096995094979396929594505050565b6000602082840312156106eb57600080fd5b6106f4826105c0565b9392505050565b60006020828403121561070d57600080fd5b5035919050565b600060208083528351808285015260005b8181101561074157858101830151858201604001528201610725565b506000604082860101526040601f19601f8301168501019250505092915050565b6000806040838503121561077557600080fd5b61077e836105c0565b915061078c602084016105c0565b90509250929050565b60008060008060008060008060e0898b0312156107b157600080fd5b6107ba896105c0565b97506107c860208a016105c0565b9650604089013595506107dd60608a016105c0565b94506080890135935060a0890135925060c089013567ffffffffffffffff8111156106b957600080fd5b600080600080600080600080610140898b03121561082457600080fd5b61082d896105c0565b975061083b60208a016105c0565b965060408901359550606089013594506080890135935061069c8a60a08b016105dc565b60008060008060008060008060008060006101408c8e03121561088157600080fd5b61088a8c6105c0565b9a5061089860208d016105c0565b99506108a660408d016105c0565b98506108b460608d016105c0565b97506108c260808d016105c0565b965060a08c013595506108d760c08d016105c0565b945060e08c013593506101008c013592506101208c013567ffffffffffffffff81111561090357600080fd5b61090f8e828f016105f4565b915080935050809150509295989b509295989b9093969950565b634e487b7160e01b600052604160045260246000fd5b600080600080600080610120878903121561095957600080fd5b610962876105c0565b9550610970602088016105c0565b945061097e604088016105c0565b93506060870135925061099488608089016105dc565b915061010087013567ffffffffffffffff808211156109b257600080fd5b818901915089601f8301126109c657600080fd5b8135818111156109d8576109d8610929565b604051601f8201601f19908116603f01168101908382118183101715610a0057610a00610929565b816040528281528c6020848701011115610a1957600080fd5b8260208601602083013760006020848301015280955050505050509295509295509295565b81810381811115610a5f57634e487b7160e01b600052601160045260246000fd5b92915050565b600181811c90821680610a7957607f821691505b6020821081036105ee57634e487b7160e01b600052602260045260246000fd5b600080845481600182811c915080831680610ab557607f831692505b60208084108203610ad457634e487b7160e01b86526022600452602486fd5b818015610ae85760018114610afd57610b2a565b60ff1986168952841515850289019650610b2a565b60008b81526020902060005b86811015610b225781548b820152908501908301610b09565b505084890196505b50978552505050930194935050505056fea264697066735822122013b5391091741b14c78fc0fca0d2457793c8d1ddfcb2087084c3f03c9427773664736f6c634300081000334d6f64756c653a2046656520746f6f2068696768000000000000000000000000",
    "linkReferences": {}
  },
  "methodIdentifiers": {
    "REGISTRAR()": "cb609077",
    "_URI()": "b4e87e8f",
    "fees()": "9af1d35a",
    "getFees()": "db8d55f1",
    "processApproval(address,address,address,uint256,(address,uint256,uint256,address),bytes)": "e4175968",
    "processCash(address,address,address,uint256,uint256,(address,uint256,uint256,address),bytes)": "06890cd0",
    "processFund(address,address,uint256,uint256,uint256,(address,uint256,uint256,address),bytes)": "be2f3fdd",
    "processTokenURI(uint256)": "4fe17e1a",
    "processTransfer(address,address,address,address,address,uint256,address,uint256,uint256,bytes)": "c0c9572c",
    "processWrite(address,address,uint256,address,uint256,uint256,bytes)": "b5d701ba",
    "revenue(address,address)": "9a0ea37a",
    "withdrawFees(address)": "164e68de"
  },
  "id": 45
}