{
  "abi": [
    {
      "inputs": [],
      "stateMutability": "nonpayable",
      "type": "constructor"
    },
    {
      "anonymous": false,
      "inputs": [
        {
          "indexed": true,
          "internalType": "address",
          "name": "owner",
          "type": "address"
        },
        {
          "indexed": true,
          "internalType": "address",
          "name": "approved",
          "type": "address"
        },
        {
          "indexed": true,
          "internalType": "uint256",
          "name": "tokenId",
          "type": "uint256"
        }
      ],
      "name": "Approval",
      "type": "event"
    },
    {
      "anonymous": false,
      "inputs": [
        {
          "indexed": true,
          "internalType": "address",
          "name": "owner",
          "type": "address"
        },
        {
          "indexed": true,
          "internalType": "address",
          "name": "operator",
          "type": "address"
        },
        {
          "indexed": false,
          "internalType": "bool",
          "name": "approved",
          "type": "bool"
        }
      ],
      "name": "ApprovalForAll",
      "type": "event"
    },
    {
      "anonymous": false,
      "inputs": [
        {
          "indexed": true,
          "internalType": "address",
          "name": "bearer",
          "type": "address"
        },
        {
          "indexed": true,
          "internalType": "uint256",
          "name": "tokenId",
          "type": "uint256"
        }
      ],
      "name": "Cash",
      "type": "event"
    },
    {
      "anonymous": false,
      "inputs": [
        {
          "indexed": true,
          "internalType": "contract IERC20",
          "name": "_token",
          "type": "address"
        },
        {
          "indexed": true,
          "internalType": "address",
          "name": "to",
          "type": "address"
        },
        {
          "indexed": false,
          "internalType": "uint256",
          "name": "amount",
          "type": "uint256"
        }
      ],
      "name": "Deposit",
      "type": "event"
    },
    {
      "anonymous": false,
      "inputs": [
        {
          "indexed": true,
          "internalType": "address",
          "name": "previousOwner",
          "type": "address"
        },
        {
          "indexed": true,
          "internalType": "address",
          "name": "newOwner",
          "type": "address"
        }
      ],
      "name": "OwnershipTransferred",
      "type": "event"
    },
    {
      "anonymous": false,
      "inputs": [
        {
          "indexed": false,
          "internalType": "contract IERC20",
          "name": "_token",
          "type": "address"
        },
        {
          "indexed": false,
          "internalType": "uint256",
          "name": "amount",
          "type": "uint256"
        }
      ],
      "name": "SetProtocolFee",
      "type": "event"
    },
    {
      "anonymous": false,
      "inputs": [
        {
          "indexed": true,
          "internalType": "address",
          "name": "user",
          "type": "address"
        },
        {
          "indexed": true,
          "internalType": "address",
          "name": "auditor",
          "type": "address"
        },
        {
          "indexed": false,
          "internalType": "bool",
          "name": "accepted",
          "type": "bool"
        }
      ],
      "name": "ShakeAuditor",
      "type": "event"
    },
    {
      "anonymous": false,
      "inputs": [
        {
          "indexed": true,
          "internalType": "address",
          "name": "auditor",
          "type": "address"
        },
        {
          "indexed": true,
          "internalType": "address",
          "name": "user",
          "type": "address"
        },
        {
          "indexed": false,
          "internalType": "bool",
          "name": "accepted",
          "type": "bool"
        }
      ],
      "name": "ShakeUser",
      "type": "event"
    },
    {
      "anonymous": false,
      "inputs": [
        {
          "indexed": true,
          "internalType": "address",
          "name": "from",
          "type": "address"
        },
        {
          "indexed": true,
          "internalType": "address",
          "name": "to",
          "type": "address"
        },
        {
          "indexed": true,
          "internalType": "uint256",
          "name": "tokenId",
          "type": "uint256"
        }
      ],
      "name": "Transfer",
      "type": "event"
    },
    {
      "anonymous": false,
      "inputs": [
        {
          "indexed": true,
          "internalType": "address",
          "name": "bearer",
          "type": "address"
        },
        {
          "indexed": true,
          "internalType": "uint256",
          "name": "tokenId",
          "type": "uint256"
        }
      ],
      "name": "Void",
      "type": "event"
    },
    {
      "anonymous": false,
      "inputs": [
        {
          "indexed": true,
          "internalType": "address",
          "name": "_address",
          "type": "address"
        },
        {
          "indexed": false,
          "internalType": "uint256",
          "name": "amount",
          "type": "uint256"
        }
      ],
      "name": "Withdraw",
      "type": "event"
    },
    {
      "anonymous": false,
      "inputs": [
        {
          "indexed": true,
          "internalType": "uint256",
          "name": "tokenId",
          "type": "uint256"
        },
        {
          "indexed": false,
          "internalType": "uint256",
          "name": "amount",
          "type": "uint256"
        },
        {
          "indexed": false,
          "internalType": "uint256",
          "name": "expiry",
          "type": "uint256"
        },
        {
          "indexed": false,
          "internalType": "contract IERC20",
          "name": "token",
          "type": "address"
        },
        {
          "indexed": false,
          "internalType": "address",
          "name": "drawer",
          "type": "address"
        },
        {
          "indexed": true,
          "internalType": "address",
          "name": "recipient",
          "type": "address"
        },
        {
          "indexed": true,
          "internalType": "address",
          "name": "auditor",
          "type": "address"
        }
      ],
      "name": "WriteCheque",
      "type": "event"
    },
    {
      "inputs": [
        {
          "internalType": "address",
          "name": "auditor",
          "type": "address"
        },
        {
          "internalType": "bool",
          "name": "accept",
          "type": "bool"
        }
      ],
      "name": "acceptAuditor",
      "outputs": [
        {
          "internalType": "bool",
          "name": "",
          "type": "bool"
        }
      ],
      "stateMutability": "nonpayable",
      "type": "function"
    },
    {
      "inputs": [
        {
          "internalType": "address",
          "name": "drawer",
          "type": "address"
        },
        {
          "internalType": "bool",
          "name": "accept",
          "type": "bool"
        }
      ],
      "name": "acceptUser",
      "outputs": [
        {
          "internalType": "bool",
          "name": "",
          "type": "bool"
        }
      ],
      "stateMutability": "nonpayable",
      "type": "function"
    },
    {
      "inputs": [
        {
          "internalType": "address",
          "name": "",
          "type": "address"
        },
        {
          "internalType": "address",
          "name": "",
          "type": "address"
        }
      ],
      "name": "acceptedAuditorTimestamp",
      "outputs": [
        {
          "internalType": "uint256",
          "name": "",
          "type": "uint256"
        }
      ],
      "stateMutability": "view",
      "type": "function"
    },
    {
      "inputs": [
        {
          "internalType": "address",
          "name": "to",
          "type": "address"
        },
        {
          "internalType": "uint256",
          "name": "tokenId",
          "type": "uint256"
        }
      ],
      "name": "approve",
      "outputs": [],
      "stateMutability": "nonpayable",
      "type": "function"
    },
    {
      "inputs": [
        {
          "internalType": "address",
          "name": "",
          "type": "address"
        }
      ],
      "name": "auditorFlatFee",
      "outputs": [
        {
          "internalType": "uint256",
          "name": "",
          "type": "uint256"
        }
      ],
      "stateMutability": "view",
      "type": "function"
    },
    {
      "inputs": [
        {
          "internalType": "address",
          "name": "",
          "type": "address"
        },
        {
          "internalType": "address",
          "name": "",
          "type": "address"
        }
      ],
      "name": "auditorUser",
      "outputs": [
        {
          "internalType": "bool",
          "name": "",
          "type": "bool"
        }
      ],
      "stateMutability": "view",
      "type": "function"
    },
    {
      "inputs": [
        {
          "internalType": "address",
          "name": "owner",
          "type": "address"
        }
      ],
      "name": "balanceOf",
      "outputs": [
        {
          "internalType": "uint256",
          "name": "",
          "type": "uint256"
        }
      ],
      "stateMutability": "view",
      "type": "function"
    },
    {
      "inputs": [
        {
          "internalType": "uint256",
          "name": "chequeID",
          "type": "uint256"
        }
      ],
      "name": "cashCheque",
      "outputs": [],
      "stateMutability": "nonpayable",
      "type": "function"
    },
    {
      "inputs": [
        {
          "internalType": "uint256",
          "name": "chequeId",
          "type": "uint256"
        }
      ],
      "name": "chequeAmount",
      "outputs": [
        {
          "internalType": "uint256",
          "name": "",
          "type": "uint256"
        }
      ],
      "stateMutability": "view",
      "type": "function"
    },
    {
      "inputs": [
        {
          "internalType": "uint256",
          "name": "chequeId",
          "type": "uint256"
        }
      ],
      "name": "chequeAuditor",
      "outputs": [
        {
          "internalType": "address",
          "name": "",
          "type": "address"
        }
      ],
      "stateMutability": "view",
      "type": "function"
    },
    {
      "inputs": [
        {
          "internalType": "uint256",
          "name": "chequeId",
          "type": "uint256"
        }
      ],
      "name": "chequeCreated",
      "outputs": [
        {
          "internalType": "uint256",
          "name": "",
          "type": "uint256"
        }
      ],
      "stateMutability": "view",
      "type": "function"
    },
    {
      "inputs": [
        {
          "internalType": "uint256",
          "name": "chequeId",
          "type": "uint256"
        }
      ],
      "name": "chequeDrawer",
      "outputs": [
        {
          "internalType": "address",
          "name": "",
          "type": "address"
        }
      ],
      "stateMutability": "view",
      "type": "function"
    },
    {
      "inputs": [
        {
          "internalType": "uint256",
          "name": "chequeId",
          "type": "uint256"
        }
      ],
      "name": "chequeExpiry",
      "outputs": [
        {
          "internalType": "uint256",
          "name": "",
          "type": "uint256"
        }
      ],
      "stateMutability": "view",
      "type": "function"
    },
    {
      "inputs": [
        {
          "internalType": "uint256",
          "name": "",
          "type": "uint256"
        }
      ],
      "name": "chequeInfo",
      "outputs": [
        {
          "internalType": "uint256",
          "name": "amount",
          "type": "uint256"
        },
        {
          "internalType": "uint256",
          "name": "created",
          "type": "uint256"
        },
        {
          "internalType": "uint256",
          "name": "expiry",
          "type": "uint256"
        },
        {
          "internalType": "contract IERC20",
          "name": "token",
          "type": "address"
        },
        {
          "internalType": "address",
          "name": "drawer",
          "type": "address"
        },
        {
          "internalType": "address",
          "name": "recipient",
          "type": "address"
        },
        {
          "internalType": "address",
          "name": "auditor",
          "type": "address"
        },
        {
          "internalType": "enum Cheq.Status",
          "name": "status",
          "type": "uint8"
        }
      ],
      "stateMutability": "view",
      "type": "function"
    },
    {
      "inputs": [
        {
          "internalType": "uint256",
          "name": "chequeId",
          "type": "uint256"
        }
      ],
      "name": "chequeRecipient",
      "outputs": [
        {
          "internalType": "address",
          "name": "",
          "type": "address"
        }
      ],
      "stateMutability": "view",
      "type": "function"
    },
    {
      "inputs": [
        {
          "internalType": "uint256",
          "name": "chequeId",
          "type": "uint256"
        }
      ],
      "name": "chequeToken",
      "outputs": [
        {
          "internalType": "contract IERC20",
          "name": "",
          "type": "address"
        }
      ],
      "stateMutability": "view",
      "type": "function"
    },
    {
      "inputs": [
        {
          "internalType": "contract IERC20",
          "name": "_token",
          "type": "address"
        },
        {
          "internalType": "uint256",
          "name": "_amount",
          "type": "uint256"
        }
      ],
      "name": "deposit",
      "outputs": [
        {
          "internalType": "bool",
          "name": "",
          "type": "bool"
        }
      ],
      "stateMutability": "nonpayable",
      "type": "function"
    },
    {
      "inputs": [
        {
          "internalType": "contract IERC20",
          "name": "_token",
          "type": "address"
        },
        {
          "internalType": "uint256",
          "name": "_amount",
          "type": "uint256"
        },
        {
          "internalType": "address",
          "name": "_address",
          "type": "address"
        }
      ],
      "name": "deposit",
      "outputs": [
        {
          "internalType": "bool",
          "name": "",
          "type": "bool"
        }
      ],
      "stateMutability": "nonpayable",
      "type": "function"
    },
    {
      "inputs": [
        {
          "internalType": "contract IERC20",
          "name": "_token",
          "type": "address"
        },
        {
          "internalType": "uint256",
          "name": "amount",
          "type": "uint256"
        },
        {
          "internalType": "uint256",
          "name": "duration",
          "type": "uint256"
        },
        {
          "internalType": "address",
          "name": "auditor",
          "type": "address"
        },
        {
          "internalType": "address",
          "name": "recipient",
          "type": "address"
        }
      ],
      "name": "depositWrite",
      "outputs": [
        {
          "internalType": "uint256",
          "name": "",
          "type": "uint256"
        }
      ],
      "stateMutability": "nonpayable",
      "type": "function"
    },
    {
      "inputs": [
        {
          "internalType": "address",
          "name": "",
          "type": "address"
        },
        {
          "internalType": "contract IERC20",
          "name": "",
          "type": "address"
        }
      ],
      "name": "deposits",
      "outputs": [
        {
          "internalType": "uint256",
          "name": "",
          "type": "uint256"
        }
      ],
      "stateMutability": "view",
      "type": "function"
    },
    {
      "inputs": [
        {
          "internalType": "uint256",
          "name": "tokenId",
          "type": "uint256"
        }
      ],
      "name": "getApproved",
      "outputs": [
        {
          "internalType": "address",
          "name": "",
          "type": "address"
        }
      ],
      "stateMutability": "view",
      "type": "function"
    },
    {
      "inputs": [
        {
          "internalType": "address",
          "name": "owner",
          "type": "address"
        },
        {
          "internalType": "address",
          "name": "operator",
          "type": "address"
        }
      ],
      "name": "isApprovedForAll",
      "outputs": [
        {
          "internalType": "bool",
          "name": "",
          "type": "bool"
        }
      ],
      "stateMutability": "view",
      "type": "function"
    },
    {
      "inputs": [],
      "name": "name",
      "outputs": [
        {
          "internalType": "string",
          "name": "",
          "type": "string"
        }
      ],
      "stateMutability": "view",
      "type": "function"
    },
    {
      "inputs": [],
      "name": "owner",
      "outputs": [
        {
          "internalType": "address",
          "name": "",
          "type": "address"
        }
      ],
      "stateMutability": "view",
      "type": "function"
    },
    {
      "inputs": [
        {
          "internalType": "uint256",
          "name": "tokenId",
          "type": "uint256"
        }
      ],
      "name": "ownerOf",
      "outputs": [
        {
          "internalType": "address",
          "name": "",
          "type": "address"
        }
      ],
      "stateMutability": "view",
      "type": "function"
    },
    {
      "inputs": [
        {
          "internalType": "contract IERC20",
          "name": "",
          "type": "address"
        }
      ],
      "name": "protocolFee",
      "outputs": [
        {
          "internalType": "uint256",
          "name": "",
          "type": "uint256"
        }
      ],
      "stateMutability": "view",
      "type": "function"
    },
    {
      "inputs": [
        {
          "internalType": "contract IERC20",
          "name": "",
          "type": "address"
        }
      ],
      "name": "protocolReserve",
      "outputs": [
        {
          "internalType": "uint256",
          "name": "",
          "type": "uint256"
        }
      ],
      "stateMutability": "view",
      "type": "function"
    },
    {
      "inputs": [],
      "name": "renounceOwnership",
      "outputs": [],
      "stateMutability": "nonpayable",
      "type": "function"
    },
    {
      "inputs": [
        {
          "internalType": "address",
          "name": "from",
          "type": "address"
        },
        {
          "internalType": "address",
          "name": "to",
          "type": "address"
        },
        {
          "internalType": "uint256",
          "name": "tokenId",
          "type": "uint256"
        }
      ],
      "name": "safeTransferFrom",
      "outputs": [],
      "stateMutability": "nonpayable",
      "type": "function"
    },
    {
      "inputs": [
        {
          "internalType": "address",
          "name": "from",
          "type": "address"
        },
        {
          "internalType": "address",
          "name": "to",
          "type": "address"
        },
        {
          "internalType": "uint256",
          "name": "chequeID",
          "type": "uint256"
        },
        {
          "internalType": "bytes",
          "name": "data",
          "type": "bytes"
        }
      ],
      "name": "safeTransferFrom",
      "outputs": [],
      "stateMutability": "nonpayable",
      "type": "function"
    },
    {
      "inputs": [],
      "name": "selfDestruct",
      "outputs": [],
      "stateMutability": "nonpayable",
      "type": "function"
    },
    {
      "inputs": [
        {
          "internalType": "address",
          "name": "operator",
          "type": "address"
        },
        {
          "internalType": "bool",
          "name": "approved",
          "type": "bool"
        }
      ],
      "name": "setApprovalForAll",
      "outputs": [],
      "stateMutability": "nonpayable",
      "type": "function"
    },
    {
      "inputs": [
        {
          "internalType": "contract IERC20",
          "name": "_token",
          "type": "address"
        },
        {
          "internalType": "uint256",
          "name": "_protocolFee",
          "type": "uint256"
        }
      ],
      "name": "setProtocolFee",
      "outputs": [],
      "stateMutability": "nonpayable",
      "type": "function"
    },
    {
      "inputs": [
        {
          "internalType": "bytes4",
          "name": "interfaceId",
          "type": "bytes4"
        }
      ],
      "name": "supportsInterface",
      "outputs": [
        {
          "internalType": "bool",
          "name": "",
          "type": "bool"
        }
      ],
      "stateMutability": "view",
      "type": "function"
    },
    {
      "inputs": [],
      "name": "symbol",
      "outputs": [
        {
          "internalType": "string",
          "name": "",
          "type": "string"
        }
      ],
      "stateMutability": "view",
      "type": "function"
    },
    {
      "inputs": [
        {
          "internalType": "uint256",
          "name": "tokenId",
          "type": "uint256"
        }
      ],
      "name": "tokenURI",
      "outputs": [
        {
          "internalType": "string",
          "name": "",
          "type": "string"
        }
      ],
      "stateMutability": "view",
      "type": "function"
    },
    {
      "inputs": [],
      "name": "totalSupply",
      "outputs": [
        {
          "internalType": "uint256",
          "name": "",
          "type": "uint256"
        }
      ],
      "stateMutability": "view",
      "type": "function"
    },
    {
      "inputs": [
        {
          "internalType": "address",
          "name": "from",
          "type": "address"
        },
        {
          "internalType": "address",
          "name": "to",
          "type": "address"
        },
        {
          "internalType": "uint256",
          "name": "chequeID",
          "type": "uint256"
        }
      ],
      "name": "transferFrom",
      "outputs": [],
      "stateMutability": "nonpayable",
      "type": "function"
    },
    {
      "inputs": [
        {
          "internalType": "address",
          "name": "newOwner",
          "type": "address"
        }
      ],
      "name": "transferOwnership",
      "outputs": [],
      "stateMutability": "nonpayable",
      "type": "function"
    },
    {
      "inputs": [
        {
          "internalType": "address",
          "name": "",
          "type": "address"
        },
        {
          "internalType": "address",
          "name": "",
          "type": "address"
        }
      ],
      "name": "userAuditor",
      "outputs": [
        {
          "internalType": "bool",
          "name": "",
          "type": "bool"
        }
      ],
      "stateMutability": "view",
      "type": "function"
    },
    {
      "inputs": [
        {
          "internalType": "uint256",
          "name": "chequeID",
          "type": "uint256"
        }
      ],
      "name": "voidCheque",
      "outputs": [],
      "stateMutability": "nonpayable",
      "type": "function"
    },
    {
      "inputs": [
        {
          "internalType": "contract IERC20",
          "name": "_token",
          "type": "address"
        },
        {
          "internalType": "uint256",
          "name": "_amount",
          "type": "uint256"
        }
      ],
      "name": "withdraw",
      "outputs": [],
      "stateMutability": "nonpayable",
      "type": "function"
    },
    {
      "inputs": [
        {
          "internalType": "contract IERC20",
          "name": "_token",
          "type": "address"
        },
        {
          "internalType": "uint256",
          "name": "amount",
          "type": "uint256"
        },
        {
          "internalType": "uint256",
          "name": "duration",
          "type": "uint256"
        },
        {
          "internalType": "address",
          "name": "auditor",
          "type": "address"
        },
        {
          "internalType": "address",
          "name": "recipient",
          "type": "address"
        }
      ],
      "name": "writeCheque",
      "outputs": [
        {
          "internalType": "uint256",
          "name": "",
          "type": "uint256"
        }
      ],
      "stateMutability": "nonpayable",
      "type": "function"
    }
  ],
  "bytecode": {
    "object": "0x60806040523480156200001157600080fd5b506040518060400160405280600c81526020016b10da195c541c9bdd1bd8dbdb60a21b815250604051806040016040528060048152602001634348455160e01b815250816000908162000065919062000192565b50600162000074828262000192565b505050620000916200008b6200009760201b60201c565b6200009b565b6200025e565b3390565b600680546001600160a01b038381166001600160a01b0319831681179093556040519116919082907f8be0079c531659141344cd1fd0a4f28419497f9722a3daafe3b4186f6b6457e090600090a35050565b634e487b7160e01b600052604160045260246000fd5b600181811c908216806200011857607f821691505b6020821081036200013957634e487b7160e01b600052602260045260246000fd5b50919050565b601f8211156200018d57600081815260208120601f850160051c81016020861015620001685750805b601f850160051c820191505b81811015620001895782815560010162000174565b5050505b505050565b81516001600160401b03811115620001ae57620001ae620000ed565b620001c681620001bf845462000103565b846200013f565b602080601f831160018114620001fe5760008415620001e55750858301515b600019600386901b1c1916600185901b17855562000189565b600085815260208120601f198616915b828110156200022f578886015182559484019460019091019084016200020e565b50858210156200024e5787850151600019600388901b60f8161c191681555b5050505050600190811b01905550565b61288f806200026e6000396000f3fe608060405234801561001057600080fd5b50600436106102695760003560e01c806390090fe611610151578063b88d4fde116100c3578063e50c42b011610087578063e50c42b0146106ac578063e985e9c5146106cc578063f2fde38b14610708578063f3fef3a31461071b578063f45346dc1461072e578063ff9081a81461074157600080fd5b8063b88d4fde14610615578063bb2d42b914610628578063c2f3c25514610656578063c87b56dd14610676578063d7ad71eb1461068957600080fd5b8063a1dfa33e11610115578063a1dfa33e1461057d578063a22cb46514610590578063a74d6701146105a3578063aa634200146105b6578063b5b3ca2c146105e2578063b62b31e4146105f557600080fd5b806390090fe61461050057806395d89b411461052c57806396753bec146105345780639c1095b1146105625780639cb8a26a1461057557600080fd5b806345fc5443116101ea57806370a08231116101ae57806370a0823114610401578063715018a614610414578063790893551461041c57806386cb5e07146104985780638da5cb5b146104c45780638f601f66146104d557600080fd5b806345fc5443146103895780634663b4dc146103b557806347e7ef24146103c85780634a9b5c9b146103db5780636352211e146103ee57600080fd5b8063127a6fc811610231578063127a6fc81461031c57806318160ddd1461034757806323b872dd146103505780632a5f290a1461036357806342842e0e1461037657600080fd5b806301ffc9a71461026e578063067893461461029657806306fdde03146102c7578063081812fc146102dc578063095ea7b314610307575b600080fd5b61028161027c3660046122e8565b610761565b60405190151581526020015b60405180910390f35b6102b96102a4366004612305565b6000908152600b602052604090206001015490565b60405190815260200161028d565b6102cf6107b3565b60405161028d919061236e565b6102ef6102ea366004612305565b610845565b6040516001600160a01b03909116815260200161028d565b61031a610315366004612396565b61086c565b005b6102b961032a3660046123c2565b600a60209081526000928352604080842090915290825290205481565b6102b9600d5481565b61031a61035e3660046123fb565b610986565b6102b961037136600461243c565b6109e6565b61031a6103843660046123fb565b610dc6565b6102ef610397366004612305565b6000908152600b60205260409020600501546001600160a01b031690565b61031a6103c3366004612305565b610de1565b6102816103d6366004612396565b610e0e565b6102816103e93660046124a9565b610e24565b6102ef6103fc366004612305565b610e95565b6102b961040f3660046124d7565b610ef5565b61031a610f7b565b61048461042a366004612305565b600b6020526000908152604090208054600182015460028301546003840154600485015460058601546006909601549495939492936001600160a01b0392831693918316929081169190811690600160a01b900460ff1688565b60405161028d98979695949392919061250a565b6102ef6104a6366004612305565b6000908152600b60205260409020600601546001600160a01b031690565b6006546001600160a01b03166102ef565b6102b96104e33660046123c2565b600c60209081526000928352604080842090915290825290205481565b6102ef61050e366004612305565b6000908152600b60205260409020600401546001600160a01b031690565b6102cf610f8f565b6102816105423660046123c2565b600860209081526000928352604080842090915290825290205460ff1681565b6102b961057036600461243c565b610f9e565b61031a610ffe565b61028161058b3660046124a9565b61105b565b61031a61059e3660046124a9565b6110d4565b61031a6105b1366004612305565b6110df565b6102ef6105c4366004612305565b6000908152600b60205260409020600301546001600160a01b031690565b61031a6105f0366004612396565b6112e0565b6102b96106033660046124d7565b600e6020526000908152604090205481565b61031a61062336600461258e565b611340565b6102816106363660046123c2565b600760209081526000928352604080842090915290825290205460ff1681565b6102b96106643660046124d7565b60096020526000908152604090205481565b6102cf610684366004612305565b6113a0565b6102b9610697366004612305565b6000908152600b602052604090206002015490565b6102b96106ba366004612305565b6000908152600b602052604090205490565b6102816106da3660046123c2565b6001600160a01b03918216600090815260056020908152604080832093909416825291909152205460ff1690565b61031a6107163660046124d7565b611414565b61031a610729366004612396565b61148d565b61028161073c36600461266e565b61160e565b6102b961074f3660046124d7565b600f6020526000908152604090205481565b60006001600160e01b031982166380ac58cd60e01b148061079257506001600160e01b03198216635b5e139f60e01b145b806107ad57506301ffc9a760e01b6001600160e01b03198316145b92915050565b6060600080546107c2906126b0565b80601f01602080910402602001604051908101604052809291908181526020018280546107ee906126b0565b801561083b5780601f106108105761010080835404028352916020019161083b565b820191906000526020600020905b81548152906001019060200180831161081e57829003601f168201915b5050505050905090565b600061085082611625565b506000908152600460205260409020546001600160a01b031690565b600061087782610e95565b9050806001600160a01b0316836001600160a01b0316036108e95760405162461bcd60e51b815260206004820152602160248201527f4552433732313a20617070726f76616c20746f2063757272656e74206f776e656044820152603960f91b60648201526084015b60405180910390fd5b336001600160a01b0382161480610905575061090581336106da565b6109775760405162461bcd60e51b815260206004820152603d60248201527f4552433732313a20617070726f76652063616c6c6572206973206e6f7420746f60448201527f6b656e206f776e6572206f7220617070726f76656420666f7220616c6c00000060648201526084016108e0565b6109818383611684565b505050565b61099033826116f2565b6109d25760405162461bcd60e51b8152602060048201526013602482015272151c985b9cd9995c88191a5cd85b1b1bddd959606a1b60448201526064016108e0565b6109db81611771565b610981838383611829565b60008284836001600160a01b0383163314610bac573360009081526007602090815260408083206001600160a01b038716845290915290205460ff16610a5f5760405162461bcd60e51b815260206004820152600e60248201526d082aa8892a89ea4beaa9c82aaa8960931b60448201526064016108e0565b6001600160a01b038316600090815260086020908152604080832033845290915290205460ff16610ac25760405162461bcd60e51b815260206004820152600d60248201526c2aa720a8282fa0aaa224aa27a960991b60448201526064016108e0565b6001600160a01b0380841660009081526008602090815260408083209385168352929052205460ff16610b375760405162461bcd60e51b815260206004820152601860248201527f41554449544f523a554e415554485f524543495049454e54000000000000000060448201526064016108e0565b6001600160a01b0380821660009081526007602090815260408083209387168352929052205460ff16610bac5760405162461bcd60e51b815260206004820152601860248201527f524543495049454e543a554e415554485f41554449544f52000000000000000060448201526064016108e0565b336000908152600c602090815260408083206001600160a01b038d168452909152902054881115610c0b5760405162461bcd60e51b8152602060048201526009602482015268125394d55197d0905360ba1b60448201526064016108e0565b336000908152600c602090815260408083206001600160a01b038d168452909152812080548a9290610c3e908490612700565b90915550610c519050898989898961198d565b600d546000908152600b6020908152604091829020835181559083015160018201559082015160028083019190915560608301516003830180546001600160a01b03199081166001600160a01b03938416179091556080850151600485018054831691841691909117905560a0850151600585018054831691841691909117905560c085015160068501805492831691909316908117835560e0860151936001600160a81b03199092161790600160a01b908490811115610d1457610d146124f4565b021790555050600d546001600160a01b0380891692508716907fe891a3c885d9cdc26d4a1d0ed72f3cfa4bf21d3a272448f4477f53998c5356e18b610d598c42612713565b6040805192835260208301919091526001600160a01b038f1682820152336060830152519081900360800190a4610d9285600d54611a2e565b6001600d6000828254610da59190612713565b9091555050600d54610db990600190612700565b9998505050505050505050565b61098183838360405180602001604052806000815250611340565b6000818152600b602052604090206004810154610e0a90829084906001600160a01b0316611a48565b5050565b6000610e1b833384611b74565b50600192915050565b3360008181526008602090815260408083206001600160a01b038716808552908352818420805460ff191687151590811790915591519182529293917f605e6ac0cb603662c0e08b2f7354545cbe9a4d385ed37b166979b4ba4659beb691015b60405180910390a350600192915050565b6000818152600260205260408120546001600160a01b0316806107ad5760405162461bcd60e51b8152602060048201526018602482015277115490cdcc8c4e881a5b9d985b1a59081d1bdad95b88125160421b60448201526064016108e0565b60006001600160a01b038216610f5f5760405162461bcd60e51b815260206004820152602960248201527f4552433732313a2061646472657373207a65726f206973206e6f7420612076616044820152683634b21037bbb732b960b91b60648201526084016108e0565b506001600160a01b031660009081526003602052604090205490565b610f83611d08565b610f8d6000611d62565b565b6060600180546107c2906126b0565b6000610faa8686610e0e565b610fe75760405162461bcd60e51b815260206004820152600e60248201526d19195c1bdcda5d0819985a5b195960921b60448201526064016108e0565b610ff486868686866109e6565b9695505050505050565b611006611d08565b306001600160a01b0316639cb8a26a6040518163ffffffff1660e01b8152600401600060405180830381600087803b15801561104157600080fd5b505af1158015611055573d6000803e3d6000fd5b50505050565b3360008181526007602090815260408083206001600160a01b038716808552908352818420805460ff1916871515908117909155858552600a8452828520828652845282852042905591519182529293917f1caea3b15e243b6ab4c481e1fc91519bcd34cfd283844be08e609082f1548ef69101610e84565b610e0a338383611db4565b6000818152600b602052604090206110f8335b836116f2565b6111305760405162461bcd60e51b81526020600482015260096024820152682737b716b7bbb732b960b91b60448201526064016108e0565b80600201544210156111705760405162461bcd60e51b81526020600482015260096024820152685072656d617475726560b81b60448201526064016108e0565b60006006820154600160a01b900460ff166002811115611192576111926124f4565b146111ce5760405162461bcd60e51b815260206004820152600c60248201526b4e6f6e2d6361736861626c6560a01b60448201526064016108e0565b60068101805460ff60a01b1916600160a01b17905560038101546001600160a01b031663a9059cbb6111ff84610e95565b835460405160e084901b6001600160e01b03191681526001600160a01b03909216600483015260248201526044016020604051808303816000875af115801561124c573d6000803e3d6000fd5b505050506040513d601f19601f820116820180604052508101906112709190612726565b6112af5760405162461bcd60e51b815260206004820152601060248201526f2a3930b739b332b9103330b4b632b21760811b60448201526064016108e0565b604051829033907f730831a1e4aa2d187ddd8e03d7beeac760a3927da5f112d645e0f8df7494b36790600090a35050565b6112e8611d08565b6001600160a01b0382166000818152600e6020908152604091829020849055815192835282018390527f8fcddb702fa6c4fe68a01a3dbae30ae032fc6ce52e4aec0ce68bcc33d395cca5910160405180910390a15050565b611349336110f2565b61138b5760405162461bcd60e51b8152602060048201526013602482015272151c985b9cd9995c88191a5cd85b1b1bddd959606a1b60448201526064016108e0565b61139482611771565b61105584848484611e7a565b60606113ab82611625565b60006113c260408051602081019091526000815290565b905060008151116113e2576040518060200160405280600081525061140d565b806113ec84611ead565b6040516020016113fd929190612743565b6040516020818303038152906040525b9392505050565b61141c611d08565b6001600160a01b0381166114815760405162461bcd60e51b815260206004820152602660248201527f4f776e61626c653a206e6577206f776e657220697320746865207a65726f206160448201526564647265737360d01b60648201526084016108e0565b61148a81611d62565b50565b611495611d08565b6001600160a01b0382166000908152600f60205260409020548111156114f35760405162461bcd60e51b81526020600482015260136024820152724d6f7265207468616e20617661696c61626c6560681b60448201526064016108e0565b6001600160a01b0382166000818152600f6020526040812080548490039055906323b872dd30336040516001600160e01b031960e085901b1681526001600160a01b03928316600482015291166024820152604481018590526064016020604051808303816000875af115801561156e573d6000803e3d6000fd5b505050506040513d601f19601f820116820180604052508101906115929190612726565b9050806115d45760405162461bcd60e51b815260206004820152601060248201526f2a3930b739b332b9103330b4b632b21760811b60448201526064016108e0565b60405182815233907f884edad9ce6fa2440d8a54cc123490eb96d2768479d49ff9c7366125a94243649060200160405180910390a2505050565b600061161b848385611b74565b5060019392505050565b6000818152600260205260409020546001600160a01b031661148a5760405162461bcd60e51b8152602060048201526018602482015277115490cdcc8c4e881a5b9d985b1a59081d1bdad95b88125160421b60448201526064016108e0565b600081815260046020526040902080546001600160a01b0319166001600160a01b03841690811790915581906116b982610e95565b6001600160a01b03167f8c5be1e5ebec7d5bd14f71427d1e84f3dd0314c0f7b2291e5b200ac8c7c3b92560405160405180910390a45050565b6000806116fe83610e95565b9050806001600160a01b0316846001600160a01b0316148061174557506001600160a01b0380821660009081526005602090815260408083209388168352929052205460ff165b806117695750836001600160a01b031661175e84610845565b6001600160a01b0316145b949350505050565b6000818152600b6020908152604080832060038101546001600160a01b0316808552600e909352922054825410156117e45760405162461bcd60e51b81526020600482015260166024820152753a37b79039b6b0b636103337b9103a3930b739b332b960511b60448201526064016108e0565b6001600160a01b0381166000908152600e602090815260408083208054865403865554600f909252822080549192909161181f908490612713565b9091555050505050565b826001600160a01b031661183c82610e95565b6001600160a01b0316146118625760405162461bcd60e51b81526004016108e090612772565b6001600160a01b0382166118c45760405162461bcd60e51b8152602060048201526024808201527f4552433732313a207472616e7366657220746f20746865207a65726f206164646044820152637265737360e01b60648201526084016108e0565b826001600160a01b03166118d782610e95565b6001600160a01b0316146118fd5760405162461bcd60e51b81526004016108e090612772565b600081815260046020908152604080832080546001600160a01b03199081169091556001600160a01b0387811680865260038552838620805460001901905590871680865283862080546001019055868652600290945282852080549092168417909155905184937fddf252ad1be2c89b69c2b068fc378daa952ba7f163c4a11628f55a4df523b3ef91a4505050565b6119d26040805161010081018252600080825260208201819052918101829052606081018290526080810182905260a0810182905260c081018290529060e082015290565b60405180610100016040528086815260200142815260200185426119f69190612713565b81526001600160a01b0397881660208201523360408201529287166060840152929095166080820152600060a0909101529392505050565b610e0a828260405180602001604052806000815250612013565b60068301546001600160a01b03163314611a925760405162461bcd60e51b815260206004820152600b60248201526a2737ba1030bab234ba37b960a91b60448201526064016108e0565b4283600201541015611ad75760405162461bcd60e51b815260206004820152600e60248201526d10da195c5d59481b585d1d5c995960921b60448201526064016108e0565b60068301805460ff60a01b1916600160a11b17905582546001600160a01b038281166000908152600c60209081526040808320600389015490941683529290529081208054909190611b2a908490612713565b90915550829050611b3a81610e95565b6001600160a01b03167f2f04c3af785ee04853f03eeccbf0b426f25d905797736d15636f61348f38172560405160405180910390a3505050565b60008111611bb35760405162461bcd60e51b815260206004820152600c60248201526b16995c9bc819195c1bdcda5d60a21b60448201526064016108e0565b6001600160a01b0383166323b872dd336040516001600160e01b031960e084901b1681526001600160a01b039091166004820152306024820152604481018490526064016020604051808303816000875af1158015611c16573d6000803e3d6000fd5b505050506040513d601f19601f82011682018060405250810190611c3a9190612726565b611c785760405162461bcd60e51b815260206004820152600f60248201526e151c985b9cd9995c8819985a5b1959608a1b60448201526064016108e0565b6001600160a01b038083166000908152600c6020908152604080832093871683529290529081208054839290611caf908490612713565b92505081905550816001600160a01b0316836001600160a01b03167f5548c837ab068cf56a2c2479df0882a4922fd203edb7517321831d95078c5f6283604051611cfb91815260200190565b60405180910390a3505050565b6006546001600160a01b03163314610f8d5760405162461bcd60e51b815260206004820181905260248201527f4f776e61626c653a2063616c6c6572206973206e6f7420746865206f776e657260448201526064016108e0565b600680546001600160a01b038381166001600160a01b0319831681179093556040519116919082907f8be0079c531659141344cd1fd0a4f28419497f9722a3daafe3b4186f6b6457e090600090a35050565b816001600160a01b0316836001600160a01b031603611e155760405162461bcd60e51b815260206004820152601960248201527f4552433732313a20617070726f766520746f2063616c6c65720000000000000060448201526064016108e0565b6001600160a01b03838116600081815260056020908152604080832094871680845294825291829020805460ff191686151590811790915591519182527f17307eab39ab6107e8899845ad3d59bd9653f200f220920489ca2b5937696c319101611cfb565b611e85848484611829565b611e9184848484612046565b6110555760405162461bcd60e51b81526004016108e0906127b7565b606060018272184f03e93ff9f4daa797ed6e38ed64bf6a1f0160401b8110611ef0576040919091019072184f03e93ff9f4daa797ed6e38ed64bf6a1f0160401b90045b6d04ee2d6d415b85acef81000000008110611f1e57602091909101906d04ee2d6d415b85acef810000000090045b662386f26fc100008110611f3e5760109190910190662386f26fc1000090045b6305f5e1008110611f5857600891909101906305f5e10090045b6127108110611f6e576004919091019061271090045b60648110611f825760029190910190606490045b600a8110611f91576001820191505b60008267ffffffffffffffff811115611fac57611fac612578565b6040519080825280601f01601f191660200182016040528015611fd6576020820181803683370190505b5090508281016020015b600019016f181899199a1a9b1b9c1cb0b131b232b360811b600a87061a8153600a8604955085611fe05750949350505050565b61201d8383612147565b61202a6000848484612046565b6109815760405162461bcd60e51b81526004016108e0906127b7565b60006001600160a01b0384163b1561213c57604051630a85bd0160e11b81526001600160a01b0385169063150b7a029061208a903390899088908890600401612809565b6020604051808303816000875af19250505080156120c5575060408051601f3d908101601f191682019092526120c29181019061283c565b60015b612122573d8080156120f3576040519150601f19603f3d011682016040523d82523d6000602084013e6120f8565b606091505b50805160000361211a5760405162461bcd60e51b81526004016108e0906127b7565b805181602001fd5b6001600160e01b031916630a85bd0160e11b149050611769565b506001949350505050565b6001600160a01b03821661219d5760405162461bcd60e51b815260206004820181905260248201527f4552433732313a206d696e7420746f20746865207a65726f206164647265737360448201526064016108e0565b6000818152600260205260409020546001600160a01b0316156122025760405162461bcd60e51b815260206004820152601c60248201527f4552433732313a20746f6b656e20616c7265616479206d696e7465640000000060448201526064016108e0565b6000818152600260205260409020546001600160a01b0316156122675760405162461bcd60e51b815260206004820152601c60248201527f4552433732313a20746f6b656e20616c7265616479206d696e7465640000000060448201526064016108e0565b6001600160a01b038216600081815260036020908152604080832080546001019055848352600290915280822080546001600160a01b0319168417905551839291907fddf252ad1be2c89b69c2b068fc378daa952ba7f163c4a11628f55a4df523b3ef908290a45050565b6001600160e01b03198116811461148a57600080fd5b6000602082840312156122fa57600080fd5b813561140d816122d2565b60006020828403121561231757600080fd5b5035919050565b60005b83811015612339578181015183820152602001612321565b50506000910152565b6000815180845261235a81602086016020860161231e565b601f01601f19169290920160200192915050565b60208152600061140d6020830184612342565b6001600160a01b038116811461148a57600080fd5b600080604083850312156123a957600080fd5b82356123b481612381565b946020939093013593505050565b600080604083850312156123d557600080fd5b82356123e081612381565b915060208301356123f081612381565b809150509250929050565b60008060006060848603121561241057600080fd5b833561241b81612381565b9250602084013561242b81612381565b929592945050506040919091013590565b600080600080600060a0868803121561245457600080fd5b853561245f81612381565b94506020860135935060408601359250606086013561247d81612381565b9150608086013561248d81612381565b809150509295509295909350565b801515811461148a57600080fd5b600080604083850312156124bc57600080fd5b82356124c781612381565b915060208301356123f08161249b565b6000602082840312156124e957600080fd5b813561140d81612381565b634e487b7160e01b600052602160045260246000fd5b88815260208101889052604081018790526001600160a01b038681166060830152858116608083015284811660a0830152831660c082015261010081016003831061256557634e487b7160e01b600052602160045260246000fd5b8260e08301529998505050505050505050565b634e487b7160e01b600052604160045260246000fd5b600080600080608085870312156125a457600080fd5b84356125af81612381565b935060208501356125bf81612381565b925060408501359150606085013567ffffffffffffffff808211156125e357600080fd5b818701915087601f8301126125f757600080fd5b81358181111561260957612609612578565b604051601f8201601f19908116603f0116810190838211818310171561263157612631612578565b816040528281528a602084870101111561264a57600080fd5b82602086016020830137600060208483010152809550505050505092959194509250565b60008060006060848603121561268357600080fd5b833561268e81612381565b92506020840135915060408401356126a581612381565b809150509250925092565b600181811c908216806126c457607f821691505b6020821081036126e457634e487b7160e01b600052602260045260246000fd5b50919050565b634e487b7160e01b600052601160045260246000fd5b818103818111156107ad576107ad6126ea565b808201808211156107ad576107ad6126ea565b60006020828403121561273857600080fd5b815161140d8161249b565b6000835161275581846020880161231e565b83519083019061276981836020880161231e565b01949350505050565b60208082526025908201527f4552433732313a207472616e736665722066726f6d20696e636f72726563742060408201526437bbb732b960d91b606082015260800190565b60208082526032908201527f4552433732313a207472616e7366657220746f206e6f6e20455243373231526560408201527131b2b4bb32b91034b6b83632b6b2b73a32b960711b606082015260800190565b6001600160a01b0385811682528416602082015260408101839052608060608201819052600090610ff490830184612342565b60006020828403121561284e57600080fd5b815161140d816122d256fea2646970667358221220ce2e9e49f02b30534a18800a9104dd26f8e1e6ec905c1dc78b1d1bb494024a3a64736f6c63430008100033",
    "linkReferences": {}
  },
  "methodIdentifiers": {
    "acceptAuditor(address,bool)": "a1dfa33e",
    "acceptUser(address,bool)": "4a9b5c9b",
    "acceptedAuditorTimestamp(address,address)": "127a6fc8",
    "approve(address,uint256)": "095ea7b3",
    "auditorFlatFee(address)": "c2f3c255",
    "auditorUser(address,address)": "96753bec",
    "balanceOf(address)": "70a08231",
    "cashCheque(uint256)": "a74d6701",
    "chequeAmount(uint256)": "e50c42b0",
    "chequeAuditor(uint256)": "86cb5e07",
    "chequeCreated(uint256)": "06789346",
    "chequeDrawer(uint256)": "90090fe6",
    "chequeExpiry(uint256)": "d7ad71eb",
    "chequeInfo(uint256)": "79089355",
    "chequeRecipient(uint256)": "45fc5443",
    "chequeToken(uint256)": "aa634200",
    "deposit(address,uint256)": "47e7ef24",
    "deposit(address,uint256,address)": "f45346dc",
    "depositWrite(address,uint256,uint256,address,address)": "9c1095b1",
    "deposits(address,address)": "8f601f66",
    "getApproved(uint256)": "081812fc",
    "isApprovedForAll(address,address)": "e985e9c5",
    "name()": "06fdde03",
    "owner()": "8da5cb5b",
    "ownerOf(uint256)": "6352211e",
    "protocolFee(address)": "b62b31e4",
    "protocolReserve(address)": "ff9081a8",
    "renounceOwnership()": "715018a6",
    "safeTransferFrom(address,address,uint256)": "42842e0e",
    "safeTransferFrom(address,address,uint256,bytes)": "b88d4fde",
    "selfDestruct()": "9cb8a26a",
    "setApprovalForAll(address,bool)": "a22cb465",
    "setProtocolFee(address,uint256)": "b5b3ca2c",
    "supportsInterface(bytes4)": "01ffc9a7",
    "symbol()": "95d89b41",
    "tokenURI(uint256)": "c87b56dd",
    "totalSupply()": "18160ddd",
    "transferFrom(address,address,uint256)": "23b872dd",
    "transferOwnership(address)": "f2fde38b",
    "userAuditor(address,address)": "bb2d42b9",
    "voidCheque(uint256)": "4663b4dc",
    "withdraw(address,uint256)": "f3fef3a3",
    "writeCheque(address,uint256,uint256,address,address)": "2a5f290a"
  },
  "id": 20
}