{
  "abi": [
    {
      "inputs": [
        {
          "internalType": "address",
          "name": "registrar",
          "type": "address"
        },
        {
          "components": [
            {
              "internalType": "uint256",
              "name": "writeBPS",
              "type": "uint256"
            },
            {
              "internalType": "uint256",
              "name": "transferBPS",
              "type": "uint256"
            },
            {
              "internalType": "uint256",
              "name": "fundBPS",
              "type": "uint256"
            },
            {
              "internalType": "uint256",
              "name": "cashBPS",
              "type": "uint256"
            }
          ],
          "internalType": "struct DataTypes.WTFCFees",
          "name": "_fees",
          "type": "tuple"
        },
        {
          "internalType": "string",
          "name": "__baseURI",
          "type": "string"
        }
      ],
      "stateMutability": "nonpayable",
      "type": "constructor"
    },
    {
      "inputs": [],
      "name": "InitParamsInvalid",
      "type": "error"
    },
    {
      "inputs": [],
      "name": "NotRegistrar",
      "type": "error"
    },
    {
      "inputs": [],
      "name": "REGISTRAR",
      "outputs": [
        {
          "internalType": "address",
          "name": "",
          "type": "address"
        }
      ],
      "stateMutability": "view",
      "type": "function"
    },
    {
      "inputs": [],
      "name": "_URI",
      "outputs": [
        {
          "internalType": "string",
          "name": "",
          "type": "string"
        }
      ],
      "stateMutability": "view",
      "type": "function"
    },
    {
      "inputs": [],
      "name": "fees",
      "outputs": [
        {
          "internalType": "uint256",
          "name": "writeBPS",
          "type": "uint256"
        },
        {
          "internalType": "uint256",
          "name": "transferBPS",
          "type": "uint256"
        },
        {
          "internalType": "uint256",
          "name": "fundBPS",
          "type": "uint256"
        },
        {
          "internalType": "uint256",
          "name": "cashBPS",
          "type": "uint256"
        }
      ],
      "stateMutability": "view",
      "type": "function"
    },
    {
      "inputs": [],
      "name": "getFees",
      "outputs": [
        {
          "internalType": "uint256",
          "name": "",
          "type": "uint256"
        },
        {
          "internalType": "uint256",
          "name": "",
          "type": "uint256"
        },
        {
          "internalType": "uint256",
          "name": "",
          "type": "uint256"
        },
        {
          "internalType": "uint256",
          "name": "",
          "type": "uint256"
        }
      ],
      "stateMutability": "view",
      "type": "function"
    },
    {
      "inputs": [
        {
          "internalType": "uint256",
          "name": "",
          "type": "uint256"
        }
      ],
      "name": "payInfo",
      "outputs": [
        {
          "internalType": "address",
          "name": "inspector",
          "type": "address"
        },
        {
          "internalType": "address",
          "name": "drawer",
          "type": "address"
        },
        {
          "internalType": "bytes32",
          "name": "memoHash",
          "type": "bytes32"
        }
      ],
      "stateMutability": "view",
      "type": "function"
    },
    {
      "inputs": [
        {
          "internalType": "address",
          "name": "caller",
          "type": "address"
        },
        {
          "internalType": "address",
          "name": "owner",
          "type": "address"
        },
        {
          "internalType": "address",
          "name": "to",
          "type": "address"
        },
        {
          "internalType": "uint256",
          "name": "cheqId",
          "type": "uint256"
        },
        {
          "components": [
            {
              "internalType": "address",
              "name": "currency",
              "type": "address"
            },
            {
              "internalType": "uint256",
              "name": "escrowed",
              "type": "uint256"
            },
            {
              "internalType": "uint256",
              "name": "createdAt",
              "type": "uint256"
            },
            {
              "internalType": "address",
              "name": "module",
              "type": "address"
            }
          ],
          "internalType": "struct DataTypes.Cheq",
          "name": "cheq",
          "type": "tuple"
        },
        {
          "internalType": "bytes",
          "name": "initData",
          "type": "bytes"
        }
      ],
      "name": "processApproval",
      "outputs": [],
      "stateMutability": "nonpayable",
      "type": "function"
    },
    {
      "inputs": [
        {
          "internalType": "address",
          "name": "caller",
          "type": "address"
        },
        {
          "internalType": "address",
          "name": "",
          "type": "address"
        },
        {
          "internalType": "address",
          "name": "",
          "type": "address"
        },
        {
          "internalType": "uint256",
          "name": "amount",
          "type": "uint256"
        },
        {
          "internalType": "uint256",
          "name": "cheqId",
          "type": "uint256"
        },
        {
          "components": [
            {
              "internalType": "address",
              "name": "currency",
              "type": "address"
            },
            {
              "internalType": "uint256",
              "name": "escrowed",
              "type": "uint256"
            },
            {
              "internalType": "uint256",
              "name": "createdAt",
              "type": "uint256"
            },
            {
              "internalType": "address",
              "name": "module",
              "type": "address"
            }
          ],
          "internalType": "struct DataTypes.Cheq",
          "name": "",
          "type": "tuple"
        },
        {
          "internalType": "bytes",
          "name": "",
          "type": "bytes"
        }
      ],
      "name": "processCash",
      "outputs": [
        {
          "internalType": "uint256",
          "name": "",
          "type": "uint256"
        }
      ],
      "stateMutability": "view",
      "type": "function"
    },
    {
      "inputs": [
        {
          "internalType": "address",
          "name": "",
          "type": "address"
        },
        {
          "internalType": "address",
          "name": "",
          "type": "address"
        },
        {
          "internalType": "uint256",
          "name": "",
          "type": "uint256"
        },
        {
          "internalType": "uint256",
          "name": "",
          "type": "uint256"
        },
        {
          "internalType": "uint256",
          "name": "",
          "type": "uint256"
        },
        {
          "components": [
            {
              "internalType": "address",
              "name": "currency",
              "type": "address"
            },
            {
              "internalType": "uint256",
              "name": "escrowed",
              "type": "uint256"
            },
            {
              "internalType": "uint256",
              "name": "createdAt",
              "type": "uint256"
            },
            {
              "internalType": "address",
              "name": "module",
              "type": "address"
            }
          ],
          "internalType": "struct DataTypes.Cheq",
          "name": "",
          "type": "tuple"
        },
        {
          "internalType": "bytes",
          "name": "",
          "type": "bytes"
        }
      ],
      "name": "processFund",
      "outputs": [
        {
          "internalType": "uint256",
          "name": "",
          "type": "uint256"
        }
      ],
      "stateMutability": "view",
      "type": "function"
    },
    {
      "inputs": [
        {
          "internalType": "uint256",
          "name": "",
          "type": "uint256"
        }
      ],
      "name": "processTokenURI",
      "outputs": [
        {
          "internalType": "string",
          "name": "",
          "type": "string"
        }
      ],
      "stateMutability": "pure",
      "type": "function"
    },
    {
      "inputs": [
        {
          "internalType": "address",
          "name": "caller",
          "type": "address"
        },
        {
          "internalType": "address",
          "name": "approved",
          "type": "address"
        },
        {
          "internalType": "address",
          "name": "owner",
          "type": "address"
        },
        {
          "internalType": "address",
          "name": "",
          "type": "address"
        },
        {
          "internalType": "address",
          "name": "",
          "type": "address"
        },
        {
          "internalType": "uint256",
          "name": "",
          "type": "uint256"
        },
        {
          "internalType": "address",
          "name": "",
          "type": "address"
        },
        {
          "internalType": "uint256",
          "name": "escrowed",
          "type": "uint256"
        },
        {
          "internalType": "uint256",
          "name": "",
          "type": "uint256"
        },
        {
          "internalType": "bytes",
          "name": "",
          "type": "bytes"
        }
      ],
      "name": "processTransfer",
      "outputs": [
        {
          "internalType": "uint256",
          "name": "",
          "type": "uint256"
        }
      ],
      "stateMutability": "view",
      "type": "function"
    },
    {
      "inputs": [
        {
          "internalType": "address",
          "name": "caller",
          "type": "address"
        },
        {
          "internalType": "address",
          "name": "owner",
          "type": "address"
        },
        {
          "internalType": "uint256",
          "name": "cheqId",
          "type": "uint256"
        },
        {
          "internalType": "address",
          "name": "currency",
          "type": "address"
        },
        {
          "internalType": "uint256",
          "name": "escrowed",
          "type": "uint256"
        },
        {
          "internalType": "uint256",
          "name": "instant",
          "type": "uint256"
        },
        {
          "internalType": "bytes",
          "name": "initData",
          "type": "bytes"
        }
      ],
      "name": "processWrite",
      "outputs": [
        {
          "internalType": "uint256",
          "name": "",
          "type": "uint256"
        }
      ],
      "stateMutability": "nonpayable",
      "type": "function"
    },
    {
      "inputs": [
        {
          "internalType": "address",
          "name": "",
          "type": "address"
        },
        {
          "internalType": "address",
          "name": "",
          "type": "address"
        }
      ],
      "name": "revenue",
      "outputs": [
        {
          "internalType": "uint256",
          "name": "",
          "type": "uint256"
        }
      ],
      "stateMutability": "view",
      "type": "function"
    },
    {
      "inputs": [
        {
          "internalType": "address",
          "name": "token",
          "type": "address"
        }
      ],
      "name": "withdrawFees",
      "outputs": [],
      "stateMutability": "nonpayable",
      "type": "function"
    }
  ],
  "bytecode": {
    "object": "0x60a06040523480156200001157600080fd5b5060405162001431380380620014318339810160408190526200003491620002f9565b82826001600160a01b0382166200005e576040516348be0eb360e01b815260040160405180910390fd5b6001600160a01b038216608052805161271011620000b25760405162461bcd60e51b815260206004820152601460248201526000805160206200141183398151915260448201526064015b60405180910390fd5b612710816020015110620000f85760405162461bcd60e51b81526020600482015260146024820152600080516020620014118339815191526044820152606401620000a9565b6127108160400151106200013e5760405162461bcd60e51b81526020600482015260146024820152600080516020620014118339815191526044820152606401620000a9565b612710816060015110620001845760405162461bcd60e51b81526020600482015260146024820152600080516020620014118339815191526044820152606401620000a9565b80516001556020808201516002556040808301516003556060830151600455514281526001600160a01b038416917ff1a1fa6b64aa95186f5a1285e76198d0da80d9c5a88062641d447f1d7c54e56c910160405180910390a25060059050620001ee828262000431565b50505050620004fd565b634e487b7160e01b600052604160045260246000fd5b604051608081016001600160401b0381118282101715620002335762000233620001f8565b60405290565b604051601f8201601f191681016001600160401b0381118282101715620002645762000264620001f8565b604052919050565b600082601f8301126200027e57600080fd5b81516001600160401b038111156200029a576200029a620001f8565b6020620002b0601f8301601f1916820162000239565b8281528582848701011115620002c557600080fd5b60005b83811015620002e5578581018301518282018401528201620002c8565b506000928101909101919091529392505050565b600080600083850360c08112156200031057600080fd5b84516001600160a01b03811681146200032857600080fd5b93506080601f19820112156200033d57600080fd5b50620003486200020e565b602085015181526040850151602082015260608501516040820152608085015160608201528092505060a084015160018060401b038111156200038a57600080fd5b62000398868287016200026c565b9150509250925092565b600181811c90821680620003b757607f821691505b602082108103620003d857634e487b7160e01b600052602260045260246000fd5b50919050565b601f8211156200042c57600081815260208120601f850160051c81016020861015620004075750805b601f850160051c820191505b81811015620004285782815560010162000413565b5050505b505050565b81516001600160401b038111156200044d576200044d620001f8565b62000465816200045e8454620003a2565b84620003de565b602080601f8311600181146200049d5760008415620004845750858301515b600019600386901b1c1916600185901b17855562000428565b600085815260208120601f198616915b82811015620004ce57888601518255948401946001909101908401620004ad565b5085821015620004ed5787850151600019600388901b60f8161c191681555b5050505050600190811b01905550565b608051610ece6200054360003960008181610243015281816102ae015281816104190152818161055101528181610747015281816107b401526108a10152610ece6000f3fe608060405234801561001057600080fd5b50600436106100cf5760003560e01c8063b4e87e8f1161008c578063c0c9572c11610066578063c0c9572c1461022b578063cb6090771461023e578063db8d55f11461027d578063e41759681461028e57600080fd5b8063b4e87e8f146101fd578063b5d701ba14610205578063be2f3fdd1461021857600080fd5b806306890cd0146100d4578063164e68de146100fa5780634fe17e1a1461010f57806370530dac1461013d5780639a0ea37a1461019f5780639af1d35a146101c7575b600080fd5b6100e76100e2366004610968565b6102a1565b6040519081526020015b60405180910390f35b61010d610108366004610a0a565b610386565b005b61013061011d366004610a2e565b5060408051602081019091526000815290565b6040516100f19190610a47565b61017961014b366004610a2e565b6006602052600090815260409020805460018201546002909201546001600160a01b03918216929091169083565b604080516001600160a01b039485168152939092166020840152908201526060016100f1565b6100e76101ad366004610a95565b600060208181529281526040808220909352908152205481565b6001546002546003546004546101dd9392919084565b6040805194855260208501939093529183015260608201526080016100f1565b6101306104b6565b6100e7610213366004610ace565b610544565b6100e7610226366004610b46565b61073a565b6100e7610239366004610c45565b6107a7565b6102657f000000000000000000000000000000000000000000000000000000000000000081565b6040516001600160a01b0390911681526020016100f1565b6001546002546003546004546101dd565b61010d61029c366004610d0f565b610896565b6000336001600160a01b037f000000000000000000000000000000000000000000000000000000000000000016146102ec57604051632ad9535160e01b815260040160405180910390fd5b6000858152600660205260409020546001600160a01b038a811691161461035a5760405162461bcd60e51b815260206004820152601860248201527f496e73706563746f72206361736820666f72206f776e6572000000000000000060448201526064015b60405180910390fd5b6004546000906127109061036e9089610db6565b6103789190610dd5565b9a9950505050505050505050565b336000908152602081815260408083206001600160a01b0385168452909152902054600181116103ef5760405162461bcd60e51b8152602060048201526014602482015273496e73756666696369656e7420726576656e756560601b6044820152606401610351565b336000908152602081815260408083206001600160a01b03868116855292529091206001908190557f00000000000000000000000000000000000000000000000000000000000000009091169063d6a4f84c90849061044e9085610df7565b6040516001600160e01b031960e085901b1681526001600160a01b0390921660048301526024820152336044820152606401600060405180830381600087803b15801561049a57600080fd5b505af11580156104ae573d6000803e3d6000fd5b505050505050565b600580546104c390610e10565b80601f01602080910402602001604051908101604052809291908181526020018280546104ef90610e10565b801561053c5780601f106105115761010080835404028352916020019161053c565b820191906000526020600020905b81548152906001019060200180831161051f57829003601f168201915b505050505081565b6000336001600160a01b037f0000000000000000000000000000000000000000000000000000000000000000161461058f57604051632ad9535160e01b815260040160405180910390fd5b6000808061059f85870187610e44565b9250925092508a6001600160a01b03168c6001600160a01b0316141580156105cf57506001600160a01b038b1615155b61060c5760405162461bcd60e51b815260206004820152600e60248201526d496e76616c696420506172616d7360901b6044820152606401610351565b82600660008c815260200190815260200160002060000160006101000a8154816001600160a01b0302191690836001600160a01b031602179055508b600660008c815260200190815260200160002060010160006101000a8154816001600160a01b0302191690836001600160a01b0316021790555080600660008c815260200190815260200160002060020181905550600080888a6106ac9190610e85565b600154909150612710906106c09083610db6565b6106ca9190610dd5565b91505080600080856001600160a01b03166001600160a01b0316815260200190815260200160002060008c6001600160a01b03166001600160a01b0316815260200190815260200160002060008282546107249190610e85565b90915550909d9c50505050505050505050505050565b6000336001600160a01b037f0000000000000000000000000000000000000000000000000000000000000000161461078557604051632ad9535160e01b815260040160405180910390fd5b60405162461bcd60e51b81526020600482015260006024820152604401610351565b6000336001600160a01b037f000000000000000000000000000000000000000000000000000000000000000016146107f257604051632ad9535160e01b815260040160405180910390fd5b886001600160a01b03168b6001600160a01b031614806108235750896001600160a01b03168b6001600160a01b0316145b6108685760405162461bcd60e51b815260206004820152601660248201527513db9b1e481bdddb995c881bdc88185c1c1c9bdd995960521b6044820152606401610351565b6002546000906127109061087c9087610db6565b6108869190610dd5565b9c9b505050505050505050505050565b336001600160a01b037f000000000000000000000000000000000000000000000000000000000000000016146104ae57604051632ad9535160e01b815260040160405180910390fd5b6001600160a01b03811681146108f457600080fd5b50565b8035610902816108df565b919050565b60006080828403121561091957600080fd5b50919050565b60008083601f84011261093157600080fd5b50813567ffffffffffffffff81111561094957600080fd5b60208301915083602082850101111561096157600080fd5b9250929050565b600080600080600080600080610140898b03121561098557600080fd5b8835610990816108df565b975060208901356109a0816108df565b965060408901356109b0816108df565b955060608901359450608089013593506109cd8a60a08b01610907565b925061012089013567ffffffffffffffff8111156109ea57600080fd5b6109f68b828c0161091f565b999c989b5096995094979396929594505050565b600060208284031215610a1c57600080fd5b8135610a27816108df565b9392505050565b600060208284031215610a4057600080fd5b5035919050565b600060208083528351808285015260005b81811015610a7457858101830151858201604001528201610a58565b506000604082860101526040601f19601f8301168501019250505092915050565b60008060408385031215610aa857600080fd5b8235610ab3816108df565b91506020830135610ac3816108df565b809150509250929050565b60008060008060008060008060e0898b031215610aea57600080fd5b8835610af5816108df565b97506020890135610b05816108df565b9650604089013595506060890135610b1c816108df565b94506080890135935060a0890135925060c089013567ffffffffffffffff8111156109ea57600080fd5b600080600080600080600080610140898b031215610b6357600080fd5b8835610b6e816108df565b97506020890135610b7e816108df565b96506040890135955060608901359450608089013593506109cd8a60a08b01610907565b634e487b7160e01b600052604160045260246000fd5b600082601f830112610bc957600080fd5b813567ffffffffffffffff80821115610be457610be4610ba2565b604051601f8301601f19908116603f01168101908282118183101715610c0c57610c0c610ba2565b81604052838152866020858801011115610c2557600080fd5b836020870160208301376000602085830101528094505050505092915050565b6000806000806000806000806000806101408b8d031215610c6557600080fd5b8a35610c70816108df565b995060208b0135610c80816108df565b985060408b0135610c90816108df565b975060608b0135610ca0816108df565b965060808b0135610cb0816108df565b955060a08b01359450610cc560c08c016108f7565b935060e08b013592506101008b013591506101208b013567ffffffffffffffff811115610cf157600080fd5b610cfd8d828e01610bb8565b9150509295989b9194979a5092959850565b6000806000806000806101208789031215610d2957600080fd5b8635610d34816108df565b95506020870135610d44816108df565b94506040870135610d54816108df565b935060608701359250610d6a8860808901610907565b915061010087013567ffffffffffffffff811115610d8757600080fd5b610d9389828a01610bb8565b9150509295509295509295565b634e487b7160e01b600052601160045260246000fd5b6000816000190483118215151615610dd057610dd0610da0565b500290565b600082610df257634e487b7160e01b600052601260045260246000fd5b500490565b81810381811115610e0a57610e0a610da0565b92915050565b600181811c90821680610e2457607f821691505b60208210810361091957634e487b7160e01b600052602260045260246000fd5b600080600060608486031215610e5957600080fd5b8335610e64816108df565b92506020840135610e74816108df565b929592945050506040919091013590565b80820180821115610e0a57610e0a610da056fea264697066735822122050c8121ff16247db163767dfd86425cbea4be94b38d91a4cd01e57ad868a79b664736f6c634300081000334d6f64756c653a2046656520746f6f2068696768000000000000000000000000",
    "linkReferences": {}
  },
  "methodIdentifiers": {
    "REGISTRAR()": "cb609077",
    "_URI()": "b4e87e8f",
    "fees()": "9af1d35a",
    "getFees()": "db8d55f1",
    "payInfo(uint256)": "70530dac",
    "processApproval(address,address,address,uint256,(address,uint256,uint256,address),bytes)": "e4175968",
    "processCash(address,address,address,uint256,uint256,(address,uint256,uint256,address),bytes)": "06890cd0",
    "processFund(address,address,uint256,uint256,uint256,(address,uint256,uint256,address),bytes)": "be2f3fdd",
    "processTokenURI(uint256)": "4fe17e1a",
    "processTransfer(address,address,address,address,address,uint256,address,uint256,uint256,bytes)": "c0c9572c",
    "processWrite(address,address,uint256,address,uint256,uint256,bytes)": "b5d701ba",
    "revenue(address,address)": "9a0ea37a",
    "withdrawFees(address)": "164e68de"
  },
  "id": 63
}