{
  "abi": [
    {
      "inputs": [
        {
          "components": [
            {
              "internalType": "uint256",
              "name": "writeBPS",
              "type": "uint256"
            },
            {
              "internalType": "uint256",
              "name": "transferBPS",
              "type": "uint256"
            },
            {
              "internalType": "uint256",
              "name": "fundBPS",
              "type": "uint256"
            },
            {
              "internalType": "uint256",
              "name": "cashBPS",
              "type": "uint256"
            }
          ],
          "internalType": "struct DataTypes.WTFCFees",
          "name": "_fees",
          "type": "tuple"
        }
      ],
      "stateMutability": "nonpayable",
      "type": "constructor"
    },
    {
      "anonymous": false,
      "inputs": [
        {
          "indexed": true,
          "internalType": "address",
          "name": "owner",
          "type": "address"
        },
        {
          "indexed": true,
          "internalType": "address",
          "name": "approved",
          "type": "address"
        },
        {
          "indexed": true,
          "internalType": "uint256",
          "name": "tokenId",
          "type": "uint256"
        }
      ],
      "name": "Approval",
      "type": "event"
    },
    {
      "anonymous": false,
      "inputs": [
        {
          "indexed": true,
          "internalType": "address",
          "name": "owner",
          "type": "address"
        },
        {
          "indexed": true,
          "internalType": "address",
          "name": "operator",
          "type": "address"
        },
        {
          "indexed": false,
          "internalType": "bool",
          "name": "approved",
          "type": "bool"
        }
      ],
      "name": "ApprovalForAll",
      "type": "event"
    },
    {
      "anonymous": false,
      "inputs": [
        {
          "indexed": true,
          "internalType": "address",
          "name": "previousOwner",
          "type": "address"
        },
        {
          "indexed": true,
          "internalType": "address",
          "name": "newOwner",
          "type": "address"
        }
      ],
      "name": "OwnershipTransferred",
      "type": "event"
    },
    {
      "anonymous": false,
      "inputs": [
        {
          "indexed": true,
          "internalType": "address",
          "name": "from",
          "type": "address"
        },
        {
          "indexed": true,
          "internalType": "address",
          "name": "to",
          "type": "address"
        },
        {
          "indexed": true,
          "internalType": "uint256",
          "name": "tokenId",
          "type": "uint256"
        }
      ],
      "name": "Transfer",
      "type": "event"
    },
    {
      "inputs": [
        {
          "internalType": "address",
          "name": "module",
          "type": "address"
        }
      ],
      "name": "_returnCodeHash",
      "outputs": [
        {
          "internalType": "bytes32",
          "name": "",
          "type": "bytes32"
        }
      ],
      "stateMutability": "view",
      "type": "function"
    },
    {
      "inputs": [],
      "name": "_writeFlatFee",
      "outputs": [
        {
          "internalType": "uint256",
          "name": "",
          "type": "uint256"
        }
      ],
      "stateMutability": "view",
      "type": "function"
    },
    {
      "inputs": [
        {
          "internalType": "address",
          "name": "to",
          "type": "address"
        },
        {
          "internalType": "uint256",
          "name": "tokenId",
          "type": "uint256"
        }
      ],
      "name": "approve",
      "outputs": [],
      "stateMutability": "nonpayable",
      "type": "function"
    },
    {
      "inputs": [
        {
          "internalType": "address",
          "name": "owner",
          "type": "address"
        }
      ],
      "name": "balanceOf",
      "outputs": [
        {
          "internalType": "uint256",
          "name": "",
          "type": "uint256"
        }
      ],
      "stateMutability": "view",
      "type": "function"
    },
    {
      "inputs": [
        {
          "internalType": "uint256",
          "name": "cheqId",
          "type": "uint256"
        },
        {
          "internalType": "uint256",
          "name": "amount",
          "type": "uint256"
        },
        {
          "internalType": "address",
          "name": "to",
          "type": "address"
        },
        {
          "internalType": "bytes",
          "name": "cashData",
          "type": "bytes"
        }
      ],
      "name": "cash",
      "outputs": [],
      "stateMutability": "payable",
      "type": "function"
    },
    {
      "inputs": [
        {
          "internalType": "uint256",
          "name": "cheqId",
          "type": "uint256"
        }
      ],
      "name": "cheqCurrency",
      "outputs": [
        {
          "internalType": "address",
          "name": "",
          "type": "address"
        }
      ],
      "stateMutability": "view",
      "type": "function"
    },
    {
      "inputs": [
        {
          "internalType": "uint256",
          "name": "cheqId",
          "type": "uint256"
        }
      ],
      "name": "cheqEscrowed",
      "outputs": [
        {
          "internalType": "uint256",
          "name": "",
          "type": "uint256"
        }
      ],
      "stateMutability": "view",
      "type": "function"
    },
    {
      "inputs": [
        {
          "internalType": "uint256",
          "name": "cheqId",
          "type": "uint256"
        }
      ],
      "name": "cheqInfo",
      "outputs": [
        {
          "components": [
            {
              "internalType": "address",
              "name": "currency",
              "type": "address"
            },
            {
              "internalType": "uint256",
              "name": "escrowed",
              "type": "uint256"
            },
            {
              "internalType": "uint256",
              "name": "createdAt",
              "type": "uint256"
            },
            {
              "internalType": "address",
              "name": "module",
              "type": "address"
            }
          ],
          "internalType": "struct DataTypes.Cheq",
          "name": "",
          "type": "tuple"
        }
      ],
      "stateMutability": "view",
      "type": "function"
    },
    {
      "inputs": [
        {
          "internalType": "uint256",
          "name": "cheqId",
          "type": "uint256"
        }
      ],
      "name": "cheqModule",
      "outputs": [
        {
          "internalType": "address",
          "name": "",
          "type": "address"
        }
      ],
      "stateMutability": "view",
      "type": "function"
    },
    {
      "inputs": [],
      "name": "fees",
      "outputs": [
        {
          "internalType": "uint256",
          "name": "writeBPS",
          "type": "uint256"
        },
        {
          "internalType": "uint256",
          "name": "transferBPS",
          "type": "uint256"
        },
        {
          "internalType": "uint256",
          "name": "fundBPS",
          "type": "uint256"
        },
        {
          "internalType": "uint256",
          "name": "cashBPS",
          "type": "uint256"
        }
      ],
      "stateMutability": "view",
      "type": "function"
    },
    {
      "inputs": [
        {
          "internalType": "uint256",
          "name": "cheqId",
          "type": "uint256"
        },
        {
          "internalType": "uint256",
          "name": "amount",
          "type": "uint256"
        },
        {
          "internalType": "uint256",
          "name": "instant",
          "type": "uint256"
        },
        {
          "internalType": "bytes",
          "name": "fundData",
          "type": "bytes"
        }
      ],
      "name": "fund",
      "outputs": [],
      "stateMutability": "payable",
      "type": "function"
    },
    {
      "inputs": [
        {
          "internalType": "uint256",
          "name": "tokenId",
          "type": "uint256"
        }
      ],
      "name": "getApproved",
      "outputs": [
        {
          "internalType": "address",
          "name": "",
          "type": "address"
        }
      ],
      "stateMutability": "view",
      "type": "function"
    },
    {
      "inputs": [],
      "name": "getFees",
      "outputs": [
        {
          "internalType": "uint256",
          "name": "",
          "type": "uint256"
        },
        {
          "internalType": "uint256",
          "name": "",
          "type": "uint256"
        },
        {
          "internalType": "uint256",
          "name": "",
          "type": "uint256"
        },
        {
          "internalType": "uint256",
          "name": "",
          "type": "uint256"
        }
      ],
      "stateMutability": "view",
      "type": "function"
    },
    {
      "inputs": [
        {
          "internalType": "uint256",
          "name": "cheqId",
          "type": "uint256"
        },
        {
          "internalType": "uint8",
          "name": "_WTFC",
          "type": "uint8"
        }
      ],
      "name": "getTotalFees",
      "outputs": [
        {
          "internalType": "uint256",
          "name": "",
          "type": "uint256"
        },
        {
          "internalType": "uint256",
          "name": "",
          "type": "uint256"
        }
      ],
      "stateMutability": "view",
      "type": "function"
    },
    {
      "inputs": [
        {
          "internalType": "address",
          "name": "owner",
          "type": "address"
        },
        {
          "internalType": "address",
          "name": "operator",
          "type": "address"
        }
      ],
      "name": "isApprovedForAll",
      "outputs": [
        {
          "internalType": "bool",
          "name": "",
          "type": "bool"
        }
      ],
      "stateMutability": "view",
      "type": "function"
    },
    {
      "inputs": [
        {
          "internalType": "address",
          "name": "module",
          "type": "address"
        }
      ],
      "name": "moduleWhitelisted",
      "outputs": [
        {
          "internalType": "bool",
          "name": "",
          "type": "bool"
        },
        {
          "internalType": "bool",
          "name": "",
          "type": "bool"
        }
      ],
      "stateMutability": "view",
      "type": "function"
    },
    {
      "inputs": [
        {
          "internalType": "address",
          "name": "token",
          "type": "address"
        },
        {
          "internalType": "uint256",
          "name": "amount",
          "type": "uint256"
        },
        {
          "internalType": "address",
          "name": "to",
          "type": "address"
        }
      ],
      "name": "moduleWithdraw",
      "outputs": [],
      "stateMutability": "nonpayable",
      "type": "function"
    },
    {
      "inputs": [],
      "name": "name",
      "outputs": [
        {
          "internalType": "string",
          "name": "",
          "type": "string"
        }
      ],
      "stateMutability": "view",
      "type": "function"
    },
    {
      "inputs": [],
      "name": "owner",
      "outputs": [
        {
          "internalType": "address",
          "name": "",
          "type": "address"
        }
      ],
      "stateMutability": "view",
      "type": "function"
    },
    {
      "inputs": [
        {
          "internalType": "uint256",
          "name": "tokenId",
          "type": "uint256"
        }
      ],
      "name": "ownerOf",
      "outputs": [
        {
          "internalType": "address",
          "name": "",
          "type": "address"
        }
      ],
      "stateMutability": "view",
      "type": "function"
    },
    {
      "inputs": [],
      "name": "renounceOwnership",
      "outputs": [],
      "stateMutability": "nonpayable",
      "type": "function"
    },
    {
      "inputs": [
        {
          "internalType": "address",
          "name": "rule",
          "type": "address"
        }
      ],
      "name": "ruleWhitelisted",
      "outputs": [
        {
          "internalType": "bool",
          "name": "",
          "type": "bool"
        }
      ],
      "stateMutability": "view",
      "type": "function"
    },
    {
      "inputs": [
        {
          "internalType": "address",
          "name": "writeRule",
          "type": "address"
        },
        {
          "internalType": "address",
          "name": "transferRule",
          "type": "address"
        },
        {
          "internalType": "address",
          "name": "fundRule",
          "type": "address"
        },
        {
          "internalType": "address",
          "name": "cashRule",
          "type": "address"
        },
        {
          "internalType": "address",
          "name": "approveRule",
          "type": "address"
        }
      ],
      "name": "rulesWhitelisted",
      "outputs": [
        {
          "internalType": "bool",
          "name": "",
          "type": "bool"
        }
      ],
      "stateMutability": "view",
      "type": "function"
    },
    {
      "inputs": [
        {
          "internalType": "address",
          "name": "from",
          "type": "address"
        },
        {
          "internalType": "address",
          "name": "to",
          "type": "address"
        },
        {
          "internalType": "uint256",
          "name": "tokenId",
          "type": "uint256"
        }
      ],
      "name": "safeTransferFrom",
      "outputs": [],
      "stateMutability": "nonpayable",
      "type": "function"
    },
    {
      "inputs": [
        {
          "internalType": "address",
          "name": "from",
          "type": "address"
        },
        {
          "internalType": "address",
          "name": "to",
          "type": "address"
        },
        {
          "internalType": "uint256",
          "name": "tokenId",
          "type": "uint256"
        },
        {
          "internalType": "bytes",
          "name": "moduleTransferData",
          "type": "bytes"
        }
      ],
      "name": "safeTransferFrom",
      "outputs": [],
      "stateMutability": "nonpayable",
      "type": "function"
    },
    {
      "inputs": [
        {
          "internalType": "address",
          "name": "",
          "type": "address"
        },
        {
          "internalType": "bool",
          "name": "",
          "type": "bool"
        }
      ],
      "name": "setApprovalForAll",
      "outputs": [],
      "stateMutability": "pure",
      "type": "function"
    },
    {
      "inputs": [
        {
          "internalType": "bytes4",
          "name": "interfaceId",
          "type": "bytes4"
        }
      ],
      "name": "supportsInterface",
      "outputs": [
        {
          "internalType": "bool",
          "name": "",
          "type": "bool"
        }
      ],
      "stateMutability": "view",
      "type": "function"
    },
    {
      "inputs": [],
      "name": "symbol",
      "outputs": [
        {
          "internalType": "string",
          "name": "",
          "type": "string"
        }
      ],
      "stateMutability": "view",
      "type": "function"
    },
    {
      "inputs": [
        {
          "internalType": "uint256",
          "name": "_tokenId",
          "type": "uint256"
        }
      ],
      "name": "tokenURI",
      "outputs": [
        {
          "internalType": "string",
          "name": "",
          "type": "string"
        }
      ],
      "stateMutability": "view",
      "type": "function"
    },
    {
      "inputs": [
        {
          "internalType": "address",
          "name": "token",
          "type": "address"
        }
      ],
      "name": "tokenWhitelisted",
      "outputs": [
        {
          "internalType": "bool",
          "name": "",
          "type": "bool"
        }
      ],
      "stateMutability": "view",
      "type": "function"
    },
    {
      "inputs": [],
      "name": "totalSupply",
      "outputs": [
        {
          "internalType": "uint256",
          "name": "",
          "type": "uint256"
        }
      ],
      "stateMutability": "view",
      "type": "function"
    },
    {
      "inputs": [
        {
          "internalType": "address",
          "name": "from",
          "type": "address"
        },
        {
          "internalType": "address",
          "name": "to",
          "type": "address"
        },
        {
          "internalType": "uint256",
          "name": "tokenId",
          "type": "uint256"
        }
      ],
      "name": "transferFrom",
      "outputs": [],
      "stateMutability": "nonpayable",
      "type": "function"
    },
    {
      "inputs": [
        {
          "internalType": "address",
          "name": "newOwner",
          "type": "address"
        }
      ],
      "name": "transferOwnership",
      "outputs": [],
      "stateMutability": "nonpayable",
      "type": "function"
    },
    {
      "inputs": [
        {
          "components": [
            {
              "internalType": "uint256",
              "name": "writeBPS",
              "type": "uint256"
            },
            {
              "internalType": "uint256",
              "name": "transferBPS",
              "type": "uint256"
            },
            {
              "internalType": "uint256",
              "name": "fundBPS",
              "type": "uint256"
            },
            {
              "internalType": "uint256",
              "name": "cashBPS",
              "type": "uint256"
            }
          ],
          "internalType": "struct DataTypes.WTFCFees",
          "name": "_fees",
          "type": "tuple"
        }
      ],
      "name": "updateFees",
      "outputs": [],
      "stateMutability": "nonpayable",
      "type": "function"
    },
    {
      "inputs": [
        {
          "internalType": "address",
          "name": "module",
          "type": "address"
        },
        {
          "internalType": "address",
          "name": "token",
          "type": "address"
        }
      ],
      "name": "validWrite",
      "outputs": [
        {
          "internalType": "bool",
          "name": "",
          "type": "bool"
        }
      ],
      "stateMutability": "view",
      "type": "function"
    },
    {
      "inputs": [
        {
          "internalType": "address",
          "name": "module",
          "type": "address"
        },
        {
          "internalType": "bool",
          "name": "bytecodeAccepted",
          "type": "bool"
        },
        {
          "internalType": "bool",
          "name": "addressAccepted",
          "type": "bool"
        }
      ],
      "name": "whitelistModule",
      "outputs": [],
      "stateMutability": "nonpayable",
      "type": "function"
    },
    {
      "inputs": [
        {
          "internalType": "address",
          "name": "rule",
          "type": "address"
        },
        {
          "internalType": "bool",
          "name": "accepted",
          "type": "bool"
        }
      ],
      "name": "whitelistRule",
      "outputs": [],
      "stateMutability": "nonpayable",
      "type": "function"
    },
    {
      "inputs": [
        {
          "internalType": "address",
          "name": "_token",
          "type": "address"
        },
        {
          "internalType": "bool",
          "name": "accepted",
          "type": "bool"
        }
      ],
      "name": "whitelistToken",
      "outputs": [],
      "stateMutability": "nonpayable",
      "type": "function"
    },
    {
      "inputs": [
        {
          "internalType": "address",
          "name": "currency",
          "type": "address"
        },
        {
          "internalType": "uint256",
          "name": "escrowed",
          "type": "uint256"
        },
        {
          "internalType": "uint256",
          "name": "instant",
          "type": "uint256"
        },
        {
          "internalType": "address",
          "name": "owner",
          "type": "address"
        },
        {
          "internalType": "address",
          "name": "module",
          "type": "address"
        },
        {
          "internalType": "bytes",
          "name": "moduleWriteData",
          "type": "bytes"
        }
      ],
      "name": "write",
      "outputs": [
        {
          "internalType": "uint256",
          "name": "",
          "type": "uint256"
        }
      ],
      "stateMutability": "payable",
      "type": "function"
    }
  ],
  "bytecode": {
    "object": "0x60806040523480156200001157600080fd5b506040516200340b3803806200340b833981016040819052620000349162000141565b6040518060400160405280600c81526020016b10da195c541c9bdd1bd8dbdb60a21b815250604051806040016040528060048152602001634348455160e01b815250816000908162000087919062000239565b50600162000096828262000239565b505050620000b3620000ad620000d560201b60201c565b620000d9565b8051600f55602081015160105560408101516011556060015160125562000305565b3390565b600680546001600160a01b038381166001600160a01b0319831681179093556040519116919082907f8be0079c531659141344cd1fd0a4f28419497f9722a3daafe3b4186f6b6457e090600090a35050565b634e487b7160e01b600052604160045260246000fd5b6000608082840312156200015457600080fd5b604051608081016001600160401b03811182821017156200017957620001796200012b565b8060405250825181526020830151602082015260408301516040820152606083015160608201528091505092915050565b600181811c90821680620001bf57607f821691505b602082108103620001e057634e487b7160e01b600052602260045260246000fd5b50919050565b601f8211156200023457600081815260208120601f850160051c810160208610156200020f5750805b601f850160051c820191505b8181101562000230578281556001016200021b565b5050505b505050565b81516001600160401b038111156200025557620002556200012b565b6200026d81620002668454620001aa565b84620001e6565b602080601f831160018114620002a557600084156200028c5750858301515b600019600386901b1c1916600185901b17855562000230565b600085815260208120601f198616915b82811015620002d657888601518255948401946001909101908401620002b5565b5085821015620002f55787850151600019600388901b60f8161c191681555b5050505050600190811b01905550565b6130f680620003156000396000f3fe6080604052600436106102305760003560e01c806395d89b411161012e578063d6a4f84c116100ab578063f2fde38b1161006f578063f2fde38b14610725578063f6adc25c14610745578063f779494214610765578063fdd90c7014610792578063ff8507e8146107c857600080fd5b8063d6a4f84c14610645578063db8d55f114610665578063dfd5d81114610683578063e0e295b7146106a3578063e985e9c5146106dc57600080fd5b8063c298c4d2116100f2578063c298c4d214610596578063c4a73fe3146105c6578063c87b56dd146105ff578063d0d0bb3f1461061f578063d61220581461063257600080fd5b806395d89b41146104de57806398a9c92b146104f35780639af1d35a14610513578063a22cb46514610556578063b88d4fde1461057657600080fd5b80633f4b612e116101bc57806353aafb691161018057806353aafb691461044b5780636352211e1461046b57806370a082311461048b578063715018a6146104ab5780638da5cb5b146104c057600080fd5b80633f4b612e1461039d57806342842e0e1461037d5780634c806539146103bd5780634e289c06146103d357806352f37f56146103e657600080fd5b80630ffb1d8b116102035780630ffb1d8b146102e6578063107e2f3b146103065780631536beeb1461033357806318160ddd1461036857806323b872dd1461037d57600080fd5b806301ffc9a71461023557806306fdde031461026a578063081812fc1461028c578063095ea7b3146102c4575b600080fd5b34801561024157600080fd5b50610255610250366004612618565b610801565b60405190151581526020015b60405180910390f35b34801561027657600080fd5b5061027f610853565b6040516102619190612685565b34801561029857600080fd5b506102ac6102a7366004612698565b6108e5565b6040516001600160a01b039091168152602001610261565b3480156102d057600080fd5b506102e46102df3660046126cd565b61090c565b005b3480156102f257600080fd5b506102e4610301366004612705565b610a19565b34801561031257600080fd5b5061032561032136600461273c565b3f90565b604051908152602001610261565b34801561033f57600080fd5b5061035361034e366004612757565b610a90565b60408051928352602083019190915201610261565b34801561037457600080fd5b50600854610325565b34801561038957600080fd5b506102e4610398366004612782565b610bef565b3480156103a957600080fd5b506102556103b83660046127be565b610c0a565b3480156103c957600080fd5b5061032560135481565b6102e46103e1366004612865565b610cc0565b3480156103f257600080fd5b5061043461040136600461273c565b6001600160a01b0381166000908152600a6020908152604080832054933f8352600990915290205460ff91821692911690565b604080519215158352901515602083015201610261565b34801561045757600080fd5b506102e46104663660046128cd565b610f12565b34801561047757600080fd5b506102ac610486366004612698565b610ffb565b34801561049757600080fd5b506103256104a636600461273c565b61105b565b3480156104b757600080fd5b506102e46110e1565b3480156104cc57600080fd5b506006546001600160a01b03166102ac565b3480156104ea57600080fd5b5061027f6110f5565b3480156104ff57600080fd5b506102e461050e366004612916565b611104565b34801561051f57600080fd5b50600f546010546011546012546105369392919084565b604080519485526020850193909352918301526060820152608001610261565b34801561056257600080fd5b506102e4610571366004612705565b61112a565b34801561058257600080fd5b506102e461059136600461299d565b611176565b3480156105a257600080fd5b506103256105b1366004612698565b60009081526007602052604090206001015490565b3480156105d257600080fd5b506102556105e136600461273c565b6001600160a01b03166000908152600b602052604090205460ff1690565b34801561060b57600080fd5b5061027f61061a366004612698565b6113e2565b61032561062d366004612a48565b611537565b6102e4610640366004612ad1565b6117dc565b34801561065157600080fd5b506102e4610660366004612b15565b611a16565b34801561067157600080fd5b50600f54601054601154601254610536565b34801561068f57600080fd5b5061025561069e366004612b51565b611aae565b3480156106af57600080fd5b506102ac6106be366004612698565b6000908152600760205260409020600301546001600160a01b031690565b3480156106e857600080fd5b506102556106f7366004612b51565b6001600160a01b03918216600090815260056020908152604080832093909416825291909152205460ff1690565b34801561073157600080fd5b506102e461074036600461273c565b611ae1565b34801561075157600080fd5b506102e4610760366004612705565b611b5a565b34801561077157600080fd5b50610785610780366004612698565b611bb1565b6040516102619190612b84565b34801561079e57600080fd5b506102ac6107ad366004612698565b6000908152600760205260409020546001600160a01b031690565b3480156107d457600080fd5b506102556107e336600461273c565b6001600160a01b03166000908152600c602052604090205460ff1690565b60006001600160e01b031982166380ac58cd60e01b148061083257506001600160e01b03198216635b5e139f60e01b145b8061084d57506301ffc9a760e01b6001600160e01b03198316145b92915050565b60606000805461086290612bbc565b80601f016020809104026020016040519081016040528092919081815260200182805461088e90612bbc565b80156108db5780601f106108b0576101008083540402835291602001916108db565b820191906000526020600020905b8154815290600101906020018083116108be57829003601f168201915b5050505050905090565b60006108f082611c24565b506000908152600460205260409020546001600160a01b031690565b336001600160a01b038316036109595760405162461bcd60e51b815260206004820152600d60248201526c14d1531197d054141493d59053609a1b60448201526064015b60405180910390fd5b600081815260076020908152604091829020825160808101845281546001600160a01b03908116825260018301549382019390935260028201549381019390935260030154166060820181905263e4175968336109b585610ffb565b8686866040518663ffffffff1660e01b81526004016109d8959493929190612bf0565b600060405180830381600087803b1580156109f257600080fd5b505af1158015610a06573d6000803e3d6000fd5b50505050610a148383611c83565b505050565b610a21611cf1565b6001600160a01b0382166000818152600c60205260409020805460ff1916831515908117909155907f1bf5ef6ada443138fcac941f79625fe01e92ff514fee9f160bff18363199c7a0335b604080516001600160a01b0390921682524260208301520160405180910390a35050565b600080600080600080610aae600f5460105460115460125490919293565b9350935093509350610abe6125e4565b6040518060800160405280868152602001858152602001848152602001838152509050600080600080600760008e815260200190815260200160002060030160009054906101000a90046001600160a01b03166001600160a01b031663db8d55f16040518163ffffffff1660e01b8152600401608060405180830381865afa158015610b4e573d6000803e3d6000fd5b505050506040513d601f19601f82011682018060405250810190610b729190612c6b565b9350935093509350610b826125e4565b6040518060800160405280868152602001858152602001848152602001838152509050858d60ff1660048110610bba57610bba612ca1565b6020020151818e60ff1660048110610bd457610bd4612ca1565b60200201519b509b50505050505050505050505b9250929050565b610a1483838360405180602001604052806000815250611176565b6001600160a01b0385166000908152600b602052604081205460ff168015610c4a57506001600160a01b0385166000908152600b602052604090205460ff165b8015610c6e57506001600160a01b0384166000908152600b602052604090205460ff165b8015610c9257506001600160a01b0383166000908152600b602052604090205460ff165b8015610cb657506001600160a01b0382166000908152600b602052604090205460ff165b9695505050505050565b600085815260076020526040812060038101549091906001600160a01b03166306890cd033610cee8a610ffb565b888a8c888b8b6040518963ffffffff1660e01b8152600401610d17989796959493929190612ce0565b6020604051808303816000875af1158015610d36573d6000803e3d6000fd5b505050506040513d601f19601f82011682018060405250810190610d5a9190612d5d565b90506000612710600f6003015488610d729190612d8c565b610d7c9190612dab565b90506000612710610d8d848a612d8c565b610d979190612dab565b9050600081610da6848b612dcd565b610db09190612dcd565b90508085600101541015610df95760405162461bcd60e51b815260206004820152601060248201526f10d0539517d0d054d217d05353d5539560821b6044820152606401610950565b60018501805482900390558454610e1a906001600160a01b0316898b611d4b565b60038501546001600160a01b039081166000908152600d60209081526040808320895490941683529290529081208054849290610e58908490612dcd565b909155505084546001600160a01b03166000908152600e602052604081208054859290610e86908490612dcd565b9091555050604051610e9b9088908890612de0565b60405180910390208a610eab3390565b604080516001600160a01b038d81168252602082018f9052918101889052606081018790524260808201529116907fcc73058e75a01c33a85f65ead2935fe75310b9cb0c7980c2d1a14854db9721539060a00160405180910390a450505050505050505050565b610f1a611cf1565b801515821515141580610f3357508180610f315750805b155b610f735760405162461bcd60e51b8152602060048201526011602482015270086829c4ea8be8286868aa0a8be849ea89607b1b6044820152606401610950565b823f6000908152600960209081526040808320805486151560ff1991821681179092556001600160a01b038816808652600a8552948390208054871515921682179055825191825292810192909252429082015233907fe82584b416ef90b398503af85e6daba1407060c9e2d2050c858719c4f1b076479060600160405180910390a3505050565b6000818152600260205260408120546001600160a01b03168061084d5760405162461bcd60e51b8152602060048201526018602482015277115490cdcc8c4e881a5b9d985b1a59081d1bdad95b88125160421b6044820152606401610950565b60006001600160a01b0382166110c55760405162461bcd60e51b815260206004820152602960248201527f4552433732313a2061646472657373207a65726f206973206e6f7420612076616044820152683634b21037bbb732b960b91b6064820152608401610950565b506001600160a01b031660009081526003602052604090205490565b6110e9611cf1565b6110f36000611dae565b565b60606001805461086290612bbc565b61110c611cf1565b8035600f556020810135601055604081013560115560600135601255565b60405162461bcd60e51b815260206004820152601760248201527f4f50455241544f52535f4e4f545f535550504f525445440000000000000000006044820152606401610950565b5050565b600061118183610ffb565b60008481526007602052604081206003810154929350916001600160a01b031663c0c9572c336111b0886108e5565b868b8b8b8960000160009054906101000a90046001600160a01b03168a600101548b600201548e6040518b63ffffffff1660e01b81526004016111fc9a99989796959493929190612df0565b6020604051808303816000875af115801561121b573d6000803e3d6000fd5b505050506040513d601f19601f8201168201806040525081019061123f9190612d5d565b60018301549091501561135b576000612710600f6001015484600101546112669190612d8c565b6112709190612dab565b9050818184600101546112839190612e65565b61128d9190612e65565b600184015560038301546001600160a01b039081166000908152600d602090815260408083208754909416835292905290812080548492906112d0908490612dcd565b909155505082546001600160a01b03166000908152600e6020526040812080548392906112fe908490612dcd565b90915550506040805182815260208101849052428183015290516001600160a01b03898116929087169189917f86426a27b67faa69ebf65a2efa816f2db865f93526c68a0be0175c4471275850919081900360600190a4506113be565b856001600160a01b0316836001600160a01b0316867f86426a27b67faa69ebf65a2efa816f2db865f93526c68a0be0175c4471275850600080426040516113b5939291909283526020830191909152604082015260600190565b60405180910390a45b6113d987878760405180602001604052806000815250611e00565b50505050505050565b60606113ed82611c24565b60006113f883611bb1565b9050600081606001516001600160a01b0316634fe17e1a856040518263ffffffff1660e01b815260040161142e91815260200190565b600060405180830381865afa15801561144b573d6000803e3d6000fd5b505050506040513d6000823e601f3d908101601f191682016040526114739190810190612e78565b90508051600003611530578151602083015160608401516040516308feb79360e11b8152736cc614e8a7f83df4a85e4cccace7fcd71576fe9d936311fd6f26936114e3938a936004019384526001600160a01b039283166020850152604084019190915216606082015260800190565b600060405180830381865af4158015611500573d6000803e3d6000fd5b505050506040513d6000823e601f3d908101601f191682016040526115289190810190612e78565b949350505050565b9392505050565b60006115438489611aae565b6115815760405162461bcd60e51b815260206004820152600f60248201526e1393d517d5d2125511531254d51151608a1b6044820152606401610950565b600854604051635aeb80dd60e11b81526000916001600160a01b0387169163b5d701ba916115bf9133918b918f908f908f908d908d90600401612eef565b6020604051808303816000875af11580156115de573d6000803e3d6000fd5b505050506040513d601f19601f820116820180604052508101906116029190612d5d565b905061161086600854611e39565b6008805460009081526007602052604080822080546001600160a01b0319166001600160a01b038e16179055825482528082206001018b90559154815290812042600290910155611661888a612dcd565b90506000612710600f60000154836116799190612d8c565b6116839190612dab565b9050600083611692838d612dcd565b61169c9190612dcd565b90508015611746576116b96001600160a01b038d16333084611e53565b6001600160a01b038c166000908152600e6020526040812080548492906116e1908490612dcd565b9250508190555083600d60008a6001600160a01b03166001600160a01b0316815260200190815260200160002060008e6001600160a01b03166001600160a01b0316815260200190815260200160002060008282546117409190612dcd565b90915550505b8915611761576117616001600160a01b038d16338b8d611e53565b600854604080518c81526001600160a01b038f811660208301529181018e90524260608201528a82166080820152908b1691907f46efcc8e97c976f1917ad1a4342a76dc04d35cdf267d9321a40db6bb2d1cc4df9060a00160405180910390a3505060088054600181019091559a9950505050505050505050565b6000858152600760205260408120906117f487610ffb565b60038301549091506000906001600160a01b031663be2f3fdd33848a8a8d898c8c6040518963ffffffff1660e01b8152600401611838989796959493929190612f43565b6020604051808303816000875af1158015611857573d6000803e3d6000fd5b505050506040513d601f19601f8201168201806040525081019061187b9190612d5d565b905060006118898789612dcd565b90506000612710600f60000154836118a19190612d8c565b6118ab9190612dab565b905060006127106118bc8585612d8c565b6118c69190612dab565b90506000816118d5848d612dcd565b6118df9190612dcd565b90508015611970576118fe3388546001600160a01b0316903084611e53565b86546001600160a01b03166000908152600e602052604081208054859290611927908490612dcd565b909155505060038701546001600160a01b039081166000908152600d602090815260408083208b549094168352929052908120805484929061196a908490612dcd565b90915550505b891561198d5761198d3388546001600160a01b031690888d611e53565b888860405161199d929190612de0565b60405180910390208c6119ad3390565b604080518f8152602081018f9052908101879052606081018690524260808201526001600160a01b0391909116907fadbe4af352c54f09ed95f837f2c7d17bac02ffad06d885343c616d3cbcbccf189060a00160405180910390a4505050505050505050505050565b336000908152600d602090815260408083206001600160a01b0387168452909152902054821115611a775760405162461bcd60e51b815260206004820152600b60248201526a494e5355465f46554e445360a81b6044820152606401610950565b336000908152600d602090815260408083206001600160a01b038716808552925290912080548490039055610a1490308385611e53565b6000611ab983611e8b565b80156115305750506001600160a01b03166000908152600c602052604090205460ff16919050565b611ae9611cf1565b6001600160a01b038116611b4e5760405162461bcd60e51b815260206004820152602660248201527f4f776e61626c653a206e6577206f776e657220697320746865207a65726f206160448201526564647265737360d01b6064820152608401610950565b611b5781611dae565b50565b611b62611cf1565b6001600160a01b0382166000818152600b60205260409020805460ff1916831515908117909155907fdf6d9301f0ffa7c1f3db8033b4eb8b3b8b76b4c792622e86da0ed9fbdca0701433610a6c565b60408051608081018252600080825260208201819052918101829052606081019190915250600090815260076020908152604091829020825160808101845281546001600160a01b0390811682526001830154938201939093526002820154938101939093526003015416606082015290565b6000818152600260205260409020546001600160a01b0316611b575760405162461bcd60e51b8152602060048201526018602482015277115490cdcc8c4e881a5b9d985b1a59081d1bdad95b88125160421b6044820152606401610950565b600081815260046020526040902080546001600160a01b0319166001600160a01b0384169081179091558190611cb882610ffb565b6001600160a01b03167f8c5be1e5ebec7d5bd14f71427d1e84f3dd0314c0f7b2291e5b200ac8c7c3b92560405160405180910390a45050565b6006546001600160a01b031633146110f35760405162461bcd60e51b815260206004820181905260248201527f4f776e61626c653a2063616c6c6572206973206e6f7420746865206f776e65726044820152606401610950565b6040516001600160a01b038316602482015260448101829052610a1490849063a9059cbb60e01b906064015b60408051601f198184030181529190526020810180516001600160e01b03166001600160e01b031990931692909217909152611ec4565b600680546001600160a01b038381166001600160a01b0319831681179093556040519116919082907f8be0079c531659141344cd1fd0a4f28419497f9722a3daafe3b4186f6b6457e090600090a35050565b611e0b848484611f96565b611e1784848484612107565b611e335760405162461bcd60e51b815260040161095090612fa0565b50505050565b611172828260405180602001604052806000815250612208565b6040516001600160a01b0380851660248301528316604482015260648101829052611e339085906323b872dd60e01b90608401611d77565b6001600160a01b0381166000908152600a602052604081205460ff168061084d5750503f60009081526009602052604090205460ff1690565b6000611f19826040518060400160405280602081526020017f5361666545524332303a206c6f772d6c6576656c2063616c6c206661696c6564815250856001600160a01b031661223b9092919063ffffffff16565b805190915015610a145780806020019051810190611f379190612ff2565b610a145760405162461bcd60e51b815260206004820152602a60248201527f5361666545524332303a204552433230206f7065726174696f6e20646964206e6044820152691bdd081cdd58d8d9595960b21b6064820152608401610950565b826001600160a01b0316611fa982610ffb565b6001600160a01b031614611fcf5760405162461bcd60e51b81526004016109509061300f565b6001600160a01b0382166120315760405162461bcd60e51b8152602060048201526024808201527f4552433732313a207472616e7366657220746f20746865207a65726f206164646044820152637265737360e01b6064820152608401610950565b61203e838383600161224a565b826001600160a01b031661205182610ffb565b6001600160a01b0316146120775760405162461bcd60e51b81526004016109509061300f565b600081815260046020908152604080832080546001600160a01b03199081169091556001600160a01b0387811680865260038552838620805460001901905590871680865283862080546001019055868652600290945282852080549092168417909155905184937fddf252ad1be2c89b69c2b068fc378daa952ba7f163c4a11628f55a4df523b3ef91a4505050565b60006001600160a01b0384163b156121fd57604051630a85bd0160e11b81526001600160a01b0385169063150b7a029061214b903390899088908890600401613054565b6020604051808303816000875af1925050508015612186575060408051601f3d908101601f1916820190925261218391810190613087565b60015b6121e3573d8080156121b4576040519150601f19603f3d011682016040523d82523d6000602084013e6121b9565b606091505b5080516000036121db5760405162461bcd60e51b815260040161095090612fa0565b805181602001fd5b6001600160e01b031916630a85bd0160e11b149050611528565b506001949350505050565b61221283836122d2565b61221f6000848484612107565b610a145760405162461bcd60e51b815260040161095090612fa0565b6060611528848460008561246b565b6001811115611e33576001600160a01b03841615612290576001600160a01b0384166000908152600360205260408120805483929061228a908490612e65565b90915550505b6001600160a01b03831615611e33576001600160a01b038316600090815260036020526040812080548392906122c7908490612dcd565b909155505050505050565b6001600160a01b0382166123285760405162461bcd60e51b815260206004820181905260248201527f4552433732313a206d696e7420746f20746865207a65726f20616464726573736044820152606401610950565b6000818152600260205260409020546001600160a01b03161561238d5760405162461bcd60e51b815260206004820152601c60248201527f4552433732313a20746f6b656e20616c7265616479206d696e746564000000006044820152606401610950565b61239b60008383600161224a565b6000818152600260205260409020546001600160a01b0316156124005760405162461bcd60e51b815260206004820152601c60248201527f4552433732313a20746f6b656e20616c7265616479206d696e746564000000006044820152606401610950565b6001600160a01b038216600081815260036020908152604080832080546001019055848352600290915280822080546001600160a01b0319168417905551839291907fddf252ad1be2c89b69c2b068fc378daa952ba7f163c4a11628f55a4df523b3ef908290a45050565b6060824710156124cc5760405162461bcd60e51b815260206004820152602660248201527f416464726573733a20696e73756666696369656e742062616c616e636520666f6044820152651c8818d85b1b60d21b6064820152608401610950565b600080866001600160a01b031685876040516124e891906130a4565b60006040518083038185875af1925050503d8060008114612525576040519150601f19603f3d011682016040523d82523d6000602084013e61252a565b606091505b509150915061253b87838387612546565b979650505050505050565b606083156125b55782516000036125ae576001600160a01b0385163b6125ae5760405162461bcd60e51b815260206004820152601d60248201527f416464726573733a2063616c6c20746f206e6f6e2d636f6e74726163740000006044820152606401610950565b5081611528565b61152883838151156125ca5781518083602001fd5b8060405162461bcd60e51b81526004016109509190612685565b60405180608001604052806004906020820280368337509192915050565b6001600160e01b031981168114611b5757600080fd5b60006020828403121561262a57600080fd5b813561153081612602565b60005b83811015612650578181015183820152602001612638565b50506000910152565b60008151808452612671816020860160208601612635565b601f01601f19169290920160200192915050565b6020815260006115306020830184612659565b6000602082840312156126aa57600080fd5b5035919050565b80356001600160a01b03811681146126c857600080fd5b919050565b600080604083850312156126e057600080fd5b6126e9836126b1565b946020939093013593505050565b8015158114611b5757600080fd5b6000806040838503121561271857600080fd5b612721836126b1565b91506020830135612731816126f7565b809150509250929050565b60006020828403121561274e57600080fd5b611530826126b1565b6000806040838503121561276a57600080fd5b82359150602083013560ff8116811461273157600080fd5b60008060006060848603121561279757600080fd5b6127a0846126b1565b92506127ae602085016126b1565b9150604084013590509250925092565b600080600080600060a086880312156127d657600080fd5b6127df866126b1565b94506127ed602087016126b1565b93506127fb604087016126b1565b9250612809606087016126b1565b9150612817608087016126b1565b90509295509295909350565b60008083601f84011261283557600080fd5b50813567ffffffffffffffff81111561284d57600080fd5b602083019150836020828501011115610be857600080fd5b60008060008060006080868803121561287d57600080fd5b8535945060208601359350612894604087016126b1565b9250606086013567ffffffffffffffff8111156128b057600080fd5b6128bc88828901612823565b969995985093965092949392505050565b6000806000606084860312156128e257600080fd5b6128eb846126b1565b925060208401356128fb816126f7565b9150604084013561290b816126f7565b809150509250925092565b60006080828403121561292857600080fd5b50919050565b634e487b7160e01b600052604160045260246000fd5b604051601f8201601f1916810167ffffffffffffffff8111828210171561296d5761296d61292e565b604052919050565b600067ffffffffffffffff82111561298f5761298f61292e565b50601f01601f191660200190565b600080600080608085870312156129b357600080fd5b6129bc856126b1565b93506129ca602086016126b1565b925060408501359150606085013567ffffffffffffffff8111156129ed57600080fd5b8501601f810187136129fe57600080fd5b8035612a11612a0c82612975565b612944565b818152886020838501011115612a2657600080fd5b8160208401602083013760006020838301015280935050505092959194509250565b600080600080600080600060c0888a031215612a6357600080fd5b612a6c886126b1565b96506020880135955060408801359450612a88606089016126b1565b9350612a96608089016126b1565b925060a088013567ffffffffffffffff811115612ab257600080fd5b612abe8a828b01612823565b989b979a50959850939692959293505050565b600080600080600060808688031215612ae957600080fd5b853594506020860135935060408601359250606086013567ffffffffffffffff8111156128b057600080fd5b600080600060608486031215612b2a57600080fd5b612b33846126b1565b925060208401359150612b48604085016126b1565b90509250925092565b60008060408385031215612b6457600080fd5b612b6d836126b1565b9150612b7b602084016126b1565b90509250929050565b6080810161084d828480516001600160a01b039081168352602080830151908401526040808301519084015260609182015116910152565b600181811c90821680612bd057607f821691505b60208210810361292857634e487b7160e01b600052602260045260246000fd5b6001600160a01b038681168252858116602083015284166040820152606081018390526000610120612c4f608084018580516001600160a01b039081168352602080830151908401526040808301519084015260609182015116910152565b6101008301819052600090830152506101400195945050505050565b60008060008060808587031215612c8157600080fd5b505082516020840151604085015160609095015191969095509092509050565b634e487b7160e01b600052603260045260246000fd5b81835281816020850137506000828201602090810191909152601f909101601f19169091010190565b6001600160a01b0389811682528881166020830152878116604083015260608201879052608082018690528454811660a0830152600185015460c0830152600285015460e083015260038501541661010082015260006101405b80610120840152612d4e8184018587612cb7565b9b9a5050505050505050505050565b600060208284031215612d6f57600080fd5b5051919050565b634e487b7160e01b600052601160045260246000fd5b6000816000190483118215151615612da657612da6612d76565b500290565b600082612dc857634e487b7160e01b600052601260045260246000fd5b500490565b8082018082111561084d5761084d612d76565b8183823760009101908152919050565b6001600160a01b038b811682528a8116602083015289811660408301528881166060830152878116608083015260a08201879052851660c082015260e0810184905261010081018390526101406101208201819052600090612e5483820185612659565b9d9c50505050505050505050505050565b8181038181111561084d5761084d612d76565b600060208284031215612e8a57600080fd5b815167ffffffffffffffff811115612ea157600080fd5b8201601f81018413612eb257600080fd5b8051612ec0612a0c82612975565b818152856020838501011115612ed557600080fd5b612ee6826020830160208601612635565b95945050505050565b600060018060a01b03808b168352808a1660208401528860408401528088166060840152508560808301528460a083015260e060c0830152612f3560e083018486612cb7565b9a9950505050505050505050565b6001600160a01b03898116825288811660208301526040820188905260608201879052608082018690528454811660a0830152600185015460c0830152600285015460e08301526003850154166101008201526000610140612d3a565b60208082526032908201527f4552433732313a207472616e7366657220746f206e6f6e20455243373231526560408201527131b2b4bb32b91034b6b83632b6b2b73a32b960711b606082015260800190565b60006020828403121561300457600080fd5b8151611530816126f7565b60208082526025908201527f4552433732313a207472616e736665722066726f6d20696e636f72726563742060408201526437bbb732b960d91b606082015260800190565b6001600160a01b0385811682528416602082015260408101839052608060608201819052600090610cb690830184612659565b60006020828403121561309957600080fd5b815161153081612602565b600082516130b6818460208701612635565b919091019291505056fea26469706673582212203f70e0d1fccecbee299cab7f36bc134611a33a726a4479fe8a211190d0fe45c964736f6c63430008100033",
    "linkReferences": {}
  },
  "methodIdentifiers": {
    "_returnCodeHash(address)": "107e2f3b",
    "_writeFlatFee()": "4c806539",
    "approve(address,uint256)": "095ea7b3",
    "balanceOf(address)": "70a08231",
    "cash(uint256,uint256,address,bytes)": "4e289c06",
    "cheqCurrency(uint256)": "fdd90c70",
    "cheqEscrowed(uint256)": "c298c4d2",
    "cheqInfo(uint256)": "f7794942",
    "cheqModule(uint256)": "e0e295b7",
    "fees()": "9af1d35a",
    "fund(uint256,uint256,uint256,bytes)": "d6122058",
    "getApproved(uint256)": "081812fc",
    "getFees()": "db8d55f1",
    "getTotalFees(uint256,uint8)": "1536beeb",
    "isApprovedForAll(address,address)": "e985e9c5",
    "moduleWhitelisted(address)": "52f37f56",
    "moduleWithdraw(address,uint256,address)": "d6a4f84c",
    "name()": "06fdde03",
    "owner()": "8da5cb5b",
    "ownerOf(uint256)": "6352211e",
    "renounceOwnership()": "715018a6",
    "ruleWhitelisted(address)": "c4a73fe3",
    "rulesWhitelisted(address,address,address,address,address)": "3f4b612e",
    "safeTransferFrom(address,address,uint256)": "42842e0e",
    "safeTransferFrom(address,address,uint256,bytes)": "b88d4fde",
    "setApprovalForAll(address,bool)": "a22cb465",
    "supportsInterface(bytes4)": "01ffc9a7",
    "symbol()": "95d89b41",
    "tokenURI(uint256)": "c87b56dd",
    "tokenWhitelisted(address)": "ff8507e8",
    "totalSupply()": "18160ddd",
    "transferFrom(address,address,uint256)": "23b872dd",
    "transferOwnership(address)": "f2fde38b",
    "updateFees((uint256,uint256,uint256,uint256))": "98a9c92b",
    "validWrite(address,address)": "dfd5d811",
    "whitelistModule(address,bool,bool)": "53aafb69",
    "whitelistRule(address,bool)": "f6adc25c",
    "whitelistToken(address,bool)": "0ffb1d8b",
    "write(address,uint256,uint256,address,address,bytes)": "d0d0bb3f"
  },
  "id": 41
}