{
  "abi": [
    {
      "inputs": [],
      "stateMutability": "nonpayable",
      "type": "constructor"
    },
    {
      "inputs": [],
      "name": "Disallowed",
      "type": "error"
    },
    {
      "inputs": [
        {
          "internalType": "uint256",
          "name": "",
          "type": "uint256"
        },
        {
          "internalType": "uint256",
          "name": "",
          "type": "uint256"
        }
      ],
      "name": "InsufficientEscrow",
      "type": "error"
    },
    {
      "inputs": [
        {
          "internalType": "uint256",
          "name": "",
          "type": "uint256"
        }
      ],
      "name": "InsufficientValue",
      "type": "error"
    },
    {
      "inputs": [
        {
          "internalType": "address",
          "name": "",
          "type": "address"
        },
        {
          "internalType": "address",
          "name": "",
          "type": "address"
        }
      ],
      "name": "InvalidWrite",
      "type": "error"
    },
    {
      "inputs": [],
      "name": "SelfApproval",
      "type": "error"
    },
    {
      "inputs": [],
      "name": "SendFailed",
      "type": "error"
    },
    {
      "anonymous": false,
      "inputs": [
        {
          "indexed": true,
          "internalType": "address",
          "name": "owner",
          "type": "address"
        },
        {
          "indexed": true,
          "internalType": "address",
          "name": "approved",
          "type": "address"
        },
        {
          "indexed": true,
          "internalType": "uint256",
          "name": "tokenId",
          "type": "uint256"
        }
      ],
      "name": "Approval",
      "type": "event"
    },
    {
      "anonymous": false,
      "inputs": [
        {
          "indexed": true,
          "internalType": "address",
          "name": "owner",
          "type": "address"
        },
        {
          "indexed": true,
          "internalType": "address",
          "name": "operator",
          "type": "address"
        },
        {
          "indexed": false,
          "internalType": "bool",
          "name": "approved",
          "type": "bool"
        }
      ],
      "name": "ApprovalForAll",
      "type": "event"
    },
    {
      "anonymous": false,
      "inputs": [
        {
          "indexed": true,
          "internalType": "address",
          "name": "previousOwner",
          "type": "address"
        },
        {
          "indexed": true,
          "internalType": "address",
          "name": "newOwner",
          "type": "address"
        }
      ],
      "name": "OwnershipTransferred",
      "type": "event"
    },
    {
      "anonymous": false,
      "inputs": [
        {
          "indexed": true,
          "internalType": "address",
          "name": "from",
          "type": "address"
        },
        {
          "indexed": true,
          "internalType": "address",
          "name": "to",
          "type": "address"
        },
        {
          "indexed": true,
          "internalType": "uint256",
          "name": "tokenId",
          "type": "uint256"
        }
      ],
      "name": "Transfer",
      "type": "event"
    },
    {
      "inputs": [
        {
          "internalType": "address",
          "name": "module",
          "type": "address"
        }
      ],
      "name": "_returnCodeHash",
      "outputs": [
        {
          "internalType": "bytes32",
          "name": "",
          "type": "bytes32"
        }
      ],
      "stateMutability": "view",
      "type": "function"
    },
    {
      "inputs": [
        {
          "internalType": "address",
          "name": "to",
          "type": "address"
        },
        {
          "internalType": "uint256",
          "name": "tokenId",
          "type": "uint256"
        }
      ],
      "name": "approve",
      "outputs": [],
      "stateMutability": "nonpayable",
      "type": "function"
    },
    {
      "inputs": [
        {
          "internalType": "address",
          "name": "owner",
          "type": "address"
        }
      ],
      "name": "balanceOf",
      "outputs": [
        {
          "internalType": "uint256",
          "name": "",
          "type": "uint256"
        }
      ],
      "stateMutability": "view",
      "type": "function"
    },
    {
      "inputs": [
        {
          "internalType": "uint256",
          "name": "cheqId",
          "type": "uint256"
        },
        {
          "internalType": "uint256",
          "name": "amount",
          "type": "uint256"
        },
        {
          "internalType": "address",
          "name": "to",
          "type": "address"
        },
        {
          "internalType": "bytes",
          "name": "cashData",
          "type": "bytes"
        }
      ],
      "name": "cash",
      "outputs": [],
      "stateMutability": "payable",
      "type": "function"
    },
    {
      "inputs": [
        {
          "internalType": "uint256",
          "name": "cheqId",
          "type": "uint256"
        }
      ],
      "name": "cheqCreatedAt",
      "outputs": [
        {
          "internalType": "uint256",
          "name": "",
          "type": "uint256"
        }
      ],
      "stateMutability": "view",
      "type": "function"
    },
    {
      "inputs": [
        {
          "internalType": "uint256",
          "name": "cheqId",
          "type": "uint256"
        }
      ],
      "name": "cheqCurrency",
      "outputs": [
        {
          "internalType": "address",
          "name": "",
          "type": "address"
        }
      ],
      "stateMutability": "view",
      "type": "function"
    },
    {
      "inputs": [
        {
          "internalType": "uint256",
          "name": "cheqId",
          "type": "uint256"
        }
      ],
      "name": "cheqEscrowed",
      "outputs": [
        {
          "internalType": "uint256",
          "name": "",
          "type": "uint256"
        }
      ],
      "stateMutability": "view",
      "type": "function"
    },
    {
      "inputs": [
        {
          "internalType": "uint256",
          "name": "cheqId",
          "type": "uint256"
        }
      ],
      "name": "cheqInfo",
      "outputs": [
        {
          "components": [
            {
              "internalType": "address",
              "name": "currency",
              "type": "address"
            },
            {
              "internalType": "uint256",
              "name": "escrowed",
              "type": "uint256"
            },
            {
              "internalType": "uint256",
              "name": "createdAt",
              "type": "uint256"
            },
            {
              "internalType": "address",
              "name": "module",
              "type": "address"
            }
          ],
          "internalType": "struct DataTypes.Cheq",
          "name": "",
          "type": "tuple"
        }
      ],
      "stateMutability": "view",
      "type": "function"
    },
    {
      "inputs": [
        {
          "internalType": "uint256",
          "name": "cheqId",
          "type": "uint256"
        }
      ],
      "name": "cheqModule",
      "outputs": [
        {
          "internalType": "address",
          "name": "",
          "type": "address"
        }
      ],
      "stateMutability": "view",
      "type": "function"
    },
    {
      "inputs": [
        {
          "internalType": "uint256",
          "name": "cheqId",
          "type": "uint256"
        },
        {
          "internalType": "uint256",
          "name": "amount",
          "type": "uint256"
        },
        {
          "internalType": "uint256",
          "name": "instant",
          "type": "uint256"
        },
        {
          "internalType": "bytes",
          "name": "fundData",
          "type": "bytes"
        }
      ],
      "name": "fund",
      "outputs": [],
      "stateMutability": "payable",
      "type": "function"
    },
    {
      "inputs": [
        {
          "internalType": "uint256",
          "name": "tokenId",
          "type": "uint256"
        }
      ],
      "name": "getApproved",
      "outputs": [
        {
          "internalType": "address",
          "name": "",
          "type": "address"
        }
      ],
      "stateMutability": "view",
      "type": "function"
    },
    {
      "inputs": [
        {
          "internalType": "address",
          "name": "owner",
          "type": "address"
        },
        {
          "internalType": "address",
          "name": "operator",
          "type": "address"
        }
      ],
      "name": "isApprovedForAll",
      "outputs": [
        {
          "internalType": "bool",
          "name": "",
          "type": "bool"
        }
      ],
      "stateMutability": "view",
      "type": "function"
    },
    {
      "inputs": [
        {
          "internalType": "address",
          "name": "module",
          "type": "address"
        }
      ],
      "name": "moduleWhitelisted",
      "outputs": [
        {
          "internalType": "bool",
          "name": "",
          "type": "bool"
        },
        {
          "internalType": "bool",
          "name": "",
          "type": "bool"
        }
      ],
      "stateMutability": "view",
      "type": "function"
    },
    {
      "inputs": [
        {
          "internalType": "address",
          "name": "token",
          "type": "address"
        },
        {
          "internalType": "uint256",
          "name": "amount",
          "type": "uint256"
        },
        {
          "internalType": "address",
          "name": "to",
          "type": "address"
        }
      ],
      "name": "moduleWithdraw",
      "outputs": [],
      "stateMutability": "nonpayable",
      "type": "function"
    },
    {
      "inputs": [],
      "name": "name",
      "outputs": [
        {
          "internalType": "string",
          "name": "",
          "type": "string"
        }
      ],
      "stateMutability": "view",
      "type": "function"
    },
    {
      "inputs": [],
      "name": "owner",
      "outputs": [
        {
          "internalType": "address",
          "name": "",
          "type": "address"
        }
      ],
      "stateMutability": "view",
      "type": "function"
    },
    {
      "inputs": [
        {
          "internalType": "uint256",
          "name": "tokenId",
          "type": "uint256"
        }
      ],
      "name": "ownerOf",
      "outputs": [
        {
          "internalType": "address",
          "name": "",
          "type": "address"
        }
      ],
      "stateMutability": "view",
      "type": "function"
    },
    {
      "inputs": [],
      "name": "renounceOwnership",
      "outputs": [],
      "stateMutability": "nonpayable",
      "type": "function"
    },
    {
      "inputs": [
        {
          "internalType": "address",
          "name": "from",
          "type": "address"
        },
        {
          "internalType": "address",
          "name": "to",
          "type": "address"
        },
        {
          "internalType": "uint256",
          "name": "tokenId",
          "type": "uint256"
        }
      ],
      "name": "safeTransferFrom",
      "outputs": [],
      "stateMutability": "nonpayable",
      "type": "function"
    },
    {
      "inputs": [
        {
          "internalType": "address",
          "name": "from",
          "type": "address"
        },
        {
          "internalType": "address",
          "name": "to",
          "type": "address"
        },
        {
          "internalType": "uint256",
          "name": "tokenId",
          "type": "uint256"
        },
        {
          "internalType": "bytes",
          "name": "moduleTransferData",
          "type": "bytes"
        }
      ],
      "name": "safeTransferFrom",
      "outputs": [],
      "stateMutability": "nonpayable",
      "type": "function"
    },
    {
      "inputs": [
        {
          "internalType": "address",
          "name": "",
          "type": "address"
        },
        {
          "internalType": "bool",
          "name": "",
          "type": "bool"
        }
      ],
      "name": "setApprovalForAll",
      "outputs": [],
      "stateMutability": "pure",
      "type": "function"
    },
    {
      "inputs": [
        {
          "internalType": "bytes4",
          "name": "interfaceId",
          "type": "bytes4"
        }
      ],
      "name": "supportsInterface",
      "outputs": [
        {
          "internalType": "bool",
          "name": "",
          "type": "bool"
        }
      ],
      "stateMutability": "view",
      "type": "function"
    },
    {
      "inputs": [],
      "name": "symbol",
      "outputs": [
        {
          "internalType": "string",
          "name": "",
          "type": "string"
        }
      ],
      "stateMutability": "view",
      "type": "function"
    },
    {
      "inputs": [
        {
          "internalType": "address",
          "name": "account",
          "type": "address"
        }
      ],
      "name": "toString",
      "outputs": [
        {
          "internalType": "string",
          "name": "",
          "type": "string"
        }
      ],
      "stateMutability": "pure",
      "type": "function"
    },
    {
      "inputs": [
        {
          "internalType": "bytes",
          "name": "data",
          "type": "bytes"
        }
      ],
      "name": "toString",
      "outputs": [
        {
          "internalType": "string",
          "name": "",
          "type": "string"
        }
      ],
      "stateMutability": "pure",
      "type": "function"
    },
    {
      "inputs": [
        {
          "internalType": "bytes32",
          "name": "value",
          "type": "bytes32"
        }
      ],
      "name": "toString",
      "outputs": [
        {
          "internalType": "string",
          "name": "",
          "type": "string"
        }
      ],
      "stateMutability": "pure",
      "type": "function"
    },
    {
      "inputs": [
        {
          "internalType": "uint256",
          "name": "_tokenId",
          "type": "uint256"
        }
      ],
      "name": "tokenURI",
      "outputs": [
        {
          "internalType": "string",
          "name": "",
          "type": "string"
        }
      ],
      "stateMutability": "view",
      "type": "function"
    },
    {
      "inputs": [
        {
          "internalType": "address",
          "name": "token",
          "type": "address"
        }
      ],
      "name": "tokenWhitelisted",
      "outputs": [
        {
          "internalType": "bool",
          "name": "",
          "type": "bool"
        }
      ],
      "stateMutability": "view",
      "type": "function"
    },
    {
      "inputs": [],
      "name": "totalSupply",
      "outputs": [
        {
          "internalType": "uint256",
          "name": "",
          "type": "uint256"
        }
      ],
      "stateMutability": "view",
      "type": "function"
    },
    {
      "inputs": [
        {
          "internalType": "address",
          "name": "from",
          "type": "address"
        },
        {
          "internalType": "address",
          "name": "to",
          "type": "address"
        },
        {
          "internalType": "uint256",
          "name": "tokenId",
          "type": "uint256"
        }
      ],
      "name": "transferFrom",
      "outputs": [],
      "stateMutability": "nonpayable",
      "type": "function"
    },
    {
      "inputs": [
        {
          "internalType": "address",
          "name": "newOwner",
          "type": "address"
        }
      ],
      "name": "transferOwnership",
      "outputs": [],
      "stateMutability": "nonpayable",
      "type": "function"
    },
    {
      "inputs": [
        {
          "internalType": "address",
          "name": "module",
          "type": "address"
        },
        {
          "internalType": "address",
          "name": "token",
          "type": "address"
        }
      ],
      "name": "validWrite",
      "outputs": [
        {
          "internalType": "bool",
          "name": "",
          "type": "bool"
        }
      ],
      "stateMutability": "view",
      "type": "function"
    },
    {
      "inputs": [
        {
          "internalType": "address",
          "name": "module",
          "type": "address"
        },
        {
          "internalType": "bool",
          "name": "bytecodeAccepted",
          "type": "bool"
        },
        {
          "internalType": "bool",
          "name": "addressAccepted",
          "type": "bool"
        }
      ],
      "name": "whitelistModule",
      "outputs": [],
      "stateMutability": "nonpayable",
      "type": "function"
    },
    {
      "inputs": [
        {
          "internalType": "address",
          "name": "_token",
          "type": "address"
        },
        {
          "internalType": "bool",
          "name": "accepted",
          "type": "bool"
        }
      ],
      "name": "whitelistToken",
      "outputs": [],
      "stateMutability": "nonpayable",
      "type": "function"
    },
    {
      "inputs": [
        {
          "internalType": "address",
          "name": "currency",
          "type": "address"
        },
        {
          "internalType": "uint256",
          "name": "escrowed",
          "type": "uint256"
        },
        {
          "internalType": "uint256",
          "name": "instant",
          "type": "uint256"
        },
        {
          "internalType": "address",
          "name": "owner",
          "type": "address"
        },
        {
          "internalType": "address",
          "name": "module",
          "type": "address"
        },
        {
          "internalType": "bytes",
          "name": "moduleWriteData",
          "type": "bytes"
        }
      ],
      "name": "write",
      "outputs": [
        {
          "internalType": "uint256",
          "name": "",
          "type": "uint256"
        }
      ],
      "stateMutability": "payable",
      "type": "function"
    }
  ],
  "bytecode": {
    "object": "0x60806040523480156200001157600080fd5b506040518060400160405280600681526020016564656e6f746160d01b815250604051806040016040528060048152602001634e4f544160e01b81525081600090816200005f91906200018c565b5060016200006e82826200018c565b5050506200008b620000856200009160201b60201c565b62000095565b62000258565b3390565b600680546001600160a01b038381166001600160a01b0319831681179093556040519116919082907f8be0079c531659141344cd1fd0a4f28419497f9722a3daafe3b4186f6b6457e090600090a35050565b634e487b7160e01b600052604160045260246000fd5b600181811c908216806200011257607f821691505b6020821081036200013357634e487b7160e01b600052602260045260246000fd5b50919050565b601f8211156200018757600081815260208120601f850160051c81016020861015620001625750805b601f850160051c820191505b8181101562000183578281556001016200016e565b5050505b505050565b81516001600160401b03811115620001a857620001a8620000e7565b620001c081620001b98454620000fd565b8462000139565b602080601f831160018114620001f85760008415620001df5750858301515b600019600386901b1c1916600185901b17855562000183565b600085815260208120601f198616915b82811015620002295788860151825594840194600190910190840162000208565b5085821015620002485787850151600019600388901b60f8161c191681555b5050505050600190811b01905550565b61413e80620002686000396000f3fe6080604052600436106102345760003560e01c806371aad10d11610138578063d6122058116100b0578063e985e9c51161007f578063f779494211610064578063f7794942146106f5578063fdd90c7014610722578063ff8507e81461076557600080fd5b8063e985e9c51461067f578063f2fde38b146106d557600080fd5b8063d6122058146105e6578063d6a4f84c146105f9578063dfd5d81114610619578063e0e295b71461063957600080fd5b8063b11a19e811610107578063c298c4d2116100ec578063c298c4d214610583578063c87b56dd146105b3578063d0d0bb3f146105d357600080fd5b8063b11a19e814610543578063b88d4fde1461056357600080fd5b806371aad10d146104c35780638da5cb5b146104e357806395d89b411461050e578063a22cb4651461052357600080fd5b806342842e0e116101cb57806356ca623e1161019a5780636352211e1161017f5780636352211e1461046e57806370a082311461048e578063715018a6146104ae57600080fd5b806356ca623e1461041e5780635e53b2261461043e57600080fd5b806342842e0e146103595780634e289c061461037957806352f37f561461038c57806353aafb69146103fe57600080fd5b80630ffb1d8b116102075780630ffb1d8b146102f7578063107e2f3b1461031757806318160ddd1461034457806323b872dd1461035957600080fd5b806301ffc9a71461023957806306fdde031461026e578063081812fc14610290578063095ea7b3146102d5575b600080fd5b34801561024557600080fd5b506102596102543660046132ac565b6107ab565b60405190151581526020015b60405180910390f35b34801561027a57600080fd5b50610283610890565b6040516102659190613337565b34801561029c57600080fd5b506102b06102ab36600461334a565b610922565b60405173ffffffffffffffffffffffffffffffffffffffff9091168152602001610265565b3480156102e157600080fd5b506102f56102f0366004613387565b610956565b005b34801561030357600080fd5b506102f56103123660046133bf565b610a72565b34801561032357600080fd5b506103366103323660046133f6565b3f90565b604051908152602001610265565b34801561035057600080fd5b50600c54610336565b34801561036557600080fd5b506102f5610374366004613411565b610b20565b6102f5610387366004613496565b610b3b565b34801561039857600080fd5b506103e76103a73660046133f6565b73ffffffffffffffffffffffffffffffffffffffff8116600090815260096020908152604080832054933f8352600890915290205460ff91821692911690565b604080519215158352901515602083015201610265565b34801561040a57600080fd5b506102f56104193660046134fe565b610e0f565b34801561042a57600080fd5b506102836104393660046133f6565b610f49565b34801561044a57600080fd5b5061033661045936600461334a565b6000908152600b602052604090206002015490565b34801561047a57600080fd5b506102b061048936600461334a565b610f95565b34801561049a57600080fd5b506103366104a93660046133f6565b611021565b3480156104ba57600080fd5b506102f56110ef565b3480156104cf57600080fd5b506102836104de366004613661565b611103565b3480156104ef57600080fd5b5060065473ffffffffffffffffffffffffffffffffffffffff166102b0565b34801561051a57600080fd5b50610283611409565b34801561052f57600080fd5b506102f561053e3660046133bf565b611418565b34801561054f57600080fd5b5061028361055e36600461334a565b61144a565b34801561056f57600080fd5b506102f561057e366004613696565b611462565b34801561058f57600080fd5b5061033661059e36600461334a565b6000908152600b602052604090206001015490565b3480156105bf57600080fd5b506102836105ce36600461334a565b6116aa565b6103366105e13660046136fe565b611807565b6102f56105f4366004613787565b611a2e565b34801561060557600080fd5b506102f56106143660046137cb565b611bb3565b34801561062557600080fd5b50610259610634366004613807565b611c91565b34801561064557600080fd5b506102b061065436600461334a565b6000908152600b602052604090206003015473ffffffffffffffffffffffffffffffffffffffff1690565b34801561068b57600080fd5b5061025961069a366004613807565b73ffffffffffffffffffffffffffffffffffffffff918216600090815260056020908152604080832093909416825291909152205460ff1690565b3480156106e157600080fd5b506102f56106f03660046133f6565b611cd1565b34801561070157600080fd5b5061071561071036600461334a565b611d88565b604051610265919061383a565b34801561072e57600080fd5b506102b061073d36600461334a565b6000908152600b602052604090205473ffffffffffffffffffffffffffffffffffffffff1690565b34801561077157600080fd5b506102596107803660046133f6565b73ffffffffffffffffffffffffffffffffffffffff166000908152600a602052604090205460ff1690565b60007fffffffff0000000000000000000000000000000000000000000000000000000082167f80ac58cd00000000000000000000000000000000000000000000000000000000148061083e57507fffffffff0000000000000000000000000000000000000000000000000000000082167f5b5e139f00000000000000000000000000000000000000000000000000000000145b8061088a57507f01ffc9a7000000000000000000000000000000000000000000000000000000007fffffffff000000000000000000000000000000000000000000000000000000008316145b92915050565b60606000805461089f9061387f565b80601f01602080910402602001604051908101604052809291908181526020018280546108cb9061387f565b80156109185780601f106108ed57610100808354040283529160200191610918565b820191906000526020600020905b8154815290600101906020018083116108fb57829003601f168201915b5050505050905090565b600061092d82611e11565b5060009081526004602052604090205473ffffffffffffffffffffffffffffffffffffffff1690565b3373ffffffffffffffffffffffffffffffffffffffff8316036109a5576040517f3cf0df2300000000000000000000000000000000000000000000000000000000815260040160405180910390fd5b6000818152600b60209081526040918290208251608081018452815473ffffffffffffffffffffffffffffffffffffffff908116825260018301549382019390935260028201549381019390935260030154166060820181905263e417596833610a0e85610f95565b8686866040518663ffffffff1660e01b8152600401610a319594939291906138d2565b600060405180830381600087803b158015610a4b57600080fd5b505af1158015610a5f573d6000803e3d6000fd5b50505050610a6d8383611e9c565b505050565b610a7a611f3c565b73ffffffffffffffffffffffffffffffffffffffff82166000818152600a6020526040902080547fffffffffffffffffffffffffffffffffffffffffffffffffffffffffffffff0016831515908117909155907f1bf5ef6ada443138fcac941f79625fe01e92ff514fee9f160bff18363199c7a0336040805173ffffffffffffffffffffffffffffffffffffffff90921682524260208301520160405180910390a35050565b610a6d83838360405180602001604052806000815250611462565b6000858152600b60205260408120600381015490919073ffffffffffffffffffffffffffffffffffffffff166306890cd033610b768a610f95565b888a8c888b8b6040518963ffffffff1660e01b8152600401610b9f9897969594939291906139b0565b6020604051808303816000875af1158015610bbe573d6000803e3d6000fd5b505050506040513d601f19601f82011682018060405250810190610be29190613a3a565b90506000610bf08288613a82565b90508260010154811115610c495760018301546040517fc0710ec8000000000000000000000000000000000000000000000000000000008152610c40918391600401918252602082015260400190565b60405180910390fd5b6001830180548290039055825473ffffffffffffffffffffffffffffffffffffffff16610d105760008673ffffffffffffffffffffffffffffffffffffffff168860405160006040518083038185875af1925050503d8060008114610cca576040519150601f19603f3d011682016040523d82523d6000602084013e610ccf565b606091505b5050905080610d0a576040517f81063e5100000000000000000000000000000000000000000000000000000000815260040160405180910390fd5b50610d33565b8254610d339073ffffffffffffffffffffffffffffffffffffffff168789611fbd565b600383015473ffffffffffffffffffffffffffffffffffffffff9081166000908152600760209081526040808320875490941683529290529081208054849290610d7e908490613a82565b9091555050604051610d939086908690613a95565b604051809103902088610da33390565b6040805173ffffffffffffffffffffffffffffffffffffffff8b81168252602082018d90529181018790524260608201529116907fa45d21a235efa64e1d8f22fcecdbc348471bf46c3fd95cb0b3d78bb59ccfdd8e906080015b60405180910390a45050505050505050565b610e17611f3c565b801515821515141580610e3057508180610e2e5750805b155b610e96576040517f08c379a000000000000000000000000000000000000000000000000000000000815260206004820152601160248201527f43414e27545f4143434550545f424f54480000000000000000000000000000006044820152606401610c40565b823f600090815260086020908152604080832080548615157fffffffffffffffffffffffffffffffffffffffffffffffffffffffffffffff00918216811790925573ffffffffffffffffffffffffffffffffffffffff881680865260098552948390208054871515921682179055825191825292810192909252429082015233907fe82584b416ef90b398503af85e6daba1407060c9e2d2050c858719c4f1b076479060600160405180910390a3505050565b604051606082811b7fffffffffffffffffffffffffffffffffffffffff0000000000000000000000001660208301529061088a906034015b604051602081830303815290604052611103565b60008181526002602052604081205473ffffffffffffffffffffffffffffffffffffffff168061088a576040517f08c379a000000000000000000000000000000000000000000000000000000000815260206004820152601860248201527f4552433732313a20696e76616c696420746f6b656e20494400000000000000006044820152606401610c40565b600073ffffffffffffffffffffffffffffffffffffffff82166110c6576040517f08c379a000000000000000000000000000000000000000000000000000000000815260206004820152602960248201527f4552433732313a2061646472657373207a65726f206973206e6f74206120766160448201527f6c6964206f776e657200000000000000000000000000000000000000000000006064820152608401610c40565b5073ffffffffffffffffffffffffffffffffffffffff1660009081526003602052604090205490565b6110f7611f3c565b6111016000612091565b565b60408051808201909152601081527f3031323334353637383961626364656600000000000000000000000000000000602082015281516060919060009061114b906002613aa5565b611156906002613a82565b67ffffffffffffffff81111561116e5761116e613547565b6040519080825280601f01601f191660200182016040528015611198576020820181803683370190505b5090507f3000000000000000000000000000000000000000000000000000000000000000816000815181106111cf576111cf613ae2565b60200101907effffffffffffffffffffffffffffffffffffffffffffffffffffffffffffff1916908160001a9053507f78000000000000000000000000000000000000000000000000000000000000008160018151811061123257611232613ae2565b60200101907effffffffffffffffffffffffffffffffffffffffffffffffffffffffffffff1916908160001a90535060005b84518110156114015782600486838151811061128257611282613ae2565b016020015182517fff0000000000000000000000000000000000000000000000000000000000000090911690911c60f81c9081106112c2576112c2613ae2565b01602001517fff0000000000000000000000000000000000000000000000000000000000000016826112f5836002613aa5565b611300906002613a82565b8151811061131057611310613ae2565b60200101907effffffffffffffffffffffffffffffffffffffffffffffffffffffffffffff1916908160001a9053508285828151811061135257611352613ae2565b602091010151815160f89190911c600f1690811061137257611372613ae2565b01602001517fff0000000000000000000000000000000000000000000000000000000000000016826113a5836002613aa5565b6113b0906003613a82565b815181106113c0576113c0613ae2565b60200101907effffffffffffffffffffffffffffffffffffffffffffffffffffffffffffff1916908160001a905350806113f981613b11565b915050611264565b509392505050565b60606001805461089f9061387f565b6040517f5a89288700000000000000000000000000000000000000000000000000000000815260040160405180910390fd5b606061088a82604051602001610f8191815260200190565b600061146d83610f95565b6000848152600b6020526040812060038101549293509173ffffffffffffffffffffffffffffffffffffffff1663c0c9572c336114a988610922565b868b8b8b8960000160009054906101000a900473ffffffffffffffffffffffffffffffffffffffff168a600101548b600201548e6040518b63ffffffff1660e01b81526004016115029a99989796959493929190613b49565b6020604051808303816000875af1158015611521573d6000803e3d6000fd5b505050506040513d601f19601f820116820180604052508101906115459190613a3a565b600183015490915015611613578082600101546115629190613bc8565b6001830155600382015473ffffffffffffffffffffffffffffffffffffffff90811660009081526007602090815260408083208654909416835292905290812080548392906115b2908490613a82565b90915550506040805182815242602082015273ffffffffffffffffffffffffffffffffffffffff808916929086169188917fe96dac4c4166560371b5e55761d096a42489601a31784b6ae976f1394d9d6b91910160405180910390a4611686565b8573ffffffffffffffffffffffffffffffffffffffff168373ffffffffffffffffffffffffffffffffffffffff16867fe96dac4c4166560371b5e55761d096a42489601a31784b6ae976f1394d9d6b9160004260405161167d929190918252602082015260400190565b60405180910390a45b6116a187878760405180602001604052806000815250612108565b50505050505050565b60606116b582611e11565b6000828152600b60205260408082206003015490517f4fe17e1a0000000000000000000000000000000000000000000000000000000081526004810185905273ffffffffffffffffffffffffffffffffffffffff90911690634fe17e1a90602401600060405180830381865afa158015611733573d6000803e3d6000fd5b505050506040513d6000823e601f3d9081017fffffffffffffffffffffffffffffffffffffffffffffffffffffffffffffffe01682016040526117799190810190613bdb565b6000848152600b6020526040902054909150611800906117ae9073ffffffffffffffffffffffffffffffffffffffff16610f49565b6000858152600b60205260409020600101546117c9906121b1565b6000868152600b60205260409020600301546117fa9073ffffffffffffffffffffffffffffffffffffffff16610f49565b84612387565b9392505050565b60006118138489611c91565b611869576040517fc23595bd00000000000000000000000000000000000000000000000000000000815273ffffffffffffffffffffffffffffffffffffffff808616600483015289166024820152604401610c40565b600c546040517fb5d701ba00000000000000000000000000000000000000000000000000000000815260009173ffffffffffffffffffffffffffffffffffffffff87169163b5d701ba916118cd9133918b918f908f908f908d908d90600401613c52565b6020604051808303816000875af11580156118ec573d6000803e3d6000fd5b505050506040513d601f19601f820116820180604052508101906119109190613a3a565b905061192088888b89858a6123e1565b61192c86600c546125f8565b600c80546000908152600b6020526040808220805473ffffffffffffffffffffffffffffffffffffffff808f167fffffffffffffffffffffffff000000000000000000000000000000000000000092831617909255845484528284206001018d90558454845282842042600290910155935483529120600301805488831693168317905587166119b93390565b73ffffffffffffffffffffffffffffffffffffffff167f991ba5df3fcbd98c4683aa26b630563680205eed21cda3b688c3b885dd969c81600c548b8e8e42898d8d604051611a0e989796959493929190613cb4565b60405180910390a45050600c805460018101909155979650505050505050565b6000858152600b6020526040812090611a4687610f95565b600383015490915060009073ffffffffffffffffffffffffffffffffffffffff1663be2f3fdd33848a8a8d898c8c6040518963ffffffff1660e01b8152600401611a97989796959493929190613d02565b6020604051808303816000875af1158015611ab6573d6000803e3d6000fd5b505050506040513d601f19601f82011682018060405250810190611ada9190613a3a565b83546003850154919250611b0f918991899173ffffffffffffffffffffffffffffffffffffffff9182169187918791166123e1565b6000888152600b602052604081206001018054899290611b30908490613a82565b9091555050604051611b459086908690613a95565b604051809103902088611b553390565b604080518b8152602081018b905290810185905242606082015273ffffffffffffffffffffffffffffffffffffffff91909116907f7f98326a87b2d74aaf7e1400dd387fab5570936bacf98cb672c19ddfbb061a4490608001610dfd565b33600090815260076020908152604080832073ffffffffffffffffffffffffffffffffffffffff87168452909152902054821115611c4d576040517f08c379a000000000000000000000000000000000000000000000000000000000815260206004820152600b60248201527f494e5355465f46554e44530000000000000000000000000000000000000000006044820152606401610c40565b33600090815260076020908152604080832073ffffffffffffffffffffffffffffffffffffffff8716808552925290912080548490039055610a6d90308385612616565b6000611c9c83612674565b801561180057505073ffffffffffffffffffffffffffffffffffffffff166000908152600a602052604090205460ff16919050565b611cd9611f3c565b73ffffffffffffffffffffffffffffffffffffffff8116611d7c576040517f08c379a000000000000000000000000000000000000000000000000000000000815260206004820152602660248201527f4f776e61626c653a206e6577206f776e657220697320746865207a65726f206160448201527f64647265737300000000000000000000000000000000000000000000000000006064820152608401610c40565b611d8581612091565b50565b604080516080810182526000808252602082018190529181018290526060810191909152611db582611e11565b506000908152600b60209081526040918290208251608081018452815473ffffffffffffffffffffffffffffffffffffffff90811682526001830154938201939093526002820154938101939093526003015416606082015290565b60008181526002602052604090205473ffffffffffffffffffffffffffffffffffffffff16611d85576040517f08c379a000000000000000000000000000000000000000000000000000000000815260206004820152601860248201527f4552433732313a20696e76616c696420746f6b656e20494400000000000000006044820152606401610c40565b600081815260046020526040902080547fffffffffffffffffffffffff00000000000000000000000000000000000000001673ffffffffffffffffffffffffffffffffffffffff84169081179091558190611ef682610f95565b73ffffffffffffffffffffffffffffffffffffffff167f8c5be1e5ebec7d5bd14f71427d1e84f3dd0314c0f7b2291e5b200ac8c7c3b92560405160405180910390a45050565b60065473ffffffffffffffffffffffffffffffffffffffff163314611101576040517f08c379a000000000000000000000000000000000000000000000000000000000815260206004820181905260248201527f4f776e61626c653a2063616c6c6572206973206e6f7420746865206f776e65726044820152606401610c40565b60405173ffffffffffffffffffffffffffffffffffffffff8316602482015260448101829052610a6d9084907fa9059cbb00000000000000000000000000000000000000000000000000000000906064015b604080517fffffffffffffffffffffffffffffffffffffffffffffffffffffffffffffffe08184030181529190526020810180517bffffffffffffffffffffffffffffffffffffffffffffffffffffffff167fffffffff00000000000000000000000000000000000000000000000000000000909316929092179091526126ba565b6006805473ffffffffffffffffffffffffffffffffffffffff8381167fffffffffffffffffffffffff0000000000000000000000000000000000000000831681179093556040519116919082907f8be0079c531659141344cd1fd0a4f28419497f9722a3daafe3b4186f6b6457e090600090a35050565b6121138484846127c6565b61211f8484848461295c565b6121ab576040517f08c379a000000000000000000000000000000000000000000000000000000000815260206004820152603260248201527f4552433732313a207472616e7366657220746f206e6f6e20455243373231526560448201527f63656976657220696d706c656d656e74657200000000000000000000000000006064820152608401610c40565b50505050565b6060816000036121f457505060408051808201909152600181527f3000000000000000000000000000000000000000000000000000000000000000602082015290565b60006122106d04ee2d6d415b85acef8100000000845b06612b4c565b90506d04ee2d6d415b85acef8100000000830492508260000361224f5760408051602081018390520160405160208183030381529060405291506122ee565b60006122696d04ee2d6d415b85acef81000000008561220a565b90506d04ee2d6d415b85acef810000000084049350836000036122b357604080516020810183905290810183905260600160405160208183030381529060405292508091506122ec565b60006122be85612b4c565b6040805160208101839052808201859052606080820196909652815180820390960186526080019052929350505b505b6000608082901c6f30303030303030303030303030303030036123165760809190911b906010015b60c082901c673030303030303030036123345760409190911b906008015b60e082901c63303030300361234e5760209190911b906004015b60f082901c613030036123665760109190911b906002015b60f882901c603003612376576001015b82518190039201918252505b919050565b60606123b7858585856040516020016123a39493929190613d88565b604051602081830303815290604052612d65565b6040516020016123c79190613fa9565b60405160208183030381529060405290505b949350505050565b60006123ed8688613a82565b905080156116a15760006124018489613a82565b905080156124875773ffffffffffffffffffffffffffffffffffffffff86166124655780341015612460576040517fa518cf3c000000000000000000000000000000000000000000000000000000008152346004820152602401610c40565b612487565b61248773ffffffffffffffffffffffffffffffffffffffff8716333084612616565b86156125a55773ffffffffffffffffffffffffffffffffffffffff8616612583578034146124e3576040517fa518cf3c000000000000000000000000000000000000000000000000000000008152346004820152602401610c40565b60008573ffffffffffffffffffffffffffffffffffffffff163460405160006040518083038185875af1925050503d806000811461253d576040519150601f19603f3d011682016040523d82523d6000602084013e612542565b606091505b505090508061257d576040517f81063e5100000000000000000000000000000000000000000000000000000000815260040160405180910390fd5b506125a5565b6125a573ffffffffffffffffffffffffffffffffffffffff871633878a612616565b73ffffffffffffffffffffffffffffffffffffffff8084166000908152600760209081526040808320938a16835292905290812080548692906125e9908490613a82565b90915550505050505050505050565b612612828260405180602001604052806000815250612eb8565b5050565b60405173ffffffffffffffffffffffffffffffffffffffff808516602483015283166044820152606481018290526121ab9085907f23b872dd000000000000000000000000000000000000000000000000000000009060840161200f565b73ffffffffffffffffffffffffffffffffffffffff811660009081526009602052604081205460ff168061088a5750503f60009081526008602052604090205460ff1690565b600061271c826040518060400160405280602081526020017f5361666545524332303a206c6f772d6c6576656c2063616c6c206661696c65648152508573ffffffffffffffffffffffffffffffffffffffff16612f5b9092919063ffffffff16565b805190915015610a6d578080602001905181019061273a9190613fee565b610a6d576040517f08c379a000000000000000000000000000000000000000000000000000000000815260206004820152602a60248201527f5361666545524332303a204552433230206f7065726174696f6e20646964206e60448201527f6f742073756363656564000000000000000000000000000000000000000000006064820152608401610c40565b8273ffffffffffffffffffffffffffffffffffffffff166127e682610f95565b73ffffffffffffffffffffffffffffffffffffffff1614612889576040517f08c379a000000000000000000000000000000000000000000000000000000000815260206004820152602560248201527f4552433732313a207472616e736665722066726f6d20696e636f72726563742060448201527f6f776e65720000000000000000000000000000000000000000000000000000006064820152608401610c40565b600081815260046020908152604080832080547fffffffffffffffffffffffff000000000000000000000000000000000000000090811690915573ffffffffffffffffffffffffffffffffffffffff8781168086526003855283862080547fffffffffffffffffffffffffffffffffffffffffffffffffffffffffffffffff01905590871680865283862080546001019055868652600290945282852080549092168417909155905184937fddf252ad1be2c89b69c2b068fc378daa952ba7f163c4a11628f55a4df523b3ef91a4505050565b600073ffffffffffffffffffffffffffffffffffffffff84163b15612b44576040517f150b7a0200000000000000000000000000000000000000000000000000000000815273ffffffffffffffffffffffffffffffffffffffff85169063150b7a02906129d390339089908890889060040161400b565b6020604051808303816000875af1925050508015612a2c575060408051601f3d9081017fffffffffffffffffffffffffffffffffffffffffffffffffffffffffffffffe0168201909252612a2991810190614054565b60015b612af9573d808015612a5a576040519150601f19603f3d011682016040523d82523d6000602084013e612a5f565b606091505b508051600003612af1576040517f08c379a000000000000000000000000000000000000000000000000000000000815260206004820152603260248201527f4552433732313a207472616e7366657220746f206e6f6e20455243373231526560448201527f63656976657220696d706c656d656e74657200000000000000000000000000006064820152608401610c40565b805181602001fd5b7fffffffff00000000000000000000000000000000000000000000000000000000167f150b7a02000000000000000000000000000000000000000000000000000000001490506123d9565b5060016123d9565b60006d04ee2d6d415b85acef81000000008210612b6857600080fd5b507f3030303030303030303030303030303030303030303030303030303030303030600a820601600a820491506008600a8306901b01600a820491506010600a8306901b01600a820491506018600a8306901b01600a820491506020600a8306901b01600a820491506028600a8306901b01600a820491506030600a8306901b01600a820491506038600a8306901b01600a820491506040600a8306901b01600a820491506048600a8306901b01600a820491506050600a8306901b01600a820491506058600a8306901b01600a820491506060600a8306901b01600a820491506068600a8306901b01600a820491506070600a8306901b01600a820491506078600a8306901b01600a820491506080600a8306901b01600a820491506088600a8306901b01600a820491506090600a8306901b01600a820491506098600a8306901b01600a8204915060a0600a8306901b01600a8204915060a8600a8306901b01600a8204915060b0600a8306901b01600a8204915060b8600a8306901b01600a8204915060c0600a8306901b01600a8204915060c8600a8306901b01600a8204915060d0600a8306901b01600a8204915060d8600a8306901b01600a8204915060e0600a8306901b01600a8204915060e8600a8306901b01600a8204915060f0600a8306901b01600a8204915060f8600a8306901b01919050565b60608151600003612d8457505060408051602081019091526000815290565b60006040518060600160405280604081526020016140c96040913990506000600384516002612db39190613a82565b612dbd9190614071565b612dc8906004613aa5565b67ffffffffffffffff811115612de057612de0613547565b6040519080825280601f01601f191660200182016040528015612e0a576020820181803683370190505b509050600182016020820185865187015b80821015612e76576003820191508151603f8160121c168501518453600184019350603f81600c1c168501518453600184019350603f8160061c168501518453600184019350603f8116850151845350600183019250612e1b565b5050600386510660018114612e925760028114612ea557612ead565b603d6001830353603d6002830353612ead565b603d60018303535b509195945050505050565b612ec28383612f6a565b612ecf600084848461295c565b610a6d576040517f08c379a000000000000000000000000000000000000000000000000000000000815260206004820152603260248201527f4552433732313a207472616e7366657220746f206e6f6e20455243373231526560448201527f63656976657220696d706c656d656e74657200000000000000000000000000006064820152608401610c40565b60606123d98484600085613086565b60008181526002602052604090205473ffffffffffffffffffffffffffffffffffffffff1615612ff6576040517f08c379a000000000000000000000000000000000000000000000000000000000815260206004820152601c60248201527f4552433732313a20746f6b656e20616c7265616479206d696e746564000000006044820152606401610c40565b73ffffffffffffffffffffffffffffffffffffffff8216600081815260036020908152604080832080546001019055848352600290915280822080547fffffffffffffffffffffffff0000000000000000000000000000000000000000168417905551839291907fddf252ad1be2c89b69c2b068fc378daa952ba7f163c4a11628f55a4df523b3ef908290a45050565b606082471015613118576040517f08c379a000000000000000000000000000000000000000000000000000000000815260206004820152602660248201527f416464726573733a20696e73756666696369656e742062616c616e636520666f60448201527f722063616c6c00000000000000000000000000000000000000000000000000006064820152608401610c40565b6000808673ffffffffffffffffffffffffffffffffffffffff16858760405161314191906140ac565b60006040518083038185875af1925050503d806000811461317e576040519150601f19603f3d011682016040523d82523d6000602084013e613183565b606091505b50915091506131948783838761319f565b979650505050505050565b6060831561323557825160000361322e5773ffffffffffffffffffffffffffffffffffffffff85163b61322e576040517f08c379a000000000000000000000000000000000000000000000000000000000815260206004820152601d60248201527f416464726573733a2063616c6c20746f206e6f6e2d636f6e74726163740000006044820152606401610c40565b50816123d9565b6123d9838381511561324a5781518083602001fd5b806040517f08c379a0000000000000000000000000000000000000000000000000000000008152600401610c409190613337565b7fffffffff0000000000000000000000000000000000000000000000000000000081168114611d8557600080fd5b6000602082840312156132be57600080fd5b81356118008161327e565b60005b838110156132e45781810151838201526020016132cc565b50506000910152565b600081518084526133058160208601602086016132c9565b601f017fffffffffffffffffffffffffffffffffffffffffffffffffffffffffffffffe0169290920160200192915050565b60208152600061180060208301846132ed565b60006020828403121561335c57600080fd5b5035919050565b803573ffffffffffffffffffffffffffffffffffffffff8116811461238257600080fd5b6000806040838503121561339a57600080fd5b6133a383613363565b946020939093013593505050565b8015158114611d8557600080fd5b600080604083850312156133d257600080fd5b6133db83613363565b915060208301356133eb816133b1565b809150509250929050565b60006020828403121561340857600080fd5b61180082613363565b60008060006060848603121561342657600080fd5b61342f84613363565b925061343d60208501613363565b9150604084013590509250925092565b60008083601f84011261345f57600080fd5b50813567ffffffffffffffff81111561347757600080fd5b60208301915083602082850101111561348f57600080fd5b9250929050565b6000806000806000608086880312156134ae57600080fd5b85359450602086013593506134c560408701613363565b9250606086013567ffffffffffffffff8111156134e157600080fd5b6134ed8882890161344d565b969995985093965092949392505050565b60008060006060848603121561351357600080fd5b61351c84613363565b9250602084013561352c816133b1565b9150604084013561353c816133b1565b809150509250925092565b7f4e487b7100000000000000000000000000000000000000000000000000000000600052604160045260246000fd5b604051601f82017fffffffffffffffffffffffffffffffffffffffffffffffffffffffffffffffe016810167ffffffffffffffff811182821017156135bd576135bd613547565b604052919050565b600067ffffffffffffffff8211156135df576135df613547565b50601f017fffffffffffffffffffffffffffffffffffffffffffffffffffffffffffffffe01660200190565b600082601f83011261361c57600080fd5b813561362f61362a826135c5565b613576565b81815284602083860101111561364457600080fd5b816020850160208301376000918101602001919091529392505050565b60006020828403121561367357600080fd5b813567ffffffffffffffff81111561368a57600080fd5b6123d98482850161360b565b600080600080608085870312156136ac57600080fd5b6136b585613363565b93506136c360208601613363565b925060408501359150606085013567ffffffffffffffff8111156136e657600080fd5b6136f28782880161360b565b91505092959194509250565b600080600080600080600060c0888a03121561371957600080fd5b61372288613363565b9650602088013595506040880135945061373e60608901613363565b935061374c60808901613363565b925060a088013567ffffffffffffffff81111561376857600080fd5b6137748a828b0161344d565b989b979a50959850939692959293505050565b60008060008060006080868803121561379f57600080fd5b853594506020860135935060408601359250606086013567ffffffffffffffff8111156134e157600080fd5b6000806000606084860312156137e057600080fd5b6137e984613363565b9250602084013591506137fe60408501613363565b90509250925092565b6000806040838503121561381a57600080fd5b61382383613363565b915061383160208401613363565b90509250929050565b6080810161088a8284805173ffffffffffffffffffffffffffffffffffffffff9081168352602080830151908401526040808301519084015260609182015116910152565b600181811c9082168061389357607f821691505b6020821081036138cc577f4e487b7100000000000000000000000000000000000000000000000000000000600052602260045260246000fd5b50919050565b73ffffffffffffffffffffffffffffffffffffffff868116825285811660208301528416604082015260608101839052600061012061394b6080840185805173ffffffffffffffffffffffffffffffffffffffff9081168352602080830151908401526040808301519084015260609182015116910152565b6101008301819052600090830152506101400195945050505050565b8183528181602085013750600060208284010152600060207fffffffffffffffffffffffffffffffffffffffffffffffffffffffffffffffe0601f840116840101905092915050565b73ffffffffffffffffffffffffffffffffffffffff89811682528881166020830152878116604083015260608201879052608082018690528454811660a0830152600185015460c0830152600285015460e083015260038501541661010082015260006101405b80610120840152613a2b8184018587613967565b9b9a5050505050505050505050565b600060208284031215613a4c57600080fd5b5051919050565b7f4e487b7100000000000000000000000000000000000000000000000000000000600052601160045260246000fd5b8082018082111561088a5761088a613a53565b8183823760009101908152919050565b6000817fffffffffffffffffffffffffffffffffffffffffffffffffffffffffffffffff0483118215151615613add57613add613a53565b500290565b7f4e487b7100000000000000000000000000000000000000000000000000000000600052603260045260246000fd5b60007fffffffffffffffffffffffffffffffffffffffffffffffffffffffffffffffff8203613b4257613b42613a53565b5060010190565b600061014073ffffffffffffffffffffffffffffffffffffffff808e168452808d166020850152808c166040850152808b166060850152808a1660808501528860a085015280881660c0850152508560e08401528461010084015280610120840152613bb7818401856132ed565b9d9c50505050505050505050505050565b8181038181111561088a5761088a613a53565b600060208284031215613bed57600080fd5b815167ffffffffffffffff811115613c0457600080fd5b8201601f81018413613c1557600080fd5b8051613c2361362a826135c5565b818152856020838501011115613c3857600080fd5b613c498260208301602086016132c9565b95945050505050565b600073ffffffffffffffffffffffffffffffffffffffff808b168352808a1660208401528860408401528088166060840152508560808301528460a083015260e060c0830152613ca660e083018486613967565b9a9950505050505050505050565b88815287602082015273ffffffffffffffffffffffffffffffffffffffff871660408201528560608201528460808201528360a082015260e060c08201526000613ca660e083018486613967565b73ffffffffffffffffffffffffffffffffffffffff898116825288811660208301526040820188905260608201879052608082018690528454811660a0830152600185015460c0830152600285015460e08301526003850154166101008201526000610140613a17565b60008151613d7e8185602086016132c9565b9290920192915050565b7f7b2261747472696275746573223a00000000000000000000000000000000000081527f5b00000000000000000000000000000000000000000000000000000000000000600e8201527f7b2274726169745f74797065223a202243757272656e6379222c000000000000600f8201527f2276616c7565223a000000000000000000000000000000000000000000000000602982015260008551613e32816031850160208a016132c9565b7f7d00000000000000000000000000000000000000000000000000000000000000603182850101527f2c7b2274726169745f74797065223a2022457363726f776564222c0000000000603282850101527f22646973706c61795f74797065223a20226e756d626572222c00000000000000604d82850101527f2276616c7565223a00000000000000000000000000000000000000000000000060668285010152613194613ef9613fa3613f7a613ef9613f74613f4b613f22613ef9606e8a8d01018f613d6c565b7f7d00000000000000000000000000000000000000000000000000000000000000815260010190565b7f2c7b2274726169745f74797065223a20224d6f64756c65222c00000000000000815260190190565b7f2276616c7565223a000000000000000000000000000000000000000000000000815260080190565b8a613d6c565b7f5d00000000000000000000000000000000000000000000000000000000000000815260010190565b86613d6c565b7f646174613a6170706c69636174696f6e2f6a736f6e3b6261736536342c000000815260008251613fe181601d8501602087016132c9565b91909101601d0192915050565b60006020828403121561400057600080fd5b8151611800816133b1565b600073ffffffffffffffffffffffffffffffffffffffff80871683528086166020840152508360408301526080606083015261404a60808301846132ed565b9695505050505050565b60006020828403121561406657600080fd5b81516118008161327e565b6000826140a7577f4e487b7100000000000000000000000000000000000000000000000000000000600052601260045260246000fd5b500490565b600082516140be8184602087016132c9565b919091019291505056fe4142434445464748494a4b4c4d4e4f505152535455565758595a6162636465666768696a6b6c6d6e6f707172737475767778797a303132333435363738392b2fa264697066735822122069ba123c2f9ce5d45f208447aa220cc4ae6f8ce0d0c1323f1ec33fb59c34feaa64736f6c63430008100033",
    "linkReferences": {}
  },
  "methodIdentifiers": {
    "_returnCodeHash(address)": "107e2f3b",
    "approve(address,uint256)": "095ea7b3",
    "balanceOf(address)": "70a08231",
    "cash(uint256,uint256,address,bytes)": "4e289c06",
    "cheqCreatedAt(uint256)": "5e53b226",
    "cheqCurrency(uint256)": "fdd90c70",
    "cheqEscrowed(uint256)": "c298c4d2",
    "cheqInfo(uint256)": "f7794942",
    "cheqModule(uint256)": "e0e295b7",
    "fund(uint256,uint256,uint256,bytes)": "d6122058",
    "getApproved(uint256)": "081812fc",
    "isApprovedForAll(address,address)": "e985e9c5",
    "moduleWhitelisted(address)": "52f37f56",
    "moduleWithdraw(address,uint256,address)": "d6a4f84c",
    "name()": "06fdde03",
    "owner()": "8da5cb5b",
    "ownerOf(uint256)": "6352211e",
    "renounceOwnership()": "715018a6",
    "safeTransferFrom(address,address,uint256)": "42842e0e",
    "safeTransferFrom(address,address,uint256,bytes)": "b88d4fde",
    "setApprovalForAll(address,bool)": "a22cb465",
    "supportsInterface(bytes4)": "01ffc9a7",
    "symbol()": "95d89b41",
    "toString(address)": "56ca623e",
    "toString(bytes)": "71aad10d",
    "toString(bytes32)": "b11a19e8",
    "tokenURI(uint256)": "c87b56dd",
    "tokenWhitelisted(address)": "ff8507e8",
    "totalSupply()": "18160ddd",
    "transferFrom(address,address,uint256)": "23b872dd",
    "transferOwnership(address)": "f2fde38b",
    "validWrite(address,address)": "dfd5d811",
    "whitelistModule(address,bool,bool)": "53aafb69",
    "whitelistToken(address,bool)": "0ffb1d8b",
    "write(address,uint256,uint256,address,address,bytes)": "d0d0bb3f"
  },
  "id": 33
}