{
  "abi": [
    {
      "inputs": [],
      "stateMutability": "nonpayable",
      "type": "constructor"
    },
    {
      "anonymous": false,
      "inputs": [
        {
          "indexed": true,
          "internalType": "address",
          "name": "owner",
          "type": "address"
        },
        {
          "indexed": true,
          "internalType": "address",
          "name": "approved",
          "type": "address"
        },
        {
          "indexed": true,
          "internalType": "uint256",
          "name": "tokenId",
          "type": "uint256"
        }
      ],
      "name": "Approval",
      "type": "event"
    },
    {
      "anonymous": false,
      "inputs": [
        {
          "indexed": true,
          "internalType": "address",
          "name": "owner",
          "type": "address"
        },
        {
          "indexed": true,
          "internalType": "address",
          "name": "operator",
          "type": "address"
        },
        {
          "indexed": false,
          "internalType": "bool",
          "name": "approved",
          "type": "bool"
        }
      ],
      "name": "ApprovalForAll",
      "type": "event"
    },
    {
      "anonymous": false,
      "inputs": [
        {
          "indexed": true,
          "internalType": "uint256",
          "name": "cheqId",
          "type": "uint256"
        },
        {
          "indexed": true,
          "internalType": "address",
          "name": "to",
          "type": "address"
        },
        {
          "indexed": false,
          "internalType": "uint256",
          "name": "amount",
          "type": "uint256"
        }
      ],
      "name": "Cashed",
      "type": "event"
    },
    {
      "anonymous": false,
      "inputs": [
        {
          "indexed": true,
          "internalType": "contract IERC20",
          "name": "token",
          "type": "address"
        },
        {
          "indexed": true,
          "internalType": "address",
          "name": "to",
          "type": "address"
        },
        {
          "indexed": false,
          "internalType": "uint256",
          "name": "amount",
          "type": "uint256"
        }
      ],
      "name": "Deposited",
      "type": "event"
    },
    {
      "anonymous": false,
      "inputs": [
        {
          "indexed": true,
          "internalType": "uint256",
          "name": "cheqId",
          "type": "uint256"
        },
        {
          "indexed": true,
          "internalType": "address",
          "name": "from",
          "type": "address"
        },
        {
          "indexed": false,
          "internalType": "uint256",
          "name": "amount",
          "type": "uint256"
        }
      ],
      "name": "Funded",
      "type": "event"
    },
    {
      "anonymous": false,
      "inputs": [
        {
          "indexed": true,
          "internalType": "contract ICheqModule",
          "name": "module",
          "type": "address"
        },
        {
          "indexed": true,
          "internalType": "address",
          "name": "user",
          "type": "address"
        },
        {
          "indexed": false,
          "internalType": "bool",
          "name": "isAccepted",
          "type": "bool"
        },
        {
          "indexed": false,
          "internalType": "string",
          "name": "moduleName",
          "type": "string"
        }
      ],
      "name": "ModuleWhitelisted",
      "type": "event"
    },
    {
      "anonymous": false,
      "inputs": [
        {
          "indexed": true,
          "internalType": "address",
          "name": "previousOwner",
          "type": "address"
        },
        {
          "indexed": true,
          "internalType": "address",
          "name": "newOwner",
          "type": "address"
        }
      ],
      "name": "OwnershipTransferred",
      "type": "event"
    },
    {
      "anonymous": false,
      "inputs": [
        {
          "indexed": true,
          "internalType": "address",
          "name": "from",
          "type": "address"
        },
        {
          "indexed": true,
          "internalType": "address",
          "name": "to",
          "type": "address"
        },
        {
          "indexed": true,
          "internalType": "uint256",
          "name": "tokenId",
          "type": "uint256"
        }
      ],
      "name": "Transfer",
      "type": "event"
    },
    {
      "anonymous": false,
      "inputs": [
        {
          "indexed": true,
          "internalType": "uint256",
          "name": "cheqId",
          "type": "uint256"
        },
        {
          "indexed": false,
          "internalType": "contract IERC20",
          "name": "token",
          "type": "address"
        },
        {
          "indexed": false,
          "internalType": "uint256",
          "name": "amount",
          "type": "uint256"
        },
        {
          "indexed": false,
          "internalType": "uint256",
          "name": "escrowed",
          "type": "uint256"
        },
        {
          "indexed": true,
          "internalType": "address",
          "name": "drawer",
          "type": "address"
        },
        {
          "indexed": false,
          "internalType": "address",
          "name": "recipient",
          "type": "address"
        },
        {
          "indexed": true,
          "internalType": "contract ICheqModule",
          "name": "module",
          "type": "address"
        },
        {
          "indexed": false,
          "internalType": "address",
          "name": "owner",
          "type": "address"
        }
      ],
      "name": "Written",
      "type": "event"
    },
    {
      "inputs": [
        {
          "internalType": "address",
          "name": "to",
          "type": "address"
        },
        {
          "internalType": "uint256",
          "name": "tokenId",
          "type": "uint256"
        }
      ],
      "name": "approve",
      "outputs": [],
      "stateMutability": "nonpayable",
      "type": "function"
    },
    {
      "inputs": [
        {
          "internalType": "address",
          "name": "owner",
          "type": "address"
        }
      ],
      "name": "balanceOf",
      "outputs": [
        {
          "internalType": "uint256",
          "name": "",
          "type": "uint256"
        }
      ],
      "stateMutability": "view",
      "type": "function"
    },
    {
      "inputs": [
        {
          "internalType": "uint256",
          "name": "cheqId",
          "type": "uint256"
        },
        {
          "internalType": "address",
          "name": "to",
          "type": "address"
        },
        {
          "internalType": "uint256",
          "name": "cashAmount",
          "type": "uint256"
        }
      ],
      "name": "cash",
      "outputs": [],
      "stateMutability": "nonpayable",
      "type": "function"
    },
    {
      "inputs": [
        {
          "internalType": "uint256",
          "name": "cheqId",
          "type": "uint256"
        }
      ],
      "name": "cheqAmount",
      "outputs": [
        {
          "internalType": "uint256",
          "name": "",
          "type": "uint256"
        }
      ],
      "stateMutability": "view",
      "type": "function"
    },
    {
      "inputs": [
        {
          "internalType": "uint256",
          "name": "cheqId",
          "type": "uint256"
        }
      ],
      "name": "cheqDrawer",
      "outputs": [
        {
          "internalType": "address",
          "name": "",
          "type": "address"
        }
      ],
      "stateMutability": "view",
      "type": "function"
    },
    {
      "inputs": [
        {
          "internalType": "uint256",
          "name": "cheqId",
          "type": "uint256"
        }
      ],
      "name": "cheqEscrowed",
      "outputs": [
        {
          "internalType": "uint256",
          "name": "",
          "type": "uint256"
        }
      ],
      "stateMutability": "view",
      "type": "function"
    },
    {
      "inputs": [
        {
          "internalType": "uint256",
          "name": "",
          "type": "uint256"
        }
      ],
      "name": "cheqInfo",
      "outputs": [
        {
          "internalType": "contract IERC20",
          "name": "token",
          "type": "address"
        },
        {
          "internalType": "uint256",
          "name": "amount",
          "type": "uint256"
        },
        {
          "internalType": "uint256",
          "name": "escrowed",
          "type": "uint256"
        },
        {
          "internalType": "address",
          "name": "drawer",
          "type": "address"
        },
        {
          "internalType": "address",
          "name": "recipient",
          "type": "address"
        },
        {
          "internalType": "contract ICheqModule",
          "name": "module",
          "type": "address"
        }
      ],
      "stateMutability": "view",
      "type": "function"
    },
    {
      "inputs": [
        {
          "internalType": "uint256",
          "name": "cheqId",
          "type": "uint256"
        }
      ],
      "name": "cheqModule",
      "outputs": [
        {
          "internalType": "contract ICheqModule",
          "name": "",
          "type": "address"
        }
      ],
      "stateMutability": "view",
      "type": "function"
    },
    {
      "inputs": [
        {
          "internalType": "uint256",
          "name": "cheqId",
          "type": "uint256"
        }
      ],
      "name": "cheqRecipient",
      "outputs": [
        {
          "internalType": "address",
          "name": "",
          "type": "address"
        }
      ],
      "stateMutability": "view",
      "type": "function"
    },
    {
      "inputs": [
        {
          "internalType": "uint256",
          "name": "cheqId",
          "type": "uint256"
        }
      ],
      "name": "cheqToken",
      "outputs": [
        {
          "internalType": "contract IERC20",
          "name": "",
          "type": "address"
        }
      ],
      "stateMutability": "view",
      "type": "function"
    },
    {
      "inputs": [
        {
          "internalType": "contract IERC20",
          "name": "_token",
          "type": "address"
        },
        {
          "internalType": "uint256",
          "name": "_amount",
          "type": "uint256"
        }
      ],
      "name": "deposit",
      "outputs": [
        {
          "internalType": "bool",
          "name": "",
          "type": "bool"
        }
      ],
      "stateMutability": "nonpayable",
      "type": "function"
    },
    {
      "inputs": [
        {
          "internalType": "address",
          "name": "to",
          "type": "address"
        },
        {
          "internalType": "contract IERC20",
          "name": "token",
          "type": "address"
        },
        {
          "internalType": "uint256",
          "name": "amount",
          "type": "uint256"
        }
      ],
      "name": "deposit",
      "outputs": [
        {
          "internalType": "bool",
          "name": "",
          "type": "bool"
        }
      ],
      "stateMutability": "nonpayable",
      "type": "function"
    },
    {
      "inputs": [
        {
          "internalType": "address",
          "name": "",
          "type": "address"
        },
        {
          "internalType": "contract IERC20",
          "name": "",
          "type": "address"
        }
      ],
      "name": "deposits",
      "outputs": [
        {
          "internalType": "uint256",
          "name": "",
          "type": "uint256"
        }
      ],
      "stateMutability": "view",
      "type": "function"
    },
    {
      "inputs": [
        {
          "internalType": "uint256",
          "name": "cheqId",
          "type": "uint256"
        },
        {
          "internalType": "address",
          "name": "from",
          "type": "address"
        },
        {
          "internalType": "uint256",
          "name": "amount",
          "type": "uint256"
        }
      ],
      "name": "fund",
      "outputs": [],
      "stateMutability": "nonpayable",
      "type": "function"
    },
    {
      "inputs": [
        {
          "internalType": "uint256",
          "name": "tokenId",
          "type": "uint256"
        }
      ],
      "name": "getApproved",
      "outputs": [
        {
          "internalType": "address",
          "name": "",
          "type": "address"
        }
      ],
      "stateMutability": "view",
      "type": "function"
    },
    {
      "inputs": [
        {
          "internalType": "address",
          "name": "owner",
          "type": "address"
        },
        {
          "internalType": "address",
          "name": "operator",
          "type": "address"
        }
      ],
      "name": "isApprovedForAll",
      "outputs": [
        {
          "internalType": "bool",
          "name": "",
          "type": "bool"
        }
      ],
      "stateMutability": "view",
      "type": "function"
    },
    {
      "inputs": [],
      "name": "name",
      "outputs": [
        {
          "internalType": "string",
          "name": "",
          "type": "string"
        }
      ],
      "stateMutability": "view",
      "type": "function"
    },
    {
      "inputs": [],
      "name": "owner",
      "outputs": [
        {
          "internalType": "address",
          "name": "",
          "type": "address"
        }
      ],
      "stateMutability": "view",
      "type": "function"
    },
    {
      "inputs": [
        {
          "internalType": "uint256",
          "name": "tokenId",
          "type": "uint256"
        }
      ],
      "name": "ownerOf",
      "outputs": [
        {
          "internalType": "address",
          "name": "",
          "type": "address"
        }
      ],
      "stateMutability": "view",
      "type": "function"
    },
    {
      "inputs": [],
      "name": "renounceOwnership",
      "outputs": [],
      "stateMutability": "nonpayable",
      "type": "function"
    },
    {
      "inputs": [
        {
          "internalType": "address",
          "name": "from",
          "type": "address"
        },
        {
          "internalType": "address",
          "name": "to",
          "type": "address"
        },
        {
          "internalType": "uint256",
          "name": "tokenId",
          "type": "uint256"
        }
      ],
      "name": "safeTransferFrom",
      "outputs": [],
      "stateMutability": "nonpayable",
      "type": "function"
    },
    {
      "inputs": [
        {
          "internalType": "address",
          "name": "from",
          "type": "address"
        },
        {
          "internalType": "address",
          "name": "to",
          "type": "address"
        },
        {
          "internalType": "uint256",
          "name": "cheqId",
          "type": "uint256"
        },
        {
          "internalType": "bytes",
          "name": "data",
          "type": "bytes"
        }
      ],
      "name": "safeTransferFrom",
      "outputs": [],
      "stateMutability": "nonpayable",
      "type": "function"
    },
    {
      "inputs": [
        {
          "internalType": "address",
          "name": "operator",
          "type": "address"
        },
        {
          "internalType": "bool",
          "name": "approved",
          "type": "bool"
        }
      ],
      "name": "setApprovalForAll",
      "outputs": [],
      "stateMutability": "nonpayable",
      "type": "function"
    },
    {
      "inputs": [
        {
          "internalType": "bytes4",
          "name": "interfaceId",
          "type": "bytes4"
        }
      ],
      "name": "supportsInterface",
      "outputs": [
        {
          "internalType": "bool",
          "name": "",
          "type": "bool"
        }
      ],
      "stateMutability": "view",
      "type": "function"
    },
    {
      "inputs": [],
      "name": "symbol",
      "outputs": [
        {
          "internalType": "string",
          "name": "",
          "type": "string"
        }
      ],
      "stateMutability": "view",
      "type": "function"
    },
    {
      "inputs": [
        {
          "internalType": "uint256",
          "name": "tokenId",
          "type": "uint256"
        }
      ],
      "name": "tokenURI",
      "outputs": [
        {
          "internalType": "string",
          "name": "",
          "type": "string"
        }
      ],
      "stateMutability": "view",
      "type": "function"
    },
    {
      "inputs": [],
      "name": "totalSupply",
      "outputs": [
        {
          "internalType": "uint256",
          "name": "",
          "type": "uint256"
        }
      ],
      "stateMutability": "view",
      "type": "function"
    },
    {
      "inputs": [
        {
          "internalType": "address",
          "name": "from",
          "type": "address"
        },
        {
          "internalType": "address",
          "name": "to",
          "type": "address"
        },
        {
          "internalType": "uint256",
          "name": "cheqId",
          "type": "uint256"
        }
      ],
      "name": "transferFrom",
      "outputs": [],
      "stateMutability": "nonpayable",
      "type": "function"
    },
    {
      "inputs": [
        {
          "internalType": "address",
          "name": "newOwner",
          "type": "address"
        }
      ],
      "name": "transferOwnership",
      "outputs": [],
      "stateMutability": "nonpayable",
      "type": "function"
    },
    {
      "inputs": [
        {
          "internalType": "address",
          "name": "",
          "type": "address"
        },
        {
          "internalType": "contract ICheqModule",
          "name": "",
          "type": "address"
        }
      ],
      "name": "userModuleWhitelist",
      "outputs": [
        {
          "internalType": "bool",
          "name": "",
          "type": "bool"
        }
      ],
      "stateMutability": "view",
      "type": "function"
    },
    {
      "inputs": [
        {
          "internalType": "contract ICheqModule",
          "name": "module",
          "type": "address"
        },
        {
          "internalType": "bool",
          "name": "isAccepted",
          "type": "bool"
        },
        {
          "internalType": "string",
          "name": "moduleName",
          "type": "string"
        }
      ],
      "name": "whitelistModule",
      "outputs": [],
      "stateMutability": "nonpayable",
      "type": "function"
    },
    {
      "inputs": [
        {
          "internalType": "address",
          "name": "from",
          "type": "address"
        },
        {
          "internalType": "address",
          "name": "recipient",
          "type": "address"
        },
        {
          "internalType": "contract IERC20",
          "name": "_token",
          "type": "address"
        },
        {
          "internalType": "uint256",
          "name": "amount",
          "type": "uint256"
        },
        {
          "internalType": "uint256",
          "name": "escrow",
          "type": "uint256"
        },
        {
          "internalType": "address",
          "name": "owner",
          "type": "address"
        }
      ],
      "name": "write",
      "outputs": [
        {
          "internalType": "uint256",
          "name": "",
          "type": "uint256"
        }
      ],
      "stateMutability": "nonpayable",
      "type": "function"
    }
  ],
  "bytecode": {
    "object": "0x60806040523480156200001157600080fd5b506040518060400160405280600c81526020016b10da195c541c9bdd1bd8dbdb60a21b815250604051806040016040528060048152602001634348455160e01b815250816000908162000065919062000192565b50600162000074828262000192565b505050620000916200008b6200009760201b60201c565b6200009b565b6200025e565b3390565b600680546001600160a01b038381166001600160a01b0319831681179093556040519116919082907f8be0079c531659141344cd1fd0a4f28419497f9722a3daafe3b4186f6b6457e090600090a35050565b634e487b7160e01b600052604160045260246000fd5b600181811c908216806200011857607f821691505b6020821081036200013957634e487b7160e01b600052602260045260246000fd5b50919050565b601f8211156200018d57600081815260208120601f850160051c81016020861015620001685750805b601f850160051c820191505b81811015620001895782815560010162000174565b5050505b505050565b81516001600160401b03811115620001ae57620001ae620000ed565b620001c681620001bf845462000103565b846200013f565b602080601f831160018114620001fe5760008415620001e55750858301515b600019600386901b1c1916600185901b17855562000189565b600085815260208120601f198616915b828110156200022f578886015182559484019460019091019084016200020e565b50858210156200024e5787850151600019600388901b60f8161c191681555b5050505050600190811b01905550565b611ea6806200026e6000396000f3fe608060405234801561001057600080fd5b50600436106101f05760003560e01c80638340f5491161010f578063a22cb465116100a2578063e0e295b711610071578063e0e295b7146104c1578063e985e9c5146104ed578063f2fde38b14610529578063f77949421461053c57600080fd5b8063a22cb46514610465578063b88d4fde14610478578063c298c4d21461048b578063c87b56dd146104ae57600080fd5b806395d140a1116100de57806395d140a11461041457806395d89b411461042757806398e05fcf1461042f5780639ac7fcf91461045257600080fd5b80638340f5491461039757806383ddd1b4146103aa5780638da5cb5b146103d85780638f601f66146103e957600080fd5b8063254fe606116101875780636352211e116101565780636352211e1461033d57806370a0823114610350578063715018a614610363578063789a04961461036b57600080fd5b8063254fe606146102d857806332c1efbb146102eb57806342842e0e1461031757806347e7ef241461032a57600080fd5b80630b237b7a116101c35780630b237b7a1461027257806318160ddd1461029b57806323b872dd146102b2578063254388a3146102c557600080fd5b806301ffc9a7146101f557806306fdde031461021d578063081812fc14610232578063095ea7b31461025d575b600080fd5b610208610203366004611840565b6105ce565b60405190151581526020015b60405180910390f35b610225610620565b60405161021491906118b4565b6102456102403660046118c7565b6106b2565b6040516001600160a01b039091168152602001610214565b61027061026b3660046118f5565b6106d9565b005b6102456102803660046118c7565b6000908152600760205260409020546001600160a01b031690565b6102a4600a5481565b604051908152602001610214565b6102706102c0366004611921565b610735565b6102706102d3366004611962565b61078a565b6102a46102e6366004611989565b61093a565b6102456102f93660046118c7565b6000908152600760205260409020600301546001600160a01b031690565b610270610325366004611921565b610bce565b6102086103383660046118f5565b610be9565b61024561034b3660046118c7565b610bff565b6102a461035e3660046119f9565b610c5f565b610270610ce5565b6102456103793660046118c7565b6000908152600760205260409020600401546001600160a01b031690565b6102086103a5366004611921565b610cf9565b6102086103b8366004611a16565b600960209081526000928352604080842090915290825290205460ff1681565b6006546001600160a01b0316610245565b6102a46103f7366004611a16565b600860209081526000928352604080842090915290825290205481565b610270610422366004611962565b610d10565b610225610e4f565b6102a461043d3660046118c7565b60009081526007602052604090206001015490565b610270610460366004611b0a565b610e5e565b610270610473366004611b80565b610ed5565b610270610486366004611bae565b610ee4565b6102a46104993660046118c7565b60009081526007602052604090206002015490565b6102256104bc3660046118c7565b610f3b565b6102456104cf3660046118c7565b6000908152600760205260409020600501546001600160a01b031690565b6102086104fb366004611a16565b6001600160a01b03918216600090815260056020908152604080832093909416825291909152205460ff1690565b6102706105373660046119f9565b610fc7565b61059061054a3660046118c7565b6007602052600090815260409020805460018201546002830154600384015460048501546005909501546001600160a01b03948516959394929391831692918216911686565b604080516001600160a01b039788168152602081019690965285019390935290841660608401528316608083015290911660a082015260c001610214565b60006001600160e01b031982166380ac58cd60e01b14806105ff57506001600160e01b03198216635b5e139f60e01b145b8061061a57506301ffc9a760e01b6001600160e01b03198316145b92915050565b60606000805461062f90611c2e565b80601f016020809104026020016040519081016040528092919081815260200182805461065b90611c2e565b80156106a85780601f1061067d576101008083540402835291602001916106a8565b820191906000526020600020905b81548152906001019060200180831161068b57829003601f168201915b5050505050905090565b60006106bd82611040565b506000908152600460205260409020546001600160a01b031690565b60008181526007602052604090206005015481906001600160a01b0316336001600160a01b0316146107265760405162461bcd60e51b815260040161071d90611c68565b60405180910390fd5b610730838361109f565b505050565b60008181526007602052604090206005015481906001600160a01b0316336001600160a01b0316146107795760405162461bcd60e51b815260040161071d90611c68565b61078484848461110d565b50505050565b60008381526007602052604090206005015483906001600160a01b0316336001600160a01b0316146107ce5760405162461bcd60e51b815260040161071d90611c68565b600084815260076020526040902060028101548311156108305760405162461bcd60e51b815260206004820152601e60248201527f43616e27742063617368206d6f7265207468616e20617661696c61626c650000604482015260640161071d565b6002810180548490039055805460405163a9059cbb60e01b81526001600160a01b038681166004830152602482018690529091169063a9059cbb906044016020604051808303816000875af115801561088d573d6000803e3d6000fd5b505050506040513d601f19601f820116820180604052508101906108b19190611c94565b6108ef5760405162461bcd60e51b815260206004820152600f60248201526e151c985b9cd9995c8819985a5b1959608a1b604482015260640161071d565b836001600160a01b0316857fdf911926ff47c4c83062ee4e05490c71640c441d3c60a0a8cd90fbcf25611ac48560405161092b91815260200190565b60405180910390a35050505050565b60006001600160a01b03871633146109ae576001600160a01b038716600090815260096020908152604080832033845290915290205460ff166109ae5760405162461bcd60e51b815260206004820152600c60248201526b554e4150505f4d4f44554c4560a01b604482015260640161071d565b6001600160a01b03808816600090815260086020908152604080832093891683529290522054831115610a0f5760405162461bcd60e51b8152602060048201526009602482015268125394d55197d0905360ba1b604482015260640161071d565b6001600160a01b03808816600090815260086020908152604080832093891683529290529081208054859290610a46908490611cc7565b925050819055506040518060c00160405280866001600160a01b03168152602001858152602001848152602001886001600160a01b03168152602001876001600160a01b03168152602001610a983390565b6001600160a01b03908116909152600a8054600090815260076020908152604091829020855181549086166001600160a01b03199182161782559186015160018201559185015160028301556060850151600383018054918616918316919091179055608085015160048301805491861691831691909117905560a0909401516005909101805491909316931692909217905554610b37908390611271565b600a54604080516001600160a01b038881168252602082018890528183018790528981166060830152858116608083015291513393928b1692917f2484f4acd1a16f16e4aa642ab090c4a1b38046ad3bddf66cc8c11cd00b287819919081900360a00190a46001600a6000828254610baf9190611cda565b9091555050600a54610bc390600190611cc7565b979650505050505050565b61073083838360405180602001604052806000815250610ee4565b6000610bf683338461128b565b50600192915050565b6000818152600260205260408120546001600160a01b03168061061a5760405162461bcd60e51b8152602060048201526018602482015277115490cdcc8c4e881a5b9d985b1a59081d1bdad95b88125160421b604482015260640161071d565b60006001600160a01b038216610cc95760405162461bcd60e51b815260206004820152602960248201527f4552433732313a2061646472657373207a65726f206973206e6f7420612076616044820152683634b21037bbb732b960b91b606482015260840161071d565b506001600160a01b031660009081526003602052604090205490565b610ced6113c5565b610cf7600061141f565b565b6000610d0683858461128b565b5060019392505050565b60008381526007602052604090206005015483906001600160a01b0316336001600160a01b031614610d545760405162461bcd60e51b815260040161071d90611c68565b600084815260076020908152604080832080546001600160a01b0388811686526008855283862091168086529352922054841115610dc05760405162461bcd60e51b8152602060048201526009602482015268125394d55197d0905360ba1b604482015260640161071d565b6001600160a01b038086166000908152600860209081526040808320938516835292905290812080548690039055600283018054869290610e02908490611cda565b90915550506040518481526001600160a01b0386169087907f38c48552690c96ec2872092ac1db6c19fb59f5a8c5b49bbf41ed4886d0ca69269060200160405180910390a3505050505050565b60606001805461062f90611c2e565b610e666113c5565b3360008181526009602090815260408083206001600160a01b038816808552925291829020805460ff191686151517905590517f2fc39f5476ccdfea764b0583bee41d08d59f9665441172bd25c58bc59c9b9fee90610ec89086908690611ced565b60405180910390a3505050565b610ee0338383611471565b5050565b60008281526007602052604090206005015482906001600160a01b0316336001600160a01b031614610f285760405162461bcd60e51b815260040161071d90611c68565b610f3485858585611537565b5050505050565b6060610f4682611040565b6000828152600760205260409081902060050154905163c87b56dd60e01b8152600481018490526001600160a01b039091169063c87b56dd90602401600060405180830381865afa158015610f9f573d6000803e3d6000fd5b505050506040513d6000823e601f3d908101601f1916820160405261061a9190810190611d08565b610fcf6113c5565b6001600160a01b0381166110345760405162461bcd60e51b815260206004820152602660248201527f4f776e61626c653a206e6577206f776e657220697320746865207a65726f206160448201526564647265737360d01b606482015260840161071d565b61103d8161141f565b50565b6000818152600260205260409020546001600160a01b031661103d5760405162461bcd60e51b8152602060048201526018602482015277115490cdcc8c4e881a5b9d985b1a59081d1bdad95b88125160421b604482015260640161071d565b600081815260046020526040902080546001600160a01b0319166001600160a01b03841690811790915581906110d482610bff565b6001600160a01b03167f8c5be1e5ebec7d5bd14f71427d1e84f3dd0314c0f7b2291e5b200ac8c7c3b92560405160405180910390a45050565b826001600160a01b031661112082610bff565b6001600160a01b0316146111465760405162461bcd60e51b815260040161071d90611d7f565b6001600160a01b0382166111a85760405162461bcd60e51b8152602060048201526024808201527f4552433732313a207472616e7366657220746f20746865207a65726f206164646044820152637265737360e01b606482015260840161071d565b826001600160a01b03166111bb82610bff565b6001600160a01b0316146111e15760405162461bcd60e51b815260040161071d90611d7f565b600081815260046020908152604080832080546001600160a01b03199081169091556001600160a01b0387811680865260038552838620805460001901905590871680865283862080546001019055868652600290945282852080549092168417909155905184937fddf252ad1be2c89b69c2b068fc378daa952ba7f163c4a11628f55a4df523b3ef91a4505050565b610ee082826040518060200160405280600081525061156a565b6040516323b872dd60e01b81526001600160a01b038381166004830152306024830152604482018390528416906323b872dd906064016020604051808303816000875af11580156112e0573d6000803e3d6000fd5b505050506040513d601f19601f820116820180604052508101906113049190611c94565b6113425760405162461bcd60e51b815260206004820152600f60248201526e151c985b9cd9995c8819985a5b1959608a1b604482015260640161071d565b6001600160a01b03808316600090815260086020908152604080832093871683529290529081208054839290611379908490611cda565b92505081905550816001600160a01b0316836001600160a01b03167f8752a472e571a816aea92eec8dae9baf628e840f4929fbcc2d155e6233ff68a783604051610ec891815260200190565b6006546001600160a01b03163314610cf75760405162461bcd60e51b815260206004820181905260248201527f4f776e61626c653a2063616c6c6572206973206e6f7420746865206f776e6572604482015260640161071d565b600680546001600160a01b038381166001600160a01b0319831681179093556040519116919082907f8be0079c531659141344cd1fd0a4f28419497f9722a3daafe3b4186f6b6457e090600090a35050565b816001600160a01b0316836001600160a01b0316036114d25760405162461bcd60e51b815260206004820152601960248201527f4552433732313a20617070726f766520746f2063616c6c657200000000000000604482015260640161071d565b6001600160a01b03838116600081815260056020908152604080832094871680845294825291829020805460ff191686151590811790915591519182527f17307eab39ab6107e8899845ad3d59bd9653f200f220920489ca2b5937696c319101610ec8565b61154284848461110d565b61154e8484848461159d565b6107845760405162461bcd60e51b815260040161071d90611dc4565b611574838361169f565b611581600084848461159d565b6107305760405162461bcd60e51b815260040161071d90611dc4565b60006001600160a01b0384163b1561169357604051630a85bd0160e11b81526001600160a01b0385169063150b7a02906115e1903390899088908890600401611e16565b6020604051808303816000875af192505050801561161c575060408051601f3d908101601f1916820190925261161991810190611e53565b60015b611679573d80801561164a576040519150601f19603f3d011682016040523d82523d6000602084013e61164f565b606091505b5080516000036116715760405162461bcd60e51b815260040161071d90611dc4565b805181602001fd5b6001600160e01b031916630a85bd0160e11b149050611697565b5060015b949350505050565b6001600160a01b0382166116f55760405162461bcd60e51b815260206004820181905260248201527f4552433732313a206d696e7420746f20746865207a65726f2061646472657373604482015260640161071d565b6000818152600260205260409020546001600160a01b03161561175a5760405162461bcd60e51b815260206004820152601c60248201527f4552433732313a20746f6b656e20616c7265616479206d696e74656400000000604482015260640161071d565b6000818152600260205260409020546001600160a01b0316156117bf5760405162461bcd60e51b815260206004820152601c60248201527f4552433732313a20746f6b656e20616c7265616479206d696e74656400000000604482015260640161071d565b6001600160a01b038216600081815260036020908152604080832080546001019055848352600290915280822080546001600160a01b0319168417905551839291907fddf252ad1be2c89b69c2b068fc378daa952ba7f163c4a11628f55a4df523b3ef908290a45050565b6001600160e01b03198116811461103d57600080fd5b60006020828403121561185257600080fd5b813561185d8161182a565b9392505050565b60005b8381101561187f578181015183820152602001611867565b50506000910152565b600081518084526118a0816020860160208601611864565b601f01601f19169290920160200192915050565b60208152600061185d6020830184611888565b6000602082840312156118d957600080fd5b5035919050565b6001600160a01b038116811461103d57600080fd5b6000806040838503121561190857600080fd5b8235611913816118e0565b946020939093013593505050565b60008060006060848603121561193657600080fd5b8335611941816118e0565b92506020840135611951816118e0565b929592945050506040919091013590565b60008060006060848603121561197757600080fd5b833592506020840135611951816118e0565b60008060008060008060c087890312156119a257600080fd5b86356119ad816118e0565b955060208701356119bd816118e0565b945060408701356119cd816118e0565b9350606087013592506080870135915060a08701356119eb816118e0565b809150509295509295509295565b600060208284031215611a0b57600080fd5b813561185d816118e0565b60008060408385031215611a2957600080fd5b8235611a34816118e0565b91506020830135611a44816118e0565b809150509250929050565b801515811461103d57600080fd5b634e487b7160e01b600052604160045260246000fd5b604051601f8201601f1916810167ffffffffffffffff81118282101715611a9c57611a9c611a5d565b604052919050565b600067ffffffffffffffff821115611abe57611abe611a5d565b50601f01601f191660200190565b6000611adf611ada84611aa4565b611a73565b9050828152838383011115611af357600080fd5b828260208301376000602084830101529392505050565b600080600060608486031215611b1f57600080fd5b8335611b2a816118e0565b92506020840135611b3a81611a4f565b9150604084013567ffffffffffffffff811115611b5657600080fd5b8401601f81018613611b6757600080fd5b611b7686823560208401611acc565b9150509250925092565b60008060408385031215611b9357600080fd5b8235611b9e816118e0565b91506020830135611a4481611a4f565b60008060008060808587031215611bc457600080fd5b8435611bcf816118e0565b93506020850135611bdf816118e0565b925060408501359150606085013567ffffffffffffffff811115611c0257600080fd5b8501601f81018713611c1357600080fd5b611c2287823560208401611acc565b91505092959194509250565b600181811c90821680611c4257607f821691505b602082108103611c6257634e487b7160e01b600052602260045260246000fd5b50919050565b6020808252601290820152714f6e6c7920636865712773206d6f64756c6560701b604082015260600190565b600060208284031215611ca657600080fd5b815161185d81611a4f565b634e487b7160e01b600052601160045260246000fd5b8181038181111561061a5761061a611cb1565b8082018082111561061a5761061a611cb1565b82151581526040602082015260006116976040830184611888565b600060208284031215611d1a57600080fd5b815167ffffffffffffffff811115611d3157600080fd5b8201601f81018413611d4257600080fd5b8051611d50611ada82611aa4565b818152856020838501011115611d6557600080fd5b611d76826020830160208601611864565b95945050505050565b60208082526025908201527f4552433732313a207472616e736665722066726f6d20696e636f72726563742060408201526437bbb732b960d91b606082015260800190565b60208082526032908201527f4552433732313a207472616e7366657220746f206e6f6e20455243373231526560408201527131b2b4bb32b91034b6b83632b6b2b73a32b960711b606082015260800190565b6001600160a01b0385811682528416602082015260408101839052608060608201819052600090611e4990830184611888565b9695505050505050565b600060208284031215611e6557600080fd5b815161185d8161182a56fea2646970667358221220f8db0bf8df2cf65ff038ed70d734097660fbc78e3247b0532f52729325782aa964736f6c63430008100033",
    "linkReferences": {}
  },
  "methodIdentifiers": {
    "approve(address,uint256)": "095ea7b3",
    "balanceOf(address)": "70a08231",
    "cash(uint256,address,uint256)": "254388a3",
    "cheqAmount(uint256)": "98e05fcf",
    "cheqDrawer(uint256)": "32c1efbb",
    "cheqEscrowed(uint256)": "c298c4d2",
    "cheqInfo(uint256)": "f7794942",
    "cheqModule(uint256)": "e0e295b7",
    "cheqRecipient(uint256)": "789a0496",
    "cheqToken(uint256)": "0b237b7a",
    "deposit(address,address,uint256)": "8340f549",
    "deposit(address,uint256)": "47e7ef24",
    "deposits(address,address)": "8f601f66",
    "fund(uint256,address,uint256)": "95d140a1",
    "getApproved(uint256)": "081812fc",
    "isApprovedForAll(address,address)": "e985e9c5",
    "name()": "06fdde03",
    "owner()": "8da5cb5b",
    "ownerOf(uint256)": "6352211e",
    "renounceOwnership()": "715018a6",
    "safeTransferFrom(address,address,uint256)": "42842e0e",
    "safeTransferFrom(address,address,uint256,bytes)": "b88d4fde",
    "setApprovalForAll(address,bool)": "a22cb465",
    "supportsInterface(bytes4)": "01ffc9a7",
    "symbol()": "95d89b41",
    "tokenURI(uint256)": "c87b56dd",
    "totalSupply()": "18160ddd",
    "transferFrom(address,address,uint256)": "23b872dd",
    "transferOwnership(address)": "f2fde38b",
    "userModuleWhitelist(address,address)": "83ddd1b4",
    "whitelistModule(address,bool,string)": "9ac7fcf9",
    "write(address,address,address,uint256,uint256,address)": "254fe606"
  },
  "id": 20
}