{
  "abi": [
    {
      "inputs": [
        {
          "components": [
            {
              "internalType": "uint256",
              "name": "writeBPS",
              "type": "uint256"
            },
            {
              "internalType": "uint256",
              "name": "transferBPS",
              "type": "uint256"
            },
            {
              "internalType": "uint256",
              "name": "fundBPS",
              "type": "uint256"
            },
            {
              "internalType": "uint256",
              "name": "cashBPS",
              "type": "uint256"
            }
          ],
          "internalType": "struct DataTypes.WTFCFees",
          "name": "_fees",
          "type": "tuple"
        }
      ],
      "stateMutability": "nonpayable",
      "type": "constructor"
    },
    {
      "anonymous": false,
      "inputs": [
        {
          "indexed": true,
          "internalType": "address",
          "name": "owner",
          "type": "address"
        },
        {
          "indexed": true,
          "internalType": "address",
          "name": "approved",
          "type": "address"
        },
        {
          "indexed": true,
          "internalType": "uint256",
          "name": "tokenId",
          "type": "uint256"
        }
      ],
      "name": "Approval",
      "type": "event"
    },
    {
      "anonymous": false,
      "inputs": [
        {
          "indexed": true,
          "internalType": "address",
          "name": "owner",
          "type": "address"
        },
        {
          "indexed": true,
          "internalType": "address",
          "name": "operator",
          "type": "address"
        },
        {
          "indexed": false,
          "internalType": "bool",
          "name": "approved",
          "type": "bool"
        }
      ],
      "name": "ApprovalForAll",
      "type": "event"
    },
    {
      "anonymous": false,
      "inputs": [
        {
          "indexed": true,
          "internalType": "address",
          "name": "previousOwner",
          "type": "address"
        },
        {
          "indexed": true,
          "internalType": "address",
          "name": "newOwner",
          "type": "address"
        }
      ],
      "name": "OwnershipTransferred",
      "type": "event"
    },
    {
      "anonymous": false,
      "inputs": [
        {
          "indexed": true,
          "internalType": "address",
          "name": "from",
          "type": "address"
        },
        {
          "indexed": true,
          "internalType": "address",
          "name": "to",
          "type": "address"
        },
        {
          "indexed": true,
          "internalType": "uint256",
          "name": "tokenId",
          "type": "uint256"
        }
      ],
      "name": "Transfer",
      "type": "event"
    },
    {
      "inputs": [
        {
          "internalType": "address",
          "name": "module",
          "type": "address"
        }
      ],
      "name": "_returnCodeHash",
      "outputs": [
        {
          "internalType": "bytes32",
          "name": "",
          "type": "bytes32"
        }
      ],
      "stateMutability": "view",
      "type": "function"
    },
    {
      "inputs": [],
      "name": "_writeFlatFee",
      "outputs": [
        {
          "internalType": "uint256",
          "name": "",
          "type": "uint256"
        }
      ],
      "stateMutability": "view",
      "type": "function"
    },
    {
      "inputs": [
        {
          "internalType": "address",
          "name": "to",
          "type": "address"
        },
        {
          "internalType": "uint256",
          "name": "tokenId",
          "type": "uint256"
        }
      ],
      "name": "approve",
      "outputs": [],
      "stateMutability": "nonpayable",
      "type": "function"
    },
    {
      "inputs": [
        {
          "internalType": "address",
          "name": "owner",
          "type": "address"
        }
      ],
      "name": "balanceOf",
      "outputs": [
        {
          "internalType": "uint256",
          "name": "",
          "type": "uint256"
        }
      ],
      "stateMutability": "view",
      "type": "function"
    },
    {
      "inputs": [
        {
          "internalType": "uint256",
          "name": "cheqId",
          "type": "uint256"
        },
        {
          "internalType": "uint256",
          "name": "amount",
          "type": "uint256"
        },
        {
          "internalType": "address",
          "name": "to",
          "type": "address"
        },
        {
          "internalType": "bytes",
          "name": "cashData",
          "type": "bytes"
        }
      ],
      "name": "cash",
      "outputs": [],
      "stateMutability": "payable",
      "type": "function"
    },
    {
      "inputs": [
        {
          "internalType": "uint256",
          "name": "cheqId",
          "type": "uint256"
        }
      ],
      "name": "cheqCurrency",
      "outputs": [
        {
          "internalType": "address",
          "name": "",
          "type": "address"
        }
      ],
      "stateMutability": "view",
      "type": "function"
    },
    {
      "inputs": [
        {
          "internalType": "uint256",
          "name": "cheqId",
          "type": "uint256"
        }
      ],
      "name": "cheqEscrowed",
      "outputs": [
        {
          "internalType": "uint256",
          "name": "",
          "type": "uint256"
        }
      ],
      "stateMutability": "view",
      "type": "function"
    },
    {
      "inputs": [
        {
          "internalType": "uint256",
          "name": "cheqId",
          "type": "uint256"
        }
      ],
      "name": "cheqInfo",
      "outputs": [
        {
          "components": [
            {
              "internalType": "address",
              "name": "currency",
              "type": "address"
            },
            {
              "internalType": "uint256",
              "name": "escrowed",
              "type": "uint256"
            },
            {
              "internalType": "uint256",
              "name": "createdAt",
              "type": "uint256"
            },
            {
              "internalType": "address",
              "name": "module",
              "type": "address"
            }
          ],
          "internalType": "struct DataTypes.Cheq",
          "name": "",
          "type": "tuple"
        }
      ],
      "stateMutability": "view",
      "type": "function"
    },
    {
      "inputs": [
        {
          "internalType": "uint256",
          "name": "cheqId",
          "type": "uint256"
        }
      ],
      "name": "cheqModule",
      "outputs": [
        {
          "internalType": "address",
          "name": "",
          "type": "address"
        }
      ],
      "stateMutability": "view",
      "type": "function"
    },
    {
      "inputs": [],
      "name": "fees",
      "outputs": [
        {
          "internalType": "uint256",
          "name": "writeBPS",
          "type": "uint256"
        },
        {
          "internalType": "uint256",
          "name": "transferBPS",
          "type": "uint256"
        },
        {
          "internalType": "uint256",
          "name": "fundBPS",
          "type": "uint256"
        },
        {
          "internalType": "uint256",
          "name": "cashBPS",
          "type": "uint256"
        }
      ],
      "stateMutability": "view",
      "type": "function"
    },
    {
      "inputs": [
        {
          "internalType": "uint256",
          "name": "cheqId",
          "type": "uint256"
        },
        {
          "internalType": "uint256",
          "name": "amount",
          "type": "uint256"
        },
        {
          "internalType": "uint256",
          "name": "instant",
          "type": "uint256"
        },
        {
          "internalType": "bytes",
          "name": "fundData",
          "type": "bytes"
        }
      ],
      "name": "fund",
      "outputs": [],
      "stateMutability": "payable",
      "type": "function"
    },
    {
      "inputs": [
        {
          "internalType": "uint256",
          "name": "tokenId",
          "type": "uint256"
        }
      ],
      "name": "getApproved",
      "outputs": [
        {
          "internalType": "address",
          "name": "",
          "type": "address"
        }
      ],
      "stateMutability": "view",
      "type": "function"
    },
    {
      "inputs": [],
      "name": "getFees",
      "outputs": [
        {
          "internalType": "uint256",
          "name": "",
          "type": "uint256"
        },
        {
          "internalType": "uint256",
          "name": "",
          "type": "uint256"
        },
        {
          "internalType": "uint256",
          "name": "",
          "type": "uint256"
        },
        {
          "internalType": "uint256",
          "name": "",
          "type": "uint256"
        }
      ],
      "stateMutability": "view",
      "type": "function"
    },
    {
      "inputs": [
        {
          "internalType": "uint256",
          "name": "cheqId",
          "type": "uint256"
        },
        {
          "internalType": "uint8",
          "name": "_WTFC",
          "type": "uint8"
        }
      ],
      "name": "getTotalFees",
      "outputs": [
        {
          "internalType": "uint256",
          "name": "",
          "type": "uint256"
        },
        {
          "internalType": "uint256",
          "name": "",
          "type": "uint256"
        }
      ],
      "stateMutability": "view",
      "type": "function"
    },
    {
      "inputs": [
        {
          "internalType": "address",
          "name": "owner",
          "type": "address"
        },
        {
          "internalType": "address",
          "name": "operator",
          "type": "address"
        }
      ],
      "name": "isApprovedForAll",
      "outputs": [
        {
          "internalType": "bool",
          "name": "",
          "type": "bool"
        }
      ],
      "stateMutability": "view",
      "type": "function"
    },
    {
      "inputs": [
        {
          "internalType": "address",
          "name": "module",
          "type": "address"
        }
      ],
      "name": "moduleWhitelisted",
      "outputs": [
        {
          "internalType": "bool",
          "name": "",
          "type": "bool"
        },
        {
          "internalType": "bool",
          "name": "",
          "type": "bool"
        }
      ],
      "stateMutability": "view",
      "type": "function"
    },
    {
      "inputs": [
        {
          "internalType": "address",
          "name": "token",
          "type": "address"
        },
        {
          "internalType": "uint256",
          "name": "amount",
          "type": "uint256"
        },
        {
          "internalType": "address",
          "name": "to",
          "type": "address"
        }
      ],
      "name": "moduleWithdraw",
      "outputs": [],
      "stateMutability": "nonpayable",
      "type": "function"
    },
    {
      "inputs": [],
      "name": "name",
      "outputs": [
        {
          "internalType": "string",
          "name": "",
          "type": "string"
        }
      ],
      "stateMutability": "view",
      "type": "function"
    },
    {
      "inputs": [],
      "name": "owner",
      "outputs": [
        {
          "internalType": "address",
          "name": "",
          "type": "address"
        }
      ],
      "stateMutability": "view",
      "type": "function"
    },
    {
      "inputs": [
        {
          "internalType": "uint256",
          "name": "tokenId",
          "type": "uint256"
        }
      ],
      "name": "ownerOf",
      "outputs": [
        {
          "internalType": "address",
          "name": "",
          "type": "address"
        }
      ],
      "stateMutability": "view",
      "type": "function"
    },
    {
      "inputs": [],
      "name": "renounceOwnership",
      "outputs": [],
      "stateMutability": "nonpayable",
      "type": "function"
    },
    {
      "inputs": [
        {
          "internalType": "address",
          "name": "from",
          "type": "address"
        },
        {
          "internalType": "address",
          "name": "to",
          "type": "address"
        },
        {
          "internalType": "uint256",
          "name": "tokenId",
          "type": "uint256"
        }
      ],
      "name": "safeTransferFrom",
      "outputs": [],
      "stateMutability": "nonpayable",
      "type": "function"
    },
    {
      "inputs": [
        {
          "internalType": "address",
          "name": "from",
          "type": "address"
        },
        {
          "internalType": "address",
          "name": "to",
          "type": "address"
        },
        {
          "internalType": "uint256",
          "name": "tokenId",
          "type": "uint256"
        },
        {
          "internalType": "bytes",
          "name": "moduleTransferData",
          "type": "bytes"
        }
      ],
      "name": "safeTransferFrom",
      "outputs": [],
      "stateMutability": "nonpayable",
      "type": "function"
    },
    {
      "inputs": [
        {
          "internalType": "address",
          "name": "",
          "type": "address"
        },
        {
          "internalType": "bool",
          "name": "",
          "type": "bool"
        }
      ],
      "name": "setApprovalForAll",
      "outputs": [],
      "stateMutability": "pure",
      "type": "function"
    },
    {
      "inputs": [
        {
          "internalType": "bytes4",
          "name": "interfaceId",
          "type": "bytes4"
        }
      ],
      "name": "supportsInterface",
      "outputs": [
        {
          "internalType": "bool",
          "name": "",
          "type": "bool"
        }
      ],
      "stateMutability": "view",
      "type": "function"
    },
    {
      "inputs": [],
      "name": "symbol",
      "outputs": [
        {
          "internalType": "string",
          "name": "",
          "type": "string"
        }
      ],
      "stateMutability": "view",
      "type": "function"
    },
    {
      "inputs": [
        {
          "internalType": "address",
          "name": "account",
          "type": "address"
        }
      ],
      "name": "toString",
      "outputs": [
        {
          "internalType": "string",
          "name": "",
          "type": "string"
        }
      ],
      "stateMutability": "pure",
      "type": "function"
    },
    {
      "inputs": [
        {
          "internalType": "bytes",
          "name": "data",
          "type": "bytes"
        }
      ],
      "name": "toString",
      "outputs": [
        {
          "internalType": "string",
          "name": "",
          "type": "string"
        }
      ],
      "stateMutability": "pure",
      "type": "function"
    },
    {
      "inputs": [
        {
          "internalType": "bytes32",
          "name": "value",
          "type": "bytes32"
        }
      ],
      "name": "toString",
      "outputs": [
        {
          "internalType": "string",
          "name": "",
          "type": "string"
        }
      ],
      "stateMutability": "pure",
      "type": "function"
    },
    {
      "inputs": [
        {
          "internalType": "uint256",
          "name": "_tokenId",
          "type": "uint256"
        }
      ],
      "name": "tokenURI",
      "outputs": [
        {
          "internalType": "string",
          "name": "",
          "type": "string"
        }
      ],
      "stateMutability": "view",
      "type": "function"
    },
    {
      "inputs": [
        {
          "internalType": "address",
          "name": "token",
          "type": "address"
        }
      ],
      "name": "tokenWhitelisted",
      "outputs": [
        {
          "internalType": "bool",
          "name": "",
          "type": "bool"
        }
      ],
      "stateMutability": "view",
      "type": "function"
    },
    {
      "inputs": [],
      "name": "totalSupply",
      "outputs": [
        {
          "internalType": "uint256",
          "name": "",
          "type": "uint256"
        }
      ],
      "stateMutability": "view",
      "type": "function"
    },
    {
      "inputs": [
        {
          "internalType": "address",
          "name": "from",
          "type": "address"
        },
        {
          "internalType": "address",
          "name": "to",
          "type": "address"
        },
        {
          "internalType": "uint256",
          "name": "tokenId",
          "type": "uint256"
        }
      ],
      "name": "transferFrom",
      "outputs": [],
      "stateMutability": "nonpayable",
      "type": "function"
    },
    {
      "inputs": [
        {
          "internalType": "address",
          "name": "newOwner",
          "type": "address"
        }
      ],
      "name": "transferOwnership",
      "outputs": [],
      "stateMutability": "nonpayable",
      "type": "function"
    },
    {
      "inputs": [
        {
          "components": [
            {
              "internalType": "uint256",
              "name": "writeBPS",
              "type": "uint256"
            },
            {
              "internalType": "uint256",
              "name": "transferBPS",
              "type": "uint256"
            },
            {
              "internalType": "uint256",
              "name": "fundBPS",
              "type": "uint256"
            },
            {
              "internalType": "uint256",
              "name": "cashBPS",
              "type": "uint256"
            }
          ],
          "internalType": "struct DataTypes.WTFCFees",
          "name": "_fees",
          "type": "tuple"
        }
      ],
      "name": "updateFees",
      "outputs": [],
      "stateMutability": "nonpayable",
      "type": "function"
    },
    {
      "inputs": [
        {
          "internalType": "address",
          "name": "module",
          "type": "address"
        },
        {
          "internalType": "address",
          "name": "token",
          "type": "address"
        }
      ],
      "name": "validWrite",
      "outputs": [
        {
          "internalType": "bool",
          "name": "",
          "type": "bool"
        }
      ],
      "stateMutability": "view",
      "type": "function"
    },
    {
      "inputs": [
        {
          "internalType": "address",
          "name": "module",
          "type": "address"
        },
        {
          "internalType": "bool",
          "name": "bytecodeAccepted",
          "type": "bool"
        },
        {
          "internalType": "bool",
          "name": "addressAccepted",
          "type": "bool"
        }
      ],
      "name": "whitelistModule",
      "outputs": [],
      "stateMutability": "nonpayable",
      "type": "function"
    },
    {
      "inputs": [
        {
          "internalType": "address",
          "name": "_token",
          "type": "address"
        },
        {
          "internalType": "bool",
          "name": "accepted",
          "type": "bool"
        }
      ],
      "name": "whitelistToken",
      "outputs": [],
      "stateMutability": "nonpayable",
      "type": "function"
    },
    {
      "inputs": [
        {
          "internalType": "address",
          "name": "currency",
          "type": "address"
        },
        {
          "internalType": "uint256",
          "name": "escrowed",
          "type": "uint256"
        },
        {
          "internalType": "uint256",
          "name": "instant",
          "type": "uint256"
        },
        {
          "internalType": "address",
          "name": "owner",
          "type": "address"
        },
        {
          "internalType": "address",
          "name": "module",
          "type": "address"
        },
        {
          "internalType": "bytes",
          "name": "moduleWriteData",
          "type": "bytes"
        }
      ],
      "name": "write",
      "outputs": [
        {
          "internalType": "uint256",
          "name": "",
          "type": "uint256"
        }
      ],
      "stateMutability": "payable",
      "type": "function"
    }
  ],
  "bytecode": {
    "object": "0x60806040523480156200001157600080fd5b5060405162003c2538038062003c25833981016040819052620000349162000143565b6040518060400160405280600e81526020016d19195b9bdd18541c9bdd1bd8dbdb60921b815250604051806040016040528060048152602001634e4f544160e01b81525081600090816200008991906200023b565b5060016200009882826200023b565b505050620000b5620000af620000d760201b60201c565b620000db565b8051600e556020810151600f5560408101516010556060015160115562000307565b3390565b600680546001600160a01b038381166001600160a01b0319831681179093556040519116919082907f8be0079c531659141344cd1fd0a4f28419497f9722a3daafe3b4186f6b6457e090600090a35050565b634e487b7160e01b600052604160045260246000fd5b6000608082840312156200015657600080fd5b604051608081016001600160401b03811182821017156200017b576200017b6200012d565b8060405250825181526020830151602082015260408301516040820152606083015160608201528091505092915050565b600181811c90821680620001c157607f821691505b602082108103620001e257634e487b7160e01b600052602260045260246000fd5b50919050565b601f8211156200023657600081815260208120601f850160051c81016020861015620002115750805b601f850160051c820191505b8181101562000232578281556001016200021d565b5050505b505050565b81516001600160401b038111156200025757620002576200012d565b6200026f81620002688454620001ac565b84620001e8565b602080601f831160018114620002a757600084156200028e5750858301515b600019600386901b1c1916600185901b17855562000232565b600085815260208120601f198616915b82811015620002d857888601518255948401946001909101908401620002b7565b5085821015620002f75787850151600019600388901b60f8161c191681555b5050505050600190811b01905550565b61390e80620003176000396000f3fe6080604052600436106102305760003560e01c80638da5cb5b1161012e578063d6122058116100ab578063e985e9c51161006f578063e985e9c5146106e3578063f2fde38b1461072c578063f77949421461074c578063fdd90c7014610779578063ff8507e8146107af57600080fd5b8063d612205814610639578063d6a4f84c1461064c578063db8d55f11461066c578063dfd5d8111461068a578063e0e295b7146106aa57600080fd5b8063b11a19e8116100f2578063b11a19e814610596578063b88d4fde146105b6578063c298c4d2146105d6578063c87b56dd14610606578063d0d0bb3f1461062657600080fd5b80638da5cb5b146104e057806395d89b41146104fe57806398a9c92b146105135780639af1d35a14610533578063a22cb4651461057657600080fd5b806342842e0e116101bc57806356ca623e1161018057806356ca623e1461044b5780636352211e1461046b57806370a082311461048b578063715018a6146104ab57806371aad10d146104c057600080fd5b806342842e0e1461037d5780634c8065391461039d5780634e289c06146103b357806352f37f56146103c657806353aafb691461042b57600080fd5b80630ffb1d8b116102035780630ffb1d8b146102e6578063107e2f3b146103065780631536beeb1461033357806318160ddd1461036857806323b872dd1461037d57600080fd5b806301ffc9a71461023557806306fdde031461026a578063081812fc1461028c578063095ea7b3146102c4575b600080fd5b34801561024157600080fd5b50610255610250366004612c18565b6107e8565b60405190151581526020015b60405180910390f35b34801561027657600080fd5b5061027f61083a565b6040516102619190612c85565b34801561029857600080fd5b506102ac6102a7366004612c98565b6108cc565b6040516001600160a01b039091168152602001610261565b3480156102d057600080fd5b506102e46102df366004612cc8565b6108f3565b005b3480156102f257600080fd5b506102e4610301366004612d00565b610a00565b34801561031257600080fd5b50610325610321366004612d37565b3f90565b604051908152602001610261565b34801561033f57600080fd5b5061035361034e366004612d52565b610a76565b60408051928352602083019190915201610261565b34801561037457600080fd5b50600854610325565b34801561038957600080fd5b506102e4610398366004612d7d565b610bd5565b3480156103a957600080fd5b5061032560125481565b6102e46103c1366004612dfb565b610bf0565b3480156103d257600080fd5b506104146103e1366004612d37565b6001600160a01b0381166000908152600c6020908152604080832054933f8352600b90915290205460ff91821692911690565b604080519215158352901515602083015201610261565b34801561043757600080fd5b506102e4610446366004612e63565b610ecf565b34801561045757600080fd5b5061027f610466366004612d37565b610fb8565b34801561047757600080fd5b506102ac610486366004612c98565b610ff1565b34801561049757600080fd5b506103256104a6366004612d37565b611051565b3480156104b757600080fd5b506102e46110d7565b3480156104cc57600080fd5b5061027f6104db366004612f71565b6110eb565b3480156104ec57600080fd5b506006546001600160a01b03166102ac565b34801561050a57600080fd5b5061027f611304565b34801561051f57600080fd5b506102e461052e366004612fa6565b611313565b34801561053f57600080fd5b50600e54600f546010546011546105569392919084565b604080519485526020850193909352918301526060820152608001610261565b34801561058257600080fd5b506102e4610591366004612d00565b611339565b3480156105a257600080fd5b5061027f6105b1366004612c98565b611385565b3480156105c257600080fd5b506102e46105d1366004612fbe565b61139d565b3480156105e257600080fd5b506103256105f1366004612c98565b60009081526007602052604090206001015490565b34801561061257600080fd5b5061027f610621366004612c98565b611609565b610325610634366004613026565b611708565b6102e46106473660046130af565b611933565b34801561065857600080fd5b506102e46106673660046130f3565b611a7e565b34801561067857600080fd5b50600e54600f54601054601154610556565b34801561069657600080fd5b506102556106a536600461312f565b611b16565b3480156106b657600080fd5b506102ac6106c5366004612c98565b6000908152600760205260409020600301546001600160a01b031690565b3480156106ef57600080fd5b506102556106fe36600461312f565b6001600160a01b03918216600090815260056020908152604080832093909416825291909152205460ff1690565b34801561073857600080fd5b506102e4610747366004612d37565b611b49565b34801561075857600080fd5b5061076c610767366004612c98565b611bc2565b6040516102619190613162565b34801561078557600080fd5b506102ac610794366004612c98565b6000908152600760205260409020546001600160a01b031690565b3480156107bb57600080fd5b506102556107ca366004612d37565b6001600160a01b03166000908152600d602052604090205460ff1690565b60006001600160e01b031982166380ac58cd60e01b148061081957506001600160e01b03198216635b5e139f60e01b145b8061083457506301ffc9a760e01b6001600160e01b03198316145b92915050565b6060600080546108499061319a565b80601f01602080910402602001604051908101604052809291908181526020018280546108759061319a565b80156108c25780601f10610897576101008083540402835291602001916108c2565b820191906000526020600020905b8154815290600101906020018083116108a557829003601f168201915b5050505050905090565b60006108d782611c3e565b506000908152600460205260409020546001600160a01b031690565b336001600160a01b038316036109405760405162461bcd60e51b815260206004820152600d60248201526c14d1531197d054141493d59053609a1b60448201526064015b60405180910390fd5b600081815260076020908152604091829020825160808101845281546001600160a01b03908116825260018301549382019390935260028201549381019390935260030154166060820181905263e41759683361099c85610ff1565b8686866040518663ffffffff1660e01b81526004016109bf9594939291906131ce565b600060405180830381600087803b1580156109d957600080fd5b505af11580156109ed573d6000803e3d6000fd5b505050506109fb8383611c9d565b505050565b610a08611d0b565b6001600160a01b0382166000818152600d60205260409020805460ff1916831515908117909155907f1bf5ef6ada443138fcac941f79625fe01e92ff514fee9f160bff18363199c7a033604080516001600160a01b0390921682524260208301520160405180910390a35050565b600080600080600080610a94600e54600f5460105460115490919293565b9350935093509350610aa4612be4565b6040518060800160405280868152602001858152602001848152602001838152509050600080600080600760008e815260200190815260200160002060030160009054906101000a90046001600160a01b03166001600160a01b031663db8d55f16040518163ffffffff1660e01b8152600401608060405180830381865afa158015610b34573d6000803e3d6000fd5b505050506040513d601f19601f82011682018060405250810190610b589190613249565b9350935093509350610b68612be4565b6040518060800160405280868152602001858152602001848152602001838152509050858d60ff1660048110610ba057610ba061327f565b6020020151818e60ff1660048110610bba57610bba61327f565b60200201519b509b50505050505050505050505b9250929050565b6109fb8383836040518060200160405280600081525061139d565b600085815260076020526040812060038101549091906001600160a01b03166306890cd033610c1e8a610ff1565b888a8c888b8b6040518963ffffffff1660e01b8152600401610c479897969594939291906132be565b6020604051808303816000875af1158015610c66573d6000803e3d6000fd5b505050506040513d601f19601f82011682018060405250810190610c8a919061333b565b90506000612710600e6003015488610ca2919061336a565b610cac9190613389565b9050600082610cbb838a6133ab565b610cc591906133ab565b90508084600101541015610d0e5760405162461bcd60e51b815260206004820152601060248201526f10d0539517d0d054d217d05353d5539560821b6044820152606401610937565b600184018054829003905583546001600160a01b0316610dc1576000876001600160a01b03168960405160006040518083038185875af1925050503d8060008114610d75576040519150601f19603f3d011682016040523d82523d6000602084013e610d7a565b606091505b5050905080610dbb5760405162461bcd60e51b815260206004820152600d60248201526c1514905394d197d19052531151609a1b6044820152606401610937565b50610dd7565b8354610dd7906001600160a01b0316888a611d65565b60038401546001600160a01b039081166000908152600960209081526040808320885490941683529290529081208054859290610e159084906133ab565b909155505083546001600160a01b03166000908152600a602052604081208054849290610e439084906133ab565b9091555050604051610e5890879087906133be565b604051809103902089610e683390565b604080516001600160a01b038c81168252602082018e9052918101879052606081018890524260808201529116907fcc73058e75a01c33a85f65ead2935fe75310b9cb0c7980c2d1a14854db9721539060a0015b60405180910390a4505050505050505050565b610ed7611d0b565b801515821515141580610ef057508180610eee5750805b155b610f305760405162461bcd60e51b8152602060048201526011602482015270086829c4ea8be8286868aa0a8be849ea89607b1b6044820152606401610937565b823f6000908152600b60209081526040808320805486151560ff1991821681179092556001600160a01b038816808652600c8552948390208054871515921682179055825191825292810192909252429082015233907fe82584b416ef90b398503af85e6daba1407060c9e2d2050c858719c4f1b076479060600160405180910390a3505050565b604051606082811b6bffffffffffffffffffffffff1916602083015290610834906034015b6040516020818303038152906040526110eb565b6000818152600260205260408120546001600160a01b0316806108345760405162461bcd60e51b8152602060048201526018602482015277115490cdcc8c4e881a5b9d985b1a59081d1bdad95b88125160421b6044820152606401610937565b60006001600160a01b0382166110bb5760405162461bcd60e51b815260206004820152602960248201527f4552433732313a2061646472657373207a65726f206973206e6f7420612076616044820152683634b21037bbb732b960b91b6064820152608401610937565b506001600160a01b031660009081526003602052604090205490565b6110df611d0b565b6110e96000611dc8565b565b60408051808201909152601081526f181899199a1a9b1b9c1cb0b131b232b360811b602082015281516060919060009061112690600261336a565b6111319060026133ab565b67ffffffffffffffff81111561114957611149612eac565b6040519080825280601f01601f191660200182016040528015611173576020820181803683370190505b509050600360fc1b8160008151811061118e5761118e61327f565b60200101906001600160f81b031916908160001a905350600f60fb1b816001815181106111bd576111bd61327f565b60200101906001600160f81b031916908160001a90535060005b84518110156112fc578260048683815181106111f5576111f561327f565b016020015182516001600160f81b031990911690911c60f81c90811061121d5761121d61327f565b01602001516001600160f81b0319168261123883600261336a565b6112439060026133ab565b815181106112535761125361327f565b60200101906001600160f81b031916908160001a9053508285828151811061127d5761127d61327f565b602091010151815160f89190911c600f1690811061129d5761129d61327f565b01602001516001600160f81b031916826112b883600261336a565b6112c39060036133ab565b815181106112d3576112d361327f565b60200101906001600160f81b031916908160001a905350806112f4816133ce565b9150506111d7565b509392505050565b6060600180546108499061319a565b61131b611d0b565b8035600e556020810135600f55604081013560105560600135601155565b60405162461bcd60e51b815260206004820152601760248201527f4f50455241544f52535f4e4f545f535550504f525445440000000000000000006044820152606401610937565b5050565b606061083482604051602001610fdd91815260200190565b60006113a883610ff1565b60008481526007602052604081206003810154929350916001600160a01b031663c0c9572c336113d7886108cc565b868b8b8b8960000160009054906101000a90046001600160a01b03168a600101548b600201548e6040518b63ffffffff1660e01b81526004016114239a999897969594939291906133e7565b6020604051808303816000875af1158015611442573d6000803e3d6000fd5b505050506040513d601f19601f82011682018060405250810190611466919061333b565b600183015490915015611582576000612710600e60010154846001015461148d919061336a565b6114979190613389565b9050818184600101546114aa919061345c565b6114b4919061345c565b600184015560038301546001600160a01b0390811660009081526009602090815260408083208754909416835292905290812080548492906114f79084906133ab565b909155505082546001600160a01b03166000908152600a6020526040812080548392906115259084906133ab565b90915550506040805182815260208101849052428183015290516001600160a01b03898116929087169189917f86426a27b67faa69ebf65a2efa816f2db865f93526c68a0be0175c4471275850919081900360600190a4506115e5565b856001600160a01b0316836001600160a01b0316867f86426a27b67faa69ebf65a2efa816f2db865f93526c68a0be0175c4471275850600080426040516115dc939291909283526020830191909152604082015260600190565b60405180910390a45b61160087878760405180602001604052806000815250611e1a565b50505050505050565b606061161482611c3e565b6000828152600760205260408082206003015490516327f0bf0d60e11b8152600481018590526001600160a01b0390911690634fe17e1a90602401600060405180830381865afa15801561166c573d6000803e3d6000fd5b505050506040513d6000823e601f3d908101601f19168201604052611694919081019061346f565b600084815260076020526040902054909150611701906116bc906001600160a01b0316610fb8565b6000858152600760205260409020600101546116d790611e53565b6000868152600760205260409020600301546116fb906001600160a01b0316610fb8565b8461200d565b9392505050565b60006117148489611b16565b6117525760405162461bcd60e51b815260206004820152600f60248201526e1393d517d5d2125511531254d51151608a1b6044820152606401610937565b600854604051635aeb80dd60e11b81526000916001600160a01b0387169163b5d701ba916117909133918b918f908f908f908d908d906004016134e6565b6020604051808303816000875af11580156117af573d6000803e3d6000fd5b505050506040513d601f19601f820116820180604052508101906117d3919061333b565b905060006117eb89898c8a600e60000154878c612067565b90506117f98760085461228b565b8960076000600854815260200190815260200160002060000160006101000a8154816001600160a01b0302191690836001600160a01b03160217905550886007600060085481526020019081526020016000206001018190555042600760006008548152602001908152602001600020600201819055508560076000600854815260200190815260200160002060030160006101000a8154816001600160a01b0302191690836001600160a01b03160217905550856001600160a01b0316876001600160a01b03166118c83390565b6001600160a01b03167ff401668e35bcbb5df9af7fce75aa772196867bda49684a81eac2b47f2161665c6008548c8f8f42898b8f8f6040516119129998979695949392919061353a565b60405180910390a45050600880546001810190915598975050505050505050565b60008581526007602052604081209061194b87610ff1565b60038301549091506000906001600160a01b031663be2f3fdd33848a8a8d898c8c6040518963ffffffff1660e01b815260040161198f989796959493929190613591565b6020604051808303816000875af11580156119ae573d6000803e3d6000fd5b505050506040513d601f19601f820116820180604052508101906119d2919061333b565b600184015484546010546003870154939450600093611a0493928b926001600160a01b03918216928992899116612067565b90508585604051611a169291906133be565b604051809103902089611a263390565b604080518c8152602081018c9052908101859052606081018690524260808201526001600160a01b0391909116907fadbe4af352c54f09ed95f837f2c7d17bac02ffad06d885343c616d3cbcbccf189060a001610ebc565b3360009081526009602090815260408083206001600160a01b0387168452909152902054821115611adf5760405162461bcd60e51b815260206004820152600b60248201526a494e5355465f46554e445360a81b6044820152606401610937565b3360009081526009602090815260408083206001600160a01b0387168085529252909120805484900390556109fb903083856122a5565b6000611b21836122dd565b80156117015750506001600160a01b03166000908152600d602052604090205460ff16919050565b611b51611d0b565b6001600160a01b038116611bb65760405162461bcd60e51b815260206004820152602660248201527f4f776e61626c653a206e6577206f776e657220697320746865207a65726f206160448201526564647265737360d01b6064820152608401610937565b611bbf81611dc8565b50565b604080516080810182526000808252602082018190529181018290526060810191909152611bef82611c3e565b50600090815260076020908152604091829020825160808101845281546001600160a01b0390811682526001830154938201939093526002820154938101939093526003015416606082015290565b6000818152600260205260409020546001600160a01b0316611bbf5760405162461bcd60e51b8152602060048201526018602482015277115490cdcc8c4e881a5b9d985b1a59081d1bdad95b88125160421b6044820152606401610937565b600081815260046020526040902080546001600160a01b0319166001600160a01b0384169081179091558190611cd282610ff1565b6001600160a01b03167f8c5be1e5ebec7d5bd14f71427d1e84f3dd0314c0f7b2291e5b200ac8c7c3b92560405160405180910390a45050565b6006546001600160a01b031633146110e95760405162461bcd60e51b815260206004820181905260248201527f4f776e61626c653a2063616c6c6572206973206e6f7420746865206f776e65726044820152606401610937565b6040516001600160a01b0383166024820152604481018290526109fb90849063a9059cbb60e01b906064015b60408051601f198184030181529190526020810180516001600160e01b03166001600160e01b031990931692909217909152612316565b600680546001600160a01b038381166001600160a01b0319831681179093556040519116919082907f8be0079c531659141344cd1fd0a4f28419497f9722a3daafe3b4186f6b6457e090600090a35050565b611e258484846123e8565b611e31848484846124ef565b611e4d5760405162461bcd60e51b8152600401610937906135ee565b50505050565b606081600003611e7a5750506040805180820190915260018152600360fc1b602082015290565b6000611e966d04ee2d6d415b85acef8100000000845b066125ed565b90506d04ee2d6d415b85acef81000000008304925082600003611ed5576040805160208101839052016040516020818303038152906040529150611f74565b6000611eef6d04ee2d6d415b85acef810000000085611e90565b90506d04ee2d6d415b85acef81000000008404935083600003611f395760408051602081018390529081018390526060016040516020818303038152906040529250809150611f72565b6000611f44856125ed565b6040805160208101839052808201859052606080820196909652815180820390960186526080019052929350505b505b6000608082901c6f3030303030303030303030303030303003611f9c5760809190911b906010015b60c082901c67303030303030303003611fba5760409190911b906008015b60e082901c633030303003611fd45760209190911b906004015b60f082901c61303003611fec5760109190911b906002015b60f882901c603003611ffc576001015b82518190039201918252505b919050565b606061203d85858585604051602001612029949392919061365c565b604051602081830303815290604052612806565b60405160200161204d91906137c0565b60405160208183030381529060405290505b949350505050565b600080612074888a6133ab565b9050801561227f57612710612089868361336a565b6120939190613389565b91506000846120a2848c6133ab565b6120ac91906133ab565b90508015612117576001600160a01b038816612102578034146120fd5760405162461bcd60e51b8152602060048201526009602482015268125394d55197d5905360ba1b6044820152606401610937565b612117565b6121176001600160a01b0389163330846122a5565b8815612214576001600160a01b0388166121ff578834146121665760405162461bcd60e51b8152602060048201526009602482015268125394d55197d5905360ba1b6044820152606401610937565b6000876001600160a01b03163460405160006040518083038185875af1925050503d80600081146121b3576040519150601f19603f3d011682016040523d82523d6000602084013e6121b8565b606091505b50509050806121f95760405162461bcd60e51b815260206004820152600d60248201526c1514905394d197d19052531151609a1b6044820152606401610937565b50612214565b6122146001600160a01b03891633898c6122a5565b6001600160a01b0388166000908152600a60205260408120805485929061223c9084906133ab565b90915550506001600160a01b038085166000908152600960209081526040808320938c16835292905290812080548792906122789084906133ab565b9091555050505b50979650505050505050565b611381828260405180602001604052806000815250612959565b6040516001600160a01b0380851660248301528316604482015260648101829052611e4d9085906323b872dd60e01b90608401611d91565b6001600160a01b0381166000908152600c602052604081205460ff16806108345750503f6000908152600b602052604090205460ff1690565b600061236b826040518060400160405280602081526020017f5361666545524332303a206c6f772d6c6576656c2063616c6c206661696c6564815250856001600160a01b031661298c9092919063ffffffff16565b8051909150156109fb57808060200190518101906123899190613805565b6109fb5760405162461bcd60e51b815260206004820152602a60248201527f5361666545524332303a204552433230206f7065726174696f6e20646964206e6044820152691bdd081cdd58d8d9595960b21b6064820152608401610937565b826001600160a01b03166123fb82610ff1565b6001600160a01b03161461245f5760405162461bcd60e51b815260206004820152602560248201527f4552433732313a207472616e736665722066726f6d20696e636f72726563742060448201526437bbb732b960d91b6064820152608401610937565b600081815260046020908152604080832080546001600160a01b03199081169091556001600160a01b0387811680865260038552838620805460001901905590871680865283862080546001019055868652600290945282852080549092168417909155905184937fddf252ad1be2c89b69c2b068fc378daa952ba7f163c4a11628f55a4df523b3ef91a4505050565b60006001600160a01b0384163b156125e557604051630a85bd0160e11b81526001600160a01b0385169063150b7a0290612533903390899088908890600401613822565b6020604051808303816000875af192505050801561256e575060408051601f3d908101601f1916820190925261256b9181019061385f565b60015b6125cb573d80801561259c576040519150601f19603f3d011682016040523d82523d6000602084013e6125a1565b606091505b5080516000036125c35760405162461bcd60e51b8152600401610937906135ee565b805181602001fd5b6001600160e01b031916630a85bd0160e11b14905061205f565b50600161205f565b60006d04ee2d6d415b85acef8100000000821061260957600080fd5b507f3030303030303030303030303030303030303030303030303030303030303030600a820601600a820491506008600a8306901b01600a820491506010600a8306901b01600a820491506018600a8306901b01600a820491506020600a8306901b01600a820491506028600a8306901b01600a820491506030600a8306901b01600a820491506038600a8306901b01600a820491506040600a8306901b01600a820491506048600a8306901b01600a820491506050600a8306901b01600a820491506058600a8306901b01600a820491506060600a8306901b01600a820491506068600a8306901b01600a820491506070600a8306901b01600a820491506078600a8306901b01600a820491506080600a8306901b01600a820491506088600a8306901b01600a820491506090600a8306901b01600a820491506098600a8306901b01600a8204915060a0600a8306901b01600a8204915060a8600a8306901b01600a8204915060b0600a8306901b01600a8204915060b8600a8306901b01600a8204915060c0600a8306901b01600a8204915060c8600a8306901b01600a8204915060d0600a8306901b01600a8204915060d8600a8306901b01600a8204915060e0600a8306901b01600a8204915060e8600a8306901b01600a8204915060f0600a8306901b01600a8204915060f8600a8306901b01919050565b6060815160000361282557505060408051602081019091526000815290565b6000604051806060016040528060408152602001613899604091399050600060038451600261285491906133ab565b61285e9190613389565b61286990600461336a565b67ffffffffffffffff81111561288157612881612eac565b6040519080825280601f01601f1916602001820160405280156128ab576020820181803683370190505b509050600182016020820185865187015b80821015612917576003820191508151603f8160121c168501518453600184019350603f81600c1c168501518453600184019350603f8160061c168501518453600184019350603f81168501518453506001830192506128bc565b505060038651066001811461293357600281146129465761294e565b603d6001830353603d600283035361294e565b603d60018303535b509195945050505050565b612963838361299b565b61297060008484846124ef565b6109fb5760405162461bcd60e51b8152600401610937906135ee565b606061205f8484600085612a6b565b6000818152600260205260409020546001600160a01b031615612a005760405162461bcd60e51b815260206004820152601c60248201527f4552433732313a20746f6b656e20616c7265616479206d696e746564000000006044820152606401610937565b6001600160a01b038216600081815260036020908152604080832080546001019055848352600290915280822080546001600160a01b0319168417905551839291907fddf252ad1be2c89b69c2b068fc378daa952ba7f163c4a11628f55a4df523b3ef908290a45050565b606082471015612acc5760405162461bcd60e51b815260206004820152602660248201527f416464726573733a20696e73756666696369656e742062616c616e636520666f6044820152651c8818d85b1b60d21b6064820152608401610937565b600080866001600160a01b03168587604051612ae8919061387c565b60006040518083038185875af1925050503d8060008114612b25576040519150601f19603f3d011682016040523d82523d6000602084013e612b2a565b606091505b5091509150612b3b87838387612b46565b979650505050505050565b60608315612bb5578251600003612bae576001600160a01b0385163b612bae5760405162461bcd60e51b815260206004820152601d60248201527f416464726573733a2063616c6c20746f206e6f6e2d636f6e74726163740000006044820152606401610937565b508161205f565b61205f8383815115612bca5781518083602001fd5b8060405162461bcd60e51b81526004016109379190612c85565b60405180608001604052806004906020820280368337509192915050565b6001600160e01b031981168114611bbf57600080fd5b600060208284031215612c2a57600080fd5b813561170181612c02565b60005b83811015612c50578181015183820152602001612c38565b50506000910152565b60008151808452612c71816020860160208601612c35565b601f01601f19169290920160200192915050565b6020815260006117016020830184612c59565b600060208284031215612caa57600080fd5b5035919050565b80356001600160a01b038116811461200857600080fd5b60008060408385031215612cdb57600080fd5b612ce483612cb1565b946020939093013593505050565b8015158114611bbf57600080fd5b60008060408385031215612d1357600080fd5b612d1c83612cb1565b91506020830135612d2c81612cf2565b809150509250929050565b600060208284031215612d4957600080fd5b61170182612cb1565b60008060408385031215612d6557600080fd5b82359150602083013560ff81168114612d2c57600080fd5b600080600060608486031215612d9257600080fd5b612d9b84612cb1565b9250612da960208501612cb1565b9150604084013590509250925092565b60008083601f840112612dcb57600080fd5b50813567ffffffffffffffff811115612de357600080fd5b602083019150836020828501011115610bce57600080fd5b600080600080600060808688031215612e1357600080fd5b8535945060208601359350612e2a60408701612cb1565b9250606086013567ffffffffffffffff811115612e4657600080fd5b612e5288828901612db9565b969995985093965092949392505050565b600080600060608486031215612e7857600080fd5b612e8184612cb1565b92506020840135612e9181612cf2565b91506040840135612ea181612cf2565b809150509250925092565b634e487b7160e01b600052604160045260246000fd5b604051601f8201601f1916810167ffffffffffffffff81118282101715612eeb57612eeb612eac565b604052919050565b600067ffffffffffffffff821115612f0d57612f0d612eac565b50601f01601f191660200190565b600082601f830112612f2c57600080fd5b8135612f3f612f3a82612ef3565b612ec2565b818152846020838601011115612f5457600080fd5b816020850160208301376000918101602001919091529392505050565b600060208284031215612f8357600080fd5b813567ffffffffffffffff811115612f9a57600080fd5b61205f84828501612f1b565b600060808284031215612fb857600080fd5b50919050565b60008060008060808587031215612fd457600080fd5b612fdd85612cb1565b9350612feb60208601612cb1565b925060408501359150606085013567ffffffffffffffff81111561300e57600080fd5b61301a87828801612f1b565b91505092959194509250565b600080600080600080600060c0888a03121561304157600080fd5b61304a88612cb1565b9650602088013595506040880135945061306660608901612cb1565b935061307460808901612cb1565b925060a088013567ffffffffffffffff81111561309057600080fd5b61309c8a828b01612db9565b989b979a50959850939692959293505050565b6000806000806000608086880312156130c757600080fd5b853594506020860135935060408601359250606086013567ffffffffffffffff811115612e4657600080fd5b60008060006060848603121561310857600080fd5b61311184612cb1565b92506020840135915061312660408501612cb1565b90509250925092565b6000806040838503121561314257600080fd5b61314b83612cb1565b915061315960208401612cb1565b90509250929050565b60808101610834828480516001600160a01b039081168352602080830151908401526040808301519084015260609182015116910152565b600181811c908216806131ae57607f821691505b602082108103612fb857634e487b7160e01b600052602260045260246000fd5b6001600160a01b03868116825285811660208301528416604082015260608101839052600061012061322d608084018580516001600160a01b039081168352602080830151908401526040808301519084015260609182015116910152565b6101008301819052600090830152506101400195945050505050565b6000806000806080858703121561325f57600080fd5b505082516020840151604085015160609095015191969095509092509050565b634e487b7160e01b600052603260045260246000fd5b81835281816020850137506000828201602090810191909152601f909101601f19169091010190565b6001600160a01b0389811682528881166020830152878116604083015260608201879052608082018690528454811660a0830152600185015460c0830152600285015460e083015260038501541661010082015260006101405b8061012084015261332c8184018587613295565b9b9a5050505050505050505050565b60006020828403121561334d57600080fd5b5051919050565b634e487b7160e01b600052601160045260246000fd5b600081600019048311821515161561338457613384613354565b500290565b6000826133a657634e487b7160e01b600052601260045260246000fd5b500490565b8082018082111561083457610834613354565b8183823760009101908152919050565b6000600182016133e0576133e0613354565b5060010190565b6001600160a01b038b811682528a8116602083015289811660408301528881166060830152878116608083015260a08201879052851660c082015260e081018490526101008101839052610140610120820181905260009061344b83820185612c59565b9d9c50505050505050505050505050565b8181038181111561083457610834613354565b60006020828403121561348157600080fd5b815167ffffffffffffffff81111561349857600080fd5b8201601f810184136134a957600080fd5b80516134b7612f3a82612ef3565b8181528560208385010111156134cc57600080fd5b6134dd826020830160208601612c35565b95945050505050565b600060018060a01b03808b168352808a1660208401528860408401528088166060840152508560808301528460a083015260e060c083015261352c60e083018486613295565b9a9950505050505050505050565b60006101008b83528a602084015260018060a01b038a1660408401528860608401528760808401528660a08401528560c08401528060e08401526135818184018587613295565b9c9b505050505050505050505050565b6001600160a01b03898116825288811660208301526040820188905260608201879052608082018690528454811660a0830152600185015460c0830152600285015460e08301526003850154166101008201526000610140613318565b60208082526032908201527f4552433732313a207472616e7366657220746f206e6f6e20455243373231526560408201527131b2b4bb32b91034b6b83632b6b2b73a32b960711b606082015260800190565b60008151613652818560208601612c35565b9290920192915050565b6d3d9130ba3a3934b13aba32b9911d60911b8152605b60f81b600e8201527f7b2274726169745f74797065223a202243757272656e6379222c000000000000600f82015267113b30b63ab2911d60c11b602982015284516000906136c7816031850160208a01612c35565b607d60f81b603182850101527f2c7b2274726169745f74797065223a2022457363726f776564222c0000000000603282850101527f22646973706c61795f74797065223a20226e756d626572222c00000000000000604d828501015267113b30b63ab2911d60c11b60668285010152612b3b61375d6137ba6137ad61375d6137a761379361376a61375d606e8a8d01018f613640565b607d60f81b815260010190565b7f2c7b2274726169745f74797065223a20224d6f64756c65222c00000000000000815260190190565b67113b30b63ab2911d60c11b815260080190565b8a613640565b605d60f81b815260010190565b86613640565b7f646174613a6170706c69636174696f6e2f6a736f6e3b6261736536342c0000008152600082516137f881601d850160208701612c35565b91909101601d0192915050565b60006020828403121561381757600080fd5b815161170181612cf2565b6001600160a01b038581168252841660208201526040810183905260806060820181905260009061385590830184612c59565b9695505050505050565b60006020828403121561387157600080fd5b815161170181612c02565b6000825161388e818460208701612c35565b919091019291505056fe4142434445464748494a4b4c4d4e4f505152535455565758595a6162636465666768696a6b6c6d6e6f707172737475767778797a303132333435363738392b2fa26469706673582212206e2777c62e5d4822a59b66972a08b22526a5f38c2ce2fe141382331626f2f3d564736f6c63430008100033",
    "linkReferences": {}
  },
  "methodIdentifiers": {
    "_returnCodeHash(address)": "107e2f3b",
    "_writeFlatFee()": "4c806539",
    "approve(address,uint256)": "095ea7b3",
    "balanceOf(address)": "70a08231",
    "cash(uint256,uint256,address,bytes)": "4e289c06",
    "cheqCurrency(uint256)": "fdd90c70",
    "cheqEscrowed(uint256)": "c298c4d2",
    "cheqInfo(uint256)": "f7794942",
    "cheqModule(uint256)": "e0e295b7",
    "fees()": "9af1d35a",
    "fund(uint256,uint256,uint256,bytes)": "d6122058",
    "getApproved(uint256)": "081812fc",
    "getFees()": "db8d55f1",
    "getTotalFees(uint256,uint8)": "1536beeb",
    "isApprovedForAll(address,address)": "e985e9c5",
    "moduleWhitelisted(address)": "52f37f56",
    "moduleWithdraw(address,uint256,address)": "d6a4f84c",
    "name()": "06fdde03",
    "owner()": "8da5cb5b",
    "ownerOf(uint256)": "6352211e",
    "renounceOwnership()": "715018a6",
    "safeTransferFrom(address,address,uint256)": "42842e0e",
    "safeTransferFrom(address,address,uint256,bytes)": "b88d4fde",
    "setApprovalForAll(address,bool)": "a22cb465",
    "supportsInterface(bytes4)": "01ffc9a7",
    "symbol()": "95d89b41",
    "toString(address)": "56ca623e",
    "toString(bytes)": "71aad10d",
    "toString(bytes32)": "b11a19e8",
    "tokenURI(uint256)": "c87b56dd",
    "tokenWhitelisted(address)": "ff8507e8",
    "totalSupply()": "18160ddd",
    "transferFrom(address,address,uint256)": "23b872dd",
    "transferOwnership(address)": "f2fde38b",
    "updateFees((uint256,uint256,uint256,uint256))": "98a9c92b",
    "validWrite(address,address)": "dfd5d811",
    "whitelistModule(address,bool,bool)": "53aafb69",
    "whitelistToken(address,bool)": "0ffb1d8b",
    "write(address,uint256,uint256,address,address,bytes)": "d0d0bb3f"
  },
  "id": 34
}