{
  "abi": [
    {
      "inputs": [
        {
          "components": [
            {
              "internalType": "uint256",
              "name": "writeBPS",
              "type": "uint256"
            },
            {
              "internalType": "uint256",
              "name": "transferBPS",
              "type": "uint256"
            },
            {
              "internalType": "uint256",
              "name": "fundBPS",
              "type": "uint256"
            },
            {
              "internalType": "uint256",
              "name": "cashBPS",
              "type": "uint256"
            }
          ],
          "internalType": "struct DataTypes.WTFCFees",
          "name": "_fees",
          "type": "tuple"
        }
      ],
      "stateMutability": "nonpayable",
      "type": "constructor"
    },
    {
      "anonymous": false,
      "inputs": [
        {
          "indexed": true,
          "internalType": "address",
          "name": "owner",
          "type": "address"
        },
        {
          "indexed": true,
          "internalType": "address",
          "name": "approved",
          "type": "address"
        },
        {
          "indexed": true,
          "internalType": "uint256",
          "name": "tokenId",
          "type": "uint256"
        }
      ],
      "name": "Approval",
      "type": "event"
    },
    {
      "anonymous": false,
      "inputs": [
        {
          "indexed": true,
          "internalType": "address",
          "name": "owner",
          "type": "address"
        },
        {
          "indexed": true,
          "internalType": "address",
          "name": "operator",
          "type": "address"
        },
        {
          "indexed": false,
          "internalType": "bool",
          "name": "approved",
          "type": "bool"
        }
      ],
      "name": "ApprovalForAll",
      "type": "event"
    },
    {
      "anonymous": false,
      "inputs": [
        {
          "indexed": true,
          "internalType": "address",
          "name": "previousOwner",
          "type": "address"
        },
        {
          "indexed": true,
          "internalType": "address",
          "name": "newOwner",
          "type": "address"
        }
      ],
      "name": "OwnershipTransferred",
      "type": "event"
    },
    {
      "anonymous": false,
      "inputs": [
        {
          "indexed": true,
          "internalType": "address",
          "name": "from",
          "type": "address"
        },
        {
          "indexed": true,
          "internalType": "address",
          "name": "to",
          "type": "address"
        },
        {
          "indexed": true,
          "internalType": "uint256",
          "name": "tokenId",
          "type": "uint256"
        }
      ],
      "name": "Transfer",
      "type": "event"
    },
    {
      "inputs": [
        {
          "internalType": "address",
          "name": "module",
          "type": "address"
        }
      ],
      "name": "_returnCodeHash",
      "outputs": [
        {
          "internalType": "bytes32",
          "name": "",
          "type": "bytes32"
        }
      ],
      "stateMutability": "view",
      "type": "function"
    },
    {
      "inputs": [],
      "name": "_writeFlatFee",
      "outputs": [
        {
          "internalType": "uint256",
          "name": "",
          "type": "uint256"
        }
      ],
      "stateMutability": "view",
      "type": "function"
    },
    {
      "inputs": [
        {
          "internalType": "address",
          "name": "to",
          "type": "address"
        },
        {
          "internalType": "uint256",
          "name": "tokenId",
          "type": "uint256"
        }
      ],
      "name": "approve",
      "outputs": [],
      "stateMutability": "nonpayable",
      "type": "function"
    },
    {
      "inputs": [
        {
          "internalType": "address",
          "name": "owner",
          "type": "address"
        }
      ],
      "name": "balanceOf",
      "outputs": [
        {
          "internalType": "uint256",
          "name": "",
          "type": "uint256"
        }
      ],
      "stateMutability": "view",
      "type": "function"
    },
    {
      "inputs": [
        {
          "internalType": "uint256",
          "name": "cheqId",
          "type": "uint256"
        },
        {
          "internalType": "uint256",
          "name": "amount",
          "type": "uint256"
        },
        {
          "internalType": "address",
          "name": "to",
          "type": "address"
        },
        {
          "internalType": "bytes",
          "name": "cashData",
          "type": "bytes"
        }
      ],
      "name": "cash",
      "outputs": [],
      "stateMutability": "payable",
      "type": "function"
    },
    {
      "inputs": [
        {
          "internalType": "uint256",
          "name": "cheqId",
          "type": "uint256"
        }
      ],
      "name": "cheqAmount",
      "outputs": [
        {
          "internalType": "uint256",
          "name": "",
          "type": "uint256"
        }
      ],
      "stateMutability": "view",
      "type": "function"
    },
    {
      "inputs": [
        {
          "internalType": "uint256",
          "name": "cheqId",
          "type": "uint256"
        }
      ],
      "name": "cheqCurrency",
      "outputs": [
        {
          "internalType": "address",
          "name": "",
          "type": "address"
        }
      ],
      "stateMutability": "view",
      "type": "function"
    },
    {
      "inputs": [
        {
          "internalType": "uint256",
          "name": "cheqId",
          "type": "uint256"
        }
      ],
      "name": "cheqCurrencyValueEscrow",
      "outputs": [
        {
          "internalType": "address",
          "name": "",
          "type": "address"
        },
        {
          "internalType": "uint256",
          "name": "",
          "type": "uint256"
        },
        {
          "internalType": "uint256",
          "name": "",
          "type": "uint256"
        }
      ],
      "stateMutability": "view",
      "type": "function"
    },
    {
      "inputs": [
        {
          "internalType": "uint256",
          "name": "cheqId",
          "type": "uint256"
        }
      ],
      "name": "cheqDrawer",
      "outputs": [
        {
          "internalType": "address",
          "name": "",
          "type": "address"
        }
      ],
      "stateMutability": "view",
      "type": "function"
    },
    {
      "inputs": [
        {
          "internalType": "uint256",
          "name": "cheqId",
          "type": "uint256"
        }
      ],
      "name": "cheqDrawerRecipient",
      "outputs": [
        {
          "internalType": "address",
          "name": "",
          "type": "address"
        },
        {
          "internalType": "address",
          "name": "",
          "type": "address"
        }
      ],
      "stateMutability": "view",
      "type": "function"
    },
    {
      "inputs": [
        {
          "internalType": "uint256",
          "name": "cheqId",
          "type": "uint256"
        }
      ],
      "name": "cheqEscrowed",
      "outputs": [
        {
          "internalType": "uint256",
          "name": "",
          "type": "uint256"
        }
      ],
      "stateMutability": "view",
      "type": "function"
    },
    {
      "inputs": [
        {
          "internalType": "uint256",
          "name": "cheqId",
          "type": "uint256"
        }
      ],
      "name": "cheqInfo",
      "outputs": [
        {
          "components": [
            {
              "internalType": "address",
              "name": "currency",
              "type": "address"
            },
            {
              "internalType": "uint256",
              "name": "amount",
              "type": "uint256"
            },
            {
              "internalType": "uint256",
              "name": "escrowed",
              "type": "uint256"
            },
            {
              "internalType": "address",
              "name": "drawer",
              "type": "address"
            },
            {
              "internalType": "address",
              "name": "recipient",
              "type": "address"
            },
            {
              "internalType": "address",
              "name": "module",
              "type": "address"
            },
            {
              "internalType": "uint256",
              "name": "mintTimestamp",
              "type": "uint256"
            }
          ],
          "internalType": "struct DataTypes.Cheq",
          "name": "",
          "type": "tuple"
        }
      ],
      "stateMutability": "view",
      "type": "function"
    },
    {
      "inputs": [
        {
          "internalType": "uint256",
          "name": "cheqId",
          "type": "uint256"
        }
      ],
      "name": "cheqModule",
      "outputs": [
        {
          "internalType": "address",
          "name": "",
          "type": "address"
        }
      ],
      "stateMutability": "view",
      "type": "function"
    },
    {
      "inputs": [
        {
          "internalType": "uint256",
          "name": "cheqId",
          "type": "uint256"
        }
      ],
      "name": "cheqRecipient",
      "outputs": [
        {
          "internalType": "address",
          "name": "",
          "type": "address"
        }
      ],
      "stateMutability": "view",
      "type": "function"
    },
    {
      "inputs": [],
      "name": "fees",
      "outputs": [
        {
          "internalType": "uint256",
          "name": "writeBPS",
          "type": "uint256"
        },
        {
          "internalType": "uint256",
          "name": "transferBPS",
          "type": "uint256"
        },
        {
          "internalType": "uint256",
          "name": "fundBPS",
          "type": "uint256"
        },
        {
          "internalType": "uint256",
          "name": "cashBPS",
          "type": "uint256"
        }
      ],
      "stateMutability": "view",
      "type": "function"
    },
    {
      "inputs": [
        {
          "internalType": "uint256",
          "name": "cheqId",
          "type": "uint256"
        },
        {
          "internalType": "uint256",
          "name": "amount",
          "type": "uint256"
        },
        {
          "internalType": "uint256",
          "name": "directAmount",
          "type": "uint256"
        },
        {
          "internalType": "bytes",
          "name": "fundData",
          "type": "bytes"
        }
      ],
      "name": "fund",
      "outputs": [],
      "stateMutability": "payable",
      "type": "function"
    },
    {
      "inputs": [
        {
          "internalType": "uint256",
          "name": "tokenId",
          "type": "uint256"
        }
      ],
      "name": "getApproved",
      "outputs": [
        {
          "internalType": "address",
          "name": "",
          "type": "address"
        }
      ],
      "stateMutability": "view",
      "type": "function"
    },
    {
      "inputs": [],
      "name": "getFees",
      "outputs": [
        {
          "internalType": "uint256",
          "name": "",
          "type": "uint256"
        },
        {
          "internalType": "uint256",
          "name": "",
          "type": "uint256"
        },
        {
          "internalType": "uint256",
          "name": "",
          "type": "uint256"
        },
        {
          "internalType": "uint256",
          "name": "",
          "type": "uint256"
        }
      ],
      "stateMutability": "view",
      "type": "function"
    },
    {
      "inputs": [
        {
          "internalType": "uint256",
          "name": "cheqId",
          "type": "uint256"
        },
        {
          "internalType": "uint8",
          "name": "_WTFC",
          "type": "uint8"
        }
      ],
      "name": "getTotalFees",
      "outputs": [
        {
          "internalType": "uint256",
          "name": "",
          "type": "uint256"
        },
        {
          "internalType": "uint256",
          "name": "",
          "type": "uint256"
        }
      ],
      "stateMutability": "view",
      "type": "function"
    },
    {
      "inputs": [
        {
          "internalType": "address",
          "name": "owner",
          "type": "address"
        },
        {
          "internalType": "address",
          "name": "operator",
          "type": "address"
        }
      ],
      "name": "isApprovedForAll",
      "outputs": [
        {
          "internalType": "bool",
          "name": "",
          "type": "bool"
        }
      ],
      "stateMutability": "view",
      "type": "function"
    },
    {
      "inputs": [
        {
          "internalType": "address",
          "name": "module",
          "type": "address"
        }
      ],
      "name": "moduleWhitelisted",
      "outputs": [
        {
          "internalType": "bool",
          "name": "",
          "type": "bool"
        },
        {
          "internalType": "bool",
          "name": "",
          "type": "bool"
        }
      ],
      "stateMutability": "view",
      "type": "function"
    },
    {
      "inputs": [
        {
          "internalType": "address",
          "name": "token",
          "type": "address"
        },
        {
          "internalType": "uint256",
          "name": "amount",
          "type": "uint256"
        },
        {
          "internalType": "address",
          "name": "to",
          "type": "address"
        }
      ],
      "name": "moduleWithdraw",
      "outputs": [],
      "stateMutability": "nonpayable",
      "type": "function"
    },
    {
      "inputs": [],
      "name": "name",
      "outputs": [
        {
          "internalType": "string",
          "name": "",
          "type": "string"
        }
      ],
      "stateMutability": "view",
      "type": "function"
    },
    {
      "inputs": [],
      "name": "owner",
      "outputs": [
        {
          "internalType": "address",
          "name": "",
          "type": "address"
        }
      ],
      "stateMutability": "view",
      "type": "function"
    },
    {
      "inputs": [
        {
          "internalType": "uint256",
          "name": "tokenId",
          "type": "uint256"
        }
      ],
      "name": "ownerOf",
      "outputs": [
        {
          "internalType": "address",
          "name": "",
          "type": "address"
        }
      ],
      "stateMutability": "view",
      "type": "function"
    },
    {
      "inputs": [],
      "name": "renounceOwnership",
      "outputs": [],
      "stateMutability": "nonpayable",
      "type": "function"
    },
    {
      "inputs": [
        {
          "internalType": "address",
          "name": "rule",
          "type": "address"
        }
      ],
      "name": "ruleWhitelisted",
      "outputs": [
        {
          "internalType": "bool",
          "name": "",
          "type": "bool"
        }
      ],
      "stateMutability": "view",
      "type": "function"
    },
    {
      "inputs": [
        {
          "internalType": "address",
          "name": "writeRule",
          "type": "address"
        },
        {
          "internalType": "address",
          "name": "transferRule",
          "type": "address"
        },
        {
          "internalType": "address",
          "name": "fundRule",
          "type": "address"
        },
        {
          "internalType": "address",
          "name": "cashRule",
          "type": "address"
        },
        {
          "internalType": "address",
          "name": "approveRule",
          "type": "address"
        }
      ],
      "name": "rulesWhitelisted",
      "outputs": [
        {
          "internalType": "bool",
          "name": "",
          "type": "bool"
        }
      ],
      "stateMutability": "view",
      "type": "function"
    },
    {
      "inputs": [
        {
          "internalType": "address",
          "name": "from",
          "type": "address"
        },
        {
          "internalType": "address",
          "name": "to",
          "type": "address"
        },
        {
          "internalType": "uint256",
          "name": "tokenId",
          "type": "uint256"
        }
      ],
      "name": "safeTransferFrom",
      "outputs": [],
      "stateMutability": "nonpayable",
      "type": "function"
    },
    {
      "inputs": [
        {
          "internalType": "address",
          "name": "from",
          "type": "address"
        },
        {
          "internalType": "address",
          "name": "to",
          "type": "address"
        },
        {
          "internalType": "uint256",
          "name": "tokenId",
          "type": "uint256"
        },
        {
          "internalType": "bytes",
          "name": "moduleTransferData",
          "type": "bytes"
        }
      ],
      "name": "safeTransferFrom",
      "outputs": [],
      "stateMutability": "nonpayable",
      "type": "function"
    },
    {
      "inputs": [
        {
          "internalType": "address",
          "name": "",
          "type": "address"
        },
        {
          "internalType": "bool",
          "name": "",
          "type": "bool"
        }
      ],
      "name": "setApprovalForAll",
      "outputs": [],
      "stateMutability": "pure",
      "type": "function"
    },
    {
      "inputs": [
        {
          "internalType": "bytes4",
          "name": "interfaceId",
          "type": "bytes4"
        }
      ],
      "name": "supportsInterface",
      "outputs": [
        {
          "internalType": "bool",
          "name": "",
          "type": "bool"
        }
      ],
      "stateMutability": "view",
      "type": "function"
    },
    {
      "inputs": [],
      "name": "symbol",
      "outputs": [
        {
          "internalType": "string",
          "name": "",
          "type": "string"
        }
      ],
      "stateMutability": "view",
      "type": "function"
    },
    {
      "inputs": [
        {
          "internalType": "uint256",
          "name": "_tokenId",
          "type": "uint256"
        }
      ],
      "name": "tokenURI",
      "outputs": [
        {
          "internalType": "string",
          "name": "",
          "type": "string"
        }
      ],
      "stateMutability": "view",
      "type": "function"
    },
    {
      "inputs": [
        {
          "internalType": "address",
          "name": "token",
          "type": "address"
        }
      ],
      "name": "tokenWhitelisted",
      "outputs": [
        {
          "internalType": "bool",
          "name": "",
          "type": "bool"
        }
      ],
      "stateMutability": "view",
      "type": "function"
    },
    {
      "inputs": [],
      "name": "totalSupply",
      "outputs": [
        {
          "internalType": "uint256",
          "name": "",
          "type": "uint256"
        }
      ],
      "stateMutability": "view",
      "type": "function"
    },
    {
      "inputs": [
        {
          "internalType": "address",
          "name": "from",
          "type": "address"
        },
        {
          "internalType": "address",
          "name": "to",
          "type": "address"
        },
        {
          "internalType": "uint256",
          "name": "tokenId",
          "type": "uint256"
        }
      ],
      "name": "transferFrom",
      "outputs": [],
      "stateMutability": "nonpayable",
      "type": "function"
    },
    {
      "inputs": [
        {
          "internalType": "address",
          "name": "newOwner",
          "type": "address"
        }
      ],
      "name": "transferOwnership",
      "outputs": [],
      "stateMutability": "nonpayable",
      "type": "function"
    },
    {
      "inputs": [
        {
          "components": [
            {
              "internalType": "uint256",
              "name": "writeBPS",
              "type": "uint256"
            },
            {
              "internalType": "uint256",
              "name": "transferBPS",
              "type": "uint256"
            },
            {
              "internalType": "uint256",
              "name": "fundBPS",
              "type": "uint256"
            },
            {
              "internalType": "uint256",
              "name": "cashBPS",
              "type": "uint256"
            }
          ],
          "internalType": "struct DataTypes.WTFCFees",
          "name": "_fees",
          "type": "tuple"
        }
      ],
      "name": "updateFees",
      "outputs": [],
      "stateMutability": "nonpayable",
      "type": "function"
    },
    {
      "inputs": [
        {
          "internalType": "address",
          "name": "module",
          "type": "address"
        },
        {
          "internalType": "address",
          "name": "token",
          "type": "address"
        }
      ],
      "name": "validWrite",
      "outputs": [
        {
          "internalType": "bool",
          "name": "",
          "type": "bool"
        }
      ],
      "stateMutability": "view",
      "type": "function"
    },
    {
      "inputs": [
        {
          "internalType": "address",
          "name": "module",
          "type": "address"
        },
        {
          "internalType": "bool",
          "name": "bytecodeAccepted",
          "type": "bool"
        },
        {
          "internalType": "bool",
          "name": "addressAccepted",
          "type": "bool"
        }
      ],
      "name": "whitelistModule",
      "outputs": [],
      "stateMutability": "nonpayable",
      "type": "function"
    },
    {
      "inputs": [
        {
          "internalType": "address",
          "name": "rule",
          "type": "address"
        },
        {
          "internalType": "bool",
          "name": "accepted",
          "type": "bool"
        }
      ],
      "name": "whitelistRule",
      "outputs": [],
      "stateMutability": "nonpayable",
      "type": "function"
    },
    {
      "inputs": [
        {
          "internalType": "address",
          "name": "_token",
          "type": "address"
        },
        {
          "internalType": "bool",
          "name": "accepted",
          "type": "bool"
        }
      ],
      "name": "whitelistToken",
      "outputs": [],
      "stateMutability": "nonpayable",
      "type": "function"
    },
    {
      "inputs": [
        {
          "components": [
            {
              "internalType": "address",
              "name": "currency",
              "type": "address"
            },
            {
              "internalType": "uint256",
              "name": "amount",
              "type": "uint256"
            },
            {
              "internalType": "uint256",
              "name": "escrowed",
              "type": "uint256"
            },
            {
              "internalType": "address",
              "name": "drawer",
              "type": "address"
            },
            {
              "internalType": "address",
              "name": "recipient",
              "type": "address"
            },
            {
              "internalType": "address",
              "name": "module",
              "type": "address"
            },
            {
              "internalType": "uint256",
              "name": "mintTimestamp",
              "type": "uint256"
            }
          ],
          "internalType": "struct DataTypes.Cheq",
          "name": "cheq",
          "type": "tuple"
        },
        {
          "internalType": "address",
          "name": "owner",
          "type": "address"
        },
        {
          "internalType": "uint256",
          "name": "directAmount",
          "type": "uint256"
        },
        {
          "internalType": "bytes",
          "name": "moduleWriteData",
          "type": "bytes"
        }
      ],
      "name": "write",
      "outputs": [
        {
          "internalType": "uint256",
          "name": "",
          "type": "uint256"
        }
      ],
      "stateMutability": "payable",
      "type": "function"
    }
  ],
  "bytecode": {
    "object": "0x60806040523480156200001157600080fd5b506040516200383638038062003836833981016040819052620000349162000141565b6040518060400160405280600c81526020016b10da195c541c9bdd1bd8dbdb60a21b815250604051806040016040528060048152602001634348455160e01b815250816000908162000087919062000239565b50600162000096828262000239565b505050620000b3620000ad620000d560201b60201c565b620000d9565b8051600f55602081015160105560408101516011556060015160125562000305565b3390565b600680546001600160a01b038381166001600160a01b0319831681179093556040519116919082907f8be0079c531659141344cd1fd0a4f28419497f9722a3daafe3b4186f6b6457e090600090a35050565b634e487b7160e01b600052604160045260246000fd5b6000608082840312156200015457600080fd5b604051608081016001600160401b03811182821017156200017957620001796200012b565b8060405250825181526020830151602082015260408301516040820152606083015160608201528091505092915050565b600181811c90821680620001bf57607f821691505b602082108103620001e057634e487b7160e01b600052602260045260246000fd5b50919050565b601f8211156200023457600081815260208120601f850160051c810160208610156200020f5750805b601f850160051c820191505b8181101562000230578281556001016200021b565b5050505b505050565b81516001600160401b038111156200025557620002556200012b565b6200026d81620002668454620001aa565b84620001e6565b602080601f831160018114620002a557600084156200028c5750858301515b600019600386901b1c1916600185901b17855562000230565b600085815260208120601f198616915b82811015620002d657888601518255948401946001909101908401620002b5565b5085821015620002f55787850151600019600388901b60f8161c191681555b5050505050600190811b01905550565b61352180620003156000396000f3fe6080604052600436106102675760003560e01c806395d89b4111610144578063d6122058116100b6578063e985e9c51161007a578063e985e9c514610883578063f2fde38b146108cc578063f6adc25c146108ec578063f77949421461090c578063fdd90c7014610939578063ff8507e81461096f57600080fd5b8063d6122058146107d9578063d6a4f84c146107ec578063db8d55f11461080c578063dfd5d8111461082a578063e0e295b71461084a57600080fd5b8063b88d4fde11610108578063b88d4fde146106b8578063bae71a9a146106d8578063c298c4d2146106eb578063c4a73fe31461071b578063c87b56dd14610754578063d1d240a81461077457600080fd5b806395d89b41146105f057806398a9c92b1461060557806398e05fcf146106255780639af1d35a14610655578063a22cb4651461069857600080fd5b80633f4b612e116101dd57806353aafb69116101a157806353aafb69146105245780636352211e1461054457806370a0823114610564578063715018a614610584578063789a0496146105995780638da5cb5b146105d257600080fd5b80633f4b612e1461047657806342842e0e146103b45780634c806539146104965780634e289c06146104ac57806352f37f56146104bf57600080fd5b8063107e2f3b1161022f578063107e2f3b1461033d5780631536beeb1461036a57806318160ddd1461039f57806323b872dd146103b457806329abea5e146103d457806332c1efbb1461043d57600080fd5b806301ffc9a71461026c57806306fdde03146102a1578063081812fc146102c3578063095ea7b3146102fb5780630ffb1d8b1461031d575b600080fd5b34801561027857600080fd5b5061028c610287366004612880565b6109a8565b60405190151581526020015b60405180910390f35b3480156102ad57600080fd5b506102b66109fa565b60405161029891906128ed565b3480156102cf57600080fd5b506102e36102de366004612900565b610a8c565b6040516001600160a01b039091168152602001610298565b34801561030757600080fd5b5061031b61031636600461293e565b610ab3565b005b34801561032957600080fd5b5061031b610338366004612978565b610be6565b34801561034957600080fd5b5061035c6103583660046129b1565b3f90565b604051908152602001610298565b34801561037657600080fd5b5061038a6103853660046129ce565b610c5d565b60408051928352602083019190915201610298565b3480156103ab57600080fd5b5060085461035c565b3480156103c057600080fd5b5061031b6103cf3660046129f9565b610dbc565b3480156103e057600080fd5b506104186103ef366004612900565b6000908152600760205260409020805460018201546002909201546001600160a01b0390911692565b604080516001600160a01b039094168452602084019290925290820152606001610298565b34801561044957600080fd5b506102e3610458366004612900565b6000908152600760205260409020600301546001600160a01b031690565b34801561048257600080fd5b5061028c610491366004612a3a565b610dd7565b3480156104a257600080fd5b5061035c60135481565b61031b6104ba366004612aed565b610e8d565b3480156104cb57600080fd5b5061050d6104da3660046129b1565b6001600160a01b0381166000908152600a6020908152604080832054933f8352600990915290205460ff91821692911690565b604080519215158352901515602083015201610298565b34801561053057600080fd5b5061031b61053f366004612b57565b6110df565b34801561055057600080fd5b506102e361055f366004612900565b6111c8565b34801561057057600080fd5b5061035c61057f3660046129b1565b611228565b34801561059057600080fd5b5061031b6112ae565b3480156105a557600080fd5b506102e36105b4366004612900565b6000908152600760205260409020600401546001600160a01b031690565b3480156105de57600080fd5b506006546001600160a01b03166102e3565b3480156105fc57600080fd5b506102b66112c2565b34801561061157600080fd5b5061031b610620366004612ba2565b6112d1565b34801561063157600080fd5b5061035c610640366004612900565b60009081526007602052604090206001015490565b34801561066157600080fd5b50600f546010546011546012546106789392919084565b604080519485526020850193909352918301526060820152608001610298565b3480156106a457600080fd5b5061031b6106b3366004612978565b6112f7565b3480156106c457600080fd5b5061031b6106d3366004612c29565b611343565b61035c6106e6366004612cd8565b611599565b3480156106f757600080fd5b5061035c610706366004612900565b60009081526007602052604090206002015490565b34801561072757600080fd5b5061028c6107363660046129b1565b6001600160a01b03166000908152600b602052604090205460ff1690565b34801561076057600080fd5b506102b661076f366004612900565b611896565b34801561078057600080fd5b506107b961078f366004612900565b600090815260076020526040902060038101546004909101546001600160a01b0391821692911690565b604080516001600160a01b03938416815292909116602083015201610298565b61031b6107e7366004612d37565b611a0b565b3480156107f857600080fd5b5061031b610807366004612d7b565b611c45565b34801561081857600080fd5b50600f54601054601154601254610678565b34801561083657600080fd5b5061028c610845366004612db2565b611cdd565b34801561085657600080fd5b506102e3610865366004612900565b6000908152600760205260409020600501546001600160a01b031690565b34801561088f57600080fd5b5061028c61089e366004612db2565b6001600160a01b03918216600090815260056020908152604080832093909416825291909152205460ff1690565b3480156108d857600080fd5b5061031b6108e73660046129b1565b611d10565b3480156108f857600080fd5b5061031b610907366004612978565b611d89565b34801561091857600080fd5b5061092c610927366004612900565b611de0565b6040516102989190612e34565b34801561094557600080fd5b506102e3610954366004612900565b6000908152600760205260409020546001600160a01b031690565b34801561097b57600080fd5b5061028c61098a3660046129b1565b6001600160a01b03166000908152600c602052604090205460ff1690565b60006001600160e01b031982166380ac58cd60e01b14806109d957506001600160e01b03198216635b5e139f60e01b145b806109f457506301ffc9a760e01b6001600160e01b03198316145b92915050565b606060008054610a0990612e42565b80601f0160208091040260200160405190810160405280929190818152602001828054610a3590612e42565b8015610a825780601f10610a5757610100808354040283529160200191610a82565b820191906000526020600020905b815481529060010190602001808311610a6557829003601f168201915b5050505050905090565b6000610a9782611e8c565b506000908152600460205260409020546001600160a01b031690565b336001600160a01b03831603610b005760405162461bcd60e51b815260206004820152600d60248201526c14d1531197d054141493d59053609a1b60448201526064015b60405180910390fd5b600081815260076020908152604091829020825160e08101845281546001600160a01b039081168252600183015493820193909352600282015493810193909352600381015482166060840152600481015482166080840152600581015490911660a0830181905260069091015460c0830152638431434733610b82856111c8565b8686866040518663ffffffff1660e01b8152600401610ba5959493929190612e76565b600060405180830381600087803b158015610bbf57600080fd5b505af1158015610bd3573d6000803e3d6000fd5b50505050610be18383611eeb565b505050565b610bee611f59565b6001600160a01b0382166000818152600c60205260409020805460ff1916831515908117909155907f1bf5ef6ada443138fcac941f79625fe01e92ff514fee9f160bff18363199c7a0335b604080516001600160a01b0390921682524260208301520160405180910390a35050565b600080600080600080610c7b600f5460105460115460125490919293565b9350935093509350610c8b61284c565b6040518060800160405280868152602001858152602001848152602001838152509050600080600080600760008e815260200190815260200160002060050160009054906101000a90046001600160a01b03166001600160a01b031663db8d55f16040518163ffffffff1660e01b8152600401608060405180830381865afa158015610d1b573d6000803e3d6000fd5b505050506040513d601f19601f82011682018060405250810190610d3f9190612ec7565b9350935093509350610d4f61284c565b6040518060800160405280868152602001858152602001848152602001838152509050858d60ff1660048110610d8757610d87612efd565b6020020151818e60ff1660048110610da157610da1612efd565b60200201519b509b50505050505050505050505b9250929050565b610be183838360405180602001604052806000815250611343565b6001600160a01b0385166000908152600b602052604081205460ff168015610e1757506001600160a01b0385166000908152600b602052604090205460ff165b8015610e3b57506001600160a01b0384166000908152600b602052604090205460ff165b8015610e5f57506001600160a01b0383166000908152600b602052604090205460ff165b8015610e8357506001600160a01b0382166000908152600b602052604090205460ff165b9695505050505050565b600085815260076020526040812060058101549091906001600160a01b031663a0663d1b33610ebb8a6111c8565b888a8c888b8b6040518963ffffffff1660e01b8152600401610ee4989796959493929190612f8e565b6020604051808303816000875af1158015610f03573d6000803e3d6000fd5b505050506040513d601f19601f82011682018060405250810190610f279190612fed565b90506000612710600f6003015488610f3f919061301c565b610f49919061303b565b90506000612710610f5a848a61301c565b610f64919061303b565b9050600081610f73848b61305d565b610f7d919061305d565b90508085600201541015610fc65760405162461bcd60e51b815260206004820152601060248201526f10d0539517d0d054d217d05353d5539560821b6044820152606401610af7565b60028501805482900390558454610fe7906001600160a01b0316898b611fb3565b60058501546001600160a01b039081166000908152600d6020908152604080832089549094168352929052908120805484929061102590849061305d565b909155505084546001600160a01b03166000908152600e60205260408120805485929061105390849061305d565b90915550506040516110689088908890613070565b60405180910390208a6110783390565b604080516001600160a01b038d81168252602082018f9052918101889052606081018790524260808201529116907fcc73058e75a01c33a85f65ead2935fe75310b9cb0c7980c2d1a14854db9721539060a00160405180910390a450505050505050505050565b6110e7611f59565b801515821515141580611100575081806110fe5750805b155b6111405760405162461bcd60e51b8152602060048201526011602482015270086829c4ea8be8286868aa0a8be849ea89607b1b6044820152606401610af7565b823f6000908152600960209081526040808320805486151560ff1991821681179092556001600160a01b038816808652600a8552948390208054871515921682179055825191825292810192909252429082015233907fe82584b416ef90b398503af85e6daba1407060c9e2d2050c858719c4f1b076479060600160405180910390a3505050565b6000818152600260205260408120546001600160a01b0316806109f45760405162461bcd60e51b8152602060048201526018602482015277115490cdcc8c4e881a5b9d985b1a59081d1bdad95b88125160421b6044820152606401610af7565b60006001600160a01b0382166112925760405162461bcd60e51b815260206004820152602960248201527f4552433732313a2061646472657373207a65726f206973206e6f7420612076616044820152683634b21037bbb732b960b91b6064820152608401610af7565b506001600160a01b031660009081526003602052604090205490565b6112b6611f59565b6112c06000612016565b565b606060018054610a0990612e42565b6112d9611f59565b8035600f556020810135601055604081013560115560600135601255565b60405162461bcd60e51b815260206004820152601760248201527f4f50455241544f52535f4e4f545f535550504f525445440000000000000000006044820152606401610af7565b5050565b600061134e836111c8565b9050600061135b84610a8c565b6000858152600760205260408082206005810154915163784d9ecd60e11b8152336001600160a01b03958616811496509194929092169163f09b3d9a916113b291879089908e908e908e908b908f90600401613080565b6020604051808303816000875af11580156113d1573d6000803e3d6000fd5b505050506040513d601f19601f820116820180604052508101906113f59190612fed565b600283015490915015611511576000612710600f60010154846002015461141c919061301c565b611426919061303b565b90508181846002015461143991906130d8565b61144391906130d8565b600284015560058301546001600160a01b039081166000908152600d6020908152604080832087549094168352929052908120805484929061148690849061305d565b909155505082546001600160a01b03166000908152600e6020526040812080548392906114b490849061305d565b90915550506040805182815260208101849052428183015290516001600160a01b038a811692908816918a917f86426a27b67faa69ebf65a2efa816f2db865f93526c68a0be0175c4471275850919081900360600190a450611574565b866001600160a01b0316846001600160a01b0316877f86426a27b67faa69ebf65a2efa816f2db865f93526c68a0be0175c44712758506000804260405161156b939291909283526020830191909152604082015260600190565b60405180910390a45b61158f88888860405180602001604052806000815250612068565b5050505050505050565b60006115bb6115ae60c0880160a089016129b1565b61084560208901896129b1565b6115f95760405162461bcd60e51b815260206004820152600f60248201526e1393d517d5d2125511531254d51151608a1b6044820152606401610af7565b600061160b60c0880160a089016129b1565b6001600160a01b0316634238a63a33886008548b8a8a8a6040518863ffffffff1660e01b815260040161164497969594939291906130eb565b6020604051808303816000875af1158015611663573d6000803e3d6000fd5b505050506040513d601f19601f820116820180604052508101906116879190612fed565b9050611695866008546120a1565b600854600090815260076020526040902087906116b282826131d0565b5050600854600090815260076020526040808220426006909101556116db9087908a013561305d565b90506000612710600f60000154836116f3919061301c565b6116fd919061303b565b90506000836117108360408d013561305d565b61171a919061305d565b905080156118005761174633308361173560208f018f6129b1565b6001600160a01b03169291906120bb565b81600e600061175860208e018e6129b1565b6001600160a01b03166001600160a01b031681526020019081526020016000206000828254611787919061305d565b90915550849050600d60006117a260c08e0160a08f016129b1565b6001600160a01b031681526020808201929092526040016000908120916117cb908e018e6129b1565b6001600160a01b03166001600160a01b0316815260200190815260200160002060008282546117fa919061305d565b90915550505b871561181957611819338a8a61173560208f018f6129b1565b89604051611827919061325c565b6040518091039020896001600160a01b03166008547fcfa53e3d3ed71d42e02dd815de9184737f40e07d18e4d8343cf4be6904fc3db88b8b8b888b42604051611875969594939291906132e1565b60405180910390a45050600880546001810190915598975050505050505050565b60606118a182611e8c565b60006118ac83611de0565b905060008160a001516001600160a01b0316634fe17e1a856040518263ffffffff1660e01b81526004016118e291815260200190565b600060405180830381865afa1580156118ff573d6000803e3d6000fd5b505050506040513d6000823e601f3d908101601f191682016040526119279190810190613319565b90508051600003611a0457815160208301516040808501516060860151608087015160a0880151935163639a77b160e01b8152600481018b90526001600160a01b0396871660248201526044810195909552606485019290925284166084840152831660a48301529190911660c4820152736cc614e8a7f83df4a85e4cccace7fcd71576fe9d9063639a77b19060e401600060405180830381865af41580156119d4573d6000803e3d6000fd5b505050506040513d6000823e601f3d908101601f191682016040526119fc9190810190613319565b949350505050565b9392505050565b600085815260076020526040812090611a23876111c8565b60058301549091506000906001600160a01b031663d647e1e533848a8a8d898c8c6040518963ffffffff1660e01b8152600401611a67989796959493929190613390565b6020604051808303816000875af1158015611a86573d6000803e3d6000fd5b505050506040513d601f19601f82011682018060405250810190611aaa9190612fed565b90506000611ab8878961305d565b90506000612710600f6000015483611ad0919061301c565b611ada919061303b565b90506000612710611aeb858561301c565b611af5919061303b565b9050600081611b04848d61305d565b611b0e919061305d565b90508015611b9f57611b2d3388546001600160a01b03169030846120bb565b86546001600160a01b03166000908152600e602052604081208054859290611b5690849061305d565b909155505060058701546001600160a01b039081166000908152600d602090815260408083208b5490941683529290529081208054849290611b9990849061305d565b90915550505b8915611bbc57611bbc3388546001600160a01b031690888d6120bb565b8888604051611bcc929190613070565b60405180910390208c611bdc3390565b604080518f8152602081018f9052908101879052606081018690524260808201526001600160a01b0391909116907fadbe4af352c54f09ed95f837f2c7d17bac02ffad06d885343c616d3cbcbccf189060a00160405180910390a4505050505050505050505050565b336000908152600d602090815260408083206001600160a01b0387168452909152902054821115611ca65760405162461bcd60e51b815260206004820152600b60248201526a494e5355465f46554e445360a81b6044820152606401610af7565b336000908152600d602090815260408083206001600160a01b038716808552925290912080548490039055610be1903083856120bb565b6000611ce8836120f3565b8015611a045750506001600160a01b03166000908152600c602052604090205460ff16919050565b611d18611f59565b6001600160a01b038116611d7d5760405162461bcd60e51b815260206004820152602660248201527f4f776e61626c653a206e6577206f776e657220697320746865207a65726f206160448201526564647265737360d01b6064820152608401610af7565b611d8681612016565b50565b611d91611f59565b6001600160a01b0382166000818152600b60205260409020805460ff1916831515908117909155907fdf6d9301f0ffa7c1f3db8033b4eb8b3b8b76b4c792622e86da0ed9fbdca0701433610c39565b6040805160e081018252600080825260208201819052918101829052606081018290526080810182905260a0810182905260c081019190915250600090815260076020908152604091829020825160e08101845281546001600160a01b039081168252600183015493820193909352600282015493810193909352600381015482166060840152600481015482166080840152600581015490911660a08301526006015460c082015290565b6000818152600260205260409020546001600160a01b0316611d865760405162461bcd60e51b8152602060048201526018602482015277115490cdcc8c4e881a5b9d985b1a59081d1bdad95b88125160421b6044820152606401610af7565b600081815260046020526040902080546001600160a01b0319166001600160a01b0384169081179091558190611f20826111c8565b6001600160a01b03167f8c5be1e5ebec7d5bd14f71427d1e84f3dd0314c0f7b2291e5b200ac8c7c3b92560405160405180910390a45050565b6006546001600160a01b031633146112c05760405162461bcd60e51b815260206004820181905260248201527f4f776e61626c653a2063616c6c6572206973206e6f7420746865206f776e65726044820152606401610af7565b6040516001600160a01b038316602482015260448101829052610be190849063a9059cbb60e01b906064015b60408051601f198184030181529190526020810180516001600160e01b03166001600160e01b03199093169290921790915261212c565b600680546001600160a01b038381166001600160a01b0319831681179093556040519116919082907f8be0079c531659141344cd1fd0a4f28419497f9722a3daafe3b4186f6b6457e090600090a35050565b6120738484846121fe565b61207f8484848461236f565b61209b5760405162461bcd60e51b8152600401610af7906133cb565b50505050565b61133f828260405180602001604052806000815250612470565b6040516001600160a01b038085166024830152831660448201526064810182905261209b9085906323b872dd60e01b90608401611fdf565b6001600160a01b0381166000908152600a602052604081205460ff16806109f45750503f60009081526009602052604090205460ff1690565b6000612181826040518060400160405280602081526020017f5361666545524332303a206c6f772d6c6576656c2063616c6c206661696c6564815250856001600160a01b03166124a39092919063ffffffff16565b805190915015610be1578080602001905181019061219f919061341d565b610be15760405162461bcd60e51b815260206004820152602a60248201527f5361666545524332303a204552433230206f7065726174696f6e20646964206e6044820152691bdd081cdd58d8d9595960b21b6064820152608401610af7565b826001600160a01b0316612211826111c8565b6001600160a01b0316146122375760405162461bcd60e51b8152600401610af79061343a565b6001600160a01b0382166122995760405162461bcd60e51b8152602060048201526024808201527f4552433732313a207472616e7366657220746f20746865207a65726f206164646044820152637265737360e01b6064820152608401610af7565b6122a683838360016124b2565b826001600160a01b03166122b9826111c8565b6001600160a01b0316146122df5760405162461bcd60e51b8152600401610af79061343a565b600081815260046020908152604080832080546001600160a01b03199081169091556001600160a01b0387811680865260038552838620805460001901905590871680865283862080546001019055868652600290945282852080549092168417909155905184937fddf252ad1be2c89b69c2b068fc378daa952ba7f163c4a11628f55a4df523b3ef91a4505050565b60006001600160a01b0384163b1561246557604051630a85bd0160e11b81526001600160a01b0385169063150b7a02906123b390339089908890889060040161347f565b6020604051808303816000875af19250505080156123ee575060408051601f3d908101601f191682019092526123eb918101906134b2565b60015b61244b573d80801561241c576040519150601f19603f3d011682016040523d82523d6000602084013e612421565b606091505b5080516000036124435760405162461bcd60e51b8152600401610af7906133cb565b805181602001fd5b6001600160e01b031916630a85bd0160e11b1490506119fc565b506001949350505050565b61247a838361253a565b612487600084848461236f565b610be15760405162461bcd60e51b8152600401610af7906133cb565b60606119fc84846000856126d3565b600181111561209b576001600160a01b038416156124f8576001600160a01b038416600090815260036020526040812080548392906124f29084906130d8565b90915550505b6001600160a01b0383161561209b576001600160a01b0383166000908152600360205260408120805483929061252f90849061305d565b909155505050505050565b6001600160a01b0382166125905760405162461bcd60e51b815260206004820181905260248201527f4552433732313a206d696e7420746f20746865207a65726f20616464726573736044820152606401610af7565b6000818152600260205260409020546001600160a01b0316156125f55760405162461bcd60e51b815260206004820152601c60248201527f4552433732313a20746f6b656e20616c7265616479206d696e746564000000006044820152606401610af7565b6126036000838360016124b2565b6000818152600260205260409020546001600160a01b0316156126685760405162461bcd60e51b815260206004820152601c60248201527f4552433732313a20746f6b656e20616c7265616479206d696e746564000000006044820152606401610af7565b6001600160a01b038216600081815260036020908152604080832080546001019055848352600290915280822080546001600160a01b0319168417905551839291907fddf252ad1be2c89b69c2b068fc378daa952ba7f163c4a11628f55a4df523b3ef908290a45050565b6060824710156127345760405162461bcd60e51b815260206004820152602660248201527f416464726573733a20696e73756666696369656e742062616c616e636520666f6044820152651c8818d85b1b60d21b6064820152608401610af7565b600080866001600160a01b0316858760405161275091906134cf565b60006040518083038185875af1925050503d806000811461278d576040519150601f19603f3d011682016040523d82523d6000602084013e612792565b606091505b50915091506127a3878383876127ae565b979650505050505050565b6060831561281d578251600003612816576001600160a01b0385163b6128165760405162461bcd60e51b815260206004820152601d60248201527f416464726573733a2063616c6c20746f206e6f6e2d636f6e74726163740000006044820152606401610af7565b50816119fc565b6119fc83838151156128325781518083602001fd5b8060405162461bcd60e51b8152600401610af791906128ed565b60405180608001604052806004906020820280368337509192915050565b6001600160e01b031981168114611d8657600080fd5b60006020828403121561289257600080fd5b8135611a048161286a565b60005b838110156128b85781810151838201526020016128a0565b50506000910152565b600081518084526128d981602086016020860161289d565b601f01601f19169290920160200192915050565b602081526000611a0460208301846128c1565b60006020828403121561291257600080fd5b5035919050565b6001600160a01b0381168114611d8657600080fd5b803561293981612919565b919050565b6000806040838503121561295157600080fd5b823561295c81612919565b946020939093013593505050565b8015158114611d8657600080fd5b6000806040838503121561298b57600080fd5b823561299681612919565b915060208301356129a68161296a565b809150509250929050565b6000602082840312156129c357600080fd5b8135611a0481612919565b600080604083850312156129e157600080fd5b82359150602083013560ff811681146129a657600080fd5b600080600060608486031215612a0e57600080fd5b8335612a1981612919565b92506020840135612a2981612919565b929592945050506040919091013590565b600080600080600060a08688031215612a5257600080fd5b8535612a5d81612919565b94506020860135612a6d81612919565b93506040860135612a7d81612919565b92506060860135612a8d81612919565b91506080860135612a9d81612919565b809150509295509295909350565b60008083601f840112612abd57600080fd5b50813567ffffffffffffffff811115612ad557600080fd5b602083019150836020828501011115610db557600080fd5b600080600080600060808688031215612b0557600080fd5b85359450602086013593506040860135612b1e81612919565b9250606086013567ffffffffffffffff811115612b3a57600080fd5b612b4688828901612aab565b969995985093965092949392505050565b600080600060608486031215612b6c57600080fd5b8335612b7781612919565b92506020840135612b878161296a565b91506040840135612b978161296a565b809150509250925092565b600060808284031215612bb457600080fd5b50919050565b634e487b7160e01b600052604160045260246000fd5b604051601f8201601f1916810167ffffffffffffffff81118282101715612bf957612bf9612bba565b604052919050565b600067ffffffffffffffff821115612c1b57612c1b612bba565b50601f01601f191660200190565b60008060008060808587031215612c3f57600080fd5b8435612c4a81612919565b93506020850135612c5a81612919565b925060408501359150606085013567ffffffffffffffff811115612c7d57600080fd5b8501601f81018713612c8e57600080fd5b8035612ca1612c9c82612c01565b612bd0565b818152886020838501011115612cb657600080fd5b8160208401602083013760006020838301015280935050505092959194509250565b6000806000806000858703610140811215612cf257600080fd5b60e0811215612d0057600080fd5b5085945060e0860135612d1281612919565b9350610100860135925061012086013567ffffffffffffffff811115612b3a57600080fd5b600080600080600060808688031215612d4f57600080fd5b853594506020860135935060408601359250606086013567ffffffffffffffff811115612b3a57600080fd5b600080600060608486031215612d9057600080fd5b8335612d9b81612919565b9250602084013591506040840135612b9781612919565b60008060408385031215612dc557600080fd5b8235612dd081612919565b915060208301356129a681612919565b60018060a01b0380825116835260208201516020840152604082015160408401528060608301511660608401528060808301511660808401528060a08301511660a08401525060c081015160c08301525050565b60e081016109f48284612de0565b600181811c90821680612e5657607f821691505b602082108103612bb457634e487b7160e01b600052602260045260246000fd5b6001600160a01b038681168252858116602083015284166040820152606081018390526000610180612eab6080840185612de0565b6101608301819052600090830152506101a00195945050505050565b60008060008060808587031215612edd57600080fd5b505082516020840151604085015160609095015191969095509092509050565b634e487b7160e01b600052603260045260246000fd5b80546001600160a01b039081168352600182015460208401526002820154604084015260038201548116606084015260048201548116608084015260058201541660a08301526006015460c090910152565b81835281816020850137506000828201602090810191909152601f909101601f19169091010190565b6001600160a01b038981168252888116602083015287166040820152606081018690526080810185905260006101a0612fca60a0840187612f13565b80610180840152612fde8184018587612f65565b9b9a5050505050505050505050565b600060208284031215612fff57600080fd5b5051919050565b634e487b7160e01b600052601160045260246000fd5b600081600019048311821515161561303657613036613006565b500290565b60008261305857634e487b7160e01b600052601260045260246000fd5b500490565b808201808211156109f4576109f4613006565b8183823760009101908152919050565b6001600160a01b0389811682528815156020830152878116604083015286811660608301528516608082015260a0810184905260006101c06130c560c0840186612f13565b806101a0840152612fde818401856128c1565b818103818111156109f4576109f4613006565b6001600160a01b03888116825287811660208301526040820187905260009061018090873561311981612919565b81811660608601525060208801356080850152604088013560a0850152606088013561314481612919565b811660c0850152608088013561315981612919565b1660e084015261316b60a0880161292e565b6001600160a01b0381166101008501525060c087013561012084015285610140840152806101608401526131a28184018587612f65565b9a9950505050505050505050565b80546001600160a01b0319166001600160a01b0392909216919091179055565b81356131db81612919565b6131e581836131b0565b506020820135600182015560408201356002820155606082013561320881612919565b61321581600384016131b0565b50608082013561322481612919565b61323181600484016131b0565b5060a082013561324081612919565b61324d81600584016131b0565b5060c082013560068201555050565b6000823561326981612919565b6001600160a01b039081168352602084810135908401526040808501359084015260608401359061329982612919565b90811660608401526080840135906132b082612919565b908116608084015260a0840135906132c782612919565b1660a08301525060c0918201359181019190915260e00190565b86815260a0602082015260006132fb60a083018789612f65565b60408301959095525060608101929092526080909101529392505050565b60006020828403121561332b57600080fd5b815167ffffffffffffffff81111561334257600080fd5b8201601f8101841361335357600080fd5b8051613361612c9c82612c01565b81815285602083850101111561337657600080fd5b61338782602083016020860161289d565b95945050505050565b6001600160a01b0389811682528816602082015260408101879052606081018690526080810185905260006101a0612fca60a0840187612f13565b60208082526032908201527f4552433732313a207472616e7366657220746f206e6f6e20455243373231526560408201527131b2b4bb32b91034b6b83632b6b2b73a32b960711b606082015260800190565b60006020828403121561342f57600080fd5b8151611a048161296a565b60208082526025908201527f4552433732313a207472616e736665722066726f6d20696e636f72726563742060408201526437bbb732b960d91b606082015260800190565b6001600160a01b0385811682528416602082015260408101839052608060608201819052600090610e83908301846128c1565b6000602082840312156134c457600080fd5b8151611a048161286a565b600082516134e181846020870161289d565b919091019291505056fea26469706673582212209c964484e6124f5f1616960b69cef8e560db86d6830b66b9b995bef2a792defd64736f6c63430008100033",
    "linkReferences": {}
  },
  "methodIdentifiers": {
    "_returnCodeHash(address)": "107e2f3b",
    "_writeFlatFee()": "4c806539",
    "approve(address,uint256)": "095ea7b3",
    "balanceOf(address)": "70a08231",
    "cash(uint256,uint256,address,bytes)": "4e289c06",
    "cheqAmount(uint256)": "98e05fcf",
    "cheqCurrency(uint256)": "fdd90c70",
    "cheqCurrencyValueEscrow(uint256)": "29abea5e",
    "cheqDrawer(uint256)": "32c1efbb",
    "cheqDrawerRecipient(uint256)": "d1d240a8",
    "cheqEscrowed(uint256)": "c298c4d2",
    "cheqInfo(uint256)": "f7794942",
    "cheqModule(uint256)": "e0e295b7",
    "cheqRecipient(uint256)": "789a0496",
    "fees()": "9af1d35a",
    "fund(uint256,uint256,uint256,bytes)": "d6122058",
    "getApproved(uint256)": "081812fc",
    "getFees()": "db8d55f1",
    "getTotalFees(uint256,uint8)": "1536beeb",
    "isApprovedForAll(address,address)": "e985e9c5",
    "moduleWhitelisted(address)": "52f37f56",
    "moduleWithdraw(address,uint256,address)": "d6a4f84c",
    "name()": "06fdde03",
    "owner()": "8da5cb5b",
    "ownerOf(uint256)": "6352211e",
    "renounceOwnership()": "715018a6",
    "ruleWhitelisted(address)": "c4a73fe3",
    "rulesWhitelisted(address,address,address,address,address)": "3f4b612e",
    "safeTransferFrom(address,address,uint256)": "42842e0e",
    "safeTransferFrom(address,address,uint256,bytes)": "b88d4fde",
    "setApprovalForAll(address,bool)": "a22cb465",
    "supportsInterface(bytes4)": "01ffc9a7",
    "symbol()": "95d89b41",
    "tokenURI(uint256)": "c87b56dd",
    "tokenWhitelisted(address)": "ff8507e8",
    "totalSupply()": "18160ddd",
    "transferFrom(address,address,uint256)": "23b872dd",
    "transferOwnership(address)": "f2fde38b",
    "updateFees((uint256,uint256,uint256,uint256))": "98a9c92b",
    "validWrite(address,address)": "dfd5d811",
    "whitelistModule(address,bool,bool)": "53aafb69",
    "whitelistRule(address,bool)": "f6adc25c",
    "whitelistToken(address,bool)": "0ffb1d8b",
    "write((address,uint256,uint256,address,address,address,uint256),address,uint256,bytes)": "bae71a9a"
  },
  "id": 34
}