{
  "abi": [
    {
      "inputs": [
        {
          "components": [
            {
              "internalType": "uint256",
              "name": "writeBPS",
              "type": "uint256"
            },
            {
              "internalType": "uint256",
              "name": "transferBPS",
              "type": "uint256"
            },
            {
              "internalType": "uint256",
              "name": "fundBPS",
              "type": "uint256"
            },
            {
              "internalType": "uint256",
              "name": "cashBPS",
              "type": "uint256"
            }
          ],
          "internalType": "struct DataTypes.WTFCFees",
          "name": "_fees",
          "type": "tuple"
        }
      ],
      "stateMutability": "nonpayable",
      "type": "constructor"
    },
    {
      "anonymous": false,
      "inputs": [
        {
          "indexed": true,
          "internalType": "address",
          "name": "owner",
          "type": "address"
        },
        {
          "indexed": true,
          "internalType": "address",
          "name": "approved",
          "type": "address"
        },
        {
          "indexed": true,
          "internalType": "uint256",
          "name": "tokenId",
          "type": "uint256"
        }
      ],
      "name": "Approval",
      "type": "event"
    },
    {
      "anonymous": false,
      "inputs": [
        {
          "indexed": true,
          "internalType": "address",
          "name": "owner",
          "type": "address"
        },
        {
          "indexed": true,
          "internalType": "address",
          "name": "operator",
          "type": "address"
        },
        {
          "indexed": false,
          "internalType": "bool",
          "name": "approved",
          "type": "bool"
        }
      ],
      "name": "ApprovalForAll",
      "type": "event"
    },
    {
      "anonymous": false,
      "inputs": [
        {
          "indexed": true,
          "internalType": "address",
          "name": "previousOwner",
          "type": "address"
        },
        {
          "indexed": true,
          "internalType": "address",
          "name": "newOwner",
          "type": "address"
        }
      ],
      "name": "OwnershipTransferred",
      "type": "event"
    },
    {
      "anonymous": false,
      "inputs": [
        {
          "indexed": true,
          "internalType": "address",
          "name": "from",
          "type": "address"
        },
        {
          "indexed": true,
          "internalType": "address",
          "name": "to",
          "type": "address"
        },
        {
          "indexed": true,
          "internalType": "uint256",
          "name": "tokenId",
          "type": "uint256"
        }
      ],
      "name": "Transfer",
      "type": "event"
    },
    {
      "inputs": [
        {
          "internalType": "address",
          "name": "module",
          "type": "address"
        }
      ],
      "name": "_returnCodeHash",
      "outputs": [
        {
          "internalType": "bytes32",
          "name": "",
          "type": "bytes32"
        }
      ],
      "stateMutability": "view",
      "type": "function"
    },
    {
      "inputs": [],
      "name": "_writeFlatFee",
      "outputs": [
        {
          "internalType": "uint256",
          "name": "",
          "type": "uint256"
        }
      ],
      "stateMutability": "view",
      "type": "function"
    },
    {
      "inputs": [
        {
          "internalType": "address",
          "name": "to",
          "type": "address"
        },
        {
          "internalType": "uint256",
          "name": "tokenId",
          "type": "uint256"
        }
      ],
      "name": "approve",
      "outputs": [],
      "stateMutability": "nonpayable",
      "type": "function"
    },
    {
      "inputs": [
        {
          "internalType": "address",
          "name": "owner",
          "type": "address"
        }
      ],
      "name": "balanceOf",
      "outputs": [
        {
          "internalType": "uint256",
          "name": "",
          "type": "uint256"
        }
      ],
      "stateMutability": "view",
      "type": "function"
    },
    {
      "inputs": [
        {
          "internalType": "uint256",
          "name": "cheqId",
          "type": "uint256"
        },
        {
          "internalType": "uint256",
          "name": "amount",
          "type": "uint256"
        },
        {
          "internalType": "address",
          "name": "to",
          "type": "address"
        },
        {
          "internalType": "bytes",
          "name": "cashData",
          "type": "bytes"
        }
      ],
      "name": "cash",
      "outputs": [],
      "stateMutability": "payable",
      "type": "function"
    },
    {
      "inputs": [
        {
          "internalType": "uint256",
          "name": "cheqId",
          "type": "uint256"
        }
      ],
      "name": "cheqAmount",
      "outputs": [
        {
          "internalType": "uint256",
          "name": "",
          "type": "uint256"
        }
      ],
      "stateMutability": "view",
      "type": "function"
    },
    {
      "inputs": [
        {
          "internalType": "uint256",
          "name": "cheqId",
          "type": "uint256"
        }
      ],
      "name": "cheqCurrency",
      "outputs": [
        {
          "internalType": "address",
          "name": "",
          "type": "address"
        }
      ],
      "stateMutability": "view",
      "type": "function"
    },
    {
      "inputs": [
        {
          "internalType": "uint256",
          "name": "cheqId",
          "type": "uint256"
        }
      ],
      "name": "cheqCurrencyValueEscrow",
      "outputs": [
        {
          "internalType": "address",
          "name": "",
          "type": "address"
        },
        {
          "internalType": "uint256",
          "name": "",
          "type": "uint256"
        },
        {
          "internalType": "uint256",
          "name": "",
          "type": "uint256"
        }
      ],
      "stateMutability": "view",
      "type": "function"
    },
    {
      "inputs": [
        {
          "internalType": "uint256",
          "name": "cheqId",
          "type": "uint256"
        }
      ],
      "name": "cheqDrawer",
      "outputs": [
        {
          "internalType": "address",
          "name": "",
          "type": "address"
        }
      ],
      "stateMutability": "view",
      "type": "function"
    },
    {
      "inputs": [
        {
          "internalType": "uint256",
          "name": "cheqId",
          "type": "uint256"
        }
      ],
      "name": "cheqDrawerRecipient",
      "outputs": [
        {
          "internalType": "address",
          "name": "",
          "type": "address"
        },
        {
          "internalType": "address",
          "name": "",
          "type": "address"
        }
      ],
      "stateMutability": "view",
      "type": "function"
    },
    {
      "inputs": [
        {
          "internalType": "uint256",
          "name": "cheqId",
          "type": "uint256"
        }
      ],
      "name": "cheqEscrowed",
      "outputs": [
        {
          "internalType": "uint256",
          "name": "",
          "type": "uint256"
        }
      ],
      "stateMutability": "view",
      "type": "function"
    },
    {
      "inputs": [
        {
          "internalType": "uint256",
          "name": "cheqId",
          "type": "uint256"
        }
      ],
      "name": "cheqInfo",
      "outputs": [
        {
          "components": [
            {
              "internalType": "address",
              "name": "currency",
              "type": "address"
            },
            {
              "internalType": "uint256",
              "name": "amount",
              "type": "uint256"
            },
            {
              "internalType": "uint256",
              "name": "escrowed",
              "type": "uint256"
            },
            {
              "internalType": "address",
              "name": "drawer",
              "type": "address"
            },
            {
              "internalType": "address",
              "name": "recipient",
              "type": "address"
            },
            {
              "internalType": "address",
              "name": "module",
              "type": "address"
            },
            {
              "internalType": "uint256",
              "name": "mintTimestamp",
              "type": "uint256"
            }
          ],
          "internalType": "struct DataTypes.Cheq",
          "name": "",
          "type": "tuple"
        }
      ],
      "stateMutability": "view",
      "type": "function"
    },
    {
      "inputs": [
        {
          "internalType": "uint256",
          "name": "cheqId",
          "type": "uint256"
        }
      ],
      "name": "cheqModule",
      "outputs": [
        {
          "internalType": "address",
          "name": "",
          "type": "address"
        }
      ],
      "stateMutability": "view",
      "type": "function"
    },
    {
      "inputs": [
        {
          "internalType": "uint256",
          "name": "cheqId",
          "type": "uint256"
        }
      ],
      "name": "cheqRecipient",
      "outputs": [
        {
          "internalType": "address",
          "name": "",
          "type": "address"
        }
      ],
      "stateMutability": "view",
      "type": "function"
    },
    {
      "inputs": [],
      "name": "fees",
      "outputs": [
        {
          "internalType": "uint256",
          "name": "writeBPS",
          "type": "uint256"
        },
        {
          "internalType": "uint256",
          "name": "transferBPS",
          "type": "uint256"
        },
        {
          "internalType": "uint256",
          "name": "fundBPS",
          "type": "uint256"
        },
        {
          "internalType": "uint256",
          "name": "cashBPS",
          "type": "uint256"
        }
      ],
      "stateMutability": "view",
      "type": "function"
    },
    {
      "inputs": [
        {
          "internalType": "uint256",
          "name": "cheqId",
          "type": "uint256"
        },
        {
          "internalType": "uint256",
          "name": "amount",
          "type": "uint256"
        },
        {
          "internalType": "uint256",
          "name": "directAmount",
          "type": "uint256"
        },
        {
          "internalType": "bytes",
          "name": "fundData",
          "type": "bytes"
        }
      ],
      "name": "fund",
      "outputs": [],
      "stateMutability": "payable",
      "type": "function"
    },
    {
      "inputs": [
        {
          "internalType": "uint256",
          "name": "tokenId",
          "type": "uint256"
        }
      ],
      "name": "getApproved",
      "outputs": [
        {
          "internalType": "address",
          "name": "",
          "type": "address"
        }
      ],
      "stateMutability": "view",
      "type": "function"
    },
    {
      "inputs": [],
      "name": "getFees",
      "outputs": [
        {
          "internalType": "uint256",
          "name": "",
          "type": "uint256"
        },
        {
          "internalType": "uint256",
          "name": "",
          "type": "uint256"
        },
        {
          "internalType": "uint256",
          "name": "",
          "type": "uint256"
        },
        {
          "internalType": "uint256",
          "name": "",
          "type": "uint256"
        }
      ],
      "stateMutability": "view",
      "type": "function"
    },
    {
      "inputs": [
        {
          "internalType": "uint256",
          "name": "cheqId",
          "type": "uint256"
        },
        {
          "internalType": "uint8",
          "name": "_WTFC",
          "type": "uint8"
        }
      ],
      "name": "getTotalFees",
      "outputs": [
        {
          "internalType": "uint256",
          "name": "",
          "type": "uint256"
        },
        {
          "internalType": "uint256",
          "name": "",
          "type": "uint256"
        }
      ],
      "stateMutability": "view",
      "type": "function"
    },
    {
      "inputs": [
        {
          "internalType": "address",
          "name": "owner",
          "type": "address"
        },
        {
          "internalType": "address",
          "name": "operator",
          "type": "address"
        }
      ],
      "name": "isApprovedForAll",
      "outputs": [
        {
          "internalType": "bool",
          "name": "",
          "type": "bool"
        }
      ],
      "stateMutability": "view",
      "type": "function"
    },
    {
      "inputs": [
        {
          "internalType": "address",
          "name": "module",
          "type": "address"
        }
      ],
      "name": "moduleWhitelisted",
      "outputs": [
        {
          "internalType": "bool",
          "name": "",
          "type": "bool"
        },
        {
          "internalType": "bool",
          "name": "",
          "type": "bool"
        }
      ],
      "stateMutability": "view",
      "type": "function"
    },
    {
      "inputs": [
        {
          "internalType": "address",
          "name": "token",
          "type": "address"
        },
        {
          "internalType": "uint256",
          "name": "amount",
          "type": "uint256"
        },
        {
          "internalType": "address",
          "name": "to",
          "type": "address"
        }
      ],
      "name": "moduleWithdraw",
      "outputs": [],
      "stateMutability": "nonpayable",
      "type": "function"
    },
    {
      "inputs": [],
      "name": "name",
      "outputs": [
        {
          "internalType": "string",
          "name": "",
          "type": "string"
        }
      ],
      "stateMutability": "view",
      "type": "function"
    },
    {
      "inputs": [],
      "name": "owner",
      "outputs": [
        {
          "internalType": "address",
          "name": "",
          "type": "address"
        }
      ],
      "stateMutability": "view",
      "type": "function"
    },
    {
      "inputs": [
        {
          "internalType": "uint256",
          "name": "tokenId",
          "type": "uint256"
        }
      ],
      "name": "ownerOf",
      "outputs": [
        {
          "internalType": "address",
          "name": "",
          "type": "address"
        }
      ],
      "stateMutability": "view",
      "type": "function"
    },
    {
      "inputs": [],
      "name": "renounceOwnership",
      "outputs": [],
      "stateMutability": "nonpayable",
      "type": "function"
    },
    {
      "inputs": [
        {
          "internalType": "address",
          "name": "rule",
          "type": "address"
        }
      ],
      "name": "ruleWhitelisted",
      "outputs": [
        {
          "internalType": "bool",
          "name": "",
          "type": "bool"
        }
      ],
      "stateMutability": "view",
      "type": "function"
    },
    {
      "inputs": [
        {
          "internalType": "address",
          "name": "writeRule",
          "type": "address"
        },
        {
          "internalType": "address",
          "name": "transferRule",
          "type": "address"
        },
        {
          "internalType": "address",
          "name": "fundRule",
          "type": "address"
        },
        {
          "internalType": "address",
          "name": "cashRule",
          "type": "address"
        },
        {
          "internalType": "address",
          "name": "approveRule",
          "type": "address"
        }
      ],
      "name": "rulesWhitelisted",
      "outputs": [
        {
          "internalType": "bool",
          "name": "",
          "type": "bool"
        }
      ],
      "stateMutability": "view",
      "type": "function"
    },
    {
      "inputs": [
        {
          "internalType": "address",
          "name": "from",
          "type": "address"
        },
        {
          "internalType": "address",
          "name": "to",
          "type": "address"
        },
        {
          "internalType": "uint256",
          "name": "tokenId",
          "type": "uint256"
        }
      ],
      "name": "safeTransferFrom",
      "outputs": [],
      "stateMutability": "nonpayable",
      "type": "function"
    },
    {
      "inputs": [
        {
          "internalType": "address",
          "name": "from",
          "type": "address"
        },
        {
          "internalType": "address",
          "name": "to",
          "type": "address"
        },
        {
          "internalType": "uint256",
          "name": "tokenId",
          "type": "uint256"
        },
        {
          "internalType": "bytes",
          "name": "moduleTransferData",
          "type": "bytes"
        }
      ],
      "name": "safeTransferFrom",
      "outputs": [],
      "stateMutability": "nonpayable",
      "type": "function"
    },
    {
      "inputs": [
        {
          "internalType": "address",
          "name": "",
          "type": "address"
        },
        {
          "internalType": "bool",
          "name": "",
          "type": "bool"
        }
      ],
      "name": "setApprovalForAll",
      "outputs": [],
      "stateMutability": "pure",
      "type": "function"
    },
    {
      "inputs": [
        {
          "internalType": "bytes4",
          "name": "interfaceId",
          "type": "bytes4"
        }
      ],
      "name": "supportsInterface",
      "outputs": [
        {
          "internalType": "bool",
          "name": "",
          "type": "bool"
        }
      ],
      "stateMutability": "view",
      "type": "function"
    },
    {
      "inputs": [],
      "name": "symbol",
      "outputs": [
        {
          "internalType": "string",
          "name": "",
          "type": "string"
        }
      ],
      "stateMutability": "view",
      "type": "function"
    },
    {
      "inputs": [
        {
          "internalType": "uint256",
          "name": "_tokenId",
          "type": "uint256"
        }
      ],
      "name": "tokenURI",
      "outputs": [
        {
          "internalType": "string",
          "name": "",
          "type": "string"
        }
      ],
      "stateMutability": "view",
      "type": "function"
    },
    {
      "inputs": [
        {
          "internalType": "address",
          "name": "token",
          "type": "address"
        }
      ],
      "name": "tokenWhitelisted",
      "outputs": [
        {
          "internalType": "bool",
          "name": "",
          "type": "bool"
        }
      ],
      "stateMutability": "view",
      "type": "function"
    },
    {
      "inputs": [],
      "name": "totalSupply",
      "outputs": [
        {
          "internalType": "uint256",
          "name": "",
          "type": "uint256"
        }
      ],
      "stateMutability": "view",
      "type": "function"
    },
    {
      "inputs": [
        {
          "internalType": "address",
          "name": "from",
          "type": "address"
        },
        {
          "internalType": "address",
          "name": "to",
          "type": "address"
        },
        {
          "internalType": "uint256",
          "name": "tokenId",
          "type": "uint256"
        }
      ],
      "name": "transferFrom",
      "outputs": [],
      "stateMutability": "nonpayable",
      "type": "function"
    },
    {
      "inputs": [
        {
          "internalType": "address",
          "name": "newOwner",
          "type": "address"
        }
      ],
      "name": "transferOwnership",
      "outputs": [],
      "stateMutability": "nonpayable",
      "type": "function"
    },
    {
      "inputs": [
        {
          "components": [
            {
              "internalType": "uint256",
              "name": "writeBPS",
              "type": "uint256"
            },
            {
              "internalType": "uint256",
              "name": "transferBPS",
              "type": "uint256"
            },
            {
              "internalType": "uint256",
              "name": "fundBPS",
              "type": "uint256"
            },
            {
              "internalType": "uint256",
              "name": "cashBPS",
              "type": "uint256"
            }
          ],
          "internalType": "struct DataTypes.WTFCFees",
          "name": "_fees",
          "type": "tuple"
        }
      ],
      "name": "updateFees",
      "outputs": [],
      "stateMutability": "nonpayable",
      "type": "function"
    },
    {
      "inputs": [
        {
          "internalType": "address",
          "name": "module",
          "type": "address"
        },
        {
          "internalType": "address",
          "name": "token",
          "type": "address"
        }
      ],
      "name": "validWrite",
      "outputs": [
        {
          "internalType": "bool",
          "name": "",
          "type": "bool"
        }
      ],
      "stateMutability": "view",
      "type": "function"
    },
    {
      "inputs": [
        {
          "internalType": "address",
          "name": "module",
          "type": "address"
        },
        {
          "internalType": "bool",
          "name": "bytecodeAccepted",
          "type": "bool"
        },
        {
          "internalType": "bool",
          "name": "addressAccepted",
          "type": "bool"
        }
      ],
      "name": "whitelistModule",
      "outputs": [],
      "stateMutability": "nonpayable",
      "type": "function"
    },
    {
      "inputs": [
        {
          "internalType": "address",
          "name": "rule",
          "type": "address"
        },
        {
          "internalType": "bool",
          "name": "accepted",
          "type": "bool"
        }
      ],
      "name": "whitelistRule",
      "outputs": [],
      "stateMutability": "nonpayable",
      "type": "function"
    },
    {
      "inputs": [
        {
          "internalType": "address",
          "name": "_token",
          "type": "address"
        },
        {
          "internalType": "bool",
          "name": "accepted",
          "type": "bool"
        }
      ],
      "name": "whitelistToken",
      "outputs": [],
      "stateMutability": "nonpayable",
      "type": "function"
    },
    {
      "inputs": [
        {
          "components": [
            {
              "internalType": "address",
              "name": "currency",
              "type": "address"
            },
            {
              "internalType": "uint256",
              "name": "amount",
              "type": "uint256"
            },
            {
              "internalType": "uint256",
              "name": "escrowed",
              "type": "uint256"
            },
            {
              "internalType": "address",
              "name": "drawer",
              "type": "address"
            },
            {
              "internalType": "address",
              "name": "recipient",
              "type": "address"
            },
            {
              "internalType": "address",
              "name": "module",
              "type": "address"
            },
            {
              "internalType": "uint256",
              "name": "mintTimestamp",
              "type": "uint256"
            }
          ],
          "internalType": "struct DataTypes.Cheq",
          "name": "cheq",
          "type": "tuple"
        },
        {
          "internalType": "address",
          "name": "owner",
          "type": "address"
        },
        {
          "internalType": "uint256",
          "name": "directAmount",
          "type": "uint256"
        },
        {
          "internalType": "bytes",
          "name": "moduleWriteData",
          "type": "bytes"
        }
      ],
      "name": "write",
      "outputs": [
        {
          "internalType": "uint256",
          "name": "",
          "type": "uint256"
        }
      ],
      "stateMutability": "payable",
      "type": "function"
    }
  ],
  "bytecode": {
    "object": "0x60806040523480156200001157600080fd5b506040516200373a3803806200373a833981016040819052620000349162000141565b6040518060400160405280600c81526020016b10da195c541c9bdd1bd8dbdb60a21b815250604051806040016040528060048152602001634348455160e01b815250816000908162000087919062000239565b50600162000096828262000239565b505050620000b3620000ad620000d560201b60201c565b620000d9565b8051600f55602081015160105560408101516011556060015160125562000305565b3390565b600680546001600160a01b038381166001600160a01b0319831681179093556040519116919082907f8be0079c531659141344cd1fd0a4f28419497f9722a3daafe3b4186f6b6457e090600090a35050565b634e487b7160e01b600052604160045260246000fd5b6000608082840312156200015457600080fd5b604051608081016001600160401b03811182821017156200017957620001796200012b565b8060405250825181526020830151602082015260408301516040820152606083015160608201528091505092915050565b600181811c90821680620001bf57607f821691505b602082108103620001e057634e487b7160e01b600052602260045260246000fd5b50919050565b601f8211156200023457600081815260208120601f850160051c810160208610156200020f5750805b601f850160051c820191505b8181101562000230578281556001016200021b565b5050505b505050565b81516001600160401b038111156200025557620002556200012b565b6200026d81620002668454620001aa565b84620001e6565b602080601f831160018114620002a557600084156200028c5750858301515b600019600386901b1c1916600185901b17855562000230565b600085815260208120601f198616915b82811015620002d657888601518255948401946001909101908401620002b5565b5085821015620002f55787850151600019600388901b60f8161c191681555b5050505050600190811b01905550565b61342580620003156000396000f3fe6080604052600436106102675760003560e01c806395d89b4111610144578063d6122058116100b6578063e985e9c51161007a578063e985e9c514610883578063f2fde38b146108cc578063f6adc25c146108ec578063f77949421461090c578063fdd90c7014610939578063ff8507e81461096f57600080fd5b8063d6122058146107d9578063d6a4f84c146107ec578063db8d55f11461080c578063dfd5d8111461082a578063e0e295b71461084a57600080fd5b8063b88d4fde11610108578063b88d4fde146106b8578063bae71a9a146106d8578063c298c4d2146106eb578063c4a73fe31461071b578063c87b56dd14610754578063d1d240a81461077457600080fd5b806395d89b41146105f057806398a9c92b1461060557806398e05fcf146106255780639af1d35a14610655578063a22cb4651461069857600080fd5b80633f4b612e116101dd57806353aafb69116101a157806353aafb69146105245780636352211e1461054457806370a0823114610564578063715018a614610584578063789a0496146105995780638da5cb5b146105d257600080fd5b80633f4b612e1461047657806342842e0e146103b45780634c806539146104965780634e289c06146104ac57806352f37f56146104bf57600080fd5b8063107e2f3b1161022f578063107e2f3b1461033d5780631536beeb1461036a57806318160ddd1461039f57806323b872dd146103b457806329abea5e146103d457806332c1efbb1461043d57600080fd5b806301ffc9a71461026c57806306fdde03146102a1578063081812fc146102c3578063095ea7b3146102fb5780630ffb1d8b1461031d575b600080fd5b34801561027857600080fd5b5061028c610287366004612841565b6109a8565b60405190151581526020015b60405180910390f35b3480156102ad57600080fd5b506102b66109fa565b60405161029891906128ae565b3480156102cf57600080fd5b506102e36102de3660046128c1565b610a8c565b6040516001600160a01b039091168152602001610298565b34801561030757600080fd5b5061031b6103163660046128ff565b610ab3565b005b34801561032957600080fd5b5061031b610338366004612939565b610be6565b34801561034957600080fd5b5061035c610358366004612972565b3f90565b604051908152602001610298565b34801561037657600080fd5b5061038a61038536600461298f565b610c5d565b60408051928352602083019190915201610298565b3480156103ab57600080fd5b5060085461035c565b3480156103c057600080fd5b5061031b6103cf3660046129ba565b610dbc565b3480156103e057600080fd5b506104186103ef3660046128c1565b6000908152600760205260409020805460018201546002909201546001600160a01b0390911692565b604080516001600160a01b039094168452602084019290925290820152606001610298565b34801561044957600080fd5b506102e36104583660046128c1565b6000908152600760205260409020600301546001600160a01b031690565b34801561048257600080fd5b5061028c6104913660046129fb565b610dd7565b3480156104a257600080fd5b5061035c60135481565b61031b6104ba366004612aae565b610e8d565b3480156104cb57600080fd5b5061050d6104da366004612972565b6001600160a01b0381166000908152600a6020908152604080832054933f8352600990915290205460ff91821692911690565b604080519215158352901515602083015201610298565b34801561053057600080fd5b5061031b61053f366004612b18565b6110df565b34801561055057600080fd5b506102e361055f3660046128c1565b6111c9565b34801561057057600080fd5b5061035c61057f366004612972565b611229565b34801561059057600080fd5b5061031b6112af565b3480156105a557600080fd5b506102e36105b43660046128c1565b6000908152600760205260409020600401546001600160a01b031690565b3480156105de57600080fd5b506006546001600160a01b03166102e3565b3480156105fc57600080fd5b506102b66112c3565b34801561061157600080fd5b5061031b610620366004612b63565b6112d2565b34801561063157600080fd5b5061035c6106403660046128c1565b60009081526007602052604090206001015490565b34801561066157600080fd5b50600f546010546011546012546106789392919084565b604080519485526020850193909352918301526060820152608001610298565b3480156106a457600080fd5b5061031b6106b3366004612939565b6112f8565b3480156106c457600080fd5b5061031b6106d3366004612bea565b611344565b61035c6106e6366004612c99565b61159a565b3480156106f757600080fd5b5061035c6107063660046128c1565b60009081526007602052604090206002015490565b34801561072757600080fd5b5061028c610736366004612972565b6001600160a01b03166000908152600b602052604090205460ff1690565b34801561076057600080fd5b506102b661076f3660046128c1565b61183e565b34801561078057600080fd5b506107b961078f3660046128c1565b600090815260076020526040902060038101546004909101546001600160a01b0391821692911690565b604080516001600160a01b03938416815292909116602083015201610298565b61031b6107e7366004612cf8565b6119b3565b3480156107f857600080fd5b5061031b610807366004612d3c565b611bed565b34801561081857600080fd5b50600f54601054601154601254610678565b34801561083657600080fd5b5061028c610845366004612d73565b611c85565b34801561085657600080fd5b506102e36108653660046128c1565b6000908152600760205260409020600501546001600160a01b031690565b34801561088f57600080fd5b5061028c61089e366004612d73565b6001600160a01b03918216600090815260056020908152604080832093909416825291909152205460ff1690565b3480156108d857600080fd5b5061031b6108e7366004612972565b611cb8565b3480156108f857600080fd5b5061031b610907366004612939565b611d31565b34801561091857600080fd5b5061092c6109273660046128c1565b611d88565b6040516102989190612df5565b34801561094557600080fd5b506102e36109543660046128c1565b6000908152600760205260409020546001600160a01b031690565b34801561097b57600080fd5b5061028c61098a366004612972565b6001600160a01b03166000908152600c602052604090205460ff1690565b60006001600160e01b031982166380ac58cd60e01b14806109d957506001600160e01b03198216635b5e139f60e01b145b806109f457506301ffc9a760e01b6001600160e01b03198316145b92915050565b606060008054610a0990612e03565b80601f0160208091040260200160405190810160405280929190818152602001828054610a3590612e03565b8015610a825780601f10610a5757610100808354040283529160200191610a82565b820191906000526020600020905b815481529060010190602001808311610a6557829003601f168201915b5050505050905090565b6000610a9782611e34565b506000908152600460205260409020546001600160a01b031690565b336001600160a01b03831603610b005760405162461bcd60e51b815260206004820152600d60248201526c14d1531197d054141493d59053609a1b60448201526064015b60405180910390fd5b600081815260076020908152604091829020825160e08101845281546001600160a01b039081168252600183015493820193909352600282015493810193909352600381015482166060840152600481015482166080840152600581015490911660a0830181905260069091015460c0830152638431434733610b82856111c9565b8686866040518663ffffffff1660e01b8152600401610ba5959493929190612e37565b600060405180830381600087803b158015610bbf57600080fd5b505af1158015610bd3573d6000803e3d6000fd5b50505050610be18383611e93565b505050565b610bee611f01565b6001600160a01b0382166000818152600c60205260409020805460ff1916831515908117909155907f1bf5ef6ada443138fcac941f79625fe01e92ff514fee9f160bff18363199c7a0335b604080516001600160a01b0390921682524260208301520160405180910390a35050565b600080600080600080610c7b600f5460105460115460125490919293565b9350935093509350610c8b61280d565b6040518060800160405280868152602001858152602001848152602001838152509050600080600080600760008e815260200190815260200160002060050160009054906101000a90046001600160a01b03166001600160a01b031663db8d55f16040518163ffffffff1660e01b8152600401608060405180830381865afa158015610d1b573d6000803e3d6000fd5b505050506040513d601f19601f82011682018060405250810190610d3f9190612e88565b9350935093509350610d4f61280d565b6040518060800160405280868152602001858152602001848152602001838152509050858d60ff1660048110610d8757610d87612ebe565b6020020151818e60ff1660048110610da157610da1612ebe565b60200201519b509b50505050505050505050505b9250929050565b610be183838360405180602001604052806000815250611344565b6001600160a01b0385166000908152600b602052604081205460ff168015610e1757506001600160a01b0385166000908152600b602052604090205460ff165b8015610e3b57506001600160a01b0384166000908152600b602052604090205460ff165b8015610e5f57506001600160a01b0383166000908152600b602052604090205460ff165b8015610e8357506001600160a01b0382166000908152600b602052604090205460ff165b9695505050505050565b600085815260076020526040812060058101549091906001600160a01b031663a0663d1b33610ebb8a6111c9565b888a8c888b8b6040518963ffffffff1660e01b8152600401610ee4989796959493929190612f4f565b6020604051808303816000875af1158015610f03573d6000803e3d6000fd5b505050506040513d601f19601f82011682018060405250810190610f279190612fae565b90506000612710600f6003015488610f3f9190612fdd565b610f499190612ffc565b90506000612710610f5a848a612fdd565b610f649190612ffc565b9050600081610f73848b61301e565b610f7d919061301e565b90508085600201541015610fc65760405162461bcd60e51b815260206004820152601060248201526f10d0539517d0d054d217d05353d5539560821b6044820152606401610af7565b60028501805482900390558454610fe7906001600160a01b0316898b611f5b565b60058501546001600160a01b039081166000908152600d6020908152604080832089549094168352929052908120805484929061102590849061301e565b909155505084546001600160a01b03166000908152600e60205260408120805485929061105390849061301e565b90915550506040516110689088908890613031565b60405180910390208a6110783390565b604080516001600160a01b038d81168252602082018f9052918101889052606081018790524260808201529116907fcc73058e75a01c33a85f65ead2935fe75310b9cb0c7980c2d1a14854db9721539060a00160405180910390a450505050505050505050565b6110e7611f01565b801515821515141580611100575081806110fe5750805b155b6111405760405162461bcd60e51b8152602060048201526011602482015270086829c4ea8be8286868aa0a8be849ea89607b1b6044820152606401610af7565b823f6000908152600960209081526040808320805486151560ff1991821681179092556001600160a01b038816808652600a8552948390208054871515921682179055825191825292810192909252429082015233907fe82584b416ef90b398503af85e6daba1407060c9e2d2050c858719c4f1b07647906060015b60405180910390a3505050565b6000818152600260205260408120546001600160a01b0316806109f45760405162461bcd60e51b8152602060048201526018602482015277115490cdcc8c4e881a5b9d985b1a59081d1bdad95b88125160421b6044820152606401610af7565b60006001600160a01b0382166112935760405162461bcd60e51b815260206004820152602960248201527f4552433732313a2061646472657373207a65726f206973206e6f7420612076616044820152683634b21037bbb732b960b91b6064820152608401610af7565b506001600160a01b031660009081526003602052604090205490565b6112b7611f01565b6112c16000611fbe565b565b606060018054610a0990612e03565b6112da611f01565b8035600f556020810135601055604081013560115560600135601255565b60405162461bcd60e51b815260206004820152601760248201527f4f50455241544f52535f4e4f545f535550504f525445440000000000000000006044820152606401610af7565b5050565b600061134f836111c9565b9050600061135c84610a8c565b6000858152600760205260408082206005810154915163784d9ecd60e11b8152336001600160a01b03958616811496509194929092169163f09b3d9a916113b391879089908e908e908e908b908f90600401613041565b6020604051808303816000875af11580156113d2573d6000803e3d6000fd5b505050506040513d601f19601f820116820180604052508101906113f69190612fae565b600283015490915015611512576000612710600f60010154846002015461141d9190612fdd565b6114279190612ffc565b90508181846002015461143a9190613099565b6114449190613099565b600284015560058301546001600160a01b039081166000908152600d6020908152604080832087549094168352929052908120805484929061148790849061301e565b909155505082546001600160a01b03166000908152600e6020526040812080548392906114b590849061301e565b90915550506040805182815260208101849052428183015290516001600160a01b038a811692908816918a917f86426a27b67faa69ebf65a2efa816f2db865f93526c68a0be0175c4471275850919081900360600190a450611575565b866001600160a01b0316846001600160a01b0316877f86426a27b67faa69ebf65a2efa816f2db865f93526c68a0be0175c44712758506000804260405161156c939291909283526020830191909152604082015260600190565b60405180910390a45b61159088888860405180602001604052806000815250612010565b5050505050505050565b60006115bc6115af60c0880160a08901612972565b6108456020890189612972565b6115fa5760405162461bcd60e51b815260206004820152600f60248201526e1393d517d5d2125511531254d51151608a1b6044820152606401610af7565b600061160c60c0880160a08901612972565b6001600160a01b0316634238a63a33886008548b8a8a8a6040518863ffffffff1660e01b815260040161164597969594939291906130ac565b6020604051808303816000875af1158015611664573d6000803e3d6000fd5b505050506040513d601f19601f820116820180604052508101906116889190612fae565b905061169686600854612049565b600854600090815260076020526040902087906116b38282613191565b5050600854600090815260076020526040808220426006909101556116dc9087908a013561301e565b90506000612710600f60000154836116f49190612fdd565b6116fe9190612ffc565b90506000836117118360408d013561301e565b61171b919061301e565b905080156118015761174733308361173660208f018f612972565b6001600160a01b0316929190612063565b81600e600061175960208e018e612972565b6001600160a01b03166001600160a01b031681526020019081526020016000206000828254611788919061301e565b90915550849050600d60006117a360c08e0160a08f01612972565b6001600160a01b031681526020808201929092526040016000908120916117cc908e018e612972565b6001600160a01b03166001600160a01b0316815260200190815260200160002060008282546117fb919061301e565b90915550505b871561181a5761181a338a8a61173660208f018f612972565b6118258a8a8a61209b565b5050600880546001810190915598975050505050505050565b606061184982611e34565b600061185483611d88565b905060008160a001516001600160a01b0316634fe17e1a856040518263ffffffff1660e01b815260040161188a91815260200190565b600060405180830381865afa1580156118a7573d6000803e3d6000fd5b505050506040513d6000823e601f3d908101601f191682016040526118cf919081019061321d565b905080516000036119ac57815160208301516040808501516060860151608087015160a0880151935163639a77b160e01b8152600481018b90526001600160a01b0396871660248201526044810195909552606485019290925284166084840152831660a48301529190911660c4820152736cc614e8a7f83df4a85e4cccace7fcd71576fe9d9063639a77b19060e401600060405180830381865af415801561197c573d6000803e3d6000fd5b505050506040513d6000823e601f3d908101601f191682016040526119a4919081019061321d565b949350505050565b9392505050565b6000858152600760205260408120906119cb876111c9565b60058301549091506000906001600160a01b031663d647e1e533848a8a8d898c8c6040518963ffffffff1660e01b8152600401611a0f989796959493929190613294565b6020604051808303816000875af1158015611a2e573d6000803e3d6000fd5b505050506040513d601f19601f82011682018060405250810190611a529190612fae565b90506000611a60878961301e565b90506000612710600f6000015483611a789190612fdd565b611a829190612ffc565b90506000612710611a938585612fdd565b611a9d9190612ffc565b9050600081611aac848d61301e565b611ab6919061301e565b90508015611b4757611ad53388546001600160a01b0316903084612063565b86546001600160a01b03166000908152600e602052604081208054859290611afe90849061301e565b909155505060058701546001600160a01b039081166000908152600d602090815260408083208b5490941683529290529081208054849290611b4190849061301e565b90915550505b8915611b6457611b643388546001600160a01b031690888d612063565b8888604051611b74929190613031565b60405180910390208c611b843390565b604080518f8152602081018f9052908101879052606081018690524260808201526001600160a01b0391909116907fadbe4af352c54f09ed95f837f2c7d17bac02ffad06d885343c616d3cbcbccf189060a00160405180910390a4505050505050505050505050565b336000908152600d602090815260408083206001600160a01b0387168452909152902054821115611c4e5760405162461bcd60e51b815260206004820152600b60248201526a494e5355465f46554e445360a81b6044820152606401610af7565b336000908152600d602090815260408083206001600160a01b038716808552925290912080548490039055610be190308385612063565b6000611c9083612157565b80156119ac5750506001600160a01b03166000908152600c602052604090205460ff16919050565b611cc0611f01565b6001600160a01b038116611d255760405162461bcd60e51b815260206004820152602660248201527f4f776e61626c653a206e6577206f776e657220697320746865207a65726f206160448201526564647265737360d01b6064820152608401610af7565b611d2e81611fbe565b50565b611d39611f01565b6001600160a01b0382166000818152600b60205260409020805460ff1916831515908117909155907fdf6d9301f0ffa7c1f3db8033b4eb8b3b8b76b4c792622e86da0ed9fbdca0701433610c39565b6040805160e081018252600080825260208201819052918101829052606081018290526080810182905260a0810182905260c081019190915250600090815260076020908152604091829020825160e08101845281546001600160a01b039081168252600183015493820193909352600282015493810193909352600381015482166060840152600481015482166080840152600581015490911660a08301526006015460c082015290565b6000818152600260205260409020546001600160a01b0316611d2e5760405162461bcd60e51b8152602060048201526018602482015277115490cdcc8c4e881a5b9d985b1a59081d1bdad95b88125160421b6044820152606401610af7565b600081815260046020526040902080546001600160a01b0319166001600160a01b0384169081179091558190611ec8826111c9565b6001600160a01b03167f8c5be1e5ebec7d5bd14f71427d1e84f3dd0314c0f7b2291e5b200ac8c7c3b92560405160405180910390a45050565b6006546001600160a01b031633146112c15760405162461bcd60e51b815260206004820181905260248201527f4f776e61626c653a2063616c6c6572206973206e6f7420746865206f776e65726044820152606401610af7565b6040516001600160a01b038316602482015260448101829052610be190849063a9059cbb60e01b906064015b60408051601f198184030181529190526020810180516001600160e01b03166001600160e01b031990931692909217909152612190565b600680546001600160a01b038381166001600160a01b0319831681179093556040519116919082907f8be0079c531659141344cd1fd0a4f28419497f9722a3daafe3b4186f6b6457e090600090a35050565b61201b848484612262565b612027848484846123c6565b6120435760405162461bcd60e51b8152600401610af7906132cf565b50505050565b6113408282604051806020016040528060008152506124c7565b6040516001600160a01b03808516602483015283166044820152606481018290526120439085906323b872dd60e01b90608401611f87565b6008546001600160a01b038316907f74c58a3f14a84db634e1c84b7d890c5fa6368844c8903791914d9fe16fed26568360c08701356120dd6020890189612972565b60208901356120f260808b0160608c01612972565b61210260a08c0160808d01612972565b61211260c08d0160a08e01612972565b6040805197885260208801969096526001600160a01b0394851695870195909552606086019290925282166080850152811660a08401521660c082015260e0016111bc565b6001600160a01b0381166000908152600a602052604081205460ff16806109f45750503f60009081526009602052604090205460ff1690565b60006121e5826040518060400160405280602081526020017f5361666545524332303a206c6f772d6c6576656c2063616c6c206661696c6564815250856001600160a01b03166124fa9092919063ffffffff16565b805190915015610be157808060200190518101906122039190613321565b610be15760405162461bcd60e51b815260206004820152602a60248201527f5361666545524332303a204552433230206f7065726174696f6e20646964206e6044820152691bdd081cdd58d8d9595960b21b6064820152608401610af7565b826001600160a01b0316612275826111c9565b6001600160a01b03161461229b5760405162461bcd60e51b8152600401610af79061333e565b6001600160a01b0382166122fd5760405162461bcd60e51b8152602060048201526024808201527f4552433732313a207472616e7366657220746f20746865207a65726f206164646044820152637265737360e01b6064820152608401610af7565b826001600160a01b0316612310826111c9565b6001600160a01b0316146123365760405162461bcd60e51b8152600401610af79061333e565b600081815260046020908152604080832080546001600160a01b03199081169091556001600160a01b0387811680865260038552838620805460001901905590871680865283862080546001019055868652600290945282852080549092168417909155905184937fddf252ad1be2c89b69c2b068fc378daa952ba7f163c4a11628f55a4df523b3ef91a4505050565b60006001600160a01b0384163b156124bc57604051630a85bd0160e11b81526001600160a01b0385169063150b7a029061240a903390899088908890600401613383565b6020604051808303816000875af1925050508015612445575060408051601f3d908101601f19168201909252612442918101906133b6565b60015b6124a2573d808015612473576040519150601f19603f3d011682016040523d82523d6000602084013e612478565b606091505b50805160000361249a5760405162461bcd60e51b8152600401610af7906132cf565b805181602001fd5b6001600160e01b031916630a85bd0160e11b1490506119a4565b506001949350505050565b6124d18383612509565b6124de60008484846123c6565b610be15760405162461bcd60e51b8152600401610af7906132cf565b60606119a48484600085612694565b6001600160a01b03821661255f5760405162461bcd60e51b815260206004820181905260248201527f4552433732313a206d696e7420746f20746865207a65726f20616464726573736044820152606401610af7565b6000818152600260205260409020546001600160a01b0316156125c45760405162461bcd60e51b815260206004820152601c60248201527f4552433732313a20746f6b656e20616c7265616479206d696e746564000000006044820152606401610af7565b6000818152600260205260409020546001600160a01b0316156126295760405162461bcd60e51b815260206004820152601c60248201527f4552433732313a20746f6b656e20616c7265616479206d696e746564000000006044820152606401610af7565b6001600160a01b038216600081815260036020908152604080832080546001019055848352600290915280822080546001600160a01b0319168417905551839291907fddf252ad1be2c89b69c2b068fc378daa952ba7f163c4a11628f55a4df523b3ef908290a45050565b6060824710156126f55760405162461bcd60e51b815260206004820152602660248201527f416464726573733a20696e73756666696369656e742062616c616e636520666f6044820152651c8818d85b1b60d21b6064820152608401610af7565b600080866001600160a01b0316858760405161271191906133d3565b60006040518083038185875af1925050503d806000811461274e576040519150601f19603f3d011682016040523d82523d6000602084013e612753565b606091505b50915091506127648783838761276f565b979650505050505050565b606083156127de5782516000036127d7576001600160a01b0385163b6127d75760405162461bcd60e51b815260206004820152601d60248201527f416464726573733a2063616c6c20746f206e6f6e2d636f6e74726163740000006044820152606401610af7565b50816119a4565b6119a483838151156127f35781518083602001fd5b8060405162461bcd60e51b8152600401610af791906128ae565b60405180608001604052806004906020820280368337509192915050565b6001600160e01b031981168114611d2e57600080fd5b60006020828403121561285357600080fd5b81356119ac8161282b565b60005b83811015612879578181015183820152602001612861565b50506000910152565b6000815180845261289a81602086016020860161285e565b601f01601f19169290920160200192915050565b6020815260006119ac6020830184612882565b6000602082840312156128d357600080fd5b5035919050565b6001600160a01b0381168114611d2e57600080fd5b80356128fa816128da565b919050565b6000806040838503121561291257600080fd5b823561291d816128da565b946020939093013593505050565b8015158114611d2e57600080fd5b6000806040838503121561294c57600080fd5b8235612957816128da565b915060208301356129678161292b565b809150509250929050565b60006020828403121561298457600080fd5b81356119ac816128da565b600080604083850312156129a257600080fd5b82359150602083013560ff8116811461296757600080fd5b6000806000606084860312156129cf57600080fd5b83356129da816128da565b925060208401356129ea816128da565b929592945050506040919091013590565b600080600080600060a08688031215612a1357600080fd5b8535612a1e816128da565b94506020860135612a2e816128da565b93506040860135612a3e816128da565b92506060860135612a4e816128da565b91506080860135612a5e816128da565b809150509295509295909350565b60008083601f840112612a7e57600080fd5b50813567ffffffffffffffff811115612a9657600080fd5b602083019150836020828501011115610db557600080fd5b600080600080600060808688031215612ac657600080fd5b85359450602086013593506040860135612adf816128da565b9250606086013567ffffffffffffffff811115612afb57600080fd5b612b0788828901612a6c565b969995985093965092949392505050565b600080600060608486031215612b2d57600080fd5b8335612b38816128da565b92506020840135612b488161292b565b91506040840135612b588161292b565b809150509250925092565b600060808284031215612b7557600080fd5b50919050565b634e487b7160e01b600052604160045260246000fd5b604051601f8201601f1916810167ffffffffffffffff81118282101715612bba57612bba612b7b565b604052919050565b600067ffffffffffffffff821115612bdc57612bdc612b7b565b50601f01601f191660200190565b60008060008060808587031215612c0057600080fd5b8435612c0b816128da565b93506020850135612c1b816128da565b925060408501359150606085013567ffffffffffffffff811115612c3e57600080fd5b8501601f81018713612c4f57600080fd5b8035612c62612c5d82612bc2565b612b91565b818152886020838501011115612c7757600080fd5b8160208401602083013760006020838301015280935050505092959194509250565b6000806000806000858703610140811215612cb357600080fd5b60e0811215612cc157600080fd5b5085945060e0860135612cd3816128da565b9350610100860135925061012086013567ffffffffffffffff811115612afb57600080fd5b600080600080600060808688031215612d1057600080fd5b853594506020860135935060408601359250606086013567ffffffffffffffff811115612afb57600080fd5b600080600060608486031215612d5157600080fd5b8335612d5c816128da565b9250602084013591506040840135612b58816128da565b60008060408385031215612d8657600080fd5b8235612d91816128da565b91506020830135612967816128da565b60018060a01b0380825116835260208201516020840152604082015160408401528060608301511660608401528060808301511660808401528060a08301511660a08401525060c081015160c08301525050565b60e081016109f48284612da1565b600181811c90821680612e1757607f821691505b602082108103612b7557634e487b7160e01b600052602260045260246000fd5b6001600160a01b038681168252858116602083015284166040820152606081018390526000610180612e6c6080840185612da1565b6101608301819052600090830152506101a00195945050505050565b60008060008060808587031215612e9e57600080fd5b505082516020840151604085015160609095015191969095509092509050565b634e487b7160e01b600052603260045260246000fd5b80546001600160a01b039081168352600182015460208401526002820154604084015260038201548116606084015260048201548116608084015260058201541660a08301526006015460c090910152565b81835281816020850137506000828201602090810191909152601f909101601f19169091010190565b6001600160a01b038981168252888116602083015287166040820152606081018690526080810185905260006101a0612f8b60a0840187612ed4565b80610180840152612f9f8184018587612f26565b9b9a5050505050505050505050565b600060208284031215612fc057600080fd5b5051919050565b634e487b7160e01b600052601160045260246000fd5b6000816000190483118215151615612ff757612ff7612fc7565b500290565b60008261301957634e487b7160e01b600052601260045260246000fd5b500490565b808201808211156109f4576109f4612fc7565b8183823760009101908152919050565b6001600160a01b0389811682528815156020830152878116604083015286811660608301528516608082015260a0810184905260006101c061308660c0840186612ed4565b806101a0840152612f9f81840185612882565b818103818111156109f4576109f4612fc7565b6001600160a01b0388811682528781166020830152604082018790526000906101809087356130da816128da565b81811660608601525060208801356080850152604088013560a08501526060880135613105816128da565b811660c0850152608088013561311a816128da565b1660e084015261312c60a088016128ef565b6001600160a01b0381166101008501525060c087013561012084015285610140840152806101608401526131638184018587612f26565b9a9950505050505050505050565b80546001600160a01b0319166001600160a01b0392909216919091179055565b813561319c816128da565b6131a68183613171565b50602082013560018201556040820135600282015560608201356131c9816128da565b6131d68160038401613171565b5060808201356131e5816128da565b6131f28160048401613171565b5060a0820135613201816128da565b61320e8160058401613171565b5060c082013560068201555050565b60006020828403121561322f57600080fd5b815167ffffffffffffffff81111561324657600080fd5b8201601f8101841361325757600080fd5b8051613265612c5d82612bc2565b81815285602083850101111561327a57600080fd5b61328b82602083016020860161285e565b95945050505050565b6001600160a01b0389811682528816602082015260408101879052606081018690526080810185905260006101a0612f8b60a0840187612ed4565b60208082526032908201527f4552433732313a207472616e7366657220746f206e6f6e20455243373231526560408201527131b2b4bb32b91034b6b83632b6b2b73a32b960711b606082015260800190565b60006020828403121561333357600080fd5b81516119ac8161292b565b60208082526025908201527f4552433732313a207472616e736665722066726f6d20696e636f72726563742060408201526437bbb732b960d91b606082015260800190565b6001600160a01b0385811682528416602082015260408101839052608060608201819052600090610e8390830184612882565b6000602082840312156133c857600080fd5b81516119ac8161282b565b600082516133e581846020870161285e565b919091019291505056fea26469706673582212201e86168640e9ce93868cff728d33db588d81b1641a02fe2a84b4f5680070409f64736f6c63430008100033",
    "linkReferences": {}
  },
  "methodIdentifiers": {
    "_returnCodeHash(address)": "107e2f3b",
    "_writeFlatFee()": "4c806539",
    "approve(address,uint256)": "095ea7b3",
    "balanceOf(address)": "70a08231",
    "cash(uint256,uint256,address,bytes)": "4e289c06",
    "cheqAmount(uint256)": "98e05fcf",
    "cheqCurrency(uint256)": "fdd90c70",
    "cheqCurrencyValueEscrow(uint256)": "29abea5e",
    "cheqDrawer(uint256)": "32c1efbb",
    "cheqDrawerRecipient(uint256)": "d1d240a8",
    "cheqEscrowed(uint256)": "c298c4d2",
    "cheqInfo(uint256)": "f7794942",
    "cheqModule(uint256)": "e0e295b7",
    "cheqRecipient(uint256)": "789a0496",
    "fees()": "9af1d35a",
    "fund(uint256,uint256,uint256,bytes)": "d6122058",
    "getApproved(uint256)": "081812fc",
    "getFees()": "db8d55f1",
    "getTotalFees(uint256,uint8)": "1536beeb",
    "isApprovedForAll(address,address)": "e985e9c5",
    "moduleWhitelisted(address)": "52f37f56",
    "moduleWithdraw(address,uint256,address)": "d6a4f84c",
    "name()": "06fdde03",
    "owner()": "8da5cb5b",
    "ownerOf(uint256)": "6352211e",
    "renounceOwnership()": "715018a6",
    "ruleWhitelisted(address)": "c4a73fe3",
    "rulesWhitelisted(address,address,address,address,address)": "3f4b612e",
    "safeTransferFrom(address,address,uint256)": "42842e0e",
    "safeTransferFrom(address,address,uint256,bytes)": "b88d4fde",
    "setApprovalForAll(address,bool)": "a22cb465",
    "supportsInterface(bytes4)": "01ffc9a7",
    "symbol()": "95d89b41",
    "tokenURI(uint256)": "c87b56dd",
    "tokenWhitelisted(address)": "ff8507e8",
    "totalSupply()": "18160ddd",
    "transferFrom(address,address,uint256)": "23b872dd",
    "transferOwnership(address)": "f2fde38b",
    "updateFees((uint256,uint256,uint256,uint256))": "98a9c92b",
    "validWrite(address,address)": "dfd5d811",
    "whitelistModule(address,bool,bool)": "53aafb69",
    "whitelistRule(address,bool)": "f6adc25c",
    "whitelistToken(address,bool)": "0ffb1d8b",
    "write((address,uint256,uint256,address,address,address,uint256),address,uint256,bytes)": "bae71a9a"
  },
  "id": 22
}