{
  "abi": [
    {
      "inputs": [
        {
          "components": [
            {
              "internalType": "uint256",
              "name": "writeBPS",
              "type": "uint256"
            },
            {
              "internalType": "uint256",
              "name": "transferBPS",
              "type": "uint256"
            },
            {
              "internalType": "uint256",
              "name": "fundBPS",
              "type": "uint256"
            },
            {
              "internalType": "uint256",
              "name": "cashBPS",
              "type": "uint256"
            }
          ],
          "internalType": "struct DataTypes.WTFCFees",
          "name": "_fees",
          "type": "tuple"
        }
      ],
      "stateMutability": "nonpayable",
      "type": "constructor"
    },
    {
      "anonymous": false,
      "inputs": [
        {
          "indexed": true,
          "internalType": "address",
          "name": "owner",
          "type": "address"
        },
        {
          "indexed": true,
          "internalType": "address",
          "name": "approved",
          "type": "address"
        },
        {
          "indexed": true,
          "internalType": "uint256",
          "name": "tokenId",
          "type": "uint256"
        }
      ],
      "name": "Approval",
      "type": "event"
    },
    {
      "anonymous": false,
      "inputs": [
        {
          "indexed": true,
          "internalType": "address",
          "name": "owner",
          "type": "address"
        },
        {
          "indexed": true,
          "internalType": "address",
          "name": "operator",
          "type": "address"
        },
        {
          "indexed": false,
          "internalType": "bool",
          "name": "approved",
          "type": "bool"
        }
      ],
      "name": "ApprovalForAll",
      "type": "event"
    },
    {
      "anonymous": false,
      "inputs": [
        {
          "indexed": true,
          "internalType": "address",
          "name": "previousOwner",
          "type": "address"
        },
        {
          "indexed": true,
          "internalType": "address",
          "name": "newOwner",
          "type": "address"
        }
      ],
      "name": "OwnershipTransferred",
      "type": "event"
    },
    {
      "anonymous": false,
      "inputs": [
        {
          "indexed": true,
          "internalType": "address",
          "name": "from",
          "type": "address"
        },
        {
          "indexed": true,
          "internalType": "address",
          "name": "to",
          "type": "address"
        },
        {
          "indexed": true,
          "internalType": "uint256",
          "name": "tokenId",
          "type": "uint256"
        }
      ],
      "name": "Transfer",
      "type": "event"
    },
    {
      "inputs": [
        {
          "internalType": "address",
          "name": "module",
          "type": "address"
        }
      ],
      "name": "_returnCodeHash",
      "outputs": [
        {
          "internalType": "bytes32",
          "name": "",
          "type": "bytes32"
        }
      ],
      "stateMutability": "view",
      "type": "function"
    },
    {
      "inputs": [],
      "name": "_writeFlatFee",
      "outputs": [
        {
          "internalType": "uint256",
          "name": "",
          "type": "uint256"
        }
      ],
      "stateMutability": "view",
      "type": "function"
    },
    {
      "inputs": [
        {
          "internalType": "address",
          "name": "to",
          "type": "address"
        },
        {
          "internalType": "uint256",
          "name": "tokenId",
          "type": "uint256"
        }
      ],
      "name": "approve",
      "outputs": [],
      "stateMutability": "nonpayable",
      "type": "function"
    },
    {
      "inputs": [
        {
          "internalType": "address",
          "name": "owner",
          "type": "address"
        }
      ],
      "name": "balanceOf",
      "outputs": [
        {
          "internalType": "uint256",
          "name": "",
          "type": "uint256"
        }
      ],
      "stateMutability": "view",
      "type": "function"
    },
    {
      "inputs": [
        {
          "internalType": "uint256",
          "name": "cheqId",
          "type": "uint256"
        },
        {
          "internalType": "uint256",
          "name": "amount",
          "type": "uint256"
        },
        {
          "internalType": "address",
          "name": "to",
          "type": "address"
        },
        {
          "internalType": "bytes",
          "name": "cashData",
          "type": "bytes"
        }
      ],
      "name": "cash",
      "outputs": [],
      "stateMutability": "payable",
      "type": "function"
    },
    {
      "inputs": [
        {
          "internalType": "uint256",
          "name": "cheqId",
          "type": "uint256"
        }
      ],
      "name": "cheqCurrency",
      "outputs": [
        {
          "internalType": "address",
          "name": "",
          "type": "address"
        }
      ],
      "stateMutability": "view",
      "type": "function"
    },
    {
      "inputs": [
        {
          "internalType": "uint256",
          "name": "cheqId",
          "type": "uint256"
        }
      ],
      "name": "cheqEscrowed",
      "outputs": [
        {
          "internalType": "uint256",
          "name": "",
          "type": "uint256"
        }
      ],
      "stateMutability": "view",
      "type": "function"
    },
    {
      "inputs": [
        {
          "internalType": "uint256",
          "name": "cheqId",
          "type": "uint256"
        }
      ],
      "name": "cheqInfo",
      "outputs": [
        {
          "components": [
            {
              "internalType": "address",
              "name": "currency",
              "type": "address"
            },
            {
              "internalType": "uint256",
              "name": "escrowed",
              "type": "uint256"
            },
            {
              "internalType": "uint256",
              "name": "createdAt",
              "type": "uint256"
            },
            {
              "internalType": "address",
              "name": "module",
              "type": "address"
            }
          ],
          "internalType": "struct DataTypes.Cheq",
          "name": "",
          "type": "tuple"
        }
      ],
      "stateMutability": "view",
      "type": "function"
    },
    {
      "inputs": [
        {
          "internalType": "uint256",
          "name": "cheqId",
          "type": "uint256"
        }
      ],
      "name": "cheqModule",
      "outputs": [
        {
          "internalType": "address",
          "name": "",
          "type": "address"
        }
      ],
      "stateMutability": "view",
      "type": "function"
    },
    {
      "inputs": [],
      "name": "fees",
      "outputs": [
        {
          "internalType": "uint256",
          "name": "writeBPS",
          "type": "uint256"
        },
        {
          "internalType": "uint256",
          "name": "transferBPS",
          "type": "uint256"
        },
        {
          "internalType": "uint256",
          "name": "fundBPS",
          "type": "uint256"
        },
        {
          "internalType": "uint256",
          "name": "cashBPS",
          "type": "uint256"
        }
      ],
      "stateMutability": "view",
      "type": "function"
    },
    {
      "inputs": [
        {
          "internalType": "uint256",
          "name": "cheqId",
          "type": "uint256"
        },
        {
          "internalType": "uint256",
          "name": "amount",
          "type": "uint256"
        },
        {
          "internalType": "uint256",
          "name": "instant",
          "type": "uint256"
        },
        {
          "internalType": "bytes",
          "name": "fundData",
          "type": "bytes"
        }
      ],
      "name": "fund",
      "outputs": [],
      "stateMutability": "payable",
      "type": "function"
    },
    {
      "inputs": [
        {
          "internalType": "uint256",
          "name": "tokenId",
          "type": "uint256"
        }
      ],
      "name": "getApproved",
      "outputs": [
        {
          "internalType": "address",
          "name": "",
          "type": "address"
        }
      ],
      "stateMutability": "view",
      "type": "function"
    },
    {
      "inputs": [],
      "name": "getFees",
      "outputs": [
        {
          "internalType": "uint256",
          "name": "",
          "type": "uint256"
        },
        {
          "internalType": "uint256",
          "name": "",
          "type": "uint256"
        },
        {
          "internalType": "uint256",
          "name": "",
          "type": "uint256"
        },
        {
          "internalType": "uint256",
          "name": "",
          "type": "uint256"
        }
      ],
      "stateMutability": "view",
      "type": "function"
    },
    {
      "inputs": [
        {
          "internalType": "uint256",
          "name": "cheqId",
          "type": "uint256"
        },
        {
          "internalType": "uint8",
          "name": "_WTFC",
          "type": "uint8"
        }
      ],
      "name": "getTotalFees",
      "outputs": [
        {
          "internalType": "uint256",
          "name": "",
          "type": "uint256"
        },
        {
          "internalType": "uint256",
          "name": "",
          "type": "uint256"
        }
      ],
      "stateMutability": "view",
      "type": "function"
    },
    {
      "inputs": [
        {
          "internalType": "address",
          "name": "owner",
          "type": "address"
        },
        {
          "internalType": "address",
          "name": "operator",
          "type": "address"
        }
      ],
      "name": "isApprovedForAll",
      "outputs": [
        {
          "internalType": "bool",
          "name": "",
          "type": "bool"
        }
      ],
      "stateMutability": "view",
      "type": "function"
    },
    {
      "inputs": [
        {
          "internalType": "address",
          "name": "module",
          "type": "address"
        }
      ],
      "name": "moduleWhitelisted",
      "outputs": [
        {
          "internalType": "bool",
          "name": "",
          "type": "bool"
        },
        {
          "internalType": "bool",
          "name": "",
          "type": "bool"
        }
      ],
      "stateMutability": "view",
      "type": "function"
    },
    {
      "inputs": [
        {
          "internalType": "address",
          "name": "token",
          "type": "address"
        },
        {
          "internalType": "uint256",
          "name": "amount",
          "type": "uint256"
        },
        {
          "internalType": "address",
          "name": "to",
          "type": "address"
        }
      ],
      "name": "moduleWithdraw",
      "outputs": [],
      "stateMutability": "nonpayable",
      "type": "function"
    },
    {
      "inputs": [],
      "name": "name",
      "outputs": [
        {
          "internalType": "string",
          "name": "",
          "type": "string"
        }
      ],
      "stateMutability": "view",
      "type": "function"
    },
    {
      "inputs": [],
      "name": "owner",
      "outputs": [
        {
          "internalType": "address",
          "name": "",
          "type": "address"
        }
      ],
      "stateMutability": "view",
      "type": "function"
    },
    {
      "inputs": [
        {
          "internalType": "uint256",
          "name": "tokenId",
          "type": "uint256"
        }
      ],
      "name": "ownerOf",
      "outputs": [
        {
          "internalType": "address",
          "name": "",
          "type": "address"
        }
      ],
      "stateMutability": "view",
      "type": "function"
    },
    {
      "inputs": [],
      "name": "renounceOwnership",
      "outputs": [],
      "stateMutability": "nonpayable",
      "type": "function"
    },
    {
      "inputs": [
        {
          "internalType": "address",
          "name": "from",
          "type": "address"
        },
        {
          "internalType": "address",
          "name": "to",
          "type": "address"
        },
        {
          "internalType": "uint256",
          "name": "tokenId",
          "type": "uint256"
        }
      ],
      "name": "safeTransferFrom",
      "outputs": [],
      "stateMutability": "nonpayable",
      "type": "function"
    },
    {
      "inputs": [
        {
          "internalType": "address",
          "name": "from",
          "type": "address"
        },
        {
          "internalType": "address",
          "name": "to",
          "type": "address"
        },
        {
          "internalType": "uint256",
          "name": "tokenId",
          "type": "uint256"
        },
        {
          "internalType": "bytes",
          "name": "moduleTransferData",
          "type": "bytes"
        }
      ],
      "name": "safeTransferFrom",
      "outputs": [],
      "stateMutability": "nonpayable",
      "type": "function"
    },
    {
      "inputs": [
        {
          "internalType": "address",
          "name": "",
          "type": "address"
        },
        {
          "internalType": "bool",
          "name": "",
          "type": "bool"
        }
      ],
      "name": "setApprovalForAll",
      "outputs": [],
      "stateMutability": "pure",
      "type": "function"
    },
    {
      "inputs": [
        {
          "internalType": "bytes4",
          "name": "interfaceId",
          "type": "bytes4"
        }
      ],
      "name": "supportsInterface",
      "outputs": [
        {
          "internalType": "bool",
          "name": "",
          "type": "bool"
        }
      ],
      "stateMutability": "view",
      "type": "function"
    },
    {
      "inputs": [],
      "name": "symbol",
      "outputs": [
        {
          "internalType": "string",
          "name": "",
          "type": "string"
        }
      ],
      "stateMutability": "view",
      "type": "function"
    },
    {
      "inputs": [
        {
          "internalType": "uint256",
          "name": "_tokenId",
          "type": "uint256"
        }
      ],
      "name": "tokenURI",
      "outputs": [
        {
          "internalType": "string",
          "name": "",
          "type": "string"
        }
      ],
      "stateMutability": "view",
      "type": "function"
    },
    {
      "inputs": [
        {
          "internalType": "address",
          "name": "token",
          "type": "address"
        }
      ],
      "name": "tokenWhitelisted",
      "outputs": [
        {
          "internalType": "bool",
          "name": "",
          "type": "bool"
        }
      ],
      "stateMutability": "view",
      "type": "function"
    },
    {
      "inputs": [],
      "name": "totalSupply",
      "outputs": [
        {
          "internalType": "uint256",
          "name": "",
          "type": "uint256"
        }
      ],
      "stateMutability": "view",
      "type": "function"
    },
    {
      "inputs": [
        {
          "internalType": "address",
          "name": "from",
          "type": "address"
        },
        {
          "internalType": "address",
          "name": "to",
          "type": "address"
        },
        {
          "internalType": "uint256",
          "name": "tokenId",
          "type": "uint256"
        }
      ],
      "name": "transferFrom",
      "outputs": [],
      "stateMutability": "nonpayable",
      "type": "function"
    },
    {
      "inputs": [
        {
          "internalType": "address",
          "name": "newOwner",
          "type": "address"
        }
      ],
      "name": "transferOwnership",
      "outputs": [],
      "stateMutability": "nonpayable",
      "type": "function"
    },
    {
      "inputs": [
        {
          "components": [
            {
              "internalType": "uint256",
              "name": "writeBPS",
              "type": "uint256"
            },
            {
              "internalType": "uint256",
              "name": "transferBPS",
              "type": "uint256"
            },
            {
              "internalType": "uint256",
              "name": "fundBPS",
              "type": "uint256"
            },
            {
              "internalType": "uint256",
              "name": "cashBPS",
              "type": "uint256"
            }
          ],
          "internalType": "struct DataTypes.WTFCFees",
          "name": "_fees",
          "type": "tuple"
        }
      ],
      "name": "updateFees",
      "outputs": [],
      "stateMutability": "nonpayable",
      "type": "function"
    },
    {
      "inputs": [
        {
          "internalType": "address",
          "name": "module",
          "type": "address"
        },
        {
          "internalType": "address",
          "name": "token",
          "type": "address"
        }
      ],
      "name": "validWrite",
      "outputs": [
        {
          "internalType": "bool",
          "name": "",
          "type": "bool"
        }
      ],
      "stateMutability": "view",
      "type": "function"
    },
    {
      "inputs": [
        {
          "internalType": "address",
          "name": "module",
          "type": "address"
        },
        {
          "internalType": "bool",
          "name": "bytecodeAccepted",
          "type": "bool"
        },
        {
          "internalType": "bool",
          "name": "addressAccepted",
          "type": "bool"
        }
      ],
      "name": "whitelistModule",
      "outputs": [],
      "stateMutability": "nonpayable",
      "type": "function"
    },
    {
      "inputs": [
        {
          "internalType": "address",
          "name": "_token",
          "type": "address"
        },
        {
          "internalType": "bool",
          "name": "accepted",
          "type": "bool"
        }
      ],
      "name": "whitelistToken",
      "outputs": [],
      "stateMutability": "nonpayable",
      "type": "function"
    },
    {
      "inputs": [
        {
          "internalType": "address",
          "name": "currency",
          "type": "address"
        },
        {
          "internalType": "uint256",
          "name": "escrowed",
          "type": "uint256"
        },
        {
          "internalType": "uint256",
          "name": "instant",
          "type": "uint256"
        },
        {
          "internalType": "address",
          "name": "owner",
          "type": "address"
        },
        {
          "internalType": "address",
          "name": "module",
          "type": "address"
        },
        {
          "internalType": "bytes",
          "name": "moduleWriteData",
          "type": "bytes"
        }
      ],
      "name": "write",
      "outputs": [
        {
          "internalType": "uint256",
          "name": "",
          "type": "uint256"
        }
      ],
      "stateMutability": "payable",
      "type": "function"
    }
  ],
  "bytecode": {
    "object": "0x60806040523480156200001157600080fd5b50604051620032b0380380620032b0833981016040819052620000349162000141565b6040518060400160405280600c81526020016b10da195c541c9bdd1bd8dbdb60a21b815250604051806040016040528060048152602001634348455160e01b815250816000908162000087919062000239565b50600162000096828262000239565b505050620000b3620000ad620000d560201b60201c565b620000d9565b8051600e556020810151600f5560408101516010556060015160115562000305565b3390565b600680546001600160a01b038381166001600160a01b0319831681179093556040519116919082907f8be0079c531659141344cd1fd0a4f28419497f9722a3daafe3b4186f6b6457e090600090a35050565b634e487b7160e01b600052604160045260246000fd5b6000608082840312156200015457600080fd5b604051608081016001600160401b03811182821017156200017957620001796200012b565b8060405250825181526020830151602082015260408301516040820152606083015160608201528091505092915050565b600181811c90821680620001bf57607f821691505b602082108103620001e057634e487b7160e01b600052602260045260246000fd5b50919050565b601f8211156200023457600081815260208120601f850160051c810160208610156200020f5750805b601f850160051c820191505b8181101562000230578281556001016200021b565b5050505b505050565b81516001600160401b038111156200025557620002556200012b565b6200026d81620002668454620001aa565b84620001e6565b602080601f831160018114620002a557600084156200028c5750858301515b600019600386901b1c1916600185901b17855562000230565b600085815260208120601f198616915b82811015620002d657888601518255948401946001909101908401620002b5565b5085821015620002f55787850151600019600388901b60f8161c191681555b5050505050600190811b01905550565b612f9b80620003156000396000f3fe60806040526004361061020f5760003560e01c806395d89b4111610118578063d6a4f84c116100a0578063e985e9c51161006f578063e985e9c514610662578063f2fde38b146106ab578063f7794942146106cb578063fdd90c70146106f8578063ff8507e81461072e57600080fd5b8063d6a4f84c146105cb578063db8d55f1146105eb578063dfd5d81114610609578063e0e295b71461062957600080fd5b8063b88d4fde116100e7578063b88d4fde14610535578063c298c4d214610555578063c87b56dd14610585578063d0d0bb3f146105a5578063d6122058146105b857600080fd5b806395d89b411461049d57806398a9c92b146104b25780639af1d35a146104d2578063a22cb4651461051557600080fd5b806342842e0e1161019b57806353aafb691161016a57806353aafb691461040a5780636352211e1461042a57806370a082311461044a578063715018a61461046a5780638da5cb5b1461047f57600080fd5b806342842e0e1461035c5780634c8065391461037c5780634e289c061461039257806352f37f56146103a557600080fd5b80630ffb1d8b116101e25780630ffb1d8b146102c5578063107e2f3b146102e55780631536beeb1461031257806318160ddd1461034757806323b872dd1461035c57600080fd5b806301ffc9a71461021457806306fdde0314610249578063081812fc1461026b578063095ea7b3146102a3575b600080fd5b34801561022057600080fd5b5061023461022f3660046124d8565b610767565b60405190151581526020015b60405180910390f35b34801561025557600080fd5b5061025e6107b9565b6040516102409190612545565b34801561027757600080fd5b5061028b610286366004612558565b61084b565b6040516001600160a01b039091168152602001610240565b3480156102af57600080fd5b506102c36102be36600461258d565b610872565b005b3480156102d157600080fd5b506102c36102e03660046125c5565b61097f565b3480156102f157600080fd5b506103046103003660046125fc565b3f90565b604051908152602001610240565b34801561031e57600080fd5b5061033261032d366004612617565b6109f5565b60408051928352602083019190915201610240565b34801561035357600080fd5b50600854610304565b34801561036857600080fd5b506102c3610377366004612642565b610b54565b34801561038857600080fd5b5061030460125481565b6102c36103a03660046126c0565b610b6f565b3480156103b157600080fd5b506103f36103c03660046125fc565b6001600160a01b0381166000908152600a6020908152604080832054933f8352600990915290205460ff91821692911690565b604080519215158352901515602083015201610240565b34801561041657600080fd5b506102c3610425366004612728565b610dc1565b34801561043657600080fd5b5061028b610445366004612558565b610eaa565b34801561045657600080fd5b506103046104653660046125fc565b610f0a565b34801561047657600080fd5b506102c3610f90565b34801561048b57600080fd5b506006546001600160a01b031661028b565b3480156104a957600080fd5b5061025e610fa4565b3480156104be57600080fd5b506102c36104cd366004612771565b610fb3565b3480156104de57600080fd5b50600e54600f546010546011546104f59392919084565b604080519485526020850193909352918301526060820152608001610240565b34801561052157600080fd5b506102c36105303660046125c5565b610fd9565b34801561054157600080fd5b506102c36105503660046127f8565b611025565b34801561056157600080fd5b50610304610570366004612558565b60009081526007602052604090206001015490565b34801561059157600080fd5b5061025e6105a0366004612558565b611291565b6103046105b33660046128a3565b6113e6565b6102c36105c636600461292c565b6116f3565b3480156105d757600080fd5b506102c36105e6366004612970565b61192d565b3480156105f757600080fd5b50600e54600f546010546011546104f5565b34801561061557600080fd5b506102346106243660046129ac565b6119c5565b34801561063557600080fd5b5061028b610644366004612558565b6000908152600760205260409020600301546001600160a01b031690565b34801561066e57600080fd5b5061023461067d3660046129ac565b6001600160a01b03918216600090815260056020908152604080832093909416825291909152205460ff1690565b3480156106b757600080fd5b506102c36106c63660046125fc565b6119f8565b3480156106d757600080fd5b506106eb6106e6366004612558565b611a71565b60405161024091906129df565b34801561070457600080fd5b5061028b610713366004612558565b6000908152600760205260409020546001600160a01b031690565b34801561073a57600080fd5b506102346107493660046125fc565b6001600160a01b03166000908152600b602052604090205460ff1690565b60006001600160e01b031982166380ac58cd60e01b148061079857506001600160e01b03198216635b5e139f60e01b145b806107b357506301ffc9a760e01b6001600160e01b03198316145b92915050565b6060600080546107c890612a17565b80601f01602080910402602001604051908101604052809291908181526020018280546107f490612a17565b80156108415780601f1061081657610100808354040283529160200191610841565b820191906000526020600020905b81548152906001019060200180831161082457829003601f168201915b5050505050905090565b600061085682611ae4565b506000908152600460205260409020546001600160a01b031690565b336001600160a01b038316036108bf5760405162461bcd60e51b815260206004820152600d60248201526c14d1531197d054141493d59053609a1b60448201526064015b60405180910390fd5b600081815260076020908152604091829020825160808101845281546001600160a01b03908116825260018301549382019390935260028201549381019390935260030154166060820181905263e41759683361091b85610eaa565b8686866040518663ffffffff1660e01b815260040161093e959493929190612a4b565b600060405180830381600087803b15801561095857600080fd5b505af115801561096c573d6000803e3d6000fd5b5050505061097a8383611b43565b505050565b610987611bb1565b6001600160a01b0382166000818152600b60205260409020805460ff1916831515908117909155907f1bf5ef6ada443138fcac941f79625fe01e92ff514fee9f160bff18363199c7a033604080516001600160a01b0390921682524260208301520160405180910390a35050565b600080600080600080610a13600e54600f5460105460115490919293565b9350935093509350610a236124a4565b6040518060800160405280868152602001858152602001848152602001838152509050600080600080600760008e815260200190815260200160002060030160009054906101000a90046001600160a01b03166001600160a01b031663db8d55f16040518163ffffffff1660e01b8152600401608060405180830381865afa158015610ab3573d6000803e3d6000fd5b505050506040513d601f19601f82011682018060405250810190610ad79190612ac6565b9350935093509350610ae76124a4565b6040518060800160405280868152602001858152602001848152602001838152509050858d60ff1660048110610b1f57610b1f612afc565b6020020151818e60ff1660048110610b3957610b39612afc565b60200201519b509b50505050505050505050505b9250929050565b61097a83838360405180602001604052806000815250611025565b600085815260076020526040812060038101549091906001600160a01b03166306890cd033610b9d8a610eaa565b888a8c888b8b6040518963ffffffff1660e01b8152600401610bc6989796959493929190612b3b565b6020604051808303816000875af1158015610be5573d6000803e3d6000fd5b505050506040513d601f19601f82011682018060405250810190610c099190612bb8565b90506000612710600e6003015488610c219190612be7565b610c2b9190612c06565b90506000612710610c3c848a612be7565b610c469190612c06565b9050600081610c55848b612c28565b610c5f9190612c28565b90508085600101541015610ca85760405162461bcd60e51b815260206004820152601060248201526f10d0539517d0d054d217d05353d5539560821b60448201526064016108b6565b60018501805482900390558454610cc9906001600160a01b0316898b611c0b565b60038501546001600160a01b039081166000908152600c60209081526040808320895490941683529290529081208054849290610d07908490612c28565b909155505084546001600160a01b03166000908152600d602052604081208054859290610d35908490612c28565b9091555050604051610d4a9088908890612c3b565b60405180910390208a610d5a3390565b604080516001600160a01b038d81168252602082018f9052918101889052606081018790524260808201529116907fcc73058e75a01c33a85f65ead2935fe75310b9cb0c7980c2d1a14854db9721539060a00160405180910390a450505050505050505050565b610dc9611bb1565b801515821515141580610de257508180610de05750805b155b610e225760405162461bcd60e51b8152602060048201526011602482015270086829c4ea8be8286868aa0a8be849ea89607b1b60448201526064016108b6565b823f6000908152600960209081526040808320805486151560ff1991821681179092556001600160a01b038816808652600a8552948390208054871515921682179055825191825292810192909252429082015233907fe82584b416ef90b398503af85e6daba1407060c9e2d2050c858719c4f1b076479060600160405180910390a3505050565b6000818152600260205260408120546001600160a01b0316806107b35760405162461bcd60e51b8152602060048201526018602482015277115490cdcc8c4e881a5b9d985b1a59081d1bdad95b88125160421b60448201526064016108b6565b60006001600160a01b038216610f745760405162461bcd60e51b815260206004820152602960248201527f4552433732313a2061646472657373207a65726f206973206e6f7420612076616044820152683634b21037bbb732b960b91b60648201526084016108b6565b506001600160a01b031660009081526003602052604090205490565b610f98611bb1565b610fa26000611c6e565b565b6060600180546107c890612a17565b610fbb611bb1565b8035600e556020810135600f55604081013560105560600135601155565b60405162461bcd60e51b815260206004820152601760248201527f4f50455241544f52535f4e4f545f535550504f5254454400000000000000000060448201526064016108b6565b5050565b600061103083610eaa565b60008481526007602052604081206003810154929350916001600160a01b031663c0c9572c3361105f8861084b565b868b8b8b8960000160009054906101000a90046001600160a01b03168a600101548b600201548e6040518b63ffffffff1660e01b81526004016110ab9a99989796959493929190612c4b565b6020604051808303816000875af11580156110ca573d6000803e3d6000fd5b505050506040513d601f19601f820116820180604052508101906110ee9190612bb8565b60018301549091501561120a576000612710600e6001015484600101546111159190612be7565b61111f9190612c06565b9050818184600101546111329190612cc0565b61113c9190612cc0565b600184015560038301546001600160a01b039081166000908152600c6020908152604080832087549094168352929052908120805484929061117f908490612c28565b909155505082546001600160a01b03166000908152600d6020526040812080548392906111ad908490612c28565b90915550506040805182815260208101849052428183015290516001600160a01b03898116929087169189917f86426a27b67faa69ebf65a2efa816f2db865f93526c68a0be0175c4471275850919081900360600190a45061126d565b856001600160a01b0316836001600160a01b0316867f86426a27b67faa69ebf65a2efa816f2db865f93526c68a0be0175c447127585060008042604051611264939291909283526020830191909152604082015260600190565b60405180910390a45b61128887878760405180602001604052806000815250611cc0565b50505050505050565b606061129c82611ae4565b60006112a783611a71565b9050600081606001516001600160a01b0316634fe17e1a856040518263ffffffff1660e01b81526004016112dd91815260200190565b600060405180830381865afa1580156112fa573d6000803e3d6000fd5b505050506040513d6000823e601f3d908101601f191682016040526113229190810190612cd3565b905080516000036113df578151602083015160608401516040516308feb79360e11b8152736cc614e8a7f83df4a85e4cccace7fcd71576fe9d936311fd6f2693611392938a936004019384526001600160a01b039283166020850152604084019190915216606082015260800190565b600060405180830381865af41580156113af573d6000803e3d6000fd5b505050506040513d6000823e601f3d908101601f191682016040526113d79190810190612cd3565b949350505050565b9392505050565b60006113f284896119c5565b6114305760405162461bcd60e51b815260206004820152600f60248201526e1393d517d5d2125511531254d51151608a1b60448201526064016108b6565b600854604051635aeb80dd60e11b81526000916001600160a01b0387169163b5d701ba9161146e9133918b918f908f908f908d908d90600401612d4a565b6020604051808303816000875af115801561148d573d6000803e3d6000fd5b505050506040513d601f19601f820116820180604052508101906114b19190612bb8565b90506000806114c0898b612c28565b600e54909150612710906114d49083612be7565b6114de9190612c06565b91506000836114ed848d612c28565b6114f79190612c28565b905080156115a1576115146001600160a01b038d16333084611cf9565b6001600160a01b038c166000908152600d60205260408120805485929061153c908490612c28565b9250508190555083600c60008a6001600160a01b03166001600160a01b0316815260200190815260200160002060008e6001600160a01b03166001600160a01b03168152602001908152602001600020600082825461159b9190612c28565b90915550505b89156115bc576115bc6001600160a01b038d16338b8d611cf9565b50506115ca87600854611d31565b8960076000600854815260200190815260200160002060000160006101000a8154816001600160a01b0302191690836001600160a01b03160217905550886007600060085481526020019081526020016000206001018190555042600760006008548152602001908152602001600020600201819055508560076000600854815260200190815260200160002060030160006101000a8154816001600160a01b0302191690836001600160a01b03160217905550856001600160a01b0316876001600160a01b03166008547f970bd92ca4f3ff87f953653e969d30320bf9a9dfbaea8e0efab41f4846e8dfb78b8e8e42888a8e8e6040516116d2989796959493929190612d9e565b60405180910390a45050600880546001810190915598975050505050505050565b60008581526007602052604081209061170b87610eaa565b60038301549091506000906001600160a01b031663be2f3fdd33848a8a8d898c8c6040518963ffffffff1660e01b815260040161174f989796959493929190612dde565b6020604051808303816000875af115801561176e573d6000803e3d6000fd5b505050506040513d601f19601f820116820180604052508101906117929190612bb8565b905060006117a08789612c28565b90506000612710600e60000154836117b89190612be7565b6117c29190612c06565b905060006127106117d38585612be7565b6117dd9190612c06565b90506000816117ec848d612c28565b6117f69190612c28565b90508015611887576118153388546001600160a01b0316903084611cf9565b86546001600160a01b03166000908152600d60205260408120805485929061183e908490612c28565b909155505060038701546001600160a01b039081166000908152600c602090815260408083208b5490941683529290529081208054849290611881908490612c28565b90915550505b89156118a4576118a43388546001600160a01b031690888d611cf9565b88886040516118b4929190612c3b565b60405180910390208c6118c43390565b604080518f8152602081018f9052908101879052606081018690524260808201526001600160a01b0391909116907fadbe4af352c54f09ed95f837f2c7d17bac02ffad06d885343c616d3cbcbccf189060a00160405180910390a4505050505050505050505050565b336000908152600c602090815260408083206001600160a01b038716845290915290205482111561198e5760405162461bcd60e51b815260206004820152600b60248201526a494e5355465f46554e445360a81b60448201526064016108b6565b336000908152600c602090815260408083206001600160a01b03871680855292529091208054849003905561097a90308385611cf9565b60006119d083611d4b565b80156113df5750506001600160a01b03166000908152600b602052604090205460ff16919050565b611a00611bb1565b6001600160a01b038116611a655760405162461bcd60e51b815260206004820152602660248201527f4f776e61626c653a206e6577206f776e657220697320746865207a65726f206160448201526564647265737360d01b60648201526084016108b6565b611a6e81611c6e565b50565b60408051608081018252600080825260208201819052918101829052606081019190915250600090815260076020908152604091829020825160808101845281546001600160a01b0390811682526001830154938201939093526002820154938101939093526003015416606082015290565b6000818152600260205260409020546001600160a01b0316611a6e5760405162461bcd60e51b8152602060048201526018602482015277115490cdcc8c4e881a5b9d985b1a59081d1bdad95b88125160421b60448201526064016108b6565b600081815260046020526040902080546001600160a01b0319166001600160a01b0384169081179091558190611b7882610eaa565b6001600160a01b03167f8c5be1e5ebec7d5bd14f71427d1e84f3dd0314c0f7b2291e5b200ac8c7c3b92560405160405180910390a45050565b6006546001600160a01b03163314610fa25760405162461bcd60e51b815260206004820181905260248201527f4f776e61626c653a2063616c6c6572206973206e6f7420746865206f776e657260448201526064016108b6565b6040516001600160a01b03831660248201526044810182905261097a90849063a9059cbb60e01b906064015b60408051601f198184030181529190526020810180516001600160e01b03166001600160e01b031990931692909217909152611d84565b600680546001600160a01b038381166001600160a01b0319831681179093556040519116919082907f8be0079c531659141344cd1fd0a4f28419497f9722a3daafe3b4186f6b6457e090600090a35050565b611ccb848484611e56565b611cd784848484611fc7565b611cf35760405162461bcd60e51b81526004016108b690612e3b565b50505050565b6040516001600160a01b0380851660248301528316604482015260648101829052611cf39085906323b872dd60e01b90608401611c37565b6110218282604051806020016040528060008152506120c8565b6001600160a01b0381166000908152600a602052604081205460ff16806107b35750503f60009081526009602052604090205460ff1690565b6000611dd9826040518060400160405280602081526020017f5361666545524332303a206c6f772d6c6576656c2063616c6c206661696c6564815250856001600160a01b03166120fb9092919063ffffffff16565b80519091501561097a5780806020019051810190611df79190612e8d565b61097a5760405162461bcd60e51b815260206004820152602a60248201527f5361666545524332303a204552433230206f7065726174696f6e20646964206e6044820152691bdd081cdd58d8d9595960b21b60648201526084016108b6565b826001600160a01b0316611e6982610eaa565b6001600160a01b031614611e8f5760405162461bcd60e51b81526004016108b690612eaa565b6001600160a01b038216611ef15760405162461bcd60e51b8152602060048201526024808201527f4552433732313a207472616e7366657220746f20746865207a65726f206164646044820152637265737360e01b60648201526084016108b6565b611efe838383600161210a565b826001600160a01b0316611f1182610eaa565b6001600160a01b031614611f375760405162461bcd60e51b81526004016108b690612eaa565b600081815260046020908152604080832080546001600160a01b03199081169091556001600160a01b0387811680865260038552838620805460001901905590871680865283862080546001019055868652600290945282852080549092168417909155905184937fddf252ad1be2c89b69c2b068fc378daa952ba7f163c4a11628f55a4df523b3ef91a4505050565b60006001600160a01b0384163b156120bd57604051630a85bd0160e11b81526001600160a01b0385169063150b7a029061200b903390899088908890600401612eef565b6020604051808303816000875af1925050508015612046575060408051601f3d908101601f1916820190925261204391810190612f2c565b60015b6120a3573d808015612074576040519150601f19603f3d011682016040523d82523d6000602084013e612079565b606091505b50805160000361209b5760405162461bcd60e51b81526004016108b690612e3b565b805181602001fd5b6001600160e01b031916630a85bd0160e11b1490506113d7565b506001949350505050565b6120d28383612192565b6120df6000848484611fc7565b61097a5760405162461bcd60e51b81526004016108b690612e3b565b60606113d7848460008561232b565b6001811115611cf3576001600160a01b03841615612150576001600160a01b0384166000908152600360205260408120805483929061214a908490612cc0565b90915550505b6001600160a01b03831615611cf3576001600160a01b03831660009081526003602052604081208054839290612187908490612c28565b909155505050505050565b6001600160a01b0382166121e85760405162461bcd60e51b815260206004820181905260248201527f4552433732313a206d696e7420746f20746865207a65726f206164647265737360448201526064016108b6565b6000818152600260205260409020546001600160a01b03161561224d5760405162461bcd60e51b815260206004820152601c60248201527f4552433732313a20746f6b656e20616c7265616479206d696e7465640000000060448201526064016108b6565b61225b60008383600161210a565b6000818152600260205260409020546001600160a01b0316156122c05760405162461bcd60e51b815260206004820152601c60248201527f4552433732313a20746f6b656e20616c7265616479206d696e7465640000000060448201526064016108b6565b6001600160a01b038216600081815260036020908152604080832080546001019055848352600290915280822080546001600160a01b0319168417905551839291907fddf252ad1be2c89b69c2b068fc378daa952ba7f163c4a11628f55a4df523b3ef908290a45050565b60608247101561238c5760405162461bcd60e51b815260206004820152602660248201527f416464726573733a20696e73756666696369656e742062616c616e636520666f6044820152651c8818d85b1b60d21b60648201526084016108b6565b600080866001600160a01b031685876040516123a89190612f49565b60006040518083038185875af1925050503d80600081146123e5576040519150601f19603f3d011682016040523d82523d6000602084013e6123ea565b606091505b50915091506123fb87838387612406565b979650505050505050565b6060831561247557825160000361246e576001600160a01b0385163b61246e5760405162461bcd60e51b815260206004820152601d60248201527f416464726573733a2063616c6c20746f206e6f6e2d636f6e747261637400000060448201526064016108b6565b50816113d7565b6113d7838381511561248a5781518083602001fd5b8060405162461bcd60e51b81526004016108b69190612545565b60405180608001604052806004906020820280368337509192915050565b6001600160e01b031981168114611a6e57600080fd5b6000602082840312156124ea57600080fd5b81356113df816124c2565b60005b838110156125105781810151838201526020016124f8565b50506000910152565b600081518084526125318160208601602086016124f5565b601f01601f19169290920160200192915050565b6020815260006113df6020830184612519565b60006020828403121561256a57600080fd5b5035919050565b80356001600160a01b038116811461258857600080fd5b919050565b600080604083850312156125a057600080fd5b6125a983612571565b946020939093013593505050565b8015158114611a6e57600080fd5b600080604083850312156125d857600080fd5b6125e183612571565b915060208301356125f1816125b7565b809150509250929050565b60006020828403121561260e57600080fd5b6113df82612571565b6000806040838503121561262a57600080fd5b82359150602083013560ff811681146125f157600080fd5b60008060006060848603121561265757600080fd5b61266084612571565b925061266e60208501612571565b9150604084013590509250925092565b60008083601f84011261269057600080fd5b50813567ffffffffffffffff8111156126a857600080fd5b602083019150836020828501011115610b4d57600080fd5b6000806000806000608086880312156126d857600080fd5b85359450602086013593506126ef60408701612571565b9250606086013567ffffffffffffffff81111561270b57600080fd5b6127178882890161267e565b969995985093965092949392505050565b60008060006060848603121561273d57600080fd5b61274684612571565b92506020840135612756816125b7565b91506040840135612766816125b7565b809150509250925092565b60006080828403121561278357600080fd5b50919050565b634e487b7160e01b600052604160045260246000fd5b604051601f8201601f1916810167ffffffffffffffff811182821017156127c8576127c8612789565b604052919050565b600067ffffffffffffffff8211156127ea576127ea612789565b50601f01601f191660200190565b6000806000806080858703121561280e57600080fd5b61281785612571565b935061282560208601612571565b925060408501359150606085013567ffffffffffffffff81111561284857600080fd5b8501601f8101871361285957600080fd5b803561286c612867826127d0565b61279f565b81815288602083850101111561288157600080fd5b8160208401602083013760006020838301015280935050505092959194509250565b600080600080600080600060c0888a0312156128be57600080fd5b6128c788612571565b965060208801359550604088013594506128e360608901612571565b93506128f160808901612571565b925060a088013567ffffffffffffffff81111561290d57600080fd5b6129198a828b0161267e565b989b979a50959850939692959293505050565b60008060008060006080868803121561294457600080fd5b853594506020860135935060408601359250606086013567ffffffffffffffff81111561270b57600080fd5b60008060006060848603121561298557600080fd5b61298e84612571565b9250602084013591506129a360408501612571565b90509250925092565b600080604083850312156129bf57600080fd5b6129c883612571565b91506129d660208401612571565b90509250929050565b608081016107b3828480516001600160a01b039081168352602080830151908401526040808301519084015260609182015116910152565b600181811c90821680612a2b57607f821691505b60208210810361278357634e487b7160e01b600052602260045260246000fd5b6001600160a01b038681168252858116602083015284166040820152606081018390526000610120612aaa608084018580516001600160a01b039081168352602080830151908401526040808301519084015260609182015116910152565b6101008301819052600090830152506101400195945050505050565b60008060008060808587031215612adc57600080fd5b505082516020840151604085015160609095015191969095509092509050565b634e487b7160e01b600052603260045260246000fd5b81835281816020850137506000828201602090810191909152601f909101601f19169091010190565b6001600160a01b0389811682528881166020830152878116604083015260608201879052608082018690528454811660a0830152600185015460c0830152600285015460e083015260038501541661010082015260006101405b80610120840152612ba98184018587612b12565b9b9a5050505050505050505050565b600060208284031215612bca57600080fd5b5051919050565b634e487b7160e01b600052601160045260246000fd5b6000816000190483118215151615612c0157612c01612bd1565b500290565b600082612c2357634e487b7160e01b600052601260045260246000fd5b500490565b808201808211156107b3576107b3612bd1565b8183823760009101908152919050565b6001600160a01b038b811682528a8116602083015289811660408301528881166060830152878116608083015260a08201879052851660c082015260e0810184905261010081018390526101406101208201819052600090612caf83820185612519565b9d9c50505050505050505050505050565b818103818111156107b3576107b3612bd1565b600060208284031215612ce557600080fd5b815167ffffffffffffffff811115612cfc57600080fd5b8201601f81018413612d0d57600080fd5b8051612d1b612867826127d0565b818152856020838501011115612d3057600080fd5b612d418260208301602086016124f5565b95945050505050565b600060018060a01b03808b168352808a1660208401528860408401528088166060840152508560808301528460a083015260e060c0830152612d9060e083018486612b12565b9a9950505050505050505050565b88815260018060a01b03881660208201528660408201528560608201528460808201528360a082015260e060c08201526000612d9060e083018486612b12565b6001600160a01b03898116825288811660208301526040820188905260608201879052608082018690528454811660a0830152600185015460c0830152600285015460e08301526003850154166101008201526000610140612b95565b60208082526032908201527f4552433732313a207472616e7366657220746f206e6f6e20455243373231526560408201527131b2b4bb32b91034b6b83632b6b2b73a32b960711b606082015260800190565b600060208284031215612e9f57600080fd5b81516113df816125b7565b60208082526025908201527f4552433732313a207472616e736665722066726f6d20696e636f72726563742060408201526437bbb732b960d91b606082015260800190565b6001600160a01b0385811682528416602082015260408101839052608060608201819052600090612f2290830184612519565b9695505050505050565b600060208284031215612f3e57600080fd5b81516113df816124c2565b60008251612f5b8184602087016124f5565b919091019291505056fea2646970667358221220b9d4f43d4feea18a18e49213b0336e3efcad97d38547625fe8b6161242155a7164736f6c63430008100033",
    "linkReferences": {}
  },
  "methodIdentifiers": {
    "_returnCodeHash(address)": "107e2f3b",
    "_writeFlatFee()": "4c806539",
    "approve(address,uint256)": "095ea7b3",
    "balanceOf(address)": "70a08231",
    "cash(uint256,uint256,address,bytes)": "4e289c06",
    "cheqCurrency(uint256)": "fdd90c70",
    "cheqEscrowed(uint256)": "c298c4d2",
    "cheqInfo(uint256)": "f7794942",
    "cheqModule(uint256)": "e0e295b7",
    "fees()": "9af1d35a",
    "fund(uint256,uint256,uint256,bytes)": "d6122058",
    "getApproved(uint256)": "081812fc",
    "getFees()": "db8d55f1",
    "getTotalFees(uint256,uint8)": "1536beeb",
    "isApprovedForAll(address,address)": "e985e9c5",
    "moduleWhitelisted(address)": "52f37f56",
    "moduleWithdraw(address,uint256,address)": "d6a4f84c",
    "name()": "06fdde03",
    "owner()": "8da5cb5b",
    "ownerOf(uint256)": "6352211e",
    "renounceOwnership()": "715018a6",
    "safeTransferFrom(address,address,uint256)": "42842e0e",
    "safeTransferFrom(address,address,uint256,bytes)": "b88d4fde",
    "setApprovalForAll(address,bool)": "a22cb465",
    "supportsInterface(bytes4)": "01ffc9a7",
    "symbol()": "95d89b41",
    "tokenURI(uint256)": "c87b56dd",
    "tokenWhitelisted(address)": "ff8507e8",
    "totalSupply()": "18160ddd",
    "transferFrom(address,address,uint256)": "23b872dd",
    "transferOwnership(address)": "f2fde38b",
    "updateFees((uint256,uint256,uint256,uint256))": "98a9c92b",
    "validWrite(address,address)": "dfd5d811",
    "whitelistModule(address,bool,bool)": "53aafb69",
    "whitelistToken(address,bool)": "0ffb1d8b",
    "write(address,uint256,uint256,address,address,bytes)": "d0d0bb3f"
  },
  "id": 34
}