{
  "abi": [
    {
      "inputs": [
        {
          "internalType": "address",
          "name": "",
          "type": "address"
        },
        {
          "internalType": "address",
          "name": "",
          "type": "address"
        },
        {
          "internalType": "address",
          "name": "",
          "type": "address"
        },
        {
          "internalType": "uint256",
          "name": "",
          "type": "uint256"
        },
        {
          "components": [
            {
              "internalType": "address",
              "name": "currency",
              "type": "address"
            },
            {
              "internalType": "uint256",
              "name": "amount",
              "type": "uint256"
            },
            {
              "internalType": "uint256",
              "name": "escrowed",
              "type": "uint256"
            },
            {
              "internalType": "address",
              "name": "drawer",
              "type": "address"
            },
            {
              "internalType": "address",
              "name": "recipient",
              "type": "address"
            },
            {
              "internalType": "address",
              "name": "module",
              "type": "address"
            },
            {
              "internalType": "uint256",
              "name": "mintTimestamp",
              "type": "uint256"
            }
          ],
          "internalType": "struct DataTypes.Cheq",
          "name": "",
          "type": "tuple"
        },
        {
          "internalType": "bytes",
          "name": "",
          "type": "bytes"
        }
      ],
      "name": "canApprove",
      "outputs": [],
      "stateMutability": "pure",
      "type": "function"
    },
    {
      "inputs": [
        {
          "internalType": "address",
          "name": "caller",
          "type": "address"
        },
        {
          "internalType": "address",
          "name": "owner",
          "type": "address"
        },
        {
          "internalType": "address",
          "name": "",
          "type": "address"
        },
        {
          "internalType": "uint256",
          "name": "amount",
          "type": "uint256"
        },
        {
          "internalType": "uint256",
          "name": "",
          "type": "uint256"
        },
        {
          "components": [
            {
              "internalType": "address",
              "name": "currency",
              "type": "address"
            },
            {
              "internalType": "uint256",
              "name": "amount",
              "type": "uint256"
            },
            {
              "internalType": "uint256",
              "name": "escrowed",
              "type": "uint256"
            },
            {
              "internalType": "address",
              "name": "drawer",
              "type": "address"
            },
            {
              "internalType": "address",
              "name": "recipient",
              "type": "address"
            },
            {
              "internalType": "address",
              "name": "module",
              "type": "address"
            },
            {
              "internalType": "uint256",
              "name": "mintTimestamp",
              "type": "uint256"
            }
          ],
          "internalType": "struct DataTypes.Cheq",
          "name": "cheq",
          "type": "tuple"
        },
        {
          "internalType": "bytes",
          "name": "",
          "type": "bytes"
        }
      ],
      "name": "canCash",
      "outputs": [],
      "stateMutability": "pure",
      "type": "function"
    },
    {
      "inputs": [
        {
          "internalType": "address",
          "name": "caller",
          "type": "address"
        },
        {
          "internalType": "address",
          "name": "owner",
          "type": "address"
        },
        {
          "internalType": "uint256",
          "name": "amount",
          "type": "uint256"
        },
        {
          "internalType": "uint256",
          "name": "directAmount",
          "type": "uint256"
        },
        {
          "internalType": "uint256",
          "name": "",
          "type": "uint256"
        },
        {
          "components": [
            {
              "internalType": "address",
              "name": "currency",
              "type": "address"
            },
            {
              "internalType": "uint256",
              "name": "amount",
              "type": "uint256"
            },
            {
              "internalType": "uint256",
              "name": "escrowed",
              "type": "uint256"
            },
            {
              "internalType": "address",
              "name": "drawer",
              "type": "address"
            },
            {
              "internalType": "address",
              "name": "recipient",
              "type": "address"
            },
            {
              "internalType": "address",
              "name": "module",
              "type": "address"
            },
            {
              "internalType": "uint256",
              "name": "mintTimestamp",
              "type": "uint256"
            }
          ],
          "internalType": "struct DataTypes.Cheq",
          "name": "cheq",
          "type": "tuple"
        },
        {
          "internalType": "bytes",
          "name": "",
          "type": "bytes"
        }
      ],
      "name": "canFund",
      "outputs": [],
      "stateMutability": "pure",
      "type": "function"
    },
    {
      "inputs": [
        {
          "internalType": "address",
          "name": "caller",
          "type": "address"
        },
        {
          "internalType": "bool",
          "name": "isApproved",
          "type": "bool"
        },
        {
          "internalType": "address",
          "name": "owner",
          "type": "address"
        },
        {
          "internalType": "address",
          "name": "",
          "type": "address"
        },
        {
          "internalType": "address",
          "name": "to",
          "type": "address"
        },
        {
          "internalType": "uint256",
          "name": "",
          "type": "uint256"
        },
        {
          "components": [
            {
              "internalType": "address",
              "name": "currency",
              "type": "address"
            },
            {
              "internalType": "uint256",
              "name": "amount",
              "type": "uint256"
            },
            {
              "internalType": "uint256",
              "name": "escrowed",
              "type": "uint256"
            },
            {
              "internalType": "address",
              "name": "drawer",
              "type": "address"
            },
            {
              "internalType": "address",
              "name": "recipient",
              "type": "address"
            },
            {
              "internalType": "address",
              "name": "module",
              "type": "address"
            },
            {
              "internalType": "uint256",
              "name": "mintTimestamp",
              "type": "uint256"
            }
          ],
          "internalType": "struct DataTypes.Cheq",
          "name": "cheq",
          "type": "tuple"
        },
        {
          "internalType": "bytes",
          "name": "",
          "type": "bytes"
        }
      ],
      "name": "canTransfer",
      "outputs": [],
      "stateMutability": "pure",
      "type": "function"
    },
    {
      "inputs": [
        {
          "internalType": "address",
          "name": "caller",
          "type": "address"
        },
        {
          "internalType": "address",
          "name": "owner",
          "type": "address"
        },
        {
          "internalType": "uint256",
          "name": "",
          "type": "uint256"
        },
        {
          "components": [
            {
              "internalType": "address",
              "name": "currency",
              "type": "address"
            },
            {
              "internalType": "uint256",
              "name": "amount",
              "type": "uint256"
            },
            {
              "internalType": "uint256",
              "name": "escrowed",
              "type": "uint256"
            },
            {
              "internalType": "address",
              "name": "drawer",
              "type": "address"
            },
            {
              "internalType": "address",
              "name": "recipient",
              "type": "address"
            },
            {
              "internalType": "address",
              "name": "module",
              "type": "address"
            },
            {
              "internalType": "uint256",
              "name": "mintTimestamp",
              "type": "uint256"
            }
          ],
          "internalType": "struct DataTypes.Cheq",
          "name": "cheq",
          "type": "tuple"
        },
        {
          "internalType": "uint256",
          "name": "directAmount",
          "type": "uint256"
        },
        {
          "internalType": "bytes",
          "name": "",
          "type": "bytes"
        }
      ],
      "name": "canWrite",
      "outputs": [],
      "stateMutability": "pure",
      "type": "function"
    }
  ],
  "bytecode": {
    "object": "0x608060405234801561001057600080fd5b506109d0806100206000396000f3fe608060405234801561001057600080fd5b50600436106100575760003560e01c806326c41e5c1461005c578063275ecee11461007157806353ba2df31461007f5780638893ae9d1461008d578063a730617c146100a0575b600080fd5b61006f61006a366004610612565b6100b3565b005b61006f61006a366004610783565b61006f61006a366004610816565b61006f61009b3660046108b2565b610106565b61006f6100ae366004610920565b610441565b60405162461bcd60e51b815260206004820152601060248201526f149d5b194e88111a5cd85b1b1bddd95960821b60448201526064015b60405180910390fd5b5050505050505050565b50505050505050565b6040840135156101585760405162461bcd60e51b815260206004820152601d60248201527f52756c653a20457363726f77696e67206e6f7420737570706f7274656400000060448201526064016100ea565b83602001356000036101a05760405162461bcd60e51b8152602060048201526011602482015270052756c653a20416d6f756e74203d3d203607c1b60448201526064016100ea565b836020013583146101ea5760405162461bcd60e51b8152602060048201526014602482015273149d5b194e88135d5cdd081cd95b9908199d5b1b60621b60448201526064016100ea565b6101fa60a0850160808601610978565b6001600160a01b03166102136080860160608701610978565b6001600160a01b0316036102695760405162461bcd60e51b815260206004820152601960248201527f52756c653a20447261776572203d3d20726563697069656e740000000000000060448201526064016100ea565b6102796080850160608601610978565b6001600160a01b0316876001600160a01b031614806102b857506102a360a0850160808601610978565b6001600160a01b0316876001600160a01b0316145b6103045760405162461bcd60e51b815260206004820152601a60248201527f52756c653a204f6e6c79206472617765722f726563656976657200000000000060448201526064016100ea565b6103146080850160608601610978565b6001600160a01b0316866001600160a01b03161480610353575061033e60a0850160808601610978565b6001600160a01b0316866001600160a01b0316145b61039f5760405162461bcd60e51b815260206004820152601f60248201527f52756c653a204472617765722f726563697069656e7420213d206f776e65720060448201526064016100ea565b60006103b160a0860160808701610978565b6001600160a01b0316141580156103d057506001600160a01b03861615155b80156103f5575060006103e96080860160608701610978565b6001600160a01b031614155b6100fd5760405162461bcd60e51b815260206004820152601c60248201527f52756c653a2043616e277420757365207a65726f20616464726573730000000060448201526064016100ea565b85156104875760405162461bcd60e51b815260206004820152601560248201527452756c653a204f6e6c79206469726563742070617960581b60448201526064016100ea565b826020013585146104da5760405162461bcd60e51b815260206004820152601d60248201527f52756c653a204f6e6c792066756c6c2064697265637420616d6f756e7400000060448201526064016100ea565b6104ea60a0840160808501610978565b6001600160a01b0316886001600160a01b0316148061052957506105146080840160608501610978565b6001600160a01b0316886001600160a01b0316145b6105755760405162461bcd60e51b815260206004820152601b60248201527f52756c653a204f6e6c79206472617765722f726563697069656e74000000000060448201526064016100ea565b866001600160a01b0316886001600160a01b0316036100f35760405162461bcd60e51b815260206004820152600f60248201526e293ab6329d102737ba1037bbb732b960891b60448201526064016100ea565b80356001600160a01b03811681146105df57600080fd5b919050565b600060e082840312156105f657600080fd5b50919050565b634e487b7160e01b600052604160045260246000fd5b6000806000806000806000806101c0898b03121561062f57600080fd5b610638896105c8565b97506020890135801515811461064d57600080fd5b965061065b60408a016105c8565b955061066960608a016105c8565b945061067760808a016105c8565b935060a0890135925061068d8a60c08b016105e4565b91506101a089013567ffffffffffffffff808211156106ab57600080fd5b818b0191508b601f8301126106bf57600080fd5b8135818111156106d1576106d16105fc565b604051601f8201601f19908116603f011681019083821181831017156106f9576106f96105fc565b816040528281528e602084870101111561071257600080fd5b8260208601602083013760006020848301015280955050505050509295985092959890939650565b60008083601f84011261074c57600080fd5b50813567ffffffffffffffff81111561076457600080fd5b60208301915083602082850101111561077c57600080fd5b9250929050565b6000806000806000806000610180888a03121561079f57600080fd5b6107a8886105c8565b96506107b6602089016105c8565b95506107c4604089016105c8565b9450606088013593506107da8960808a016105e4565b925061016088013567ffffffffffffffff8111156107f757600080fd5b6108038a828b0161073a565b989b979a50959850939692959293505050565b6000806000806000806000806101a0898b03121561083357600080fd5b61083c896105c8565b975061084a60208a016105c8565b965061085860408a016105c8565b955060608901359450608089013593506108758a60a08b016105e4565b925061018089013567ffffffffffffffff81111561089257600080fd5b61089e8b828c0161073a565b999c989b5096995094979396929594505050565b6000806000806000806000610180888a0312156108ce57600080fd5b6108d7886105c8565b96506108e5602089016105c8565b9550604088013594506108fb8960608a016105e4565b9350610140880135925061016088013567ffffffffffffffff8111156107f757600080fd5b6000806000806000806000806101a0898b03121561093d57600080fd5b610946896105c8565b975061095460208a016105c8565b96506040890135955060608901359450608089013593506108758a60a08b016105e4565b60006020828403121561098a57600080fd5b610993826105c8565b939250505056fea264697066735822122082c32b24339c3b3b640a6809ab96c71df7a549d6dd82fdf19fa0a0c45aa0512264736f6c63430008100033",
    "linkReferences": {}
  },
  "methodIdentifiers": {
    "canApprove(address,address,address,uint256,(address,uint256,uint256,address,address,address,uint256),bytes)": "275ecee1",
    "canCash(address,address,address,uint256,uint256,(address,uint256,uint256,address,address,address,uint256),bytes)": "53ba2df3",
    "canFund(address,address,uint256,uint256,uint256,(address,uint256,uint256,address,address,address,uint256),bytes)": "a730617c",
    "canTransfer(address,bool,address,address,address,uint256,(address,uint256,uint256,address,address,address,uint256),bytes)": "26c41e5c",
    "canWrite(address,address,uint256,(address,uint256,uint256,address,address,address,uint256),uint256,bytes)": "8893ae9d"
  },
  "id": 41
}