{
  "abi": [
    {
      "inputs": [
        {
          "internalType": "address",
          "name": "",
          "type": "address"
        },
        {
          "internalType": "address",
          "name": "",
          "type": "address"
        },
        {
          "internalType": "address",
          "name": "",
          "type": "address"
        },
        {
          "internalType": "uint256",
          "name": "",
          "type": "uint256"
        },
        {
          "components": [
            {
              "internalType": "address",
              "name": "currency",
              "type": "address"
            },
            {
              "internalType": "uint256",
              "name": "escrowed",
              "type": "uint256"
            },
            {
              "internalType": "uint256",
              "name": "createdAt",
              "type": "uint256"
            },
            {
              "internalType": "address",
              "name": "module",
              "type": "address"
            }
          ],
          "internalType": "struct DataTypes.Cheq",
          "name": "",
          "type": "tuple"
        },
        {
          "internalType": "bytes",
          "name": "",
          "type": "bytes"
        }
      ],
      "name": "canApprove",
      "outputs": [],
      "stateMutability": "pure",
      "type": "function"
    },
    {
      "inputs": [
        {
          "internalType": "address",
          "name": "caller",
          "type": "address"
        },
        {
          "internalType": "address",
          "name": "owner",
          "type": "address"
        },
        {
          "internalType": "address",
          "name": "",
          "type": "address"
        },
        {
          "internalType": "uint256",
          "name": "amount",
          "type": "uint256"
        },
        {
          "internalType": "uint256",
          "name": "",
          "type": "uint256"
        },
        {
          "components": [
            {
              "internalType": "address",
              "name": "currency",
              "type": "address"
            },
            {
              "internalType": "uint256",
              "name": "escrowed",
              "type": "uint256"
            },
            {
              "internalType": "uint256",
              "name": "createdAt",
              "type": "uint256"
            },
            {
              "internalType": "address",
              "name": "module",
              "type": "address"
            }
          ],
          "internalType": "struct DataTypes.Cheq",
          "name": "cheq",
          "type": "tuple"
        },
        {
          "internalType": "bytes",
          "name": "",
          "type": "bytes"
        }
      ],
      "name": "canCash",
      "outputs": [],
      "stateMutability": "pure",
      "type": "function"
    },
    {
      "inputs": [
        {
          "internalType": "address",
          "name": "caller",
          "type": "address"
        },
        {
          "internalType": "address",
          "name": "owner",
          "type": "address"
        },
        {
          "internalType": "uint256",
          "name": "amount",
          "type": "uint256"
        },
        {
          "internalType": "uint256",
          "name": "instant",
          "type": "uint256"
        },
        {
          "internalType": "uint256",
          "name": "",
          "type": "uint256"
        },
        {
          "components": [
            {
              "internalType": "address",
              "name": "currency",
              "type": "address"
            },
            {
              "internalType": "uint256",
              "name": "escrowed",
              "type": "uint256"
            },
            {
              "internalType": "uint256",
              "name": "createdAt",
              "type": "uint256"
            },
            {
              "internalType": "address",
              "name": "module",
              "type": "address"
            }
          ],
          "internalType": "struct DataTypes.Cheq",
          "name": "cheq",
          "type": "tuple"
        },
        {
          "internalType": "bytes",
          "name": "",
          "type": "bytes"
        }
      ],
      "name": "canFund",
      "outputs": [],
      "stateMutability": "pure",
      "type": "function"
    },
    {
      "inputs": [
        {
          "internalType": "address",
          "name": "caller",
          "type": "address"
        },
        {
          "internalType": "address",
          "name": "approved",
          "type": "address"
        },
        {
          "internalType": "address",
          "name": "owner",
          "type": "address"
        },
        {
          "internalType": "address",
          "name": "",
          "type": "address"
        },
        {
          "internalType": "address",
          "name": "to",
          "type": "address"
        },
        {
          "internalType": "uint256",
          "name": "",
          "type": "uint256"
        },
        {
          "components": [
            {
              "internalType": "address",
              "name": "currency",
              "type": "address"
            },
            {
              "internalType": "uint256",
              "name": "escrowed",
              "type": "uint256"
            },
            {
              "internalType": "uint256",
              "name": "createdAt",
              "type": "uint256"
            },
            {
              "internalType": "address",
              "name": "module",
              "type": "address"
            }
          ],
          "internalType": "struct DataTypes.Cheq",
          "name": "cheq",
          "type": "tuple"
        },
        {
          "internalType": "bytes",
          "name": "",
          "type": "bytes"
        }
      ],
      "name": "canTransfer",
      "outputs": [],
      "stateMutability": "pure",
      "type": "function"
    },
    {
      "inputs": [
        {
          "internalType": "address",
          "name": "caller",
          "type": "address"
        },
        {
          "internalType": "address",
          "name": "owner",
          "type": "address"
        },
        {
          "internalType": "uint256",
          "name": "",
          "type": "uint256"
        },
        {
          "internalType": "address",
          "name": "currency",
          "type": "address"
        },
        {
          "internalType": "uint256",
          "name": "escrowed",
          "type": "uint256"
        },
        {
          "internalType": "uint256",
          "name": "instant",
          "type": "uint256"
        },
        {
          "internalType": "bytes",
          "name": "",
          "type": "bytes"
        }
      ],
      "name": "canWrite",
      "outputs": [],
      "stateMutability": "pure",
      "type": "function"
    }
  ],
  "bytecode": {
    "object": "0x608060405234801561001057600080fd5b5061054f806100206000396000f3fe608060405234801561001057600080fd5b50600436106100665760003560e01c806354b6a7db1161005057806354b6a7db14610098578063741c9639146100a6578063a81fc395146100b457600080fd5b806255d86e1461006b57806306d25e6114610085575b600080fd5b61008361007936600461019a565b5050505050505050565b005b610083610093366004610244565b6100c2565b610083610093366004610306565b610083610079366004610445565b6100836100933660046104ba565b6040517f08c379a000000000000000000000000000000000000000000000000000000000815260206004820152601060248201527f52756c653a20446973616c6c6f77656400000000000000000000000000000000604482015260640160405180910390fd5b803573ffffffffffffffffffffffffffffffffffffffff8116811461014c57600080fd5b919050565b60008083601f84011261016357600080fd5b50813567ffffffffffffffff81111561017b57600080fd5b60208301915083602082850101111561019357600080fd5b9250929050565b60008060008060008060008060e0898b0312156101b657600080fd5b6101bf89610128565b97506101cd60208a01610128565b9650604089013595506101e260608a01610128565b94506080890135935060a0890135925060c089013567ffffffffffffffff81111561020c57600080fd5b6102188b828c01610151565b999c989b5096995094979396929594505050565b60006080828403121561023e57600080fd5b50919050565b6000806000806000806000610120888a03121561026057600080fd5b61026988610128565b965061027760208901610128565b955061028560408901610128565b94506060880135935061029b8960808a0161022c565b925061010088013567ffffffffffffffff8111156102b857600080fd5b6102c48a828b01610151565b989b979a50959850939692959293505050565b7f4e487b7100000000000000000000000000000000000000000000000000000000600052604160045260246000fd5b600080600080600080600080610160898b03121561032357600080fd5b61032c89610128565b975061033a60208a01610128565b965061034860408a01610128565b955061035660608a01610128565b945061036460808a01610128565b935060a0890135925061037a8a60c08b0161022c565b915061014089013567ffffffffffffffff8082111561039857600080fd5b818b0191508b601f8301126103ac57600080fd5b8135818111156103be576103be6102d7565b604051601f82017fffffffffffffffffffffffffffffffffffffffffffffffffffffffffffffffe0908116603f01168101908382118183101715610404576104046102d7565b816040528281528e602084870101111561041d57600080fd5b8260208601602083013760006020848301015280955050505050509295985092959890939650565b600080600080600080600080610140898b03121561046257600080fd5b61046b89610128565b975061047960208a01610128565b965060408901359550606089013594506080890135935061049d8a60a08b0161022c565b925061012089013567ffffffffffffffff81111561020c57600080fd5b600080600080600080600080610140898b0312156104d757600080fd5b6104e089610128565b97506104ee60208a01610128565b96506104fc60408a01610128565b9550606089013594506080890135935061049d8a60a08b0161022c56fea26469706673582212204c2df304ed51d63b423934f73fb394abd88e54a9b216db94fd51d0edd31a2e5f64736f6c63430008100033",
    "linkReferences": {}
  },
  "methodIdentifiers": {
    "canApprove(address,address,address,uint256,(address,uint256,uint256,address),bytes)": "06d25e61",
    "canCash(address,address,address,uint256,uint256,(address,uint256,uint256,address),bytes)": "a81fc395",
    "canFund(address,address,uint256,uint256,uint256,(address,uint256,uint256,address),bytes)": "741c9639",
    "canTransfer(address,address,address,address,address,uint256,(address,uint256,uint256,address),bytes)": "54b6a7db",
    "canWrite(address,address,uint256,address,uint256,uint256,bytes)": "0055d86e"
  },
  "id": 66
}