{
  "abi": [
    {
      "inputs": [
        {
          "internalType": "address",
          "name": "",
          "type": "address"
        },
        {
          "internalType": "address",
          "name": "",
          "type": "address"
        },
        {
          "internalType": "address",
          "name": "",
          "type": "address"
        },
        {
          "internalType": "uint256",
          "name": "",
          "type": "uint256"
        },
        {
          "components": [
            {
              "internalType": "address",
              "name": "currency",
              "type": "address"
            },
            {
              "internalType": "uint256",
              "name": "escrowed",
              "type": "uint256"
            },
            {
              "internalType": "uint256",
              "name": "createdAt",
              "type": "uint256"
            },
            {
              "internalType": "address",
              "name": "module",
              "type": "address"
            }
          ],
          "internalType": "struct DataTypes.Cheq",
          "name": "",
          "type": "tuple"
        },
        {
          "internalType": "bytes",
          "name": "",
          "type": "bytes"
        }
      ],
      "name": "canApprove",
      "outputs": [],
      "stateMutability": "pure",
      "type": "function"
    },
    {
      "inputs": [
        {
          "internalType": "address",
          "name": "caller",
          "type": "address"
        },
        {
          "internalType": "address",
          "name": "owner",
          "type": "address"
        },
        {
          "internalType": "address",
          "name": "",
          "type": "address"
        },
        {
          "internalType": "uint256",
          "name": "amount",
          "type": "uint256"
        },
        {
          "internalType": "uint256",
          "name": "",
          "type": "uint256"
        },
        {
          "components": [
            {
              "internalType": "address",
              "name": "currency",
              "type": "address"
            },
            {
              "internalType": "uint256",
              "name": "escrowed",
              "type": "uint256"
            },
            {
              "internalType": "uint256",
              "name": "createdAt",
              "type": "uint256"
            },
            {
              "internalType": "address",
              "name": "module",
              "type": "address"
            }
          ],
          "internalType": "struct DataTypes.Cheq",
          "name": "cheq",
          "type": "tuple"
        },
        {
          "internalType": "bytes",
          "name": "",
          "type": "bytes"
        }
      ],
      "name": "canCash",
      "outputs": [],
      "stateMutability": "pure",
      "type": "function"
    },
    {
      "inputs": [
        {
          "internalType": "address",
          "name": "caller",
          "type": "address"
        },
        {
          "internalType": "address",
          "name": "owner",
          "type": "address"
        },
        {
          "internalType": "uint256",
          "name": "amount",
          "type": "uint256"
        },
        {
          "internalType": "uint256",
          "name": "instant",
          "type": "uint256"
        },
        {
          "internalType": "uint256",
          "name": "",
          "type": "uint256"
        },
        {
          "components": [
            {
              "internalType": "address",
              "name": "currency",
              "type": "address"
            },
            {
              "internalType": "uint256",
              "name": "escrowed",
              "type": "uint256"
            },
            {
              "internalType": "uint256",
              "name": "createdAt",
              "type": "uint256"
            },
            {
              "internalType": "address",
              "name": "module",
              "type": "address"
            }
          ],
          "internalType": "struct DataTypes.Cheq",
          "name": "cheq",
          "type": "tuple"
        },
        {
          "internalType": "bytes",
          "name": "",
          "type": "bytes"
        }
      ],
      "name": "canFund",
      "outputs": [],
      "stateMutability": "pure",
      "type": "function"
    },
    {
      "inputs": [
        {
          "internalType": "address",
          "name": "caller",
          "type": "address"
        },
        {
          "internalType": "address",
          "name": "approved",
          "type": "address"
        },
        {
          "internalType": "address",
          "name": "owner",
          "type": "address"
        },
        {
          "internalType": "address",
          "name": "",
          "type": "address"
        },
        {
          "internalType": "address",
          "name": "to",
          "type": "address"
        },
        {
          "internalType": "uint256",
          "name": "",
          "type": "uint256"
        },
        {
          "components": [
            {
              "internalType": "address",
              "name": "currency",
              "type": "address"
            },
            {
              "internalType": "uint256",
              "name": "escrowed",
              "type": "uint256"
            },
            {
              "internalType": "uint256",
              "name": "createdAt",
              "type": "uint256"
            },
            {
              "internalType": "address",
              "name": "module",
              "type": "address"
            }
          ],
          "internalType": "struct DataTypes.Cheq",
          "name": "cheq",
          "type": "tuple"
        },
        {
          "internalType": "bytes",
          "name": "",
          "type": "bytes"
        }
      ],
      "name": "canTransfer",
      "outputs": [],
      "stateMutability": "pure",
      "type": "function"
    },
    {
      "inputs": [
        {
          "internalType": "address",
          "name": "caller",
          "type": "address"
        },
        {
          "internalType": "address",
          "name": "owner",
          "type": "address"
        },
        {
          "internalType": "uint256",
          "name": "",
          "type": "uint256"
        },
        {
          "internalType": "address",
          "name": "currency",
          "type": "address"
        },
        {
          "internalType": "uint256",
          "name": "escrowed",
          "type": "uint256"
        },
        {
          "internalType": "uint256",
          "name": "instant",
          "type": "uint256"
        },
        {
          "internalType": "bytes",
          "name": "",
          "type": "bytes"
        }
      ],
      "name": "canWrite",
      "outputs": [],
      "stateMutability": "pure",
      "type": "function"
    }
  ],
  "bytecode": {
    "object": "0x608060405234801561001057600080fd5b506104d4806100206000396000f3fe608060405234801561001057600080fd5b50600436106100565760003560e01c806255d86e1461005b57806306d25e611461007557806354b6a7db14610088578063741c963914610096578063a81fc395146100a4575b600080fd5b610073610069366004610156565b5050505050505050565b005b610073610083366004610200565b6100b2565b6100736100833660046102a9565b6100736100693660046103ca565b61007361008336600461043f565b60405162461bcd60e51b815260206004820152601060248201526f149d5b194e88111a5cd85b1b1bddd95960821b604482015260640160405180910390fd5b80356001600160a01b038116811461010857600080fd5b919050565b60008083601f84011261011f57600080fd5b50813567ffffffffffffffff81111561013757600080fd5b60208301915083602082850101111561014f57600080fd5b9250929050565b60008060008060008060008060e0898b03121561017257600080fd5b61017b896100f1565b975061018960208a016100f1565b96506040890135955061019e60608a016100f1565b94506080890135935060a0890135925060c089013567ffffffffffffffff8111156101c857600080fd5b6101d48b828c0161010d565b999c989b5096995094979396929594505050565b6000608082840312156101fa57600080fd5b50919050565b6000806000806000806000610120888a03121561021c57600080fd5b610225886100f1565b9650610233602089016100f1565b9550610241604089016100f1565b9450606088013593506102578960808a016101e8565b925061010088013567ffffffffffffffff81111561027457600080fd5b6102808a828b0161010d565b989b979a50959850939692959293505050565b634e487b7160e01b600052604160045260246000fd5b600080600080600080600080610160898b0312156102c657600080fd5b6102cf896100f1565b97506102dd60208a016100f1565b96506102eb60408a016100f1565b95506102f960608a016100f1565b945061030760808a016100f1565b935060a0890135925061031d8a60c08b016101e8565b915061014089013567ffffffffffffffff8082111561033b57600080fd5b818b0191508b601f83011261034f57600080fd5b81358181111561036157610361610293565b604051601f8201601f19908116603f0116810190838211818310171561038957610389610293565b816040528281528e60208487010111156103a257600080fd5b8260208601602083013760006020848301015280955050505050509295985092959890939650565b600080600080600080600080610140898b0312156103e757600080fd5b6103f0896100f1565b97506103fe60208a016100f1565b96506040890135955060608901359450608089013593506104228a60a08b016101e8565b925061012089013567ffffffffffffffff8111156101c857600080fd5b600080600080600080600080610140898b03121561045c57600080fd5b610465896100f1565b975061047360208a016100f1565b965061048160408a016100f1565b955060608901359450608089013593506104228a60a08b016101e856fea2646970667358221220c0becbe76e2c1f4ac42c04d8543f8adda4d3d29724b5e9868f9b46d8934d603764736f6c63430008100033",
    "linkReferences": {}
  },
  "methodIdentifiers": {
    "canApprove(address,address,address,uint256,(address,uint256,uint256,address),bytes)": "06d25e61",
    "canCash(address,address,address,uint256,uint256,(address,uint256,uint256,address),bytes)": "a81fc395",
    "canFund(address,address,uint256,uint256,uint256,(address,uint256,uint256,address),bytes)": "741c9639",
    "canTransfer(address,address,address,address,address,uint256,(address,uint256,uint256,address),bytes)": "54b6a7db",
    "canWrite(address,address,uint256,address,uint256,uint256,bytes)": "0055d86e"
  },
  "id": 58
}