{
  "abi": [
    {
      "inputs": [],
      "stateMutability": "nonpayable",
      "type": "constructor"
    },
    {
      "inputs": [],
      "name": "Disallowed",
      "type": "error"
    },
    {
      "inputs": [
        {
          "internalType": "uint256",
          "name": "",
          "type": "uint256"
        },
        {
          "internalType": "uint256",
          "name": "",
          "type": "uint256"
        }
      ],
      "name": "InsufficientEscrow",
      "type": "error"
    },
    {
      "inputs": [
        {
          "internalType": "uint256",
          "name": "",
          "type": "uint256"
        }
      ],
      "name": "InsufficientValue",
      "type": "error"
    },
    {
      "inputs": [
        {
          "internalType": "address",
          "name": "",
          "type": "address"
        },
        {
          "internalType": "address",
          "name": "",
          "type": "address"
        }
      ],
      "name": "InvalidWrite",
      "type": "error"
    },
    {
      "inputs": [],
      "name": "SelfApproval",
      "type": "error"
    },
    {
      "inputs": [],
      "name": "SendFailed",
      "type": "error"
    },
    {
      "anonymous": false,
      "inputs": [
        {
          "indexed": true,
          "internalType": "address",
          "name": "owner",
          "type": "address"
        },
        {
          "indexed": true,
          "internalType": "address",
          "name": "approved",
          "type": "address"
        },
        {
          "indexed": true,
          "internalType": "uint256",
          "name": "tokenId",
          "type": "uint256"
        }
      ],
      "name": "Approval",
      "type": "event"
    },
    {
      "anonymous": false,
      "inputs": [
        {
          "indexed": true,
          "internalType": "address",
          "name": "owner",
          "type": "address"
        },
        {
          "indexed": true,
          "internalType": "address",
          "name": "operator",
          "type": "address"
        },
        {
          "indexed": false,
          "internalType": "bool",
          "name": "approved",
          "type": "bool"
        }
      ],
      "name": "ApprovalForAll",
      "type": "event"
    },
    {
      "anonymous": false,
      "inputs": [
        {
          "indexed": true,
          "internalType": "address",
          "name": "previousOwner",
          "type": "address"
        },
        {
          "indexed": true,
          "internalType": "address",
          "name": "newOwner",
          "type": "address"
        }
      ],
      "name": "OwnershipTransferred",
      "type": "event"
    },
    {
      "anonymous": false,
      "inputs": [
        {
          "indexed": true,
          "internalType": "address",
          "name": "from",
          "type": "address"
        },
        {
          "indexed": true,
          "internalType": "address",
          "name": "to",
          "type": "address"
        },
        {
          "indexed": true,
          "internalType": "uint256",
          "name": "tokenId",
          "type": "uint256"
        }
      ],
      "name": "Transfer",
      "type": "event"
    },
    {
      "inputs": [
        {
          "internalType": "address",
          "name": "module",
          "type": "address"
        }
      ],
      "name": "_returnCodeHash",
      "outputs": [
        {
          "internalType": "bytes32",
          "name": "",
          "type": "bytes32"
        }
      ],
      "stateMutability": "view",
      "type": "function"
    },
    {
      "inputs": [
        {
          "internalType": "address",
          "name": "to",
          "type": "address"
        },
        {
          "internalType": "uint256",
          "name": "tokenId",
          "type": "uint256"
        }
      ],
      "name": "approve",
      "outputs": [],
      "stateMutability": "nonpayable",
      "type": "function"
    },
    {
      "inputs": [
        {
          "internalType": "address",
          "name": "owner",
          "type": "address"
        }
      ],
      "name": "balanceOf",
      "outputs": [
        {
          "internalType": "uint256",
          "name": "",
          "type": "uint256"
        }
      ],
      "stateMutability": "view",
      "type": "function"
    },
    {
      "inputs": [
        {
          "internalType": "uint256",
          "name": "cheqId",
          "type": "uint256"
        },
        {
          "internalType": "uint256",
          "name": "amount",
          "type": "uint256"
        },
        {
          "internalType": "address",
          "name": "to",
          "type": "address"
        },
        {
          "internalType": "bytes",
          "name": "cashData",
          "type": "bytes"
        }
      ],
      "name": "cash",
      "outputs": [],
      "stateMutability": "payable",
      "type": "function"
    },
    {
      "inputs": [
        {
          "internalType": "uint256",
          "name": "cheqId",
          "type": "uint256"
        }
      ],
      "name": "cheqCreatedAt",
      "outputs": [
        {
          "internalType": "uint256",
          "name": "",
          "type": "uint256"
        }
      ],
      "stateMutability": "view",
      "type": "function"
    },
    {
      "inputs": [
        {
          "internalType": "uint256",
          "name": "cheqId",
          "type": "uint256"
        }
      ],
      "name": "cheqCurrency",
      "outputs": [
        {
          "internalType": "address",
          "name": "",
          "type": "address"
        }
      ],
      "stateMutability": "view",
      "type": "function"
    },
    {
      "inputs": [
        {
          "internalType": "uint256",
          "name": "cheqId",
          "type": "uint256"
        }
      ],
      "name": "cheqEscrowed",
      "outputs": [
        {
          "internalType": "uint256",
          "name": "",
          "type": "uint256"
        }
      ],
      "stateMutability": "view",
      "type": "function"
    },
    {
      "inputs": [
        {
          "internalType": "uint256",
          "name": "cheqId",
          "type": "uint256"
        }
      ],
      "name": "cheqInfo",
      "outputs": [
        {
          "components": [
            {
              "internalType": "address",
              "name": "currency",
              "type": "address"
            },
            {
              "internalType": "uint256",
              "name": "escrowed",
              "type": "uint256"
            },
            {
              "internalType": "uint256",
              "name": "createdAt",
              "type": "uint256"
            },
            {
              "internalType": "address",
              "name": "module",
              "type": "address"
            }
          ],
          "internalType": "struct DataTypes.Cheq",
          "name": "",
          "type": "tuple"
        }
      ],
      "stateMutability": "view",
      "type": "function"
    },
    {
      "inputs": [
        {
          "internalType": "uint256",
          "name": "cheqId",
          "type": "uint256"
        }
      ],
      "name": "cheqModule",
      "outputs": [
        {
          "internalType": "address",
          "name": "",
          "type": "address"
        }
      ],
      "stateMutability": "view",
      "type": "function"
    },
    {
      "inputs": [
        {
          "internalType": "uint256",
          "name": "cheqId",
          "type": "uint256"
        },
        {
          "internalType": "uint256",
          "name": "amount",
          "type": "uint256"
        },
        {
          "internalType": "uint256",
          "name": "instant",
          "type": "uint256"
        },
        {
          "internalType": "bytes",
          "name": "fundData",
          "type": "bytes"
        }
      ],
      "name": "fund",
      "outputs": [],
      "stateMutability": "payable",
      "type": "function"
    },
    {
      "inputs": [
        {
          "internalType": "uint256",
          "name": "tokenId",
          "type": "uint256"
        }
      ],
      "name": "getApproved",
      "outputs": [
        {
          "internalType": "address",
          "name": "",
          "type": "address"
        }
      ],
      "stateMutability": "view",
      "type": "function"
    },
    {
      "inputs": [
        {
          "internalType": "address",
          "name": "owner",
          "type": "address"
        },
        {
          "internalType": "address",
          "name": "operator",
          "type": "address"
        }
      ],
      "name": "isApprovedForAll",
      "outputs": [
        {
          "internalType": "bool",
          "name": "",
          "type": "bool"
        }
      ],
      "stateMutability": "view",
      "type": "function"
    },
    {
      "inputs": [
        {
          "internalType": "address",
          "name": "module",
          "type": "address"
        }
      ],
      "name": "moduleWhitelisted",
      "outputs": [
        {
          "internalType": "bool",
          "name": "",
          "type": "bool"
        },
        {
          "internalType": "bool",
          "name": "",
          "type": "bool"
        }
      ],
      "stateMutability": "view",
      "type": "function"
    },
    {
      "inputs": [
        {
          "internalType": "address",
          "name": "token",
          "type": "address"
        },
        {
          "internalType": "uint256",
          "name": "amount",
          "type": "uint256"
        },
        {
          "internalType": "address",
          "name": "to",
          "type": "address"
        }
      ],
      "name": "moduleWithdraw",
      "outputs": [],
      "stateMutability": "nonpayable",
      "type": "function"
    },
    {
      "inputs": [],
      "name": "name",
      "outputs": [
        {
          "internalType": "string",
          "name": "",
          "type": "string"
        }
      ],
      "stateMutability": "view",
      "type": "function"
    },
    {
      "inputs": [],
      "name": "owner",
      "outputs": [
        {
          "internalType": "address",
          "name": "",
          "type": "address"
        }
      ],
      "stateMutability": "view",
      "type": "function"
    },
    {
      "inputs": [
        {
          "internalType": "uint256",
          "name": "tokenId",
          "type": "uint256"
        }
      ],
      "name": "ownerOf",
      "outputs": [
        {
          "internalType": "address",
          "name": "",
          "type": "address"
        }
      ],
      "stateMutability": "view",
      "type": "function"
    },
    {
      "inputs": [],
      "name": "renounceOwnership",
      "outputs": [],
      "stateMutability": "nonpayable",
      "type": "function"
    },
    {
      "inputs": [
        {
          "internalType": "address",
          "name": "from",
          "type": "address"
        },
        {
          "internalType": "address",
          "name": "to",
          "type": "address"
        },
        {
          "internalType": "uint256",
          "name": "tokenId",
          "type": "uint256"
        }
      ],
      "name": "safeTransferFrom",
      "outputs": [],
      "stateMutability": "nonpayable",
      "type": "function"
    },
    {
      "inputs": [
        {
          "internalType": "address",
          "name": "from",
          "type": "address"
        },
        {
          "internalType": "address",
          "name": "to",
          "type": "address"
        },
        {
          "internalType": "uint256",
          "name": "tokenId",
          "type": "uint256"
        },
        {
          "internalType": "bytes",
          "name": "moduleTransferData",
          "type": "bytes"
        }
      ],
      "name": "safeTransferFrom",
      "outputs": [],
      "stateMutability": "nonpayable",
      "type": "function"
    },
    {
      "inputs": [
        {
          "internalType": "address",
          "name": "",
          "type": "address"
        },
        {
          "internalType": "bool",
          "name": "",
          "type": "bool"
        }
      ],
      "name": "setApprovalForAll",
      "outputs": [],
      "stateMutability": "pure",
      "type": "function"
    },
    {
      "inputs": [
        {
          "internalType": "bytes4",
          "name": "interfaceId",
          "type": "bytes4"
        }
      ],
      "name": "supportsInterface",
      "outputs": [
        {
          "internalType": "bool",
          "name": "",
          "type": "bool"
        }
      ],
      "stateMutability": "view",
      "type": "function"
    },
    {
      "inputs": [],
      "name": "symbol",
      "outputs": [
        {
          "internalType": "string",
          "name": "",
          "type": "string"
        }
      ],
      "stateMutability": "view",
      "type": "function"
    },
    {
      "inputs": [
        {
          "internalType": "address",
          "name": "account",
          "type": "address"
        }
      ],
      "name": "toString",
      "outputs": [
        {
          "internalType": "string",
          "name": "",
          "type": "string"
        }
      ],
      "stateMutability": "pure",
      "type": "function"
    },
    {
      "inputs": [
        {
          "internalType": "bytes",
          "name": "data",
          "type": "bytes"
        }
      ],
      "name": "toString",
      "outputs": [
        {
          "internalType": "string",
          "name": "",
          "type": "string"
        }
      ],
      "stateMutability": "pure",
      "type": "function"
    },
    {
      "inputs": [
        {
          "internalType": "bytes32",
          "name": "value",
          "type": "bytes32"
        }
      ],
      "name": "toString",
      "outputs": [
        {
          "internalType": "string",
          "name": "",
          "type": "string"
        }
      ],
      "stateMutability": "pure",
      "type": "function"
    },
    {
      "inputs": [
        {
          "internalType": "uint256",
          "name": "_tokenId",
          "type": "uint256"
        }
      ],
      "name": "tokenURI",
      "outputs": [
        {
          "internalType": "string",
          "name": "",
          "type": "string"
        }
      ],
      "stateMutability": "view",
      "type": "function"
    },
    {
      "inputs": [
        {
          "internalType": "address",
          "name": "token",
          "type": "address"
        }
      ],
      "name": "tokenWhitelisted",
      "outputs": [
        {
          "internalType": "bool",
          "name": "",
          "type": "bool"
        }
      ],
      "stateMutability": "view",
      "type": "function"
    },
    {
      "inputs": [],
      "name": "totalSupply",
      "outputs": [
        {
          "internalType": "uint256",
          "name": "",
          "type": "uint256"
        }
      ],
      "stateMutability": "view",
      "type": "function"
    },
    {
      "inputs": [
        {
          "internalType": "address",
          "name": "from",
          "type": "address"
        },
        {
          "internalType": "address",
          "name": "to",
          "type": "address"
        },
        {
          "internalType": "uint256",
          "name": "tokenId",
          "type": "uint256"
        }
      ],
      "name": "transferFrom",
      "outputs": [],
      "stateMutability": "nonpayable",
      "type": "function"
    },
    {
      "inputs": [
        {
          "internalType": "address",
          "name": "newOwner",
          "type": "address"
        }
      ],
      "name": "transferOwnership",
      "outputs": [],
      "stateMutability": "nonpayable",
      "type": "function"
    },
    {
      "inputs": [
        {
          "internalType": "address",
          "name": "module",
          "type": "address"
        },
        {
          "internalType": "address",
          "name": "token",
          "type": "address"
        }
      ],
      "name": "validWrite",
      "outputs": [
        {
          "internalType": "bool",
          "name": "",
          "type": "bool"
        }
      ],
      "stateMutability": "view",
      "type": "function"
    },
    {
      "inputs": [
        {
          "internalType": "address",
          "name": "module",
          "type": "address"
        },
        {
          "internalType": "bool",
          "name": "bytecodeAccepted",
          "type": "bool"
        },
        {
          "internalType": "bool",
          "name": "addressAccepted",
          "type": "bool"
        }
      ],
      "name": "whitelistModule",
      "outputs": [],
      "stateMutability": "nonpayable",
      "type": "function"
    },
    {
      "inputs": [
        {
          "internalType": "address",
          "name": "_token",
          "type": "address"
        },
        {
          "internalType": "bool",
          "name": "accepted",
          "type": "bool"
        }
      ],
      "name": "whitelistToken",
      "outputs": [],
      "stateMutability": "nonpayable",
      "type": "function"
    },
    {
      "inputs": [
        {
          "internalType": "address",
          "name": "currency",
          "type": "address"
        },
        {
          "internalType": "uint256",
          "name": "escrowed",
          "type": "uint256"
        },
        {
          "internalType": "uint256",
          "name": "instant",
          "type": "uint256"
        },
        {
          "internalType": "address",
          "name": "owner",
          "type": "address"
        },
        {
          "internalType": "address",
          "name": "module",
          "type": "address"
        },
        {
          "internalType": "bytes",
          "name": "moduleWriteData",
          "type": "bytes"
        }
      ],
      "name": "write",
      "outputs": [
        {
          "internalType": "uint256",
          "name": "",
          "type": "uint256"
        }
      ],
      "stateMutability": "payable",
      "type": "function"
    }
  ],
  "bytecode": {
    "object": "0x60806040523480156200001157600080fd5b506040518060400160405280600681526020016564656e6f746160d01b815250604051806040016040528060048152602001634e4f544160e01b81525081600090816200005f91906200018c565b5060016200006e82826200018c565b5050506200008b620000856200009160201b60201c565b62000095565b62000258565b3390565b600680546001600160a01b038381166001600160a01b0319831681179093556040519116919082907f8be0079c531659141344cd1fd0a4f28419497f9722a3daafe3b4186f6b6457e090600090a35050565b634e487b7160e01b600052604160045260246000fd5b600181811c908216806200011257607f821691505b6020821081036200013357634e487b7160e01b600052602260045260246000fd5b50919050565b601f8211156200018757600081815260208120601f850160051c81016020861015620001625750805b601f850160051c820191505b8181101562000183578281556001016200016e565b5050505b505050565b81516001600160401b03811115620001a857620001a8620000e7565b620001c081620001b98454620000fd565b8462000139565b602080601f831160018114620001f85760008415620001df5750858301515b600019600386901b1c1916600185901b17855562000183565b600085815260208120601f198616915b82811015620002295788860151825594840194600190910190840162000208565b5085821015620002485787850151600019600388901b60f8161c191681555b5050505050600190811b01905550565b61351880620002686000396000f3fe6080604052600436106102045760003560e01c806371aad10d11610118578063d6122058116100a0578063e985e9c51161006f578063e985e9c51461061b578063f2fde38b14610664578063f779494214610684578063fdd90c70146106b1578063ff8507e8146106e757600080fd5b8063d61220581461058f578063d6a4f84c146105a2578063dfd5d811146105c2578063e0e295b7146105e257600080fd5b8063b11a19e8116100e7578063b11a19e8146104ec578063b88d4fde1461050c578063c298c4d21461052c578063c87b56dd1461055c578063d0d0bb3f1461057c57600080fd5b806371aad10d146104795780638da5cb5b1461049957806395d89b41146104b7578063a22cb465146104cc57600080fd5b806342842e0e1161019b57806356ca623e1161016a57806356ca623e146103d45780635e53b226146103f45780636352211e1461042457806370a0823114610444578063715018a61461046457600080fd5b806342842e0e1461031c5780634e289c061461033c57806352f37f561461034f57806353aafb69146103b457600080fd5b80630ffb1d8b116101d75780630ffb1d8b146102ba578063107e2f3b146102da57806318160ddd1461030757806323b872dd1461031c57600080fd5b806301ffc9a71461020957806306fdde031461023e578063081812fc14610260578063095ea7b314610298575b600080fd5b34801561021557600080fd5b50610229610224366004612860565b610720565b60405190151581526020015b60405180910390f35b34801561024a57600080fd5b50610253610772565b60405161023591906128cd565b34801561026c57600080fd5b5061028061027b3660046128e0565b610804565b6040516001600160a01b039091168152602001610235565b3480156102a457600080fd5b506102b86102b3366004612910565b61082b565b005b3480156102c657600080fd5b506102b86102d5366004612948565b610914565b3480156102e657600080fd5b506102f96102f536600461297f565b3f90565b604051908152602001610235565b34801561031357600080fd5b50600c546102f9565b34801561032857600080fd5b506102b861033736600461299a565b61098a565b6102b861034a366004612a1f565b6109a5565b34801561035b57600080fd5b5061039d61036a36600461297f565b6001600160a01b038116600090815260096020908152604080832054933f8352600890915290205460ff91821692911690565b604080519215158352901515602083015201610235565b3480156103c057600080fd5b506102b86103cf366004612a87565b610bf9565b3480156103e057600080fd5b506102536103ef36600461297f565b610ce2565b34801561040057600080fd5b506102f961040f3660046128e0565b6000908152600b602052604090206002015490565b34801561043057600080fd5b5061028061043f3660046128e0565b610d1b565b34801561045057600080fd5b506102f961045f36600461297f565b610d7b565b34801561047057600080fd5b506102b8610e01565b34801561048557600080fd5b50610253610494366004612b95565b610e15565b3480156104a557600080fd5b506006546001600160a01b0316610280565b3480156104c357600080fd5b5061025361102e565b3480156104d857600080fd5b506102b86104e7366004612948565b61103d565b3480156104f857600080fd5b506102536105073660046128e0565b611056565b34801561051857600080fd5b506102b8610527366004612bca565b61106e565b34801561053857600080fd5b506102f96105473660046128e0565b6000908152600b602052604090206001015490565b34801561056857600080fd5b506102536105773660046128e0565b611268565b6102f961058a366004612c32565b611367565b6102b861059d366004612cbb565b611510565b3480156105ae57600080fd5b506102b86105bd366004612cff565b61166e565b3480156105ce57600080fd5b506102296105dd366004612d3b565b611706565b3480156105ee57600080fd5b506102806105fd3660046128e0565b6000908152600b60205260409020600301546001600160a01b031690565b34801561062757600080fd5b50610229610636366004612d3b565b6001600160a01b03918216600090815260056020908152604080832093909416825291909152205460ff1690565b34801561067057600080fd5b506102b861067f36600461297f565b611739565b34801561069057600080fd5b506106a461069f3660046128e0565b6117b2565b6040516102359190612d6e565b3480156106bd57600080fd5b506102806106cc3660046128e0565b6000908152600b60205260409020546001600160a01b031690565b3480156106f357600080fd5b5061022961070236600461297f565b6001600160a01b03166000908152600a602052604090205460ff1690565b60006001600160e01b031982166380ac58cd60e01b148061075157506001600160e01b03198216635b5e139f60e01b145b8061076c57506301ffc9a760e01b6001600160e01b03198316145b92915050565b60606000805461078190612da6565b80601f01602080910402602001604051908101604052809291908181526020018280546107ad90612da6565b80156107fa5780601f106107cf576101008083540402835291602001916107fa565b820191906000526020600020905b8154815290600101906020018083116107dd57829003601f168201915b5050505050905090565b600061080f8261182e565b506000908152600460205260409020546001600160a01b031690565b336001600160a01b0383160361085457604051633cf0df2360e01b815260040160405180910390fd5b6000818152600b6020908152604091829020825160808101845281546001600160a01b03908116825260018301549382019390935260028201549381019390935260030154166060820181905263e4175968336108b085610d1b565b8686866040518663ffffffff1660e01b81526004016108d3959493929190612de0565b600060405180830381600087803b1580156108ed57600080fd5b505af1158015610901573d6000803e3d6000fd5b5050505061090f838361188d565b505050565b61091c6118fb565b6001600160a01b0382166000818152600a60205260409020805460ff1916831515908117909155907f1bf5ef6ada443138fcac941f79625fe01e92ff514fee9f160bff18363199c7a033604080516001600160a01b0390921682524260208301520160405180910390a35050565b61090f8383836040518060200160405280600081525061106e565b6000858152600b6020526040812060038101549091906001600160a01b03166306890cd0336109d38a610d1b565b888a8c888b8b6040518963ffffffff1660e01b81526004016109fc989796959493929190612e84565b6020604051808303816000875af1158015610a1b573d6000803e3d6000fd5b505050506040513d601f19601f82011682018060405250810190610a3f9190612f01565b90506000610a4d8288612f30565b90508260010154811115610a8d57600183015460405163180e21d960e31b8152610a84918391600401918252602082015260400190565b60405180910390fd5b600183018054829003905582546001600160a01b0316610b21576000866001600160a01b03168860405160006040518083038185875af1925050503d8060008114610af4576040519150601f19603f3d011682016040523d82523d6000602084013e610af9565b606091505b5050905080610b1b576040516381063e5160e01b815260040160405180910390fd5b50610b37565b8254610b37906001600160a01b03168789611955565b60038301546001600160a01b039081166000908152600760209081526040808320875490941683529290529081208054849290610b75908490612f30565b9091555050604051610b8a9086908690612f43565b604051809103902088610b9a3390565b604080516001600160a01b038b81168252602082018d90529181018790524260608201529116907fa45d21a235efa64e1d8f22fcecdbc348471bf46c3fd95cb0b3d78bb59ccfdd8e906080015b60405180910390a45050505050505050565b610c016118fb565b801515821515141580610c1a57508180610c185750805b155b610c5a5760405162461bcd60e51b8152602060048201526011602482015270086829c4ea8be8286868aa0a8be849ea89607b1b6044820152606401610a84565b823f6000908152600860209081526040808320805486151560ff1991821681179092556001600160a01b03881680865260098552948390208054871515921682179055825191825292810192909252429082015233907fe82584b416ef90b398503af85e6daba1407060c9e2d2050c858719c4f1b076479060600160405180910390a3505050565b604051606082811b6bffffffffffffffffffffffff191660208301529061076c906034015b604051602081830303815290604052610e15565b6000818152600260205260408120546001600160a01b03168061076c5760405162461bcd60e51b8152602060048201526018602482015277115490cdcc8c4e881a5b9d985b1a59081d1bdad95b88125160421b6044820152606401610a84565b60006001600160a01b038216610de55760405162461bcd60e51b815260206004820152602960248201527f4552433732313a2061646472657373207a65726f206973206e6f7420612076616044820152683634b21037bbb732b960b91b6064820152608401610a84565b506001600160a01b031660009081526003602052604090205490565b610e096118fb565b610e1360006119b8565b565b60408051808201909152601081526f181899199a1a9b1b9c1cb0b131b232b360811b6020820152815160609190600090610e50906002612f53565b610e5b906002612f30565b67ffffffffffffffff811115610e7357610e73612ad0565b6040519080825280601f01601f191660200182016040528015610e9d576020820181803683370190505b509050600360fc1b81600081518110610eb857610eb8612f72565b60200101906001600160f81b031916908160001a905350600f60fb1b81600181518110610ee757610ee7612f72565b60200101906001600160f81b031916908160001a90535060005b845181101561102657826004868381518110610f1f57610f1f612f72565b016020015182516001600160f81b031990911690911c60f81c908110610f4757610f47612f72565b01602001516001600160f81b03191682610f62836002612f53565b610f6d906002612f30565b81518110610f7d57610f7d612f72565b60200101906001600160f81b031916908160001a90535082858281518110610fa757610fa7612f72565b602091010151815160f89190911c600f16908110610fc757610fc7612f72565b01602001516001600160f81b03191682610fe2836002612f53565b610fed906003612f30565b81518110610ffd57610ffd612f72565b60200101906001600160f81b031916908160001a9053508061101e81612f88565b915050610f01565b509392505050565b60606001805461078190612da6565b604051635a89288760e01b815260040160405180910390fd5b606061076c82604051602001610d0791815260200190565b600061107983610d1b565b6000848152600b602052604081206003810154929350916001600160a01b031663c0c9572c336110a888610804565b868b8b8b8960000160009054906101000a90046001600160a01b03168a600101548b600201548e6040518b63ffffffff1660e01b81526004016110f49a99989796959493929190612fa1565b6020604051808303816000875af1158015611113573d6000803e3d6000fd5b505050506040513d601f19601f820116820180604052508101906111379190612f01565b6001830154909150156111eb578082600101546111549190613016565b600183015560038201546001600160a01b039081166000908152600760209081526040808320865490941683529290529081208054839290611197908490612f30565b9091555050604080518281524260208201526001600160a01b03808916929086169188917fe96dac4c4166560371b5e55761d096a42489601a31784b6ae976f1394d9d6b91910160405180910390a4611244565b856001600160a01b0316836001600160a01b0316867fe96dac4c4166560371b5e55761d096a42489601a31784b6ae976f1394d9d6b9160004260405161123b929190918252602082015260400190565b60405180910390a45b61125f87878760405180602001604052806000815250611a0a565b50505050505050565b60606112738261182e565b6000828152600b60205260408082206003015490516327f0bf0d60e11b8152600481018590526001600160a01b0390911690634fe17e1a90602401600060405180830381865afa1580156112cb573d6000803e3d6000fd5b505050506040513d6000823e601f3d908101601f191682016040526112f39190810190613029565b6000848152600b60205260409020549091506113609061131b906001600160a01b0316610ce2565b6000858152600b602052604090206001015461133690611a43565b6000868152600b602052604090206003015461135a906001600160a01b0316610ce2565b84611bfd565b9392505050565b60006113738489611706565b6113a35760405163c23595bd60e01b81526001600160a01b03808616600483015289166024820152604401610a84565b600c54604051635aeb80dd60e11b81526000916001600160a01b0387169163b5d701ba916113e19133918b918f908f908f908d908d906004016130a0565b6020604051808303816000875af1158015611400573d6000803e3d6000fd5b505050506040513d601f19601f820116820180604052508101906114249190612f01565b905061143488888b89858a611c57565b61144086600c54611dd5565b600c80546000908152600b602052604080822080546001600160a01b03808f166001600160a01b031992831617909255845484528284206001018d90558454845282842042600290910155935483529120600301805488831693168317905587166114a83390565b6001600160a01b03167f991ba5df3fcbd98c4683aa26b630563680205eed21cda3b688c3b885dd969c81600c548b8e8e42898d8d6040516114f09897969594939291906130f4565b60405180910390a45050600c805460018101909155979650505050505050565b6000858152600b602052604081209061152887610d1b565b60038301549091506000906001600160a01b031663be2f3fdd33848a8a8d898c8c6040518963ffffffff1660e01b815260040161156c989796959493929190613134565b6020604051808303816000875af115801561158b573d6000803e3d6000fd5b505050506040513d601f19601f820116820180604052508101906115af9190612f01565b835460038501549192506115d791899189916001600160a01b03918216918791879116611c57565b6000888152600b6020526040812060010180548992906115f8908490612f30565b909155505060405161160d9086908690612f43565b60405180910390208861161d3390565b604080518b8152602081018b90529081018590524260608201526001600160a01b0391909116907f7f98326a87b2d74aaf7e1400dd387fab5570936bacf98cb672c19ddfbb061a4490608001610be7565b3360009081526007602090815260408083206001600160a01b03871684529091529020548211156116cf5760405162461bcd60e51b815260206004820152600b60248201526a494e5355465f46554e445360a81b6044820152606401610a84565b3360009081526007602090815260408083206001600160a01b03871680855292529091208054849003905561090f90308385611df3565b600061171183611e2b565b80156113605750506001600160a01b03166000908152600a602052604090205460ff16919050565b6117416118fb565b6001600160a01b0381166117a65760405162461bcd60e51b815260206004820152602660248201527f4f776e61626c653a206e6577206f776e657220697320746865207a65726f206160448201526564647265737360d01b6064820152608401610a84565b6117af816119b8565b50565b6040805160808101825260008082526020820181905291810182905260608101919091526117df8261182e565b506000908152600b6020908152604091829020825160808101845281546001600160a01b0390811682526001830154938201939093526002820154938101939093526003015416606082015290565b6000818152600260205260409020546001600160a01b03166117af5760405162461bcd60e51b8152602060048201526018602482015277115490cdcc8c4e881a5b9d985b1a59081d1bdad95b88125160421b6044820152606401610a84565b600081815260046020526040902080546001600160a01b0319166001600160a01b03841690811790915581906118c282610d1b565b6001600160a01b03167f8c5be1e5ebec7d5bd14f71427d1e84f3dd0314c0f7b2291e5b200ac8c7c3b92560405160405180910390a45050565b6006546001600160a01b03163314610e135760405162461bcd60e51b815260206004820181905260248201527f4f776e61626c653a2063616c6c6572206973206e6f7420746865206f776e65726044820152606401610a84565b6040516001600160a01b03831660248201526044810182905261090f90849063a9059cbb60e01b906064015b60408051601f198184030181529190526020810180516001600160e01b03166001600160e01b031990931692909217909152611e64565b600680546001600160a01b038381166001600160a01b0319831681179093556040519116919082907f8be0079c531659141344cd1fd0a4f28419497f9722a3daafe3b4186f6b6457e090600090a35050565b611a15848484611f36565b611a218484848461209a565b611a3d5760405162461bcd60e51b8152600401610a8490613191565b50505050565b606081600003611a6a5750506040805180820190915260018152600360fc1b602082015290565b6000611a866d04ee2d6d415b85acef8100000000845b06612198565b90506d04ee2d6d415b85acef81000000008304925082600003611ac5576040805160208101839052016040516020818303038152906040529150611b64565b6000611adf6d04ee2d6d415b85acef810000000085611a80565b90506d04ee2d6d415b85acef81000000008404935083600003611b295760408051602081018390529081018390526060016040516020818303038152906040529250809150611b62565b6000611b3485612198565b6040805160208101839052808201859052606080820196909652815180820390960186526080019052929350505b505b6000608082901c6f3030303030303030303030303030303003611b8c5760809190911b906010015b60c082901c67303030303030303003611baa5760409190911b906008015b60e082901c633030303003611bc45760209190911b906004015b60f082901c61303003611bdc5760109190911b906002015b60f882901c603003611bec576001015b82518190039201918252505b919050565b6060611c2d85858585604051602001611c1994939291906131ff565b6040516020818303038152906040526123b1565b604051602001611c3d9190613363565b60405160208183030381529060405290505b949350505050565b6000611c638688612f30565b9050801561125f576000611c778489612f30565b90508015611cca576001600160a01b038616611cb55780341015611cb05760405163294633cf60e21b8152346004820152602401610a84565b611cca565b611cca6001600160a01b038716333084611df3565b8615611d8f576001600160a01b038616611d7a57803414611d005760405163294633cf60e21b8152346004820152602401610a84565b6000856001600160a01b03163460405160006040518083038185875af1925050503d8060008114611d4d576040519150601f19603f3d011682016040523d82523d6000602084013e611d52565b606091505b5050905080611d74576040516381063e5160e01b815260040160405180910390fd5b50611d8f565b611d8f6001600160a01b03871633878a611df3565b6001600160a01b038084166000908152600760209081526040808320938a1683529290529081208054869290611dc6908490612f30565b90915550505050505050505050565b611def828260405180602001604052806000815250612504565b5050565b6040516001600160a01b0380851660248301528316604482015260648101829052611a3d9085906323b872dd60e01b90608401611981565b6001600160a01b03811660009081526009602052604081205460ff168061076c5750503f60009081526008602052604090205460ff1690565b6000611eb9826040518060400160405280602081526020017f5361666545524332303a206c6f772d6c6576656c2063616c6c206661696c6564815250856001600160a01b03166125379092919063ffffffff16565b80519091501561090f5780806020019051810190611ed791906133a8565b61090f5760405162461bcd60e51b815260206004820152602a60248201527f5361666545524332303a204552433230206f7065726174696f6e20646964206e6044820152691bdd081cdd58d8d9595960b21b6064820152608401610a84565b826001600160a01b0316611f4982610d1b565b6001600160a01b031614611f6f5760405162461bcd60e51b8152600401610a84906133c5565b6001600160a01b038216611fd15760405162461bcd60e51b8152602060048201526024808201527f4552433732313a207472616e7366657220746f20746865207a65726f206164646044820152637265737360e01b6064820152608401610a84565b826001600160a01b0316611fe482610d1b565b6001600160a01b03161461200a5760405162461bcd60e51b8152600401610a84906133c5565b600081815260046020908152604080832080546001600160a01b03199081169091556001600160a01b0387811680865260038552838620805460001901905590871680865283862080546001019055868652600290945282852080549092168417909155905184937fddf252ad1be2c89b69c2b068fc378daa952ba7f163c4a11628f55a4df523b3ef91a4505050565b60006001600160a01b0384163b1561219057604051630a85bd0160e11b81526001600160a01b0385169063150b7a02906120de90339089908890889060040161340a565b6020604051808303816000875af1925050508015612119575060408051601f3d908101601f1916820190925261211691810190613447565b60015b612176573d808015612147576040519150601f19603f3d011682016040523d82523d6000602084013e61214c565b606091505b50805160000361216e5760405162461bcd60e51b8152600401610a8490613191565b805181602001fd5b6001600160e01b031916630a85bd0160e11b149050611c4f565b506001611c4f565b60006d04ee2d6d415b85acef810000000082106121b457600080fd5b507f3030303030303030303030303030303030303030303030303030303030303030600a820601600a820491506008600a8306901b01600a820491506010600a8306901b01600a820491506018600a8306901b01600a820491506020600a8306901b01600a820491506028600a8306901b01600a820491506030600a8306901b01600a820491506038600a8306901b01600a820491506040600a8306901b01600a820491506048600a8306901b01600a820491506050600a8306901b01600a820491506058600a8306901b01600a820491506060600a8306901b01600a820491506068600a8306901b01600a820491506070600a8306901b01600a820491506078600a8306901b01600a820491506080600a8306901b01600a820491506088600a8306901b01600a820491506090600a8306901b01600a820491506098600a8306901b01600a8204915060a0600a8306901b01600a8204915060a8600a8306901b01600a8204915060b0600a8306901b01600a8204915060b8600a8306901b01600a8204915060c0600a8306901b01600a8204915060c8600a8306901b01600a8204915060d0600a8306901b01600a8204915060d8600a8306901b01600a8204915060e0600a8306901b01600a8204915060e8600a8306901b01600a8204915060f0600a8306901b01600a8204915060f8600a8306901b01919050565b606081516000036123d057505060408051602081019091526000815290565b60006040518060600160405280604081526020016134a360409139905060006003845160026123ff9190612f30565b6124099190613464565b612414906004612f53565b67ffffffffffffffff81111561242c5761242c612ad0565b6040519080825280601f01601f191660200182016040528015612456576020820181803683370190505b509050600182016020820185865187015b808210156124c2576003820191508151603f8160121c168501518453600184019350603f81600c1c168501518453600184019350603f8160061c168501518453600184019350603f8116850151845350600183019250612467565b50506003865106600181146124de57600281146124f1576124f9565b603d6001830353603d60028303536124f9565b603d60018303535b509195945050505050565b61250e8383612546565b61251b600084848461209a565b61090f5760405162461bcd60e51b8152600401610a8490613191565b6060611c4f84846000856126d1565b6001600160a01b03821661259c5760405162461bcd60e51b815260206004820181905260248201527f4552433732313a206d696e7420746f20746865207a65726f20616464726573736044820152606401610a84565b6000818152600260205260409020546001600160a01b0316156126015760405162461bcd60e51b815260206004820152601c60248201527f4552433732313a20746f6b656e20616c7265616479206d696e746564000000006044820152606401610a84565b6000818152600260205260409020546001600160a01b0316156126665760405162461bcd60e51b815260206004820152601c60248201527f4552433732313a20746f6b656e20616c7265616479206d696e746564000000006044820152606401610a84565b6001600160a01b038216600081815260036020908152604080832080546001019055848352600290915280822080546001600160a01b0319168417905551839291907fddf252ad1be2c89b69c2b068fc378daa952ba7f163c4a11628f55a4df523b3ef908290a45050565b6060824710156127325760405162461bcd60e51b815260206004820152602660248201527f416464726573733a20696e73756666696369656e742062616c616e636520666f6044820152651c8818d85b1b60d21b6064820152608401610a84565b600080866001600160a01b0316858760405161274e9190613486565b60006040518083038185875af1925050503d806000811461278b576040519150601f19603f3d011682016040523d82523d6000602084013e612790565b606091505b50915091506127a1878383876127ac565b979650505050505050565b6060831561281b578251600003612814576001600160a01b0385163b6128145760405162461bcd60e51b815260206004820152601d60248201527f416464726573733a2063616c6c20746f206e6f6e2d636f6e74726163740000006044820152606401610a84565b5081611c4f565b611c4f83838151156128305781518083602001fd5b8060405162461bcd60e51b8152600401610a8491906128cd565b6001600160e01b0319811681146117af57600080fd5b60006020828403121561287257600080fd5b81356113608161284a565b60005b83811015612898578181015183820152602001612880565b50506000910152565b600081518084526128b981602086016020860161287d565b601f01601f19169290920160200192915050565b60208152600061136060208301846128a1565b6000602082840312156128f257600080fd5b5035919050565b80356001600160a01b0381168114611bf857600080fd5b6000806040838503121561292357600080fd5b61292c836128f9565b946020939093013593505050565b80151581146117af57600080fd5b6000806040838503121561295b57600080fd5b612964836128f9565b915060208301356129748161293a565b809150509250929050565b60006020828403121561299157600080fd5b611360826128f9565b6000806000606084860312156129af57600080fd5b6129b8846128f9565b92506129c6602085016128f9565b9150604084013590509250925092565b60008083601f8401126129e857600080fd5b50813567ffffffffffffffff811115612a0057600080fd5b602083019150836020828501011115612a1857600080fd5b9250929050565b600080600080600060808688031215612a3757600080fd5b8535945060208601359350612a4e604087016128f9565b9250606086013567ffffffffffffffff811115612a6a57600080fd5b612a76888289016129d6565b969995985093965092949392505050565b600080600060608486031215612a9c57600080fd5b612aa5846128f9565b92506020840135612ab58161293a565b91506040840135612ac58161293a565b809150509250925092565b634e487b7160e01b600052604160045260246000fd5b604051601f8201601f1916810167ffffffffffffffff81118282101715612b0f57612b0f612ad0565b604052919050565b600067ffffffffffffffff821115612b3157612b31612ad0565b50601f01601f191660200190565b600082601f830112612b5057600080fd5b8135612b63612b5e82612b17565b612ae6565b818152846020838601011115612b7857600080fd5b816020850160208301376000918101602001919091529392505050565b600060208284031215612ba757600080fd5b813567ffffffffffffffff811115612bbe57600080fd5b611c4f84828501612b3f565b60008060008060808587031215612be057600080fd5b612be9856128f9565b9350612bf7602086016128f9565b925060408501359150606085013567ffffffffffffffff811115612c1a57600080fd5b612c2687828801612b3f565b91505092959194509250565b600080600080600080600060c0888a031215612c4d57600080fd5b612c56886128f9565b96506020880135955060408801359450612c72606089016128f9565b9350612c80608089016128f9565b925060a088013567ffffffffffffffff811115612c9c57600080fd5b612ca88a828b016129d6565b989b979a50959850939692959293505050565b600080600080600060808688031215612cd357600080fd5b853594506020860135935060408601359250606086013567ffffffffffffffff811115612a6a57600080fd5b600080600060608486031215612d1457600080fd5b612d1d846128f9565b925060208401359150612d32604085016128f9565b90509250925092565b60008060408385031215612d4e57600080fd5b612d57836128f9565b9150612d65602084016128f9565b90509250929050565b6080810161076c828480516001600160a01b039081168352602080830151908401526040808301519084015260609182015116910152565b600181811c90821680612dba57607f821691505b602082108103612dda57634e487b7160e01b600052602260045260246000fd5b50919050565b6001600160a01b038681168252858116602083015284166040820152606081018390526000610120612e3f608084018580516001600160a01b039081168352602080830151908401526040808301519084015260609182015116910152565b6101008301819052600090830152506101400195945050505050565b81835281816020850137506000828201602090810191909152601f909101601f19169091010190565b6001600160a01b0389811682528881166020830152878116604083015260608201879052608082018690528454811660a0830152600185015460c0830152600285015460e083015260038501541661010082015260006101405b80610120840152612ef28184018587612e5b565b9b9a5050505050505050505050565b600060208284031215612f1357600080fd5b5051919050565b634e487b7160e01b600052601160045260246000fd5b8082018082111561076c5761076c612f1a565b8183823760009101908152919050565b6000816000190483118215151615612f6d57612f6d612f1a565b500290565b634e487b7160e01b600052603260045260246000fd5b600060018201612f9a57612f9a612f1a565b5060010190565b6001600160a01b038b811682528a8116602083015289811660408301528881166060830152878116608083015260a08201879052851660c082015260e0810184905261010081018390526101406101208201819052600090613005838201856128a1565b9d9c50505050505050505050505050565b8181038181111561076c5761076c612f1a565b60006020828403121561303b57600080fd5b815167ffffffffffffffff81111561305257600080fd5b8201601f8101841361306357600080fd5b8051613071612b5e82612b17565b81815285602083850101111561308657600080fd5b61309782602083016020860161287d565b95945050505050565b600060018060a01b03808b168352808a1660208401528860408401528088166060840152508560808301528460a083015260e060c08301526130e660e083018486612e5b565b9a9950505050505050505050565b88815287602082015260018060a01b03871660408201528560608201528460808201528360a082015260e060c082015260006130e660e083018486612e5b565b6001600160a01b03898116825288811660208301526040820188905260608201879052608082018690528454811660a0830152600185015460c0830152600285015460e08301526003850154166101008201526000610140612ede565b60208082526032908201527f4552433732313a207472616e7366657220746f206e6f6e20455243373231526560408201527131b2b4bb32b91034b6b83632b6b2b73a32b960711b606082015260800190565b600081516131f581856020860161287d565b9290920192915050565b6d3d9130ba3a3934b13aba32b9911d60911b8152605b60f81b600e8201527f7b2274726169745f74797065223a202243757272656e6379222c000000000000600f82015267113b30b63ab2911d60c11b6029820152845160009061326a816031850160208a0161287d565b607d60f81b603182850101527f2c7b2274726169745f74797065223a2022457363726f776564222c0000000000603282850101527f22646973706c61795f74797065223a20226e756d626572222c00000000000000604d828501015267113b30b63ab2911d60c11b606682850101526127a161330061335d61335061330061334a61333661330d613300606e8a8d01018f6131e3565b607d60f81b815260010190565b7f2c7b2274726169745f74797065223a20224d6f64756c65222c00000000000000815260190190565b67113b30b63ab2911d60c11b815260080190565b8a6131e3565b605d60f81b815260010190565b866131e3565b7f646174613a6170706c69636174696f6e2f6a736f6e3b6261736536342c00000081526000825161339b81601d85016020870161287d565b91909101601d0192915050565b6000602082840312156133ba57600080fd5b81516113608161293a565b60208082526025908201527f4552433732313a207472616e736665722066726f6d20696e636f72726563742060408201526437bbb732b960d91b606082015260800190565b6001600160a01b038581168252841660208201526040810183905260806060820181905260009061343d908301846128a1565b9695505050505050565b60006020828403121561345957600080fd5b81516113608161284a565b60008261348157634e487b7160e01b600052601260045260246000fd5b500490565b6000825161349881846020870161287d565b919091019291505056fe4142434445464748494a4b4c4d4e4f505152535455565758595a6162636465666768696a6b6c6d6e6f707172737475767778797a303132333435363738392b2fa264697066735822122055e100bbf4b52dce6942c36539a109a6f0e7d818b5350318b869a5c327cc463064736f6c63430008100033",
    "linkReferences": {}
  },
  "methodIdentifiers": {
    "_returnCodeHash(address)": "107e2f3b",
    "approve(address,uint256)": "095ea7b3",
    "balanceOf(address)": "70a08231",
    "cash(uint256,uint256,address,bytes)": "4e289c06",
    "cheqCreatedAt(uint256)": "5e53b226",
    "cheqCurrency(uint256)": "fdd90c70",
    "cheqEscrowed(uint256)": "c298c4d2",
    "cheqInfo(uint256)": "f7794942",
    "cheqModule(uint256)": "e0e295b7",
    "fund(uint256,uint256,uint256,bytes)": "d6122058",
    "getApproved(uint256)": "081812fc",
    "isApprovedForAll(address,address)": "e985e9c5",
    "moduleWhitelisted(address)": "52f37f56",
    "moduleWithdraw(address,uint256,address)": "d6a4f84c",
    "name()": "06fdde03",
    "owner()": "8da5cb5b",
    "ownerOf(uint256)": "6352211e",
    "renounceOwnership()": "715018a6",
    "safeTransferFrom(address,address,uint256)": "42842e0e",
    "safeTransferFrom(address,address,uint256,bytes)": "b88d4fde",
    "setApprovalForAll(address,bool)": "a22cb465",
    "supportsInterface(bytes4)": "01ffc9a7",
    "symbol()": "95d89b41",
    "toString(address)": "56ca623e",
    "toString(bytes)": "71aad10d",
    "toString(bytes32)": "b11a19e8",
    "tokenURI(uint256)": "c87b56dd",
    "tokenWhitelisted(address)": "ff8507e8",
    "totalSupply()": "18160ddd",
    "transferFrom(address,address,uint256)": "23b872dd",
    "transferOwnership(address)": "f2fde38b",
    "validWrite(address,address)": "dfd5d811",
    "whitelistModule(address,bool,bool)": "53aafb69",
    "whitelistToken(address,bool)": "0ffb1d8b",
    "write(address,uint256,uint256,address,address,bytes)": "d0d0bb3f"
  },
  "id": 15
}