{
  "abi": [
    {
      "inputs": [
        {
          "internalType": "address",
          "name": "registrar",
          "type": "address"
        },
        {
          "components": [
            {
              "internalType": "uint256",
              "name": "writeBPS",
              "type": "uint256"
            },
            {
              "internalType": "uint256",
              "name": "transferBPS",
              "type": "uint256"
            },
            {
              "internalType": "uint256",
              "name": "fundBPS",
              "type": "uint256"
            },
            {
              "internalType": "uint256",
              "name": "cashBPS",
              "type": "uint256"
            }
          ],
          "internalType": "struct DataTypes.WTFCFees",
          "name": "_fees",
          "type": "tuple"
        },
        {
          "internalType": "string",
          "name": "__baseURI",
          "type": "string"
        }
      ],
      "stateMutability": "nonpayable",
      "type": "constructor"
    },
    {
      "inputs": [],
      "name": "AddressZero",
      "type": "error"
    },
    {
      "inputs": [],
      "name": "AmountZero",
      "type": "error"
    },
    {
      "inputs": [],
      "name": "Disallowed",
      "type": "error"
    },
    {
      "inputs": [],
      "name": "EscrowUnsupported",
      "type": "error"
    },
    {
      "inputs": [],
      "name": "FeeTooHigh",
      "type": "error"
    },
    {
      "inputs": [],
      "name": "InitParamsInvalid",
      "type": "error"
    },
    {
      "inputs": [],
      "name": "InsufficientPayment",
      "type": "error"
    },
    {
      "inputs": [],
      "name": "InvoiceWithPay",
      "type": "error"
    },
    {
      "inputs": [],
      "name": "NotRegistrar",
      "type": "error"
    },
    {
      "inputs": [],
      "name": "OnlyOwner",
      "type": "error"
    },
    {
      "inputs": [],
      "name": "OnlyOwnerOrApproved",
      "type": "error"
    },
    {
      "anonymous": false,
      "inputs": [],
      "name": "PaymentCreated",
      "type": "event"
    },
    {
      "inputs": [],
      "name": "REGISTRAR",
      "outputs": [
        {
          "internalType": "address",
          "name": "",
          "type": "address"
        }
      ],
      "stateMutability": "view",
      "type": "function"
    },
    {
      "inputs": [],
      "name": "_URI",
      "outputs": [
        {
          "internalType": "string",
          "name": "",
          "type": "string"
        }
      ],
      "stateMutability": "view",
      "type": "function"
    },
    {
      "inputs": [
        {
          "internalType": "address",
          "name": "",
          "type": "address"
        }
      ],
      "name": "dappOperatorFees",
      "outputs": [
        {
          "internalType": "uint256",
          "name": "writeBPS",
          "type": "uint256"
        },
        {
          "internalType": "uint256",
          "name": "transferBPS",
          "type": "uint256"
        },
        {
          "internalType": "uint256",
          "name": "fundBPS",
          "type": "uint256"
        },
        {
          "internalType": "uint256",
          "name": "cashBPS",
          "type": "uint256"
        }
      ],
      "stateMutability": "view",
      "type": "function"
    },
    {
      "inputs": [
        {
          "internalType": "address",
          "name": "dappOperator",
          "type": "address"
        }
      ],
      "name": "getFees",
      "outputs": [
        {
          "components": [
            {
              "internalType": "uint256",
              "name": "writeBPS",
              "type": "uint256"
            },
            {
              "internalType": "uint256",
              "name": "transferBPS",
              "type": "uint256"
            },
            {
              "internalType": "uint256",
              "name": "fundBPS",
              "type": "uint256"
            },
            {
              "internalType": "uint256",
              "name": "cashBPS",
              "type": "uint256"
            }
          ],
          "internalType": "struct DataTypes.WTFCFees",
          "name": "",
          "type": "tuple"
        }
      ],
      "stateMutability": "view",
      "type": "function"
    },
    {
      "inputs": [
        {
          "internalType": "uint256",
          "name": "",
          "type": "uint256"
        }
      ],
      "name": "payments",
      "outputs": [
        {
          "internalType": "address",
          "name": "inspector",
          "type": "address"
        },
        {
          "internalType": "address",
          "name": "drawer",
          "type": "address"
        },
        {
          "internalType": "uint256",
          "name": "inspectionEnd",
          "type": "uint256"
        },
        {
          "internalType": "bytes32",
          "name": "memoHash",
          "type": "bytes32"
        }
      ],
      "stateMutability": "view",
      "type": "function"
    },
    {
      "inputs": [
        {
          "internalType": "address",
          "name": "caller",
          "type": "address"
        },
        {
          "internalType": "address",
          "name": "owner",
          "type": "address"
        },
        {
          "internalType": "address",
          "name": "to",
          "type": "address"
        },
        {
          "internalType": "uint256",
          "name": "cheqId",
          "type": "uint256"
        },
        {
          "components": [
            {
              "internalType": "address",
              "name": "currency",
              "type": "address"
            },
            {
              "internalType": "uint256",
              "name": "escrowed",
              "type": "uint256"
            },
            {
              "internalType": "uint256",
              "name": "createdAt",
              "type": "uint256"
            },
            {
              "internalType": "address",
              "name": "module",
              "type": "address"
            }
          ],
          "internalType": "struct DataTypes.Cheq",
          "name": "cheq",
          "type": "tuple"
        },
        {
          "internalType": "bytes",
          "name": "initData",
          "type": "bytes"
        }
      ],
      "name": "processApproval",
      "outputs": [],
      "stateMutability": "nonpayable",
      "type": "function"
    },
    {
      "inputs": [
        {
          "internalType": "address",
          "name": "caller",
          "type": "address"
        },
        {
          "internalType": "address",
          "name": "",
          "type": "address"
        },
        {
          "internalType": "address",
          "name": "",
          "type": "address"
        },
        {
          "internalType": "uint256",
          "name": "amount",
          "type": "uint256"
        },
        {
          "internalType": "uint256",
          "name": "cheqId",
          "type": "uint256"
        },
        {
          "components": [
            {
              "internalType": "address",
              "name": "currency",
              "type": "address"
            },
            {
              "internalType": "uint256",
              "name": "escrowed",
              "type": "uint256"
            },
            {
              "internalType": "uint256",
              "name": "createdAt",
              "type": "uint256"
            },
            {
              "internalType": "address",
              "name": "module",
              "type": "address"
            }
          ],
          "internalType": "struct DataTypes.Cheq",
          "name": "cheq",
          "type": "tuple"
        },
        {
          "internalType": "bytes",
          "name": "initData",
          "type": "bytes"
        }
      ],
      "name": "processCash",
      "outputs": [
        {
          "internalType": "uint256",
          "name": "",
          "type": "uint256"
        }
      ],
      "stateMutability": "nonpayable",
      "type": "function"
    },
    {
      "inputs": [
        {
          "internalType": "address",
          "name": "",
          "type": "address"
        },
        {
          "internalType": "address",
          "name": "",
          "type": "address"
        },
        {
          "internalType": "uint256",
          "name": "",
          "type": "uint256"
        },
        {
          "internalType": "uint256",
          "name": "",
          "type": "uint256"
        },
        {
          "internalType": "uint256",
          "name": "",
          "type": "uint256"
        },
        {
          "components": [
            {
              "internalType": "address",
              "name": "currency",
              "type": "address"
            },
            {
              "internalType": "uint256",
              "name": "escrowed",
              "type": "uint256"
            },
            {
              "internalType": "uint256",
              "name": "createdAt",
              "type": "uint256"
            },
            {
              "internalType": "address",
              "name": "module",
              "type": "address"
            }
          ],
          "internalType": "struct DataTypes.Cheq",
          "name": "",
          "type": "tuple"
        },
        {
          "internalType": "bytes",
          "name": "",
          "type": "bytes"
        }
      ],
      "name": "processFund",
      "outputs": [
        {
          "internalType": "uint256",
          "name": "",
          "type": "uint256"
        }
      ],
      "stateMutability": "view",
      "type": "function"
    },
    {
      "inputs": [
        {
          "internalType": "uint256",
          "name": "tokenId",
          "type": "uint256"
        }
      ],
      "name": "processTokenURI",
      "outputs": [
        {
          "internalType": "string",
          "name": "",
          "type": "string"
        }
      ],
      "stateMutability": "view",
      "type": "function"
    },
    {
      "inputs": [
        {
          "internalType": "address",
          "name": "caller",
          "type": "address"
        },
        {
          "internalType": "address",
          "name": "approved",
          "type": "address"
        },
        {
          "internalType": "address",
          "name": "owner",
          "type": "address"
        },
        {
          "internalType": "address",
          "name": "",
          "type": "address"
        },
        {
          "internalType": "address",
          "name": "",
          "type": "address"
        },
        {
          "internalType": "uint256",
          "name": "",
          "type": "uint256"
        },
        {
          "internalType": "address",
          "name": "currency",
          "type": "address"
        },
        {
          "internalType": "uint256",
          "name": "escrowed",
          "type": "uint256"
        },
        {
          "internalType": "uint256",
          "name": "",
          "type": "uint256"
        },
        {
          "internalType": "bytes",
          "name": "data",
          "type": "bytes"
        }
      ],
      "name": "processTransfer",
      "outputs": [
        {
          "internalType": "uint256",
          "name": "",
          "type": "uint256"
        }
      ],
      "stateMutability": "nonpayable",
      "type": "function"
    },
    {
      "inputs": [
        {
          "internalType": "address",
          "name": "caller",
          "type": "address"
        },
        {
          "internalType": "address",
          "name": "owner",
          "type": "address"
        },
        {
          "internalType": "uint256",
          "name": "cheqId",
          "type": "uint256"
        },
        {
          "internalType": "address",
          "name": "currency",
          "type": "address"
        },
        {
          "internalType": "uint256",
          "name": "escrowed",
          "type": "uint256"
        },
        {
          "internalType": "uint256",
          "name": "instant",
          "type": "uint256"
        },
        {
          "internalType": "bytes",
          "name": "initData",
          "type": "bytes"
        }
      ],
      "name": "processWrite",
      "outputs": [
        {
          "internalType": "uint256",
          "name": "",
          "type": "uint256"
        }
      ],
      "stateMutability": "nonpayable",
      "type": "function"
    },
    {
      "inputs": [
        {
          "internalType": "address",
          "name": "",
          "type": "address"
        },
        {
          "internalType": "address",
          "name": "",
          "type": "address"
        }
      ],
      "name": "revenue",
      "outputs": [
        {
          "internalType": "uint256",
          "name": "",
          "type": "uint256"
        }
      ],
      "stateMutability": "view",
      "type": "function"
    },
    {
      "inputs": [
        {
          "components": [
            {
              "internalType": "uint256",
              "name": "writeBPS",
              "type": "uint256"
            },
            {
              "internalType": "uint256",
              "name": "transferBPS",
              "type": "uint256"
            },
            {
              "internalType": "uint256",
              "name": "fundBPS",
              "type": "uint256"
            },
            {
              "internalType": "uint256",
              "name": "cashBPS",
              "type": "uint256"
            }
          ],
          "internalType": "struct DataTypes.WTFCFees",
          "name": "_fees",
          "type": "tuple"
        }
      ],
      "name": "setFees",
      "outputs": [],
      "stateMutability": "nonpayable",
      "type": "function"
    },
    {
      "inputs": [
        {
          "internalType": "address",
          "name": "token",
          "type": "address"
        }
      ],
      "name": "withdrawFees",
      "outputs": [],
      "stateMutability": "nonpayable",
      "type": "function"
    }
  ],
  "bytecode": {
    "object": "0x60a06040523480156200001157600080fd5b50604051620017433803806200174383398101604081905262000034916200029e565b82826001600160a01b0382166200005e576040516348be0eb360e01b815260040160405180910390fd5b6001600160a01b03821660805280516127101015620000905760405163cd4e616760e01b815260040160405180910390fd5b80602001516127101015620000b85760405163cd4e616760e01b815260040160405180910390fd5b80604001516127101015620000e05760405163cd4e616760e01b815260040160405180910390fd5b80606001516127101015620001085760405163cd4e616760e01b815260040160405180910390fd5b336000908152600160208181526040928390208451815590840151918101919091558183015160028201556060830151600390910155516001600160a01b038316907ff1a1fa6b64aa95186f5a1285e76198d0da80d9c5a88062641d447f1d7c54e56c906200017a9042815260200190565b60405180910390a25060029050620001938282620003d6565b50505050620004a2565b634e487b7160e01b600052604160045260246000fd5b604051608081016001600160401b0381118282101715620001d857620001d86200019d565b60405290565b604051601f8201601f191681016001600160401b03811182821017156200020957620002096200019d565b604052919050565b600082601f8301126200022357600080fd5b81516001600160401b038111156200023f576200023f6200019d565b602062000255601f8301601f19168201620001de565b82815285828487010111156200026a57600080fd5b60005b838110156200028a5785810183015182820184015282016200026d565b506000928101909101919091529392505050565b600080600083850360c0811215620002b557600080fd5b84516001600160a01b0381168114620002cd57600080fd5b93506080601f1982011215620002e257600080fd5b50620002ed620001b3565b602085015181526040850151602082015260608501516040820152608085015160608201528092505060a084015160018060401b038111156200032f57600080fd5b6200033d8682870162000211565b9150509250925092565b600181811c908216806200035c57607f821691505b6020821081036200037d57634e487b7160e01b600052602260045260246000fd5b50919050565b601f821115620003d157600081815260208120601f850160051c81016020861015620003ac5750805b601f850160051c820191505b81811015620003cd57828155600101620003b8565b5050505b505050565b81516001600160401b03811115620003f257620003f26200019d565b6200040a8162000403845462000347565b8462000383565b602080601f831160018114620004425760008415620004295750858301515b600019600386901b1c1916600185901b178555620003cd565b600085815260208120601f198616915b82811015620004735788860151825594840194600190910190840162000452565b5085821015620004925787850151600019600388901b60f8161c191681555b5050505050600190811b01905550565b60805161125b620004e8600039600081816102c301528181610364015281816104d4015281816106db0152818161087b015281816108e801526109d7015261125b6000f3fe608060405234801561001057600080fd5b50600436106100ea5760003560e01c8063b4e87e8f1161008c578063c0c9572c11610066578063c0c9572c146102ab578063cb609077146102be578063e4175968146102fd578063fd77c9601461031057600080fd5b8063b4e87e8f1461027d578063b5d701ba14610285578063be2f3fdd1461029857600080fd5b80634fe17e1a116100c85780634fe17e1a1461018057806387d81789146101a05780639a0ea37a1461020f5780639af608c91461023757600080fd5b806306890cd0146100ef5780631385a7b614610115578063164e68de1461016b575b600080fd5b6101026100fd366004610bad565b610357565b6040519081526020015b60405180910390f35b61014b610123366004610c4f565b6001602081905260009182526040909120805491810154600282015460039092015490919084565b60408051948552602085019390935291830152606082015260800161010c565b61017e610179366004610c4f565b610441565b005b61019361018e366004610c73565b610571565b60405161010c9190610c8c565b6101e46101ae366004610c73565b600360208190526000918252604090912080546001820154600283015492909301546001600160a01b0391821693909116919084565b604080516001600160a01b03958616815294909316602085015291830152606082015260800161010c565b61010261021d366004610cda565b600060208181529281526040808220909352908152205481565b61024a610245366004610c4f565b6105c8565b60405161010c91908151815260208083015190820152604080830151908201526060918201519181019190915260800190565b610193610640565b610102610293366004610d13565b6106ce565b6101026102a6366004610d8b565b61086e565b6101026102b9366004610e8a565b6108db565b6102e57f000000000000000000000000000000000000000000000000000000000000000081565b6040516001600160a01b03909116815260200161010c565b61017e61030b366004610f54565b6109cc565b61017e61031e366004610fe5565b33600090815260016020818152604092839020845181559084015191810191909155908201516002820155606090910151600390910155565b6000336001600160a01b037f000000000000000000000000000000000000000000000000000000000000000016146103a257604051632ad9535160e01b815260040160405180910390fd5b6000858152600360205260409020546001600160a01b038a81169116146104105760405162461bcd60e51b815260206004820152601860248201527f496e73706563746f72206361736820666f72206f776e6572000000000000000060448201526064015b60405180910390fd5b6104346104206020860186610c4f565b8761042d85870187610c4f565b6003610a15565b9998505050505050505050565b336000908152602081815260408083206001600160a01b0385168452909152902054600181116104aa5760405162461bcd60e51b8152602060048201526014602482015273496e73756666696369656e7420726576656e756560601b6044820152606401610407565b336000908152602081815260408083206001600160a01b03868116855292529091206001908190557f00000000000000000000000000000000000000000000000000000000000000009091169063d6a4f84c9084906105099085611061565b6040516001600160e01b031960e085901b1681526001600160a01b0390921660048301526024820152336044820152606401600060405180830381600087803b15801561055557600080fd5b505af1158015610569573d6000803e3d6000fd5b505050505050565b606060006002805461058290611074565b90501161059e57604051806020016040528060008152506105c2565b6002826040516020016105b29291906110a8565b6040516020818303038152906040525b92915050565b6105f36040518060800160405280600081526020016000815260200160008152602001600081525090565b506001600160a01b03166000908152600160208181526040928390208351608081018552815481529281015491830191909152600281015492820192909252600390910154606082015290565b6002805461064d90611074565b80601f016020809104026020016040519081016040528092919081815260200182805461067990611074565b80156106c65780601f1061069b576101008083540402835291602001916106c6565b820191906000526020600020905b8154815290600101906020018083116106a957829003601f168201915b505050505081565b6000336001600160a01b037f0000000000000000000000000000000000000000000000000000000000000000161461071957604051632ad9535160e01b815260040160405180910390fd5b600080808061072a8688018861116c565b93509350935093508b6001600160a01b03168d6001600160a01b03161415801561075c57506001600160a01b038c1615155b6107995760405162461bcd60e51b815260206004820152600e60248201526d496e76616c696420506172616d7360901b6044820152606401610407565b83600360008d815260200190815260200160002060000160006101000a8154816001600160a01b0302191690836001600160a01b0316021790555082600360008d8152602001908152602001600020600201819055508c600360008d815260200190815260200160002060010160006101000a8154816001600160a01b0302191690836001600160a01b0316021790555080600360008d81526020019081526020016000206003018190555061085d8a898b61085591906111b4565b846000610a15565b9d9c50505050505050505050505050565b6000336001600160a01b037f000000000000000000000000000000000000000000000000000000000000000016146108b957604051632ad9535160e01b815260040160405180910390fd5b60405162461bcd60e51b81526020600482015260006024820152604401610407565b6000336001600160a01b037f0000000000000000000000000000000000000000000000000000000000000000161461092657604051632ad9535160e01b815260040160405180910390fd5b886001600160a01b03168b6001600160a01b031614806109575750896001600160a01b03168b6001600160a01b0316145b61099c5760405162461bcd60e51b815260206004820152601660248201527513db9b1e481bdddb995c881bdc88185c1c1c9bdd995960521b6044820152606401610407565b6109bd856000848060200190518101906109b691906111c7565b6001610a15565b9b9a5050505050505050505050565b336001600160a01b037f0000000000000000000000000000000000000000000000000000000000000000161461056957604051632ad9535160e01b815260040160405180910390fd5b60008160ff16600003610a4157506001600160a01b038216600090815260016020526040902054610ac5565b8160ff16600103610a6f57506001600160a01b03821660009081526001602081905260409091200154610ac5565b8160ff16600203610a9c57506001600160a01b038216600090815260016020526040902060020154610ac5565b8160ff166003036108b957506001600160a01b0382166000908152600160205260409020600301545b612710610ad282866111e4565b610adc9190611203565b6001600160a01b03808516600090815260208181526040808320938a16835292905290812080549293508392909190610b169084906111b4565b909155509095945050505050565b6001600160a01b0381168114610b3957600080fd5b50565b8035610b4781610b24565b919050565b600060808284031215610b5e57600080fd5b50919050565b60008083601f840112610b7657600080fd5b50813567ffffffffffffffff811115610b8e57600080fd5b602083019150836020828501011115610ba657600080fd5b9250929050565b600080600080600080600080610140898b031215610bca57600080fd5b8835610bd581610b24565b97506020890135610be581610b24565b96506040890135610bf581610b24565b95506060890135945060808901359350610c128a60a08b01610b4c565b925061012089013567ffffffffffffffff811115610c2f57600080fd5b610c3b8b828c01610b64565b999c989b5096995094979396929594505050565b600060208284031215610c6157600080fd5b8135610c6c81610b24565b9392505050565b600060208284031215610c8557600080fd5b5035919050565b600060208083528351808285015260005b81811015610cb957858101830151858201604001528201610c9d565b506000604082860101526040601f19601f8301168501019250505092915050565b60008060408385031215610ced57600080fd5b8235610cf881610b24565b91506020830135610d0881610b24565b809150509250929050565b60008060008060008060008060e0898b031215610d2f57600080fd5b8835610d3a81610b24565b97506020890135610d4a81610b24565b9650604089013595506060890135610d6181610b24565b94506080890135935060a0890135925060c089013567ffffffffffffffff811115610c2f57600080fd5b600080600080600080600080610140898b031215610da857600080fd5b8835610db381610b24565b97506020890135610dc381610b24565b9650604089013595506060890135945060808901359350610c128a60a08b01610b4c565b634e487b7160e01b600052604160045260246000fd5b600082601f830112610e0e57600080fd5b813567ffffffffffffffff80821115610e2957610e29610de7565b604051601f8301601f19908116603f01168101908282118183101715610e5157610e51610de7565b81604052838152866020858801011115610e6a57600080fd5b836020870160208301376000602085830101528094505050505092915050565b6000806000806000806000806000806101408b8d031215610eaa57600080fd5b8a35610eb581610b24565b995060208b0135610ec581610b24565b985060408b0135610ed581610b24565b975060608b0135610ee581610b24565b965060808b0135610ef581610b24565b955060a08b01359450610f0a60c08c01610b3c565b935060e08b013592506101008b013591506101208b013567ffffffffffffffff811115610f3657600080fd5b610f428d828e01610dfd565b9150509295989b9194979a5092959850565b6000806000806000806101208789031215610f6e57600080fd5b8635610f7981610b24565b95506020870135610f8981610b24565b94506040870135610f9981610b24565b935060608701359250610faf8860808901610b4c565b915061010087013567ffffffffffffffff811115610fcc57600080fd5b610fd889828a01610dfd565b9150509295509295509295565b600060808284031215610ff757600080fd5b6040516080810181811067ffffffffffffffff8211171561101a5761101a610de7565b8060405250823581526020830135602082015260408301356040820152606083013560608201528091505092915050565b634e487b7160e01b600052601160045260246000fd5b818103818111156105c2576105c261104b565b600181811c9082168061108857607f821691505b602082108103610b5e57634e487b7160e01b600052602260045260246000fd5b6f161132bc3a32b93730b62fbab936111d60811b815282546000906010908290600181811c90808316806110dd57607f831692505b602080841082036110fc57634e487b7160e01b86526022600452602486fd5b81801561111057600181146111295761115a565b60ff1986168a89015284151585028a018801965061115a565b60008c81526020902060005b868110156111505781548c82018b0152908501908301611135565b505087858b010196505b50988552505050940195945050505050565b6000806000806080858703121561118257600080fd5b843561118d81610b24565b93506020850135925060408501356111a481610b24565b9396929550929360600135925050565b808201808211156105c2576105c261104b565b6000602082840312156111d957600080fd5b8151610c6c81610b24565b60008160001904831182151516156111fe576111fe61104b565b500290565b60008261122057634e487b7160e01b600052601260045260246000fd5b50049056fea264697066735822122021b44bd96ce59e21bb25a0602af539a8b837c5390a8805a1a5f5b401f826550564736f6c63430008100033",
    "linkReferences": {}
  },
  "methodIdentifiers": {
    "REGISTRAR()": "cb609077",
    "_URI()": "b4e87e8f",
    "dappOperatorFees(address)": "1385a7b6",
    "getFees(address)": "9af608c9",
    "payments(uint256)": "87d81789",
    "processApproval(address,address,address,uint256,(address,uint256,uint256,address),bytes)": "e4175968",
    "processCash(address,address,address,uint256,uint256,(address,uint256,uint256,address),bytes)": "06890cd0",
    "processFund(address,address,uint256,uint256,uint256,(address,uint256,uint256,address),bytes)": "be2f3fdd",
    "processTokenURI(uint256)": "4fe17e1a",
    "processTransfer(address,address,address,address,address,uint256,address,uint256,uint256,bytes)": "c0c9572c",
    "processWrite(address,address,uint256,address,uint256,uint256,bytes)": "b5d701ba",
    "revenue(address,address)": "9a0ea37a",
    "setFees((uint256,uint256,uint256,uint256))": "fd77c960",
    "withdrawFees(address)": "164e68de"
  },
  "id": 35
}