{
  "abi": [
    {
      "inputs": [
        {
          "components": [
            {
              "internalType": "uint256",
              "name": "writeBPS",
              "type": "uint256"
            },
            {
              "internalType": "uint256",
              "name": "transferBPS",
              "type": "uint256"
            },
            {
              "internalType": "uint256",
              "name": "fundBPS",
              "type": "uint256"
            },
            {
              "internalType": "uint256",
              "name": "cashBPS",
              "type": "uint256"
            }
          ],
          "internalType": "struct DataTypes.WTFCFees",
          "name": "_fees",
          "type": "tuple"
        }
      ],
      "stateMutability": "nonpayable",
      "type": "constructor"
    },
    {
      "inputs": [],
      "name": "Disallowed",
      "type": "error"
    },
    {
      "inputs": [
        {
          "internalType": "uint256",
          "name": "",
          "type": "uint256"
        },
        {
          "internalType": "uint256",
          "name": "",
          "type": "uint256"
        }
      ],
      "name": "InsufficientEscrow",
      "type": "error"
    },
    {
      "inputs": [
        {
          "internalType": "uint256",
          "name": "",
          "type": "uint256"
        }
      ],
      "name": "InsufficientValue",
      "type": "error"
    },
    {
      "inputs": [
        {
          "internalType": "address",
          "name": "",
          "type": "address"
        },
        {
          "internalType": "address",
          "name": "",
          "type": "address"
        }
      ],
      "name": "InvalidWrite",
      "type": "error"
    },
    {
      "inputs": [],
      "name": "SelfApproval",
      "type": "error"
    },
    {
      "inputs": [],
      "name": "SendFailed",
      "type": "error"
    },
    {
      "anonymous": false,
      "inputs": [
        {
          "indexed": true,
          "internalType": "address",
          "name": "owner",
          "type": "address"
        },
        {
          "indexed": true,
          "internalType": "address",
          "name": "approved",
          "type": "address"
        },
        {
          "indexed": true,
          "internalType": "uint256",
          "name": "tokenId",
          "type": "uint256"
        }
      ],
      "name": "Approval",
      "type": "event"
    },
    {
      "anonymous": false,
      "inputs": [
        {
          "indexed": true,
          "internalType": "address",
          "name": "owner",
          "type": "address"
        },
        {
          "indexed": true,
          "internalType": "address",
          "name": "operator",
          "type": "address"
        },
        {
          "indexed": false,
          "internalType": "bool",
          "name": "approved",
          "type": "bool"
        }
      ],
      "name": "ApprovalForAll",
      "type": "event"
    },
    {
      "anonymous": false,
      "inputs": [
        {
          "indexed": true,
          "internalType": "address",
          "name": "previousOwner",
          "type": "address"
        },
        {
          "indexed": true,
          "internalType": "address",
          "name": "newOwner",
          "type": "address"
        }
      ],
      "name": "OwnershipTransferred",
      "type": "event"
    },
    {
      "anonymous": false,
      "inputs": [
        {
          "indexed": true,
          "internalType": "address",
          "name": "from",
          "type": "address"
        },
        {
          "indexed": true,
          "internalType": "address",
          "name": "to",
          "type": "address"
        },
        {
          "indexed": true,
          "internalType": "uint256",
          "name": "tokenId",
          "type": "uint256"
        }
      ],
      "name": "Transfer",
      "type": "event"
    },
    {
      "inputs": [
        {
          "internalType": "address",
          "name": "module",
          "type": "address"
        }
      ],
      "name": "_returnCodeHash",
      "outputs": [
        {
          "internalType": "bytes32",
          "name": "",
          "type": "bytes32"
        }
      ],
      "stateMutability": "view",
      "type": "function"
    },
    {
      "inputs": [],
      "name": "_writeFlatFee",
      "outputs": [
        {
          "internalType": "uint256",
          "name": "",
          "type": "uint256"
        }
      ],
      "stateMutability": "view",
      "type": "function"
    },
    {
      "inputs": [
        {
          "internalType": "address",
          "name": "to",
          "type": "address"
        },
        {
          "internalType": "uint256",
          "name": "tokenId",
          "type": "uint256"
        }
      ],
      "name": "approve",
      "outputs": [],
      "stateMutability": "nonpayable",
      "type": "function"
    },
    {
      "inputs": [
        {
          "internalType": "address",
          "name": "owner",
          "type": "address"
        }
      ],
      "name": "balanceOf",
      "outputs": [
        {
          "internalType": "uint256",
          "name": "",
          "type": "uint256"
        }
      ],
      "stateMutability": "view",
      "type": "function"
    },
    {
      "inputs": [
        {
          "internalType": "uint256",
          "name": "cheqId",
          "type": "uint256"
        },
        {
          "internalType": "uint256",
          "name": "amount",
          "type": "uint256"
        },
        {
          "internalType": "address",
          "name": "to",
          "type": "address"
        },
        {
          "internalType": "bytes",
          "name": "cashData",
          "type": "bytes"
        }
      ],
      "name": "cash",
      "outputs": [],
      "stateMutability": "payable",
      "type": "function"
    },
    {
      "inputs": [
        {
          "internalType": "uint256",
          "name": "cheqId",
          "type": "uint256"
        }
      ],
      "name": "cheqCurrency",
      "outputs": [
        {
          "internalType": "address",
          "name": "",
          "type": "address"
        }
      ],
      "stateMutability": "view",
      "type": "function"
    },
    {
      "inputs": [
        {
          "internalType": "uint256",
          "name": "cheqId",
          "type": "uint256"
        }
      ],
      "name": "cheqEscrowed",
      "outputs": [
        {
          "internalType": "uint256",
          "name": "",
          "type": "uint256"
        }
      ],
      "stateMutability": "view",
      "type": "function"
    },
    {
      "inputs": [
        {
          "internalType": "uint256",
          "name": "cheqId",
          "type": "uint256"
        }
      ],
      "name": "cheqInfo",
      "outputs": [
        {
          "components": [
            {
              "internalType": "address",
              "name": "currency",
              "type": "address"
            },
            {
              "internalType": "uint256",
              "name": "escrowed",
              "type": "uint256"
            },
            {
              "internalType": "uint256",
              "name": "createdAt",
              "type": "uint256"
            },
            {
              "internalType": "address",
              "name": "module",
              "type": "address"
            }
          ],
          "internalType": "struct DataTypes.Cheq",
          "name": "",
          "type": "tuple"
        }
      ],
      "stateMutability": "view",
      "type": "function"
    },
    {
      "inputs": [
        {
          "internalType": "uint256",
          "name": "cheqId",
          "type": "uint256"
        }
      ],
      "name": "cheqModule",
      "outputs": [
        {
          "internalType": "address",
          "name": "",
          "type": "address"
        }
      ],
      "stateMutability": "view",
      "type": "function"
    },
    {
      "inputs": [],
      "name": "fees",
      "outputs": [
        {
          "internalType": "uint256",
          "name": "writeBPS",
          "type": "uint256"
        },
        {
          "internalType": "uint256",
          "name": "transferBPS",
          "type": "uint256"
        },
        {
          "internalType": "uint256",
          "name": "fundBPS",
          "type": "uint256"
        },
        {
          "internalType": "uint256",
          "name": "cashBPS",
          "type": "uint256"
        }
      ],
      "stateMutability": "view",
      "type": "function"
    },
    {
      "inputs": [
        {
          "internalType": "uint256",
          "name": "cheqId",
          "type": "uint256"
        },
        {
          "internalType": "uint256",
          "name": "amount",
          "type": "uint256"
        },
        {
          "internalType": "uint256",
          "name": "instant",
          "type": "uint256"
        },
        {
          "internalType": "bytes",
          "name": "fundData",
          "type": "bytes"
        }
      ],
      "name": "fund",
      "outputs": [],
      "stateMutability": "payable",
      "type": "function"
    },
    {
      "inputs": [
        {
          "internalType": "uint256",
          "name": "tokenId",
          "type": "uint256"
        }
      ],
      "name": "getApproved",
      "outputs": [
        {
          "internalType": "address",
          "name": "",
          "type": "address"
        }
      ],
      "stateMutability": "view",
      "type": "function"
    },
    {
      "inputs": [],
      "name": "getFees",
      "outputs": [
        {
          "internalType": "uint256",
          "name": "",
          "type": "uint256"
        },
        {
          "internalType": "uint256",
          "name": "",
          "type": "uint256"
        },
        {
          "internalType": "uint256",
          "name": "",
          "type": "uint256"
        },
        {
          "internalType": "uint256",
          "name": "",
          "type": "uint256"
        }
      ],
      "stateMutability": "view",
      "type": "function"
    },
    {
      "inputs": [
        {
          "internalType": "uint256",
          "name": "cheqId",
          "type": "uint256"
        },
        {
          "internalType": "uint8",
          "name": "_WTFC",
          "type": "uint8"
        }
      ],
      "name": "getTotalFees",
      "outputs": [
        {
          "internalType": "uint256",
          "name": "",
          "type": "uint256"
        },
        {
          "internalType": "uint256",
          "name": "",
          "type": "uint256"
        }
      ],
      "stateMutability": "view",
      "type": "function"
    },
    {
      "inputs": [
        {
          "internalType": "address",
          "name": "owner",
          "type": "address"
        },
        {
          "internalType": "address",
          "name": "operator",
          "type": "address"
        }
      ],
      "name": "isApprovedForAll",
      "outputs": [
        {
          "internalType": "bool",
          "name": "",
          "type": "bool"
        }
      ],
      "stateMutability": "view",
      "type": "function"
    },
    {
      "inputs": [
        {
          "internalType": "address",
          "name": "module",
          "type": "address"
        }
      ],
      "name": "moduleWhitelisted",
      "outputs": [
        {
          "internalType": "bool",
          "name": "",
          "type": "bool"
        },
        {
          "internalType": "bool",
          "name": "",
          "type": "bool"
        }
      ],
      "stateMutability": "view",
      "type": "function"
    },
    {
      "inputs": [
        {
          "internalType": "address",
          "name": "token",
          "type": "address"
        },
        {
          "internalType": "uint256",
          "name": "amount",
          "type": "uint256"
        },
        {
          "internalType": "address",
          "name": "to",
          "type": "address"
        }
      ],
      "name": "moduleWithdraw",
      "outputs": [],
      "stateMutability": "nonpayable",
      "type": "function"
    },
    {
      "inputs": [],
      "name": "name",
      "outputs": [
        {
          "internalType": "string",
          "name": "",
          "type": "string"
        }
      ],
      "stateMutability": "view",
      "type": "function"
    },
    {
      "inputs": [],
      "name": "owner",
      "outputs": [
        {
          "internalType": "address",
          "name": "",
          "type": "address"
        }
      ],
      "stateMutability": "view",
      "type": "function"
    },
    {
      "inputs": [
        {
          "internalType": "uint256",
          "name": "tokenId",
          "type": "uint256"
        }
      ],
      "name": "ownerOf",
      "outputs": [
        {
          "internalType": "address",
          "name": "",
          "type": "address"
        }
      ],
      "stateMutability": "view",
      "type": "function"
    },
    {
      "inputs": [],
      "name": "renounceOwnership",
      "outputs": [],
      "stateMutability": "nonpayable",
      "type": "function"
    },
    {
      "inputs": [
        {
          "internalType": "address",
          "name": "from",
          "type": "address"
        },
        {
          "internalType": "address",
          "name": "to",
          "type": "address"
        },
        {
          "internalType": "uint256",
          "name": "tokenId",
          "type": "uint256"
        }
      ],
      "name": "safeTransferFrom",
      "outputs": [],
      "stateMutability": "nonpayable",
      "type": "function"
    },
    {
      "inputs": [
        {
          "internalType": "address",
          "name": "from",
          "type": "address"
        },
        {
          "internalType": "address",
          "name": "to",
          "type": "address"
        },
        {
          "internalType": "uint256",
          "name": "tokenId",
          "type": "uint256"
        },
        {
          "internalType": "bytes",
          "name": "moduleTransferData",
          "type": "bytes"
        }
      ],
      "name": "safeTransferFrom",
      "outputs": [],
      "stateMutability": "nonpayable",
      "type": "function"
    },
    {
      "inputs": [
        {
          "internalType": "address",
          "name": "",
          "type": "address"
        },
        {
          "internalType": "bool",
          "name": "",
          "type": "bool"
        }
      ],
      "name": "setApprovalForAll",
      "outputs": [],
      "stateMutability": "pure",
      "type": "function"
    },
    {
      "inputs": [
        {
          "internalType": "bytes4",
          "name": "interfaceId",
          "type": "bytes4"
        }
      ],
      "name": "supportsInterface",
      "outputs": [
        {
          "internalType": "bool",
          "name": "",
          "type": "bool"
        }
      ],
      "stateMutability": "view",
      "type": "function"
    },
    {
      "inputs": [],
      "name": "symbol",
      "outputs": [
        {
          "internalType": "string",
          "name": "",
          "type": "string"
        }
      ],
      "stateMutability": "view",
      "type": "function"
    },
    {
      "inputs": [
        {
          "internalType": "uint256",
          "name": "tokenId",
          "type": "uint256"
        }
      ],
      "name": "tokenURI",
      "outputs": [
        {
          "internalType": "string",
          "name": "",
          "type": "string"
        }
      ],
      "stateMutability": "view",
      "type": "function"
    },
    {
      "inputs": [
        {
          "internalType": "address",
          "name": "token",
          "type": "address"
        }
      ],
      "name": "tokenWhitelisted",
      "outputs": [
        {
          "internalType": "bool",
          "name": "",
          "type": "bool"
        }
      ],
      "stateMutability": "view",
      "type": "function"
    },
    {
      "inputs": [],
      "name": "totalSupply",
      "outputs": [
        {
          "internalType": "uint256",
          "name": "",
          "type": "uint256"
        }
      ],
      "stateMutability": "view",
      "type": "function"
    },
    {
      "inputs": [
        {
          "internalType": "address",
          "name": "from",
          "type": "address"
        },
        {
          "internalType": "address",
          "name": "to",
          "type": "address"
        },
        {
          "internalType": "uint256",
          "name": "tokenId",
          "type": "uint256"
        }
      ],
      "name": "transferFrom",
      "outputs": [],
      "stateMutability": "nonpayable",
      "type": "function"
    },
    {
      "inputs": [
        {
          "internalType": "address",
          "name": "newOwner",
          "type": "address"
        }
      ],
      "name": "transferOwnership",
      "outputs": [],
      "stateMutability": "nonpayable",
      "type": "function"
    },
    {
      "inputs": [
        {
          "components": [
            {
              "internalType": "uint256",
              "name": "writeBPS",
              "type": "uint256"
            },
            {
              "internalType": "uint256",
              "name": "transferBPS",
              "type": "uint256"
            },
            {
              "internalType": "uint256",
              "name": "fundBPS",
              "type": "uint256"
            },
            {
              "internalType": "uint256",
              "name": "cashBPS",
              "type": "uint256"
            }
          ],
          "internalType": "struct DataTypes.WTFCFees",
          "name": "_fees",
          "type": "tuple"
        }
      ],
      "name": "updateFees",
      "outputs": [],
      "stateMutability": "nonpayable",
      "type": "function"
    },
    {
      "inputs": [
        {
          "internalType": "address",
          "name": "module",
          "type": "address"
        },
        {
          "internalType": "address",
          "name": "token",
          "type": "address"
        }
      ],
      "name": "validWrite",
      "outputs": [
        {
          "internalType": "bool",
          "name": "",
          "type": "bool"
        }
      ],
      "stateMutability": "view",
      "type": "function"
    },
    {
      "inputs": [
        {
          "internalType": "address",
          "name": "module",
          "type": "address"
        },
        {
          "internalType": "bool",
          "name": "bytecodeAccepted",
          "type": "bool"
        },
        {
          "internalType": "bool",
          "name": "addressAccepted",
          "type": "bool"
        }
      ],
      "name": "whitelistModule",
      "outputs": [],
      "stateMutability": "nonpayable",
      "type": "function"
    },
    {
      "inputs": [
        {
          "internalType": "address",
          "name": "_token",
          "type": "address"
        },
        {
          "internalType": "bool",
          "name": "accepted",
          "type": "bool"
        }
      ],
      "name": "whitelistToken",
      "outputs": [],
      "stateMutability": "nonpayable",
      "type": "function"
    },
    {
      "inputs": [
        {
          "internalType": "address",
          "name": "currency",
          "type": "address"
        },
        {
          "internalType": "uint256",
          "name": "escrowed",
          "type": "uint256"
        },
        {
          "internalType": "uint256",
          "name": "instant",
          "type": "uint256"
        },
        {
          "internalType": "address",
          "name": "owner",
          "type": "address"
        },
        {
          "internalType": "address",
          "name": "module",
          "type": "address"
        },
        {
          "internalType": "bytes",
          "name": "moduleWriteData",
          "type": "bytes"
        }
      ],
      "name": "write",
      "outputs": [
        {
          "internalType": "uint256",
          "name": "",
          "type": "uint256"
        }
      ],
      "stateMutability": "payable",
      "type": "function"
    }
  ],
  "bytecode": {
    "object": "0x60806040523480156200001157600080fd5b506040516200315738038062003157833981016040819052620000349162000146565b806040518060400160405280600f81526020016e19195b9bdd18481c1c9bdd1bd8dbdb608a1b815250604051806040016040528060048152602001634e4f544160e01b81525081600090816200008b91906200023e565b5060016200009a82826200023e565b505050620000b7620000b1620000da60201b60201c565b620000de565b8051600c556020810151600d556040810151600e5560600151600f55506200030a565b3390565b600680546001600160a01b038381166001600160a01b0319831681179093556040519116919082907f8be0079c531659141344cd1fd0a4f28419497f9722a3daafe3b4186f6b6457e090600090a35050565b634e487b7160e01b600052604160045260246000fd5b6000608082840312156200015957600080fd5b604051608081016001600160401b03811182821017156200017e576200017e62000130565b8060405250825181526020830151602082015260408301516040820152606083015160608201528091505092915050565b600181811c90821680620001c457607f821691505b602082108103620001e557634e487b7160e01b600052602260045260246000fd5b50919050565b601f8211156200023957600081815260208120601f850160051c81016020861015620002145750805b601f850160051c820191505b81811015620002355782815560010162000220565b5050505b505050565b81516001600160401b038111156200025a576200025a62000130565b62000272816200026b8454620001af565b84620001eb565b602080601f831160018114620002aa5760008415620002915750858301515b600019600386901b1c1916600185901b17855562000235565b600085815260208120601f198616915b82811015620002db57888601518255948401946001909101908401620002ba565b5085821015620002fa5787850151600019600388901b60f8161c191681555b5050505050600190811b01905550565b612e3d806200031a6000396000f3fe60806040526004361061020f5760003560e01c806395d89b4111610118578063d6a4f84c116100a0578063e985e9c51161006f578063e985e9c514610662578063f2fde38b146106ab578063f7794942146106cb578063fdd90c7014610766578063ff8507e81461079c57600080fd5b8063d6a4f84c146105cb578063db8d55f1146105eb578063dfd5d81114610609578063e0e295b71461062957600080fd5b8063b88d4fde116100e7578063b88d4fde14610535578063c298c4d214610555578063c87b56dd14610585578063d0d0bb3f146105a5578063d6122058146105b857600080fd5b806395d89b411461049d57806398a9c92b146104b25780639af1d35a146104d2578063a22cb4651461051557600080fd5b806342842e0e1161019b57806353aafb691161016a57806353aafb691461040a5780636352211e1461042a57806370a082311461044a578063715018a61461046a5780638da5cb5b1461047f57600080fd5b806342842e0e1461035c5780634c8065391461037c5780634e289c061461039257806352f37f56146103a557600080fd5b80630ffb1d8b116101e25780630ffb1d8b146102c5578063107e2f3b146102e55780631536beeb1461031257806318160ddd1461034757806323b872dd1461035c57600080fd5b806301ffc9a71461021457806306fdde0314610249578063081812fc1461026b578063095ea7b3146102a3575b600080fd5b34801561022057600080fd5b5061023461022f366004612418565b6107d5565b60405190151581526020015b60405180910390f35b34801561025557600080fd5b5061025e610827565b6040516102409190612485565b34801561027757600080fd5b5061028b610286366004612498565b6108b9565b6040516001600160a01b039091168152602001610240565b3480156102af57600080fd5b506102c36102be3660046124cd565b6108e0565b005b3480156102d157600080fd5b506102c36102e0366004612505565b6109c9565b3480156102f157600080fd5b5061030461030036600461253c565b3f90565b604051908152602001610240565b34801561031e57600080fd5b5061033261032d366004612557565b610a3f565b60408051928352602083019190915201610240565b34801561035357600080fd5b50601254610304565b34801561036857600080fd5b506102c3610377366004612582565b610b9e565b34801561038857600080fd5b5061030460105481565b6102c36103a0366004612600565b610bb9565b3480156103b157600080fd5b506103f36103c036600461253c565b6001600160a01b0381166000908152600a6020908152604080832054933f8352600990915290205460ff91821692911690565b604080519215158352901515602083015201610240565b34801561041657600080fd5b506102c3610425366004612668565b610e8b565b34801561043657600080fd5b5061028b610445366004612498565b610f74565b34801561045657600080fd5b5061030461046536600461253c565b610fd4565b34801561047657600080fd5b506102c361105a565b34801561048b57600080fd5b506006546001600160a01b031661028b565b3480156104a957600080fd5b5061025e61106e565b3480156104be57600080fd5b506102c36104cd3660046126b1565b61107d565b3480156104de57600080fd5b50600c54600d54600e54600f546104f59392919084565b604080519485526020850193909352918301526060820152608001610240565b34801561052157600080fd5b506102c3610530366004612505565b6110a3565b34801561054157600080fd5b506102c36105503660046126df565b6110bc565b34801561056157600080fd5b50610304610570366004612498565b60009081526011602052604090206001015490565b34801561059157600080fd5b5061025e6105a0366004612498565b611328565b6103046105b33660046127bb565b61139c565b6102c36105c6366004612844565b6116f1565b3480156105d757600080fd5b506102c36105e6366004612888565b61192b565b3480156105f757600080fd5b50600c54600d54600e54600f546104f5565b34801561061557600080fd5b506102346106243660046128c4565b6119c3565b34801561063557600080fd5b5061028b610644366004612498565b6000908152601160205260409020600301546001600160a01b031690565b34801561066e57600080fd5b5061023461067d3660046128c4565b6001600160a01b03918216600090815260056020908152604080832093909416825291909152205460ff1690565b3480156106b757600080fd5b506102c36106c636600461253c565b6119f6565b3480156106d757600080fd5b506107596106e6366004612498565b60408051608081018252600080825260208201819052918101829052606081019190915250600090815260116020908152604091829020825160808101845281546001600160a01b0390811682526001830154938201939093526002820154938101939093526003015416606082015290565b60405161024091906128f7565b34801561077257600080fd5b5061028b610781366004612498565b6000908152601160205260409020546001600160a01b031690565b3480156107a857600080fd5b506102346107b736600461253c565b6001600160a01b03166000908152600b602052604090205460ff1690565b60006001600160e01b031982166380ac58cd60e01b148061080657506001600160e01b03198216635b5e139f60e01b145b8061082157506301ffc9a760e01b6001600160e01b03198316145b92915050565b6060600080546108369061292f565b80601f01602080910402602001604051908101604052809291908181526020018280546108629061292f565b80156108af5780601f10610884576101008083540402835291602001916108af565b820191906000526020600020905b81548152906001019060200180831161089257829003601f168201915b5050505050905090565b60006108c482611a6f565b506000908152600460205260409020546001600160a01b031690565b336001600160a01b0383160361090957604051633cf0df2360e01b815260040160405180910390fd5b600081815260116020908152604091829020825160808101845281546001600160a01b03908116825260018301549382019390935260028201549381019390935260030154166060820181905263e41759683361096585610f74565b8686866040518663ffffffff1660e01b8152600401610988959493929190612963565b600060405180830381600087803b1580156109a257600080fd5b505af11580156109b6573d6000803e3d6000fd5b505050506109c48383611ace565b505050565b6109d1611b3c565b6001600160a01b0382166000818152600b60205260409020805460ff1916831515908117909155907f1bf5ef6ada443138fcac941f79625fe01e92ff514fee9f160bff18363199c7a033604080516001600160a01b0390921682524260208301520160405180910390a35050565b600080600080600080610a5d600c54600d54600e54600f5490919293565b9350935093509350610a6d6123e4565b6040518060800160405280868152602001858152602001848152602001838152509050600080600080601160008e815260200190815260200160002060030160009054906101000a90046001600160a01b03166001600160a01b031663db8d55f16040518163ffffffff1660e01b8152600401608060405180830381865afa158015610afd573d6000803e3d6000fd5b505050506040513d601f19601f82011682018060405250810190610b2191906129de565b9350935093509350610b316123e4565b6040518060800160405280868152602001858152602001848152602001838152509050858d60ff1660048110610b6957610b69612a14565b6020020151818e60ff1660048110610b8357610b83612a14565b60200201519b509b50505050505050505050505b9250929050565b6109c4838383604051806020016040528060008152506110bc565b600085815260116020526040812060038101549091906001600160a01b03166306890cd033610be78a610f74565b888a8c888b8b6040518963ffffffff1660e01b8152600401610c10989796959493929190612a53565b6020604051808303816000875af1158015610c2f573d6000803e3d6000fd5b505050506040513d601f19601f82011682018060405250810190610c539190612ad0565b90506000612710600c6003015488610c6b9190612aff565b610c759190612b1e565b90506000612710610c86848a612aff565b610c909190612b1e565b9050600081610c9f848b612b40565b610ca99190612b40565b90508460010154811115610ce957600185015460405163180e21d960e31b8152610ce0918391600401918252602082015260400190565b60405180910390fd5b600185018054829003905584546001600160a01b0316610d7d576000886001600160a01b03163460405160006040518083038185875af1925050503d8060008114610d50576040519150601f19603f3d011682016040523d82523d6000602084013e610d55565b606091505b5050905080610d77576040516381063e5160e01b815260040160405180910390fd5b50610d93565b8454610d93906001600160a01b0316898b611b96565b60038501546001600160a01b039081166000908152600760209081526040808320895490941683529290529081208054849290610dd1908490612b40565b909155505084546001600160a01b031660009081526008602052604081208054859290610dff908490612b40565b9091555050604051610e149088908890612b53565b60405180910390208a610e243390565b604080516001600160a01b038d81168252602082018f9052918101889052606081018790524260808201529116907fcc73058e75a01c33a85f65ead2935fe75310b9cb0c7980c2d1a14854db9721539060a00160405180910390a450505050505050505050565b610e93611b3c565b801515821515141580610eac57508180610eaa5750805b155b610eec5760405162461bcd60e51b8152602060048201526011602482015270086829c4ea8be8286868aa0a8be849ea89607b1b6044820152606401610ce0565b823f6000908152600960209081526040808320805486151560ff1991821681179092556001600160a01b038816808652600a8552948390208054871515921682179055825191825292810192909252429082015233907fe82584b416ef90b398503af85e6daba1407060c9e2d2050c858719c4f1b076479060600160405180910390a3505050565b6000818152600260205260408120546001600160a01b0316806108215760405162461bcd60e51b8152602060048201526018602482015277115490cdcc8c4e881a5b9d985b1a59081d1bdad95b88125160421b6044820152606401610ce0565b60006001600160a01b03821661103e5760405162461bcd60e51b815260206004820152602960248201527f4552433732313a2061646472657373207a65726f206973206e6f7420612076616044820152683634b21037bbb732b960b91b6064820152608401610ce0565b506001600160a01b031660009081526003602052604090205490565b611062611b3c565b61106c6000611bf9565b565b6060600180546108369061292f565b611085611b3c565b8035600c556020810135600d556040810135600e5560600135600f55565b604051635a89288760e01b815260040160405180910390fd5b60006110c783610f74565b60008481526011602052604081206003810154929350916001600160a01b031663c0c9572c336110f6886108b9565b868b8b8b8960000160009054906101000a90046001600160a01b03168a600101548b600201548e6040518b63ffffffff1660e01b81526004016111429a99989796959493929190612b63565b6020604051808303816000875af1158015611161573d6000803e3d6000fd5b505050506040513d601f19601f820116820180604052508101906111859190612ad0565b6001830154909150156112a1576000612710600c6001015484600101546111ac9190612aff565b6111b69190612b1e565b9050818184600101546111c99190612bd8565b6111d39190612bd8565b600184015560038301546001600160a01b039081166000908152600760209081526040808320875490941683529290529081208054849290611216908490612b40565b909155505082546001600160a01b031660009081526008602052604081208054839290611244908490612b40565b90915550506040805182815260208101849052428183015290516001600160a01b03898116929087169189917f86426a27b67faa69ebf65a2efa816f2db865f93526c68a0be0175c4471275850919081900360600190a450611304565b856001600160a01b0316836001600160a01b0316867f86426a27b67faa69ebf65a2efa816f2db865f93526c68a0be0175c4471275850600080426040516112fb939291909283526020830191909152604082015260600190565b60405180910390a45b61131f87878760405180602001604052806000815250611c4b565b50505050505050565b606061133382611a6f565b600061134a60408051602081019091526000815290565b9050600081511161136a5760405180602001604052806000815250611395565b8061137484611c84565b604051602001611385929190612beb565b6040516020818303038152906040525b9392505050565b60006113a884896119c3565b6113d85760405163c23595bd60e01b81526001600160a01b03808616600483015289166024820152604401610ce0565b601254604051635aeb80dd60e11b81526000916001600160a01b0387169163b5d701ba916114169133918b918f908f908f908d908d90600401612c1a565b6020604051808303816000875af1158015611435573d6000803e3d6000fd5b505050506040513d601f19601f820116820180604052508101906114599190612ad0565b9050600080611468898b612b40565b600c549091506127109061147c9083612aff565b6114869190612b1e565b9150600083611495848d612b40565b61149f9190612b40565b9050801561157f576001600160a01b038c166114dd57803410156114d85760405163294633cf60e21b8152346004820152602401610ce0565b6114f2565b6114f26001600160a01b038d16333084611d17565b6001600160a01b038c166000908152600860205260408120805485929061151a908490612b40565b9250508190555083600760008a6001600160a01b03166001600160a01b0316815260200190815260200160002060008e6001600160a01b03166001600160a01b0316815260200190815260200160002060008282546115799190612b40565b90915550505b89156115a9576001600160a01b038c16156115a9576115a96001600160a01b038d16338b8d611d17565b50506115b787601254611d4f565b8960116000601254815260200190815260200160002060000160006101000a8154816001600160a01b0302191690836001600160a01b03160217905550886011600060125481526020019081526020016000206001018190555042601160006012548152602001908152602001600020600201819055508560116000601254815260200190815260200160002060030160006101000a8154816001600160a01b0302191690836001600160a01b03160217905550856001600160a01b0316876001600160a01b03166116863390565b6001600160a01b03167ff401668e35bcbb5df9af7fce75aa772196867bda49684a81eac2b47f2161665c6012548c8f8f42898b8f8f6040516116d099989796959493929190612c6e565b60405180910390a45050601280546001810190915598975050505050505050565b60008581526011602052604081209061170987610f74565b60038301549091506000906001600160a01b031663be2f3fdd33848a8a8d898c8c6040518963ffffffff1660e01b815260040161174d989796959493929190612cc5565b6020604051808303816000875af115801561176c573d6000803e3d6000fd5b505050506040513d601f19601f820116820180604052508101906117909190612ad0565b9050600061179e8789612b40565b90506000612710600c60000154836117b69190612aff565b6117c09190612b1e565b905060006127106117d18585612aff565b6117db9190612b1e565b90506000816117ea848d612b40565b6117f49190612b40565b90508015611885576118133388546001600160a01b0316903084611d17565b86546001600160a01b03166000908152600860205260408120805485929061183c908490612b40565b909155505060038701546001600160a01b0390811660009081526007602090815260408083208b549094168352929052908120805484929061187f908490612b40565b90915550505b89156118a2576118a23388546001600160a01b031690888d611d17565b88886040516118b2929190612b53565b60405180910390208c6118c23390565b604080518f8152602081018f9052908101879052606081018690524260808201526001600160a01b0391909116907fadbe4af352c54f09ed95f837f2c7d17bac02ffad06d885343c616d3cbcbccf189060a00160405180910390a4505050505050505050505050565b3360009081526007602090815260408083206001600160a01b038716845290915290205482111561198c5760405162461bcd60e51b815260206004820152600b60248201526a494e5355465f46554e445360a81b6044820152606401610ce0565b3360009081526007602090815260408083206001600160a01b0387168085529252909120805484900390556109c490308385611d17565b60006119ce83611d6d565b80156113955750506001600160a01b03166000908152600b602052604090205460ff16919050565b6119fe611b3c565b6001600160a01b038116611a635760405162461bcd60e51b815260206004820152602660248201527f4f776e61626c653a206e6577206f776e657220697320746865207a65726f206160448201526564647265737360d01b6064820152608401610ce0565b611a6c81611bf9565b50565b6000818152600260205260409020546001600160a01b0316611a6c5760405162461bcd60e51b8152602060048201526018602482015277115490cdcc8c4e881a5b9d985b1a59081d1bdad95b88125160421b6044820152606401610ce0565b600081815260046020526040902080546001600160a01b0319166001600160a01b0384169081179091558190611b0382610f74565b6001600160a01b03167f8c5be1e5ebec7d5bd14f71427d1e84f3dd0314c0f7b2291e5b200ac8c7c3b92560405160405180910390a45050565b6006546001600160a01b0316331461106c5760405162461bcd60e51b815260206004820181905260248201527f4f776e61626c653a2063616c6c6572206973206e6f7420746865206f776e65726044820152606401610ce0565b6040516001600160a01b0383166024820152604481018290526109c490849063a9059cbb60e01b906064015b60408051601f198184030181529190526020810180516001600160e01b03166001600160e01b031990931692909217909152611da6565b600680546001600160a01b038381166001600160a01b0319831681179093556040519116919082907f8be0079c531659141344cd1fd0a4f28419497f9722a3daafe3b4186f6b6457e090600090a35050565b611c56848484611e78565b611c6284848484611f7f565b611c7e5760405162461bcd60e51b8152600401610ce090612d22565b50505050565b60606000611c9183612081565b600101905060008167ffffffffffffffff811115611cb157611cb16126c9565b6040519080825280601f01601f191660200182016040528015611cdb576020820181803683370190505b5090508181016020015b600019016f181899199a1a9b1b9c1cb0b131b232b360811b600a86061a8153600a8504945084611ce557509392505050565b6040516001600160a01b0380851660248301528316604482015260648101829052611c7e9085906323b872dd60e01b90608401611bc2565b611d69828260405180602001604052806000815250612159565b5050565b6001600160a01b0381166000908152600a602052604081205460ff16806108215750503f60009081526009602052604090205460ff1690565b6000611dfb826040518060400160405280602081526020017f5361666545524332303a206c6f772d6c6576656c2063616c6c206661696c6564815250856001600160a01b031661218c9092919063ffffffff16565b8051909150156109c45780806020019051810190611e199190612d74565b6109c45760405162461bcd60e51b815260206004820152602a60248201527f5361666545524332303a204552433230206f7065726174696f6e20646964206e6044820152691bdd081cdd58d8d9595960b21b6064820152608401610ce0565b826001600160a01b0316611e8b82610f74565b6001600160a01b031614611eef5760405162461bcd60e51b815260206004820152602560248201527f4552433732313a207472616e736665722066726f6d20696e636f72726563742060448201526437bbb732b960d91b6064820152608401610ce0565b600081815260046020908152604080832080546001600160a01b03199081169091556001600160a01b0387811680865260038552838620805460001901905590871680865283862080546001019055868652600290945282852080549092168417909155905184937fddf252ad1be2c89b69c2b068fc378daa952ba7f163c4a11628f55a4df523b3ef91a4505050565b60006001600160a01b0384163b1561207557604051630a85bd0160e11b81526001600160a01b0385169063150b7a0290611fc3903390899088908890600401612d91565b6020604051808303816000875af1925050508015611ffe575060408051601f3d908101601f19168201909252611ffb91810190612dce565b60015b61205b573d80801561202c576040519150601f19603f3d011682016040523d82523d6000602084013e612031565b606091505b5080516000036120535760405162461bcd60e51b8152600401610ce090612d22565b805181602001fd5b6001600160e01b031916630a85bd0160e11b149050612079565b5060015b949350505050565b60008072184f03e93ff9f4daa797ed6e38ed64bf6a1f0160401b83106120c05772184f03e93ff9f4daa797ed6e38ed64bf6a1f0160401b830492506040015b6d04ee2d6d415b85acef810000000083106120ec576d04ee2d6d415b85acef8100000000830492506020015b662386f26fc10000831061210a57662386f26fc10000830492506010015b6305f5e1008310612122576305f5e100830492506008015b612710831061213657612710830492506004015b60648310612148576064830492506002015b600a83106108215760010192915050565b612163838361219b565b6121706000848484611f7f565b6109c45760405162461bcd60e51b8152600401610ce090612d22565b6060612079848460008561226b565b6000818152600260205260409020546001600160a01b0316156122005760405162461bcd60e51b815260206004820152601c60248201527f4552433732313a20746f6b656e20616c7265616479206d696e746564000000006044820152606401610ce0565b6001600160a01b038216600081815260036020908152604080832080546001019055848352600290915280822080546001600160a01b0319168417905551839291907fddf252ad1be2c89b69c2b068fc378daa952ba7f163c4a11628f55a4df523b3ef908290a45050565b6060824710156122cc5760405162461bcd60e51b815260206004820152602660248201527f416464726573733a20696e73756666696369656e742062616c616e636520666f6044820152651c8818d85b1b60d21b6064820152608401610ce0565b600080866001600160a01b031685876040516122e89190612deb565b60006040518083038185875af1925050503d8060008114612325576040519150601f19603f3d011682016040523d82523d6000602084013e61232a565b606091505b509150915061233b87838387612346565b979650505050505050565b606083156123b55782516000036123ae576001600160a01b0385163b6123ae5760405162461bcd60e51b815260206004820152601d60248201527f416464726573733a2063616c6c20746f206e6f6e2d636f6e74726163740000006044820152606401610ce0565b5081612079565b61207983838151156123ca5781518083602001fd5b8060405162461bcd60e51b8152600401610ce09190612485565b60405180608001604052806004906020820280368337509192915050565b6001600160e01b031981168114611a6c57600080fd5b60006020828403121561242a57600080fd5b813561139581612402565b60005b83811015612450578181015183820152602001612438565b50506000910152565b60008151808452612471816020860160208601612435565b601f01601f19169290920160200192915050565b6020815260006113956020830184612459565b6000602082840312156124aa57600080fd5b5035919050565b80356001600160a01b03811681146124c857600080fd5b919050565b600080604083850312156124e057600080fd5b6124e9836124b1565b946020939093013593505050565b8015158114611a6c57600080fd5b6000806040838503121561251857600080fd5b612521836124b1565b91506020830135612531816124f7565b809150509250929050565b60006020828403121561254e57600080fd5b611395826124b1565b6000806040838503121561256a57600080fd5b82359150602083013560ff8116811461253157600080fd5b60008060006060848603121561259757600080fd5b6125a0846124b1565b92506125ae602085016124b1565b9150604084013590509250925092565b60008083601f8401126125d057600080fd5b50813567ffffffffffffffff8111156125e857600080fd5b602083019150836020828501011115610b9757600080fd5b60008060008060006080868803121561261857600080fd5b853594506020860135935061262f604087016124b1565b9250606086013567ffffffffffffffff81111561264b57600080fd5b612657888289016125be565b969995985093965092949392505050565b60008060006060848603121561267d57600080fd5b612686846124b1565b92506020840135612696816124f7565b915060408401356126a6816124f7565b809150509250925092565b6000608082840312156126c357600080fd5b50919050565b634e487b7160e01b600052604160045260246000fd5b600080600080608085870312156126f557600080fd5b6126fe856124b1565b935061270c602086016124b1565b925060408501359150606085013567ffffffffffffffff8082111561273057600080fd5b818701915087601f83011261274457600080fd5b813581811115612756576127566126c9565b604051601f8201601f19908116603f0116810190838211818310171561277e5761277e6126c9565b816040528281528a602084870101111561279757600080fd5b82602086016020830137600060208483010152809550505050505092959194509250565b600080600080600080600060c0888a0312156127d657600080fd5b6127df886124b1565b965060208801359550604088013594506127fb606089016124b1565b9350612809608089016124b1565b925060a088013567ffffffffffffffff81111561282557600080fd5b6128318a828b016125be565b989b979a50959850939692959293505050565b60008060008060006080868803121561285c57600080fd5b853594506020860135935060408601359250606086013567ffffffffffffffff81111561264b57600080fd5b60008060006060848603121561289d57600080fd5b6128a6846124b1565b9250602084013591506128bb604085016124b1565b90509250925092565b600080604083850312156128d757600080fd5b6128e0836124b1565b91506128ee602084016124b1565b90509250929050565b60808101610821828480516001600160a01b039081168352602080830151908401526040808301519084015260609182015116910152565b600181811c9082168061294357607f821691505b6020821081036126c357634e487b7160e01b600052602260045260246000fd5b6001600160a01b0386811682528581166020830152841660408201526060810183905260006101206129c2608084018580516001600160a01b039081168352602080830151908401526040808301519084015260609182015116910152565b6101008301819052600090830152506101400195945050505050565b600080600080608085870312156129f457600080fd5b505082516020840151604085015160609095015191969095509092509050565b634e487b7160e01b600052603260045260246000fd5b81835281816020850137506000828201602090810191909152601f909101601f19169091010190565b6001600160a01b0389811682528881166020830152878116604083015260608201879052608082018690528454811660a0830152600185015460c0830152600285015460e083015260038501541661010082015260006101405b80610120840152612ac18184018587612a2a565b9b9a5050505050505050505050565b600060208284031215612ae257600080fd5b5051919050565b634e487b7160e01b600052601160045260246000fd5b6000816000190483118215151615612b1957612b19612ae9565b500290565b600082612b3b57634e487b7160e01b600052601260045260246000fd5b500490565b8082018082111561082157610821612ae9565b8183823760009101908152919050565b6001600160a01b038b811682528a8116602083015289811660408301528881166060830152878116608083015260a08201879052851660c082015260e0810184905261010081018390526101406101208201819052600090612bc783820185612459565b9d9c50505050505050505050505050565b8181038181111561082157610821612ae9565b60008351612bfd818460208801612435565b835190830190612c11818360208801612435565b01949350505050565b600060018060a01b03808b168352808a1660208401528860408401528088166060840152508560808301528460a083015260e060c0830152612c6060e083018486612a2a565b9a9950505050505050505050565b60006101008b83528a602084015260018060a01b038a1660408401528860608401528760808401528660a08401528560c08401528060e0840152612cb58184018587612a2a565b9c9b505050505050505050505050565b6001600160a01b03898116825288811660208301526040820188905260608201879052608082018690528454811660a0830152600185015460c0830152600285015460e08301526003850154166101008201526000610140612aad565b60208082526032908201527f4552433732313a207472616e7366657220746f206e6f6e20455243373231526560408201527131b2b4bb32b91034b6b83632b6b2b73a32b960711b606082015260800190565b600060208284031215612d8657600080fd5b8151611395816124f7565b6001600160a01b0385811682528416602082015260408101839052608060608201819052600090612dc490830184612459565b9695505050505050565b600060208284031215612de057600080fd5b815161139581612402565b60008251612dfd818460208701612435565b919091019291505056fea2646970667358221220f5b5213a477204db446019a38d102844b78c3302de9a1532b06439226a78683264736f6c63430008100033",
    "linkReferences": {}
  },
  "methodIdentifiers": {
    "_returnCodeHash(address)": "107e2f3b",
    "_writeFlatFee()": "4c806539",
    "approve(address,uint256)": "095ea7b3",
    "balanceOf(address)": "70a08231",
    "cash(uint256,uint256,address,bytes)": "4e289c06",
    "cheqCurrency(uint256)": "fdd90c70",
    "cheqEscrowed(uint256)": "c298c4d2",
    "cheqInfo(uint256)": "f7794942",
    "cheqModule(uint256)": "e0e295b7",
    "fees()": "9af1d35a",
    "fund(uint256,uint256,uint256,bytes)": "d6122058",
    "getApproved(uint256)": "081812fc",
    "getFees()": "db8d55f1",
    "getTotalFees(uint256,uint8)": "1536beeb",
    "isApprovedForAll(address,address)": "e985e9c5",
    "moduleWhitelisted(address)": "52f37f56",
    "moduleWithdraw(address,uint256,address)": "d6a4f84c",
    "name()": "06fdde03",
    "owner()": "8da5cb5b",
    "ownerOf(uint256)": "6352211e",
    "renounceOwnership()": "715018a6",
    "safeTransferFrom(address,address,uint256)": "42842e0e",
    "safeTransferFrom(address,address,uint256,bytes)": "b88d4fde",
    "setApprovalForAll(address,bool)": "a22cb465",
    "supportsInterface(bytes4)": "01ffc9a7",
    "symbol()": "95d89b41",
    "tokenURI(uint256)": "c87b56dd",
    "tokenWhitelisted(address)": "ff8507e8",
    "totalSupply()": "18160ddd",
    "transferFrom(address,address,uint256)": "23b872dd",
    "transferOwnership(address)": "f2fde38b",
    "updateFees((uint256,uint256,uint256,uint256))": "98a9c92b",
    "validWrite(address,address)": "dfd5d811",
    "whitelistModule(address,bool,bool)": "53aafb69",
    "whitelistToken(address,bool)": "0ffb1d8b",
    "write(address,uint256,uint256,address,address,bytes)": "d0d0bb3f"
  },
  "id": 34
}