{
  "abi": [
    {
      "inputs": [
        {
          "internalType": "address",
          "name": "registrar",
          "type": "address"
        },
        {
          "internalType": "address",
          "name": "_writeRule",
          "type": "address"
        },
        {
          "internalType": "address",
          "name": "_transferRule",
          "type": "address"
        },
        {
          "internalType": "address",
          "name": "_fundRule",
          "type": "address"
        },
        {
          "internalType": "address",
          "name": "_cashRule",
          "type": "address"
        },
        {
          "internalType": "address",
          "name": "_approveRule",
          "type": "address"
        },
        {
          "components": [
            {
              "internalType": "uint256",
              "name": "writeBPS",
              "type": "uint256"
            },
            {
              "internalType": "uint256",
              "name": "transferBPS",
              "type": "uint256"
            },
            {
              "internalType": "uint256",
              "name": "fundBPS",
              "type": "uint256"
            },
            {
              "internalType": "uint256",
              "name": "cashBPS",
              "type": "uint256"
            }
          ],
          "internalType": "struct DataTypes.WTFCFees",
          "name": "_fees",
          "type": "tuple"
        },
        {
          "internalType": "string",
          "name": "__baseURI",
          "type": "string"
        }
      ],
      "stateMutability": "nonpayable",
      "type": "constructor"
    },
    {
      "inputs": [],
      "name": "InitParamsInvalid",
      "type": "error"
    },
    {
      "inputs": [],
      "name": "NotRegistrar",
      "type": "error"
    },
    {
      "anonymous": false,
      "inputs": [
        {
          "indexed": false,
          "internalType": "uint256",
          "name": "cheqId",
          "type": "uint256"
        },
        {
          "indexed": false,
          "internalType": "bytes32",
          "name": "dataHash",
          "type": "bytes32"
        }
      ],
      "name": "DataWritten",
      "type": "event"
    },
    {
      "inputs": [],
      "name": "REGISTRAR",
      "outputs": [
        {
          "internalType": "address",
          "name": "",
          "type": "address"
        }
      ],
      "stateMutability": "view",
      "type": "function"
    },
    {
      "inputs": [],
      "name": "_URI",
      "outputs": [
        {
          "internalType": "string",
          "name": "",
          "type": "string"
        }
      ],
      "stateMutability": "view",
      "type": "function"
    },
    {
      "inputs": [],
      "name": "approveRule",
      "outputs": [
        {
          "internalType": "address",
          "name": "",
          "type": "address"
        }
      ],
      "stateMutability": "view",
      "type": "function"
    },
    {
      "inputs": [],
      "name": "cashRule",
      "outputs": [
        {
          "internalType": "address",
          "name": "",
          "type": "address"
        }
      ],
      "stateMutability": "view",
      "type": "function"
    },
    {
      "inputs": [
        {
          "internalType": "uint256",
          "name": "",
          "type": "uint256"
        }
      ],
      "name": "dataHash",
      "outputs": [
        {
          "internalType": "bytes32",
          "name": "",
          "type": "bytes32"
        }
      ],
      "stateMutability": "view",
      "type": "function"
    },
    {
      "inputs": [],
      "name": "fees",
      "outputs": [
        {
          "internalType": "uint256",
          "name": "writeBPS",
          "type": "uint256"
        },
        {
          "internalType": "uint256",
          "name": "transferBPS",
          "type": "uint256"
        },
        {
          "internalType": "uint256",
          "name": "fundBPS",
          "type": "uint256"
        },
        {
          "internalType": "uint256",
          "name": "cashBPS",
          "type": "uint256"
        }
      ],
      "stateMutability": "view",
      "type": "function"
    },
    {
      "inputs": [],
      "name": "fundRule",
      "outputs": [
        {
          "internalType": "address",
          "name": "",
          "type": "address"
        }
      ],
      "stateMutability": "view",
      "type": "function"
    },
    {
      "inputs": [],
      "name": "getFees",
      "outputs": [
        {
          "internalType": "uint256",
          "name": "",
          "type": "uint256"
        },
        {
          "internalType": "uint256",
          "name": "",
          "type": "uint256"
        },
        {
          "internalType": "uint256",
          "name": "",
          "type": "uint256"
        },
        {
          "internalType": "uint256",
          "name": "",
          "type": "uint256"
        }
      ],
      "stateMutability": "view",
      "type": "function"
    },
    {
      "inputs": [
        {
          "internalType": "address",
          "name": "caller",
          "type": "address"
        },
        {
          "internalType": "address",
          "name": "owner",
          "type": "address"
        },
        {
          "internalType": "address",
          "name": "to",
          "type": "address"
        },
        {
          "internalType": "uint256",
          "name": "cheqId",
          "type": "uint256"
        },
        {
          "components": [
            {
              "internalType": "address",
              "name": "currency",
              "type": "address"
            },
            {
              "internalType": "uint256",
              "name": "escrowed",
              "type": "uint256"
            },
            {
              "internalType": "uint256",
              "name": "createdAt",
              "type": "uint256"
            },
            {
              "internalType": "address",
              "name": "module",
              "type": "address"
            }
          ],
          "internalType": "struct DataTypes.Cheq",
          "name": "cheq",
          "type": "tuple"
        },
        {
          "internalType": "bytes",
          "name": "initData",
          "type": "bytes"
        }
      ],
      "name": "processApproval",
      "outputs": [],
      "stateMutability": "nonpayable",
      "type": "function"
    },
    {
      "inputs": [
        {
          "internalType": "address",
          "name": "caller",
          "type": "address"
        },
        {
          "internalType": "address",
          "name": "owner",
          "type": "address"
        },
        {
          "internalType": "address",
          "name": "to",
          "type": "address"
        },
        {
          "internalType": "uint256",
          "name": "amount",
          "type": "uint256"
        },
        {
          "internalType": "uint256",
          "name": "cheqId",
          "type": "uint256"
        },
        {
          "components": [
            {
              "internalType": "address",
              "name": "currency",
              "type": "address"
            },
            {
              "internalType": "uint256",
              "name": "escrowed",
              "type": "uint256"
            },
            {
              "internalType": "uint256",
              "name": "createdAt",
              "type": "uint256"
            },
            {
              "internalType": "address",
              "name": "module",
              "type": "address"
            }
          ],
          "internalType": "struct DataTypes.Cheq",
          "name": "cheq",
          "type": "tuple"
        },
        {
          "internalType": "bytes",
          "name": "initData",
          "type": "bytes"
        }
      ],
      "name": "processCash",
      "outputs": [
        {
          "internalType": "uint256",
          "name": "",
          "type": "uint256"
        }
      ],
      "stateMutability": "nonpayable",
      "type": "function"
    },
    {
      "inputs": [
        {
          "internalType": "address",
          "name": "caller",
          "type": "address"
        },
        {
          "internalType": "address",
          "name": "owner",
          "type": "address"
        },
        {
          "internalType": "uint256",
          "name": "amount",
          "type": "uint256"
        },
        {
          "internalType": "uint256",
          "name": "instant",
          "type": "uint256"
        },
        {
          "internalType": "uint256",
          "name": "cheqId",
          "type": "uint256"
        },
        {
          "components": [
            {
              "internalType": "address",
              "name": "currency",
              "type": "address"
            },
            {
              "internalType": "uint256",
              "name": "escrowed",
              "type": "uint256"
            },
            {
              "internalType": "uint256",
              "name": "createdAt",
              "type": "uint256"
            },
            {
              "internalType": "address",
              "name": "module",
              "type": "address"
            }
          ],
          "internalType": "struct DataTypes.Cheq",
          "name": "cheq",
          "type": "tuple"
        },
        {
          "internalType": "bytes",
          "name": "initData",
          "type": "bytes"
        }
      ],
      "name": "processFund",
      "outputs": [
        {
          "internalType": "uint256",
          "name": "",
          "type": "uint256"
        }
      ],
      "stateMutability": "nonpayable",
      "type": "function"
    },
    {
      "inputs": [
        {
          "internalType": "uint256",
          "name": "tokenId",
          "type": "uint256"
        }
      ],
      "name": "processTokenURI",
      "outputs": [
        {
          "internalType": "string",
          "name": "",
          "type": "string"
        }
      ],
      "stateMutability": "view",
      "type": "function"
    },
    {
      "inputs": [
        {
          "internalType": "address",
          "name": "caller",
          "type": "address"
        },
        {
          "internalType": "address",
          "name": "approved",
          "type": "address"
        },
        {
          "internalType": "address",
          "name": "owner",
          "type": "address"
        },
        {
          "internalType": "address",
          "name": "from",
          "type": "address"
        },
        {
          "internalType": "address",
          "name": "to",
          "type": "address"
        },
        {
          "internalType": "uint256",
          "name": "cheqId",
          "type": "uint256"
        },
        {
          "internalType": "address",
          "name": "currency",
          "type": "address"
        },
        {
          "internalType": "uint256",
          "name": "escrowed",
          "type": "uint256"
        },
        {
          "internalType": "uint256",
          "name": "createdAt",
          "type": "uint256"
        },
        {
          "internalType": "bytes",
          "name": "data",
          "type": "bytes"
        }
      ],
      "name": "processTransfer",
      "outputs": [
        {
          "internalType": "uint256",
          "name": "",
          "type": "uint256"
        }
      ],
      "stateMutability": "nonpayable",
      "type": "function"
    },
    {
      "inputs": [
        {
          "internalType": "address",
          "name": "caller",
          "type": "address"
        },
        {
          "internalType": "address",
          "name": "owner",
          "type": "address"
        },
        {
          "internalType": "uint256",
          "name": "cheqId",
          "type": "uint256"
        },
        {
          "internalType": "address",
          "name": "currency",
          "type": "address"
        },
        {
          "internalType": "uint256",
          "name": "escrowed",
          "type": "uint256"
        },
        {
          "internalType": "uint256",
          "name": "instant",
          "type": "uint256"
        },
        {
          "internalType": "bytes",
          "name": "initData",
          "type": "bytes"
        }
      ],
      "name": "processWrite",
      "outputs": [
        {
          "internalType": "uint256",
          "name": "",
          "type": "uint256"
        }
      ],
      "stateMutability": "nonpayable",
      "type": "function"
    },
    {
      "inputs": [
        {
          "internalType": "address",
          "name": "",
          "type": "address"
        },
        {
          "internalType": "address",
          "name": "",
          "type": "address"
        }
      ],
      "name": "revenue",
      "outputs": [
        {
          "internalType": "uint256",
          "name": "",
          "type": "uint256"
        }
      ],
      "stateMutability": "view",
      "type": "function"
    },
    {
      "inputs": [],
      "name": "transferRule",
      "outputs": [
        {
          "internalType": "address",
          "name": "",
          "type": "address"
        }
      ],
      "stateMutability": "view",
      "type": "function"
    },
    {
      "inputs": [
        {
          "internalType": "address",
          "name": "token",
          "type": "address"
        }
      ],
      "name": "withdrawFees",
      "outputs": [],
      "stateMutability": "nonpayable",
      "type": "function"
    },
    {
      "inputs": [],
      "name": "writeRule",
      "outputs": [
        {
          "internalType": "address",
          "name": "",
          "type": "address"
        }
      ],
      "stateMutability": "view",
      "type": "function"
    }
  ],
  "bytecode": {
    "object": "0x60a06040523480156200001157600080fd5b506040516200195338038062001953833981016040819052620000349162000441565b878787878787876001600160a01b03871662000063576040516348be0eb360e01b815260040160405180910390fd5b6001600160a01b038781166080819052604051631fa5b09760e11b81528883166004820152878316602482015286831660448201528583166064820152918416608483015290633f4b612e9060a401602060405180830381865afa158015620000d0573d6000803e3d6000fd5b505050506040513d601f19601f82011682018060405250810190620000f691906200053e565b620001385760405162461bcd60e51b815260206004820152600d60248201526c1495531154d7d2539590531251609a1b60448201526064015b60405180910390fd5b600280546001600160a01b03199081166001600160a01b038981169190911790925560038054821688841617905560048054821687841617905560058054821686841617905560068054909116918416919091179055805161271011620001d15760405162461bcd60e51b815260206004820152601460248201526000805160206200193383398151915260448201526064016200012f565b612710816020015110620002175760405162461bcd60e51b815260206004820152601460248201526000805160206200193383398151915260448201526064016200012f565b6127108160400151106200025d5760405162461bcd60e51b815260206004820152601460248201526000805160206200193383398151915260448201526064016200012f565b612710816060015110620002a35760405162461bcd60e51b815260206004820152601460248201526000805160206200193383398151915260448201526064016200012f565b80516007556020808201516008556040808301516009556060830151600a55514281526001600160a01b038916917ff1a1fa6b64aa95186f5a1285e76198d0da80d9c5a88062641d447f1d7c54e56c910160405180910390a2505050505050508060009081620003149190620005f8565b505050505050505050620006c4565b80516001600160a01b03811681146200033b57600080fd5b919050565b634e487b7160e01b600052604160045260246000fd5b604051608081016001600160401b03811182821017156200037b576200037b62000340565b60405290565b604051601f8201601f191681016001600160401b0381118282101715620003ac57620003ac62000340565b604052919050565b600082601f830112620003c657600080fd5b81516001600160401b03811115620003e257620003e262000340565b6020620003f8601f8301601f1916820162000381565b82815285828487010111156200040d57600080fd5b60005b838110156200042d57858101830151828201840152820162000410565b506000928101909101919091529392505050565b600080600080600080600080888a036101608112156200046057600080fd5b6200046b8a62000323565b98506200047b60208b0162000323565b97506200048b60408b0162000323565b96506200049b60608b0162000323565b9550620004ab60808b0162000323565b9450620004bb60a08b0162000323565b9350608060bf1982011215620004d057600080fd5b50620004db62000356565b60c08a0151815260e08a015160208201526101008a015160408201526101208a015160608201526101408a01519092506001600160401b038111156200052057600080fd5b6200052e8b828c01620003b4565b9150509295985092959890939650565b6000602082840312156200055157600080fd5b815180151581146200056257600080fd5b9392505050565b600181811c908216806200057e57607f821691505b6020821081036200059f57634e487b7160e01b600052602260045260246000fd5b50919050565b601f821115620005f357600081815260208120601f850160051c81016020861015620005ce5750805b601f850160051c820191505b81811015620005ef57828155600101620005da565b5050505b505050565b81516001600160401b0381111562000614576200061462000340565b6200062c8162000625845462000569565b84620005a5565b602080601f8311600181146200066457600084156200064b5750858301515b600019600386901b1c1916600185901b178555620005ef565b600085815260208120601f198616915b82811015620006955788860151825594840194600190910190840162000674565b5085821015620006b45787850151600019600388901b60f8161c191681555b5050505050600190811b01905550565b6080516112296200070a6000396000818161027b0152818161030701528181610479015281816105dd01528181610774015281816108d9015261095001526112296000f3fe608060405234801561001057600080fd5b50600436106101165760003560e01c8063b5d701ba116100a2578063d4c301da11610071578063d4c301da1461029d578063db8d55f1146102b0578063df1cdb46146102c1578063e4175968146102d4578063f3ea001e146102e757600080fd5b8063b5d701ba1461023d578063be2f3fdd14610250578063c0c9572c14610263578063cb6090771461027657600080fd5b8063433d3a77116100e9578063433d3a77146101a15780634fe17e1a146101b45780639a0ea37a146101d45780639af1d35a146101ff578063b4e87e8f1461023557600080fd5b806306890cd01461011b5780630d02cde714610141578063164e68de1461016c5780633ed536bf14610181575b600080fd5b61012e610129366004610a8b565b6102fa565b6040519081526020015b60405180910390f35b600354610154906001600160a01b031681565b6040516001600160a01b039091168152602001610138565b61017f61017a366004610b2d565b6103e1565b005b61012e61018f366004610b51565b600b6020526000908152604090205481565b600654610154906001600160a01b031681565b6101c76101c2366004610b51565b610516565b6040516101389190610bb0565b61012e6101e2366004610bc3565b600160209081526000928352604080842090915290825290205481565b600754600854600954600a546102159392919084565b604080519485526020850193909352918301526060820152608001610138565b6101c7610542565b61012e61024b366004610bfc565b6105d0565b61012e61025e366004610c74565b610767565b61012e610271366004610d73565b6108cc565b6101547f000000000000000000000000000000000000000000000000000000000000000081565b600454610154906001600160a01b031681565b600754600854600954600a54610215565b600254610154906001600160a01b031681565b61017f6102e2366004610e3d565b610945565b600554610154906001600160a01b031681565b6000336001600160a01b037f0000000000000000000000000000000000000000000000000000000000000000161461034557604051632ad9535160e01b815260040160405180910390fd5b60055460405163a81fc39560e01b81526001600160a01b039091169063a81fc39590610383908c908c908c908c908c908c908c908c90600401610f40565b600060405180830381600087803b15801561039d57600080fd5b505af11580156103b1573d6000803e3d6000fd5b5050600a546000925061271091506103c99089610fb5565b6103d39190610fd4565b9a9950505050505050505050565b3360009081526001602081815260408084206001600160a01b0386168552909152909120549081116104505760405162461bcd60e51b8152602060048201526014602482015273496e73756666696369656e7420726576656e756560601b604482015260640160405180910390fd5b3360009081526001602081815260408084206001600160a01b03878116865292529092208190557f00000000000000000000000000000000000000000000000000000000000000009091169063d6a4f84c9084906104ae9085610ff6565b6040516001600160e01b031960e085901b1681526001600160a01b0390921660048301526024820152336044820152606401600060405180830381600087803b1580156104fa57600080fd5b505af115801561050e573d6000803e3d6000fd5b505050505050565b606060008260405160200161052c929190611043565b6040516020818303038152906040529050919050565b6000805461054f9061100f565b80601f016020809104026020016040519081016040528092919081815260200182805461057b9061100f565b80156105c85780601f1061059d576101008083540402835291602001916105c8565b820191906000526020600020905b8154815290600101906020018083116105ab57829003601f168201915b505050505081565b6000336001600160a01b037f0000000000000000000000000000000000000000000000000000000000000000161461061b57604051632ad9535160e01b815260040160405180910390fd5b600254604051622aec3760e11b81526001600160a01b03909116906255d86e90610657908c908c908c908c908c908c908c908c906004016110e5565b600060405180830381600087803b15801561067157600080fd5b505af1158015610685573d6000803e3d6000fd5b50505050600080848481019061069b919061112b565b60008b8152600b6020526040812083905591935091506106bb8789611150565b90506000612710600760000154836106d39190610fb5565b6106dd9190610fd4565b6001600160a01b038085166000908152600160209081526040808320938f16835292905290812080549293508392909190610719908490611150565b9091555050604080518c8152602081018690527fbf1c4440804b1bdc478092a93504affe2502c810f9ce353a6dcf5ace65db9ed8910160405180910390a19c9b505050505050505050505050565b6000336001600160a01b037f000000000000000000000000000000000000000000000000000000000000000016146107b257604051632ad9535160e01b815260040160405180910390fd5b6004805460405163741c963960e01b81526001600160a01b039091169163741c9639916107ef918d918d918d918d918d918d918d918d9101611163565b600060405180830381600087803b15801561080957600080fd5b505af115801561081d573d6000803e3d6000fd5b506000925061083191505083850185610b2d565b600954909150600090612710906108488a8c611150565b6108529190610fb5565b61085c9190610fd4565b6001600160a01b0383166000908152600160209081526040822092935083929190610889908a018a610b2d565b6001600160a01b03166001600160a01b0316815260200190815260200160002060008282546108b89190611150565b90915550909b9a5050505050505050505050565b6000336001600160a01b037f0000000000000000000000000000000000000000000000000000000000000000161461091757604051632ad9535160e01b815260040160405180910390fd5b6008546000906127109061092b9087610fb5565b6109359190610fd4565b9c9b505050505050505050505050565b336001600160a01b037f0000000000000000000000000000000000000000000000000000000000000000161461098e57604051632ad9535160e01b815260040160405180910390fd5b6006546040516306d25e6160e01b81526001600160a01b03909116906306d25e61906109c89089908990899089908990899060040161119e565b600060405180830381600087803b1580156109e257600080fd5b505af11580156109f6573d6000803e3d6000fd5b50505050505050505050565b6001600160a01b0381168114610a1757600080fd5b50565b8035610a2581610a02565b919050565b600060808284031215610a3c57600080fd5b50919050565b60008083601f840112610a5457600080fd5b50813567ffffffffffffffff811115610a6c57600080fd5b602083019150836020828501011115610a8457600080fd5b9250929050565b600080600080600080600080610140898b031215610aa857600080fd5b8835610ab381610a02565b97506020890135610ac381610a02565b96506040890135610ad381610a02565b95506060890135945060808901359350610af08a60a08b01610a2a565b925061012089013567ffffffffffffffff811115610b0d57600080fd5b610b198b828c01610a42565b999c989b5096995094979396929594505050565b600060208284031215610b3f57600080fd5b8135610b4a81610a02565b9392505050565b600060208284031215610b6357600080fd5b5035919050565b6000815180845260005b81811015610b9057602081850181015186830182015201610b74565b506000602082860101526020601f19601f83011685010191505092915050565b602081526000610b4a6020830184610b6a565b60008060408385031215610bd657600080fd5b8235610be181610a02565b91506020830135610bf181610a02565b809150509250929050565b60008060008060008060008060e0898b031215610c1857600080fd5b8835610c2381610a02565b97506020890135610c3381610a02565b9650604089013595506060890135610c4a81610a02565b94506080890135935060a0890135925060c089013567ffffffffffffffff811115610b0d57600080fd5b600080600080600080600080610140898b031215610c9157600080fd5b8835610c9c81610a02565b97506020890135610cac81610a02565b9650604089013595506060890135945060808901359350610af08a60a08b01610a2a565b634e487b7160e01b600052604160045260246000fd5b600082601f830112610cf757600080fd5b813567ffffffffffffffff80821115610d1257610d12610cd0565b604051601f8301601f19908116603f01168101908282118183101715610d3a57610d3a610cd0565b81604052838152866020858801011115610d5357600080fd5b836020870160208301376000602085830101528094505050505092915050565b6000806000806000806000806000806101408b8d031215610d9357600080fd5b8a35610d9e81610a02565b995060208b0135610dae81610a02565b985060408b0135610dbe81610a02565b975060608b0135610dce81610a02565b965060808b0135610dde81610a02565b955060a08b01359450610df360c08c01610a1a565b935060e08b013592506101008b013591506101208b013567ffffffffffffffff811115610e1f57600080fd5b610e2b8d828e01610ce6565b9150509295989b9194979a5092959850565b6000806000806000806101208789031215610e5757600080fd5b8635610e6281610a02565b95506020870135610e7281610a02565b94506040870135610e8281610a02565b935060608701359250610e988860808901610a2a565b915061010087013567ffffffffffffffff811115610eb557600080fd5b610ec189828a01610ce6565b9150509295509295509295565b8035610ed981610a02565b6001600160a01b0390811683526020828101359084015260408083013590840152606082013590610f0982610a02565b808216606085015250505050565b81835281816020850137506000828201602090810191909152601f909101601f19169091010190565b6001600160a01b03898116825288811660208301528716604082015260608101869052608081018590526000610140610f7c60a0840187610ece565b80610120840152610f908184018587610f17565b9b9a5050505050505050505050565b634e487b7160e01b600052601160045260246000fd5b6000816000190483118215151615610fcf57610fcf610f9f565b500290565b600082610ff157634e487b7160e01b600052601260045260246000fd5b500490565b8181038181111561100957611009610f9f565b92915050565b600181811c9082168061102357607f821691505b602082108103610a3c57634e487b7160e01b600052602260045260246000fd5b600080845481600182811c91508083168061105f57607f831692505b6020808410820361107e57634e487b7160e01b86526022600452602486fd5b81801561109257600181146110a7576110d4565b60ff19861689528415158502890196506110d4565b60008b81526020902060005b868110156110cc5781548b8201529085019083016110b3565b505084890196505b509785525050509301949350505050565b600060018060a01b03808b168352808a1660208401528860408401528088166060840152508560808301528460a083015260e060c08301526103d360e083018486610f17565b6000806040838503121561113e57600080fd5b823591506020830135610bf181610a02565b8082018082111561100957611009610f9f565b6001600160a01b038981168252881660208201526040810187905260608101869052608081018590526000610140610f7c60a0840187610ece565b6001600160a01b0387811682528681166020830152851660408201526060810184905260006101206111d36080840186610ece565b806101008401526111e681840185610b6a565b999850505050505050505056fea2646970667358221220f6c70850b7cf088217574139e91c84c09e23938cfd78f9d37489ea711692394664736f6c634300081000334d6f64756c653a2046656520746f6f2068696768000000000000000000000000",
    "linkReferences": {}
  },
  "methodIdentifiers": {
    "REGISTRAR()": "cb609077",
    "_URI()": "b4e87e8f",
    "approveRule()": "433d3a77",
    "cashRule()": "f3ea001e",
    "dataHash(uint256)": "3ed536bf",
    "fees()": "9af1d35a",
    "fundRule()": "d4c301da",
    "getFees()": "db8d55f1",
    "processApproval(address,address,address,uint256,(address,uint256,uint256,address),bytes)": "e4175968",
    "processCash(address,address,address,uint256,uint256,(address,uint256,uint256,address),bytes)": "06890cd0",
    "processFund(address,address,uint256,uint256,uint256,(address,uint256,uint256,address),bytes)": "be2f3fdd",
    "processTokenURI(uint256)": "4fe17e1a",
    "processTransfer(address,address,address,address,address,uint256,address,uint256,uint256,bytes)": "c0c9572c",
    "processWrite(address,address,uint256,address,uint256,uint256,bytes)": "b5d701ba",
    "revenue(address,address)": "9a0ea37a",
    "transferRule()": "0d02cde7",
    "withdrawFees(address)": "164e68de",
    "writeRule()": "df1cdb46"
  },
  "id": 55
}