{
  "abi": [
    {
      "anonymous": false,
      "inputs": [
        {
          "indexed": true,
          "internalType": "address",
          "name": "creator",
          "type": "address"
        },
        {
          "indexed": true,
          "internalType": "address",
          "name": "about",
          "type": "address"
        },
        {
          "indexed": true,
          "internalType": "bytes32",
          "name": "key",
          "type": "bytes32"
        },
        {
          "indexed": false,
          "internalType": "bytes",
          "name": "val",
          "type": "bytes"
        }
      ],
      "name": "AttestationCreated",
      "type": "event"
    },
    {
      "inputs": [
        {
          "components": [
            {
              "internalType": "address",
              "name": "about",
              "type": "address"
            },
            {
              "internalType": "bytes32",
              "name": "key",
              "type": "bytes32"
            },
            {
              "internalType": "bytes",
              "name": "val",
              "type": "bytes"
            }
          ],
          "internalType": "struct AttestationStation.AttestationData[]",
          "name": "_attestations",
          "type": "tuple[]"
        }
      ],
      "name": "attest",
      "outputs": [],
      "stateMutability": "nonpayable",
      "type": "function"
    },
    {
      "inputs": [
        {
          "internalType": "address",
          "name": "",
          "type": "address"
        },
        {
          "internalType": "address",
          "name": "",
          "type": "address"
        },
        {
          "internalType": "bytes32",
          "name": "",
          "type": "bytes32"
        }
      ],
      "name": "attestations",
      "outputs": [
        {
          "internalType": "bytes",
          "name": "",
          "type": "bytes"
        }
      ],
      "stateMutability": "view",
      "type": "function"
    }
  ],
  "bytecode": {
    "object": "0x608060405234801561001057600080fd5b506107a2806100206000396000f3fe608060405234801561001057600080fd5b50600436106100365760003560e01c806329b42cb51461003b5780635eb5ea1014610064575b600080fd5b61004e61004936600461024a565b610079565b60405161005b9190610286565b60405180910390f35b610077610072366004610399565b610123565b005b60006020818152938152604080822085529281528281209093528252902080546100a290610522565b80601f01602080910402602001604051908101604052809291908181526020018280546100ce90610522565b801561011b5780601f106100f05761010080835404028352916020019161011b565b820191906000526020600020905b8154815290600101906020018083116100fe57829003601f168201915b505050505081565b60005b815181101561021d57600082828151811061014357610143610575565b602090810291909101810151604080820151336000908152808552828120845173ffffffffffffffffffffffffffffffffffffffff168252855282812084860151825290945292209092509061019990826105f3565b508060200151816000015173ffffffffffffffffffffffffffffffffffffffff163373ffffffffffffffffffffffffffffffffffffffff167f28710dfecab43d1e29e02aa56b2e1e610c0bae19135c9cf7a83a1adb6df96d8584604001516040516102049190610286565b60405180910390a4506102168161070d565b9050610126565b5050565b803573ffffffffffffffffffffffffffffffffffffffff8116811461024557600080fd5b919050565b60008060006060848603121561025f57600080fd5b61026884610221565b925061027660208501610221565b9150604084013590509250925092565b600060208083528351808285015260005b818110156102b357858101830151858201604001528201610297565b5060006040828601015260407fffffffffffffffffffffffffffffffffffffffffffffffffffffffffffffffe0601f8301168501019250505092915050565b7f4e487b7100000000000000000000000000000000000000000000000000000000600052604160045260246000fd5b6040516060810167ffffffffffffffff81118282101715610344576103446102f2565b60405290565b604051601f82017fffffffffffffffffffffffffffffffffffffffffffffffffffffffffffffffe016810167ffffffffffffffff81118282101715610391576103916102f2565b604052919050565b600060208083850312156103ac57600080fd5b823567ffffffffffffffff808211156103c457600080fd5b818501915085601f8301126103d857600080fd5b8135818111156103ea576103ea6102f2565b8060051b6103f985820161034a565b918252838101850191858101908984111561041357600080fd5b86860192505b83831015610515578235858111156104315760008081fd5b860160607fffffffffffffffffffffffffffffffffffffffffffffffffffffffffffffffe0828d0381018213156104685760008081fd5b610470610321565b61047b8b8501610221565b81526040848101358c83015292840135928984111561049a5760008081fd5b83850194508e603f8601126104b157600093508384fd5b8b8501359350898411156104c7576104c76102f2565b6104d78c84601f8701160161034a565b92508383528e818587010111156104ee5760008081fd5b838186018d85013760009383018c0193909352918201528352509186019190860190610419565b9998505050505050505050565b600181811c9082168061053657607f821691505b60208210810361056f577f4e487b7100000000000000000000000000000000000000000000000000000000600052602260045260246000fd5b50919050565b7f4e487b7100000000000000000000000000000000000000000000000000000000600052603260045260246000fd5b601f8211156105ee57600081815260208120601f850160051c810160208610156105cb5750805b601f850160051c820191505b818110156105ea578281556001016105d7565b5050505b505050565b815167ffffffffffffffff81111561060d5761060d6102f2565b6106218161061b8454610522565b846105a4565b602080601f831160018114610674576000841561063e5750858301515b7fffffffffffffffffffffffffffffffffffffffffffffffffffffffffffffffff600386901b1c1916600185901b1785556105ea565b6000858152602081207fffffffffffffffffffffffffffffffffffffffffffffffffffffffffffffffe08616915b828110156106c1578886015182559484019460019091019084016106a2565b50858210156106fd57878501517fffffffffffffffffffffffffffffffffffffffffffffffffffffffffffffffff600388901b60f8161c191681555b5050505050600190811b01905550565b60007fffffffffffffffffffffffffffffffffffffffffffffffffffffffffffffffff8203610765577f4e487b7100000000000000000000000000000000000000000000000000000000600052601160045260246000fd5b506001019056fea264697066735822122018ffdfb29760164646fb92ece317c4c5411ccd36d32ae194a5d859cccd107ece64736f6c63430008100033",
    "linkReferences": {}
  },
  "methodIdentifiers": {
    "attest((address,bytes32,bytes)[])": "5eb5ea10",
    "attestations(address,address,bytes32)": "29b42cb5"
  },
  "id": 45
}