{
  "abi": [
    {
      "inputs": [
        {
          "internalType": "address",
          "name": "registrar",
          "type": "address"
        },
        {
          "components": [
            {
              "internalType": "uint256",
              "name": "writeBPS",
              "type": "uint256"
            },
            {
              "internalType": "uint256",
              "name": "transferBPS",
              "type": "uint256"
            },
            {
              "internalType": "uint256",
              "name": "fundBPS",
              "type": "uint256"
            },
            {
              "internalType": "uint256",
              "name": "cashBPS",
              "type": "uint256"
            }
          ],
          "internalType": "struct DataTypes.WTFCFees",
          "name": "_fees",
          "type": "tuple"
        },
        {
          "internalType": "string",
          "name": "__baseURI",
          "type": "string"
        }
      ],
      "stateMutability": "nonpayable",
      "type": "constructor"
    },
    {
      "inputs": [],
      "name": "InitParamsInvalid",
      "type": "error"
    },
    {
      "inputs": [],
      "name": "NotRegistrar",
      "type": "error"
    },
    {
      "inputs": [],
      "name": "AT_STAT",
      "outputs": [
        {
          "internalType": "contract AttestationStation",
          "name": "",
          "type": "address"
        }
      ],
      "stateMutability": "view",
      "type": "function"
    },
    {
      "inputs": [],
      "name": "REGISTRAR",
      "outputs": [
        {
          "internalType": "address",
          "name": "",
          "type": "address"
        }
      ],
      "stateMutability": "view",
      "type": "function"
    },
    {
      "inputs": [],
      "name": "_URI",
      "outputs": [
        {
          "internalType": "string",
          "name": "",
          "type": "string"
        }
      ],
      "stateMutability": "view",
      "type": "function"
    },
    {
      "inputs": [
        {
          "internalType": "uint256",
          "name": "",
          "type": "uint256"
        }
      ],
      "name": "attestGates",
      "outputs": [
        {
          "internalType": "address",
          "name": "attSource",
          "type": "address"
        },
        {
          "internalType": "bytes32",
          "name": "key",
          "type": "bytes32"
        },
        {
          "internalType": "uint256",
          "name": "index",
          "type": "uint256"
        },
        {
          "internalType": "bytes32",
          "name": "expectedVal",
          "type": "bytes32"
        }
      ],
      "stateMutability": "view",
      "type": "function"
    },
    {
      "inputs": [],
      "name": "fees",
      "outputs": [
        {
          "internalType": "uint256",
          "name": "writeBPS",
          "type": "uint256"
        },
        {
          "internalType": "uint256",
          "name": "transferBPS",
          "type": "uint256"
        },
        {
          "internalType": "uint256",
          "name": "fundBPS",
          "type": "uint256"
        },
        {
          "internalType": "uint256",
          "name": "cashBPS",
          "type": "uint256"
        }
      ],
      "stateMutability": "view",
      "type": "function"
    },
    {
      "inputs": [],
      "name": "getFees",
      "outputs": [
        {
          "internalType": "uint256",
          "name": "",
          "type": "uint256"
        },
        {
          "internalType": "uint256",
          "name": "",
          "type": "uint256"
        },
        {
          "internalType": "uint256",
          "name": "",
          "type": "uint256"
        },
        {
          "internalType": "uint256",
          "name": "",
          "type": "uint256"
        }
      ],
      "stateMutability": "view",
      "type": "function"
    },
    {
      "inputs": [
        {
          "internalType": "address",
          "name": "",
          "type": "address"
        },
        {
          "internalType": "address",
          "name": "",
          "type": "address"
        },
        {
          "internalType": "address",
          "name": "",
          "type": "address"
        },
        {
          "internalType": "uint256",
          "name": "",
          "type": "uint256"
        },
        {
          "components": [
            {
              "internalType": "address",
              "name": "currency",
              "type": "address"
            },
            {
              "internalType": "uint256",
              "name": "escrowed",
              "type": "uint256"
            },
            {
              "internalType": "uint256",
              "name": "createdAt",
              "type": "uint256"
            },
            {
              "internalType": "address",
              "name": "module",
              "type": "address"
            }
          ],
          "internalType": "struct DataTypes.Cheq",
          "name": "",
          "type": "tuple"
        },
        {
          "internalType": "bytes",
          "name": "",
          "type": "bytes"
        }
      ],
      "name": "processApproval",
      "outputs": [],
      "stateMutability": "view",
      "type": "function"
    },
    {
      "inputs": [
        {
          "internalType": "address",
          "name": "",
          "type": "address"
        },
        {
          "internalType": "address",
          "name": "",
          "type": "address"
        },
        {
          "internalType": "address",
          "name": "",
          "type": "address"
        },
        {
          "internalType": "uint256",
          "name": "amount",
          "type": "uint256"
        },
        {
          "internalType": "uint256",
          "name": "",
          "type": "uint256"
        },
        {
          "components": [
            {
              "internalType": "address",
              "name": "currency",
              "type": "address"
            },
            {
              "internalType": "uint256",
              "name": "escrowed",
              "type": "uint256"
            },
            {
              "internalType": "uint256",
              "name": "createdAt",
              "type": "uint256"
            },
            {
              "internalType": "address",
              "name": "module",
              "type": "address"
            }
          ],
          "internalType": "struct DataTypes.Cheq",
          "name": "",
          "type": "tuple"
        },
        {
          "internalType": "bytes",
          "name": "",
          "type": "bytes"
        }
      ],
      "name": "processCash",
      "outputs": [
        {
          "internalType": "uint256",
          "name": "",
          "type": "uint256"
        }
      ],
      "stateMutability": "view",
      "type": "function"
    },
    {
      "inputs": [
        {
          "internalType": "address",
          "name": "caller",
          "type": "address"
        },
        {
          "internalType": "address",
          "name": "owner",
          "type": "address"
        },
        {
          "internalType": "uint256",
          "name": "amount",
          "type": "uint256"
        },
        {
          "internalType": "uint256",
          "name": "instant",
          "type": "uint256"
        },
        {
          "internalType": "uint256",
          "name": "cheqId",
          "type": "uint256"
        },
        {
          "components": [
            {
              "internalType": "address",
              "name": "currency",
              "type": "address"
            },
            {
              "internalType": "uint256",
              "name": "escrowed",
              "type": "uint256"
            },
            {
              "internalType": "uint256",
              "name": "createdAt",
              "type": "uint256"
            },
            {
              "internalType": "address",
              "name": "module",
              "type": "address"
            }
          ],
          "internalType": "struct DataTypes.Cheq",
          "name": "cheq",
          "type": "tuple"
        },
        {
          "internalType": "bytes",
          "name": "initData",
          "type": "bytes"
        }
      ],
      "name": "processFund",
      "outputs": [
        {
          "internalType": "uint256",
          "name": "",
          "type": "uint256"
        }
      ],
      "stateMutability": "nonpayable",
      "type": "function"
    },
    {
      "inputs": [
        {
          "internalType": "uint256",
          "name": "tokenId",
          "type": "uint256"
        }
      ],
      "name": "processTokenURI",
      "outputs": [
        {
          "internalType": "string",
          "name": "",
          "type": "string"
        }
      ],
      "stateMutability": "view",
      "type": "function"
    },
    {
      "inputs": [
        {
          "internalType": "address",
          "name": "",
          "type": "address"
        },
        {
          "internalType": "address",
          "name": "",
          "type": "address"
        },
        {
          "internalType": "address",
          "name": "",
          "type": "address"
        },
        {
          "internalType": "address",
          "name": "",
          "type": "address"
        },
        {
          "internalType": "address",
          "name": "to",
          "type": "address"
        },
        {
          "internalType": "uint256",
          "name": "cheqId",
          "type": "uint256"
        },
        {
          "internalType": "address",
          "name": "",
          "type": "address"
        },
        {
          "internalType": "uint256",
          "name": "escrowed",
          "type": "uint256"
        },
        {
          "internalType": "uint256",
          "name": "",
          "type": "uint256"
        },
        {
          "internalType": "bytes",
          "name": "",
          "type": "bytes"
        }
      ],
      "name": "processTransfer",
      "outputs": [
        {
          "internalType": "uint256",
          "name": "",
          "type": "uint256"
        }
      ],
      "stateMutability": "view",
      "type": "function"
    },
    {
      "inputs": [
        {
          "internalType": "address",
          "name": "caller",
          "type": "address"
        },
        {
          "internalType": "address",
          "name": "owner",
          "type": "address"
        },
        {
          "internalType": "uint256",
          "name": "cheqId",
          "type": "uint256"
        },
        {
          "internalType": "address",
          "name": "currency",
          "type": "address"
        },
        {
          "internalType": "uint256",
          "name": "escrowed",
          "type": "uint256"
        },
        {
          "internalType": "uint256",
          "name": "instant",
          "type": "uint256"
        },
        {
          "internalType": "bytes",
          "name": "initData",
          "type": "bytes"
        }
      ],
      "name": "processWrite",
      "outputs": [
        {
          "internalType": "uint256",
          "name": "",
          "type": "uint256"
        }
      ],
      "stateMutability": "nonpayable",
      "type": "function"
    },
    {
      "inputs": [
        {
          "internalType": "address",
          "name": "",
          "type": "address"
        },
        {
          "internalType": "address",
          "name": "",
          "type": "address"
        }
      ],
      "name": "revenue",
      "outputs": [
        {
          "internalType": "uint256",
          "name": "",
          "type": "uint256"
        }
      ],
      "stateMutability": "view",
      "type": "function"
    },
    {
      "inputs": [
        {
          "internalType": "uint256",
          "name": "",
          "type": "uint256"
        }
      ],
      "name": "tokenURIs",
      "outputs": [
        {
          "internalType": "bytes",
          "name": "",
          "type": "bytes"
        }
      ],
      "stateMutability": "view",
      "type": "function"
    },
    {
      "inputs": [
        {
          "internalType": "uint256",
          "name": "cheqId",
          "type": "uint256"
        },
        {
          "internalType": "bytes",
          "name": "newURI",
          "type": "bytes"
        }
      ],
      "name": "updateURI",
      "outputs": [],
      "stateMutability": "nonpayable",
      "type": "function"
    },
    {
      "inputs": [
        {
          "internalType": "address",
          "name": "token",
          "type": "address"
        }
      ],
      "name": "withdrawFees",
      "outputs": [],
      "stateMutability": "nonpayable",
      "type": "function"
    }
  ],
  "bytecode": {
    "object": "0x60a06040523480156200001157600080fd5b5060405162001a2138038062001a218339810160408190526200003491620002f9565b82826001600160a01b0382166200005e576040516348be0eb360e01b815260040160405180910390fd5b6001600160a01b038216608052805161271011620000b25760405162461bcd60e51b8152602060048201526014602482015260008051602062001a0183398151915260448201526064015b60405180910390fd5b612710816020015110620000f85760405162461bcd60e51b8152602060048201526014602482015260008051602062001a018339815191526044820152606401620000a9565b6127108160400151106200013e5760405162461bcd60e51b8152602060048201526014602482015260008051602062001a018339815191526044820152606401620000a9565b612710816060015110620001845760405162461bcd60e51b8152602060048201526014602482015260008051602062001a018339815191526044820152606401620000a9565b80516001556020808201516002556040808301516003556060830151600455514281526001600160a01b038416917ff1a1fa6b64aa95186f5a1285e76198d0da80d9c5a88062641d447f1d7c54e56c910160405180910390a25060059050620001ee828262000431565b50505050620004fd565b634e487b7160e01b600052604160045260246000fd5b604051608081016001600160401b0381118282101715620002335762000233620001f8565b60405290565b604051601f8201601f191681016001600160401b0381118282101715620002645762000264620001f8565b604052919050565b600082601f8301126200027e57600080fd5b81516001600160401b038111156200029a576200029a620001f8565b6020620002b0601f8301601f1916820162000239565b8281528582848701011115620002c557600080fd5b60005b83811015620002e5578581018301518282018401528201620002c8565b506000928101909101919091529392505050565b600080600083850360c08112156200031057600080fd5b84516001600160a01b03811681146200032857600080fd5b93506080601f19820112156200033d57600080fd5b50620003486200020e565b602085015181526040850151602082015260608501516040820152608085015160608201528092505060a084015160018060401b038111156200038a57600080fd5b62000398868287016200026c565b9150509250925092565b600181811c90821680620003b757607f821691505b602082108103620003d857634e487b7160e01b600052602260045260246000fd5b50919050565b601f8211156200042c57600081815260208120601f850160051c81016020861015620004075750805b601f850160051c820191505b81811015620004285782815560010162000413565b5050505b505050565b81516001600160401b038111156200044d576200044d620001f8565b62000465816200045e8454620003a2565b84620003de565b602080601f8311600181146200049d5760008415620004845750858301515b600019600386901b1c1916600185901b17855562000428565b600085815260208120601f198616915b82811015620004ce57888601518255948401946001909101908401620004ad565b5085821015620004ed5787850151600019600388901b60f8161c191681555b5050505050600190811b01905550565b6080516114b76200054a600039600081816102420152818161031101528181610413015281816106570152818161081701528181610956015281816109f90152610ae301526114b76000f3fe608060405234801561001057600080fd5b50600436106101005760003560e01c8063b5d701ba11610097578063cfbd2caf11610066578063cfbd2caf14610264578063db8d55f114610277578063e417596814610288578063f86e827c1461029b57600080fd5b8063b5d701ba14610204578063be2f3fdd14610217578063c0c9572c1461022a578063cb6090771461023d57600080fd5b80636c8b703f116100d35780636c8b703f1461018b5780639a0ea37a1461019e5780639af1d35a146101c6578063b4e87e8f146101fc57600080fd5b806306890cd014610105578063164e68de1461012b5780633374960e146101405780634fe17e1a1461016b575b600080fd5b610118610113366004610c89565b610304565b6040519081526020015b60405180910390f35b61013e610139366004610d2b565b61037b565b005b600654610153906001600160a01b031681565b6040516001600160a01b039091168152602001610122565b61017e610179366004610d4f565b6104b0565b6040516101229190610db8565b61017e610199366004610d4f565b6105a3565b6101186101ac366004610dcb565b600060208181529281526040808220909352908152205481565b6001546002546003546004546101dc9392919084565b604080519485526020850193909352918301526060820152608001610122565b61017e61063d565b610118610212366004610e04565b61064a565b610118610225366004610e7c565b61080a565b610118610238366004610f9d565b610949565b6101537f000000000000000000000000000000000000000000000000000000000000000081565b61013e610272366004611067565b6109e3565b6001546002546003546004546101dc565b61013e6102963660046110b3565b610ad8565b6102da6102a9366004610d4f565b60076020526000908152604090208054600182015460028301546003909301546001600160a01b0390921692909184565b604080516001600160a01b0390951685526020850193909352918301526060820152608001610122565b6000336001600160a01b037f0000000000000000000000000000000000000000000000000000000000000000161461034f57604051632ad9535160e01b815260040160405180910390fd5b60045460009061271090610363908961115a565b61036d9190611179565b9a9950505050505050505050565b336000908152602081815260408083206001600160a01b0385168452909152902054600181116103e95760405162461bcd60e51b8152602060048201526014602482015273496e73756666696369656e7420726576656e756560601b60448201526064015b60405180910390fd5b336000908152602081815260408083206001600160a01b03868116855292529091206001908190557f00000000000000000000000000000000000000000000000000000000000000009091169063d6a4f84c908490610448908561119b565b6040516001600160e01b031960e085901b1681526001600160a01b0390921660048301526024820152336044820152606401600060405180830381600087803b15801561049457600080fd5b505af11580156104a8573d6000803e3d6000fd5b505050505050565b60008181526008602052604090208054606091906104cd906111b4565b9050600003610500576005826040516020016104ea9291906111e8565b6040516020818303038152906040529050919050565b60008281526008602052604090208054610519906111b4565b80601f0160208091040260200160405190810160405280929190818152602001828054610545906111b4565b80156105925780601f1061056757610100808354040283529160200191610592565b820191906000526020600020905b81548152906001019060200180831161057557829003601f168201915b50505050509050919050565b919050565b600860205260009081526040902080546105bc906111b4565b80601f01602080910402602001604051908101604052809291908181526020018280546105e8906111b4565b80156106355780601f1061060a57610100808354040283529160200191610635565b820191906000526020600020905b81548152906001019060200180831161061857829003601f168201915b505050505081565b600580546105bc906111b4565b6000336001600160a01b037f0000000000000000000000000000000000000000000000000000000000000000161461069557604051632ad9535160e01b815260040160405180910390fd5b6001600160a01b038816158015906106bf5750876001600160a01b0316896001600160a01b031614155b61070b5760405162461bcd60e51b815260206004820152601860248201527f41646472657373207a65726f206f722073656c662d6f776e000000000000000060448201526064016103e0565b60008080808061071d87890189611263565b94509450945094509450610734858e868686610b21565b60008c815260076020526040812080546001600160a01b0319166001600160a01b03881617815560018101869055600281018590556003018390558061077a8b8d6112b9565b6001549091506127109061078e908361115a565b6107989190611179565b91505080600080846001600160a01b03166001600160a01b0316815260200190815260200160002060008e6001600160a01b03166001600160a01b0316815260200190815260200160002060008282546107f291906112b9565b90915550909f9e505050505050505050505050505050565b6000336001600160a01b037f0000000000000000000000000000000000000000000000000000000000000000161461085557604051632ad9535160e01b815260040160405180910390fd5b876001600160a01b0316896001600160a01b0316146108a25760405162461bcd60e51b81526020600482015260096024820152682737ba1037bbb732b960b91b60448201526064016103e0565b60006108b083850185610d2b565b600354909150600090612710906108c78a8c6112b9565b6108d1919061115a565b6108db9190611179565b6001600160a01b038316600090815260208181526040822092935083929190610906908a018a610d2b565b6001600160a01b03166001600160a01b03168152602001908152602001600020600082825461093591906112b9565b90915550909b9a5050505050505050505050565b6000336001600160a01b037f0000000000000000000000000000000000000000000000000000000000000000161461099457604051632ad9535160e01b815260040160405180910390fd5b60008681526007602052604090208054600182015460028301546003909301548a938a936109d0936001600160a01b0390911692869290610b21565b5060009c9b505050505050505050505050565b6040516331a9108f60e11b8152600481018490527f00000000000000000000000000000000000000000000000000000000000000006001600160a01b031690636352211e90602401602060405180830381865afa158015610a48573d6000803e3d6000fd5b505050506040513d601f19601f82011682018060405250810190610a6c91906112cc565b6001600160a01b0316336001600160a01b031614610ab95760405162461bcd60e51b815260206004820152600a60248201526927b7363c9027bbb732b960b11b60448201526064016103e0565b6000838152600860205260409020610ad2828483611334565b50505050565b336001600160a01b037f000000000000000000000000000000000000000000000000000000000000000016146104a857604051632ad9535160e01b815260040160405180910390fd5b6006546040516329b42cb560e01b81526001600160a01b038681166004830152878116602483015260448201869052839216906329b42cb590606401600060405180830381865afa158015610b7a573d6000803e3d6000fd5b505050506040513d6000823e601f3d908101601f19168201604052610ba291908101906113f4565b8381518110610bb357610bb361146b565b01602001516001600160f81b03191614610bfe5760405162461bcd60e51b815260206004820152600c60248201526b139bdd08185d1d195cdd195960a21b60448201526064016103e0565b5050505050565b6001600160a01b0381168114610c1a57600080fd5b50565b803561059e81610c05565b600060808284031215610c3a57600080fd5b50919050565b60008083601f840112610c5257600080fd5b50813567ffffffffffffffff811115610c6a57600080fd5b602083019150836020828501011115610c8257600080fd5b9250929050565b600080600080600080600080610140898b031215610ca657600080fd5b8835610cb181610c05565b97506020890135610cc181610c05565b96506040890135610cd181610c05565b95506060890135945060808901359350610cee8a60a08b01610c28565b925061012089013567ffffffffffffffff811115610d0b57600080fd5b610d178b828c01610c40565b999c989b5096995094979396929594505050565b600060208284031215610d3d57600080fd5b8135610d4881610c05565b9392505050565b600060208284031215610d6157600080fd5b5035919050565b60005b83811015610d83578181015183820152602001610d6b565b50506000910152565b60008151808452610da4816020860160208601610d68565b601f01601f19169290920160200192915050565b602081526000610d486020830184610d8c565b60008060408385031215610dde57600080fd5b8235610de981610c05565b91506020830135610df981610c05565b809150509250929050565b60008060008060008060008060e0898b031215610e2057600080fd5b8835610e2b81610c05565b97506020890135610e3b81610c05565b9650604089013595506060890135610e5281610c05565b94506080890135935060a0890135925060c089013567ffffffffffffffff811115610d0b57600080fd5b600080600080600080600080610140898b031215610e9957600080fd5b8835610ea481610c05565b97506020890135610eb481610c05565b9650604089013595506060890135945060808901359350610cee8a60a08b01610c28565b634e487b7160e01b600052604160045260246000fd5b604051601f8201601f1916810167ffffffffffffffff81118282101715610f1757610f17610ed8565b604052919050565b600067ffffffffffffffff821115610f3957610f39610ed8565b50601f01601f191660200190565b600082601f830112610f5857600080fd5b8135610f6b610f6682610f1f565b610eee565b818152846020838601011115610f8057600080fd5b816020850160208301376000918101602001919091529392505050565b6000806000806000806000806000806101408b8d031215610fbd57600080fd5b8a35610fc881610c05565b995060208b0135610fd881610c05565b985060408b0135610fe881610c05565b975060608b0135610ff881610c05565b965060808b013561100881610c05565b955060a08b0135945061101d60c08c01610c1d565b935060e08b013592506101008b013591506101208b013567ffffffffffffffff81111561104957600080fd5b6110558d828e01610f47565b9150509295989b9194979a5092959850565b60008060006040848603121561107c57600080fd5b83359250602084013567ffffffffffffffff81111561109a57600080fd5b6110a686828701610c40565b9497909650939450505050565b60008060008060008061012087890312156110cd57600080fd5b86356110d881610c05565b955060208701356110e881610c05565b945060408701356110f881610c05565b93506060870135925061110e8860808901610c28565b915061010087013567ffffffffffffffff81111561112b57600080fd5b61113789828a01610f47565b9150509295509295509295565b634e487b7160e01b600052601160045260246000fd5b600081600019048311821515161561117457611174611144565b500290565b60008261119657634e487b7160e01b600052601260045260246000fd5b500490565b818103818111156111ae576111ae611144565b92915050565b600181811c908216806111c857607f821691505b602082108103610c3a57634e487b7160e01b600052602260045260246000fd5b60008084546111f6816111b4565b6001828116801561120e576001811461122357611252565b60ff1984168752821515830287019450611252565b8860005260208060002060005b858110156112495781548a820152908401908201611230565b50505082870194505b505050938152602001949350505050565b600080600080600060a0868803121561127b57600080fd5b853561128681610c05565b945060208601359350604086013592506060860135915060808601356112ab81610c05565b809150509295509295909350565b808201808211156111ae576111ae611144565b6000602082840312156112de57600080fd5b8151610d4881610c05565b601f82111561132f57600081815260208120601f850160051c810160208610156113105750805b601f850160051c820191505b818110156104a85782815560010161131c565b505050565b67ffffffffffffffff83111561134c5761134c610ed8565b6113608361135a83546111b4565b836112e9565b6000601f841160018114611394576000851561137c5750838201355b600019600387901b1c1916600186901b178355610bfe565b600083815260209020601f19861690835b828110156113c557868501358255602094850194600190920191016113a5565b50868210156113e25760001960f88860031b161c19848701351681555b505060018560011b0183555050505050565b60006020828403121561140657600080fd5b815167ffffffffffffffff81111561141d57600080fd5b8201601f8101841361142e57600080fd5b805161143c610f6682610f1f565b81815285602083850101111561145157600080fd5b611462826020830160208601610d68565b95945050505050565b634e487b7160e01b600052603260045260246000fdfea26469706673582212209243cb1c1522c3b4a3dd98d5cea6fde6cf0a776d3e1e937c8d1ee7a2bca520ab64736f6c634300081000334d6f64756c653a2046656520746f6f2068696768000000000000000000000000",
    "linkReferences": {}
  },
  "methodIdentifiers": {
    "AT_STAT()": "3374960e",
    "REGISTRAR()": "cb609077",
    "_URI()": "b4e87e8f",
    "attestGates(uint256)": "f86e827c",
    "fees()": "9af1d35a",
    "getFees()": "db8d55f1",
    "processApproval(address,address,address,uint256,(address,uint256,uint256,address),bytes)": "e4175968",
    "processCash(address,address,address,uint256,uint256,(address,uint256,uint256,address),bytes)": "06890cd0",
    "processFund(address,address,uint256,uint256,uint256,(address,uint256,uint256,address),bytes)": "be2f3fdd",
    "processTokenURI(uint256)": "4fe17e1a",
    "processTransfer(address,address,address,address,address,uint256,address,uint256,uint256,bytes)": "c0c9572c",
    "processWrite(address,address,uint256,address,uint256,uint256,bytes)": "b5d701ba",
    "revenue(address,address)": "9a0ea37a",
    "tokenURIs(uint256)": "6c8b703f",
    "updateURI(uint256,bytes)": "cfbd2caf",
    "withdrawFees(address)": "164e68de"
  },
  "id": 36
}