{
  "abi": [
    {
      "inputs": [
        {
          "internalType": "address",
          "name": "registrar",
          "type": "address"
        },
        {
          "components": [
            {
              "internalType": "uint256",
              "name": "writeBPS",
              "type": "uint256"
            },
            {
              "internalType": "uint256",
              "name": "transferBPS",
              "type": "uint256"
            },
            {
              "internalType": "uint256",
              "name": "fundBPS",
              "type": "uint256"
            },
            {
              "internalType": "uint256",
              "name": "cashBPS",
              "type": "uint256"
            }
          ],
          "internalType": "struct DataTypes.WTFCFees",
          "name": "_fees",
          "type": "tuple"
        },
        {
          "internalType": "string",
          "name": "__baseURI",
          "type": "string"
        }
      ],
      "stateMutability": "nonpayable",
      "type": "constructor"
    },
    {
      "inputs": [],
      "name": "FeeTooHigh",
      "type": "error"
    },
    {
      "inputs": [],
      "name": "InitParamsInvalid",
      "type": "error"
    },
    {
      "inputs": [],
      "name": "NotRegistrar",
      "type": "error"
    },
    {
      "inputs": [],
      "name": "AT_STAT",
      "outputs": [
        {
          "internalType": "contract AttestationStation",
          "name": "",
          "type": "address"
        }
      ],
      "stateMutability": "view",
      "type": "function"
    },
    {
      "inputs": [],
      "name": "REGISTRAR",
      "outputs": [
        {
          "internalType": "address",
          "name": "",
          "type": "address"
        }
      ],
      "stateMutability": "view",
      "type": "function"
    },
    {
      "inputs": [],
      "name": "_URI",
      "outputs": [
        {
          "internalType": "string",
          "name": "",
          "type": "string"
        }
      ],
      "stateMutability": "view",
      "type": "function"
    },
    {
      "inputs": [
        {
          "internalType": "uint256",
          "name": "",
          "type": "uint256"
        }
      ],
      "name": "attestGates",
      "outputs": [
        {
          "internalType": "address",
          "name": "attSource",
          "type": "address"
        },
        {
          "internalType": "bytes32",
          "name": "key",
          "type": "bytes32"
        },
        {
          "internalType": "uint256",
          "name": "index",
          "type": "uint256"
        },
        {
          "internalType": "bytes32",
          "name": "expectedVal",
          "type": "bytes32"
        }
      ],
      "stateMutability": "view",
      "type": "function"
    },
    {
      "inputs": [
        {
          "internalType": "address",
          "name": "",
          "type": "address"
        }
      ],
      "name": "dappOperatorFees",
      "outputs": [
        {
          "internalType": "uint256",
          "name": "writeBPS",
          "type": "uint256"
        },
        {
          "internalType": "uint256",
          "name": "transferBPS",
          "type": "uint256"
        },
        {
          "internalType": "uint256",
          "name": "fundBPS",
          "type": "uint256"
        },
        {
          "internalType": "uint256",
          "name": "cashBPS",
          "type": "uint256"
        }
      ],
      "stateMutability": "view",
      "type": "function"
    },
    {
      "inputs": [
        {
          "internalType": "address",
          "name": "dappOperator",
          "type": "address"
        }
      ],
      "name": "getFees",
      "outputs": [
        {
          "components": [
            {
              "internalType": "uint256",
              "name": "writeBPS",
              "type": "uint256"
            },
            {
              "internalType": "uint256",
              "name": "transferBPS",
              "type": "uint256"
            },
            {
              "internalType": "uint256",
              "name": "fundBPS",
              "type": "uint256"
            },
            {
              "internalType": "uint256",
              "name": "cashBPS",
              "type": "uint256"
            }
          ],
          "internalType": "struct DataTypes.WTFCFees",
          "name": "",
          "type": "tuple"
        }
      ],
      "stateMutability": "view",
      "type": "function"
    },
    {
      "inputs": [
        {
          "internalType": "address",
          "name": "",
          "type": "address"
        },
        {
          "internalType": "address",
          "name": "",
          "type": "address"
        },
        {
          "internalType": "address",
          "name": "",
          "type": "address"
        },
        {
          "internalType": "uint256",
          "name": "",
          "type": "uint256"
        },
        {
          "components": [
            {
              "internalType": "address",
              "name": "currency",
              "type": "address"
            },
            {
              "internalType": "uint256",
              "name": "escrowed",
              "type": "uint256"
            },
            {
              "internalType": "uint256",
              "name": "createdAt",
              "type": "uint256"
            },
            {
              "internalType": "address",
              "name": "module",
              "type": "address"
            }
          ],
          "internalType": "struct DataTypes.Cheq",
          "name": "",
          "type": "tuple"
        },
        {
          "internalType": "bytes",
          "name": "",
          "type": "bytes"
        }
      ],
      "name": "processApproval",
      "outputs": [],
      "stateMutability": "view",
      "type": "function"
    },
    {
      "inputs": [
        {
          "internalType": "address",
          "name": "",
          "type": "address"
        },
        {
          "internalType": "address",
          "name": "",
          "type": "address"
        },
        {
          "internalType": "address",
          "name": "",
          "type": "address"
        },
        {
          "internalType": "uint256",
          "name": "amount",
          "type": "uint256"
        },
        {
          "internalType": "uint256",
          "name": "",
          "type": "uint256"
        },
        {
          "components": [
            {
              "internalType": "address",
              "name": "currency",
              "type": "address"
            },
            {
              "internalType": "uint256",
              "name": "escrowed",
              "type": "uint256"
            },
            {
              "internalType": "uint256",
              "name": "createdAt",
              "type": "uint256"
            },
            {
              "internalType": "address",
              "name": "module",
              "type": "address"
            }
          ],
          "internalType": "struct DataTypes.Cheq",
          "name": "cheq",
          "type": "tuple"
        },
        {
          "internalType": "bytes",
          "name": "initData",
          "type": "bytes"
        }
      ],
      "name": "processCash",
      "outputs": [
        {
          "internalType": "uint256",
          "name": "",
          "type": "uint256"
        }
      ],
      "stateMutability": "nonpayable",
      "type": "function"
    },
    {
      "inputs": [
        {
          "internalType": "address",
          "name": "caller",
          "type": "address"
        },
        {
          "internalType": "address",
          "name": "owner",
          "type": "address"
        },
        {
          "internalType": "uint256",
          "name": "amount",
          "type": "uint256"
        },
        {
          "internalType": "uint256",
          "name": "instant",
          "type": "uint256"
        },
        {
          "internalType": "uint256",
          "name": "cheqId",
          "type": "uint256"
        },
        {
          "components": [
            {
              "internalType": "address",
              "name": "currency",
              "type": "address"
            },
            {
              "internalType": "uint256",
              "name": "escrowed",
              "type": "uint256"
            },
            {
              "internalType": "uint256",
              "name": "createdAt",
              "type": "uint256"
            },
            {
              "internalType": "address",
              "name": "module",
              "type": "address"
            }
          ],
          "internalType": "struct DataTypes.Cheq",
          "name": "cheq",
          "type": "tuple"
        },
        {
          "internalType": "bytes",
          "name": "initData",
          "type": "bytes"
        }
      ],
      "name": "processFund",
      "outputs": [
        {
          "internalType": "uint256",
          "name": "",
          "type": "uint256"
        }
      ],
      "stateMutability": "nonpayable",
      "type": "function"
    },
    {
      "inputs": [
        {
          "internalType": "uint256",
          "name": "tokenId",
          "type": "uint256"
        }
      ],
      "name": "processTokenURI",
      "outputs": [
        {
          "internalType": "string",
          "name": "",
          "type": "string"
        }
      ],
      "stateMutability": "view",
      "type": "function"
    },
    {
      "inputs": [
        {
          "internalType": "address",
          "name": "",
          "type": "address"
        },
        {
          "internalType": "address",
          "name": "",
          "type": "address"
        },
        {
          "internalType": "address",
          "name": "",
          "type": "address"
        },
        {
          "internalType": "address",
          "name": "",
          "type": "address"
        },
        {
          "internalType": "address",
          "name": "to",
          "type": "address"
        },
        {
          "internalType": "uint256",
          "name": "cheqId",
          "type": "uint256"
        },
        {
          "internalType": "address",
          "name": "",
          "type": "address"
        },
        {
          "internalType": "uint256",
          "name": "escrowed",
          "type": "uint256"
        },
        {
          "internalType": "uint256",
          "name": "",
          "type": "uint256"
        },
        {
          "internalType": "bytes",
          "name": "",
          "type": "bytes"
        }
      ],
      "name": "processTransfer",
      "outputs": [
        {
          "internalType": "uint256",
          "name": "",
          "type": "uint256"
        }
      ],
      "stateMutability": "view",
      "type": "function"
    },
    {
      "inputs": [
        {
          "internalType": "address",
          "name": "caller",
          "type": "address"
        },
        {
          "internalType": "address",
          "name": "owner",
          "type": "address"
        },
        {
          "internalType": "uint256",
          "name": "cheqId",
          "type": "uint256"
        },
        {
          "internalType": "address",
          "name": "currency",
          "type": "address"
        },
        {
          "internalType": "uint256",
          "name": "escrowed",
          "type": "uint256"
        },
        {
          "internalType": "uint256",
          "name": "instant",
          "type": "uint256"
        },
        {
          "internalType": "bytes",
          "name": "initData",
          "type": "bytes"
        }
      ],
      "name": "processWrite",
      "outputs": [
        {
          "internalType": "uint256",
          "name": "",
          "type": "uint256"
        }
      ],
      "stateMutability": "nonpayable",
      "type": "function"
    },
    {
      "inputs": [
        {
          "internalType": "address",
          "name": "",
          "type": "address"
        },
        {
          "internalType": "address",
          "name": "",
          "type": "address"
        }
      ],
      "name": "revenue",
      "outputs": [
        {
          "internalType": "uint256",
          "name": "",
          "type": "uint256"
        }
      ],
      "stateMutability": "view",
      "type": "function"
    },
    {
      "inputs": [
        {
          "components": [
            {
              "internalType": "uint256",
              "name": "writeBPS",
              "type": "uint256"
            },
            {
              "internalType": "uint256",
              "name": "transferBPS",
              "type": "uint256"
            },
            {
              "internalType": "uint256",
              "name": "fundBPS",
              "type": "uint256"
            },
            {
              "internalType": "uint256",
              "name": "cashBPS",
              "type": "uint256"
            }
          ],
          "internalType": "struct DataTypes.WTFCFees",
          "name": "_fees",
          "type": "tuple"
        }
      ],
      "name": "setFees",
      "outputs": [],
      "stateMutability": "nonpayable",
      "type": "function"
    },
    {
      "inputs": [
        {
          "internalType": "uint256",
          "name": "",
          "type": "uint256"
        }
      ],
      "name": "tokenURIs",
      "outputs": [
        {
          "internalType": "bytes",
          "name": "",
          "type": "bytes"
        }
      ],
      "stateMutability": "view",
      "type": "function"
    },
    {
      "inputs": [
        {
          "internalType": "uint256",
          "name": "cheqId",
          "type": "uint256"
        },
        {
          "internalType": "bytes",
          "name": "newURI",
          "type": "bytes"
        }
      ],
      "name": "updateURI",
      "outputs": [],
      "stateMutability": "nonpayable",
      "type": "function"
    },
    {
      "inputs": [
        {
          "internalType": "address",
          "name": "token",
          "type": "address"
        }
      ],
      "name": "withdrawFees",
      "outputs": [],
      "stateMutability": "nonpayable",
      "type": "function"
    }
  ],
  "bytecode": {
    "object": "0x60a06040523480156200001157600080fd5b506040516200206d3803806200206d83398101604081905262000034916200029e565b82826001600160a01b0382166200005e576040516348be0eb360e01b815260040160405180910390fd5b6001600160a01b03821660805280516127101015620000905760405163cd4e616760e01b815260040160405180910390fd5b80602001516127101015620000b85760405163cd4e616760e01b815260040160405180910390fd5b80604001516127101015620000e05760405163cd4e616760e01b815260040160405180910390fd5b80606001516127101015620001085760405163cd4e616760e01b815260040160405180910390fd5b336000908152600160208181526040928390208451815590840151918101919091558183015160028201556060830151600390910155516001600160a01b038316907ff1a1fa6b64aa95186f5a1285e76198d0da80d9c5a88062641d447f1d7c54e56c906200017a9042815260200190565b60405180910390a25060029050620001938282620003d6565b50505050620004a2565b634e487b7160e01b600052604160045260246000fd5b604051608081016001600160401b0381118282101715620001d857620001d86200019d565b60405290565b604051601f8201601f191681016001600160401b03811182821017156200020957620002096200019d565b604052919050565b600082601f8301126200022357600080fd5b81516001600160401b038111156200023f576200023f6200019d565b602062000255601f8301601f19168201620001de565b82815285828487010111156200026a57600080fd5b60005b838110156200028a5785810183015182820184015282016200026d565b506000928101909101919091529392505050565b600080600083850360c0811215620002b557600080fd5b84516001600160a01b0381168114620002cd57600080fd5b93506080601f1982011215620002e257600080fd5b50620002ed620001b3565b602085015181526040850151602082015260608501516040820152608085015160608201528092505060a084015160018060401b038111156200032f57600080fd5b6200033d8682870162000211565b9150509250925092565b600181811c908216806200035c57607f821691505b6020821081036200037d57634e487b7160e01b600052602260045260246000fd5b50919050565b601f821115620003d157600081815260208120601f850160051c81016020861015620003ac5750805b601f850160051c820191505b81811015620003cd57828155600101620003b8565b5050505b505050565b81516001600160401b03811115620003f257620003f26200019d565b6200040a8162000403845462000347565b8462000383565b602080601f831160018114620004425760008415620004295750858301515b600019600386901b1c1916600185901b178555620003cd565b600085815260208120601f198616915b82811015620004735788860151825594840194600190910190840162000452565b5085821015620004925787850151600019600388901b60f8161c191681555b5050505050600190811b01905550565b608051611b7e620004ef600039600081816102dd01528181610409015281816105660152818161086101528181610a3a01528181610b6d01528181610c4f0152610d9a0152611b7e6000f3fe608060405234801561001057600080fd5b506004361061011b5760003560e01c8063b4e87e8f116100b2578063cb60907711610081578063e417596811610066578063e417596814610312578063f86e827c14610325578063fd77c960146103a857600080fd5b8063cb609077146102d8578063cfbd2caf146102ff57600080fd5b8063b4e87e8f14610297578063b5d701ba1461029f578063be2f3fdd146102b2578063c0c9572c146102c557600080fd5b80634fe17e1a116100ee5780634fe17e1a146101f65780636c8b703f146102165780639a0ea37a146102295780639af608c91461025157600080fd5b806306890cd0146101205780631385a7b614610146578063164e68de1461019c5780633374960e146101b1575b600080fd5b61013361012e36600461117d565b6103ef565b6040519081526020015b60405180910390f35b61017c61015436600461121f565b6001602081905260009182526040909120805491810154600282015460039092015490919084565b60408051948552602085019390935291830152606082015260800161013d565b6101af6101aa36600461121f565b610491565b005b6003546101d19073ffffffffffffffffffffffffffffffffffffffff1681565b60405173ffffffffffffffffffffffffffffffffffffffff909116815260200161013d565b610209610204366004611243565b610628565b60405161013d91906112ca565b610209610224366004611243565b61071b565b6101336102373660046112dd565b600060208181529281526040808220909352908152205481565b61026461025f36600461121f565b6107b5565b60405161013d91908151815260208083015190820152604080830151908201526060918201519181019190915260800190565b61020961083a565b6101336102ad366004611316565b610847565b6101336102c036600461138e565b610a20565b6101336102d3366004611504565b610b53565b6101d17f000000000000000000000000000000000000000000000000000000000000000081565b6101af61030d3660046115ce565b610c20565b6101af61032036600461161a565b610d82565b610371610333366004611243565b600460205260009081526040902080546001820154600283015460039093015473ffffffffffffffffffffffffffffffffffffffff90921692909184565b6040805173ffffffffffffffffffffffffffffffffffffffff9095168552602085019390935291830152606082015260800161013d565b6101af6103b63660046116ab565b33600090815260016020818152604092839020845181559084015191810191909155908201516002820155606090910151600390910155565b60003373ffffffffffffffffffffffffffffffffffffffff7f00000000000000000000000000000000000000000000000000000000000000001614610460576040517f2ad9535100000000000000000000000000000000000000000000000000000000815260040160405180910390fd5b610484610470602086018661121f565b8761047d8587018761121f565b6003610df1565b9998505050505050505050565b3360009081526020818152604080832073ffffffffffffffffffffffffffffffffffffffff851684529091529020546001811161052f576040517f08c379a000000000000000000000000000000000000000000000000000000000815260206004820152601460248201527f496e73756666696369656e7420726576656e756500000000000000000000000060448201526064015b60405180910390fd5b3360009081526020818152604080832073ffffffffffffffffffffffffffffffffffffffff868116855292529091206001908190557f00000000000000000000000000000000000000000000000000000000000000009091169063d6a4f84c90849061059b9085611740565b6040517fffffffff0000000000000000000000000000000000000000000000000000000060e085901b16815273ffffffffffffffffffffffffffffffffffffffff90921660048301526024820152336044820152606401600060405180830381600087803b15801561060c57600080fd5b505af1158015610620573d6000803e3d6000fd5b505050505050565b600081815260056020526040902080546060919061064590611759565b9050600003610678576002826040516020016106629291906117a6565b6040516020818303038152906040529050919050565b6000828152600560205260409020805461069190611759565b80601f01602080910402602001604051908101604052809291908181526020018280546106bd90611759565b801561070a5780601f106106df5761010080835404028352916020019161070a565b820191906000526020600020905b8154815290600101906020018083116106ed57829003601f168201915b50505050509050919050565b919050565b6005602052600090815260409020805461073490611759565b80601f016020809104026020016040519081016040528092919081815260200182805461076090611759565b80156107ad5780601f10610782576101008083540402835291602001916107ad565b820191906000526020600020905b81548152906001019060200180831161079057829003601f168201915b505050505081565b6107e06040518060800160405280600081526020016000815260200160008152602001600081525090565b5073ffffffffffffffffffffffffffffffffffffffff166000908152600160208181526040928390208351608081018552815481529281015491830191909152600281015492820192909252600390910154606082015290565b6002805461073490611759565b60003373ffffffffffffffffffffffffffffffffffffffff7f000000000000000000000000000000000000000000000000000000000000000016146108b8576040517f2ad9535100000000000000000000000000000000000000000000000000000000815260040160405180910390fd5b73ffffffffffffffffffffffffffffffffffffffff88161580159061090957508773ffffffffffffffffffffffffffffffffffffffff168973ffffffffffffffffffffffffffffffffffffffff1614155b61096f576040517f08c379a000000000000000000000000000000000000000000000000000000000815260206004820152601860248201527f41646472657373207a65726f206f722073656c662d6f776e00000000000000006044820152606401610526565b6000808080806109818789018961183f565b94509450945094509450610998858e868686610f81565b60008c815260046020526040902080547fffffffffffffffffffffffff00000000000000000000000000000000000000001673ffffffffffffffffffffffffffffffffffffffff87161781556001810185905560028101849055600301829055610a0e8b610a068b8d611895565b836000610df1565b9e9d5050505050505050505050505050565b60003373ffffffffffffffffffffffffffffffffffffffff7f00000000000000000000000000000000000000000000000000000000000000001614610a91576040517f2ad9535100000000000000000000000000000000000000000000000000000000815260040160405180910390fd5b8773ffffffffffffffffffffffffffffffffffffffff168973ffffffffffffffffffffffffffffffffffffffff1614610b26576040517f08c379a000000000000000000000000000000000000000000000000000000000815260206004820152600960248201527f4e6f74206f776e657200000000000000000000000000000000000000000000006044820152606401610526565b610484610b36602086018661121f565b610b40888a611895565b610b4c8587018761121f565b6002610df1565b60003373ffffffffffffffffffffffffffffffffffffffff7f00000000000000000000000000000000000000000000000000000000000000001614610bc4576040517f2ad9535100000000000000000000000000000000000000000000000000000000815260040160405180910390fd5b60008681526004602052604090208054600182015460028301546003909301548a938a93610c0d9373ffffffffffffffffffffffffffffffffffffffff90911692869290610f81565b5060009c9b505050505050505050505050565b6040517f6352211e000000000000000000000000000000000000000000000000000000008152600481018490527f000000000000000000000000000000000000000000000000000000000000000073ffffffffffffffffffffffffffffffffffffffff1690636352211e90602401602060405180830381865afa158015610cab573d6000803e3d6000fd5b505050506040513d601f19601f82011682018060405250810190610ccf91906118a8565b73ffffffffffffffffffffffffffffffffffffffff163373ffffffffffffffffffffffffffffffffffffffff1614610d63576040517f08c379a000000000000000000000000000000000000000000000000000000000815260206004820152600a60248201527f4f6e6c79204f776e6572000000000000000000000000000000000000000000006044820152606401610526565b6000838152600560205260409020610d7c828483611910565b50505050565b3373ffffffffffffffffffffffffffffffffffffffff7f00000000000000000000000000000000000000000000000000000000000000001614610620576040517f2ad9535100000000000000000000000000000000000000000000000000000000815260040160405180910390fd5b60008160ff16600003610e2a575073ffffffffffffffffffffffffffffffffffffffff8216600090815260016020526040902054610f15565b8160ff16600103610e65575073ffffffffffffffffffffffffffffffffffffffff821660009081526001602081905260409091200154610f15565b8160ff16600203610e9f575073ffffffffffffffffffffffffffffffffffffffff8216600090815260016020526040902060020154610f15565b8160ff16600303610ed9575073ffffffffffffffffffffffffffffffffffffffff8216600090815260016020526040902060030154610f15565b6040517f08c379a00000000000000000000000000000000000000000000000000000000081526020600482015260006024820152604401610526565b612710610f228286611a2a565b610f2c9190611a67565b73ffffffffffffffffffffffffffffffffffffffff808516600090815260208181526040808320938a16835292905290812080549293508392909190610f73908490611895565b909155509095945050505050565b6003546040517f29b42cb500000000000000000000000000000000000000000000000000000000815273ffffffffffffffffffffffffffffffffffffffff8681166004830152878116602483015260448201869052839216906329b42cb590606401600060405180830381865afa158015611000573d6000803e3d6000fd5b505050506040513d6000823e601f3d9081017fffffffffffffffffffffffffffffffffffffffffffffffffffffffffffffffe01682016040526110469190810190611aa2565b838151811061105757611057611b19565b01602001517fff0000000000000000000000000000000000000000000000000000000000000016146110e5576040517f08c379a000000000000000000000000000000000000000000000000000000000815260206004820152600c60248201527f4e6f7420617474657374656400000000000000000000000000000000000000006044820152606401610526565b5050505050565b73ffffffffffffffffffffffffffffffffffffffff8116811461110e57600080fd5b50565b8035610716816110ec565b60006080828403121561112e57600080fd5b50919050565b60008083601f84011261114657600080fd5b50813567ffffffffffffffff81111561115e57600080fd5b60208301915083602082850101111561117657600080fd5b9250929050565b600080600080600080600080610140898b03121561119a57600080fd5b88356111a5816110ec565b975060208901356111b5816110ec565b965060408901356111c5816110ec565b955060608901359450608089013593506111e28a60a08b0161111c565b925061012089013567ffffffffffffffff8111156111ff57600080fd5b61120b8b828c01611134565b999c989b5096995094979396929594505050565b60006020828403121561123157600080fd5b813561123c816110ec565b9392505050565b60006020828403121561125557600080fd5b5035919050565b60005b8381101561127757818101518382015260200161125f565b50506000910152565b6000815180845261129881602086016020860161125c565b601f017fffffffffffffffffffffffffffffffffffffffffffffffffffffffffffffffe0169290920160200192915050565b60208152600061123c6020830184611280565b600080604083850312156112f057600080fd5b82356112fb816110ec565b9150602083013561130b816110ec565b809150509250929050565b60008060008060008060008060e0898b03121561133257600080fd5b883561133d816110ec565b9750602089013561134d816110ec565b9650604089013595506060890135611364816110ec565b94506080890135935060a0890135925060c089013567ffffffffffffffff8111156111ff57600080fd5b600080600080600080600080610140898b0312156113ab57600080fd5b88356113b6816110ec565b975060208901356113c6816110ec565b96506040890135955060608901359450608089013593506111e28a60a08b0161111c565b7f4e487b7100000000000000000000000000000000000000000000000000000000600052604160045260246000fd5b604051601f82017fffffffffffffffffffffffffffffffffffffffffffffffffffffffffffffffe016810167ffffffffffffffff81118282101715611460576114606113ea565b604052919050565b600067ffffffffffffffff821115611482576114826113ea565b50601f017fffffffffffffffffffffffffffffffffffffffffffffffffffffffffffffffe01660200190565b600082601f8301126114bf57600080fd5b81356114d26114cd82611468565b611419565b8181528460208386010111156114e757600080fd5b816020850160208301376000918101602001919091529392505050565b6000806000806000806000806000806101408b8d03121561152457600080fd5b8a3561152f816110ec565b995060208b013561153f816110ec565b985060408b013561154f816110ec565b975060608b013561155f816110ec565b965060808b013561156f816110ec565b955060a08b0135945061158460c08c01611111565b935060e08b013592506101008b013591506101208b013567ffffffffffffffff8111156115b057600080fd5b6115bc8d828e016114ae565b9150509295989b9194979a5092959850565b6000806000604084860312156115e357600080fd5b83359250602084013567ffffffffffffffff81111561160157600080fd5b61160d86828701611134565b9497909650939450505050565b600080600080600080610120878903121561163457600080fd5b863561163f816110ec565b9550602087013561164f816110ec565b9450604087013561165f816110ec565b935060608701359250611675886080890161111c565b915061010087013567ffffffffffffffff81111561169257600080fd5b61169e89828a016114ae565b9150509295509295509295565b6000608082840312156116bd57600080fd5b6040516080810181811067ffffffffffffffff821117156116e0576116e06113ea565b8060405250823581526020830135602082015260408301356040820152606083013560608201528091505092915050565b7f4e487b7100000000000000000000000000000000000000000000000000000000600052601160045260246000fd5b8181038181111561175357611753611711565b92915050565b600181811c9082168061176d57607f821691505b60208210810361112e577f4e487b7100000000000000000000000000000000000000000000000000000000600052602260045260246000fd5b60008084546117b481611759565b600182811680156117cc57600181146117ff5761182e565b7fffffffffffffffffffffffffffffffffffffffffffffffffffffffffffffff008416875282151583028701945061182e565b8860005260208060002060005b858110156118255781548a82015290840190820161180c565b50505082870194505b505050938152602001949350505050565b600080600080600060a0868803121561185757600080fd5b8535611862816110ec565b94506020860135935060408601359250606086013591506080860135611887816110ec565b809150509295509295909350565b8082018082111561175357611753611711565b6000602082840312156118ba57600080fd5b815161123c816110ec565b601f82111561190b57600081815260208120601f850160051c810160208610156118ec5750805b601f850160051c820191505b81811015610620578281556001016118f8565b505050565b67ffffffffffffffff831115611928576119286113ea565b61193c836119368354611759565b836118c5565b6000601f84116001811461198e57600085156119585750838201355b7fffffffffffffffffffffffffffffffffffffffffffffffffffffffffffffffff600387901b1c1916600186901b1783556110e5565b6000838152602090207fffffffffffffffffffffffffffffffffffffffffffffffffffffffffffffffe0861690835b828110156119dd57868501358255602094850194600190920191016119bd565b5086821015611a18577fffffffffffffffffffffffffffffffffffffffffffffffffffffffffffffffff60f88860031b161c19848701351681555b505060018560011b0183555050505050565b6000817fffffffffffffffffffffffffffffffffffffffffffffffffffffffffffffffff0483118215151615611a6257611a62611711565b500290565b600082611a9d577f4e487b7100000000000000000000000000000000000000000000000000000000600052601260045260246000fd5b500490565b600060208284031215611ab457600080fd5b815167ffffffffffffffff811115611acb57600080fd5b8201601f81018413611adc57600080fd5b8051611aea6114cd82611468565b818152856020838501011115611aff57600080fd5b611b1082602083016020860161125c565b95945050505050565b7f4e487b7100000000000000000000000000000000000000000000000000000000600052603260045260246000fdfea2646970667358221220d65ab9c9c618459441907ffeb1f520726b8d3c4341635f909a41a8e06b6c61cf64736f6c63430008100033",
    "linkReferences": {}
  },
  "methodIdentifiers": {
    "AT_STAT()": "3374960e",
    "REGISTRAR()": "cb609077",
    "_URI()": "b4e87e8f",
    "attestGates(uint256)": "f86e827c",
    "dappOperatorFees(address)": "1385a7b6",
    "getFees(address)": "9af608c9",
    "processApproval(address,address,address,uint256,(address,uint256,uint256,address),bytes)": "e4175968",
    "processCash(address,address,address,uint256,uint256,(address,uint256,uint256,address),bytes)": "06890cd0",
    "processFund(address,address,uint256,uint256,uint256,(address,uint256,uint256,address),bytes)": "be2f3fdd",
    "processTokenURI(uint256)": "4fe17e1a",
    "processTransfer(address,address,address,address,address,uint256,address,uint256,uint256,bytes)": "c0c9572c",
    "processWrite(address,address,uint256,address,uint256,uint256,bytes)": "b5d701ba",
    "revenue(address,address)": "9a0ea37a",
    "setFees((uint256,uint256,uint256,uint256))": "fd77c960",
    "tokenURIs(uint256)": "6c8b703f",
    "updateURI(uint256,bytes)": "cfbd2caf",
    "withdrawFees(address)": "164e68de"
  },
  "id": 43
}