{
  "abi": [
    {
      "inputs": [],
      "stateMutability": "nonpayable",
      "type": "constructor"
    },
    {
      "anonymous": false,
      "inputs": [
        {
          "indexed": true,
          "internalType": "address",
          "name": "owner",
          "type": "address"
        },
        {
          "indexed": true,
          "internalType": "address",
          "name": "approved",
          "type": "address"
        },
        {
          "indexed": true,
          "internalType": "uint256",
          "name": "tokenId",
          "type": "uint256"
        }
      ],
      "name": "Approval",
      "type": "event"
    },
    {
      "anonymous": false,
      "inputs": [
        {
          "indexed": true,
          "internalType": "address",
          "name": "owner",
          "type": "address"
        },
        {
          "indexed": true,
          "internalType": "address",
          "name": "operator",
          "type": "address"
        },
        {
          "indexed": false,
          "internalType": "bool",
          "name": "approved",
          "type": "bool"
        }
      ],
      "name": "ApprovalForAll",
      "type": "event"
    },
    {
      "anonymous": false,
      "inputs": [
        {
          "indexed": true,
          "internalType": "address",
          "name": "previousOwner",
          "type": "address"
        },
        {
          "indexed": true,
          "internalType": "address",
          "name": "newOwner",
          "type": "address"
        }
      ],
      "name": "OwnershipTransferred",
      "type": "event"
    },
    {
      "anonymous": false,
      "inputs": [
        {
          "indexed": true,
          "internalType": "address",
          "name": "from",
          "type": "address"
        },
        {
          "indexed": true,
          "internalType": "address",
          "name": "to",
          "type": "address"
        },
        {
          "indexed": true,
          "internalType": "uint256",
          "name": "tokenId",
          "type": "uint256"
        }
      ],
      "name": "Transfer",
      "type": "event"
    },
    {
      "inputs": [
        {
          "internalType": "address",
          "name": "to",
          "type": "address"
        },
        {
          "internalType": "uint256",
          "name": "tokenId",
          "type": "uint256"
        }
      ],
      "name": "approve",
      "outputs": [],
      "stateMutability": "nonpayable",
      "type": "function"
    },
    {
      "inputs": [
        {
          "internalType": "address",
          "name": "owner",
          "type": "address"
        }
      ],
      "name": "balanceOf",
      "outputs": [
        {
          "internalType": "uint256",
          "name": "",
          "type": "uint256"
        }
      ],
      "stateMutability": "view",
      "type": "function"
    },
    {
      "inputs": [
        {
          "internalType": "uint256",
          "name": "cheqId",
          "type": "uint256"
        },
        {
          "internalType": "uint256",
          "name": "amount",
          "type": "uint256"
        },
        {
          "internalType": "address",
          "name": "to",
          "type": "address"
        },
        {
          "internalType": "bytes",
          "name": "cashData",
          "type": "bytes"
        }
      ],
      "name": "cash",
      "outputs": [],
      "stateMutability": "payable",
      "type": "function"
    },
    {
      "inputs": [
        {
          "internalType": "uint256",
          "name": "cheqId",
          "type": "uint256"
        }
      ],
      "name": "cheqAmount",
      "outputs": [
        {
          "internalType": "uint256",
          "name": "",
          "type": "uint256"
        }
      ],
      "stateMutability": "view",
      "type": "function"
    },
    {
      "inputs": [
        {
          "internalType": "uint256",
          "name": "cheqId",
          "type": "uint256"
        }
      ],
      "name": "cheqCurrency",
      "outputs": [
        {
          "internalType": "address",
          "name": "",
          "type": "address"
        }
      ],
      "stateMutability": "view",
      "type": "function"
    },
    {
      "inputs": [
        {
          "internalType": "uint256",
          "name": "cheqId",
          "type": "uint256"
        }
      ],
      "name": "cheqDrawer",
      "outputs": [
        {
          "internalType": "address",
          "name": "",
          "type": "address"
        }
      ],
      "stateMutability": "view",
      "type": "function"
    },
    {
      "inputs": [
        {
          "internalType": "uint256",
          "name": "cheqId",
          "type": "uint256"
        }
      ],
      "name": "cheqEscrowed",
      "outputs": [
        {
          "internalType": "uint256",
          "name": "",
          "type": "uint256"
        }
      ],
      "stateMutability": "view",
      "type": "function"
    },
    {
      "inputs": [
        {
          "internalType": "uint256",
          "name": "cheqId",
          "type": "uint256"
        }
      ],
      "name": "cheqInfo",
      "outputs": [
        {
          "components": [
            {
              "internalType": "address",
              "name": "currency",
              "type": "address"
            },
            {
              "internalType": "uint256",
              "name": "amount",
              "type": "uint256"
            },
            {
              "internalType": "uint256",
              "name": "escrowed",
              "type": "uint256"
            },
            {
              "internalType": "address",
              "name": "drawer",
              "type": "address"
            },
            {
              "internalType": "address",
              "name": "recipient",
              "type": "address"
            },
            {
              "internalType": "address",
              "name": "module",
              "type": "address"
            },
            {
              "internalType": "uint256",
              "name": "timeCreated",
              "type": "uint256"
            }
          ],
          "internalType": "struct DataTypes.Cheq",
          "name": "",
          "type": "tuple"
        }
      ],
      "stateMutability": "view",
      "type": "function"
    },
    {
      "inputs": [
        {
          "internalType": "uint256",
          "name": "cheqId",
          "type": "uint256"
        }
      ],
      "name": "cheqModule",
      "outputs": [
        {
          "internalType": "address",
          "name": "",
          "type": "address"
        }
      ],
      "stateMutability": "view",
      "type": "function"
    },
    {
      "inputs": [
        {
          "internalType": "uint256",
          "name": "cheqId",
          "type": "uint256"
        }
      ],
      "name": "cheqRecipient",
      "outputs": [
        {
          "internalType": "address",
          "name": "",
          "type": "address"
        }
      ],
      "stateMutability": "view",
      "type": "function"
    },
    {
      "inputs": [
        {
          "internalType": "uint256",
          "name": "cheqId",
          "type": "uint256"
        },
        {
          "internalType": "uint256",
          "name": "amount",
          "type": "uint256"
        },
        {
          "internalType": "bytes",
          "name": "fundData",
          "type": "bytes"
        }
      ],
      "name": "fund",
      "outputs": [],
      "stateMutability": "payable",
      "type": "function"
    },
    {
      "inputs": [
        {
          "internalType": "uint256",
          "name": "tokenId",
          "type": "uint256"
        }
      ],
      "name": "getApproved",
      "outputs": [
        {
          "internalType": "address",
          "name": "",
          "type": "address"
        }
      ],
      "stateMutability": "view",
      "type": "function"
    },
    {
      "inputs": [
        {
          "internalType": "address",
          "name": "owner",
          "type": "address"
        },
        {
          "internalType": "address",
          "name": "operator",
          "type": "address"
        }
      ],
      "name": "isApprovedForAll",
      "outputs": [
        {
          "internalType": "bool",
          "name": "",
          "type": "bool"
        }
      ],
      "stateMutability": "view",
      "type": "function"
    },
    {
      "inputs": [],
      "name": "name",
      "outputs": [
        {
          "internalType": "string",
          "name": "",
          "type": "string"
        }
      ],
      "stateMutability": "view",
      "type": "function"
    },
    {
      "inputs": [],
      "name": "owner",
      "outputs": [
        {
          "internalType": "address",
          "name": "",
          "type": "address"
        }
      ],
      "stateMutability": "view",
      "type": "function"
    },
    {
      "inputs": [
        {
          "internalType": "uint256",
          "name": "tokenId",
          "type": "uint256"
        }
      ],
      "name": "ownerOf",
      "outputs": [
        {
          "internalType": "address",
          "name": "",
          "type": "address"
        }
      ],
      "stateMutability": "view",
      "type": "function"
    },
    {
      "inputs": [],
      "name": "renounceOwnership",
      "outputs": [],
      "stateMutability": "nonpayable",
      "type": "function"
    },
    {
      "inputs": [
        {
          "internalType": "address",
          "name": "from",
          "type": "address"
        },
        {
          "internalType": "address",
          "name": "to",
          "type": "address"
        },
        {
          "internalType": "uint256",
          "name": "tokenId",
          "type": "uint256"
        }
      ],
      "name": "safeTransferFrom",
      "outputs": [],
      "stateMutability": "nonpayable",
      "type": "function"
    },
    {
      "inputs": [
        {
          "internalType": "address",
          "name": "from",
          "type": "address"
        },
        {
          "internalType": "address",
          "name": "to",
          "type": "address"
        },
        {
          "internalType": "uint256",
          "name": "tokenId",
          "type": "uint256"
        },
        {
          "internalType": "bytes",
          "name": "moduleTransferData",
          "type": "bytes"
        }
      ],
      "name": "safeTransferFrom",
      "outputs": [],
      "stateMutability": "nonpayable",
      "type": "function"
    },
    {
      "inputs": [
        {
          "internalType": "address",
          "name": "",
          "type": "address"
        },
        {
          "internalType": "bool",
          "name": "",
          "type": "bool"
        }
      ],
      "name": "setApprovalForAll",
      "outputs": [],
      "stateMutability": "nonpayable",
      "type": "function"
    },
    {
      "inputs": [
        {
          "internalType": "bytes4",
          "name": "interfaceId",
          "type": "bytes4"
        }
      ],
      "name": "supportsInterface",
      "outputs": [
        {
          "internalType": "bool",
          "name": "",
          "type": "bool"
        }
      ],
      "stateMutability": "view",
      "type": "function"
    },
    {
      "inputs": [],
      "name": "symbol",
      "outputs": [
        {
          "internalType": "string",
          "name": "",
          "type": "string"
        }
      ],
      "stateMutability": "view",
      "type": "function"
    },
    {
      "inputs": [
        {
          "internalType": "uint256",
          "name": "_tokenId",
          "type": "uint256"
        }
      ],
      "name": "tokenURI",
      "outputs": [
        {
          "internalType": "string",
          "name": "",
          "type": "string"
        }
      ],
      "stateMutability": "view",
      "type": "function"
    },
    {
      "inputs": [],
      "name": "totalSupply",
      "outputs": [
        {
          "internalType": "uint256",
          "name": "",
          "type": "uint256"
        }
      ],
      "stateMutability": "view",
      "type": "function"
    },
    {
      "inputs": [],
      "name": "transferFee",
      "outputs": [
        {
          "internalType": "uint256",
          "name": "",
          "type": "uint256"
        }
      ],
      "stateMutability": "view",
      "type": "function"
    },
    {
      "inputs": [
        {
          "internalType": "address",
          "name": "from",
          "type": "address"
        },
        {
          "internalType": "address",
          "name": "to",
          "type": "address"
        },
        {
          "internalType": "uint256",
          "name": "tokenId",
          "type": "uint256"
        }
      ],
      "name": "transferFrom",
      "outputs": [],
      "stateMutability": "nonpayable",
      "type": "function"
    },
    {
      "inputs": [
        {
          "internalType": "address",
          "name": "newOwner",
          "type": "address"
        }
      ],
      "name": "transferOwnership",
      "outputs": [],
      "stateMutability": "nonpayable",
      "type": "function"
    },
    {
      "inputs": [
        {
          "internalType": "address",
          "name": "module",
          "type": "address"
        },
        {
          "internalType": "bool",
          "name": "bytecodeAccepted",
          "type": "bool"
        },
        {
          "internalType": "bool",
          "name": "addressAccepted",
          "type": "bool"
        }
      ],
      "name": "whitelistModule",
      "outputs": [],
      "stateMutability": "nonpayable",
      "type": "function"
    },
    {
      "inputs": [
        {
          "internalType": "address",
          "name": "_token",
          "type": "address"
        },
        {
          "internalType": "bool",
          "name": "accepted",
          "type": "bool"
        }
      ],
      "name": "whitelistToken",
      "outputs": [],
      "stateMutability": "nonpayable",
      "type": "function"
    },
    {
      "inputs": [
        {
          "components": [
            {
              "internalType": "address",
              "name": "currency",
              "type": "address"
            },
            {
              "internalType": "uint256",
              "name": "amount",
              "type": "uint256"
            },
            {
              "internalType": "uint256",
              "name": "escrowed",
              "type": "uint256"
            },
            {
              "internalType": "address",
              "name": "drawer",
              "type": "address"
            },
            {
              "internalType": "address",
              "name": "recipient",
              "type": "address"
            },
            {
              "internalType": "address",
              "name": "module",
              "type": "address"
            },
            {
              "internalType": "uint256",
              "name": "timeCreated",
              "type": "uint256"
            }
          ],
          "internalType": "struct DataTypes.Cheq",
          "name": "cheq",
          "type": "tuple"
        },
        {
          "internalType": "bytes",
          "name": "moduleWriteData",
          "type": "bytes"
        },
        {
          "internalType": "address",
          "name": "owner",
          "type": "address"
        }
      ],
      "name": "write",
      "outputs": [
        {
          "internalType": "uint256",
          "name": "",
          "type": "uint256"
        }
      ],
      "stateMutability": "payable",
      "type": "function"
    }
  ],
  "bytecode": {
    "object": "0x60806040523480156200001157600080fd5b506040518060400160405280600c81526020016b10da195c541c9bdd1bd8dbdb60a21b815250604051806040016040528060048152602001634348455160e01b815250816000908162000065919062000192565b50600162000074828262000192565b505050620000916200008b6200009760201b60201c565b6200009b565b6200025e565b3390565b600680546001600160a01b038381166001600160a01b0319831681179093556040519116919082907f8be0079c531659141344cd1fd0a4f28419497f9722a3daafe3b4186f6b6457e090600090a35050565b634e487b7160e01b600052604160045260246000fd5b600181811c908216806200011857607f821691505b6020821081036200013957634e487b7160e01b600052602260045260246000fd5b50919050565b601f8211156200018d57600081815260208120601f850160051c81016020861015620001685750805b601f850160051c820191505b81811015620001895782815560010162000174565b5050505b505050565b81516001600160401b03811115620001ae57620001ae620000ed565b620001c681620001bf845462000103565b846200013f565b602080601f831160018114620001fe5760008415620001e55750858301515b600019600386901b1c1916600185901b17855562000189565b600085815260208120601f198616915b828110156200022f578886015182559484019460019091019084016200020e565b50858210156200024e5787850151600019600388901b60f8161c191681555b5050505050600190811b01905550565b6128c6806200026e6000396000f3fe6080604052600436106101cd5760003560e01c80638da5cb5b116100f7578063c298c4d211610095578063e985e9c511610064578063e985e9c514610544578063f2fde38b1461058d578063f7794942146105ad578063fdd90c70146105da57600080fd5b8063c298c4d2146104a8578063c87b56dd146104d8578063d2e13f50146104f8578063e0e295b71461050b57600080fd5b8063a05aeffc116100d1578063a05aeffc1461043f578063a22cb46514610452578063acb2ad6f14610472578063b88d4fde1461048857600080fd5b80638da5cb5b146103dc57806395d89b41146103fa57806398e05fcf1461040f57600080fd5b806332c1efbb1161016f5780636352211e1161013e5780636352211e1461034e57806370a082311461036e578063715018a61461038e578063789a0496146103a357600080fd5b806332c1efbb146102e257806342842e0e146102c25780634e289c061461031b57806353aafb691461032e57600080fd5b8063095ea7b3116101ab578063095ea7b3146102615780630ffb1d8b1461028357806318160ddd146102a357806323b872dd146102c257600080fd5b806301ffc9a7146101d257806306fdde0314610207578063081812fc14610229575b600080fd5b3480156101de57600080fd5b506101f26101ed366004611d50565b610610565b60405190151581526020015b60405180910390f35b34801561021357600080fd5b5061021c610662565b6040516101fe9190611dbd565b34801561023557600080fd5b50610249610244366004611dd0565b6106f4565b6040516001600160a01b0390911681526020016101fe565b34801561026d57600080fd5b5061028161027c366004611e0e565b61071b565b005b34801561028f57600080fd5b5061028161029e366004611e48565b610829565b3480156102af57600080fd5b50600b545b6040519081526020016101fe565b3480156102ce57600080fd5b506102816102dd366004611e81565b61085c565b3480156102ee57600080fd5b506102496102fd366004611dd0565b6000908152600760205260409020600301546001600160a01b031690565b610281610329366004611f0b565b610877565b34801561033a57600080fd5b50610281610349366004611f75565b6109f7565b34801561035a57600080fd5b50610249610369366004611dd0565b610a3b565b34801561037a57600080fd5b506102b4610389366004611fc0565b610a9b565b34801561039a57600080fd5b50610281610b21565b3480156103af57600080fd5b506102496103be366004611dd0565b6000908152600760205260409020600401546001600160a01b031690565b3480156103e857600080fd5b506006546001600160a01b0316610249565b34801561040657600080fd5b5061021c610b35565b34801561041b57600080fd5b506102b461042a366004611dd0565b60009081526007602052604090206001015490565b6102b461044d366004611fdd565b610b44565b34801561045e57600080fd5b5061028161046d366004611e48565b610d55565b34801561047e57600080fd5b506102b4600c5481565b34801561049457600080fd5b506102816104a33660046120bc565b610da1565b3480156104b457600080fd5b506102b46104c3366004611dd0565b60009081526007602052604090206002015490565b3480156104e457600080fd5b5061021c6104f3366004611dd0565b610f7d565b61028161050636600461216b565b611067565b34801561051757600080fd5b50610249610526366004611dd0565b6000908152600760205260409020600501546001600160a01b031690565b34801561055057600080fd5b506101f261055f3660046121be565b6001600160a01b03918216600090815260056020908152604080832093909416825291909152205460ff1690565b34801561059957600080fd5b506102816105a8366004611fc0565b6111a7565b3480156105b957600080fd5b506105cd6105c8366004611dd0565b611220565b6040516101fe9190612240565b3480156105e657600080fd5b506102496105f5366004611dd0565b6000908152600760205260409020546001600160a01b031690565b60006001600160e01b031982166380ac58cd60e01b148061064157506001600160e01b03198216635b5e139f60e01b145b8061065c57506301ffc9a760e01b6001600160e01b03198316145b92915050565b6060600080546106719061224e565b80601f016020809104026020016040519081016040528092919081815260200182805461069d9061224e565b80156106ea5780601f106106bf576101008083540402835291602001916106ea565b820191906000526020600020905b8154815290600101906020018083116106cd57829003601f168201915b5050505050905090565b60006106ff826112cc565b506000908152600460205260409020546001600160a01b031690565b600081815260076020908152604091829020825160e08101845281546001600160a01b03908116825260018301549382019390935260028201548185015260038201548316606082015260048083015484166080830152600583015490931660a0820181905260069092015460c0820152925163095adeb560e41b815290916395adeb50916107b291339188918891889101612288565b6020604051808303816000875af11580156107d1573d6000803e3d6000fd5b505050506040513d601f19601f820116820180604052508101906107f591906122d0565b61081a5760405162461bcd60e51b8152600401610811906122ed565b60405180910390fd5b610824838361132b565b505050565b610831611399565b6001600160a01b03919091166000908152600a60205260409020805460ff1916911515919091179055565b61082483838360405180602001604052806000815250610da1565b600085815260076020526040902060028101548511156108cc5760405162461bcd60e51b815260206004820152601060248201526f10d0539517d0d054d217d05353d5539560821b6044820152606401610811565b60058101546001600160a01b031663cd2c6b063386888a8689896040518863ffffffff1660e01b81526004016109089796959493929190612390565b6020604051808303816000875af1158015610927573d6000803e3d6000fd5b505050506040513d601f19601f8201168201806040525081019061094b91906122d0565b6109675760405162461bcd60e51b8152600401610811906122ed565b60028101805486900390558054610988906001600160a01b031685876113f3565b82826040516109989291906123e6565b6040518091039020866109a83390565b604080516001600160a01b03898116825242602083015292909216917fa22e2c038abe777b9e70c815ecd9a3c7b981a9ad920d62d9a02329124ad74a40910160405180910390a4505050505050565b6109ff611399565b60405162461bcd60e51b8152602060048201526011602482015270086829c4ea8be8286868aa0a8be849ea89607b1b6044820152606401610811565b6000818152600260205260408120546001600160a01b03168061065c5760405162461bcd60e51b8152602060048201526018602482015277115490cdcc8c4e881a5b9d985b1a59081d1bdad95b88125160421b6044820152606401610811565b60006001600160a01b038216610b055760405162461bcd60e51b815260206004820152602960248201527f4552433732313a2061646472657373207a65726f206973206e6f7420612076616044820152683634b21037bbb732b960b91b6064820152608401610811565b506001600160a01b031660009081526003602052604090205490565b610b29611399565b610b336000611456565b565b6060600180546106719061224e565b6000610b6b610b5960c0870160a08801611fc0565b610b666020880188611fc0565b6114a8565b610ba95760405162461bcd60e51b815260206004820152600f60248201526e1393d517d5d2125511531254d51151608a1b6044820152606401610811565b610bb960c0860160a08701611fc0565b6001600160a01b031663b87281fd3384600b548989896040518763ffffffff1660e01b8152600401610bf0969594939291906123f6565b6020604051808303816000875af1158015610c0f573d6000803e3d6000fd5b505050506040513d601f19601f82011682018060405250810190610c3391906122d0565b610c765760405162461bcd60e51b81526020600482015260146024820152731353d11553114e8815d492551157d1905253115160621b6044820152606401610811565b610c9e33306040880135610c8d60208a018a611fc0565b6001600160a01b03169291906114db565b600b5460009081526007602052604090208590610cbb82826124d2565b5050600b805460009081526007602052604090204260069091015554610ce2908390611519565b84604051610cf0919061255e565b6040518091039020826001600160a01b0316600b547f2b7a4e5accce15f0a5b5d3aa9b348d67a22194ea202747a80e5de4a1671bed58878742604051610d38939291906125e3565b60405180910390a450600b8054600181019091555b949350505050565b60405162461bcd60e51b815260206004820152601760248201527f4f50455241544f52535f4e4f545f535550504f525445440000000000000000006044820152606401610811565b5050565b610dab3383611533565b610e0d5760405162461bcd60e51b815260206004820152602d60248201527f4552433732313a2063616c6c6572206973206e6f7420746f6b656e206f776e6560448201526c1c881bdc88185c1c1c9bdd9959609a1b6064820152608401610811565b600082815260076020526040902060058101546001600160a01b03166360bf85d53387878786886040518763ffffffff1660e01b8152600401610e5596959493929190612607565b6020604051808303816000875af1158015610e74573d6000803e3d6000fd5b505050506040513d601f19601f82011682018060405250810190610e9891906122d0565b610eb45760405162461bcd60e51b8152600401610811906122ed565b6000838152600760205260409020600201548015610f0457612710600c5482610edd9190612665565b610ee79190612684565b610ef190826126a6565b6000858152600760205260409020600201555b846001600160a01b0316610f1785610a3b565b6001600160a01b0316857f6d7c707b98bc93a03fa28d257e1d504178a2b00430c07b98ab963b9a0429845342604051610f5291815260200190565b60405180910390a4610f75868686604051806020016040528060008152506115b1565b505050505050565b6060610f88826112cc565b6000610f9383611220565b805160208201516040808401516060850151608086015160a0870151935163639a77b160e01b8152600481018b90526001600160a01b0396871660248201526044810195909552606485019290925284166084840152831660a48301529190911660c482015290915073__$fdfd40b1ed0ced6ea5ec32ab89aa233a2e$__9063639a77b19060e401600060405180830381865af4158015611038573d6000803e3d6000fd5b505050506040513d6000823e601f3d908101601f1916820160405261106091908101906126b9565b9392505050565b600084815260076020526040902060058101546001600160a01b031663c7b975233386888588886040518763ffffffff1660e01b81526004016110af96959493929190612730565b6020604051808303816000875af11580156110ce573d6000803e3d6000fd5b505050506040513d601f19601f820116820180604052508101906110f291906122d0565b61110e5760405162461bcd60e51b8152600401610811906122ed565b6111253382546001600160a01b03169030876114db565b838160020160008282546111399190612770565b909155505060405161114e90849084906123e6565b60405180910390208561115e3390565b6001600160a01b03167f7f9e114b8f0bfab1d9bcc2861a7302a43f2c46c59ac20cd6fea6ad4692a13a664260405161119891815260200190565b60405180910390a45050505050565b6111af611399565b6001600160a01b0381166112145760405162461bcd60e51b815260206004820152602660248201527f4f776e61626c653a206e6577206f776e657220697320746865207a65726f206160448201526564647265737360d01b6064820152608401610811565b61121d81611456565b50565b6040805160e081018252600080825260208201819052918101829052606081018290526080810182905260a0810182905260c081019190915250600090815260076020908152604091829020825160e08101845281546001600160a01b039081168252600183015493820193909352600282015493810193909352600381015482166060840152600481015482166080840152600581015490911660a08301526006015460c082015290565b6000818152600260205260409020546001600160a01b031661121d5760405162461bcd60e51b8152602060048201526018602482015277115490cdcc8c4e881a5b9d985b1a59081d1bdad95b88125160421b6044820152606401610811565b600081815260046020526040902080546001600160a01b0319166001600160a01b038416908117909155819061136082610a3b565b6001600160a01b03167f8c5be1e5ebec7d5bd14f71427d1e84f3dd0314c0f7b2291e5b200ac8c7c3b92560405160405180910390a45050565b6006546001600160a01b03163314610b335760405162461bcd60e51b815260206004820181905260248201527f4f776e61626c653a2063616c6c6572206973206e6f7420746865206f776e65726044820152606401610811565b6040516001600160a01b03831660248201526044810182905261082490849063a9059cbb60e01b906064015b60408051601f198184030181529190526020810180516001600160e01b03166001600160e01b0319909316929092179091526115e4565b600680546001600160a01b038381166001600160a01b0319831681179093556040519116919082907f8be0079c531659141344cd1fd0a4f28419497f9722a3daafe3b4186f6b6457e090600090a35050565b60006114b3836116b6565b80156110605750506001600160a01b03166000908152600a602052604090205460ff16919050565b6040516001600160a01b03808516602483015283166044820152606481018290526115139085906323b872dd60e01b9060840161141f565b50505050565b610d9d8282604051806020016040528060008152506116ef565b60008061153f83610a3b565b9050806001600160a01b0316846001600160a01b0316148061158657506001600160a01b0380821660009081526005602090815260408083209388168352929052205460ff165b80610d4d5750836001600160a01b031661159f846106f4565b6001600160a01b031614949350505050565b6115bc848484611722565b6115c884848484611893565b6115135760405162461bcd60e51b815260040161081190612783565b6000611639826040518060400160405280602081526020017f5361666545524332303a206c6f772d6c6576656c2063616c6c206661696c6564815250856001600160a01b03166119919092919063ffffffff16565b805190915015610824578080602001905181019061165791906122d0565b6108245760405162461bcd60e51b815260206004820152602a60248201527f5361666545524332303a204552433230206f7065726174696f6e20646964206e6044820152691bdd081cdd58d8d9595960b21b6064820152608401610811565b6001600160a01b03811660009081526009602052604081205460ff168061065c5750503f60009081526008602052604090205460ff1690565b6116f983836119a0565b6117066000848484611893565b6108245760405162461bcd60e51b815260040161081190612783565b826001600160a01b031661173582610a3b565b6001600160a01b03161461175b5760405162461bcd60e51b8152600401610811906127d5565b6001600160a01b0382166117bd5760405162461bcd60e51b8152602060048201526024808201527f4552433732313a207472616e7366657220746f20746865207a65726f206164646044820152637265737360e01b6064820152608401610811565b6117ca8383836001611b39565b826001600160a01b03166117dd82610a3b565b6001600160a01b0316146118035760405162461bcd60e51b8152600401610811906127d5565b600081815260046020908152604080832080546001600160a01b03199081169091556001600160a01b0387811680865260038552838620805460001901905590871680865283862080546001019055868652600290945282852080549092168417909155905184937fddf252ad1be2c89b69c2b068fc378daa952ba7f163c4a11628f55a4df523b3ef91a4505050565b60006001600160a01b0384163b1561198957604051630a85bd0160e11b81526001600160a01b0385169063150b7a02906118d790339089908890889060040161281a565b6020604051808303816000875af1925050508015611912575060408051601f3d908101601f1916820190925261190f91810190612857565b60015b61196f573d808015611940576040519150601f19603f3d011682016040523d82523d6000602084013e611945565b606091505b5080516000036119675760405162461bcd60e51b815260040161081190612783565b805181602001fd5b6001600160e01b031916630a85bd0160e11b149050610d4d565b506001610d4d565b6060610d4d8484600085611bc1565b6001600160a01b0382166119f65760405162461bcd60e51b815260206004820181905260248201527f4552433732313a206d696e7420746f20746865207a65726f20616464726573736044820152606401610811565b6000818152600260205260409020546001600160a01b031615611a5b5760405162461bcd60e51b815260206004820152601c60248201527f4552433732313a20746f6b656e20616c7265616479206d696e746564000000006044820152606401610811565b611a69600083836001611b39565b6000818152600260205260409020546001600160a01b031615611ace5760405162461bcd60e51b815260206004820152601c60248201527f4552433732313a20746f6b656e20616c7265616479206d696e746564000000006044820152606401610811565b6001600160a01b038216600081815260036020908152604080832080546001019055848352600290915280822080546001600160a01b0319168417905551839291907fddf252ad1be2c89b69c2b068fc378daa952ba7f163c4a11628f55a4df523b3ef908290a45050565b6001811115611513576001600160a01b03841615611b7f576001600160a01b03841660009081526003602052604081208054839290611b799084906126a6565b90915550505b6001600160a01b03831615611513576001600160a01b03831660009081526003602052604081208054839290611bb6908490612770565b909155505050505050565b606082471015611c225760405162461bcd60e51b815260206004820152602660248201527f416464726573733a20696e73756666696369656e742062616c616e636520666f6044820152651c8818d85b1b60d21b6064820152608401610811565b600080866001600160a01b03168587604051611c3e9190612874565b60006040518083038185875af1925050503d8060008114611c7b576040519150601f19603f3d011682016040523d82523d6000602084013e611c80565b606091505b5091509150611c9187838387611c9c565b979650505050505050565b60608315611d0b578251600003611d04576001600160a01b0385163b611d045760405162461bcd60e51b815260206004820152601d60248201527f416464726573733a2063616c6c20746f206e6f6e2d636f6e74726163740000006044820152606401610811565b5081610d4d565b610d4d8383815115611d205781518083602001fd5b8060405162461bcd60e51b81526004016108119190611dbd565b6001600160e01b03198116811461121d57600080fd5b600060208284031215611d6257600080fd5b813561106081611d3a565b60005b83811015611d88578181015183820152602001611d70565b50506000910152565b60008151808452611da9816020860160208601611d6d565b601f01601f19169290920160200192915050565b6020815260006110606020830184611d91565b600060208284031215611de257600080fd5b5035919050565b6001600160a01b038116811461121d57600080fd5b8035611e0981611de9565b919050565b60008060408385031215611e2157600080fd5b8235611e2c81611de9565b946020939093013593505050565b801515811461121d57600080fd5b60008060408385031215611e5b57600080fd5b8235611e6681611de9565b91506020830135611e7681611e3a565b809150509250929050565b600080600060608486031215611e9657600080fd5b8335611ea181611de9565b92506020840135611eb181611de9565b929592945050506040919091013590565b60008083601f840112611ed457600080fd5b50813567ffffffffffffffff811115611eec57600080fd5b602083019150836020828501011115611f0457600080fd5b9250929050565b600080600080600060808688031215611f2357600080fd5b85359450602086013593506040860135611f3c81611de9565b9250606086013567ffffffffffffffff811115611f5857600080fd5b611f6488828901611ec2565b969995985093965092949392505050565b600080600060608486031215611f8a57600080fd5b8335611f9581611de9565b92506020840135611fa581611e3a565b91506040840135611fb581611e3a565b809150509250925092565b600060208284031215611fd257600080fd5b813561106081611de9565b600080600080848603610120811215611ff557600080fd5b60e081121561200357600080fd5b5084935060e085013567ffffffffffffffff81111561202157600080fd5b61202d87828801611ec2565b90945092505061010085013561204281611de9565b939692955090935050565b634e487b7160e01b600052604160045260246000fd5b604051601f8201601f1916810167ffffffffffffffff8111828210171561208c5761208c61204d565b604052919050565b600067ffffffffffffffff8211156120ae576120ae61204d565b50601f01601f191660200190565b600080600080608085870312156120d257600080fd5b84356120dd81611de9565b935060208501356120ed81611de9565b925060408501359150606085013567ffffffffffffffff81111561211057600080fd5b8501601f8101871361212157600080fd5b803561213461212f82612094565b612063565b81815288602083850101111561214957600080fd5b8160208401602083013760006020838301015280935050505092959194509250565b6000806000806060858703121561218157600080fd5b8435935060208501359250604085013567ffffffffffffffff8111156121a657600080fd5b6121b287828801611ec2565b95989497509550505050565b600080604083850312156121d157600080fd5b82356121dc81611de9565b91506020830135611e7681611de9565b60018060a01b0380825116835260208201516020840152604082015160408401528060608301511660608401528060808301511660808401528060a08301511660a08401525060c081015160c08301525050565b60e0810161065c82846121ec565b600181811c9082168061226257607f821691505b60208210810361228257634e487b7160e01b600052602260045260246000fd5b50919050565b6001600160a01b038581168252841660208201526040810183905260006101606122b560608401856121ec565b61014083018190526000908301525061018001949350505050565b6000602082840312156122e257600080fd5b815161106081611e3a565b6020808252600e908201526d1353d11553114e8811905253115160921b604082015260600190565b80546001600160a01b039081168352600182015460208401526002820154604084015260038201548116606084015260048201548116608084015260058201541660a08301526006015460c090910152565b81835281816020850137506000828201602090810191909152601f909101601f19169091010190565b6001600160a01b03888116825287166020820152604081018690526060810185905260006101806123c46080840187612315565b806101608401526123d88184018587612367565b9a9950505050505050505050565b8183823760009101908152919050565b6001600160a01b03878116825286811660208301526040820186905260009061016090863561242481611de9565b81811660608601525060208701356080850152604087013560a0850152606087013561244f81611de9565b811660c0850152608087013561246481611de9565b1660e084015261247660a08701611dfe565b6001600160a01b031661010084015260c086013561012084015261014083018190526124a58184018587612367565b9998505050505050505050565b80546001600160a01b0319166001600160a01b0392909216919091179055565b81356124dd81611de9565b6124e781836124b2565b506020820135600182015560408201356002820155606082013561250a81611de9565b61251781600384016124b2565b50608082013561252681611de9565b61253381600484016124b2565b5060a082013561254281611de9565b61254f81600584016124b2565b5060c082013560068201555050565b6000823561256b81611de9565b6001600160a01b039081168352602084810135908401526040808501359084015260608401359061259b82611de9565b90811660608401526080840135906125b282611de9565b908116608084015260a0840135906125c982611de9565b1660a08301525060c0918201359181019190915260e00190565b6040815260006125f7604083018587612367565b9050826020830152949350505050565b6001600160a01b03878116825286811660208301528516604082015260608101849052600061018061263c6080840186612315565b806101608401526124a581840185611d91565b634e487b7160e01b600052601160045260246000fd5b600081600019048311821515161561267f5761267f61264f565b500290565b6000826126a157634e487b7160e01b600052601260045260246000fd5b500490565b8181038181111561065c5761065c61264f565b6000602082840312156126cb57600080fd5b815167ffffffffffffffff8111156126e257600080fd5b8201601f810184136126f357600080fd5b805161270161212f82612094565b81815285602083850101111561271657600080fd5b612727826020830160208601611d6d565b95945050505050565b6001600160a01b03871681526020810186905260408101859052600061016061275c6060840187612315565b806101408401526124a58184018587612367565b8082018082111561065c5761065c61264f565b60208082526032908201527f4552433732313a207472616e7366657220746f206e6f6e20455243373231526560408201527131b2b4bb32b91034b6b83632b6b2b73a32b960711b606082015260800190565b60208082526025908201527f4552433732313a207472616e736665722066726f6d20696e636f72726563742060408201526437bbb732b960d91b606082015260800190565b6001600160a01b038581168252841660208201526040810183905260806060820181905260009061284d90830184611d91565b9695505050505050565b60006020828403121561286957600080fd5b815161106081611d3a565b60008251612886818460208701611d6d565b919091019291505056fea264697066735822122041e25215fe29f5064ce21f24f4895c7764a8d83a5767850c629e73d01641a8cf64736f6c63430008100033",
    "linkReferences": {
      "src/contracts/libraries/CheqBase64Encoding.sol": {
        "CheqBase64Encoding": [
          {
            "start": 4716,
            "length": 20
          }
        ]
      }
    }
  },
  "methodIdentifiers": {
    "approve(address,uint256)": "095ea7b3",
    "balanceOf(address)": "70a08231",
    "cash(uint256,uint256,address,bytes)": "4e289c06",
    "cheqAmount(uint256)": "98e05fcf",
    "cheqCurrency(uint256)": "fdd90c70",
    "cheqDrawer(uint256)": "32c1efbb",
    "cheqEscrowed(uint256)": "c298c4d2",
    "cheqInfo(uint256)": "f7794942",
    "cheqModule(uint256)": "e0e295b7",
    "cheqRecipient(uint256)": "789a0496",
    "fund(uint256,uint256,bytes)": "d2e13f50",
    "getApproved(uint256)": "081812fc",
    "isApprovedForAll(address,address)": "e985e9c5",
    "name()": "06fdde03",
    "owner()": "8da5cb5b",
    "ownerOf(uint256)": "6352211e",
    "renounceOwnership()": "715018a6",
    "safeTransferFrom(address,address,uint256)": "42842e0e",
    "safeTransferFrom(address,address,uint256,bytes)": "b88d4fde",
    "setApprovalForAll(address,bool)": "a22cb465",
    "supportsInterface(bytes4)": "01ffc9a7",
    "symbol()": "95d89b41",
    "tokenURI(uint256)": "c87b56dd",
    "totalSupply()": "18160ddd",
    "transferFee()": "acb2ad6f",
    "transferFrom(address,address,uint256)": "23b872dd",
    "transferOwnership(address)": "f2fde38b",
    "whitelistModule(address,bool,bool)": "53aafb69",
    "whitelistToken(address,bool)": "0ffb1d8b",
    "write((address,uint256,uint256,address,address,address,uint256),bytes,address)": "a05aeffc"
  },
  "id": 40
}