{
  "abi": [
    {
      "inputs": [
        {
          "internalType": "address",
          "name": "registrar",
          "type": "address"
        },
        {
          "internalType": "address",
          "name": "_writeRule",
          "type": "address"
        },
        {
          "internalType": "address",
          "name": "_transferRule",
          "type": "address"
        },
        {
          "internalType": "address",
          "name": "_fundRule",
          "type": "address"
        },
        {
          "internalType": "address",
          "name": "_cashRule",
          "type": "address"
        },
        {
          "internalType": "string",
          "name": "__baseURI",
          "type": "string"
        }
      ],
      "stateMutability": "nonpayable",
      "type": "constructor"
    },
    {
      "inputs": [],
      "name": "InitParamsInvalid",
      "type": "error"
    },
    {
      "inputs": [],
      "name": "NotRegistrar",
      "type": "error"
    },
    {
      "anonymous": false,
      "inputs": [
        {
          "indexed": true,
          "internalType": "address",
          "name": "owner",
          "type": "address"
        },
        {
          "indexed": true,
          "internalType": "address",
          "name": "approved",
          "type": "address"
        },
        {
          "indexed": true,
          "internalType": "uint256",
          "name": "tokenId",
          "type": "uint256"
        }
      ],
      "name": "Approval",
      "type": "event"
    },
    {
      "anonymous": false,
      "inputs": [
        {
          "indexed": true,
          "internalType": "address",
          "name": "owner",
          "type": "address"
        },
        {
          "indexed": true,
          "internalType": "address",
          "name": "operator",
          "type": "address"
        },
        {
          "indexed": false,
          "internalType": "bool",
          "name": "approved",
          "type": "bool"
        }
      ],
      "name": "ApprovalForAll",
      "type": "event"
    },
    {
      "anonymous": false,
      "inputs": [
        {
          "indexed": true,
          "internalType": "address",
          "name": "previousOwner",
          "type": "address"
        },
        {
          "indexed": true,
          "internalType": "address",
          "name": "newOwner",
          "type": "address"
        }
      ],
      "name": "OwnershipTransferred",
      "type": "event"
    },
    {
      "anonymous": false,
      "inputs": [
        {
          "indexed": true,
          "internalType": "address",
          "name": "from",
          "type": "address"
        },
        {
          "indexed": true,
          "internalType": "address",
          "name": "to",
          "type": "address"
        },
        {
          "indexed": true,
          "internalType": "uint256",
          "name": "tokenId",
          "type": "uint256"
        }
      ],
      "name": "Transfer",
      "type": "event"
    },
    {
      "inputs": [],
      "name": "REGISTRAR",
      "outputs": [
        {
          "internalType": "address",
          "name": "",
          "type": "address"
        }
      ],
      "stateMutability": "view",
      "type": "function"
    },
    {
      "inputs": [
        {
          "internalType": "address",
          "name": "to",
          "type": "address"
        },
        {
          "internalType": "uint256",
          "name": "tokenId",
          "type": "uint256"
        }
      ],
      "name": "approve",
      "outputs": [],
      "stateMutability": "nonpayable",
      "type": "function"
    },
    {
      "inputs": [
        {
          "internalType": "address",
          "name": "owner",
          "type": "address"
        }
      ],
      "name": "balanceOf",
      "outputs": [
        {
          "internalType": "uint256",
          "name": "",
          "type": "uint256"
        }
      ],
      "stateMutability": "view",
      "type": "function"
    },
    {
      "inputs": [],
      "name": "cashRule",
      "outputs": [
        {
          "internalType": "address",
          "name": "",
          "type": "address"
        }
      ],
      "stateMutability": "view",
      "type": "function"
    },
    {
      "inputs": [
        {
          "internalType": "uint256",
          "name": "cheqId",
          "type": "uint256"
        },
        {
          "internalType": "enum Marketplace.Status",
          "name": "status",
          "type": "uint8"
        }
      ],
      "name": "earlyRelease",
      "outputs": [],
      "stateMutability": "nonpayable",
      "type": "function"
    },
    {
      "inputs": [],
      "name": "fundRule",
      "outputs": [
        {
          "internalType": "address",
          "name": "",
          "type": "address"
        }
      ],
      "stateMutability": "view",
      "type": "function"
    },
    {
      "inputs": [
        {
          "internalType": "uint256",
          "name": "tokenId",
          "type": "uint256"
        }
      ],
      "name": "getApproved",
      "outputs": [
        {
          "internalType": "address",
          "name": "",
          "type": "address"
        }
      ],
      "stateMutability": "view",
      "type": "function"
    },
    {
      "inputs": [
        {
          "internalType": "uint256",
          "name": "",
          "type": "uint256"
        }
      ],
      "name": "invoices",
      "outputs": [
        {
          "internalType": "uint256",
          "name": "startTime",
          "type": "uint256"
        },
        {
          "internalType": "enum Marketplace.Status",
          "name": "workerStatus",
          "type": "uint8"
        },
        {
          "internalType": "enum Marketplace.Status",
          "name": "clientStatus",
          "type": "uint8"
        }
      ],
      "stateMutability": "view",
      "type": "function"
    },
    {
      "inputs": [
        {
          "internalType": "address",
          "name": "owner",
          "type": "address"
        },
        {
          "internalType": "address",
          "name": "operator",
          "type": "address"
        }
      ],
      "name": "isApprovedForAll",
      "outputs": [
        {
          "internalType": "bool",
          "name": "",
          "type": "bool"
        }
      ],
      "stateMutability": "view",
      "type": "function"
    },
    {
      "inputs": [],
      "name": "name",
      "outputs": [
        {
          "internalType": "string",
          "name": "",
          "type": "string"
        }
      ],
      "stateMutability": "view",
      "type": "function"
    },
    {
      "inputs": [],
      "name": "owner",
      "outputs": [
        {
          "internalType": "address",
          "name": "",
          "type": "address"
        }
      ],
      "stateMutability": "view",
      "type": "function"
    },
    {
      "inputs": [
        {
          "internalType": "uint256",
          "name": "tokenId",
          "type": "uint256"
        }
      ],
      "name": "ownerOf",
      "outputs": [
        {
          "internalType": "address",
          "name": "",
          "type": "address"
        }
      ],
      "stateMutability": "view",
      "type": "function"
    },
    {
      "inputs": [
        {
          "internalType": "address",
          "name": "caller",
          "type": "address"
        },
        {
          "internalType": "address",
          "name": "to",
          "type": "address"
        },
        {
          "internalType": "uint256",
          "name": "cheqId",
          "type": "uint256"
        },
        {
          "components": [
            {
              "internalType": "contract IERC20",
              "name": "currency",
              "type": "address"
            },
            {
              "internalType": "uint256",
              "name": "amount",
              "type": "uint256"
            },
            {
              "internalType": "uint256",
              "name": "escrowed",
              "type": "uint256"
            },
            {
              "internalType": "address",
              "name": "drawer",
              "type": "address"
            },
            {
              "internalType": "address",
              "name": "recipient",
              "type": "address"
            },
            {
              "internalType": "address",
              "name": "module",
              "type": "address"
            },
            {
              "internalType": "uint256",
              "name": "timeCreated",
              "type": "uint256"
            }
          ],
          "internalType": "struct DataTypes.Cheq",
          "name": "cheq",
          "type": "tuple"
        },
        {
          "internalType": "bytes",
          "name": "initData",
          "type": "bytes"
        }
      ],
      "name": "processApproval",
      "outputs": [
        {
          "internalType": "bool",
          "name": "",
          "type": "bool"
        }
      ],
      "stateMutability": "nonpayable",
      "type": "function"
    },
    {
      "inputs": [
        {
          "internalType": "address",
          "name": "caller",
          "type": "address"
        },
        {
          "internalType": "address",
          "name": "to",
          "type": "address"
        },
        {
          "internalType": "uint256",
          "name": "amount",
          "type": "uint256"
        },
        {
          "internalType": "uint256",
          "name": "cheqId",
          "type": "uint256"
        },
        {
          "components": [
            {
              "internalType": "contract IERC20",
              "name": "currency",
              "type": "address"
            },
            {
              "internalType": "uint256",
              "name": "amount",
              "type": "uint256"
            },
            {
              "internalType": "uint256",
              "name": "escrowed",
              "type": "uint256"
            },
            {
              "internalType": "address",
              "name": "drawer",
              "type": "address"
            },
            {
              "internalType": "address",
              "name": "recipient",
              "type": "address"
            },
            {
              "internalType": "address",
              "name": "module",
              "type": "address"
            },
            {
              "internalType": "uint256",
              "name": "timeCreated",
              "type": "uint256"
            }
          ],
          "internalType": "struct DataTypes.Cheq",
          "name": "cheq",
          "type": "tuple"
        },
        {
          "internalType": "bytes",
          "name": "initData",
          "type": "bytes"
        }
      ],
      "name": "processCash",
      "outputs": [
        {
          "internalType": "bool",
          "name": "",
          "type": "bool"
        }
      ],
      "stateMutability": "nonpayable",
      "type": "function"
    },
    {
      "inputs": [
        {
          "internalType": "address",
          "name": "caller",
          "type": "address"
        },
        {
          "internalType": "uint256",
          "name": "amount",
          "type": "uint256"
        },
        {
          "internalType": "uint256",
          "name": "cheqId",
          "type": "uint256"
        },
        {
          "components": [
            {
              "internalType": "contract IERC20",
              "name": "currency",
              "type": "address"
            },
            {
              "internalType": "uint256",
              "name": "amount",
              "type": "uint256"
            },
            {
              "internalType": "uint256",
              "name": "escrowed",
              "type": "uint256"
            },
            {
              "internalType": "address",
              "name": "drawer",
              "type": "address"
            },
            {
              "internalType": "address",
              "name": "recipient",
              "type": "address"
            },
            {
              "internalType": "address",
              "name": "module",
              "type": "address"
            },
            {
              "internalType": "uint256",
              "name": "timeCreated",
              "type": "uint256"
            }
          ],
          "internalType": "struct DataTypes.Cheq",
          "name": "cheq",
          "type": "tuple"
        },
        {
          "internalType": "bytes",
          "name": "initData",
          "type": "bytes"
        }
      ],
      "name": "processFund",
      "outputs": [
        {
          "internalType": "bool",
          "name": "",
          "type": "bool"
        }
      ],
      "stateMutability": "nonpayable",
      "type": "function"
    },
    {
      "inputs": [
        {
          "internalType": "address",
          "name": "caller",
          "type": "address"
        },
        {
          "internalType": "address",
          "name": "from",
          "type": "address"
        },
        {
          "internalType": "address",
          "name": "to",
          "type": "address"
        },
        {
          "internalType": "uint256",
          "name": "cheqId",
          "type": "uint256"
        },
        {
          "components": [
            {
              "internalType": "contract IERC20",
              "name": "currency",
              "type": "address"
            },
            {
              "internalType": "uint256",
              "name": "amount",
              "type": "uint256"
            },
            {
              "internalType": "uint256",
              "name": "escrowed",
              "type": "uint256"
            },
            {
              "internalType": "address",
              "name": "drawer",
              "type": "address"
            },
            {
              "internalType": "address",
              "name": "recipient",
              "type": "address"
            },
            {
              "internalType": "address",
              "name": "module",
              "type": "address"
            },
            {
              "internalType": "uint256",
              "name": "timeCreated",
              "type": "uint256"
            }
          ],
          "internalType": "struct DataTypes.Cheq",
          "name": "cheq",
          "type": "tuple"
        },
        {
          "internalType": "bytes",
          "name": "initData",
          "type": "bytes"
        }
      ],
      "name": "processTransfer",
      "outputs": [
        {
          "internalType": "bool",
          "name": "",
          "type": "bool"
        }
      ],
      "stateMutability": "nonpayable",
      "type": "function"
    },
    {
      "inputs": [
        {
          "internalType": "address",
          "name": "caller",
          "type": "address"
        },
        {
          "internalType": "address",
          "name": "owner",
          "type": "address"
        },
        {
          "internalType": "uint256",
          "name": "cheqId",
          "type": "uint256"
        },
        {
          "components": [
            {
              "internalType": "contract IERC20",
              "name": "currency",
              "type": "address"
            },
            {
              "internalType": "uint256",
              "name": "amount",
              "type": "uint256"
            },
            {
              "internalType": "uint256",
              "name": "escrowed",
              "type": "uint256"
            },
            {
              "internalType": "address",
              "name": "drawer",
              "type": "address"
            },
            {
              "internalType": "address",
              "name": "recipient",
              "type": "address"
            },
            {
              "internalType": "address",
              "name": "module",
              "type": "address"
            },
            {
              "internalType": "uint256",
              "name": "timeCreated",
              "type": "uint256"
            }
          ],
          "internalType": "struct DataTypes.Cheq",
          "name": "cheq",
          "type": "tuple"
        },
        {
          "internalType": "bytes",
          "name": "initData",
          "type": "bytes"
        }
      ],
      "name": "processWrite",
      "outputs": [
        {
          "internalType": "bool",
          "name": "",
          "type": "bool"
        }
      ],
      "stateMutability": "nonpayable",
      "type": "function"
    },
    {
      "inputs": [],
      "name": "renounceOwnership",
      "outputs": [],
      "stateMutability": "nonpayable",
      "type": "function"
    },
    {
      "inputs": [
        {
          "internalType": "address",
          "name": "from",
          "type": "address"
        },
        {
          "internalType": "address",
          "name": "to",
          "type": "address"
        },
        {
          "internalType": "uint256",
          "name": "tokenId",
          "type": "uint256"
        }
      ],
      "name": "safeTransferFrom",
      "outputs": [],
      "stateMutability": "nonpayable",
      "type": "function"
    },
    {
      "inputs": [
        {
          "internalType": "address",
          "name": "from",
          "type": "address"
        },
        {
          "internalType": "address",
          "name": "to",
          "type": "address"
        },
        {
          "internalType": "uint256",
          "name": "tokenId",
          "type": "uint256"
        },
        {
          "internalType": "bytes",
          "name": "data",
          "type": "bytes"
        }
      ],
      "name": "safeTransferFrom",
      "outputs": [],
      "stateMutability": "nonpayable",
      "type": "function"
    },
    {
      "inputs": [
        {
          "internalType": "address",
          "name": "operator",
          "type": "address"
        },
        {
          "internalType": "bool",
          "name": "approved",
          "type": "bool"
        }
      ],
      "name": "setApprovalForAll",
      "outputs": [],
      "stateMutability": "nonpayable",
      "type": "function"
    },
    {
      "inputs": [
        {
          "internalType": "string",
          "name": "_baseURI",
          "type": "string"
        }
      ],
      "name": "setBaseURI",
      "outputs": [],
      "stateMutability": "nonpayable",
      "type": "function"
    },
    {
      "inputs": [
        {
          "internalType": "bytes4",
          "name": "interfaceId",
          "type": "bytes4"
        }
      ],
      "name": "supportsInterface",
      "outputs": [
        {
          "internalType": "bool",
          "name": "",
          "type": "bool"
        }
      ],
      "stateMutability": "view",
      "type": "function"
    },
    {
      "inputs": [],
      "name": "symbol",
      "outputs": [
        {
          "internalType": "string",
          "name": "",
          "type": "string"
        }
      ],
      "stateMutability": "view",
      "type": "function"
    },
    {
      "inputs": [
        {
          "internalType": "uint256",
          "name": "tokenId",
          "type": "uint256"
        }
      ],
      "name": "tokenURI",
      "outputs": [
        {
          "internalType": "string",
          "name": "",
          "type": "string"
        }
      ],
      "stateMutability": "view",
      "type": "function"
    },
    {
      "inputs": [
        {
          "internalType": "contract IERC20",
          "name": "",
          "type": "address"
        }
      ],
      "name": "tokenWhitelist",
      "outputs": [
        {
          "internalType": "bool",
          "name": "",
          "type": "bool"
        }
      ],
      "stateMutability": "view",
      "type": "function"
    },
    {
      "inputs": [
        {
          "internalType": "address",
          "name": "from",
          "type": "address"
        },
        {
          "internalType": "address",
          "name": "to",
          "type": "address"
        },
        {
          "internalType": "uint256",
          "name": "tokenId",
          "type": "uint256"
        }
      ],
      "name": "transferFrom",
      "outputs": [],
      "stateMutability": "nonpayable",
      "type": "function"
    },
    {
      "inputs": [
        {
          "internalType": "address",
          "name": "newOwner",
          "type": "address"
        }
      ],
      "name": "transferOwnership",
      "outputs": [],
      "stateMutability": "nonpayable",
      "type": "function"
    },
    {
      "inputs": [],
      "name": "transferRule",
      "outputs": [
        {
          "internalType": "address",
          "name": "",
          "type": "address"
        }
      ],
      "stateMutability": "view",
      "type": "function"
    },
    {
      "inputs": [
        {
          "internalType": "contract IERC20",
          "name": "token",
          "type": "address"
        },
        {
          "internalType": "bool",
          "name": "whitelist",
          "type": "bool"
        }
      ],
      "name": "whitelistToken",
      "outputs": [],
      "stateMutability": "nonpayable",
      "type": "function"
    },
    {
      "inputs": [],
      "name": "writeRule",
      "outputs": [
        {
          "internalType": "address",
          "name": "",
          "type": "address"
        }
      ],
      "stateMutability": "view",
      "type": "function"
    }
  ],
  "bytecode": {
    "object": "0x60a06040523480156200001157600080fd5b50604051620028b7380380620028b78339810160408190526200003491620001f6565b604080518082018252600481526314d4d51360e21b6020808301919091528251808401909352601083526f53656c665369676e54696d654c6f636b60801b9083015290876001600160a01b038116620000a0576040516348be0eb360e01b815260040160405180910390fd5b6001600160a01b03811660808190526040514281527ff1a1fa6b64aa95186f5a1285e76198d0da80d9c5a88062641d447f1d7c54e56c9060200160405180910390a250620000ee3362000173565b6001620000fc8382620003b6565b5060026200010b8282620003b6565b5050600980546001600160a01b038089166001600160a01b031992831617909255600a8054888416908316179055600b8054878416908316179055600c80549286169290911691909117905550600d620001668282620003b6565b5050505050505062000482565b600080546001600160a01b038381166001600160a01b0319831681178455604051919092169283917f8be0079c531659141344cd1fd0a4f28419497f9722a3daafe3b4186f6b6457e09190a35050565b80516001600160a01b0381168114620001db57600080fd5b919050565b634e487b7160e01b600052604160045260246000fd5b60008060008060008060c087890312156200021057600080fd5b6200021b87620001c3565b955060206200022c818901620001c3565b95506200023c60408901620001c3565b94506200024c60608901620001c3565b93506200025c60808901620001c3565b60a08901519093506001600160401b03808211156200027a57600080fd5b818a0191508a601f8301126200028f57600080fd5b815181811115620002a457620002a4620001e0565b604051601f8201601f19908116603f01168101908382118183101715620002cf57620002cf620001e0565b816040528281528d86848701011115620002e857600080fd5b600093505b828410156200030c5784840186015181850187015292850192620002ed565b60008684830101528096505050505050509295509295509295565b600181811c908216806200033c57607f821691505b6020821081036200035d57634e487b7160e01b600052602260045260246000fd5b50919050565b601f821115620003b157600081815260208120601f850160051c810160208610156200038c5750805b601f850160051c820191505b81811015620003ad5782815560010162000398565b5050505b505050565b81516001600160401b03811115620003d257620003d2620001e0565b620003ea81620003e3845462000327565b8462000363565b602080601f831160018114620004225760008415620004095750858301515b600019600386901b1c1916600185901b178555620003ad565b600085815260208120601f198616915b82811015620004535788860151825594840194600190910190840162000432565b5085821015620004725787850151600019600388901b60f8161c191681555b5050505050600190811b01905550565b6080516123ef620004c8600039600081816104100152818161077d0152818161096801528181610cf101528181610db101528181610e130152610ee401526123ef6000f3fe608060405234801561001057600080fd5b50600436106101e55760003560e01c80638da5cb5b1161010f578063cb609077116100a2578063e6d19a9911610071578063e6d19a991461046b578063e985e9c51461047e578063f2fde38b14610491578063f3ea001e146104a457600080fd5b8063cb6090771461040b578063cd2c6b0614610432578063d4c301da14610445578063df1cdb461461045857600080fd5b8063b87281fd116100de578063b87281fd146103bf578063b88d4fde146103d2578063c7b97523146103e5578063c87b56dd146103f857600080fd5b80638da5cb5b1461037a57806395adeb501461038b57806395d89b41146103a4578063a22cb465146103ac57600080fd5b806342842e0e116101875780636352211e116101565780636352211e1461031b57806370a082311461032e578063715018a61461034f578063753d75631461035757600080fd5b806342842e0e146102a05780634e6d1405146102b357806355f804b3146102f557806360bf85d51461030857600080fd5b8063095ea7b3116101c3578063095ea7b3146102525780630d02cde7146102675780630ffb1d8b1461027a57806323b872dd1461028d57600080fd5b806301ffc9a7146101ea57806306fdde0314610212578063081812fc14610227575b600080fd5b6101fd6101f836600461179d565b6104b7565b60405190151581526020015b60405180910390f35b61021a610509565b604051610209919061180a565b61023a61023536600461181d565b61059b565b6040516001600160a01b039091168152602001610209565b61026561026036600461185b565b6105c2565b005b600a5461023a906001600160a01b031681565b610265610288366004611895565b6106dc565b61026561029b3660046118ce565b61070f565b6102656102ae3660046118ce565b610740565b6102e66102c136600461181d565b6007602052600090815260409020805460019091015460ff8082169161010090041683565b60405161020993929190611947565b6102656103033660046119b0565b61075b565b6101fd610316366004611ae6565b610770565b61023a61032936600461181d565b610843565b61034161033c366004611b76565b6108a3565b604051908152602001610209565b610265610929565b6101fd610365366004611b76565b60086020526000908152604090205460ff1681565b6000546001600160a01b031661023a565b6101fd610399366004611b93565b600195945050505050565b61021a61093d565b6102656103ba366004611895565b61094c565b6101fd6103cd366004611c12565b61095b565b6102656103e0366004611c97565b610cac565b6101fd6103f3366004611d02565b610ce4565b61021a61040636600461181d565b610d3c565b61023a7f000000000000000000000000000000000000000000000000000000000000000081565b6101fd610440366004611d44565b610da4565b600b5461023a906001600160a01b031681565b60095461023a906001600160a01b031681565b610265610479366004611de2565b610dfd565b6101fd61048c366004611e0e565b610f96565b61026561049f366004611b76565b610fc4565b600c5461023a906001600160a01b031681565b60006001600160e01b031982166380ac58cd60e01b14806104e857506001600160e01b03198216635b5e139f60e01b145b8061050357506301ffc9a760e01b6001600160e01b03198316145b92915050565b60606001805461051890611e3c565b80601f016020809104026020016040519081016040528092919081815260200182805461054490611e3c565b80156105915780601f1061056657610100808354040283529160200191610591565b820191906000526020600020905b81548152906001019060200180831161057457829003601f168201915b5050505050905090565b60006105a68261103d565b506000908152600560205260409020546001600160a01b031690565b60006105cd82610843565b9050806001600160a01b0316836001600160a01b03160361063f5760405162461bcd60e51b815260206004820152602160248201527f4552433732313a20617070726f76616c20746f2063757272656e74206f776e656044820152603960f91b60648201526084015b60405180910390fd5b336001600160a01b038216148061065b575061065b8133610f96565b6106cd5760405162461bcd60e51b815260206004820152603d60248201527f4552433732313a20617070726f76652063616c6c6572206973206e6f7420746f60448201527f6b656e206f776e6572206f7220617070726f76656420666f7220616c6c0000006064820152608401610636565b6106d7838361109c565b505050565b6106e461110a565b6001600160a01b03919091166000908152600860205260409020805460ff1916911515919091179055565b6107193382611164565b6107355760405162461bcd60e51b815260040161063690611e70565b6106d78383836111c3565b6106d783838360405180602001604052806000815250610cac565b61076361110a565b600d6106d7828483611f0b565b6000336001600160a01b037f000000000000000000000000000000000000000000000000000000000000000016146107bb57604051632ad9535160e01b815260040160405180910390fd5b600a546040516361c773a760e01b81526001600160a01b03909116906361c773a7906107f5908a908a908a908a908a908a90600401611fcb565b6020604051808303816000875af1158015610814573d6000803e3d6000fd5b505050506040513d601f19601f82011682018060405250810190610838919061208d565b979650505050505050565b6000818152600360205260408120546001600160a01b0316806105035760405162461bcd60e51b8152602060048201526018602482015277115490cdcc8c4e881a5b9d985b1a59081d1bdad95b88125160421b6044820152606401610636565b60006001600160a01b03821661090d5760405162461bcd60e51b815260206004820152602960248201527f4552433732313a2061646472657373207a65726f206973206e6f7420612076616044820152683634b21037bbb732b960b91b6064820152608401610636565b506001600160a01b031660009081526004602052604090205490565b61093161110a565b61093b6000611334565b565b60606002805461051890611e3c565b610957338383611384565b5050565b6000336001600160a01b037f000000000000000000000000000000000000000000000000000000000000000016146109a657604051632ad9535160e01b815260040160405180910390fd5b6001600160a01b0387166109c06080860160608701611b76565b6001600160a01b031614610a0d5760405162461bcd60e51b815260206004820152601460248201527321b0b713ba1039b2b7321037b7103132b430b63360611b6044820152606401610636565b6001600160a01b038616610a2760a0860160808701611b76565b6001600160a01b031603610a6f5760405162461bcd60e51b815260206004820152600f60248201526e10d85b89dd081cd95b19881cd95b99608a1b6044820152606401610636565b6000846020013511610ac35760405162461bcd60e51b815260206004820152601c60248201527f43616e27742073656e642063686571207769746820302076616c7565000000006044820152606401610636565b60086000610ad46020870187611b76565b6001600160a01b0316815260208101919091526040016000205460ff16610b355760405162461bcd60e51b8152602060048201526015602482015274151bdad95b881b9bdd081dda1a5d195b1a5cdd1959605a1b6044820152606401610636565b6000808080610b46868801886120aa565b93509350935093506000815111610b8f5760405162461bcd60e51b815260206004820152600d60248201526c4e6f206d696c6573746f6e657360981b6044820152606401610636565b600089815260076020526040902084815560019081018054859260ff1990911690836004811115610bc257610bc261190f565b02179055506000898152600760205260409020600101805483919061ff001916610100836004811115610bf757610bf761190f565b021790555060005b8151811015610c9a57600760008b8152602001908152602001600020600201828281518110610c3057610c306121b9565b60209081029190910181015182546001818101855560009485529383902082516002909202019081559181015191909201805460409093015115156101000261ff00199215159290921661ffff199093169290921717905580610c92816121e5565b915050610bff565b5060019b9a5050505050505050505050565b610cb63383611164565b610cd25760405162461bcd60e51b815260040161063690611e70565b610cde84848484611452565b50505050565b6000336001600160a01b037f00000000000000000000000000000000000000000000000000000000000000001614610d2f57604051632ad9535160e01b815260040160405180910390fd5b5060019695505050505050565b6060610d478261103d565b6000610d51611485565b90506000815111610d715760405180602001604052806000815250610d9d565b600d610d7c84611494565b604051602001610d8d9291906121fe565b6040516020818303038152906040525b9392505050565b6000336001600160a01b037f00000000000000000000000000000000000000000000000000000000000000001614610def57604051632ad9535160e01b815260040160405180910390fd5b506001979650505050505050565b6040516332c1efbb60e01b8152600481018390527f00000000000000000000000000000000000000000000000000000000000000006001600160a01b0316906332c1efbb90602401602060405180830381865afa158015610e62573d6000803e3d6000fd5b505050506040513d601f19601f82011682018060405250810190610e869190612285565b6001600160a01b03163303610ece57600082815260076020526040902060019081018054839260ff1990911690836004811115610ec557610ec561190f565b02179055505050565b604051633c4d024b60e11b8152600481018390527f00000000000000000000000000000000000000000000000000000000000000006001600160a01b03169063789a049690602401602060405180830381865afa158015610f33573d6000803e3d6000fd5b505050506040513d601f19601f82011682018060405250810190610f579190612285565b6001600160a01b03163303610957576000828152600760205260409020600101805482919061ff001916610100836004811115610ec557610ec561190f565b6001600160a01b03918216600090815260066020908152604080832093909416825291909152205460ff1690565b610fcc61110a565b6001600160a01b0381166110315760405162461bcd60e51b815260206004820152602660248201527f4f776e61626c653a206e6577206f776e657220697320746865207a65726f206160448201526564647265737360d01b6064820152608401610636565b61103a81611334565b50565b6000818152600360205260409020546001600160a01b031661103a5760405162461bcd60e51b8152602060048201526018602482015277115490cdcc8c4e881a5b9d985b1a59081d1bdad95b88125160421b6044820152606401610636565b600081815260056020526040902080546001600160a01b0319166001600160a01b03841690811790915581906110d182610843565b6001600160a01b03167f8c5be1e5ebec7d5bd14f71427d1e84f3dd0314c0f7b2291e5b200ac8c7c3b92560405160405180910390a45050565b6000546001600160a01b0316331461093b5760405162461bcd60e51b815260206004820181905260248201527f4f776e61626c653a2063616c6c6572206973206e6f7420746865206f776e65726044820152606401610636565b60008061117083610843565b9050806001600160a01b0316846001600160a01b0316148061119757506111978185610f96565b806111bb5750836001600160a01b03166111b08461059b565b6001600160a01b0316145b949350505050565b826001600160a01b03166111d682610843565b6001600160a01b0316146111fc5760405162461bcd60e51b8152600401610636906122a2565b6001600160a01b03821661125e5760405162461bcd60e51b8152602060048201526024808201527f4552433732313a207472616e7366657220746f20746865207a65726f206164646044820152637265737360e01b6064820152608401610636565b61126b8383836001611526565b826001600160a01b031661127e82610843565b6001600160a01b0316146112a45760405162461bcd60e51b8152600401610636906122a2565b600081815260056020908152604080832080546001600160a01b03199081169091556001600160a01b0387811680865260048552838620805460001901905590871680865283862080546001019055868652600390945282852080549092168417909155905184937fddf252ad1be2c89b69c2b068fc378daa952ba7f163c4a11628f55a4df523b3ef91a4505050565b600080546001600160a01b038381166001600160a01b0319831681178455604051919092169283917f8be0079c531659141344cd1fd0a4f28419497f9722a3daafe3b4186f6b6457e09190a35050565b816001600160a01b0316836001600160a01b0316036113e55760405162461bcd60e51b815260206004820152601960248201527f4552433732313a20617070726f766520746f2063616c6c6572000000000000006044820152606401610636565b6001600160a01b03838116600081815260066020908152604080832094871680845294825291829020805460ff191686151590811790915591519182527f17307eab39ab6107e8899845ad3d59bd9653f200f220920489ca2b5937696c31910160405180910390a3505050565b61145d8484846111c3565b611469848484846115ae565b610cde5760405162461bcd60e51b8152600401610636906122e7565b6060600d805461051890611e3c565b606060006114a1836116af565b60010190506000816001600160401b038111156114c0576114c0611a09565b6040519080825280601f01601f1916602001820160405280156114ea576020820181803683370190505b5090508181016020015b600019016f181899199a1a9b1b9c1cb0b131b232b360811b600a86061a8153600a85049450846114f457509392505050565b6001811115610cde576001600160a01b0384161561156c576001600160a01b03841660009081526004602052604081208054839290611566908490612339565b90915550505b6001600160a01b03831615610cde576001600160a01b038316600090815260046020526040812080548392906115a390849061234c565b909155505050505050565b60006001600160a01b0384163b156116a457604051630a85bd0160e11b81526001600160a01b0385169063150b7a02906115f290339089908890889060040161235f565b6020604051808303816000875af192505050801561162d575060408051601f3d908101601f1916820190925261162a9181019061239c565b60015b61168a573d80801561165b576040519150601f19603f3d011682016040523d82523d6000602084013e611660565b606091505b5080516000036116825760405162461bcd60e51b8152600401610636906122e7565b805181602001fd5b6001600160e01b031916630a85bd0160e11b1490506111bb565b506001949350505050565b60008072184f03e93ff9f4daa797ed6e38ed64bf6a1f0160401b83106116ee5772184f03e93ff9f4daa797ed6e38ed64bf6a1f0160401b830492506040015b6d04ee2d6d415b85acef8100000000831061171a576d04ee2d6d415b85acef8100000000830492506020015b662386f26fc10000831061173857662386f26fc10000830492506010015b6305f5e1008310611750576305f5e100830492506008015b612710831061176457612710830492506004015b60648310611776576064830492506002015b600a83106105035760010192915050565b6001600160e01b03198116811461103a57600080fd5b6000602082840312156117af57600080fd5b8135610d9d81611787565b60005b838110156117d55781810151838201526020016117bd565b50506000910152565b600081518084526117f68160208601602086016117ba565b601f01601f19169290920160200192915050565b602081526000610d9d60208301846117de565b60006020828403121561182f57600080fd5b5035919050565b6001600160a01b038116811461103a57600080fd5b803561185681611836565b919050565b6000806040838503121561186e57600080fd5b823561187981611836565b946020939093013593505050565b801515811461103a57600080fd5b600080604083850312156118a857600080fd5b82356118b381611836565b915060208301356118c381611887565b809150509250929050565b6000806000606084860312156118e357600080fd5b83356118ee81611836565b925060208401356118fe81611836565b929592945050506040919091013590565b634e487b7160e01b600052602160045260246000fd5b6005811061194357634e487b7160e01b600052602160045260246000fd5b9052565b8381526060810161195b6020830185611925565b6111bb6040830184611925565b60008083601f84011261197a57600080fd5b5081356001600160401b0381111561199157600080fd5b6020830191508360208285010111156119a957600080fd5b9250929050565b600080602083850312156119c357600080fd5b82356001600160401b038111156119d957600080fd5b6119e585828601611968565b90969095509350505050565b600060e08284031215611a0357600080fd5b50919050565b634e487b7160e01b600052604160045260246000fd5b604051606081016001600160401b0381118282101715611a4157611a41611a09565b60405290565b604051601f8201601f191681016001600160401b0381118282101715611a6f57611a6f611a09565b604052919050565b600082601f830112611a8857600080fd5b81356001600160401b03811115611aa157611aa1611a09565b611ab4601f8201601f1916602001611a47565b818152846020838601011115611ac957600080fd5b816020850160208301376000918101602001919091529392505050565b6000806000806000806101808789031215611b0057600080fd5b8635611b0b81611836565b95506020870135611b1b81611836565b94506040870135611b2b81611836565b935060608701359250611b4188608089016119f1565b91506101608701356001600160401b03811115611b5d57600080fd5b611b6989828a01611a77565b9150509295509295509295565b600060208284031215611b8857600080fd5b8135610d9d81611836565b60008060008060006101608688031215611bac57600080fd5b8535611bb781611836565b94506020860135611bc781611836565b935060408601359250611bdd87606088016119f1565b91506101408601356001600160401b03811115611bf957600080fd5b611c0588828901611a77565b9150509295509295909350565b6000806000806000806101608789031215611c2c57600080fd5b8635611c3781611836565b95506020870135611c4781611836565b945060408701359350611c5d88606089016119f1565b92506101408701356001600160401b03811115611c7957600080fd5b611c8589828a01611968565b979a9699509497509295939492505050565b60008060008060808587031215611cad57600080fd5b8435611cb881611836565b93506020850135611cc881611836565b92506040850135915060608501356001600160401b03811115611cea57600080fd5b611cf687828801611a77565b91505092959194509250565b6000806000806000806101608789031215611d1c57600080fd5b8635611d2781611836565b95506020870135945060408701359350611c5d88606089016119f1565b6000806000806000806000610180888a031215611d6057600080fd5b8735611d6b81611836565b96506020880135611d7b81611836565b95506040880135945060608801359350611d988960808a016119f1565b92506101608801356001600160401b03811115611db457600080fd5b611dc08a828b01611968565b989b979a50959850939692959293505050565b80356005811061185657600080fd5b60008060408385031215611df557600080fd5b82359150611e0560208401611dd3565b90509250929050565b60008060408385031215611e2157600080fd5b8235611e2c81611836565b915060208301356118c381611836565b600181811c90821680611e5057607f821691505b602082108103611a0357634e487b7160e01b600052602260045260246000fd5b6020808252602d908201527f4552433732313a2063616c6c6572206973206e6f7420746f6b656e206f776e6560408201526c1c881bdc88185c1c1c9bdd9959609a1b606082015260800190565b601f8211156106d757600081815260208120601f850160051c81016020861015611ee45750805b601f850160051c820191505b81811015611f0357828155600101611ef0565b505050505050565b6001600160401b03831115611f2257611f22611a09565b611f3683611f308354611e3c565b83611ebd565b6000601f841160018114611f6a5760008515611f525750838201355b600019600387901b1c1916600186901b178355611fc4565b600083815260209020601f19861690835b82811015611f9b5786850135825560209485019460019092019101611f7b565b5086821015611fb85760001960f88860031b161c19848701351681555b505060018560011b0183555b5050505050565b6001600160a01b038781168252868116602083015285811660408301526060820185905260009061018090853561200181611836565b81166080850152602086013560a0850152604086013560c0850152606086013561202a81611836565b811660e0850152608086013561203f81611836565b1661010084015261205260a0860161184b565b6001600160a01b031661012084015260c08501356101408401526101608301819052612080818401856117de565b9998505050505050505050565b60006020828403121561209f57600080fd5b8151610d9d81611887565b600080600080608085870312156120c057600080fd5b8435935060206120d1818701611dd3565b935060406120e0818801611dd3565b93506060808801356001600160401b03808211156120fd57600080fd5b818a0191508a601f83011261211157600080fd5b81358181111561212357612123611a09565b612131868260051b01611a47565b818152868101925090840283018601908c82111561214e57600080fd5b928601925b818410156121a85784848e03121561216b5760008081fd5b612173611a1f565b843581528785013561218481611887565b818901528487013561219581611887565b8188015283529284019291860191612153565b999c989b5096995050505050505050565b634e487b7160e01b600052603260045260246000fd5b634e487b7160e01b600052601160045260246000fd5b6000600182016121f7576121f76121cf565b5060010190565b600080845461220c81611e3c565b60018281168015612224576001811461223957612268565b60ff1984168752821515830287019450612268565b8860005260208060002060005b8581101561225f5781548a820152908401908201612246565b50505082870194505b50505050835161227c8183602088016117ba565b01949350505050565b60006020828403121561229757600080fd5b8151610d9d81611836565b60208082526025908201527f4552433732313a207472616e736665722066726f6d20696e636f72726563742060408201526437bbb732b960d91b606082015260800190565b60208082526032908201527f4552433732313a207472616e7366657220746f206e6f6e20455243373231526560408201527131b2b4bb32b91034b6b83632b6b2b73a32b960711b606082015260800190565b81810381811115610503576105036121cf565b80820180821115610503576105036121cf565b6001600160a01b0385811682528416602082015260408101839052608060608201819052600090612392908301846117de565b9695505050505050565b6000602082840312156123ae57600080fd5b8151610d9d8161178756fea26469706673582212206c1e9ead0759f3e07cc1166715bf4a53dc0a93359401c10a8ebd574286653c1364736f6c63430008100033",
    "linkReferences": {}
  },
  "methodIdentifiers": {
    "REGISTRAR()": "cb609077",
    "approve(address,uint256)": "095ea7b3",
    "balanceOf(address)": "70a08231",
    "cashRule()": "f3ea001e",
    "earlyRelease(uint256,uint8)": "e6d19a99",
    "fundRule()": "d4c301da",
    "getApproved(uint256)": "081812fc",
    "invoices(uint256)": "4e6d1405",
    "isApprovedForAll(address,address)": "e985e9c5",
    "name()": "06fdde03",
    "owner()": "8da5cb5b",
    "ownerOf(uint256)": "6352211e",
    "processApproval(address,address,uint256,(address,uint256,uint256,address,address,address,uint256),bytes)": "95adeb50",
    "processCash(address,address,uint256,uint256,(address,uint256,uint256,address,address,address,uint256),bytes)": "cd2c6b06",
    "processFund(address,uint256,uint256,(address,uint256,uint256,address,address,address,uint256),bytes)": "c7b97523",
    "processTransfer(address,address,address,uint256,(address,uint256,uint256,address,address,address,uint256),bytes)": "60bf85d5",
    "processWrite(address,address,uint256,(address,uint256,uint256,address,address,address,uint256),bytes)": "b87281fd",
    "renounceOwnership()": "715018a6",
    "safeTransferFrom(address,address,uint256)": "42842e0e",
    "safeTransferFrom(address,address,uint256,bytes)": "b88d4fde",
    "setApprovalForAll(address,bool)": "a22cb465",
    "setBaseURI(string)": "55f804b3",
    "supportsInterface(bytes4)": "01ffc9a7",
    "symbol()": "95d89b41",
    "tokenURI(uint256)": "c87b56dd",
    "tokenWhitelist(address)": "753d7563",
    "transferFrom(address,address,uint256)": "23b872dd",
    "transferOwnership(address)": "f2fde38b",
    "transferRule()": "0d02cde7",
    "whitelistToken(address,bool)": "0ffb1d8b",
    "writeRule()": "df1cdb46"
  },
  "id": 12
}