{
  "abi": [
    {
      "inputs": [
        {
          "internalType": "contract CheqRegistrar",
          "name": "_cheq",
          "type": "address"
        }
      ],
      "stateMutability": "nonpayable",
      "type": "constructor"
    },
    {
      "anonymous": false,
      "inputs": [
        {
          "indexed": true,
          "internalType": "address",
          "name": "previousOwner",
          "type": "address"
        },
        {
          "indexed": true,
          "internalType": "address",
          "name": "newOwner",
          "type": "address"
        }
      ],
      "name": "OwnershipTransferred",
      "type": "event"
    },
    {
      "inputs": [
        {
          "internalType": "address",
          "name": "to",
          "type": "address"
        },
        {
          "internalType": "uint256",
          "name": "cheqId",
          "type": "uint256"
        }
      ],
      "name": "approveCheq",
      "outputs": [],
      "stateMutability": "nonpayable",
      "type": "function"
    },
    {
      "inputs": [],
      "name": "baseURI",
      "outputs": [
        {
          "internalType": "string",
          "name": "",
          "type": "string"
        }
      ],
      "stateMutability": "view",
      "type": "function"
    },
    {
      "inputs": [
        {
          "internalType": "uint256",
          "name": "cheqId",
          "type": "uint256"
        }
      ],
      "name": "cashCheq",
      "outputs": [],
      "stateMutability": "nonpayable",
      "type": "function"
    },
    {
      "inputs": [
        {
          "internalType": "uint256",
          "name": "cheqId",
          "type": "uint256"
        },
        {
          "internalType": "uint256",
          "name": "amount",
          "type": "uint256"
        }
      ],
      "name": "cashCheq",
      "outputs": [],
      "stateMutability": "nonpayable",
      "type": "function"
    },
    {
      "inputs": [
        {
          "internalType": "uint256",
          "name": "cheqId",
          "type": "uint256"
        },
        {
          "internalType": "address",
          "name": "caller",
          "type": "address"
        },
        {
          "internalType": "uint256",
          "name": "",
          "type": "uint256"
        }
      ],
      "name": "cashable",
      "outputs": [
        {
          "internalType": "uint256",
          "name": "",
          "type": "uint256"
        }
      ],
      "stateMutability": "view",
      "type": "function"
    },
    {
      "inputs": [],
      "name": "cheq",
      "outputs": [
        {
          "internalType": "contract CheqRegistrar",
          "name": "",
          "type": "address"
        }
      ],
      "stateMutability": "view",
      "type": "function"
    },
    {
      "inputs": [
        {
          "internalType": "uint256",
          "name": "",
          "type": "uint256"
        }
      ],
      "name": "cheqCreated",
      "outputs": [
        {
          "internalType": "uint256",
          "name": "",
          "type": "uint256"
        }
      ],
      "stateMutability": "view",
      "type": "function"
    },
    {
      "inputs": [
        {
          "internalType": "uint256",
          "name": "",
          "type": "uint256"
        }
      ],
      "name": "cheqFunder",
      "outputs": [
        {
          "internalType": "address",
          "name": "",
          "type": "address"
        }
      ],
      "stateMutability": "view",
      "type": "function"
    },
    {
      "inputs": [
        {
          "internalType": "uint256",
          "name": "",
          "type": "uint256"
        }
      ],
      "name": "cheqInspectionPeriod",
      "outputs": [
        {
          "internalType": "uint256",
          "name": "",
          "type": "uint256"
        }
      ],
      "stateMutability": "view",
      "type": "function"
    },
    {
      "inputs": [
        {
          "internalType": "uint256",
          "name": "",
          "type": "uint256"
        }
      ],
      "name": "cheqReceiver",
      "outputs": [
        {
          "internalType": "address",
          "name": "",
          "type": "address"
        }
      ],
      "stateMutability": "view",
      "type": "function"
    },
    {
      "inputs": [
        {
          "internalType": "uint256",
          "name": "cheqId",
          "type": "uint256"
        },
        {
          "internalType": "bool",
          "name": "isReleased",
          "type": "bool"
        }
      ],
      "name": "earlyRelease",
      "outputs": [],
      "stateMutability": "nonpayable",
      "type": "function"
    },
    {
      "inputs": [
        {
          "internalType": "uint256",
          "name": "cheqId",
          "type": "uint256"
        },
        {
          "internalType": "uint256",
          "name": "amount",
          "type": "uint256"
        }
      ],
      "name": "fundCheq",
      "outputs": [],
      "stateMutability": "nonpayable",
      "type": "function"
    },
    {
      "inputs": [
        {
          "internalType": "uint256",
          "name": "cheqId",
          "type": "uint256"
        },
        {
          "internalType": "address",
          "name": "",
          "type": "address"
        },
        {
          "internalType": "uint256",
          "name": "",
          "type": "uint256"
        }
      ],
      "name": "fundable",
      "outputs": [
        {
          "internalType": "uint256",
          "name": "",
          "type": "uint256"
        }
      ],
      "stateMutability": "view",
      "type": "function"
    },
    {
      "inputs": [
        {
          "internalType": "uint256",
          "name": "cheqId",
          "type": "uint256"
        },
        {
          "internalType": "address",
          "name": "caller",
          "type": "address"
        },
        {
          "internalType": "address",
          "name": "",
          "type": "address"
        }
      ],
      "name": "isApprovable",
      "outputs": [
        {
          "internalType": "bool",
          "name": "",
          "type": "bool"
        }
      ],
      "stateMutability": "view",
      "type": "function"
    },
    {
      "inputs": [
        {
          "internalType": "uint256",
          "name": "",
          "type": "uint256"
        }
      ],
      "name": "isEarlyReleased",
      "outputs": [
        {
          "internalType": "bool",
          "name": "",
          "type": "bool"
        }
      ],
      "stateMutability": "view",
      "type": "function"
    },
    {
      "inputs": [
        {
          "internalType": "uint256",
          "name": "cheqId",
          "type": "uint256"
        },
        {
          "internalType": "address",
          "name": "caller",
          "type": "address"
        },
        {
          "internalType": "address",
          "name": "",
          "type": "address"
        }
      ],
      "name": "isTransferable",
      "outputs": [
        {
          "internalType": "bool",
          "name": "",
          "type": "bool"
        }
      ],
      "stateMutability": "view",
      "type": "function"
    },
    {
      "inputs": [
        {
          "internalType": "address",
          "name": "",
          "type": "address"
        },
        {
          "internalType": "contract IERC20",
          "name": "",
          "type": "address"
        },
        {
          "internalType": "uint256",
          "name": "",
          "type": "uint256"
        },
        {
          "internalType": "uint256",
          "name": "",
          "type": "uint256"
        },
        {
          "internalType": "address",
          "name": "",
          "type": "address"
        },
        {
          "internalType": "address",
          "name": "",
          "type": "address"
        }
      ],
      "name": "isWriteable",
      "outputs": [
        {
          "internalType": "bool",
          "name": "",
          "type": "bool"
        }
      ],
      "stateMutability": "pure",
      "type": "function"
    },
    {
      "inputs": [],
      "name": "owner",
      "outputs": [
        {
          "internalType": "address",
          "name": "",
          "type": "address"
        }
      ],
      "stateMutability": "view",
      "type": "function"
    },
    {
      "inputs": [],
      "name": "renounceOwnership",
      "outputs": [],
      "stateMutability": "nonpayable",
      "type": "function"
    },
    {
      "inputs": [
        {
          "internalType": "string",
          "name": "baseURI_",
          "type": "string"
        }
      ],
      "name": "setBaseURI",
      "outputs": [],
      "stateMutability": "nonpayable",
      "type": "function"
    },
    {
      "inputs": [
        {
          "internalType": "uint256",
          "name": "tokenId",
          "type": "uint256"
        }
      ],
      "name": "tokenURI",
      "outputs": [
        {
          "internalType": "string",
          "name": "",
          "type": "string"
        }
      ],
      "stateMutability": "view",
      "type": "function"
    },
    {
      "inputs": [
        {
          "internalType": "contract IERC20",
          "name": "",
          "type": "address"
        }
      ],
      "name": "tokenWhitelist",
      "outputs": [
        {
          "internalType": "bool",
          "name": "",
          "type": "bool"
        }
      ],
      "stateMutability": "view",
      "type": "function"
    },
    {
      "inputs": [
        {
          "internalType": "uint256",
          "name": "cheqId",
          "type": "uint256"
        },
        {
          "internalType": "address",
          "name": "to",
          "type": "address"
        }
      ],
      "name": "transferCheq",
      "outputs": [],
      "stateMutability": "nonpayable",
      "type": "function"
    },
    {
      "inputs": [
        {
          "internalType": "address",
          "name": "newOwner",
          "type": "address"
        }
      ],
      "name": "transferOwnership",
      "outputs": [],
      "stateMutability": "nonpayable",
      "type": "function"
    },
    {
      "inputs": [
        {
          "internalType": "contract IERC20",
          "name": "token",
          "type": "address"
        },
        {
          "internalType": "bool",
          "name": "isAccepted",
          "type": "bool"
        }
      ],
      "name": "whitelistToken",
      "outputs": [],
      "stateMutability": "nonpayable",
      "type": "function"
    },
    {
      "inputs": [
        {
          "internalType": "contract IERC20",
          "name": "_token",
          "type": "address"
        },
        {
          "internalType": "uint256",
          "name": "amount",
          "type": "uint256"
        },
        {
          "internalType": "uint256",
          "name": "escrow",
          "type": "uint256"
        },
        {
          "internalType": "address",
          "name": "recipient",
          "type": "address"
        },
        {
          "internalType": "uint256",
          "name": "inspectionPeriod",
          "type": "uint256"
        }
      ],
      "name": "writeCheq",
      "outputs": [
        {
          "internalType": "uint256",
          "name": "",
          "type": "uint256"
        }
      ],
      "stateMutability": "nonpayable",
      "type": "function"
    }
  ],
  "bytecode": {
    "object": "0x608060405234801561001057600080fd5b50604051611a5f380380611a5f83398101604081905261002f916100ad565b6100383361005d565b600180546001600160a01b0319166001600160a01b03929092169190911790556100dd565b600080546001600160a01b038381166001600160a01b0319831681178455604051919092169283917f8be0079c531659141344cd1fd0a4f28419497f9722a3daafe3b4186f6b6457e09190a35050565b6000602082840312156100bf57600080fd5b81516001600160a01b03811681146100d657600080fd5b9392505050565b611973806100ec6000396000f3fe608060405234801561001057600080fd5b506004361061018e5760003560e01c80638da5cb5b116100de578063d2a840e011610097578063e7dbe88411610071578063e7dbe884146103b1578063f1970263146102fc578063f2fde38b146103da578063f5159cb6146103ed57600080fd5b8063d2a840e01461036b578063d47fa2d81461037e578063dcc1e45a1461039157600080fd5b80638da5cb5b146102eb57806391a6262f146102fc578063966025cf1461030f578063a0a0ea7514610332578063ab43e02f14610345578063c87b56dd1461035857600080fd5b80636c0360eb1161014b578063753d756311610125578063753d75631461028f5780637ba06c11146102b25780637cf8db6a146102c5578063809d6f83146102d857600080fd5b80636c0360eb1461025f578063715018a614610274578063727d96f91461027c57600080fd5b8063049f26a9146101935780630ffb1d8b146101b95780631d3ded5f146101ce57806338e85f00146101e157806354d4310a1461022257806355f804b31461024c575b600080fd5b6101a66101a136600461138d565b61040d565b6040519081526020015b60405180910390f35b6101cc6101c73660046113d3565b610502565b005b6101cc6101dc36600461140c565b610535565b61020a6101ef366004611431565b6002602052600090815260409020546001600160a01b031681565b6040516001600160a01b0390911681526020016101b0565b61023c61023036600461144a565b60019695505050505050565b60405190151581526020016101b0565b6101cc61025a3660046114ba565b6105ee565b610267610608565b6040516101b0919061152c565b6101cc61069a565b6101cc61028a36600461157a565b6106ae565b61023c61029d3660046115a6565b60076020526000908152604090205460ff1681565b6101cc6102c03660046115c3565b610718565b6101cc6102d33660046115e5565b610a93565b60015461020a906001600160a01b031681565b6000546001600160a01b031661020a565b61023c61030a36600461160a565b610b19565b61023c61031d366004611431565b60066020526000908152604090205460ff1681565b6101a661034036600461138d565b610b9e565b6101cc610353366004611431565b610d47565b610267610366366004611431565b610d65565b6101cc6103793660046115c3565b610d91565b6101a661038c36600461164c565b610e65565b6101a661039f366004611431565b60046020526000908152604090205481565b61020a6103bf366004611431565b6003602052600090815260409020546001600160a01b031681565b6101cc6103e83660046115a6565b611255565b6101a66103fb366004611431565b60056020526000908152604090205481565b60015460405163614c626960e11b8152600481018590526000916001600160a01b03169063c298c4d290602401602060405180830381865afa158015610457573d6000803e3d6000fd5b505050506040513d601f19601f8201168201806040525081019061047b919061169e565b6000036104f7576001546040516398e05fcf60e01b8152600481018690526001600160a01b03909116906398e05fcf906024015b602060405180830381865afa1580156104cc573d6000803e3d6000fd5b505050506040513d601f19601f820116820180604052508101906104f0919061169e565b90506104fb565b5060005b9392505050565b61050a6112ce565b6001600160a01b03919091166000908152600760205260409020805460ff1916911515919091179055565b610540823383610b19565b61057d5760405162461bcd60e51b81526020600482015260096024820152682737ba1037bbb732b960b91b60448201526064015b60405180910390fd5b6001546040516323b872dd60e01b81523360048201526001600160a01b03838116602483015260448201859052909116906323b872dd906064015b600060405180830381600087803b1580156105d257600080fd5b505af11580156105e6573d6000803e3d6000fd5b505050505050565b6105f66112ce565b600861060382848361174d565b505050565b606060088054610617906116cd565b80601f0160208091040260200160405190810160405280929190818152602001828054610643906116cd565b80156106905780601f1061066557610100808354040283529160200191610690565b820191906000526020600020905b81548152906001019060200180831161067357829003601f168201915b5050505050905090565b6106a26112ce565b6106ac6000611328565b565b6106b9813384610b19565b6106df5760405162461bcd60e51b81526020600482015260006024820152604401610574565b60015460405163095ea7b360e01b81526001600160a01b038481166004830152602482018490529091169063095ea7b3906044016105b8565b600061072583338461040d565b9050600081116107665760405162461bcd60e51b815260206004820152600c60248201526b4e6f742066756e6461626c6560a01b6044820152606401610574565b8181146107ad5760405162461bcd60e51b815260206004820152601560248201527410d85b9d08199d5b99081d1a1a5cc8185b5bdd5b9d605a1b6044820152606401610574565b600154604051630591bdbd60e11b8152600481018590526000916001600160a01b031690630b237b7a90602401602060405180830381865afa1580156107f7573d6000803e3d6000fd5b505050506040513d601f19601f8201168201806040525081019061081b919061180e565b60015490915083906001600160a01b0316638f601f66336040516001600160e01b031960e084901b1681526001600160a01b0391821660048201529085166024820152604401602060405180830381865afa15801561087e573d6000803e3d6000fd5b505050506040513d601f19601f820116820180604052508101906108a2919061169e565b1015610a04576001546000906001600160a01b0316638f601f66336040516001600160e01b031960e084901b1681526001600160a01b0391821660048201529085166024820152604401602060405180830381865afa158015610909573d6000803e3d6000fd5b505050506040513d601f19601f8201168201806040525081019061092d919061169e565b6109379085611841565b6001549091506001600160a01b0316638340f549336040516001600160e01b031960e084901b1681526001600160a01b0391821660048201529085166024820152604481018490526064016020604051808303816000875af11580156109a1573d6000803e3d6000fd5b505050506040513d601f19601f820116820180604052508101906109c5919061185a565b610a025760405162461bcd60e51b815260206004820152600e60248201526d11195c1bdcda5d0819985a5b195960921b6044820152606401610574565b505b6001546001600160a01b03166395d140a185336040516001600160e01b031960e085901b16815260048101929092526001600160a01b0316602482015260448101869052606401600060405180830381600087803b158015610a6557600080fd5b505af1158015610a79573d6000803e3d6000fd5b505050600094855250506004602052505060409020429055565b6000828152600260205260409020546001600160a01b03163314610af95760405162461bcd60e51b815260206004820152601d60248201527f6f6e6c792066756e6465722063616e2072656c65617365206561726c790000006044820152606401610574565b600091825260066020526040909120805460ff1916911515919091179055565b6001546040516331a9108f60e11b8152600481018590526000916001600160a01b0385811692911690636352211e90602401602060405180830381865afa158015610b68573d6000803e3d6000fd5b505050506040513d601f19601f82011682018060405250810190610b8c919061180e565b6001600160a01b031614949350505050565b6000838152600260205260408120546001600160a01b038481169116148015610bea5750600084815260056020908152604080832054600490925290912054610be79190611877565b42105b15610c205760015460405163614c626960e11b8152600481018690526001600160a01b039091169063c298c4d2906024016104af565b6001546040516331a9108f60e11b8152600481018690526001600160a01b03858116921690636352211e90602401602060405180830381865afa158015610c6b573d6000803e3d6000fd5b505050506040513d601f19601f82011682018060405250810190610c8f919061180e565b6001600160a01b0316148015610cc95750600084815260056020908152604080832054600490925290912054610cc59190611877565b4210155b15610cff5760015460405163614c626960e11b8152600481018690526001600160a01b039091169063c298c4d2906024016104af565b60008481526006602052604090205460ff16156104f75760015460405163614c626960e11b8152600481018690526001600160a01b039091169063c298c4d2906024016104af565b6000610d5582336000610b9e565b9050610d618282610d91565b5050565b6060600882604051602001610d7b92919061188a565b6040516020818303038152906040529050919050565b6000610d9e833384610b9e565b9050818114610de75760405162461bcd60e51b815260206004820152601560248201527410d85b9d0818d85cda081d1a1a5cc8185b5bdd5b9d605a1b6044820152606401610574565b6001546001600160a01b031663254388a384336040516001600160e01b031960e085901b16815260048101929092526001600160a01b0316602482015260448101859052606401600060405180830381600087803b158015610e4857600080fd5b505af1158015610e5c573d6000803e3d6000fd5b50505050505050565b6000336001600160a01b03841603610eb15760405162461bcd60e51b815260206004820152600f60248201526e10d85b89dd081cd95b19881cd95b99608a1b6044820152606401610574565b83600003610f92576001546040516312a7f30360e11b81526000916001600160a01b03169063254fe60690610ef490339088908c908c908c908590600401611905565b6020604051808303816000875af1158015610f13573d6000803e3d6000fd5b505050506040513d601f19601f82011682018060405250810190610f37919061169e565b6000818152600460209081526040808320429055600582528083208790556002825280832080546001600160a01b038a166001600160a01b0319918216179091556003909252909120805490911633179055915061124c9050565b60015484906001600160a01b0316638f601f66336040516001600160e01b031960e084901b1681526001600160a01b039182166004820152908a166024820152604401602060405180830381865afa158015610ff2573d6000803e3d6000fd5b505050506040513d601f19601f82011682018060405250810190611016919061169e565b1015611178576001546000906001600160a01b0316638f601f66336040516001600160e01b031960e084901b1681526001600160a01b039182166004820152908a166024820152604401602060405180830381865afa15801561107d573d6000803e3d6000fd5b505050506040513d601f19601f820116820180604052508101906110a1919061169e565b6110ab9086611841565b6001549091506001600160a01b0316638340f549336040516001600160e01b031960e084901b1681526001600160a01b039182166004820152908a166024820152604481018490526064016020604051808303816000875af1158015611115573d6000803e3d6000fd5b505050506040513d601f19601f82011682018060405250810190611139919061185a565b6111765760405162461bcd60e51b815260206004820152600e60248201526d11195c1bdcda5d0819985a5b195960921b6044820152606401610574565b505b6001546040516312a7f30360e11b81526000916001600160a01b03169063254fe606906111b390339088908c908c908c908490600401611905565b6020604051808303816000875af11580156111d2573d6000803e3d6000fd5b505050506040513d601f19601f820116820180604052508101906111f6919061169e565b600081815260046020908152604080832042905560058252808320879055600282528083208054336001600160a01b031991821617909155600390925290912080549091166001600160a01b0387161790559150505b95945050505050565b61125d6112ce565b6001600160a01b0381166112c25760405162461bcd60e51b815260206004820152602660248201527f4f776e61626c653a206e6577206f776e657220697320746865207a65726f206160448201526564647265737360d01b6064820152608401610574565b6112cb81611328565b50565b6000546001600160a01b031633146106ac5760405162461bcd60e51b815260206004820181905260248201527f4f776e61626c653a2063616c6c6572206973206e6f7420746865206f776e65726044820152606401610574565b600080546001600160a01b038381166001600160a01b0319831681178455604051919092169283917f8be0079c531659141344cd1fd0a4f28419497f9722a3daafe3b4186f6b6457e09190a35050565b6001600160a01b03811681146112cb57600080fd5b6000806000606084860312156113a257600080fd5b8335925060208401356113b481611378565b929592945050506040919091013590565b80151581146112cb57600080fd5b600080604083850312156113e657600080fd5b82356113f181611378565b91506020830135611401816113c5565b809150509250929050565b6000806040838503121561141f57600080fd5b82359150602083013561140181611378565b60006020828403121561144357600080fd5b5035919050565b60008060008060008060c0878903121561146357600080fd5b863561146e81611378565b9550602087013561147e81611378565b94506040870135935060608701359250608087013561149c81611378565b915060a08701356114ac81611378565b809150509295509295509295565b600080602083850312156114cd57600080fd5b823567ffffffffffffffff808211156114e557600080fd5b818501915085601f8301126114f957600080fd5b81358181111561150857600080fd5b86602082850101111561151a57600080fd5b60209290920196919550909350505050565b600060208083528351808285015260005b818110156115595785810183015185820160400152820161153d565b506000604082860101526040601f19601f8301168501019250505092915050565b6000806040838503121561158d57600080fd5b823561159881611378565b946020939093013593505050565b6000602082840312156115b857600080fd5b81356104fb81611378565b600080604083850312156115d657600080fd5b50508035926020909101359150565b600080604083850312156115f857600080fd5b823591506020830135611401816113c5565b60008060006060848603121561161f57600080fd5b83359250602084013561163181611378565b9150604084013561164181611378565b809150509250925092565b600080600080600060a0868803121561166457600080fd5b853561166f81611378565b94506020860135935060408601359250606086013561168d81611378565b949793965091946080013592915050565b6000602082840312156116b057600080fd5b5051919050565b634e487b7160e01b600052604160045260246000fd5b600181811c908216806116e157607f821691505b60208210810361170157634e487b7160e01b600052602260045260246000fd5b50919050565b601f82111561060357600081815260208120601f850160051c8101602086101561172e5750805b601f850160051c820191505b818110156105e65782815560010161173a565b67ffffffffffffffff831115611765576117656116b7565b6117798361177383546116cd565b83611707565b6000601f8411600181146117ad57600085156117955750838201355b600019600387901b1c1916600186901b178355611807565b600083815260209020601f19861690835b828110156117de57868501358255602094850194600190920191016117be565b50868210156117fb5760001960f88860031b161c19848701351681555b505060018560011b0183555b5050505050565b60006020828403121561182057600080fd5b81516104fb81611378565b634e487b7160e01b600052601160045260246000fd5b818103818111156118545761185461182b565b92915050565b60006020828403121561186c57600080fd5b81516104fb816113c5565b808201808211156118545761185461182b565b6000808454611898816116cd565b600182811680156118b057600181146118c5576118f4565b60ff19841687528215158302870194506118f4565b8860005260208060002060005b858110156118eb5781548a8201529084019082016118d2565b50505082870194505b505050938152602001949350505050565b6001600160a01b039687168152948616602086015292851660408501526060840191909152608083015290911660a082015260c0019056fea26469706673582212200ff7125f023babf2bc37daf32bd0a5cc91d0376395381446e756c70d185d87c464736f6c63430008100033",
    "linkReferences": {}
  },
  "methodIdentifiers": {
    "approveCheq(address,uint256)": "727d96f9",
    "baseURI()": "6c0360eb",
    "cashCheq(uint256)": "ab43e02f",
    "cashCheq(uint256,uint256)": "d2a840e0",
    "cashable(uint256,address,uint256)": "a0a0ea75",
    "cheq()": "809d6f83",
    "cheqCreated(uint256)": "dcc1e45a",
    "cheqFunder(uint256)": "38e85f00",
    "cheqInspectionPeriod(uint256)": "f5159cb6",
    "cheqReceiver(uint256)": "e7dbe884",
    "earlyRelease(uint256,bool)": "7cf8db6a",
    "fundCheq(uint256,uint256)": "7ba06c11",
    "fundable(uint256,address,uint256)": "049f26a9",
    "isApprovable(uint256,address,address)": "f1970263",
    "isEarlyReleased(uint256)": "966025cf",
    "isTransferable(uint256,address,address)": "91a6262f",
    "isWriteable(address,address,uint256,uint256,address,address)": "54d4310a",
    "owner()": "8da5cb5b",
    "renounceOwnership()": "715018a6",
    "setBaseURI(string)": "55f804b3",
    "tokenURI(uint256)": "c87b56dd",
    "tokenWhitelist(address)": "753d7563",
    "transferCheq(uint256,address)": "1d3ded5f",
    "transferOwnership(address)": "f2fde38b",
    "whitelistToken(address,bool)": "0ffb1d8b",
    "writeCheq(address,uint256,uint256,address,uint256)": "d47fa2d8"
  },
  "id": 24
}