{
  "abi": [
    {
      "inputs": [],
      "stateMutability": "nonpayable",
      "type": "constructor"
    },
    {
      "anonymous": false,
      "inputs": [
        {
          "indexed": true,
          "internalType": "address",
          "name": "owner",
          "type": "address"
        },
        {
          "indexed": true,
          "internalType": "address",
          "name": "approved",
          "type": "address"
        },
        {
          "indexed": true,
          "internalType": "uint256",
          "name": "tokenId",
          "type": "uint256"
        }
      ],
      "name": "Approval",
      "type": "event"
    },
    {
      "anonymous": false,
      "inputs": [
        {
          "indexed": true,
          "internalType": "address",
          "name": "owner",
          "type": "address"
        },
        {
          "indexed": true,
          "internalType": "address",
          "name": "operator",
          "type": "address"
        },
        {
          "indexed": false,
          "internalType": "bool",
          "name": "approved",
          "type": "bool"
        }
      ],
      "name": "ApprovalForAll",
      "type": "event"
    },
    {
      "anonymous": false,
      "inputs": [
        {
          "indexed": true,
          "internalType": "contract ICheqBroker",
          "name": "broker",
          "type": "address"
        },
        {
          "indexed": false,
          "internalType": "bool",
          "name": "isAccepted",
          "type": "bool"
        },
        {
          "indexed": false,
          "internalType": "string",
          "name": "brokerName",
          "type": "string"
        }
      ],
      "name": "BrokerWhitelisted",
      "type": "event"
    },
    {
      "anonymous": false,
      "inputs": [
        {
          "indexed": true,
          "internalType": "uint256",
          "name": "cheqId",
          "type": "uint256"
        },
        {
          "indexed": true,
          "internalType": "address",
          "name": "to",
          "type": "address"
        },
        {
          "indexed": false,
          "internalType": "uint256",
          "name": "amount",
          "type": "uint256"
        }
      ],
      "name": "Cashed",
      "type": "event"
    },
    {
      "anonymous": false,
      "inputs": [
        {
          "indexed": true,
          "internalType": "contract IERC20",
          "name": "token",
          "type": "address"
        },
        {
          "indexed": true,
          "internalType": "address",
          "name": "to",
          "type": "address"
        },
        {
          "indexed": false,
          "internalType": "uint256",
          "name": "amount",
          "type": "uint256"
        }
      ],
      "name": "Deposited",
      "type": "event"
    },
    {
      "anonymous": false,
      "inputs": [
        {
          "indexed": true,
          "internalType": "uint256",
          "name": "cheqId",
          "type": "uint256"
        },
        {
          "indexed": true,
          "internalType": "address",
          "name": "from",
          "type": "address"
        },
        {
          "indexed": false,
          "internalType": "uint256",
          "name": "amount",
          "type": "uint256"
        }
      ],
      "name": "Funded",
      "type": "event"
    },
    {
      "anonymous": false,
      "inputs": [
        {
          "indexed": true,
          "internalType": "address",
          "name": "previousOwner",
          "type": "address"
        },
        {
          "indexed": true,
          "internalType": "address",
          "name": "newOwner",
          "type": "address"
        }
      ],
      "name": "OwnershipTransferred",
      "type": "event"
    },
    {
      "anonymous": false,
      "inputs": [
        {
          "indexed": true,
          "internalType": "address",
          "name": "from",
          "type": "address"
        },
        {
          "indexed": true,
          "internalType": "address",
          "name": "to",
          "type": "address"
        },
        {
          "indexed": true,
          "internalType": "uint256",
          "name": "tokenId",
          "type": "uint256"
        }
      ],
      "name": "Transfer",
      "type": "event"
    },
    {
      "anonymous": false,
      "inputs": [
        {
          "indexed": true,
          "internalType": "uint256",
          "name": "cheqId",
          "type": "uint256"
        },
        {
          "indexed": false,
          "internalType": "contract IERC20",
          "name": "token",
          "type": "address"
        },
        {
          "indexed": false,
          "internalType": "uint256",
          "name": "amount",
          "type": "uint256"
        },
        {
          "indexed": false,
          "internalType": "uint256",
          "name": "escrowed",
          "type": "uint256"
        },
        {
          "indexed": true,
          "internalType": "address",
          "name": "drawer",
          "type": "address"
        },
        {
          "indexed": false,
          "internalType": "address",
          "name": "recipient",
          "type": "address"
        },
        {
          "indexed": true,
          "internalType": "contract ICheqBroker",
          "name": "broker",
          "type": "address"
        },
        {
          "indexed": false,
          "internalType": "address",
          "name": "owner",
          "type": "address"
        }
      ],
      "name": "Written",
      "type": "event"
    },
    {
      "inputs": [
        {
          "internalType": "address",
          "name": "to",
          "type": "address"
        },
        {
          "internalType": "uint256",
          "name": "tokenId",
          "type": "uint256"
        }
      ],
      "name": "approve",
      "outputs": [],
      "stateMutability": "nonpayable",
      "type": "function"
    },
    {
      "inputs": [
        {
          "internalType": "address",
          "name": "owner",
          "type": "address"
        }
      ],
      "name": "balanceOf",
      "outputs": [
        {
          "internalType": "uint256",
          "name": "",
          "type": "uint256"
        }
      ],
      "stateMutability": "view",
      "type": "function"
    },
    {
      "inputs": [
        {
          "internalType": "contract ICheqBroker",
          "name": "",
          "type": "address"
        }
      ],
      "name": "brokerWhitelist",
      "outputs": [
        {
          "internalType": "bool",
          "name": "",
          "type": "bool"
        }
      ],
      "stateMutability": "view",
      "type": "function"
    },
    {
      "inputs": [
        {
          "internalType": "uint256",
          "name": "cheqId",
          "type": "uint256"
        },
        {
          "internalType": "address",
          "name": "to",
          "type": "address"
        },
        {
          "internalType": "uint256",
          "name": "cashAmount",
          "type": "uint256"
        }
      ],
      "name": "cash",
      "outputs": [],
      "stateMutability": "nonpayable",
      "type": "function"
    },
    {
      "inputs": [
        {
          "internalType": "uint256",
          "name": "cheqId",
          "type": "uint256"
        }
      ],
      "name": "cheqAmount",
      "outputs": [
        {
          "internalType": "uint256",
          "name": "",
          "type": "uint256"
        }
      ],
      "stateMutability": "view",
      "type": "function"
    },
    {
      "inputs": [
        {
          "internalType": "uint256",
          "name": "cheqId",
          "type": "uint256"
        }
      ],
      "name": "cheqBroker",
      "outputs": [
        {
          "internalType": "contract ICheqBroker",
          "name": "",
          "type": "address"
        }
      ],
      "stateMutability": "view",
      "type": "function"
    },
    {
      "inputs": [
        {
          "internalType": "uint256",
          "name": "cheqId",
          "type": "uint256"
        }
      ],
      "name": "cheqDrawer",
      "outputs": [
        {
          "internalType": "address",
          "name": "",
          "type": "address"
        }
      ],
      "stateMutability": "view",
      "type": "function"
    },
    {
      "inputs": [
        {
          "internalType": "uint256",
          "name": "cheqId",
          "type": "uint256"
        }
      ],
      "name": "cheqEscrowed",
      "outputs": [
        {
          "internalType": "uint256",
          "name": "",
          "type": "uint256"
        }
      ],
      "stateMutability": "view",
      "type": "function"
    },
    {
      "inputs": [
        {
          "internalType": "uint256",
          "name": "",
          "type": "uint256"
        }
      ],
      "name": "cheqInfo",
      "outputs": [
        {
          "internalType": "contract IERC20",
          "name": "token",
          "type": "address"
        },
        {
          "internalType": "uint256",
          "name": "amount",
          "type": "uint256"
        },
        {
          "internalType": "uint256",
          "name": "escrowed",
          "type": "uint256"
        },
        {
          "internalType": "address",
          "name": "drawer",
          "type": "address"
        },
        {
          "internalType": "address",
          "name": "recipient",
          "type": "address"
        },
        {
          "internalType": "contract ICheqBroker",
          "name": "broker",
          "type": "address"
        }
      ],
      "stateMutability": "view",
      "type": "function"
    },
    {
      "inputs": [
        {
          "internalType": "uint256",
          "name": "cheqId",
          "type": "uint256"
        }
      ],
      "name": "cheqRecipient",
      "outputs": [
        {
          "internalType": "address",
          "name": "",
          "type": "address"
        }
      ],
      "stateMutability": "view",
      "type": "function"
    },
    {
      "inputs": [
        {
          "internalType": "uint256",
          "name": "cheqId",
          "type": "uint256"
        }
      ],
      "name": "cheqToken",
      "outputs": [
        {
          "internalType": "contract IERC20",
          "name": "",
          "type": "address"
        }
      ],
      "stateMutability": "view",
      "type": "function"
    },
    {
      "inputs": [
        {
          "internalType": "contract IERC20",
          "name": "_token",
          "type": "address"
        },
        {
          "internalType": "uint256",
          "name": "_amount",
          "type": "uint256"
        }
      ],
      "name": "deposit",
      "outputs": [
        {
          "internalType": "bool",
          "name": "",
          "type": "bool"
        }
      ],
      "stateMutability": "nonpayable",
      "type": "function"
    },
    {
      "inputs": [
        {
          "internalType": "address",
          "name": "to",
          "type": "address"
        },
        {
          "internalType": "contract IERC20",
          "name": "token",
          "type": "address"
        },
        {
          "internalType": "uint256",
          "name": "amount",
          "type": "uint256"
        }
      ],
      "name": "deposit",
      "outputs": [
        {
          "internalType": "bool",
          "name": "",
          "type": "bool"
        }
      ],
      "stateMutability": "nonpayable",
      "type": "function"
    },
    {
      "inputs": [
        {
          "internalType": "address",
          "name": "",
          "type": "address"
        },
        {
          "internalType": "contract IERC20",
          "name": "",
          "type": "address"
        }
      ],
      "name": "deposits",
      "outputs": [
        {
          "internalType": "uint256",
          "name": "",
          "type": "uint256"
        }
      ],
      "stateMutability": "view",
      "type": "function"
    },
    {
      "inputs": [
        {
          "internalType": "uint256",
          "name": "cheqId",
          "type": "uint256"
        },
        {
          "internalType": "address",
          "name": "from",
          "type": "address"
        },
        {
          "internalType": "uint256",
          "name": "amount",
          "type": "uint256"
        }
      ],
      "name": "fund",
      "outputs": [],
      "stateMutability": "nonpayable",
      "type": "function"
    },
    {
      "inputs": [
        {
          "internalType": "uint256",
          "name": "tokenId",
          "type": "uint256"
        }
      ],
      "name": "getApproved",
      "outputs": [
        {
          "internalType": "address",
          "name": "",
          "type": "address"
        }
      ],
      "stateMutability": "view",
      "type": "function"
    },
    {
      "inputs": [
        {
          "internalType": "address",
          "name": "owner",
          "type": "address"
        },
        {
          "internalType": "address",
          "name": "operator",
          "type": "address"
        }
      ],
      "name": "isApprovedForAll",
      "outputs": [
        {
          "internalType": "bool",
          "name": "",
          "type": "bool"
        }
      ],
      "stateMutability": "view",
      "type": "function"
    },
    {
      "inputs": [],
      "name": "name",
      "outputs": [
        {
          "internalType": "string",
          "name": "",
          "type": "string"
        }
      ],
      "stateMutability": "view",
      "type": "function"
    },
    {
      "inputs": [],
      "name": "owner",
      "outputs": [
        {
          "internalType": "address",
          "name": "",
          "type": "address"
        }
      ],
      "stateMutability": "view",
      "type": "function"
    },
    {
      "inputs": [
        {
          "internalType": "uint256",
          "name": "tokenId",
          "type": "uint256"
        }
      ],
      "name": "ownerOf",
      "outputs": [
        {
          "internalType": "address",
          "name": "",
          "type": "address"
        }
      ],
      "stateMutability": "view",
      "type": "function"
    },
    {
      "inputs": [],
      "name": "renounceOwnership",
      "outputs": [],
      "stateMutability": "nonpayable",
      "type": "function"
    },
    {
      "inputs": [
        {
          "internalType": "address",
          "name": "from",
          "type": "address"
        },
        {
          "internalType": "address",
          "name": "to",
          "type": "address"
        },
        {
          "internalType": "uint256",
          "name": "tokenId",
          "type": "uint256"
        }
      ],
      "name": "safeTransferFrom",
      "outputs": [],
      "stateMutability": "nonpayable",
      "type": "function"
    },
    {
      "inputs": [
        {
          "internalType": "address",
          "name": "from",
          "type": "address"
        },
        {
          "internalType": "address",
          "name": "to",
          "type": "address"
        },
        {
          "internalType": "uint256",
          "name": "cheqId",
          "type": "uint256"
        },
        {
          "internalType": "bytes",
          "name": "data",
          "type": "bytes"
        }
      ],
      "name": "safeTransferFrom",
      "outputs": [],
      "stateMutability": "nonpayable",
      "type": "function"
    },
    {
      "inputs": [
        {
          "internalType": "address",
          "name": "operator",
          "type": "address"
        },
        {
          "internalType": "bool",
          "name": "approved",
          "type": "bool"
        }
      ],
      "name": "setApprovalForAll",
      "outputs": [],
      "stateMutability": "nonpayable",
      "type": "function"
    },
    {
      "inputs": [
        {
          "internalType": "bytes4",
          "name": "interfaceId",
          "type": "bytes4"
        }
      ],
      "name": "supportsInterface",
      "outputs": [
        {
          "internalType": "bool",
          "name": "",
          "type": "bool"
        }
      ],
      "stateMutability": "view",
      "type": "function"
    },
    {
      "inputs": [],
      "name": "symbol",
      "outputs": [
        {
          "internalType": "string",
          "name": "",
          "type": "string"
        }
      ],
      "stateMutability": "view",
      "type": "function"
    },
    {
      "inputs": [
        {
          "internalType": "uint256",
          "name": "tokenId",
          "type": "uint256"
        }
      ],
      "name": "tokenURI",
      "outputs": [
        {
          "internalType": "string",
          "name": "",
          "type": "string"
        }
      ],
      "stateMutability": "view",
      "type": "function"
    },
    {
      "inputs": [],
      "name": "totalSupply",
      "outputs": [
        {
          "internalType": "uint256",
          "name": "",
          "type": "uint256"
        }
      ],
      "stateMutability": "view",
      "type": "function"
    },
    {
      "inputs": [
        {
          "internalType": "address",
          "name": "from",
          "type": "address"
        },
        {
          "internalType": "address",
          "name": "to",
          "type": "address"
        },
        {
          "internalType": "uint256",
          "name": "cheqId",
          "type": "uint256"
        }
      ],
      "name": "transferFrom",
      "outputs": [],
      "stateMutability": "nonpayable",
      "type": "function"
    },
    {
      "inputs": [
        {
          "internalType": "address",
          "name": "newOwner",
          "type": "address"
        }
      ],
      "name": "transferOwnership",
      "outputs": [],
      "stateMutability": "nonpayable",
      "type": "function"
    },
    {
      "inputs": [
        {
          "internalType": "contract ICheqBroker",
          "name": "broker",
          "type": "address"
        },
        {
          "internalType": "bool",
          "name": "isAccepted",
          "type": "bool"
        },
        {
          "internalType": "string",
          "name": "brokerName",
          "type": "string"
        }
      ],
      "name": "whitelistBroker",
      "outputs": [],
      "stateMutability": "nonpayable",
      "type": "function"
    },
    {
      "inputs": [
        {
          "internalType": "address",
          "name": "from",
          "type": "address"
        },
        {
          "internalType": "address",
          "name": "recipient",
          "type": "address"
        },
        {
          "internalType": "contract IERC20",
          "name": "_token",
          "type": "address"
        },
        {
          "internalType": "uint256",
          "name": "amount",
          "type": "uint256"
        },
        {
          "internalType": "uint256",
          "name": "escrow",
          "type": "uint256"
        },
        {
          "internalType": "address",
          "name": "owner",
          "type": "address"
        }
      ],
      "name": "write",
      "outputs": [
        {
          "internalType": "uint256",
          "name": "",
          "type": "uint256"
        }
      ],
      "stateMutability": "nonpayable",
      "type": "function"
    }
  ],
  "bytecode": {
    "object": "0x60806040523480156200001157600080fd5b506040518060400160405280600c81526020016b10da195c541c9bdd1bd8dbdb60a21b815250604051806040016040528060048152602001634348455160e01b815250816000908162000065919062000192565b50600162000074828262000192565b505050620000916200008b6200009760201b60201c565b6200009b565b6200025e565b3390565b600680546001600160a01b038381166001600160a01b0319831681179093556040519116919082907f8be0079c531659141344cd1fd0a4f28419497f9722a3daafe3b4186f6b6457e090600090a35050565b634e487b7160e01b600052604160045260246000fd5b600181811c908216806200011857607f821691505b6020821081036200013957634e487b7160e01b600052602260045260246000fd5b50919050565b601f8211156200018d57600081815260208120601f850160051c81016020861015620001685750805b601f850160051c820191505b81811015620001895782815560010162000174565b5050505b505050565b81516001600160401b03811115620001ae57620001ae620000ed565b620001c681620001bf845462000103565b846200013f565b602080601f831160018114620001fe5760008415620001e55750858301515b600019600386901b1c1916600185901b17855562000189565b600085815260208120601f198616915b828110156200022f578886015182559484019460019091019084016200020e565b50858210156200024e5787850151600019600388901b60f8161c191681555b5050505050600190811b01905550565b611e8b806200026e6000396000f3fe608060405234801561001057600080fd5b50600436106101f05760003560e01c8063715018a61161010f578063a22cb465116100a2578063d240f70211610071578063d240f702146104bf578063e985e9c5146104e2578063f2fde38b1461051e578063f77949421461053157600080fd5b8063a22cb46514610463578063b88d4fde14610476578063c298c4d214610489578063c87b56dd146104ac57600080fd5b80638f601f66116100de5780638f601f66146103fa57806395d140a11461042557806395d89b411461043857806398e05fcf1461044057600080fd5b8063715018a6146103a2578063789a0496146103aa5780638340f549146103d65780638da5cb5b146103e957600080fd5b8063254388a31161018757806347e7ef241161015657806347e7ef241461033d5780636352211e146103505780636521c5e91461036357806370a082311461038f57600080fd5b8063254388a3146102d8578063254fe606146102eb57806332c1efbb146102fe57806342842e0e1461032a57600080fd5b80630b237b7a116101c35780630b237b7a1461027257806318160ddd1461029b5780631dcfd5dc146102b257806323b872dd146102c557600080fd5b806301ffc9a7146101f557806306fdde031461021d578063081812fc14610232578063095ea7b31461025d575b600080fd5b610208610203366004611825565b6105c3565b60405190151581526020015b60405180910390f35b610225610615565b6040516102149190611899565b6102456102403660046118ac565b6106a7565b6040516001600160a01b039091168152602001610214565b61027061026b3660046118da565b6106ce565b005b6102456102803660046118ac565b6000908152600760205260409020546001600160a01b031690565b6102a4600a5481565b604051908152602001610214565b6102706102c03660046119c1565b61072a565b6102706102d3366004611a37565b610795565b6102706102e6366004611a78565b6107ea565b6102a46102f9366004611a9f565b61099a565b61024561030c3660046118ac565b6000908152600760205260409020600301546001600160a01b031690565b610270610338366004611a37565b610c1d565b61020861034b3660046118da565b610c38565b61024561035e3660046118ac565b610c4e565b6102456103713660046118ac565b6000908152600760205260409020600501546001600160a01b031690565b6102a461039d366004611b0f565b610cae565b610270610d34565b6102456103b83660046118ac565b6000908152600760205260409020600401546001600160a01b031690565b6102086103e4366004611a37565b610d48565b6006546001600160a01b0316610245565b6102a4610408366004611b2c565b600860209081526000928352604080842090915290825290205481565b610270610433366004611a78565b610d5f565b610225610e9e565b6102a461044e3660046118ac565b60009081526007602052604090206001015490565b610270610471366004611b65565b610ead565b610270610484366004611b93565b610ebc565b6102a46104973660046118ac565b60009081526007602052604090206002015490565b6102256104ba3660046118ac565b610f13565b6102086104cd366004611b0f565b60096020526000908152604090205460ff1681565b6102086104f0366004611b2c565b6001600160a01b03918216600090815260056020908152604080832093909416825291909152205460ff1690565b61027061052c366004611b0f565b610f9f565b61058561053f3660046118ac565b6007602052600090815260409020805460018201546002830154600384015460048501546005909501546001600160a01b03948516959394929391831692918216911686565b604080516001600160a01b039788168152602081019690965285019390935290841660608401528316608083015290911660a082015260c001610214565b60006001600160e01b031982166380ac58cd60e01b14806105f457506001600160e01b03198216635b5e139f60e01b145b8061060f57506301ffc9a760e01b6001600160e01b03198316145b92915050565b60606000805461062490611c13565b80601f016020809104026020016040519081016040528092919081815260200182805461065090611c13565b801561069d5780601f106106725761010080835404028352916020019161069d565b820191906000526020600020905b81548152906001019060200180831161068057829003601f168201915b5050505050905090565b60006106b282611018565b506000908152600460205260409020546001600160a01b031690565b60008181526007602052604090206005015481906001600160a01b0316336001600160a01b03161461071b5760405162461bcd60e51b815260040161071290611c4d565b60405180910390fd5b6107258383611077565b505050565b6107326110e5565b6001600160a01b03831660008181526009602052604090819020805460ff1916851515179055517f9f5b32d972f6d22cf54ae80094ac95d3bdd5ef1d31c8624fc269947c56d25673906107889085908590611c79565b60405180910390a2505050565b60008181526007602052604090206005015481906001600160a01b0316336001600160a01b0316146107d95760405162461bcd60e51b815260040161071290611c4d565b6107e484848461113f565b50505050565b60008381526007602052604090206005015483906001600160a01b0316336001600160a01b03161461082e5760405162461bcd60e51b815260040161071290611c4d565b600084815260076020526040902060028101548311156108905760405162461bcd60e51b815260206004820152601e60248201527f43616e27742063617368206d6f7265207468616e20617661696c61626c6500006044820152606401610712565b6002810180548490039055805460405163a9059cbb60e01b81526001600160a01b038681166004830152602482018690529091169063a9059cbb906044016020604051808303816000875af11580156108ed573d6000803e3d6000fd5b505050506040513d601f19601f820116820180604052508101906109119190611c94565b61094f5760405162461bcd60e51b815260206004820152600f60248201526e151c985b9cd9995c8819985a5b1959608a1b6044820152606401610712565b836001600160a01b0316857fdf911926ff47c4c83062ee4e05490c71640c441d3c60a0a8cd90fbcf25611ac48560405161098b91815260200190565b60405180910390a35050505050565b3360008181526009602052604081205490919060ff166109fc5760405162461bcd60e51b815260206004820152601760248201527f4f6e6c792077686974656c69737465642062726f6b65720000000000000000006044820152606401610712565b6001600160a01b038089166000908152600860209081526040808320938a1683529290522054841115610a5d5760405162461bcd60e51b8152602060048201526009602482015268125394d55197d0905360ba1b6044820152606401610712565b6001600160a01b038089166000908152600860209081526040808320938a1683529290529081208054869290610a94908490611cc7565b925050819055506040518060c00160405280876001600160a01b03168152602001868152602001858152602001896001600160a01b03168152602001886001600160a01b03168152602001610ae63390565b6001600160a01b03908116909152600a8054600090815260076020908152604091829020855181549086166001600160a01b03199182161782559186015160018201559185015160028301556060850151600383018054918616918316919091179055608085015160048301805491861691831691909117905560a0909401516005909101805491909316931692909217905554610b859084906112a3565b600a54604080516001600160a01b038981168252602082018990528183018890528a81166060830152868116608083015291513393928c1692917f2484f4acd1a16f16e4aa642ab090c4a1b38046ad3bddf66cc8c11cd00b287819919081900360a00190a46001600a6000828254610bfd9190611cda565b9091555050600a54610c1190600190611cc7565b98975050505050505050565b61072583838360405180602001604052806000815250610ebc565b6000610c458333846112bd565b50600192915050565b6000818152600260205260408120546001600160a01b03168061060f5760405162461bcd60e51b8152602060048201526018602482015277115490cdcc8c4e881a5b9d985b1a59081d1bdad95b88125160421b6044820152606401610712565b60006001600160a01b038216610d185760405162461bcd60e51b815260206004820152602960248201527f4552433732313a2061646472657373207a65726f206973206e6f7420612076616044820152683634b21037bbb732b960b91b6064820152608401610712565b506001600160a01b031660009081526003602052604090205490565b610d3c6110e5565b610d466000611404565b565b6000610d558385846112bd565b5060019392505050565b60008381526007602052604090206005015483906001600160a01b0316336001600160a01b031614610da35760405162461bcd60e51b815260040161071290611c4d565b600084815260076020908152604080832080546001600160a01b0388811686526008855283862091168086529352922054841115610e0f5760405162461bcd60e51b8152602060048201526009602482015268125394d55197d0905360ba1b6044820152606401610712565b6001600160a01b038086166000908152600860209081526040808320938516835292905290812080548690039055600283018054869290610e51908490611cda565b90915550506040518481526001600160a01b0386169087907f38c48552690c96ec2872092ac1db6c19fb59f5a8c5b49bbf41ed4886d0ca69269060200160405180910390a3505050505050565b60606001805461062490611c13565b610eb8338383611456565b5050565b60008281526007602052604090206005015482906001600160a01b0316336001600160a01b031614610f005760405162461bcd60e51b815260040161071290611c4d565b610f0c8585858561151c565b5050505050565b6060610f1e82611018565b6000828152600760205260409081902060050154905163c87b56dd60e01b8152600481018490526001600160a01b039091169063c87b56dd90602401600060405180830381865afa158015610f77573d6000803e3d6000fd5b505050506040513d6000823e601f3d908101601f1916820160405261060f9190810190611ced565b610fa76110e5565b6001600160a01b03811661100c5760405162461bcd60e51b815260206004820152602660248201527f4f776e61626c653a206e6577206f776e657220697320746865207a65726f206160448201526564647265737360d01b6064820152608401610712565b61101581611404565b50565b6000818152600260205260409020546001600160a01b03166110155760405162461bcd60e51b8152602060048201526018602482015277115490cdcc8c4e881a5b9d985b1a59081d1bdad95b88125160421b6044820152606401610712565b600081815260046020526040902080546001600160a01b0319166001600160a01b03841690811790915581906110ac82610c4e565b6001600160a01b03167f8c5be1e5ebec7d5bd14f71427d1e84f3dd0314c0f7b2291e5b200ac8c7c3b92560405160405180910390a45050565b6006546001600160a01b03163314610d465760405162461bcd60e51b815260206004820181905260248201527f4f776e61626c653a2063616c6c6572206973206e6f7420746865206f776e65726044820152606401610712565b826001600160a01b031661115282610c4e565b6001600160a01b0316146111785760405162461bcd60e51b815260040161071290611d64565b6001600160a01b0382166111da5760405162461bcd60e51b8152602060048201526024808201527f4552433732313a207472616e7366657220746f20746865207a65726f206164646044820152637265737360e01b6064820152608401610712565b826001600160a01b03166111ed82610c4e565b6001600160a01b0316146112135760405162461bcd60e51b815260040161071290611d64565b600081815260046020908152604080832080546001600160a01b03199081169091556001600160a01b0387811680865260038552838620805460001901905590871680865283862080546001019055868652600290945282852080549092168417909155905184937fddf252ad1be2c89b69c2b068fc378daa952ba7f163c4a11628f55a4df523b3ef91a4505050565b610eb882826040518060200160405280600081525061154f565b6040516323b872dd60e01b81526001600160a01b038381166004830152306024830152604482018390528416906323b872dd906064016020604051808303816000875af1158015611312573d6000803e3d6000fd5b505050506040513d601f19601f820116820180604052508101906113369190611c94565b6113745760405162461bcd60e51b815260206004820152600f60248201526e151c985b9cd9995c8819985a5b1959608a1b6044820152606401610712565b6001600160a01b038083166000908152600860209081526040808320938716835292905290812080548392906113ab908490611cda565b92505081905550816001600160a01b0316836001600160a01b03167f8752a472e571a816aea92eec8dae9baf628e840f4929fbcc2d155e6233ff68a7836040516113f791815260200190565b60405180910390a3505050565b600680546001600160a01b038381166001600160a01b0319831681179093556040519116919082907f8be0079c531659141344cd1fd0a4f28419497f9722a3daafe3b4186f6b6457e090600090a35050565b816001600160a01b0316836001600160a01b0316036114b75760405162461bcd60e51b815260206004820152601960248201527f4552433732313a20617070726f766520746f2063616c6c6572000000000000006044820152606401610712565b6001600160a01b03838116600081815260056020908152604080832094871680845294825291829020805460ff191686151590811790915591519182527f17307eab39ab6107e8899845ad3d59bd9653f200f220920489ca2b5937696c3191016113f7565b61152784848461113f565b61153384848484611582565b6107e45760405162461bcd60e51b815260040161071290611da9565b6115598383611684565b6115666000848484611582565b6107255760405162461bcd60e51b815260040161071290611da9565b60006001600160a01b0384163b1561167857604051630a85bd0160e11b81526001600160a01b0385169063150b7a02906115c6903390899088908890600401611dfb565b6020604051808303816000875af1925050508015611601575060408051601f3d908101601f191682019092526115fe91810190611e38565b60015b61165e573d80801561162f576040519150601f19603f3d011682016040523d82523d6000602084013e611634565b606091505b5080516000036116565760405162461bcd60e51b815260040161071290611da9565b805181602001fd5b6001600160e01b031916630a85bd0160e11b14905061167c565b5060015b949350505050565b6001600160a01b0382166116da5760405162461bcd60e51b815260206004820181905260248201527f4552433732313a206d696e7420746f20746865207a65726f20616464726573736044820152606401610712565b6000818152600260205260409020546001600160a01b03161561173f5760405162461bcd60e51b815260206004820152601c60248201527f4552433732313a20746f6b656e20616c7265616479206d696e746564000000006044820152606401610712565b6000818152600260205260409020546001600160a01b0316156117a45760405162461bcd60e51b815260206004820152601c60248201527f4552433732313a20746f6b656e20616c7265616479206d696e746564000000006044820152606401610712565b6001600160a01b038216600081815260036020908152604080832080546001019055848352600290915280822080546001600160a01b0319168417905551839291907fddf252ad1be2c89b69c2b068fc378daa952ba7f163c4a11628f55a4df523b3ef908290a45050565b6001600160e01b03198116811461101557600080fd5b60006020828403121561183757600080fd5b81356118428161180f565b9392505050565b60005b8381101561186457818101518382015260200161184c565b50506000910152565b60008151808452611885816020860160208601611849565b601f01601f19169290920160200192915050565b602081526000611842602083018461186d565b6000602082840312156118be57600080fd5b5035919050565b6001600160a01b038116811461101557600080fd5b600080604083850312156118ed57600080fd5b82356118f8816118c5565b946020939093013593505050565b801515811461101557600080fd5b634e487b7160e01b600052604160045260246000fd5b604051601f8201601f1916810167ffffffffffffffff8111828210171561195357611953611914565b604052919050565b600067ffffffffffffffff82111561197557611975611914565b50601f01601f191660200190565b60006119966119918461195b565b61192a565b90508281528383830111156119aa57600080fd5b828260208301376000602084830101529392505050565b6000806000606084860312156119d657600080fd5b83356119e1816118c5565b925060208401356119f181611906565b9150604084013567ffffffffffffffff811115611a0d57600080fd5b8401601f81018613611a1e57600080fd5b611a2d86823560208401611983565b9150509250925092565b600080600060608486031215611a4c57600080fd5b8335611a57816118c5565b92506020840135611a67816118c5565b929592945050506040919091013590565b600080600060608486031215611a8d57600080fd5b833592506020840135611a67816118c5565b60008060008060008060c08789031215611ab857600080fd5b8635611ac3816118c5565b95506020870135611ad3816118c5565b94506040870135611ae3816118c5565b9350606087013592506080870135915060a0870135611b01816118c5565b809150509295509295509295565b600060208284031215611b2157600080fd5b8135611842816118c5565b60008060408385031215611b3f57600080fd5b8235611b4a816118c5565b91506020830135611b5a816118c5565b809150509250929050565b60008060408385031215611b7857600080fd5b8235611b83816118c5565b91506020830135611b5a81611906565b60008060008060808587031215611ba957600080fd5b8435611bb4816118c5565b93506020850135611bc4816118c5565b925060408501359150606085013567ffffffffffffffff811115611be757600080fd5b8501601f81018713611bf857600080fd5b611c0787823560208401611983565b91505092959194509250565b600181811c90821680611c2757607f821691505b602082108103611c4757634e487b7160e01b600052602260045260246000fd5b50919050565b60208082526012908201527127b7363c9031b432b893b990313937b5b2b960711b604082015260600190565b821515815260406020820152600061167c604083018461186d565b600060208284031215611ca657600080fd5b815161184281611906565b634e487b7160e01b600052601160045260246000fd5b8181038181111561060f5761060f611cb1565b8082018082111561060f5761060f611cb1565b600060208284031215611cff57600080fd5b815167ffffffffffffffff811115611d1657600080fd5b8201601f81018413611d2757600080fd5b8051611d356119918261195b565b818152856020838501011115611d4a57600080fd5b611d5b826020830160208601611849565b95945050505050565b60208082526025908201527f4552433732313a207472616e736665722066726f6d20696e636f72726563742060408201526437bbb732b960d91b606082015260800190565b60208082526032908201527f4552433732313a207472616e7366657220746f206e6f6e20455243373231526560408201527131b2b4bb32b91034b6b83632b6b2b73a32b960711b606082015260800190565b6001600160a01b0385811682528416602082015260408101839052608060608201819052600090611e2e9083018461186d565b9695505050505050565b600060208284031215611e4a57600080fd5b81516118428161180f56fea264697066735822122079234e5499d5aea1822602f88c55e24ed57e6956122176601587ce5cfc37960864736f6c63430008100033",
    "linkReferences": {}
  },
  "methodIdentifiers": {
    "approve(address,uint256)": "095ea7b3",
    "balanceOf(address)": "70a08231",
    "brokerWhitelist(address)": "d240f702",
    "cash(uint256,address,uint256)": "254388a3",
    "cheqAmount(uint256)": "98e05fcf",
    "cheqBroker(uint256)": "6521c5e9",
    "cheqDrawer(uint256)": "32c1efbb",
    "cheqEscrowed(uint256)": "c298c4d2",
    "cheqInfo(uint256)": "f7794942",
    "cheqRecipient(uint256)": "789a0496",
    "cheqToken(uint256)": "0b237b7a",
    "deposit(address,address,uint256)": "8340f549",
    "deposit(address,uint256)": "47e7ef24",
    "deposits(address,address)": "8f601f66",
    "fund(uint256,address,uint256)": "95d140a1",
    "getApproved(uint256)": "081812fc",
    "isApprovedForAll(address,address)": "e985e9c5",
    "name()": "06fdde03",
    "owner()": "8da5cb5b",
    "ownerOf(uint256)": "6352211e",
    "renounceOwnership()": "715018a6",
    "safeTransferFrom(address,address,uint256)": "42842e0e",
    "safeTransferFrom(address,address,uint256,bytes)": "b88d4fde",
    "setApprovalForAll(address,bool)": "a22cb465",
    "supportsInterface(bytes4)": "01ffc9a7",
    "symbol()": "95d89b41",
    "tokenURI(uint256)": "c87b56dd",
    "totalSupply()": "18160ddd",
    "transferFrom(address,address,uint256)": "23b872dd",
    "transferOwnership(address)": "f2fde38b",
    "whitelistBroker(address,bool,string)": "1dcfd5dc",
    "write(address,address,address,uint256,uint256,address)": "254fe606"
  },
  "id": 20
}