{
  "abi": [
    {
      "inputs": [
        {
          "internalType": "contract CRX",
          "name": "_cheq",
          "type": "address"
        }
      ],
      "stateMutability": "nonpayable",
      "type": "constructor"
    },
    {
      "inputs": [
        {
          "internalType": "uint256",
          "name": "",
          "type": "uint256"
        }
      ],
      "name": "blockCashTime",
      "outputs": [
        {
          "internalType": "uint256",
          "name": "",
          "type": "uint256"
        }
      ],
      "stateMutability": "view",
      "type": "function"
    },
    {
      "inputs": [
        {
          "internalType": "uint256",
          "name": "cheqId",
          "type": "uint256"
        },
        {
          "internalType": "uint256",
          "name": "amount",
          "type": "uint256"
        }
      ],
      "name": "cashCheq",
      "outputs": [],
      "stateMutability": "nonpayable",
      "type": "function"
    },
    {
      "inputs": [
        {
          "internalType": "uint256",
          "name": "cheqId",
          "type": "uint256"
        },
        {
          "internalType": "address",
          "name": "",
          "type": "address"
        },
        {
          "internalType": "uint256",
          "name": "",
          "type": "uint256"
        }
      ],
      "name": "cashable",
      "outputs": [
        {
          "internalType": "uint256",
          "name": "",
          "type": "uint256"
        }
      ],
      "stateMutability": "view",
      "type": "function"
    },
    {
      "inputs": [],
      "name": "cheq",
      "outputs": [
        {
          "internalType": "contract CRX",
          "name": "",
          "type": "address"
        }
      ],
      "stateMutability": "view",
      "type": "function"
    },
    {
      "inputs": [
        {
          "internalType": "uint256",
          "name": "cheqId",
          "type": "uint256"
        },
        {
          "internalType": "uint256",
          "name": "amount",
          "type": "uint256"
        }
      ],
      "name": "fundCheq",
      "outputs": [],
      "stateMutability": "nonpayable",
      "type": "function"
    },
    {
      "inputs": [
        {
          "internalType": "uint256",
          "name": "",
          "type": "uint256"
        },
        {
          "internalType": "address",
          "name": "",
          "type": "address"
        },
        {
          "internalType": "uint256",
          "name": "",
          "type": "uint256"
        }
      ],
      "name": "fundable",
      "outputs": [
        {
          "internalType": "uint256",
          "name": "",
          "type": "uint256"
        }
      ],
      "stateMutability": "pure",
      "type": "function"
    },
    {
      "inputs": [
        {
          "internalType": "uint256",
          "name": "",
          "type": "uint256"
        },
        {
          "internalType": "address",
          "name": "",
          "type": "address"
        },
        {
          "internalType": "address",
          "name": "",
          "type": "address"
        }
      ],
      "name": "isTransferable",
      "outputs": [
        {
          "internalType": "bool",
          "name": "",
          "type": "bool"
        }
      ],
      "stateMutability": "pure",
      "type": "function"
    },
    {
      "inputs": [
        {
          "internalType": "address",
          "name": "",
          "type": "address"
        },
        {
          "internalType": "contract IERC20",
          "name": "",
          "type": "address"
        },
        {
          "internalType": "uint256",
          "name": "",
          "type": "uint256"
        },
        {
          "internalType": "uint256",
          "name": "",
          "type": "uint256"
        },
        {
          "internalType": "address",
          "name": "",
          "type": "address"
        },
        {
          "internalType": "address",
          "name": "",
          "type": "address"
        }
      ],
      "name": "isWriteable",
      "outputs": [
        {
          "internalType": "bool",
          "name": "",
          "type": "bool"
        }
      ],
      "stateMutability": "pure",
      "type": "function"
    },
    {
      "inputs": [
        {
          "internalType": "uint256",
          "name": "tokenId",
          "type": "uint256"
        }
      ],
      "name": "tokenURI",
      "outputs": [
        {
          "internalType": "string",
          "name": "",
          "type": "string"
        }
      ],
      "stateMutability": "view",
      "type": "function"
    },
    {
      "inputs": [
        {
          "internalType": "uint256",
          "name": "cheqId",
          "type": "uint256"
        },
        {
          "internalType": "address",
          "name": "to",
          "type": "address"
        }
      ],
      "name": "transferCheq",
      "outputs": [],
      "stateMutability": "nonpayable",
      "type": "function"
    },
    {
      "inputs": [
        {
          "internalType": "contract IERC20",
          "name": "_token",
          "type": "address"
        },
        {
          "internalType": "uint256",
          "name": "amount",
          "type": "uint256"
        },
        {
          "internalType": "uint256",
          "name": "",
          "type": "uint256"
        },
        {
          "internalType": "address",
          "name": "",
          "type": "address"
        }
      ],
      "name": "writeCheq",
      "outputs": [
        {
          "internalType": "uint256",
          "name": "",
          "type": "uint256"
        }
      ],
      "stateMutability": "nonpayable",
      "type": "function"
    }
  ],
  "bytecode": {
    "object": "0x608060405234801561001057600080fd5b5060405161085438038061085483398101604081905261002f9161007e565b600080546001600160a01b0319166001600160a01b039290921691909117815580526001602052427fa6eef7e35abe7026729641147f7915573c7e97b47efa546f5f6e3230263bcb49556100ae565b60006020828403121561009057600080fd5b81516001600160a01b03811681146100a757600080fd5b9392505050565b610797806100bd6000396000f3fe608060405234801561001057600080fd5b50600436106100a95760003560e01c8063809d6f8311610071578063809d6f831461014657806391a6262f14610171578063a0a0ea751461017f578063a8e6273714610192578063c87b56dd146101a5578063d2a840e0146101c557600080fd5b8063049f26a9146100ae5780631d3ded5f146100d457806354d4310a146100e95780637ba06c1114610113578063803c655114610126575b600080fd5b6100c16100bc366004610519565b6101d8565b6040519081526020015b60405180910390f35b6100e76100e2366004610551565b6101e2565b005b6101036100f7366004610581565b60019695505050505050565b60405190151581526020016100cb565b6100e76101213660046105f1565b61029a565b6100c1610134366004610613565b60016020526000908152604090205481565b600054610159906001600160a01b031681565b6040516001600160a01b0390911681526020016100cb565b6101036100bc36600461062c565b6100c161018d366004610519565b610361565b6100c16101a036600461066e565b610368565b6101b86101b3366004610613565b610442565b6040516100cb91906106b8565b6100e76101d33660046105f1565b61046d565b60005b9392505050565b6101ed8233836101d8565b61022a5760405162461bcd60e51b81526020600482015260096024820152682737ba1037bbb732b960b91b60448201526064015b60405180910390fd5b6000546040516323b872dd60e01b81523360048201526001600160a01b03838116602483015260448201859052909116906323b872dd90606401600060405180830381600087803b15801561027e57600080fd5b505af1158015610292573d6000803e3d6000fd5b505050505050565b60006102a78333846101d8565b90508181146102f05760405162461bcd60e51b815260206004820152601560248201527410d85b9d08199d5b99081d1a1a5cc8185b5bdd5b9d605a1b6044820152606401610221565b6000546040516395d140a160e01b815260048101859052336024820152604481018490526001600160a01b03909116906395d140a1906064015b600060405180830381600087803b15801561034457600080fd5b505af1158015610358573d6000803e3d6000fd5b50505050505050565b60006101db565b600080546040516312a7f30360e11b815233600482015230602482018190526001600160a01b038881166044840152606483018890526084830188905260a48301919091528392169063254fe6069060c4016020604051808303816000875af11580156103d9573d6000803e3d6000fd5b505050506040513d601f19601f820116820180604052508101906103fd9190610706565b90506001600061040d8284610735565b8152602001908152602001600020546201518061042a919061074e565b60008281526001602052604090205595945050505050565b60608160405160200161045791815260200190565b6040516020818303038152906040529050919050565b600061047a833384610361565b90508181146104c35760405162461bcd60e51b815260206004820152601560248201527410d85b9d0818d85cda081d1a1a5cc8185b5bdd5b9d605a1b6044820152606401610221565b60005460405163254388a360e01b815260048101859052336024820152604481018490526001600160a01b039091169063254388a39060640161032a565b6001600160a01b038116811461051657600080fd5b50565b60008060006060848603121561052e57600080fd5b83359250602084013561054081610501565b929592945050506040919091013590565b6000806040838503121561056457600080fd5b82359150602083013561057681610501565b809150509250929050565b60008060008060008060c0878903121561059a57600080fd5b86356105a581610501565b955060208701356105b581610501565b9450604087013593506060870135925060808701356105d381610501565b915060a08701356105e381610501565b809150509295509295509295565b6000806040838503121561060457600080fd5b50508035926020909101359150565b60006020828403121561062557600080fd5b5035919050565b60008060006060848603121561064157600080fd5b83359250602084013561065381610501565b9150604084013561066381610501565b809150509250925092565b6000806000806080858703121561068457600080fd5b843561068f81610501565b9350602085013592506040850135915060608501356106ad81610501565b939692955090935050565b600060208083528351808285015260005b818110156106e5578581018301518582016040015282016106c9565b506000604082860101526040601f19601f8301168501019250505092915050565b60006020828403121561071857600080fd5b5051919050565b634e487b7160e01b600052601160045260246000fd5b818103818111156107485761074861071f565b92915050565b808201808211156107485761074861071f56fea26469706673582212204e1241bf39973d2bcde638e837a20ba6c5e64b53c038c4dc5eb503caadd9a11064736f6c63430008100033",
    "linkReferences": {}
  },
  "methodIdentifiers": {
    "blockCashTime(uint256)": "803c6551",
    "cashCheq(uint256,uint256)": "d2a840e0",
    "cashable(uint256,address,uint256)": "a0a0ea75",
    "cheq()": "809d6f83",
    "fundCheq(uint256,uint256)": "7ba06c11",
    "fundable(uint256,address,uint256)": "049f26a9",
    "isTransferable(uint256,address,address)": "91a6262f",
    "isWriteable(address,address,uint256,uint256,address,address)": "54d4310a",
    "tokenURI(uint256)": "c87b56dd",
    "transferCheq(uint256,address)": "1d3ded5f",
    "writeCheq(address,uint256,uint256,address)": "a8e62737"
  },
  "id": 31
}