{
  "abi": [
    {
      "inputs": [
        {
          "internalType": "contract CRX",
          "name": "_cheq",
          "type": "address"
        },
        {
          "internalType": "uint256",
          "name": "settlementTime",
          "type": "uint256"
        }
      ],
      "stateMutability": "nonpayable",
      "type": "constructor"
    },
    {
      "anonymous": false,
      "inputs": [
        {
          "indexed": true,
          "internalType": "address",
          "name": "previousOwner",
          "type": "address"
        },
        {
          "indexed": true,
          "internalType": "address",
          "name": "newOwner",
          "type": "address"
        }
      ],
      "name": "OwnershipTransferred",
      "type": "event"
    },
    {
      "inputs": [
        {
          "internalType": "uint256",
          "name": "cheqId",
          "type": "uint256"
        },
        {
          "internalType": "uint256",
          "name": "amount",
          "type": "uint256"
        }
      ],
      "name": "cashCheq",
      "outputs": [],
      "stateMutability": "nonpayable",
      "type": "function"
    },
    {
      "inputs": [
        {
          "internalType": "uint256",
          "name": "cheqId",
          "type": "uint256"
        },
        {
          "internalType": "address",
          "name": "caller",
          "type": "address"
        },
        {
          "internalType": "uint256",
          "name": "",
          "type": "uint256"
        }
      ],
      "name": "cashable",
      "outputs": [
        {
          "internalType": "uint256",
          "name": "",
          "type": "uint256"
        }
      ],
      "stateMutability": "view",
      "type": "function"
    },
    {
      "inputs": [],
      "name": "cheq",
      "outputs": [
        {
          "internalType": "contract CRX",
          "name": "",
          "type": "address"
        }
      ],
      "stateMutability": "view",
      "type": "function"
    },
    {
      "inputs": [
        {
          "internalType": "uint256",
          "name": "",
          "type": "uint256"
        }
      ],
      "name": "cheqCreated",
      "outputs": [
        {
          "internalType": "uint256",
          "name": "",
          "type": "uint256"
        }
      ],
      "stateMutability": "view",
      "type": "function"
    },
    {
      "inputs": [
        {
          "internalType": "uint256",
          "name": "",
          "type": "uint256"
        }
      ],
      "name": "cheqIsPaused",
      "outputs": [
        {
          "internalType": "bool",
          "name": "",
          "type": "bool"
        }
      ],
      "stateMutability": "view",
      "type": "function"
    },
    {
      "inputs": [
        {
          "internalType": "uint256",
          "name": "",
          "type": "uint256"
        },
        {
          "internalType": "uint256",
          "name": "",
          "type": "uint256"
        }
      ],
      "name": "fundCheq",
      "outputs": [],
      "stateMutability": "pure",
      "type": "function"
    },
    {
      "inputs": [
        {
          "internalType": "uint256",
          "name": "",
          "type": "uint256"
        },
        {
          "internalType": "address",
          "name": "",
          "type": "address"
        },
        {
          "internalType": "uint256",
          "name": "",
          "type": "uint256"
        }
      ],
      "name": "fundable",
      "outputs": [
        {
          "internalType": "uint256",
          "name": "",
          "type": "uint256"
        }
      ],
      "stateMutability": "pure",
      "type": "function"
    },
    {
      "inputs": [
        {
          "internalType": "uint256",
          "name": "",
          "type": "uint256"
        },
        {
          "internalType": "address",
          "name": "",
          "type": "address"
        },
        {
          "internalType": "address",
          "name": "",
          "type": "address"
        }
      ],
      "name": "isTransferable",
      "outputs": [
        {
          "internalType": "bool",
          "name": "",
          "type": "bool"
        }
      ],
      "stateMutability": "pure",
      "type": "function"
    },
    {
      "inputs": [
        {
          "internalType": "address",
          "name": "sender",
          "type": "address"
        },
        {
          "internalType": "contract IERC20",
          "name": "token",
          "type": "address"
        },
        {
          "internalType": "uint256",
          "name": "amount",
          "type": "uint256"
        },
        {
          "internalType": "uint256",
          "name": "escrowed",
          "type": "uint256"
        },
        {
          "internalType": "address",
          "name": "recipient",
          "type": "address"
        },
        {
          "internalType": "address",
          "name": "owner",
          "type": "address"
        }
      ],
      "name": "isWriteable",
      "outputs": [
        {
          "internalType": "bool",
          "name": "",
          "type": "bool"
        }
      ],
      "stateMutability": "view",
      "type": "function"
    },
    {
      "inputs": [],
      "name": "owner",
      "outputs": [
        {
          "internalType": "address",
          "name": "",
          "type": "address"
        }
      ],
      "stateMutability": "view",
      "type": "function"
    },
    {
      "inputs": [
        {
          "internalType": "uint256",
          "name": "cheqId",
          "type": "uint256"
        },
        {
          "internalType": "bool",
          "name": "isPaused",
          "type": "bool"
        }
      ],
      "name": "pauseCheq",
      "outputs": [],
      "stateMutability": "nonpayable",
      "type": "function"
    },
    {
      "inputs": [],
      "name": "renounceOwnership",
      "outputs": [],
      "stateMutability": "nonpayable",
      "type": "function"
    },
    {
      "inputs": [],
      "name": "settlementPeriod",
      "outputs": [
        {
          "internalType": "uint256",
          "name": "",
          "type": "uint256"
        }
      ],
      "stateMutability": "view",
      "type": "function"
    },
    {
      "inputs": [
        {
          "internalType": "uint256",
          "name": "tokenId",
          "type": "uint256"
        }
      ],
      "name": "tokenURI",
      "outputs": [
        {
          "internalType": "string",
          "name": "",
          "type": "string"
        }
      ],
      "stateMutability": "view",
      "type": "function"
    },
    {
      "inputs": [
        {
          "internalType": "contract IERC20",
          "name": "",
          "type": "address"
        }
      ],
      "name": "tokenWhitelist",
      "outputs": [
        {
          "internalType": "bool",
          "name": "",
          "type": "bool"
        }
      ],
      "stateMutability": "view",
      "type": "function"
    },
    {
      "inputs": [
        {
          "internalType": "uint256",
          "name": "",
          "type": "uint256"
        },
        {
          "internalType": "address",
          "name": "",
          "type": "address"
        }
      ],
      "name": "transferCheq",
      "outputs": [],
      "stateMutability": "pure",
      "type": "function"
    },
    {
      "inputs": [
        {
          "internalType": "address",
          "name": "newOwner",
          "type": "address"
        }
      ],
      "name": "transferOwnership",
      "outputs": [],
      "stateMutability": "nonpayable",
      "type": "function"
    },
    {
      "inputs": [
        {
          "internalType": "address",
          "name": "",
          "type": "address"
        }
      ],
      "name": "userWhitelist",
      "outputs": [
        {
          "internalType": "bool",
          "name": "",
          "type": "bool"
        }
      ],
      "stateMutability": "view",
      "type": "function"
    },
    {
      "inputs": [
        {
          "internalType": "contract IERC20",
          "name": "token",
          "type": "address"
        },
        {
          "internalType": "bool",
          "name": "isAccepted",
          "type": "bool"
        }
      ],
      "name": "whitelistToken",
      "outputs": [],
      "stateMutability": "nonpayable",
      "type": "function"
    },
    {
      "inputs": [
        {
          "internalType": "address",
          "name": "user",
          "type": "address"
        },
        {
          "internalType": "bool",
          "name": "isAccepted",
          "type": "bool"
        }
      ],
      "name": "whitelistUser",
      "outputs": [],
      "stateMutability": "nonpayable",
      "type": "function"
    },
    {
      "inputs": [
        {
          "internalType": "contract IERC20",
          "name": "_token",
          "type": "address"
        },
        {
          "internalType": "uint256",
          "name": "amount",
          "type": "uint256"
        },
        {
          "internalType": "uint256",
          "name": "escrow",
          "type": "uint256"
        },
        {
          "internalType": "address",
          "name": "recipient",
          "type": "address"
        }
      ],
      "name": "writeCheq",
      "outputs": [
        {
          "internalType": "uint256",
          "name": "",
          "type": "uint256"
        }
      ],
      "stateMutability": "nonpayable",
      "type": "function"
    }
  ],
  "bytecode": {
    "object": "0x608060405234801561001057600080fd5b50604051610d9b380380610d9b83398101604081905261002f916100b1565b61003833610061565b600180546001600160a01b0319166001600160a01b0393909316929092179091556006556100eb565b600080546001600160a01b038381166001600160a01b0319831681178455604051919092169283917f8be0079c531659141344cd1fd0a4f28419497f9722a3daafe3b4186f6b6457e09190a35050565b600080604083850312156100c457600080fd5b82516001600160a01b03811681146100db57600080fd5b6020939093015192949293505050565b610ca1806100fa6000396000f3fe608060405234801561001057600080fd5b50600436106101375760003560e01c806389165dcf116100b8578063a8e627371161007c578063a8e627371461029a578063c87b56dd146102ad578063d2a840e0146102cd578063d741b9c3146102e0578063dcc1e45a14610303578063f2fde38b1461032357600080fd5b806389165dcf146102325780638da5cb5b1461025557806391a6262f14610266578063a0a0ea7514610274578063a0ca3ee11461028757600080fd5b806354d4310a116100ff57806354d4310a146101a6578063715018a6146101c9578063753d7563146101d15780637ba06c11146101f4578063809d6f831461020757600080fd5b8063049f26a91461013c5780630f1071be146101625780630ffb1d8b1461016b5780631d3ded5f146101805780632ae30d0d14610193575b600080fd5b61014f61014a366004610997565b610336565b6040519081526020015b60405180910390f35b61014f60065481565b61017e6101793660046109e4565b610340565b005b61017e61018e366004610a19565b610373565b61017e6101a1366004610a49565b6103b0565b6101b96101b4366004610a6c565b6103d8565b6040519015158152602001610159565b61017e61047b565b6101b96101df366004610adc565b60056020526000908152604090205460ff1681565b61017e610202366004610af9565b61048f565b60015461021a906001600160a01b031681565b6040516001600160a01b039091168152602001610159565b6101b9610240366004610b1b565b60036020526000908152604090205460ff1681565b6000546001600160a01b031661021a565b6101b961014a366004610b34565b61014f610282366004610997565b6104c3565b61017e6102953660046109e4565b610602565b61014f6102a8366004610b76565b610635565b6102c06102bb366004610b1b565b61072f565b6040516101599190610bc0565b61017e6102db366004610af9565b61075a565b6101b96102ee366004610adc565b60046020526000908152604090205460ff1681565b61014f610311366004610b1b565b60026020526000908152604090205481565b61017e610331366004610adc565b61085f565b60005b9392505050565b6103486108d8565b6001600160a01b03919091166000908152600560205260409020805460ff1916911515919091179055565b60405162461bcd60e51b815260206004820152600d60248201526c21b0b73a103a3930b739b332b960991b60448201526064015b60405180910390fd5b6103b86108d8565b600091825260036020526040909120805460ff1916911515919091179055565b6001600160a01b03851660009081526005602052604081205460ff16801561041857506001600160a01b03871660009081526004602052604090205460ff165b801561043c57506001600160a01b03831660009081526004602052604090205460ff165b801561044757508385145b80156104645750826001600160a01b0316826001600160a01b0316145b80156104705750600085115b979650505050505050565b6104836108d8565b61048d6000610932565b565b60405162461bcd60e51b815260206004820152600960248201526810d85b9d08199d5b9960ba1b60448201526064016103a7565b6001546040516331a9108f60e11b8152600481018590526000916001600160a01b0385811692911690636352211e90602401602060405180830381865afa158015610512573d6000803e3d6000fd5b505050506040513d601f19601f820116820180604052508101906105369190610c0e565b6001600160a01b03161480156105665750600654600085815260026020526040902054429161056491610c2b565b115b8015610581575060008481526003602052604090205460ff16155b156105fa5760015460405163614c626960e11b8152600481018690526001600160a01b039091169063c298c4d290602401602060405180830381865afa1580156105cf573d6000803e3d6000fd5b505050506040513d601f19601f820116820180604052508101906105f39190610c52565b9050610339565b506000610339565b61060a6108d8565b6001600160a01b03919091166000908152600460205260409020805460ff1916911515919091179055565b60006106453386868686876103d8565b6106805760405162461bcd60e51b815260206004820152600c60248201526b4e6f74205772697461626c6560a01b60448201526064016103a7565b6001546040516312a7f30360e11b81523360048201526001600160a01b03848116602483018190528882166044840152606483018890526084830187905260a4830152600092169063254fe6069060c4016020604051808303816000875af11580156106f0573d6000803e3d6000fd5b505050506040513d601f19601f820116820180604052508101906107149190610c52565b60008181526002602052604090204290559695505050505050565b60608160405160200161074491815260200190565b6040516020818303038152906040529050919050565b60006107678333846104c3565b9050600081116107a85760405162461bcd60e51b815260206004820152600c60248201526b4e6f74206361736861626c6560a01b60448201526064016103a7565b8181146107ef5760405162461bcd60e51b815260206004820152601560248201527410d85b9d0818d85cda081d1a1a5cc8185b5bdd5b9d605a1b60448201526064016103a7565b60015460405163254388a360e01b815260048101859052336024820152604481018490526001600160a01b039091169063254388a390606401600060405180830381600087803b15801561084257600080fd5b505af1158015610856573d6000803e3d6000fd5b50505050505050565b6108676108d8565b6001600160a01b0381166108cc5760405162461bcd60e51b815260206004820152602660248201527f4f776e61626c653a206e6577206f776e657220697320746865207a65726f206160448201526564647265737360d01b60648201526084016103a7565b6108d581610932565b50565b6000546001600160a01b0316331461048d5760405162461bcd60e51b815260206004820181905260248201527f4f776e61626c653a2063616c6c6572206973206e6f7420746865206f776e657260448201526064016103a7565b600080546001600160a01b038381166001600160a01b0319831681178455604051919092169283917f8be0079c531659141344cd1fd0a4f28419497f9722a3daafe3b4186f6b6457e09190a35050565b6001600160a01b03811681146108d557600080fd5b6000806000606084860312156109ac57600080fd5b8335925060208401356109be81610982565b929592945050506040919091013590565b803580151581146109df57600080fd5b919050565b600080604083850312156109f757600080fd5b8235610a0281610982565b9150610a10602084016109cf565b90509250929050565b60008060408385031215610a2c57600080fd5b823591506020830135610a3e81610982565b809150509250929050565b60008060408385031215610a5c57600080fd5b82359150610a10602084016109cf565b60008060008060008060c08789031215610a8557600080fd5b8635610a9081610982565b95506020870135610aa081610982565b945060408701359350606087013592506080870135610abe81610982565b915060a0870135610ace81610982565b809150509295509295509295565b600060208284031215610aee57600080fd5b813561033981610982565b60008060408385031215610b0c57600080fd5b50508035926020909101359150565b600060208284031215610b2d57600080fd5b5035919050565b600080600060608486031215610b4957600080fd5b833592506020840135610b5b81610982565b91506040840135610b6b81610982565b809150509250925092565b60008060008060808587031215610b8c57600080fd5b8435610b9781610982565b935060208501359250604085013591506060850135610bb581610982565b939692955090935050565b600060208083528351808285015260005b81811015610bed57858101830151858201604001528201610bd1565b506000604082860101526040601f19601f8301168501019250505092915050565b600060208284031215610c2057600080fd5b815161033981610982565b80820180821115610c4c57634e487b7160e01b600052601160045260246000fd5b92915050565b600060208284031215610c6457600080fd5b505191905056fea2646970667358221220fe070a085a435f823560b8a4c7ba47fb6dbca55abba7be51e277855ef75493b064736f6c63430008100033",
    "linkReferences": {}
  },
  "methodIdentifiers": {
    "cashCheq(uint256,uint256)": "d2a840e0",
    "cashable(uint256,address,uint256)": "a0a0ea75",
    "cheq()": "809d6f83",
    "cheqCreated(uint256)": "dcc1e45a",
    "cheqIsPaused(uint256)": "89165dcf",
    "fundCheq(uint256,uint256)": "7ba06c11",
    "fundable(uint256,address,uint256)": "049f26a9",
    "isTransferable(uint256,address,address)": "91a6262f",
    "isWriteable(address,address,uint256,uint256,address,address)": "54d4310a",
    "owner()": "8da5cb5b",
    "pauseCheq(uint256,bool)": "2ae30d0d",
    "renounceOwnership()": "715018a6",
    "settlementPeriod()": "0f1071be",
    "tokenURI(uint256)": "c87b56dd",
    "tokenWhitelist(address)": "753d7563",
    "transferCheq(uint256,address)": "1d3ded5f",
    "transferOwnership(address)": "f2fde38b",
    "userWhitelist(address)": "d741b9c3",
    "whitelistToken(address,bool)": "0ffb1d8b",
    "whitelistUser(address,bool)": "a0ca3ee1",
    "writeCheq(address,uint256,uint256,address)": "a8e62737"
  },
  "id": 20
}