{
  "abi": [
    {
      "inputs": [
        {
          "internalType": "address",
          "name": "registrar",
          "type": "address"
        },
        {
          "components": [
            {
              "internalType": "uint256",
              "name": "writeBPS",
              "type": "uint256"
            },
            {
              "internalType": "uint256",
              "name": "transferBPS",
              "type": "uint256"
            },
            {
              "internalType": "uint256",
              "name": "fundBPS",
              "type": "uint256"
            },
            {
              "internalType": "uint256",
              "name": "cashBPS",
              "type": "uint256"
            }
          ],
          "internalType": "struct DataTypes.WTFCFees",
          "name": "_fees",
          "type": "tuple"
        },
        {
          "internalType": "string",
          "name": "__baseURI",
          "type": "string"
        }
      ],
      "stateMutability": "nonpayable",
      "type": "constructor"
    },
    {
      "inputs": [],
      "name": "InitParamsInvalid",
      "type": "error"
    },
    {
      "inputs": [],
      "name": "NotRegistrar",
      "type": "error"
    },
    {
      "inputs": [],
      "name": "REGISTRAR",
      "outputs": [
        {
          "internalType": "address",
          "name": "",
          "type": "address"
        }
      ],
      "stateMutability": "view",
      "type": "function"
    },
    {
      "inputs": [],
      "name": "_URI",
      "outputs": [
        {
          "internalType": "string",
          "name": "",
          "type": "string"
        }
      ],
      "stateMutability": "view",
      "type": "function"
    },
    {
      "inputs": [],
      "name": "fees",
      "outputs": [
        {
          "internalType": "uint256",
          "name": "writeBPS",
          "type": "uint256"
        },
        {
          "internalType": "uint256",
          "name": "transferBPS",
          "type": "uint256"
        },
        {
          "internalType": "uint256",
          "name": "fundBPS",
          "type": "uint256"
        },
        {
          "internalType": "uint256",
          "name": "cashBPS",
          "type": "uint256"
        }
      ],
      "stateMutability": "view",
      "type": "function"
    },
    {
      "inputs": [],
      "name": "getFees",
      "outputs": [
        {
          "internalType": "uint256",
          "name": "",
          "type": "uint256"
        },
        {
          "internalType": "uint256",
          "name": "",
          "type": "uint256"
        },
        {
          "internalType": "uint256",
          "name": "",
          "type": "uint256"
        },
        {
          "internalType": "uint256",
          "name": "",
          "type": "uint256"
        }
      ],
      "stateMutability": "view",
      "type": "function"
    },
    {
      "inputs": [
        {
          "internalType": "uint256",
          "name": "cheqId",
          "type": "uint256"
        }
      ],
      "name": "getMilestones",
      "outputs": [
        {
          "components": [
            {
              "internalType": "uint256",
              "name": "amount",
              "type": "uint256"
            },
            {
              "internalType": "bool",
              "name": "isCashed",
              "type": "bool"
            }
          ],
          "internalType": "struct Milestones.Milestone[]",
          "name": "",
          "type": "tuple[]"
        }
      ],
      "stateMutability": "view",
      "type": "function"
    },
    {
      "inputs": [
        {
          "internalType": "uint256",
          "name": "",
          "type": "uint256"
        }
      ],
      "name": "invoices",
      "outputs": [
        {
          "internalType": "address",
          "name": "client",
          "type": "address"
        },
        {
          "internalType": "address",
          "name": "worker",
          "type": "address"
        },
        {
          "internalType": "uint256",
          "name": "startTime",
          "type": "uint256"
        },
        {
          "internalType": "uint256",
          "name": "currentMilestone",
          "type": "uint256"
        },
        {
          "internalType": "uint256",
          "name": "totalMilestones",
          "type": "uint256"
        },
        {
          "internalType": "bytes32",
          "name": "documentHash",
          "type": "bytes32"
        }
      ],
      "stateMutability": "view",
      "type": "function"
    },
    {
      "inputs": [
        {
          "internalType": "uint256",
          "name": "",
          "type": "uint256"
        },
        {
          "internalType": "uint256",
          "name": "",
          "type": "uint256"
        }
      ],
      "name": "milestones",
      "outputs": [
        {
          "internalType": "uint256",
          "name": "amount",
          "type": "uint256"
        },
        {
          "internalType": "bool",
          "name": "isCashed",
          "type": "bool"
        }
      ],
      "stateMutability": "view",
      "type": "function"
    },
    {
      "inputs": [
        {
          "internalType": "address",
          "name": "",
          "type": "address"
        },
        {
          "internalType": "address",
          "name": "",
          "type": "address"
        },
        {
          "internalType": "address",
          "name": "",
          "type": "address"
        },
        {
          "internalType": "uint256",
          "name": "",
          "type": "uint256"
        },
        {
          "components": [
            {
              "internalType": "address",
              "name": "currency",
              "type": "address"
            },
            {
              "internalType": "uint256",
              "name": "escrowed",
              "type": "uint256"
            },
            {
              "internalType": "uint256",
              "name": "createdAt",
              "type": "uint256"
            },
            {
              "internalType": "address",
              "name": "module",
              "type": "address"
            }
          ],
          "internalType": "struct DataTypes.Cheq",
          "name": "",
          "type": "tuple"
        },
        {
          "internalType": "bytes",
          "name": "",
          "type": "bytes"
        }
      ],
      "name": "processApproval",
      "outputs": [],
      "stateMutability": "view",
      "type": "function"
    },
    {
      "inputs": [
        {
          "internalType": "address",
          "name": "",
          "type": "address"
        },
        {
          "internalType": "address",
          "name": "owner",
          "type": "address"
        },
        {
          "internalType": "address",
          "name": "to",
          "type": "address"
        },
        {
          "internalType": "uint256",
          "name": "amount",
          "type": "uint256"
        },
        {
          "internalType": "uint256",
          "name": "cheqId",
          "type": "uint256"
        },
        {
          "components": [
            {
              "internalType": "address",
              "name": "currency",
              "type": "address"
            },
            {
              "internalType": "uint256",
              "name": "escrowed",
              "type": "uint256"
            },
            {
              "internalType": "uint256",
              "name": "createdAt",
              "type": "uint256"
            },
            {
              "internalType": "address",
              "name": "module",
              "type": "address"
            }
          ],
          "internalType": "struct DataTypes.Cheq",
          "name": "cheq",
          "type": "tuple"
        },
        {
          "internalType": "bytes",
          "name": "initData",
          "type": "bytes"
        }
      ],
      "name": "processCash",
      "outputs": [
        {
          "internalType": "uint256",
          "name": "",
          "type": "uint256"
        }
      ],
      "stateMutability": "nonpayable",
      "type": "function"
    },
    {
      "inputs": [
        {
          "internalType": "address",
          "name": "",
          "type": "address"
        },
        {
          "internalType": "address",
          "name": "",
          "type": "address"
        },
        {
          "internalType": "uint256",
          "name": "amount",
          "type": "uint256"
        },
        {
          "internalType": "uint256",
          "name": "instant",
          "type": "uint256"
        },
        {
          "internalType": "uint256",
          "name": "cheqId",
          "type": "uint256"
        },
        {
          "components": [
            {
              "internalType": "address",
              "name": "currency",
              "type": "address"
            },
            {
              "internalType": "uint256",
              "name": "escrowed",
              "type": "uint256"
            },
            {
              "internalType": "uint256",
              "name": "createdAt",
              "type": "uint256"
            },
            {
              "internalType": "address",
              "name": "module",
              "type": "address"
            }
          ],
          "internalType": "struct DataTypes.Cheq",
          "name": "cheq",
          "type": "tuple"
        },
        {
          "internalType": "bytes",
          "name": "initData",
          "type": "bytes"
        }
      ],
      "name": "processFund",
      "outputs": [
        {
          "internalType": "uint256",
          "name": "",
          "type": "uint256"
        }
      ],
      "stateMutability": "nonpayable",
      "type": "function"
    },
    {
      "inputs": [
        {
          "internalType": "uint256",
          "name": "tokenId",
          "type": "uint256"
        }
      ],
      "name": "processTokenURI",
      "outputs": [
        {
          "internalType": "string",
          "name": "",
          "type": "string"
        }
      ],
      "stateMutability": "view",
      "type": "function"
    },
    {
      "inputs": [
        {
          "internalType": "address",
          "name": "",
          "type": "address"
        },
        {
          "internalType": "address",
          "name": "",
          "type": "address"
        },
        {
          "internalType": "address",
          "name": "",
          "type": "address"
        },
        {
          "internalType": "address",
          "name": "",
          "type": "address"
        },
        {
          "internalType": "address",
          "name": "",
          "type": "address"
        },
        {
          "internalType": "uint256",
          "name": "",
          "type": "uint256"
        },
        {
          "internalType": "address",
          "name": "",
          "type": "address"
        },
        {
          "internalType": "uint256",
          "name": "",
          "type": "uint256"
        },
        {
          "internalType": "uint256",
          "name": "",
          "type": "uint256"
        },
        {
          "internalType": "bytes",
          "name": "",
          "type": "bytes"
        }
      ],
      "name": "processTransfer",
      "outputs": [
        {
          "internalType": "uint256",
          "name": "",
          "type": "uint256"
        }
      ],
      "stateMutability": "view",
      "type": "function"
    },
    {
      "inputs": [
        {
          "internalType": "address",
          "name": "caller",
          "type": "address"
        },
        {
          "internalType": "address",
          "name": "owner",
          "type": "address"
        },
        {
          "internalType": "uint256",
          "name": "cheqId",
          "type": "uint256"
        },
        {
          "internalType": "address",
          "name": "currency",
          "type": "address"
        },
        {
          "internalType": "uint256",
          "name": "escrowed",
          "type": "uint256"
        },
        {
          "internalType": "uint256",
          "name": "instant",
          "type": "uint256"
        },
        {
          "internalType": "bytes",
          "name": "initData",
          "type": "bytes"
        }
      ],
      "name": "processWrite",
      "outputs": [
        {
          "internalType": "uint256",
          "name": "",
          "type": "uint256"
        }
      ],
      "stateMutability": "nonpayable",
      "type": "function"
    },
    {
      "inputs": [
        {
          "internalType": "address",
          "name": "",
          "type": "address"
        },
        {
          "internalType": "address",
          "name": "",
          "type": "address"
        }
      ],
      "name": "revenue",
      "outputs": [
        {
          "internalType": "uint256",
          "name": "",
          "type": "uint256"
        }
      ],
      "stateMutability": "view",
      "type": "function"
    },
    {
      "inputs": [
        {
          "internalType": "address",
          "name": "token",
          "type": "address"
        }
      ],
      "name": "withdrawFees",
      "outputs": [],
      "stateMutability": "nonpayable",
      "type": "function"
    }
  ],
  "bytecode": {
    "object": "0x60a06040523480156200001157600080fd5b5060405162001d1538038062001d158339810160408190526200003491620002f9565b82826001600160a01b0382166200005e576040516348be0eb360e01b815260040160405180910390fd5b6001600160a01b038216608052805161271011620000b25760405162461bcd60e51b8152602060048201526014602482015260008051602062001cf583398151915260448201526064015b60405180910390fd5b612710816020015110620000f85760405162461bcd60e51b8152602060048201526014602482015260008051602062001cf58339815191526044820152606401620000a9565b6127108160400151106200013e5760405162461bcd60e51b8152602060048201526014602482015260008051602062001cf58339815191526044820152606401620000a9565b612710816060015110620001845760405162461bcd60e51b8152602060048201526014602482015260008051602062001cf58339815191526044820152606401620000a9565b80516002556020808201516003556040808301516004556060830151600555514281526001600160a01b038416917ff1a1fa6b64aa95186f5a1285e76198d0da80d9c5a88062641d447f1d7c54e56c910160405180910390a25060009050620001ee828262000431565b50505050620004fd565b634e487b7160e01b600052604160045260246000fd5b604051608081016001600160401b0381118282101715620002335762000233620001f8565b60405290565b604051601f8201601f191681016001600160401b0381118282101715620002645762000264620001f8565b604052919050565b600082601f8301126200027e57600080fd5b81516001600160401b038111156200029a576200029a620001f8565b6020620002b0601f8301601f1916820162000239565b8281528582848701011115620002c557600080fd5b60005b83811015620002e5578581018301518282018401528201620002c8565b506000928101909101919091529392505050565b600080600083850360c08112156200031057600080fd5b84516001600160a01b03811681146200032857600080fd5b93506080601f19820112156200033d57600080fd5b50620003486200020e565b602085015181526040850151602082015260608501516040820152608085015160608201528092505060a084015160018060401b038111156200038a57600080fd5b62000398868287016200026c565b9150509250925092565b600181811c90821680620003b757607f821691505b602082108103620003d857634e487b7160e01b600052602260045260246000fd5b50919050565b601f8211156200042c57600081815260208120601f850160051c81016020861015620004075750805b601f850160051c820191505b81811015620004285782815560010162000413565b5050505b505050565b81516001600160401b038111156200044d576200044d620001f8565b62000465816200045e8454620003a2565b84620003de565b602080601f8311600181146200049d5760008415620004845750858301515b600019600386901b1c1916600185901b17855562000428565b600085815260208120601f198616915b82811015620004ce57888601518255948401946001909101908401620004ad565b5085821015620004ed5787850151600019600388901b60f8161c191681555b5050505050600190811b01905550565b6080516117a462000551600039600081816102cc01528181610337015281816105cf0152818161073c0152818161086c01528181610c3b01528181610d8f01528181610e270152610eab01526117a46000f3fe608060405234801561001057600080fd5b50600436106100f55760003560e01c80639af1d35a11610097578063c0c9572c11610066578063c0c9572c146102b4578063cb609077146102c7578063db8d55f114610306578063e41759681461031757600080fd5b80639af1d35a14610250578063b4e87e8f14610286578063b5d701ba1461028e578063be2f3fdd146102a157600080fd5b806342c549c0116100d357806342c549c01461015d5780634e6d14051461017d5780634fe17e1a146102055780639a0ea37a1461022557600080fd5b806306890cd0146100fa578063164e68de146101205780631c376c6314610135575b600080fd5b61010d610108366004611021565b61032a565b6040519081526020015b60405180910390f35b61013361012e3660046110c3565b61053b565b005b6101486101433660046110e7565b61066c565b60408051928352901515602083015201610117565b61017061016b366004611109565b6106ab565b6040516101179190611122565b6101cd61018b366004611109565b6006602052600090815260409020805460018201546002830154600384015460048501546005909501546001600160a01b039485169593909416939192909186565b604080516001600160a01b039788168152969095166020870152938501929092526060840152608083015260a082015260c001610117565b610218610213366004611109565b61072f565b60405161011791906111b9565b61010d6102333660046111cc565b600160209081526000928352604080842090915290825290205481565b6002546003546004546005546102669392919084565b604080519485526020850193909352918301526060820152608001610117565b6102186107d1565b61010d61029c366004611205565b61085f565b61010d6102af36600461127d565b610c2e565b61010d6102c2366004611390565b610e1a565b6102ee7f000000000000000000000000000000000000000000000000000000000000000081565b6040516001600160a01b039091168152602001610117565b600254600354600454600554610266565b61013361032536600461145a565b610ea0565b6000336001600160a01b037f0000000000000000000000000000000000000000000000000000000000000000161461037557604051632ad9535160e01b815260040160405180910390fd5b876001600160a01b0316876001600160a01b031614806103ae57506000858152600660205260409020546001600160a01b038881169116145b6103f45760405162461bcd60e51b815260206004820152601260248201527113db9b1e481ddbdc9ad95c8bd8db1a595b9d60721b60448201526064015b60405180910390fd5b600085815260076020908152604080832060069092529091206003015481548110610421576104216114eb565b90600052602060002090600202016000015486146104785760405162461bcd60e51b8152602060048201526014602482015273139bdd081b5a5b195cdd1bdb9948185b5bdd5b9d60621b60448201526064016103eb565b600085815260066020526040812060030180546001929061049a908490611517565b9091555050600454600090612710906104b39089611530565b6104bd919061154f565b905080600160006104d0868801886110c3565b6001600160a01b031681526020808201929092526040016000908120916104f9908901896110c3565b6001600160a01b03166001600160a01b0316815260200190815260200160002060008282546105289190611517565b90915550909a9950505050505050505050565b3360009081526001602081815260408084206001600160a01b0386168552909152909120549081116105a65760405162461bcd60e51b8152602060048201526014602482015273496e73756666696369656e7420726576656e756560601b60448201526064016103eb565b3360009081526001602081815260408084206001600160a01b03878116865292529092208190557f00000000000000000000000000000000000000000000000000000000000000009091169063d6a4f84c9084906106049085611571565b6040516001600160e01b031960e085901b1681526001600160a01b0390921660048301526024820152336044820152606401600060405180830381600087803b15801561065057600080fd5b505af1158015610664573d6000803e3d6000fd5b505050505050565b6007602052816000526040600020818154811061068857600080fd5b60009182526020909120600290910201805460019091015490925060ff16905082565b606060076000838152602001908152602001600020805480602002602001604051908101604052809291908181526020016000905b8282101561072457600084815260209081902060408051808201909152600285029091018054825260019081015460ff1615158284015290835290920191016106e0565b505050509050919050565b6060336001600160a01b037f0000000000000000000000000000000000000000000000000000000000000000161461077a57604051632ad9535160e01b815260040160405180910390fd5b6000610784610f0b565b905060008151116107a457604051806020016040528060008152506107c8565b6000836040516020016107b89291906115b8565b6040516020818303038152906040525b9150505b919050565b600080546107de90611584565b80601f016020809104026020016040519081016040528092919081815260200182805461080a90611584565b80156108575780601f1061082c57610100808354040283529160200191610857565b820191906000526020600020905b81548152906001019060200180831161083a57829003601f168201915b505050505081565b6000336001600160a01b037f000000000000000000000000000000000000000000000000000000000000000016146108aa57604051632ad9535160e01b815260040160405180910390fd5b600080806108ba8587018761165a565b80519295509093509150600181116109145760405162461bcd60e51b815260206004820152601f60248201527f4d6f64756c653a20496e73756666696369656e74206d696c6573746f6e65730060448201526064016103eb565b60008b8152600660205260409020600481018290556005018390556001600160a01b03808d16908e16036109bd578c600660008d815260200190815260200160002060010160006101000a8154816001600160a01b0302191690836001600160a01b031602179055508b600660008d815260200190815260200160002060000160006101000a8154816001600160a01b0302191690836001600160a01b03160217905550610b00565b8b600660008d815260200190815260200160002060010160006101000a8154816001600160a01b0302191690836001600160a01b031602179055508c600660008d815260200190815260200160002060000160006101000a8154816001600160a01b0302191690836001600160a01b0316021790555042600660008d81526020019081526020016000206002018190555081600081518110610a6157610a616114eb565b60200260200101518914610b005781600081518110610a8257610a826114eb565b60200260200101518814610ad85760405162461bcd60e51b815260206004820152601f60248201527f5061792f657363726f7720317374206d696c6573746f6e6520616d6f756e740060448201526064016103eb565b60008b8152600660205260408120600301805460019290610afa908490611517565b90915550505b60005b81811015610b9457600760008d81526020019081526020016000206040518060400160405280858481518110610b3b57610b3b6114eb565b6020908102919091018101518252600091810182905283546001808201865594835291819020835160029093020191825591909101519101805460ff191691151591909117905580610b8c8161171e565b915050610b03565b5060045460009061271090610ba98b8d611517565b610bb39190611530565b610bbd919061154f565b90508060016000876001600160a01b03166001600160a01b0316815260200190815260200160002060008d6001600160a01b03166001600160a01b031681526020019081526020016000206000828254610c179190611517565b90915550909e9d5050505050505050505050505050565b6000336001600160a01b037f00000000000000000000000000000000000000000000000000000000000000001614610c7957604051632ad9535160e01b815260040160405180910390fd5b6000858152600660205260408120600301805460019290610c9b908490611517565b9091555050600085815260076020908152604080832060069092529091206003015481548110610ccd57610ccd6114eb565b9060005260206000209060020201600001548714610d2d5760405162461bcd60e51b815260206004820152601960248201527f4d7573742066756c6c792066756e64206d696c6573746f6e650000000000000060448201526064016103eb565b6000858152600660205260408120600201549003610d5b576000858152600660205260409020426002909101555b60008581526006602090815260408083206001015481519283018252928252516327144e0360e11b81526001600160a01b037f0000000000000000000000000000000000000000000000000000000000000000811693634e289c0693610dca938b938e93169190600401611737565b600060405180830381600087803b158015610de457600080fd5b505af1158015610df8573d6000803e3d6000fd5b5050600454600092506127109150610e10898b611517565b6104b39190611530565b6000336001600160a01b037f00000000000000000000000000000000000000000000000000000000000000001614610e6557604051632ad9535160e01b815260040160405180910390fd5b60405162461bcd60e51b815260206004820152601060248201526f4e6f6e2d7472616e7366657261626c6560801b60448201526064016103eb565b336001600160a01b037f00000000000000000000000000000000000000000000000000000000000000001614610ee957604051632ad9535160e01b815260040160405180910390fd5b60405162461bcd60e51b815260206004820152600060248201526044016103eb565b606060008054610f1a90611584565b80601f0160208091040260200160405190810160405280929190818152602001828054610f4690611584565b8015610f935780601f10610f6857610100808354040283529160200191610f93565b820191906000526020600020905b815481529060010190602001808311610f7657829003601f168201915b5050505050905090565b6001600160a01b0381168114610fb257600080fd5b50565b80356107cc81610f9d565b600060808284031215610fd257600080fd5b50919050565b60008083601f840112610fea57600080fd5b50813567ffffffffffffffff81111561100257600080fd5b60208301915083602082850101111561101a57600080fd5b9250929050565b600080600080600080600080610140898b03121561103e57600080fd5b883561104981610f9d565b9750602089013561105981610f9d565b9650604089013561106981610f9d565b955060608901359450608089013593506110868a60a08b01610fc0565b925061012089013567ffffffffffffffff8111156110a357600080fd5b6110af8b828c01610fd8565b999c989b5096995094979396929594505050565b6000602082840312156110d557600080fd5b81356110e081610f9d565b9392505050565b600080604083850312156110fa57600080fd5b50508035926020909101359150565b60006020828403121561111b57600080fd5b5035919050565b602080825282518282018190526000919060409081850190868401855b8281101561116657815180518552860151151586850152928401929085019060010161113f565b5091979650505050505050565b6000815180845260005b818110156111995760208185018101518683018201520161117d565b506000602082860101526020601f19601f83011685010191505092915050565b6020815260006110e06020830184611173565b600080604083850312156111df57600080fd5b82356111ea81610f9d565b915060208301356111fa81610f9d565b809150509250929050565b60008060008060008060008060e0898b03121561122157600080fd5b883561122c81610f9d565b9750602089013561123c81610f9d565b965060408901359550606089013561125381610f9d565b94506080890135935060a0890135925060c089013567ffffffffffffffff8111156110a357600080fd5b600080600080600080600080610140898b03121561129a57600080fd5b88356112a581610f9d565b975060208901356112b581610f9d565b96506040890135955060608901359450608089013593506110868a60a08b01610fc0565b634e487b7160e01b600052604160045260246000fd5b604051601f8201601f1916810167ffffffffffffffff81118282101715611318576113186112d9565b604052919050565b600082601f83011261133157600080fd5b813567ffffffffffffffff81111561134b5761134b6112d9565b61135e601f8201601f19166020016112ef565b81815284602083860101111561137357600080fd5b816020850160208301376000918101602001919091529392505050565b6000806000806000806000806000806101408b8d0312156113b057600080fd5b8a356113bb81610f9d565b995060208b01356113cb81610f9d565b985060408b01356113db81610f9d565b975060608b01356113eb81610f9d565b965060808b01356113fb81610f9d565b955060a08b0135945061141060c08c01610fb5565b935060e08b013592506101008b013591506101208b013567ffffffffffffffff81111561143c57600080fd5b6114488d828e01611320565b9150509295989b9194979a5092959850565b600080600080600080610120878903121561147457600080fd5b863561147f81610f9d565b9550602087013561148f81610f9d565b9450604087013561149f81610f9d565b9350606087013592506114b58860808901610fc0565b915061010087013567ffffffffffffffff8111156114d257600080fd5b6114de89828a01611320565b9150509295509295509295565b634e487b7160e01b600052603260045260246000fd5b634e487b7160e01b600052601160045260246000fd5b8082018082111561152a5761152a611501565b92915050565b600081600019048311821515161561154a5761154a611501565b500290565b60008261156c57634e487b7160e01b600052601260045260246000fd5b500490565b8181038181111561152a5761152a611501565b600181811c9082168061159857607f821691505b602082108103610fd257634e487b7160e01b600052602260045260246000fd5b600080845481600182811c9150808316806115d457607f831692505b602080841082036115f357634e487b7160e01b86526022600452602486fd5b818015611607576001811461161c57611649565b60ff1986168952841515850289019650611649565b60008b81526020902060005b868110156116415781548b820152908501908301611628565b505084890196505b509785525050509301949350505050565b60008060006060848603121561166f57600080fd5b833561167a81610f9d565b92506020848101359250604085013567ffffffffffffffff8082111561169f57600080fd5b818701915087601f8301126116b357600080fd5b8135818111156116c5576116c56112d9565b8060051b91506116d68483016112ef565b818152918301840191848101908a8411156116f057600080fd5b938501935b8385101561170e578435825293850193908501906116f5565b8096505050505050509250925092565b60006001820161173057611730611501565b5060010190565b84815283602082015260018060a01b03831660408201526080606082015260006117646080830184611173565b969550505050505056fea264697066735822122017a0ac52c3f9ba392fe90bc1b85a1359bd0dbd53b66a5eb9a497c0687e60106064736f6c634300081000334d6f64756c653a2046656520746f6f2068696768000000000000000000000000",
    "linkReferences": {}
  },
  "methodIdentifiers": {
    "REGISTRAR()": "cb609077",
    "_URI()": "b4e87e8f",
    "fees()": "9af1d35a",
    "getFees()": "db8d55f1",
    "getMilestones(uint256)": "42c549c0",
    "invoices(uint256)": "4e6d1405",
    "milestones(uint256,uint256)": "1c376c63",
    "processApproval(address,address,address,uint256,(address,uint256,uint256,address),bytes)": "e4175968",
    "processCash(address,address,address,uint256,uint256,(address,uint256,uint256,address),bytes)": "06890cd0",
    "processFund(address,address,uint256,uint256,uint256,(address,uint256,uint256,address),bytes)": "be2f3fdd",
    "processTokenURI(uint256)": "4fe17e1a",
    "processTransfer(address,address,address,address,address,uint256,address,uint256,uint256,bytes)": "c0c9572c",
    "processWrite(address,address,uint256,address,uint256,uint256,bytes)": "b5d701ba",
    "revenue(address,address)": "9a0ea37a",
    "withdrawFees(address)": "164e68de"
  },
  "id": 49
}