{
  "abi": [
    {
      "inputs": [
        {
          "internalType": "address",
          "name": "registrar",
          "type": "address"
        },
        {
          "components": [
            {
              "internalType": "uint256",
              "name": "writeBPS",
              "type": "uint256"
            },
            {
              "internalType": "uint256",
              "name": "transferBPS",
              "type": "uint256"
            },
            {
              "internalType": "uint256",
              "name": "fundBPS",
              "type": "uint256"
            },
            {
              "internalType": "uint256",
              "name": "cashBPS",
              "type": "uint256"
            }
          ],
          "internalType": "struct DataTypes.WTFCFees",
          "name": "_fees",
          "type": "tuple"
        },
        {
          "internalType": "string",
          "name": "__baseURI",
          "type": "string"
        }
      ],
      "stateMutability": "nonpayable",
      "type": "constructor"
    },
    {
      "inputs": [],
      "name": "AddressZero",
      "type": "error"
    },
    {
      "inputs": [],
      "name": "Disallowed",
      "type": "error"
    },
    {
      "inputs": [],
      "name": "InitParamsInvalid",
      "type": "error"
    },
    {
      "inputs": [],
      "name": "InsufficientMilestones",
      "type": "error"
    },
    {
      "inputs": [],
      "name": "InsufficientPayment",
      "type": "error"
    },
    {
      "inputs": [],
      "name": "InvoiceWithPay",
      "type": "error"
    },
    {
      "inputs": [],
      "name": "NotRegistrar",
      "type": "error"
    },
    {
      "inputs": [],
      "name": "OnlyOwner",
      "type": "error"
    },
    {
      "inputs": [],
      "name": "OnlyOwnerOrApproved",
      "type": "error"
    },
    {
      "inputs": [],
      "name": "OnlyOwnerOrClient",
      "type": "error"
    },
    {
      "inputs": [],
      "name": "OnlyWorkerOrClient",
      "type": "error"
    },
    {
      "anonymous": false,
      "inputs": [
        {
          "indexed": false,
          "internalType": "uint256",
          "name": "cheqId",
          "type": "uint256"
        },
        {
          "indexed": false,
          "internalType": "address",
          "name": "toNotify",
          "type": "address"
        },
        {
          "indexed": false,
          "internalType": "bytes32",
          "name": "docHash",
          "type": "bytes32"
        },
        {
          "indexed": false,
          "internalType": "uint256[]",
          "name": "milestoneAmounts",
          "type": "uint256[]"
        }
      ],
      "name": "Invoiced",
      "type": "event"
    },
    {
      "inputs": [],
      "name": "REGISTRAR",
      "outputs": [
        {
          "internalType": "address",
          "name": "",
          "type": "address"
        }
      ],
      "stateMutability": "view",
      "type": "function"
    },
    {
      "inputs": [],
      "name": "_URI",
      "outputs": [
        {
          "internalType": "string",
          "name": "",
          "type": "string"
        }
      ],
      "stateMutability": "view",
      "type": "function"
    },
    {
      "inputs": [
        {
          "internalType": "uint256",
          "name": "cheqId",
          "type": "uint256"
        },
        {
          "internalType": "uint256",
          "name": "amount",
          "type": "uint256"
        }
      ],
      "name": "addMilestone",
      "outputs": [],
      "stateMutability": "nonpayable",
      "type": "function"
    },
    {
      "inputs": [],
      "name": "fees",
      "outputs": [
        {
          "internalType": "uint256",
          "name": "writeBPS",
          "type": "uint256"
        },
        {
          "internalType": "uint256",
          "name": "transferBPS",
          "type": "uint256"
        },
        {
          "internalType": "uint256",
          "name": "fundBPS",
          "type": "uint256"
        },
        {
          "internalType": "uint256",
          "name": "cashBPS",
          "type": "uint256"
        }
      ],
      "stateMutability": "view",
      "type": "function"
    },
    {
      "inputs": [],
      "name": "getFees",
      "outputs": [
        {
          "internalType": "uint256",
          "name": "",
          "type": "uint256"
        },
        {
          "internalType": "uint256",
          "name": "",
          "type": "uint256"
        },
        {
          "internalType": "uint256",
          "name": "",
          "type": "uint256"
        },
        {
          "internalType": "uint256",
          "name": "",
          "type": "uint256"
        }
      ],
      "stateMutability": "view",
      "type": "function"
    },
    {
      "inputs": [
        {
          "internalType": "uint256",
          "name": "cheqId",
          "type": "uint256"
        }
      ],
      "name": "getMilestones",
      "outputs": [
        {
          "components": [
            {
              "internalType": "uint256",
              "name": "amount",
              "type": "uint256"
            },
            {
              "internalType": "bool",
              "name": "isCashed",
              "type": "bool"
            }
          ],
          "internalType": "struct Milestones.Milestone[]",
          "name": "",
          "type": "tuple[]"
        }
      ],
      "stateMutability": "view",
      "type": "function"
    },
    {
      "inputs": [
        {
          "internalType": "uint256",
          "name": "",
          "type": "uint256"
        }
      ],
      "name": "invoices",
      "outputs": [
        {
          "internalType": "address",
          "name": "client",
          "type": "address"
        },
        {
          "internalType": "address",
          "name": "worker",
          "type": "address"
        },
        {
          "internalType": "uint256",
          "name": "startTime",
          "type": "uint256"
        },
        {
          "internalType": "uint256",
          "name": "currentMilestone",
          "type": "uint256"
        },
        {
          "internalType": "uint256",
          "name": "totalMilestones",
          "type": "uint256"
        },
        {
          "internalType": "bytes32",
          "name": "documentHash",
          "type": "bytes32"
        }
      ],
      "stateMutability": "view",
      "type": "function"
    },
    {
      "inputs": [
        {
          "internalType": "uint256",
          "name": "",
          "type": "uint256"
        },
        {
          "internalType": "uint256",
          "name": "",
          "type": "uint256"
        }
      ],
      "name": "milestones",
      "outputs": [
        {
          "internalType": "uint256",
          "name": "amount",
          "type": "uint256"
        },
        {
          "internalType": "bool",
          "name": "isCashed",
          "type": "bool"
        }
      ],
      "stateMutability": "view",
      "type": "function"
    },
    {
      "inputs": [
        {
          "internalType": "address",
          "name": "",
          "type": "address"
        },
        {
          "internalType": "address",
          "name": "",
          "type": "address"
        },
        {
          "internalType": "address",
          "name": "",
          "type": "address"
        },
        {
          "internalType": "uint256",
          "name": "",
          "type": "uint256"
        },
        {
          "components": [
            {
              "internalType": "address",
              "name": "currency",
              "type": "address"
            },
            {
              "internalType": "uint256",
              "name": "escrowed",
              "type": "uint256"
            },
            {
              "internalType": "uint256",
              "name": "createdAt",
              "type": "uint256"
            },
            {
              "internalType": "address",
              "name": "module",
              "type": "address"
            }
          ],
          "internalType": "struct DataTypes.Cheq",
          "name": "",
          "type": "tuple"
        },
        {
          "internalType": "bytes",
          "name": "",
          "type": "bytes"
        }
      ],
      "name": "processApproval",
      "outputs": [],
      "stateMutability": "view",
      "type": "function"
    },
    {
      "inputs": [
        {
          "internalType": "address",
          "name": "",
          "type": "address"
        },
        {
          "internalType": "address",
          "name": "owner",
          "type": "address"
        },
        {
          "internalType": "address",
          "name": "to",
          "type": "address"
        },
        {
          "internalType": "uint256",
          "name": "amount",
          "type": "uint256"
        },
        {
          "internalType": "uint256",
          "name": "cheqId",
          "type": "uint256"
        },
        {
          "components": [
            {
              "internalType": "address",
              "name": "currency",
              "type": "address"
            },
            {
              "internalType": "uint256",
              "name": "escrowed",
              "type": "uint256"
            },
            {
              "internalType": "uint256",
              "name": "createdAt",
              "type": "uint256"
            },
            {
              "internalType": "address",
              "name": "module",
              "type": "address"
            }
          ],
          "internalType": "struct DataTypes.Cheq",
          "name": "cheq",
          "type": "tuple"
        },
        {
          "internalType": "bytes",
          "name": "initData",
          "type": "bytes"
        }
      ],
      "name": "processCash",
      "outputs": [
        {
          "internalType": "uint256",
          "name": "",
          "type": "uint256"
        }
      ],
      "stateMutability": "nonpayable",
      "type": "function"
    },
    {
      "inputs": [
        {
          "internalType": "address",
          "name": "",
          "type": "address"
        },
        {
          "internalType": "address",
          "name": "",
          "type": "address"
        },
        {
          "internalType": "uint256",
          "name": "amount",
          "type": "uint256"
        },
        {
          "internalType": "uint256",
          "name": "instant",
          "type": "uint256"
        },
        {
          "internalType": "uint256",
          "name": "cheqId",
          "type": "uint256"
        },
        {
          "components": [
            {
              "internalType": "address",
              "name": "currency",
              "type": "address"
            },
            {
              "internalType": "uint256",
              "name": "escrowed",
              "type": "uint256"
            },
            {
              "internalType": "uint256",
              "name": "createdAt",
              "type": "uint256"
            },
            {
              "internalType": "address",
              "name": "module",
              "type": "address"
            }
          ],
          "internalType": "struct DataTypes.Cheq",
          "name": "cheq",
          "type": "tuple"
        },
        {
          "internalType": "bytes",
          "name": "initData",
          "type": "bytes"
        }
      ],
      "name": "processFund",
      "outputs": [
        {
          "internalType": "uint256",
          "name": "",
          "type": "uint256"
        }
      ],
      "stateMutability": "nonpayable",
      "type": "function"
    },
    {
      "inputs": [
        {
          "internalType": "uint256",
          "name": "tokenId",
          "type": "uint256"
        }
      ],
      "name": "processTokenURI",
      "outputs": [
        {
          "internalType": "string",
          "name": "",
          "type": "string"
        }
      ],
      "stateMutability": "view",
      "type": "function"
    },
    {
      "inputs": [
        {
          "internalType": "address",
          "name": "",
          "type": "address"
        },
        {
          "internalType": "address",
          "name": "",
          "type": "address"
        },
        {
          "internalType": "address",
          "name": "",
          "type": "address"
        },
        {
          "internalType": "address",
          "name": "",
          "type": "address"
        },
        {
          "internalType": "address",
          "name": "",
          "type": "address"
        },
        {
          "internalType": "uint256",
          "name": "",
          "type": "uint256"
        },
        {
          "internalType": "address",
          "name": "",
          "type": "address"
        },
        {
          "internalType": "uint256",
          "name": "",
          "type": "uint256"
        },
        {
          "internalType": "uint256",
          "name": "",
          "type": "uint256"
        },
        {
          "internalType": "bytes",
          "name": "",
          "type": "bytes"
        }
      ],
      "name": "processTransfer",
      "outputs": [
        {
          "internalType": "uint256",
          "name": "",
          "type": "uint256"
        }
      ],
      "stateMutability": "view",
      "type": "function"
    },
    {
      "inputs": [
        {
          "internalType": "address",
          "name": "caller",
          "type": "address"
        },
        {
          "internalType": "address",
          "name": "owner",
          "type": "address"
        },
        {
          "internalType": "uint256",
          "name": "cheqId",
          "type": "uint256"
        },
        {
          "internalType": "address",
          "name": "currency",
          "type": "address"
        },
        {
          "internalType": "uint256",
          "name": "escrowed",
          "type": "uint256"
        },
        {
          "internalType": "uint256",
          "name": "instant",
          "type": "uint256"
        },
        {
          "internalType": "bytes",
          "name": "initData",
          "type": "bytes"
        }
      ],
      "name": "processWrite",
      "outputs": [
        {
          "internalType": "uint256",
          "name": "",
          "type": "uint256"
        }
      ],
      "stateMutability": "nonpayable",
      "type": "function"
    },
    {
      "inputs": [
        {
          "internalType": "address",
          "name": "",
          "type": "address"
        },
        {
          "internalType": "address",
          "name": "",
          "type": "address"
        }
      ],
      "name": "revenue",
      "outputs": [
        {
          "internalType": "uint256",
          "name": "",
          "type": "uint256"
        }
      ],
      "stateMutability": "view",
      "type": "function"
    },
    {
      "inputs": [
        {
          "internalType": "address",
          "name": "token",
          "type": "address"
        }
      ],
      "name": "withdrawFees",
      "outputs": [],
      "stateMutability": "nonpayable",
      "type": "function"
    }
  ],
  "bytecode": {
    "object": "0x60a06040523480156200001157600080fd5b5060405162001d1e38038062001d1e8339810160408190526200003491620002f9565b82826001600160a01b0382166200005e576040516348be0eb360e01b815260040160405180910390fd5b6001600160a01b038216608052805161271011620000b25760405162461bcd60e51b8152602060048201526014602482015260008051602062001cfe83398151915260448201526064015b60405180910390fd5b612710816020015110620000f85760405162461bcd60e51b8152602060048201526014602482015260008051602062001cfe8339815191526044820152606401620000a9565b6127108160400151106200013e5760405162461bcd60e51b8152602060048201526014602482015260008051602062001cfe8339815191526044820152606401620000a9565b612710816060015110620001845760405162461bcd60e51b8152602060048201526014602482015260008051602062001cfe8339815191526044820152606401620000a9565b80516001556020808201516002556040808301516003556060830151600455514281526001600160a01b038416917ff1a1fa6b64aa95186f5a1285e76198d0da80d9c5a88062641d447f1d7c54e56c910160405180910390a25060059050620001ee828262000431565b50505050620004fd565b634e487b7160e01b600052604160045260246000fd5b604051608081016001600160401b0381118282101715620002335762000233620001f8565b60405290565b604051601f8201601f191681016001600160401b0381118282101715620002645762000264620001f8565b604052919050565b600082601f8301126200027e57600080fd5b81516001600160401b038111156200029a576200029a620001f8565b6020620002b0601f8301601f1916820162000239565b8281528582848701011115620002c557600080fd5b60005b83811015620002e5578581018301518282018401528201620002c8565b506000928101909101919091529392505050565b600080600083850360c08112156200031057600080fd5b84516001600160a01b03811681146200032857600080fd5b93506080601f19820112156200033d57600080fd5b50620003486200020e565b602085015181526040850151602082015260608501516040820152608085015160608201528092505060a084015160018060401b038111156200038a57600080fd5b62000398868287016200026c565b9150509250925092565b600181811c90821680620003b757607f821691505b602082108103620003d857634e487b7160e01b600052602260045260246000fd5b50919050565b601f8211156200042c57600081815260208120601f850160051c81016020861015620004075750805b601f850160051c820191505b81811015620004285782815560010162000413565b5050505b505050565b81516001600160401b038111156200044d576200044d620001f8565b62000465816200045e8454620003a2565b84620003de565b602080601f8311600181146200049d5760008415620004845750858301515b600019600386901b1c1916600185901b17855562000428565b600085815260208120601f198616915b82811015620004ce57888601518255948401946001909101908401620004ad565b5085821015620004ed5787850151600019600388901b60f8161c191681555b5050505050600190811b01905550565b6080516117b46200054a600039600081816102e701528181610352015281816105a10152818161070e0152818161091401528181610d4501528181610e610152610eaa01526117b46000f3fe608060405234801561001057600080fd5b50600436106101005760003560e01c80639af1d35a11610097578063c0c9572c11610066578063c0c9572c146102cf578063cb609077146102e2578063db8d55f114610321578063e41759681461033257600080fd5b80639af1d35a1461026b578063b4e87e8f146102a1578063b5d701ba146102a9578063be2f3fdd146102bc57600080fd5b80634e6d1405116100d35780634e6d1405146101885780634fe17e1a146102105780635601477b146102305780639a0ea37a1461024357600080fd5b806306890cd014610105578063164e68de1461012b5780631c376c631461014057806342c549c014610168575b600080fd5b610118610113366004610ffe565b610345565b6040519081526020015b60405180910390f35b61013e6101393660046110a0565b61050a565b005b61015361014e3660046110c4565b61063e565b60408051928352901515602083015201610122565b61017b6101763660046110e6565b61067d565b60405161012291906110ff565b6101d86101963660046110e6565b6006602052600090815260409020805460018201546002830154600384015460048501546005909501546001600160a01b039485169593909416939192909186565b604080516001600160a01b039788168152969095166020870152938501929092526060840152608083015260a082015260c001610122565b61022361021e3660046110e6565b610701565b6040516101229190611150565b61013e61023e3660046110c4565b6107a3565b61011861025136600461119e565b600060208181529281526040808220909352908152205481565b6001546002546003546004546102819392919084565b604080519485526020850193909352918301526060820152608001610122565b610223610879565b6101186102b73660046111d7565b610907565b6101186102ca36600461124f565b610d38565b6101186102dd366004611362565b610e54565b6103097f000000000000000000000000000000000000000000000000000000000000000081565b6040516001600160a01b039091168152602001610122565b600154600254600354600454610281565b61013e61034036600461142c565b610e9f565b6000336001600160a01b037f0000000000000000000000000000000000000000000000000000000000000000161461039057604051632ad9535160e01b815260040160405180910390fd5b876001600160a01b0316876001600160a01b0316141580156103cc57506000858152600660205260409020546001600160a01b03888116911614155b156103ea5760405163719713ad60e01b815260040160405180910390fd5b600085815260076020908152604080832060069092529091206003015481548110610417576104176114bd565b90600052602060002090600202016000015486146104485760405163cd1c886760e01b815260040160405180910390fd5b600085815260066020526040812060030180546001929061046a9084906114e9565b9091555050600354600090612710906104839089611502565b61048d9190611521565b90508060008061049f868801886110a0565b6001600160a01b031681526020808201929092526040016000908120916104c8908901896110a0565b6001600160a01b03166001600160a01b0316815260200190815260200160002060008282546104f791906114e9565b90915550909a9950505050505050505050565b336000908152602081815260408083206001600160a01b0385168452909152902054600181116105775760405162461bcd60e51b8152602060048201526014602482015273496e73756666696369656e7420726576656e756560601b604482015260640160405180910390fd5b336000908152602081815260408083206001600160a01b03868116855292529091206001908190557f00000000000000000000000000000000000000000000000000000000000000009091169063d6a4f84c9084906105d69085611543565b6040516001600160e01b031960e085901b1681526001600160a01b0390921660048301526024820152336044820152606401600060405180830381600087803b15801561062257600080fd5b505af1158015610636573d6000803e3d6000fd5b505050505050565b6007602052816000526040600020818154811061065a57600080fd5b60009182526020909120600290910201805460019091015490925060ff16905082565b606060076000838152602001908152602001600020805480602002602001604051908101604052809291908181526020016000905b828210156106f657600084815260209081902060408051808201909152600285029091018054825260019081015460ff1615158284015290835290920191016106b2565b505050509050919050565b6060336001600160a01b037f0000000000000000000000000000000000000000000000000000000000000000161461074c57604051632ad9535160e01b815260040160405180910390fd5b6000610756610ee8565b90506000815111610776576040518060200160405280600081525061079a565b60058360405160200161078a92919061158a565b6040516020818303038152906040525b9150505b919050565b6000828152600660205260409020600101546001600160a01b031633148015906107e457506000828152600660205260409020546001600160a01b03163314155b15610802576040516348ab459360e01b815260040160405180910390fd5b6000828152600760209081526040808320815180830183528581528084018581528254600180820185559387528587209251600290910290920191825551908201805460ff1916911515919091179055858452600690925282206004018054919290916108709084906114e9565b90915550505050565b6005805461088690611556565b80601f01602080910402602001604051908101604052809291908181526020018280546108b290611556565b80156108ff5780601f106108d4576101008083540402835291602001916108ff565b820191906000526020600020905b8154815290600101906020018083116108e257829003601f168201915b505050505081565b6000336001600160a01b037f0000000000000000000000000000000000000000000000000000000000000000161461095257604051632ad9535160e01b815260040160405180910390fd5b60008080806109638688018861162c565b93509350935093508b6001600160a01b03168d6001600160a01b031603610a1e5787156109a3576040516371c2848560e01b815260040160405180910390fd5b8c600660008d815260200190815260200160002060010160006101000a8154816001600160a01b0302191690836001600160a01b0316021790555083600660008d815260200190815260200160002060000160006101000a8154816001600160a01b0302191690836001600160a01b03160217905550610b90565b836001600160a01b03168c6001600160a01b031603610b77576001600160a01b038c16610a5e57604051639fabe1c160e01b815260040160405180910390fd5b83600660008d815260200190815260200160002060010160006101000a8154816001600160a01b0302191690836001600160a01b031602179055508c600660008d815260200190815260200160002060000160006101000a8154816001600160a01b0302191690836001600160a01b0316021790555042600660008d81526020019081526020016000206002018190555080600081518110610b0257610b026114bd565b60200260200101518914610b725780600081518110610b2357610b236114bd565b60200260200101518814610b4a5760405163cd1c886760e01b815260040160405180910390fd5b60008b8152600660205260408120600301805460019290610b6c9084906114e9565b90915550505b610b90565b604051635a89288760e01b815260040160405180910390fd5b80516002811015610bb45760405163de777b7f60e01b815260040160405180910390fd5b60008c8152600660205260408120600481018390556005018490555b81811015610c6157600760008e81526020019081526020016000206040518060400160405280858481518110610c0857610c086114bd565b6020908102919091018101518252600091810182905283546001808201865594835291819020835160029093020191825591909101519101805460ff191691151591909117905580610c5981611701565b915050610bd0565b507f5a934ba2d8e88d32865480eab252d2fd02bc4a5b33d26684bda63e09a4cb7ebc8c868585604051610c97949392919061171a565b60405180910390a160035460009061271090610cb38c8e6114e9565b610cbd9190611502565b610cc79190611521565b905080600080876001600160a01b03166001600160a01b0316815260200190815260200160002060008e6001600160a01b03166001600160a01b031681526020019081526020016000206000828254610d2091906114e9565b90915550909f9e505050505050505050505050505050565b6000336001600160a01b037f00000000000000000000000000000000000000000000000000000000000000001614610d8357604051632ad9535160e01b815260040160405180910390fd5b600085815260076020908152604080832060069092529091206003015481548110610db057610db06114bd565b9060005260206000209060020201600001548714610de15760405163cd1c886760e01b815260040160405180910390fd5b6000858152600660205260408120600201549003610e0f576000858152600660205260409020426002909101555b6000858152600660205260408120600301805460019290610e319084906114e9565b909155505060035460009061271090610e4a898b6114e9565b6104839190611502565b6000336001600160a01b037f00000000000000000000000000000000000000000000000000000000000000001614610b7757604051632ad9535160e01b815260040160405180910390fd5b336001600160a01b037f00000000000000000000000000000000000000000000000000000000000000001614610b7757604051632ad9535160e01b815260040160405180910390fd5b606060058054610ef790611556565b80601f0160208091040260200160405190810160405280929190818152602001828054610f2390611556565b8015610f705780601f10610f4557610100808354040283529160200191610f70565b820191906000526020600020905b815481529060010190602001808311610f5357829003601f168201915b5050505050905090565b6001600160a01b0381168114610f8f57600080fd5b50565b803561079e81610f7a565b600060808284031215610faf57600080fd5b50919050565b60008083601f840112610fc757600080fd5b50813567ffffffffffffffff811115610fdf57600080fd5b602083019150836020828501011115610ff757600080fd5b9250929050565b600080600080600080600080610140898b03121561101b57600080fd5b883561102681610f7a565b9750602089013561103681610f7a565b9650604089013561104681610f7a565b955060608901359450608089013593506110638a60a08b01610f9d565b925061012089013567ffffffffffffffff81111561108057600080fd5b61108c8b828c01610fb5565b999c989b5096995094979396929594505050565b6000602082840312156110b257600080fd5b81356110bd81610f7a565b9392505050565b600080604083850312156110d757600080fd5b50508035926020909101359150565b6000602082840312156110f857600080fd5b5035919050565b602080825282518282018190526000919060409081850190868401855b8281101561114357815180518552860151151586850152928401929085019060010161111c565b5091979650505050505050565b600060208083528351808285015260005b8181101561117d57858101830151858201604001528201611161565b506000604082860101526040601f19601f8301168501019250505092915050565b600080604083850312156111b157600080fd5b82356111bc81610f7a565b915060208301356111cc81610f7a565b809150509250929050565b60008060008060008060008060e0898b0312156111f357600080fd5b88356111fe81610f7a565b9750602089013561120e81610f7a565b965060408901359550606089013561122581610f7a565b94506080890135935060a0890135925060c089013567ffffffffffffffff81111561108057600080fd5b600080600080600080600080610140898b03121561126c57600080fd5b883561127781610f7a565b9750602089013561128781610f7a565b96506040890135955060608901359450608089013593506110638a60a08b01610f9d565b634e487b7160e01b600052604160045260246000fd5b604051601f8201601f1916810167ffffffffffffffff811182821017156112ea576112ea6112ab565b604052919050565b600082601f83011261130357600080fd5b813567ffffffffffffffff81111561131d5761131d6112ab565b611330601f8201601f19166020016112c1565b81815284602083860101111561134557600080fd5b816020850160208301376000918101602001919091529392505050565b6000806000806000806000806000806101408b8d03121561138257600080fd5b8a3561138d81610f7a565b995060208b013561139d81610f7a565b985060408b01356113ad81610f7a565b975060608b01356113bd81610f7a565b965060808b01356113cd81610f7a565b955060a08b013594506113e260c08c01610f92565b935060e08b013592506101008b013591506101208b013567ffffffffffffffff81111561140e57600080fd5b61141a8d828e016112f2565b9150509295989b9194979a5092959850565b600080600080600080610120878903121561144657600080fd5b863561145181610f7a565b9550602087013561146181610f7a565b9450604087013561147181610f7a565b9350606087013592506114878860808901610f9d565b915061010087013567ffffffffffffffff8111156114a457600080fd5b6114b089828a016112f2565b9150509295509295509295565b634e487b7160e01b600052603260045260246000fd5b634e487b7160e01b600052601160045260246000fd5b808201808211156114fc576114fc6114d3565b92915050565b600081600019048311821515161561151c5761151c6114d3565b500290565b60008261153e57634e487b7160e01b600052601260045260246000fd5b500490565b818103818111156114fc576114fc6114d3565b600181811c9082168061156a57607f821691505b602082108103610faf57634e487b7160e01b600052602260045260246000fd5b600080845481600182811c9150808316806115a657607f831692505b602080841082036115c557634e487b7160e01b86526022600452602486fd5b8180156115d957600181146115ee5761161b565b60ff198616895284151585028901965061161b565b60008b81526020902060005b868110156116135781548b8201529085019083016115fa565b505084890196505b509785525050509301949350505050565b6000806000806080858703121561164257600080fd5b843561164d81610f7a565b935060208581013561165e81610f7a565b935060408601359250606086013567ffffffffffffffff8082111561168257600080fd5b818801915088601f83011261169657600080fd5b8135818111156116a8576116a86112ab565b8060051b91506116b98483016112c1565b818152918301840191848101908b8411156116d357600080fd5b938501935b838510156116f1578435825293850193908501906116d8565b989b979a50959850505050505050565b600060018201611713576117136114d3565b5060010190565b600060808201868352602060018060a01b038716818501528560408501526080606085015281855180845260a086019150828701935060005b8181101561176f57845183529383019391830191600101611753565b5090999850505050505050505056fea2646970667358221220f2528129fc7f1450b336cb36dd4f77f59c9c1308d4bee420cc7d486fab4d346e64736f6c634300081000334d6f64756c653a2046656520746f6f2068696768000000000000000000000000",
    "linkReferences": {}
  },
  "methodIdentifiers": {
    "REGISTRAR()": "cb609077",
    "_URI()": "b4e87e8f",
    "addMilestone(uint256,uint256)": "5601477b",
    "fees()": "9af1d35a",
    "getFees()": "db8d55f1",
    "getMilestones(uint256)": "42c549c0",
    "invoices(uint256)": "4e6d1405",
    "milestones(uint256,uint256)": "1c376c63",
    "processApproval(address,address,address,uint256,(address,uint256,uint256,address),bytes)": "e4175968",
    "processCash(address,address,address,uint256,uint256,(address,uint256,uint256,address),bytes)": "06890cd0",
    "processFund(address,address,uint256,uint256,uint256,(address,uint256,uint256,address),bytes)": "be2f3fdd",
    "processTokenURI(uint256)": "4fe17e1a",
    "processTransfer(address,address,address,address,address,uint256,address,uint256,uint256,bytes)": "c0c9572c",
    "processWrite(address,address,uint256,address,uint256,uint256,bytes)": "b5d701ba",
    "revenue(address,address)": "9a0ea37a",
    "withdrawFees(address)": "164e68de"
  },
  "id": 47
}