{
  "abi": [
    {
      "inputs": [
        {
          "internalType": "address",
          "name": "registrar",
          "type": "address"
        },
        {
          "components": [
            {
              "internalType": "uint256",
              "name": "writeBPS",
              "type": "uint256"
            },
            {
              "internalType": "uint256",
              "name": "transferBPS",
              "type": "uint256"
            },
            {
              "internalType": "uint256",
              "name": "fundBPS",
              "type": "uint256"
            },
            {
              "internalType": "uint256",
              "name": "cashBPS",
              "type": "uint256"
            }
          ],
          "internalType": "struct DataTypes.WTFCFees",
          "name": "_fees",
          "type": "tuple"
        },
        {
          "internalType": "string",
          "name": "__baseURI",
          "type": "string"
        }
      ],
      "stateMutability": "nonpayable",
      "type": "constructor"
    },
    {
      "inputs": [],
      "name": "AddressZero",
      "type": "error"
    },
    {
      "inputs": [],
      "name": "Disallowed",
      "type": "error"
    },
    {
      "inputs": [],
      "name": "InitParamsInvalid",
      "type": "error"
    },
    {
      "inputs": [],
      "name": "InsufficientMilestones",
      "type": "error"
    },
    {
      "inputs": [],
      "name": "InsufficientPayment",
      "type": "error"
    },
    {
      "inputs": [],
      "name": "InvoiceWithPay",
      "type": "error"
    },
    {
      "inputs": [],
      "name": "NotRegistrar",
      "type": "error"
    },
    {
      "inputs": [],
      "name": "OnlyOwner",
      "type": "error"
    },
    {
      "inputs": [],
      "name": "OnlyOwnerOrApproved",
      "type": "error"
    },
    {
      "inputs": [],
      "name": "OnlyOwnerOrClient",
      "type": "error"
    },
    {
      "inputs": [],
      "name": "OnlyWorkerOrClient",
      "type": "error"
    },
    {
      "anonymous": false,
      "inputs": [
        {
          "indexed": false,
          "internalType": "uint256",
          "name": "cheqId",
          "type": "uint256"
        },
        {
          "indexed": false,
          "internalType": "address",
          "name": "toNotify",
          "type": "address"
        },
        {
          "indexed": false,
          "internalType": "bytes32",
          "name": "docHash",
          "type": "bytes32"
        },
        {
          "indexed": false,
          "internalType": "uint256[]",
          "name": "milestoneAmounts",
          "type": "uint256[]"
        }
      ],
      "name": "Invoiced",
      "type": "event"
    },
    {
      "inputs": [],
      "name": "REGISTRAR",
      "outputs": [
        {
          "internalType": "address",
          "name": "",
          "type": "address"
        }
      ],
      "stateMutability": "view",
      "type": "function"
    },
    {
      "inputs": [],
      "name": "_URI",
      "outputs": [
        {
          "internalType": "string",
          "name": "",
          "type": "string"
        }
      ],
      "stateMutability": "view",
      "type": "function"
    },
    {
      "inputs": [
        {
          "internalType": "uint256",
          "name": "cheqId",
          "type": "uint256"
        },
        {
          "internalType": "uint256",
          "name": "amount",
          "type": "uint256"
        }
      ],
      "name": "addMilestone",
      "outputs": [],
      "stateMutability": "nonpayable",
      "type": "function"
    },
    {
      "inputs": [],
      "name": "fees",
      "outputs": [
        {
          "internalType": "uint256",
          "name": "writeBPS",
          "type": "uint256"
        },
        {
          "internalType": "uint256",
          "name": "transferBPS",
          "type": "uint256"
        },
        {
          "internalType": "uint256",
          "name": "fundBPS",
          "type": "uint256"
        },
        {
          "internalType": "uint256",
          "name": "cashBPS",
          "type": "uint256"
        }
      ],
      "stateMutability": "view",
      "type": "function"
    },
    {
      "inputs": [],
      "name": "getFees",
      "outputs": [
        {
          "internalType": "uint256",
          "name": "",
          "type": "uint256"
        },
        {
          "internalType": "uint256",
          "name": "",
          "type": "uint256"
        },
        {
          "internalType": "uint256",
          "name": "",
          "type": "uint256"
        },
        {
          "internalType": "uint256",
          "name": "",
          "type": "uint256"
        }
      ],
      "stateMutability": "view",
      "type": "function"
    },
    {
      "inputs": [
        {
          "internalType": "uint256",
          "name": "cheqId",
          "type": "uint256"
        }
      ],
      "name": "getMilestones",
      "outputs": [
        {
          "components": [
            {
              "internalType": "uint256",
              "name": "amount",
              "type": "uint256"
            },
            {
              "internalType": "bool",
              "name": "isCashed",
              "type": "bool"
            }
          ],
          "internalType": "struct Milestones.Milestone[]",
          "name": "",
          "type": "tuple[]"
        }
      ],
      "stateMutability": "view",
      "type": "function"
    },
    {
      "inputs": [
        {
          "internalType": "uint256",
          "name": "",
          "type": "uint256"
        }
      ],
      "name": "invoices",
      "outputs": [
        {
          "internalType": "address",
          "name": "client",
          "type": "address"
        },
        {
          "internalType": "address",
          "name": "worker",
          "type": "address"
        },
        {
          "internalType": "uint256",
          "name": "startTime",
          "type": "uint256"
        },
        {
          "internalType": "uint256",
          "name": "currentMilestone",
          "type": "uint256"
        },
        {
          "internalType": "uint256",
          "name": "totalMilestones",
          "type": "uint256"
        },
        {
          "internalType": "bytes32",
          "name": "documentHash",
          "type": "bytes32"
        }
      ],
      "stateMutability": "view",
      "type": "function"
    },
    {
      "inputs": [
        {
          "internalType": "uint256",
          "name": "",
          "type": "uint256"
        },
        {
          "internalType": "uint256",
          "name": "",
          "type": "uint256"
        }
      ],
      "name": "milestones",
      "outputs": [
        {
          "internalType": "uint256",
          "name": "amount",
          "type": "uint256"
        },
        {
          "internalType": "bool",
          "name": "isCashed",
          "type": "bool"
        }
      ],
      "stateMutability": "view",
      "type": "function"
    },
    {
      "inputs": [
        {
          "internalType": "address",
          "name": "",
          "type": "address"
        },
        {
          "internalType": "address",
          "name": "",
          "type": "address"
        },
        {
          "internalType": "address",
          "name": "",
          "type": "address"
        },
        {
          "internalType": "uint256",
          "name": "",
          "type": "uint256"
        },
        {
          "components": [
            {
              "internalType": "address",
              "name": "currency",
              "type": "address"
            },
            {
              "internalType": "uint256",
              "name": "escrowed",
              "type": "uint256"
            },
            {
              "internalType": "uint256",
              "name": "createdAt",
              "type": "uint256"
            },
            {
              "internalType": "address",
              "name": "module",
              "type": "address"
            }
          ],
          "internalType": "struct DataTypes.Cheq",
          "name": "",
          "type": "tuple"
        },
        {
          "internalType": "bytes",
          "name": "",
          "type": "bytes"
        }
      ],
      "name": "processApproval",
      "outputs": [],
      "stateMutability": "view",
      "type": "function"
    },
    {
      "inputs": [
        {
          "internalType": "address",
          "name": "",
          "type": "address"
        },
        {
          "internalType": "address",
          "name": "owner",
          "type": "address"
        },
        {
          "internalType": "address",
          "name": "to",
          "type": "address"
        },
        {
          "internalType": "uint256",
          "name": "amount",
          "type": "uint256"
        },
        {
          "internalType": "uint256",
          "name": "cheqId",
          "type": "uint256"
        },
        {
          "components": [
            {
              "internalType": "address",
              "name": "currency",
              "type": "address"
            },
            {
              "internalType": "uint256",
              "name": "escrowed",
              "type": "uint256"
            },
            {
              "internalType": "uint256",
              "name": "createdAt",
              "type": "uint256"
            },
            {
              "internalType": "address",
              "name": "module",
              "type": "address"
            }
          ],
          "internalType": "struct DataTypes.Cheq",
          "name": "cheq",
          "type": "tuple"
        },
        {
          "internalType": "bytes",
          "name": "initData",
          "type": "bytes"
        }
      ],
      "name": "processCash",
      "outputs": [
        {
          "internalType": "uint256",
          "name": "",
          "type": "uint256"
        }
      ],
      "stateMutability": "nonpayable",
      "type": "function"
    },
    {
      "inputs": [
        {
          "internalType": "address",
          "name": "",
          "type": "address"
        },
        {
          "internalType": "address",
          "name": "",
          "type": "address"
        },
        {
          "internalType": "uint256",
          "name": "amount",
          "type": "uint256"
        },
        {
          "internalType": "uint256",
          "name": "instant",
          "type": "uint256"
        },
        {
          "internalType": "uint256",
          "name": "cheqId",
          "type": "uint256"
        },
        {
          "components": [
            {
              "internalType": "address",
              "name": "currency",
              "type": "address"
            },
            {
              "internalType": "uint256",
              "name": "escrowed",
              "type": "uint256"
            },
            {
              "internalType": "uint256",
              "name": "createdAt",
              "type": "uint256"
            },
            {
              "internalType": "address",
              "name": "module",
              "type": "address"
            }
          ],
          "internalType": "struct DataTypes.Cheq",
          "name": "cheq",
          "type": "tuple"
        },
        {
          "internalType": "bytes",
          "name": "initData",
          "type": "bytes"
        }
      ],
      "name": "processFund",
      "outputs": [
        {
          "internalType": "uint256",
          "name": "",
          "type": "uint256"
        }
      ],
      "stateMutability": "nonpayable",
      "type": "function"
    },
    {
      "inputs": [
        {
          "internalType": "uint256",
          "name": "tokenId",
          "type": "uint256"
        }
      ],
      "name": "processTokenURI",
      "outputs": [
        {
          "internalType": "string",
          "name": "",
          "type": "string"
        }
      ],
      "stateMutability": "view",
      "type": "function"
    },
    {
      "inputs": [
        {
          "internalType": "address",
          "name": "",
          "type": "address"
        },
        {
          "internalType": "address",
          "name": "",
          "type": "address"
        },
        {
          "internalType": "address",
          "name": "",
          "type": "address"
        },
        {
          "internalType": "address",
          "name": "",
          "type": "address"
        },
        {
          "internalType": "address",
          "name": "",
          "type": "address"
        },
        {
          "internalType": "uint256",
          "name": "",
          "type": "uint256"
        },
        {
          "internalType": "address",
          "name": "",
          "type": "address"
        },
        {
          "internalType": "uint256",
          "name": "",
          "type": "uint256"
        },
        {
          "internalType": "uint256",
          "name": "",
          "type": "uint256"
        },
        {
          "internalType": "bytes",
          "name": "",
          "type": "bytes"
        }
      ],
      "name": "processTransfer",
      "outputs": [
        {
          "internalType": "uint256",
          "name": "",
          "type": "uint256"
        }
      ],
      "stateMutability": "view",
      "type": "function"
    },
    {
      "inputs": [
        {
          "internalType": "address",
          "name": "caller",
          "type": "address"
        },
        {
          "internalType": "address",
          "name": "owner",
          "type": "address"
        },
        {
          "internalType": "uint256",
          "name": "cheqId",
          "type": "uint256"
        },
        {
          "internalType": "address",
          "name": "currency",
          "type": "address"
        },
        {
          "internalType": "uint256",
          "name": "escrowed",
          "type": "uint256"
        },
        {
          "internalType": "uint256",
          "name": "instant",
          "type": "uint256"
        },
        {
          "internalType": "bytes",
          "name": "initData",
          "type": "bytes"
        }
      ],
      "name": "processWrite",
      "outputs": [
        {
          "internalType": "uint256",
          "name": "",
          "type": "uint256"
        }
      ],
      "stateMutability": "nonpayable",
      "type": "function"
    },
    {
      "inputs": [
        {
          "internalType": "address",
          "name": "",
          "type": "address"
        },
        {
          "internalType": "address",
          "name": "",
          "type": "address"
        }
      ],
      "name": "revenue",
      "outputs": [
        {
          "internalType": "uint256",
          "name": "",
          "type": "uint256"
        }
      ],
      "stateMutability": "view",
      "type": "function"
    },
    {
      "inputs": [
        {
          "internalType": "address",
          "name": "token",
          "type": "address"
        }
      ],
      "name": "withdrawFees",
      "outputs": [],
      "stateMutability": "nonpayable",
      "type": "function"
    }
  ],
  "bytecode": {
    "object": "0x60a06040523480156200001157600080fd5b5060405162001c3e38038062001c3e8339810160408190526200003491620002f9565b82826001600160a01b0382166200005e576040516348be0eb360e01b815260040160405180910390fd5b6001600160a01b038216608052805161271011620000b25760405162461bcd60e51b8152602060048201526014602482015260008051602062001c1e83398151915260448201526064015b60405180910390fd5b612710816020015110620000f85760405162461bcd60e51b8152602060048201526014602482015260008051602062001c1e8339815191526044820152606401620000a9565b6127108160400151106200013e5760405162461bcd60e51b8152602060048201526014602482015260008051602062001c1e8339815191526044820152606401620000a9565b612710816060015110620001845760405162461bcd60e51b8152602060048201526014602482015260008051602062001c1e8339815191526044820152606401620000a9565b80516001556020808201516002556040808301516003556060830151600455514281526001600160a01b038416917ff1a1fa6b64aa95186f5a1285e76198d0da80d9c5a88062641d447f1d7c54e56c910160405180910390a25060059050620001ee828262000431565b50505050620004fd565b634e487b7160e01b600052604160045260246000fd5b604051608081016001600160401b0381118282101715620002335762000233620001f8565b60405290565b604051601f8201601f191681016001600160401b0381118282101715620002645762000264620001f8565b604052919050565b600082601f8301126200027e57600080fd5b81516001600160401b038111156200029a576200029a620001f8565b6020620002b0601f8301601f1916820162000239565b8281528582848701011115620002c557600080fd5b60005b83811015620002e5578581018301518282018401528201620002c8565b506000928101909101919091529392505050565b600080600083850360c08112156200031057600080fd5b84516001600160a01b03811681146200032857600080fd5b93506080601f19820112156200033d57600080fd5b50620003486200020e565b602085015181526040850151602082015260608501516040820152608085015160608201528092505060a084015160018060401b038111156200038a57600080fd5b62000398868287016200026c565b9150509250925092565b600181811c90821680620003b757607f821691505b602082108103620003d857634e487b7160e01b600052602260045260246000fd5b50919050565b601f8211156200042c57600081815260208120601f850160051c81016020861015620004075750805b601f850160051c820191505b81811015620004285782815560010162000413565b5050505b505050565b81516001600160401b038111156200044d576200044d620001f8565b62000465816200045e8454620003a2565b84620003de565b602080601f8311600181146200049d5760008415620004845750858301515b600019600386901b1c1916600185901b17855562000428565b600085815260208120601f198616915b82811015620004ce57888601518255948401946001909101908401620004ad565b5085821015620004ed5787850151600019600388901b60f8161c191681555b5050505050600190811b01905550565b6080516116d46200054a600039600081816102e70152818161035201528181610536015281816106a3015281816108a901528181610c6701528181610d8c0152610dd501526116d46000f3fe608060405234801561001057600080fd5b50600436106101005760003560e01c80639af1d35a11610097578063c0c9572c11610066578063c0c9572c146102cf578063cb609077146102e2578063db8d55f114610321578063e41759681461033257600080fd5b80639af1d35a1461026b578063b4e87e8f146102a1578063b5d701ba146102a9578063be2f3fdd146102bc57600080fd5b80634e6d1405116100d35780634e6d1405146101885780634fe17e1a146102105780635601477b146102305780639a0ea37a1461024357600080fd5b806306890cd014610105578063164e68de1461012b5780631c376c631461014057806342c549c014610168575b600080fd5b610118610113366004610efc565b610345565b6040519081526020015b60405180910390f35b61013e610139366004610f9e565b61049f565b005b61015361014e366004610fc2565b6105d3565b60408051928352901515602083015201610122565b61017b610176366004610fe4565b610612565b6040516101229190610ffd565b6101d8610196366004610fe4565b6006602052600090815260409020805460018201546002830154600384015460048501546005909501546001600160a01b039485169593909416939192909186565b604080516001600160a01b039788168152969095166020870152938501929092526060840152608083015260a082015260c001610122565b61022361021e366004610fe4565b610696565b604051610122919061104e565b61013e61023e366004610fc2565b610738565b61011861025136600461109c565b600060208181529281526040808220909352908152205481565b6001546002546003546004546102819392919084565b604080519485526020850193909352918301526060820152608001610122565b61022361080e565b6101186102b73660046110d5565b61089c565b6101186102ca36600461114d565b610c5a565b6101186102dd366004611260565b610d7f565b6103097f000000000000000000000000000000000000000000000000000000000000000081565b6040516001600160a01b039091168152602001610122565b600154600254600354600454610281565b61013e61034036600461132a565b610dca565b6000336001600160a01b037f0000000000000000000000000000000000000000000000000000000000000000161461039057604051632ad9535160e01b815260040160405180910390fd5b876001600160a01b0316876001600160a01b0316141580156103cc57506000858152600660205260409020546001600160a01b03888116911614155b156103ea5760405163719713ad60e01b815260040160405180910390fd5b600085815260076020908152604080832060069092529091206003015481548110610417576104176113bb565b90600052602060002090600202016000015486146104485760405163cd1c886760e01b815260040160405180910390fd5b600085815260066020526040812060030180546001929061046a9084906113e7565b9091555061049290506104806020860186610f9e565b8761048d85870187610f9e565b610e13565b9998505050505050505050565b336000908152602081815260408083206001600160a01b03851684529091529020546001811161050c5760405162461bcd60e51b8152602060048201526014602482015273496e73756666696369656e7420726576656e756560601b604482015260640160405180910390fd5b336000908152602081815260408083206001600160a01b03868116855292529091206001908190557f00000000000000000000000000000000000000000000000000000000000000009091169063d6a4f84c90849061056b9085611400565b6040516001600160e01b031960e085901b1681526001600160a01b0390921660048301526024820152336044820152606401600060405180830381600087803b1580156105b757600080fd5b505af11580156105cb573d6000803e3d6000fd5b505050505050565b600760205281600052604060002081815481106105ef57600080fd5b60009182526020909120600290910201805460019091015490925060ff16905082565b606060076000838152602001908152602001600020805480602002602001604051908101604052809291908181526020016000905b8282101561068b57600084815260209081902060408051808201909152600285029091018054825260019081015460ff161515828401529083529092019101610647565b505050509050919050565b6060336001600160a01b037f000000000000000000000000000000000000000000000000000000000000000016146106e157604051632ad9535160e01b815260040160405180910390fd5b6000600580546106f090611413565b90501161070c5760405180602001604052806000815250610730565b600582604051602001610720929190611447565b6040516020818303038152906040525b90505b919050565b6000828152600660205260409020600101546001600160a01b0316331480159061077957506000828152600660205260409020546001600160a01b03163314155b15610797576040516348ab459360e01b815260040160405180910390fd5b6000828152600760209081526040808320815180830183528581528084018581528254600180820185559387528587209251600290910290920191825551908201805460ff1916911515919091179055858452600690925282206004018054919290916108059084906113e7565b90915550505050565b6005805461081b90611413565b80601f016020809104026020016040519081016040528092919081815260200182805461084790611413565b80156108945780601f1061086957610100808354040283529160200191610894565b820191906000526020600020905b81548152906001019060200180831161087757829003601f168201915b505050505081565b6000336001600160a01b037f000000000000000000000000000000000000000000000000000000000000000016146108e757604051632ad9535160e01b815260040160405180910390fd5b60008080806108f88688018861150b565b93509350935093508b6001600160a01b03168d6001600160a01b0316036109b3578715610938576040516371c2848560e01b815260040160405180910390fd5b8c600660008d815260200190815260200160002060010160006101000a8154816001600160a01b0302191690836001600160a01b0316021790555083600660008d815260200190815260200160002060000160006101000a8154816001600160a01b0302191690836001600160a01b03160217905550610b25565b836001600160a01b03168c6001600160a01b031603610b0c576001600160a01b038c166109f357604051639fabe1c160e01b815260040160405180910390fd5b83600660008d815260200190815260200160002060010160006101000a8154816001600160a01b0302191690836001600160a01b031602179055508c600660008d815260200190815260200160002060000160006101000a8154816001600160a01b0302191690836001600160a01b0316021790555042600660008d81526020019081526020016000206002018190555080600081518110610a9757610a976113bb565b60200260200101518914610b075780600081518110610ab857610ab86113bb565b60200260200101518814610adf5760405163cd1c886760e01b815260040160405180910390fd5b60008b8152600660205260408120600301805460019290610b019084906113e7565b90915550505b610b25565b604051635a89288760e01b815260040160405180910390fd5b80516002811015610b495760405163de777b7f60e01b815260040160405180910390fd5b60008c8152600660205260408120600481018390556005018490555b81811015610bf657600760008e81526020019081526020016000206040518060400160405280858481518110610b9d57610b9d6113bb565b6020908102919091018101518252600091810182905283546001808201865594835291819020835160029093020191825591909101519101805460ff191691151591909117905580610bee816115e0565b915050610b65565b507f5a934ba2d8e88d32865480eab252d2fd02bc4a5b33d26684bda63e09a4cb7ebc8c868585604051610c2c94939291906115f9565b60405180910390a1610c488b610c428b8d6113e7565b86610e13565b9e9d5050505050505050505050505050565b6000336001600160a01b037f00000000000000000000000000000000000000000000000000000000000000001614610ca557604051632ad9535160e01b815260040160405180910390fd5b600085815260076020908152604080832060069092529091206003015481548110610cd257610cd26113bb565b9060005260206000209060020201600001548714610d035760405163cd1c886760e01b815260040160405180910390fd5b6000858152600660205260408120600201549003610d31576000858152600660205260409020426002909101555b6000858152600660205260408120600301805460019290610d539084906113e7565b909155506104929050610d696020860186610f9e565b610d73888a6113e7565b61048d85870187610f9e565b6000336001600160a01b037f00000000000000000000000000000000000000000000000000000000000000001614610b0c57604051632ad9535160e01b815260040160405180910390fd5b336001600160a01b037f00000000000000000000000000000000000000000000000000000000000000001614610b0c57604051632ad9535160e01b815260040160405180910390fd5b60025460009061271090610e27908561165d565b610e31919061167c565b6001600160a01b03808416600090815260208181526040808320938916835292905290812080549293508392909190610e6b9084906113e7565b9091555090949350505050565b6001600160a01b0381168114610e8d57600080fd5b50565b803561073381610e78565b600060808284031215610ead57600080fd5b50919050565b60008083601f840112610ec557600080fd5b50813567ffffffffffffffff811115610edd57600080fd5b602083019150836020828501011115610ef557600080fd5b9250929050565b600080600080600080600080610140898b031215610f1957600080fd5b8835610f2481610e78565b97506020890135610f3481610e78565b96506040890135610f4481610e78565b95506060890135945060808901359350610f618a60a08b01610e9b565b925061012089013567ffffffffffffffff811115610f7e57600080fd5b610f8a8b828c01610eb3565b999c989b5096995094979396929594505050565b600060208284031215610fb057600080fd5b8135610fbb81610e78565b9392505050565b60008060408385031215610fd557600080fd5b50508035926020909101359150565b600060208284031215610ff657600080fd5b5035919050565b602080825282518282018190526000919060409081850190868401855b8281101561104157815180518552860151151586850152928401929085019060010161101a565b5091979650505050505050565b600060208083528351808285015260005b8181101561107b5785810183015185820160400152820161105f565b506000604082860101526040601f19601f8301168501019250505092915050565b600080604083850312156110af57600080fd5b82356110ba81610e78565b915060208301356110ca81610e78565b809150509250929050565b60008060008060008060008060e0898b0312156110f157600080fd5b88356110fc81610e78565b9750602089013561110c81610e78565b965060408901359550606089013561112381610e78565b94506080890135935060a0890135925060c089013567ffffffffffffffff811115610f7e57600080fd5b600080600080600080600080610140898b03121561116a57600080fd5b883561117581610e78565b9750602089013561118581610e78565b9650604089013595506060890135945060808901359350610f618a60a08b01610e9b565b634e487b7160e01b600052604160045260246000fd5b604051601f8201601f1916810167ffffffffffffffff811182821017156111e8576111e86111a9565b604052919050565b600082601f83011261120157600080fd5b813567ffffffffffffffff81111561121b5761121b6111a9565b61122e601f8201601f19166020016111bf565b81815284602083860101111561124357600080fd5b816020850160208301376000918101602001919091529392505050565b6000806000806000806000806000806101408b8d03121561128057600080fd5b8a3561128b81610e78565b995060208b013561129b81610e78565b985060408b01356112ab81610e78565b975060608b01356112bb81610e78565b965060808b01356112cb81610e78565b955060a08b013594506112e060c08c01610e90565b935060e08b013592506101008b013591506101208b013567ffffffffffffffff81111561130c57600080fd5b6113188d828e016111f0565b9150509295989b9194979a5092959850565b600080600080600080610120878903121561134457600080fd5b863561134f81610e78565b9550602087013561135f81610e78565b9450604087013561136f81610e78565b9350606087013592506113858860808901610e9b565b915061010087013567ffffffffffffffff8111156113a257600080fd5b6113ae89828a016111f0565b9150509295509295509295565b634e487b7160e01b600052603260045260246000fd5b634e487b7160e01b600052601160045260246000fd5b808201808211156113fa576113fa6113d1565b92915050565b818103818111156113fa576113fa6113d1565b600181811c9082168061142757607f821691505b602082108103610ead57634e487b7160e01b600052602260045260246000fd5b6f161132bc3a32b93730b62fbab936111d60811b815282546000906010908290600181811c908083168061147c57607f831692505b6020808410820361149b57634e487b7160e01b86526022600452602486fd5b8180156114af57600181146114c8576114f9565b60ff1986168a89015284151585028a01880196506114f9565b60008c81526020902060005b868110156114ef5781548c82018b01529085019083016114d4565b505087858b010196505b50988552505050940195945050505050565b6000806000806080858703121561152157600080fd5b843561152c81610e78565b935060208581013561153d81610e78565b935060408601359250606086013567ffffffffffffffff8082111561156157600080fd5b818801915088601f83011261157557600080fd5b813581811115611587576115876111a9565b8060051b91506115988483016111bf565b818152918301840191848101908b8411156115b257600080fd5b938501935b838510156115d0578435825293850193908501906115b7565b989b979a50959850505050505050565b6000600182016115f2576115f26113d1565b5060010190565b600060808201868352602060018060a01b038716818501528560408501526080606085015281855180845260a086019150828701935060005b8181101561164e57845183529383019391830191600101611632565b50909998505050505050505050565b6000816000190483118215151615611677576116776113d1565b500290565b60008261169957634e487b7160e01b600052601260045260246000fd5b50049056fea26469706673582212205c5e8dd65fa96d7d574109cf0bbed0fe1fd06f0e41e8609376ec673fe85b013d64736f6c634300081000334d6f64756c653a2046656520746f6f2068696768000000000000000000000000",
    "linkReferences": {}
  },
  "methodIdentifiers": {
    "REGISTRAR()": "cb609077",
    "_URI()": "b4e87e8f",
    "addMilestone(uint256,uint256)": "5601477b",
    "fees()": "9af1d35a",
    "getFees()": "db8d55f1",
    "getMilestones(uint256)": "42c549c0",
    "invoices(uint256)": "4e6d1405",
    "milestones(uint256,uint256)": "1c376c63",
    "processApproval(address,address,address,uint256,(address,uint256,uint256,address),bytes)": "e4175968",
    "processCash(address,address,address,uint256,uint256,(address,uint256,uint256,address),bytes)": "06890cd0",
    "processFund(address,address,uint256,uint256,uint256,(address,uint256,uint256,address),bytes)": "be2f3fdd",
    "processTokenURI(uint256)": "4fe17e1a",
    "processTransfer(address,address,address,address,address,uint256,address,uint256,uint256,bytes)": "c0c9572c",
    "processWrite(address,address,uint256,address,uint256,uint256,bytes)": "b5d701ba",
    "revenue(address,address)": "9a0ea37a",
    "withdrawFees(address)": "164e68de"
  },
  "id": 49
}