{
  "abi": [
    {
      "inputs": [
        {
          "internalType": "address",
          "name": "registrar",
          "type": "address"
        },
        {
          "components": [
            {
              "internalType": "uint256",
              "name": "writeBPS",
              "type": "uint256"
            },
            {
              "internalType": "uint256",
              "name": "transferBPS",
              "type": "uint256"
            },
            {
              "internalType": "uint256",
              "name": "fundBPS",
              "type": "uint256"
            },
            {
              "internalType": "uint256",
              "name": "cashBPS",
              "type": "uint256"
            }
          ],
          "internalType": "struct DataTypes.WTFCFees",
          "name": "_fees",
          "type": "tuple"
        },
        {
          "internalType": "string",
          "name": "__baseURI",
          "type": "string"
        }
      ],
      "stateMutability": "nonpayable",
      "type": "constructor"
    },
    {
      "inputs": [],
      "name": "AddressZero",
      "type": "error"
    },
    {
      "inputs": [],
      "name": "Disallowed",
      "type": "error"
    },
    {
      "inputs": [],
      "name": "FeeTooHigh",
      "type": "error"
    },
    {
      "inputs": [],
      "name": "InitParamsInvalid",
      "type": "error"
    },
    {
      "inputs": [],
      "name": "InsufficientMilestones",
      "type": "error"
    },
    {
      "inputs": [],
      "name": "InsufficientPayment",
      "type": "error"
    },
    {
      "inputs": [],
      "name": "InvoiceWithPay",
      "type": "error"
    },
    {
      "inputs": [],
      "name": "NotRegistrar",
      "type": "error"
    },
    {
      "inputs": [],
      "name": "OnlyOwner",
      "type": "error"
    },
    {
      "inputs": [],
      "name": "OnlyOwnerOrApproved",
      "type": "error"
    },
    {
      "inputs": [],
      "name": "OnlyOwnerOrClient",
      "type": "error"
    },
    {
      "inputs": [],
      "name": "OnlyWorkerOrClient",
      "type": "error"
    },
    {
      "anonymous": false,
      "inputs": [
        {
          "indexed": false,
          "internalType": "uint256",
          "name": "cheqId",
          "type": "uint256"
        },
        {
          "indexed": false,
          "internalType": "address",
          "name": "toNotify",
          "type": "address"
        },
        {
          "indexed": false,
          "internalType": "bytes32",
          "name": "docHash",
          "type": "bytes32"
        },
        {
          "indexed": false,
          "internalType": "uint256[]",
          "name": "milestoneAmounts",
          "type": "uint256[]"
        }
      ],
      "name": "Invoiced",
      "type": "event"
    },
    {
      "inputs": [],
      "name": "REGISTRAR",
      "outputs": [
        {
          "internalType": "address",
          "name": "",
          "type": "address"
        }
      ],
      "stateMutability": "view",
      "type": "function"
    },
    {
      "inputs": [],
      "name": "_URI",
      "outputs": [
        {
          "internalType": "string",
          "name": "",
          "type": "string"
        }
      ],
      "stateMutability": "view",
      "type": "function"
    },
    {
      "inputs": [
        {
          "internalType": "uint256",
          "name": "cheqId",
          "type": "uint256"
        },
        {
          "internalType": "uint256",
          "name": "amount",
          "type": "uint256"
        }
      ],
      "name": "addMilestone",
      "outputs": [],
      "stateMutability": "nonpayable",
      "type": "function"
    },
    {
      "inputs": [
        {
          "internalType": "address",
          "name": "",
          "type": "address"
        }
      ],
      "name": "dappOperatorFees",
      "outputs": [
        {
          "internalType": "uint256",
          "name": "writeBPS",
          "type": "uint256"
        },
        {
          "internalType": "uint256",
          "name": "transferBPS",
          "type": "uint256"
        },
        {
          "internalType": "uint256",
          "name": "fundBPS",
          "type": "uint256"
        },
        {
          "internalType": "uint256",
          "name": "cashBPS",
          "type": "uint256"
        }
      ],
      "stateMutability": "view",
      "type": "function"
    },
    {
      "inputs": [
        {
          "internalType": "address",
          "name": "dappOperator",
          "type": "address"
        }
      ],
      "name": "getFees",
      "outputs": [
        {
          "components": [
            {
              "internalType": "uint256",
              "name": "writeBPS",
              "type": "uint256"
            },
            {
              "internalType": "uint256",
              "name": "transferBPS",
              "type": "uint256"
            },
            {
              "internalType": "uint256",
              "name": "fundBPS",
              "type": "uint256"
            },
            {
              "internalType": "uint256",
              "name": "cashBPS",
              "type": "uint256"
            }
          ],
          "internalType": "struct DataTypes.WTFCFees",
          "name": "",
          "type": "tuple"
        }
      ],
      "stateMutability": "view",
      "type": "function"
    },
    {
      "inputs": [
        {
          "internalType": "uint256",
          "name": "cheqId",
          "type": "uint256"
        }
      ],
      "name": "getMilestones",
      "outputs": [
        {
          "components": [
            {
              "internalType": "uint256",
              "name": "amount",
              "type": "uint256"
            },
            {
              "internalType": "bool",
              "name": "isCashed",
              "type": "bool"
            }
          ],
          "internalType": "struct Milestones.Milestone[]",
          "name": "",
          "type": "tuple[]"
        }
      ],
      "stateMutability": "view",
      "type": "function"
    },
    {
      "inputs": [
        {
          "internalType": "uint256",
          "name": "",
          "type": "uint256"
        }
      ],
      "name": "invoices",
      "outputs": [
        {
          "internalType": "address",
          "name": "client",
          "type": "address"
        },
        {
          "internalType": "address",
          "name": "worker",
          "type": "address"
        },
        {
          "internalType": "uint256",
          "name": "startTime",
          "type": "uint256"
        },
        {
          "internalType": "uint256",
          "name": "currentMilestone",
          "type": "uint256"
        },
        {
          "internalType": "uint256",
          "name": "totalMilestones",
          "type": "uint256"
        },
        {
          "internalType": "bytes32",
          "name": "documentHash",
          "type": "bytes32"
        }
      ],
      "stateMutability": "view",
      "type": "function"
    },
    {
      "inputs": [
        {
          "internalType": "uint256",
          "name": "",
          "type": "uint256"
        },
        {
          "internalType": "uint256",
          "name": "",
          "type": "uint256"
        }
      ],
      "name": "milestones",
      "outputs": [
        {
          "internalType": "uint256",
          "name": "amount",
          "type": "uint256"
        },
        {
          "internalType": "bool",
          "name": "isCashed",
          "type": "bool"
        }
      ],
      "stateMutability": "view",
      "type": "function"
    },
    {
      "inputs": [
        {
          "internalType": "address",
          "name": "",
          "type": "address"
        },
        {
          "internalType": "address",
          "name": "",
          "type": "address"
        },
        {
          "internalType": "address",
          "name": "",
          "type": "address"
        },
        {
          "internalType": "uint256",
          "name": "",
          "type": "uint256"
        },
        {
          "components": [
            {
              "internalType": "address",
              "name": "currency",
              "type": "address"
            },
            {
              "internalType": "uint256",
              "name": "escrowed",
              "type": "uint256"
            },
            {
              "internalType": "uint256",
              "name": "createdAt",
              "type": "uint256"
            },
            {
              "internalType": "address",
              "name": "module",
              "type": "address"
            }
          ],
          "internalType": "struct DataTypes.Cheq",
          "name": "",
          "type": "tuple"
        },
        {
          "internalType": "bytes",
          "name": "",
          "type": "bytes"
        }
      ],
      "name": "processApproval",
      "outputs": [],
      "stateMutability": "view",
      "type": "function"
    },
    {
      "inputs": [
        {
          "internalType": "address",
          "name": "",
          "type": "address"
        },
        {
          "internalType": "address",
          "name": "owner",
          "type": "address"
        },
        {
          "internalType": "address",
          "name": "to",
          "type": "address"
        },
        {
          "internalType": "uint256",
          "name": "amount",
          "type": "uint256"
        },
        {
          "internalType": "uint256",
          "name": "cheqId",
          "type": "uint256"
        },
        {
          "components": [
            {
              "internalType": "address",
              "name": "currency",
              "type": "address"
            },
            {
              "internalType": "uint256",
              "name": "escrowed",
              "type": "uint256"
            },
            {
              "internalType": "uint256",
              "name": "createdAt",
              "type": "uint256"
            },
            {
              "internalType": "address",
              "name": "module",
              "type": "address"
            }
          ],
          "internalType": "struct DataTypes.Cheq",
          "name": "cheq",
          "type": "tuple"
        },
        {
          "internalType": "bytes",
          "name": "initData",
          "type": "bytes"
        }
      ],
      "name": "processCash",
      "outputs": [
        {
          "internalType": "uint256",
          "name": "",
          "type": "uint256"
        }
      ],
      "stateMutability": "nonpayable",
      "type": "function"
    },
    {
      "inputs": [
        {
          "internalType": "address",
          "name": "",
          "type": "address"
        },
        {
          "internalType": "address",
          "name": "",
          "type": "address"
        },
        {
          "internalType": "uint256",
          "name": "amount",
          "type": "uint256"
        },
        {
          "internalType": "uint256",
          "name": "instant",
          "type": "uint256"
        },
        {
          "internalType": "uint256",
          "name": "cheqId",
          "type": "uint256"
        },
        {
          "components": [
            {
              "internalType": "address",
              "name": "currency",
              "type": "address"
            },
            {
              "internalType": "uint256",
              "name": "escrowed",
              "type": "uint256"
            },
            {
              "internalType": "uint256",
              "name": "createdAt",
              "type": "uint256"
            },
            {
              "internalType": "address",
              "name": "module",
              "type": "address"
            }
          ],
          "internalType": "struct DataTypes.Cheq",
          "name": "cheq",
          "type": "tuple"
        },
        {
          "internalType": "bytes",
          "name": "initData",
          "type": "bytes"
        }
      ],
      "name": "processFund",
      "outputs": [
        {
          "internalType": "uint256",
          "name": "",
          "type": "uint256"
        }
      ],
      "stateMutability": "nonpayable",
      "type": "function"
    },
    {
      "inputs": [
        {
          "internalType": "uint256",
          "name": "tokenId",
          "type": "uint256"
        }
      ],
      "name": "processTokenURI",
      "outputs": [
        {
          "internalType": "string",
          "name": "",
          "type": "string"
        }
      ],
      "stateMutability": "view",
      "type": "function"
    },
    {
      "inputs": [
        {
          "internalType": "address",
          "name": "",
          "type": "address"
        },
        {
          "internalType": "address",
          "name": "",
          "type": "address"
        },
        {
          "internalType": "address",
          "name": "",
          "type": "address"
        },
        {
          "internalType": "address",
          "name": "",
          "type": "address"
        },
        {
          "internalType": "address",
          "name": "",
          "type": "address"
        },
        {
          "internalType": "uint256",
          "name": "",
          "type": "uint256"
        },
        {
          "internalType": "address",
          "name": "",
          "type": "address"
        },
        {
          "internalType": "uint256",
          "name": "",
          "type": "uint256"
        },
        {
          "internalType": "uint256",
          "name": "",
          "type": "uint256"
        },
        {
          "internalType": "bytes",
          "name": "",
          "type": "bytes"
        }
      ],
      "name": "processTransfer",
      "outputs": [
        {
          "internalType": "uint256",
          "name": "",
          "type": "uint256"
        }
      ],
      "stateMutability": "view",
      "type": "function"
    },
    {
      "inputs": [
        {
          "internalType": "address",
          "name": "caller",
          "type": "address"
        },
        {
          "internalType": "address",
          "name": "owner",
          "type": "address"
        },
        {
          "internalType": "uint256",
          "name": "cheqId",
          "type": "uint256"
        },
        {
          "internalType": "address",
          "name": "currency",
          "type": "address"
        },
        {
          "internalType": "uint256",
          "name": "escrowed",
          "type": "uint256"
        },
        {
          "internalType": "uint256",
          "name": "instant",
          "type": "uint256"
        },
        {
          "internalType": "bytes",
          "name": "initData",
          "type": "bytes"
        }
      ],
      "name": "processWrite",
      "outputs": [
        {
          "internalType": "uint256",
          "name": "",
          "type": "uint256"
        }
      ],
      "stateMutability": "nonpayable",
      "type": "function"
    },
    {
      "inputs": [
        {
          "internalType": "address",
          "name": "",
          "type": "address"
        },
        {
          "internalType": "address",
          "name": "",
          "type": "address"
        }
      ],
      "name": "revenue",
      "outputs": [
        {
          "internalType": "uint256",
          "name": "",
          "type": "uint256"
        }
      ],
      "stateMutability": "view",
      "type": "function"
    },
    {
      "inputs": [
        {
          "components": [
            {
              "internalType": "uint256",
              "name": "writeBPS",
              "type": "uint256"
            },
            {
              "internalType": "uint256",
              "name": "transferBPS",
              "type": "uint256"
            },
            {
              "internalType": "uint256",
              "name": "fundBPS",
              "type": "uint256"
            },
            {
              "internalType": "uint256",
              "name": "cashBPS",
              "type": "uint256"
            }
          ],
          "internalType": "struct DataTypes.WTFCFees",
          "name": "_fees",
          "type": "tuple"
        }
      ],
      "name": "setFees",
      "outputs": [],
      "stateMutability": "nonpayable",
      "type": "function"
    },
    {
      "inputs": [
        {
          "internalType": "address",
          "name": "token",
          "type": "address"
        }
      ],
      "name": "withdrawFees",
      "outputs": [],
      "stateMutability": "nonpayable",
      "type": "function"
    }
  ],
  "bytecode": {
    "object": "0x60a06040523480156200001157600080fd5b506040516200237f3803806200237f83398101604081905262000034916200029e565b82826001600160a01b0382166200005e576040516348be0eb360e01b815260040160405180910390fd5b6001600160a01b03821660805280516127101015620000905760405163cd4e616760e01b815260040160405180910390fd5b80602001516127101015620000b85760405163cd4e616760e01b815260040160405180910390fd5b80604001516127101015620000e05760405163cd4e616760e01b815260040160405180910390fd5b80606001516127101015620001085760405163cd4e616760e01b815260040160405180910390fd5b336000908152600160208181526040928390208451815590840151918101919091558183015160028201556060830151600390910155516001600160a01b038316907ff1a1fa6b64aa95186f5a1285e76198d0da80d9c5a88062641d447f1d7c54e56c906200017a9042815260200190565b60405180910390a25060029050620001938282620003d6565b50505050620004a2565b634e487b7160e01b600052604160045260246000fd5b604051608081016001600160401b0381118282101715620001d857620001d86200019d565b60405290565b604051601f8201601f191681016001600160401b03811182821017156200020957620002096200019d565b604052919050565b600082601f8301126200022357600080fd5b81516001600160401b038111156200023f576200023f6200019d565b602062000255601f8301601f19168201620001de565b82815285828487010111156200026a57600080fd5b60005b838110156200028a5785810183015182820184015282016200026d565b506000928101909101919091529392505050565b600080600083850360c0811215620002b557600080fd5b84516001600160a01b0381168114620002cd57600080fd5b93506080601f1982011215620002e257600080fd5b50620002ed620001b3565b602085015181526040850151602082015260608501516040820152608085015160608201528092505060a084015160018060401b038111156200032f57600080fd5b6200033d8682870162000211565b9150509250925092565b600181811c908216806200035c57607f821691505b6020821081036200037d57634e487b7160e01b600052602260045260246000fd5b50919050565b601f821115620003d157600081815260208120601f850160051c81016020861015620003ac5750805b601f850160051c820191505b81811015620003cd57828155600101620003b8565b5050505b505050565b81516001600160401b03811115620003f257620003f26200019d565b6200040a8162000403845462000347565b8462000383565b602080601f831160018114620004425760008415620004295750858301515b600019600386901b1c1916600185901b178555620003cd565b600085815260208120601f198616915b82811015620004735788860151825594840194600190910190840162000452565b5085821015620004925787850151600019600388901b60f8161c191681555b5050505050600190811b01905550565b608051611e90620004ef600039600081816103820152818161043d015281816106d10152818161087001528181610b720152818161109c0152818161120501526112740152611e906000f3fe608060405234801561001057600080fd5b506004361061011b5760003560e01c80639a0ea37a116100b2578063be2f3fdd11610081578063cb60907711610066578063cb6090771461037d578063e4175968146103c9578063fd77c960146103dc57600080fd5b8063be2f3fdd14610357578063c0c9572c1461036a57600080fd5b80639a0ea37a146102ce5780639af608c9146102f6578063b4e87e8f1461033c578063b5d701ba1461034457600080fd5b806342c549c0116100ee57806342c549c0146101d95780634e6d1405146101f95780634fe17e1a1461029b5780635601477b146102bb57600080fd5b806306890cd0146101205780631385a7b614610146578063164e68de1461019c5780631c376c63146101b1575b600080fd5b61013361012e3660046114ec565b610423565b6040519081526020015b60405180910390f35b61017c61015436600461158e565b6001602081905260009182526040909120805491810154600282015460039092015490919084565b60408051948552602085019390935291830152606082015260800161013d565b6101af6101aa36600461158e565b6105fc565b005b6101c46101bf3660046115b2565b610793565b6040805192835290151560208301520161013d565b6101ec6101e73660046115d4565b6107d2565b60405161013d91906115ed565b6102566102073660046115d4565b600360208190526000918252604090912080546001820154600283015493830154600484015460059094015473ffffffffffffffffffffffffffffffffffffffff938416959390921693909186565b6040805173ffffffffffffffffffffffffffffffffffffffff9788168152969095166020870152938501929092526060840152608083015260a082015260c00161013d565b6102ae6102a93660046115d4565b610856565b60405161013d919061163e565b6101af6102c93660046115b2565b61091e565b6101336102dc3660046116aa565b600060208181529281526040808220909352908152205481565b61030961030436600461158e565b610a45565b60405161013d91908151815260208083015190820152604080830151908201526060918201519181019190915260800190565b6102ae610aca565b6101336103523660046116e3565b610b58565b61013361036536600461175b565b611082565b6101336103783660046118c3565b6111eb565b6103a47f000000000000000000000000000000000000000000000000000000000000000081565b60405173ffffffffffffffffffffffffffffffffffffffff909116815260200161013d565b6101af6103d736600461198d565b61125c565b6101af6103ea366004611a1e565b33600090815260016020818152604092839020845181559084015191810191909155908201516002820155606090910151600390910155565b60003373ffffffffffffffffffffffffffffffffffffffff7f00000000000000000000000000000000000000000000000000000000000000001614610494576040517f2ad9535100000000000000000000000000000000000000000000000000000000815260040160405180910390fd5b8773ffffffffffffffffffffffffffffffffffffffff168773ffffffffffffffffffffffffffffffffffffffff16141580156104f7575060008581526003602052604090205473ffffffffffffffffffffffffffffffffffffffff888116911614155b1561052e576040517f719713ad00000000000000000000000000000000000000000000000000000000815260040160405180910390fd5b6000858152600460209081526040808320600392839052922001548154811061055957610559611a84565b90600052602060002090600202016000015486146105a3576040517fcd1c886700000000000000000000000000000000000000000000000000000000815260040160405180910390fd5b60008581526003602081905260408220018054600192906105c5908490611ae2565b909155506105ef90506105db602086018661158e565b876105e88587018761158e565b60036112cb565b9998505050505050505050565b3360009081526020818152604080832073ffffffffffffffffffffffffffffffffffffffff851684529091529020546001811161069a576040517f08c379a000000000000000000000000000000000000000000000000000000000815260206004820152601460248201527f496e73756666696369656e7420726576656e756500000000000000000000000060448201526064015b60405180910390fd5b3360009081526020818152604080832073ffffffffffffffffffffffffffffffffffffffff868116855292529091206001908190557f00000000000000000000000000000000000000000000000000000000000000009091169063d6a4f84c9084906107069085611afb565b6040517fffffffff0000000000000000000000000000000000000000000000000000000060e085901b16815273ffffffffffffffffffffffffffffffffffffffff90921660048301526024820152336044820152606401600060405180830381600087803b15801561077757600080fd5b505af115801561078b573d6000803e3d6000fd5b505050505050565b600460205281600052604060002081815481106107af57600080fd5b60009182526020909120600290910201805460019091015490925060ff16905082565b606060046000838152602001908152602001600020805480602002602001604051908101604052809291908181526020016000905b8282101561084b57600084815260209081902060408051808201909152600285029091018054825260019081015460ff161515828401529083529092019101610807565b505050509050919050565b60603373ffffffffffffffffffffffffffffffffffffffff7f000000000000000000000000000000000000000000000000000000000000000016146108c7576040517f2ad9535100000000000000000000000000000000000000000000000000000000815260040160405180910390fd5b6000600280546108d690611b0e565b9050116108f25760405180602001604052806000815250610916565b600282604051602001610906929190611b5b565b6040516020818303038152906040525b90505b919050565b60008281526003602052604090206001015473ffffffffffffffffffffffffffffffffffffffff163314801590610979575060008281526003602052604090205473ffffffffffffffffffffffffffffffffffffffff163314155b156109b0576040517f48ab459300000000000000000000000000000000000000000000000000000000815260040160405180910390fd5b600082815260046020818152604080842081518083018352868152808401868152825460018082018555938852858820925160029091029092019182555190820180547fffffffffffffffffffffffffffffffffffffffffffffffffffffffffffffff001691151591909117905586855260039092528320909101805491929091610a3c908490611ae2565b90915550505050565b610a706040518060800160405280600081526020016000815260200160008152602001600081525090565b5073ffffffffffffffffffffffffffffffffffffffff166000908152600160208181526040928390208351608081018552815481529281015491830191909152600281015492820192909252600390910154606082015290565b60028054610ad790611b0e565b80601f0160208091040260200160405190810160405280929190818152602001828054610b0390611b0e565b8015610b505780601f10610b2557610100808354040283529160200191610b50565b820191906000526020600020905b815481529060010190602001808311610b3357829003601f168201915b505050505081565b60003373ffffffffffffffffffffffffffffffffffffffff7f00000000000000000000000000000000000000000000000000000000000000001614610bc9576040517f2ad9535100000000000000000000000000000000000000000000000000000000815260040160405180910390fd5b6000808080610bda86880188611c63565b93509350935093508b73ffffffffffffffffffffffffffffffffffffffff168d73ffffffffffffffffffffffffffffffffffffffff1603610cfc578715610c4d576040517f71c2848500000000000000000000000000000000000000000000000000000000815260040160405180910390fd5b8c600360008d815260200190815260200160002060010160006101000a81548173ffffffffffffffffffffffffffffffffffffffff021916908373ffffffffffffffffffffffffffffffffffffffff16021790555083600360008d815260200190815260200160002060000160006101000a81548173ffffffffffffffffffffffffffffffffffffffff021916908373ffffffffffffffffffffffffffffffffffffffff160217905550610f14565b8373ffffffffffffffffffffffffffffffffffffffff168c73ffffffffffffffffffffffffffffffffffffffff1603610ee25773ffffffffffffffffffffffffffffffffffffffff8c16610d7c576040517f9fabe1c100000000000000000000000000000000000000000000000000000000815260040160405180910390fd5b83600360008d815260200190815260200160002060010160006101000a81548173ffffffffffffffffffffffffffffffffffffffff021916908373ffffffffffffffffffffffffffffffffffffffff1602179055508c600360008d815260200190815260200160002060000160006101000a81548173ffffffffffffffffffffffffffffffffffffffff021916908373ffffffffffffffffffffffffffffffffffffffff16021790555042600360008d81526020019081526020016000206002018190555080600081518110610e5457610e54611a84565b60200260200101518914610edd5780600081518110610e7557610e75611a84565b60200260200101518814610eb5576040517fcd1c886700000000000000000000000000000000000000000000000000000000815260040160405180910390fd5b60008b8152600360208190526040822001805460019290610ed7908490611ae2565b90915550505b610f14565b6040517f5a89288700000000000000000000000000000000000000000000000000000000815260040160405180910390fd5b80516002811015610f51576040517fde777b7f00000000000000000000000000000000000000000000000000000000815260040160405180910390fd5b60008c8152600360205260408120600481018390556005018490555b8181101561101c57600460008e81526020019081526020016000206040518060400160405280858481518110610fa557610fa5611a84565b602090810291909101810151825260009181018290528354600180820186559483529181902083516002909302019182559190910151910180547fffffffffffffffffffffffffffffffffffffffffffffffffffffffffffffff00169115159190911790558061101481611d38565b915050610f6d565b507f5a934ba2d8e88d32865480eab252d2fd02bc4a5b33d26684bda63e09a4cb7ebc8c8685856040516110529493929190611d70565b60405180910390a16110708b6110688b8d611ae2565b8660006112cb565b9e9d5050505050505050505050505050565b60003373ffffffffffffffffffffffffffffffffffffffff7f000000000000000000000000000000000000000000000000000000000000000016146110f3576040517f2ad9535100000000000000000000000000000000000000000000000000000000815260040160405180910390fd5b6000858152600460209081526040808320600392839052922001548154811061111e5761111e611a84565b9060005260206000209060020201600001548714611168576040517fcd1c886700000000000000000000000000000000000000000000000000000000815260040160405180910390fd5b6000858152600360205260408120600201549003611196576000858152600360205260409020426002909101555b60008581526003602081905260408220018054600192906111b8908490611ae2565b909155506105ef90506111ce602086018661158e565b6111d8888a611ae2565b6111e48587018761158e565b60026112cb565b60003373ffffffffffffffffffffffffffffffffffffffff7f00000000000000000000000000000000000000000000000000000000000000001614610ee2576040517f2ad9535100000000000000000000000000000000000000000000000000000000815260040160405180910390fd5b3373ffffffffffffffffffffffffffffffffffffffff7f00000000000000000000000000000000000000000000000000000000000000001614610ee2576040517f2ad9535100000000000000000000000000000000000000000000000000000000815260040160405180910390fd5b60008160ff16600003611304575073ffffffffffffffffffffffffffffffffffffffff82166000908152600160205260409020546113ef565b8160ff1660010361133f575073ffffffffffffffffffffffffffffffffffffffff8216600090815260016020819052604090912001546113ef565b8160ff16600203611379575073ffffffffffffffffffffffffffffffffffffffff82166000908152600160205260409020600201546113ef565b8160ff166003036113b3575073ffffffffffffffffffffffffffffffffffffffff82166000908152600160205260409020600301546113ef565b6040517f08c379a00000000000000000000000000000000000000000000000000000000081526020600482015260006024820152604401610691565b6127106113fc8286611de2565b6114069190611e1f565b73ffffffffffffffffffffffffffffffffffffffff808516600090815260208181526040808320938a1683529290529081208054929350839290919061144d908490611ae2565b909155509095945050505050565b73ffffffffffffffffffffffffffffffffffffffff8116811461147d57600080fd5b50565b80356109198161145b565b60006080828403121561149d57600080fd5b50919050565b60008083601f8401126114b557600080fd5b50813567ffffffffffffffff8111156114cd57600080fd5b6020830191508360208285010111156114e557600080fd5b9250929050565b600080600080600080600080610140898b03121561150957600080fd5b88356115148161145b565b975060208901356115248161145b565b965060408901356115348161145b565b955060608901359450608089013593506115518a60a08b0161148b565b925061012089013567ffffffffffffffff81111561156e57600080fd5b61157a8b828c016114a3565b999c989b5096995094979396929594505050565b6000602082840312156115a057600080fd5b81356115ab8161145b565b9392505050565b600080604083850312156115c557600080fd5b50508035926020909101359150565b6000602082840312156115e657600080fd5b5035919050565b602080825282518282018190526000919060409081850190868401855b8281101561163157815180518552860151151586850152928401929085019060010161160a565b5091979650505050505050565b600060208083528351808285015260005b8181101561166b5785810183015185820160400152820161164f565b5060006040828601015260407fffffffffffffffffffffffffffffffffffffffffffffffffffffffffffffffe0601f8301168501019250505092915050565b600080604083850312156116bd57600080fd5b82356116c88161145b565b915060208301356116d88161145b565b809150509250929050565b60008060008060008060008060e0898b0312156116ff57600080fd5b883561170a8161145b565b9750602089013561171a8161145b565b96506040890135955060608901356117318161145b565b94506080890135935060a0890135925060c089013567ffffffffffffffff81111561156e57600080fd5b600080600080600080600080610140898b03121561177857600080fd5b88356117838161145b565b975060208901356117938161145b565b96506040890135955060608901359450608089013593506115518a60a08b0161148b565b7f4e487b7100000000000000000000000000000000000000000000000000000000600052604160045260246000fd5b604051601f82017fffffffffffffffffffffffffffffffffffffffffffffffffffffffffffffffe016810167ffffffffffffffff8111828210171561182d5761182d6117b7565b604052919050565b600082601f83011261184657600080fd5b813567ffffffffffffffff811115611860576118606117b7565b61189160207fffffffffffffffffffffffffffffffffffffffffffffffffffffffffffffffe0601f840116016117e6565b8181528460208386010111156118a657600080fd5b816020850160208301376000918101602001919091529392505050565b6000806000806000806000806000806101408b8d0312156118e357600080fd5b8a356118ee8161145b565b995060208b01356118fe8161145b565b985060408b013561190e8161145b565b975060608b013561191e8161145b565b965060808b013561192e8161145b565b955060a08b0135945061194360c08c01611480565b935060e08b013592506101008b013591506101208b013567ffffffffffffffff81111561196f57600080fd5b61197b8d828e01611835565b9150509295989b9194979a5092959850565b60008060008060008061012087890312156119a757600080fd5b86356119b28161145b565b955060208701356119c28161145b565b945060408701356119d28161145b565b9350606087013592506119e8886080890161148b565b915061010087013567ffffffffffffffff811115611a0557600080fd5b611a1189828a01611835565b9150509295509295509295565b600060808284031215611a3057600080fd5b6040516080810181811067ffffffffffffffff82111715611a5357611a536117b7565b8060405250823581526020830135602082015260408301356040820152606083013560608201528091505092915050565b7f4e487b7100000000000000000000000000000000000000000000000000000000600052603260045260246000fd5b7f4e487b7100000000000000000000000000000000000000000000000000000000600052601160045260246000fd5b80820180821115611af557611af5611ab3565b92915050565b81810381811115611af557611af5611ab3565b600181811c90821680611b2257607f821691505b60208210810361149d577f4e487b7100000000000000000000000000000000000000000000000000000000600052602260045260246000fd5b7f2c2265787465726e616c5f75726c223a000000000000000000000000000000008152600060106000855481600182811c915080831680611b9d57607f831692505b60208084108203611bd5577f4e487b710000000000000000000000000000000000000000000000000000000086526022600452602486fd5b818015611be95760018114611c2057611c51565b7fffffffffffffffffffffffffffffffffffffffffffffffffffffffffffffff008616888b01528785151586028b01019650611c51565b60008c81526020902060005b86811015611c475781548c82018b0152908501908301611c2c565b505087858b010196505b50988552505050940195945050505050565b60008060008060808587031215611c7957600080fd5b8435611c848161145b565b9350602085810135611c958161145b565b935060408601359250606086013567ffffffffffffffff80821115611cb957600080fd5b818801915088601f830112611ccd57600080fd5b813581811115611cdf57611cdf6117b7565b8060051b9150611cf08483016117e6565b818152918301840191848101908b841115611d0a57600080fd5b938501935b83851015611d2857843582529385019390850190611d0f565b989b979a50959850505050505050565b60007fffffffffffffffffffffffffffffffffffffffffffffffffffffffffffffffff8203611d6957611d69611ab3565b5060010190565b600060808201868352602073ffffffffffffffffffffffffffffffffffffffff8716818501528560408501526080606085015281855180845260a086019150828701935060005b81811015611dd357845183529383019391830191600101611db7565b50909998505050505050505050565b6000817fffffffffffffffffffffffffffffffffffffffffffffffffffffffffffffffff0483118215151615611e1a57611e1a611ab3565b500290565b600082611e55577f4e487b7100000000000000000000000000000000000000000000000000000000600052601260045260246000fd5b50049056fea26469706673582212208745959b9037c0d785f463d0a913ee8e89d722e539769996bb14255a1f26f0b264736f6c63430008100033",
    "linkReferences": {}
  },
  "methodIdentifiers": {
    "REGISTRAR()": "cb609077",
    "_URI()": "b4e87e8f",
    "addMilestone(uint256,uint256)": "5601477b",
    "dappOperatorFees(address)": "1385a7b6",
    "getFees(address)": "9af608c9",
    "getMilestones(uint256)": "42c549c0",
    "invoices(uint256)": "4e6d1405",
    "milestones(uint256,uint256)": "1c376c63",
    "processApproval(address,address,address,uint256,(address,uint256,uint256,address),bytes)": "e4175968",
    "processCash(address,address,address,uint256,uint256,(address,uint256,uint256,address),bytes)": "06890cd0",
    "processFund(address,address,uint256,uint256,uint256,(address,uint256,uint256,address),bytes)": "be2f3fdd",
    "processTokenURI(uint256)": "4fe17e1a",
    "processTransfer(address,address,address,address,address,uint256,address,uint256,uint256,bytes)": "c0c9572c",
    "processWrite(address,address,uint256,address,uint256,uint256,bytes)": "b5d701ba",
    "revenue(address,address)": "9a0ea37a",
    "setFees((uint256,uint256,uint256,uint256))": "fd77c960",
    "withdrawFees(address)": "164e68de"
  },
  "id": 50
}