{
  "abi": [
    {
      "inputs": [
        {
          "internalType": "address",
          "name": "registrar",
          "type": "address"
        },
        {
          "components": [
            {
              "internalType": "uint256",
              "name": "writeBPS",
              "type": "uint256"
            },
            {
              "internalType": "uint256",
              "name": "transferBPS",
              "type": "uint256"
            },
            {
              "internalType": "uint256",
              "name": "fundBPS",
              "type": "uint256"
            },
            {
              "internalType": "uint256",
              "name": "cashBPS",
              "type": "uint256"
            }
          ],
          "internalType": "struct DataTypes.WTFCFees",
          "name": "_fees",
          "type": "tuple"
        },
        {
          "internalType": "string",
          "name": "__baseURI",
          "type": "string"
        }
      ],
      "stateMutability": "nonpayable",
      "type": "constructor"
    },
    {
      "inputs": [],
      "name": "FeeTooHigh",
      "type": "error"
    },
    {
      "inputs": [],
      "name": "InitParamsInvalid",
      "type": "error"
    },
    {
      "inputs": [],
      "name": "NotRegistrar",
      "type": "error"
    },
    {
      "anonymous": false,
      "inputs": [
        {
          "indexed": false,
          "internalType": "uint256",
          "name": "cheqId",
          "type": "uint256"
        },
        {
          "indexed": false,
          "internalType": "uint256",
          "name": "_releaseDate",
          "type": "uint256"
        }
      ],
      "name": "Timelock",
      "type": "event"
    },
    {
      "inputs": [],
      "name": "REGISTRAR",
      "outputs": [
        {
          "internalType": "address",
          "name": "",
          "type": "address"
        }
      ],
      "stateMutability": "view",
      "type": "function"
    },
    {
      "inputs": [],
      "name": "_URI",
      "outputs": [
        {
          "internalType": "string",
          "name": "",
          "type": "string"
        }
      ],
      "stateMutability": "view",
      "type": "function"
    },
    {
      "inputs": [
        {
          "internalType": "address",
          "name": "",
          "type": "address"
        }
      ],
      "name": "dappOperatorFees",
      "outputs": [
        {
          "internalType": "uint256",
          "name": "writeBPS",
          "type": "uint256"
        },
        {
          "internalType": "uint256",
          "name": "transferBPS",
          "type": "uint256"
        },
        {
          "internalType": "uint256",
          "name": "fundBPS",
          "type": "uint256"
        },
        {
          "internalType": "uint256",
          "name": "cashBPS",
          "type": "uint256"
        }
      ],
      "stateMutability": "view",
      "type": "function"
    },
    {
      "inputs": [
        {
          "internalType": "address",
          "name": "dappOperator",
          "type": "address"
        }
      ],
      "name": "getFees",
      "outputs": [
        {
          "components": [
            {
              "internalType": "uint256",
              "name": "writeBPS",
              "type": "uint256"
            },
            {
              "internalType": "uint256",
              "name": "transferBPS",
              "type": "uint256"
            },
            {
              "internalType": "uint256",
              "name": "fundBPS",
              "type": "uint256"
            },
            {
              "internalType": "uint256",
              "name": "cashBPS",
              "type": "uint256"
            }
          ],
          "internalType": "struct DataTypes.WTFCFees",
          "name": "",
          "type": "tuple"
        }
      ],
      "stateMutability": "view",
      "type": "function"
    },
    {
      "inputs": [
        {
          "internalType": "address",
          "name": "caller",
          "type": "address"
        },
        {
          "internalType": "address",
          "name": "owner",
          "type": "address"
        },
        {
          "internalType": "address",
          "name": "",
          "type": "address"
        },
        {
          "internalType": "uint256",
          "name": "",
          "type": "uint256"
        },
        {
          "components": [
            {
              "internalType": "address",
              "name": "currency",
              "type": "address"
            },
            {
              "internalType": "uint256",
              "name": "escrowed",
              "type": "uint256"
            },
            {
              "internalType": "uint256",
              "name": "createdAt",
              "type": "uint256"
            },
            {
              "internalType": "address",
              "name": "module",
              "type": "address"
            }
          ],
          "internalType": "struct DataTypes.Cheq",
          "name": "",
          "type": "tuple"
        },
        {
          "internalType": "bytes",
          "name": "",
          "type": "bytes"
        }
      ],
      "name": "processApproval",
      "outputs": [],
      "stateMutability": "view",
      "type": "function"
    },
    {
      "inputs": [
        {
          "internalType": "address",
          "name": "",
          "type": "address"
        },
        {
          "internalType": "address",
          "name": "",
          "type": "address"
        },
        {
          "internalType": "address",
          "name": "",
          "type": "address"
        },
        {
          "internalType": "uint256",
          "name": "amount",
          "type": "uint256"
        },
        {
          "internalType": "uint256",
          "name": "",
          "type": "uint256"
        },
        {
          "components": [
            {
              "internalType": "address",
              "name": "currency",
              "type": "address"
            },
            {
              "internalType": "uint256",
              "name": "escrowed",
              "type": "uint256"
            },
            {
              "internalType": "uint256",
              "name": "createdAt",
              "type": "uint256"
            },
            {
              "internalType": "address",
              "name": "module",
              "type": "address"
            }
          ],
          "internalType": "struct DataTypes.Cheq",
          "name": "cheq",
          "type": "tuple"
        },
        {
          "internalType": "bytes",
          "name": "initData",
          "type": "bytes"
        }
      ],
      "name": "processCash",
      "outputs": [
        {
          "internalType": "uint256",
          "name": "",
          "type": "uint256"
        }
      ],
      "stateMutability": "nonpayable",
      "type": "function"
    },
    {
      "inputs": [
        {
          "internalType": "address",
          "name": "",
          "type": "address"
        },
        {
          "internalType": "address",
          "name": "",
          "type": "address"
        },
        {
          "internalType": "uint256",
          "name": "",
          "type": "uint256"
        },
        {
          "internalType": "uint256",
          "name": "",
          "type": "uint256"
        },
        {
          "internalType": "uint256",
          "name": "",
          "type": "uint256"
        },
        {
          "components": [
            {
              "internalType": "address",
              "name": "currency",
              "type": "address"
            },
            {
              "internalType": "uint256",
              "name": "escrowed",
              "type": "uint256"
            },
            {
              "internalType": "uint256",
              "name": "createdAt",
              "type": "uint256"
            },
            {
              "internalType": "address",
              "name": "module",
              "type": "address"
            }
          ],
          "internalType": "struct DataTypes.Cheq",
          "name": "",
          "type": "tuple"
        },
        {
          "internalType": "bytes",
          "name": "",
          "type": "bytes"
        }
      ],
      "name": "processFund",
      "outputs": [
        {
          "internalType": "uint256",
          "name": "",
          "type": "uint256"
        }
      ],
      "stateMutability": "view",
      "type": "function"
    },
    {
      "inputs": [
        {
          "internalType": "uint256",
          "name": "tokenId",
          "type": "uint256"
        }
      ],
      "name": "processTokenURI",
      "outputs": [
        {
          "internalType": "string",
          "name": "",
          "type": "string"
        }
      ],
      "stateMutability": "view",
      "type": "function"
    },
    {
      "inputs": [
        {
          "internalType": "address",
          "name": "caller",
          "type": "address"
        },
        {
          "internalType": "address",
          "name": "approved",
          "type": "address"
        },
        {
          "internalType": "address",
          "name": "owner",
          "type": "address"
        },
        {
          "internalType": "address",
          "name": "",
          "type": "address"
        },
        {
          "internalType": "address",
          "name": "",
          "type": "address"
        },
        {
          "internalType": "uint256",
          "name": "",
          "type": "uint256"
        },
        {
          "internalType": "address",
          "name": "currency",
          "type": "address"
        },
        {
          "internalType": "uint256",
          "name": "escrowed",
          "type": "uint256"
        },
        {
          "internalType": "uint256",
          "name": "",
          "type": "uint256"
        },
        {
          "internalType": "bytes",
          "name": "data",
          "type": "bytes"
        }
      ],
      "name": "processTransfer",
      "outputs": [
        {
          "internalType": "uint256",
          "name": "",
          "type": "uint256"
        }
      ],
      "stateMutability": "nonpayable",
      "type": "function"
    },
    {
      "inputs": [
        {
          "internalType": "address",
          "name": "",
          "type": "address"
        },
        {
          "internalType": "address",
          "name": "",
          "type": "address"
        },
        {
          "internalType": "uint256",
          "name": "cheqId",
          "type": "uint256"
        },
        {
          "internalType": "address",
          "name": "currency",
          "type": "address"
        },
        {
          "internalType": "uint256",
          "name": "escrowed",
          "type": "uint256"
        },
        {
          "internalType": "uint256",
          "name": "instant",
          "type": "uint256"
        },
        {
          "internalType": "bytes",
          "name": "initData",
          "type": "bytes"
        }
      ],
      "name": "processWrite",
      "outputs": [
        {
          "internalType": "uint256",
          "name": "",
          "type": "uint256"
        }
      ],
      "stateMutability": "nonpayable",
      "type": "function"
    },
    {
      "inputs": [
        {
          "internalType": "uint256",
          "name": "",
          "type": "uint256"
        }
      ],
      "name": "releaseDate",
      "outputs": [
        {
          "internalType": "uint256",
          "name": "",
          "type": "uint256"
        }
      ],
      "stateMutability": "view",
      "type": "function"
    },
    {
      "inputs": [
        {
          "internalType": "address",
          "name": "",
          "type": "address"
        },
        {
          "internalType": "address",
          "name": "",
          "type": "address"
        }
      ],
      "name": "revenue",
      "outputs": [
        {
          "internalType": "uint256",
          "name": "",
          "type": "uint256"
        }
      ],
      "stateMutability": "view",
      "type": "function"
    },
    {
      "inputs": [
        {
          "components": [
            {
              "internalType": "uint256",
              "name": "writeBPS",
              "type": "uint256"
            },
            {
              "internalType": "uint256",
              "name": "transferBPS",
              "type": "uint256"
            },
            {
              "internalType": "uint256",
              "name": "fundBPS",
              "type": "uint256"
            },
            {
              "internalType": "uint256",
              "name": "cashBPS",
              "type": "uint256"
            }
          ],
          "internalType": "struct DataTypes.WTFCFees",
          "name": "_fees",
          "type": "tuple"
        }
      ],
      "name": "setFees",
      "outputs": [],
      "stateMutability": "nonpayable",
      "type": "function"
    },
    {
      "inputs": [
        {
          "internalType": "address",
          "name": "token",
          "type": "address"
        }
      ],
      "name": "withdrawFees",
      "outputs": [],
      "stateMutability": "nonpayable",
      "type": "function"
    }
  ],
  "bytecode": {
    "object": "0x60a06040523480156200001157600080fd5b50604051620019953803806200199583398101604081905262000034916200029e565b82826001600160a01b0382166200005e576040516348be0eb360e01b815260040160405180910390fd5b6001600160a01b03821660805280516127101015620000905760405163cd4e616760e01b815260040160405180910390fd5b80602001516127101015620000b85760405163cd4e616760e01b815260040160405180910390fd5b80604001516127101015620000e05760405163cd4e616760e01b815260040160405180910390fd5b80606001516127101015620001085760405163cd4e616760e01b815260040160405180910390fd5b336000908152600160208181526040928390208451815590840151918101919091558183015160028201556060830151600390910155516001600160a01b038316907ff1a1fa6b64aa95186f5a1285e76198d0da80d9c5a88062641d447f1d7c54e56c906200017a9042815260200190565b60405180910390a25060029050620001938282620003d6565b50505050620004a2565b634e487b7160e01b600052604160045260246000fd5b604051608081016001600160401b0381118282101715620001d857620001d86200019d565b60405290565b604051601f8201601f191681016001600160401b03811182821017156200020957620002096200019d565b604052919050565b600082601f8301126200022357600080fd5b81516001600160401b038111156200023f576200023f6200019d565b602062000255601f8301601f19168201620001de565b82815285828487010111156200026a57600080fd5b60005b838110156200028a5785810183015182820184015282016200026d565b506000928101909101919091529392505050565b600080600083850360c0811215620002b557600080fd5b84516001600160a01b0381168114620002cd57600080fd5b93506080601f1982011215620002e257600080fd5b50620002ed620001b3565b602085015181526040850151602082015260608501516040820152608085015160608201528092505060a084015160018060401b038111156200032f57600080fd5b6200033d8682870162000211565b9150509250925092565b600181811c908216806200035c57607f821691505b6020821081036200037d57634e487b7160e01b600052602260045260246000fd5b50919050565b601f821115620003d157600081815260208120601f850160051c81016020861015620003ac5750805b601f850160051c820191505b81811015620003cd57828155600101620003b8565b5050505b505050565b81516001600160401b03811115620003f257620003f26200019d565b6200040a8162000403845462000347565b8462000383565b602080601f831160018114620004425760008415620004295750858301515b600019600386901b1c1916600185901b178555620003cd565b600085815260208120601f198616915b82811015620004735788860151825594840194600190910190840162000452565b5085821015620004925787850151600019600388901b60f8161c191681555b5050505050600190811b01905550565b6080516114ad620004e8600039600081816102740152818161032f015281816104f9015281816107140152818161080a015281816108dd0152610a3701526114ad6000f3fe608060405234801561001057600080fd5b50600436106100ea5760003560e01c8063b4e87e8f1161008c578063c0c9572c11610066578063c0c9572c1461025c578063cb6090771461026f578063e4175968146102bb578063fd77c960146102ce57600080fd5b8063b4e87e8f1461022e578063b5d701ba14610236578063be2f3fdd1461024957600080fd5b80634eaad1ee116100c85780634eaad1ee146101805780634fe17e1a146101a05780639a0ea37a146101c05780639af608c9146101e857600080fd5b806306890cd0146100ef5780631385a7b614610115578063164e68de1461016b575b600080fd5b6101026100fd366004610d49565b610315565b6040519081526020015b60405180910390f35b61014b610123366004610deb565b6001602081905260009182526040909120805491810154600282015460039092015490919084565b60408051948552602085019390935291830152606082015260800161010c565b61017e610179366004610deb565b610429565b005b61010261018e366004610e0f565b60036020526000908152604090205481565b6101b36101ae366004610e0f565b6105bb565b60405161010c9190610e28565b6101026101ce366004610e94565b600060208181529281526040808220909352908152205481565b6101fb6101f6366004610deb565b6105e7565b60405161010c91908151815260208083015190820152604080830151908201526060918201519181019190915260800190565b6101b361066c565b610102610244366004610ecd565b6106fa565b610102610257366004610f45565b6107f0565b61010261026a36600461107b565b6108c3565b6102967f000000000000000000000000000000000000000000000000000000000000000081565b60405173ffffffffffffffffffffffffffffffffffffffff909116815260200161010c565b61017e6102c9366004611145565b610a1f565b61017e6102dc3660046111d6565b33600090815260016020818152604092839020845181559084015191810191909155908201516002820155606090910151600390910155565b60003373ffffffffffffffffffffffffffffffffffffffff7f00000000000000000000000000000000000000000000000000000000000000001614610386576040517f2ad9535100000000000000000000000000000000000000000000000000000000815260040160405180910390fd5b836020013586146103f8576040517f08c379a000000000000000000000000000000000000000000000000000000000815260206004820152600f60248201527f4d7573742066756c6c792063617368000000000000000000000000000000000060448201526064015b60405180910390fd5b61041c6104086020860186610deb565b8761041585870187610deb565b6003610b23565b9998505050505050505050565b3360009081526020818152604080832073ffffffffffffffffffffffffffffffffffffffff85168452909152902054600181116104c2576040517f08c379a000000000000000000000000000000000000000000000000000000000815260206004820152601460248201527f496e73756666696369656e7420726576656e756500000000000000000000000060448201526064016103ef565b3360009081526020818152604080832073ffffffffffffffffffffffffffffffffffffffff868116855292529091206001908190557f00000000000000000000000000000000000000000000000000000000000000009091169063d6a4f84c90849061052e908561126b565b6040517fffffffff0000000000000000000000000000000000000000000000000000000060e085901b16815273ffffffffffffffffffffffffffffffffffffffff90921660048301526024820152336044820152606401600060405180830381600087803b15801561059f57600080fd5b505af11580156105b3573d6000803e3d6000fd5b505050505050565b60606002826040516020016105d19291906112d1565b6040516020818303038152906040529050919050565b6106126040518060800160405280600081526020016000815260200160008152602001600081525090565b5073ffffffffffffffffffffffffffffffffffffffff166000908152600160208181526040928390208351608081018552815481529281015491830191909152600281015492820192909252600390910154606082015290565b6002805461067990611284565b80601f01602080910402602001604051908101604052809291908181526020018280546106a590611284565b80156106f25780601f106106c7576101008083540402835291602001916106f2565b820191906000526020600020905b8154815290600101906020018083116106d557829003601f168201915b505050505081565b60003373ffffffffffffffffffffffffffffffffffffffff7f0000000000000000000000000000000000000000000000000000000000000000161461076b576040517f2ad9535100000000000000000000000000000000000000000000000000000000815260040160405180910390fd5b60008061077a848601866113aa565b60008b81526003602090815260409182902084905581518d81529081018490529294509092507f1444b1ec628110b153b1e97d60cdf7ed8cd28664b1e53e8b6d4043795452939f910160405180910390a16107e1886107d9888a6113cf565b836000610b23565b9b9a5050505050505050505050565b60003373ffffffffffffffffffffffffffffffffffffffff7f00000000000000000000000000000000000000000000000000000000000000001614610861576040517f2ad9535100000000000000000000000000000000000000000000000000000000815260040160405180910390fd5b6040517f08c379a000000000000000000000000000000000000000000000000000000000815260206004820152601860248201527f4f6e6c792073656e64696e6720616e642063617368696e67000000000000000060448201526064016103ef565b60003373ffffffffffffffffffffffffffffffffffffffff7f00000000000000000000000000000000000000000000000000000000000000001614610934576040517f2ad9535100000000000000000000000000000000000000000000000000000000815260040160405180910390fd5b8873ffffffffffffffffffffffffffffffffffffffff168b73ffffffffffffffffffffffffffffffffffffffff16148061099957508973ffffffffffffffffffffffffffffffffffffffff168b73ffffffffffffffffffffffffffffffffffffffff16145b6109ff576040517f08c379a000000000000000000000000000000000000000000000000000000000815260206004820152601560248201527f4e6f74206f776e6572206f7220617070726f766564000000000000000000000060448201526064016103ef565b6107e1858584806020019051810190610a1891906113e2565b6001610b23565b3373ffffffffffffffffffffffffffffffffffffffff7f00000000000000000000000000000000000000000000000000000000000000001614610a8e576040517f2ad9535100000000000000000000000000000000000000000000000000000000815260040160405180910390fd5b8473ffffffffffffffffffffffffffffffffffffffff168673ffffffffffffffffffffffffffffffffffffffff16146105b3576040517f08c379a000000000000000000000000000000000000000000000000000000000815260206004820152601660248201527f4f6e6c79206f776e65722063616e20617070726f76650000000000000000000060448201526064016103ef565b60008160ff16600003610b5c575073ffffffffffffffffffffffffffffffffffffffff8216600090815260016020526040902054610c47565b8160ff16600103610b97575073ffffffffffffffffffffffffffffffffffffffff821660009081526001602081905260409091200154610c47565b8160ff16600203610bd1575073ffffffffffffffffffffffffffffffffffffffff8216600090815260016020526040902060020154610c47565b8160ff16600303610c0b575073ffffffffffffffffffffffffffffffffffffffff8216600090815260016020526040902060030154610c47565b6040517f08c379a000000000000000000000000000000000000000000000000000000000815260206004820152600060248201526044016103ef565b612710610c5482866113ff565b610c5e919061143c565b73ffffffffffffffffffffffffffffffffffffffff808516600090815260208181526040808320938a16835292905290812080549293508392909190610ca59084906113cf565b909155509095945050505050565b73ffffffffffffffffffffffffffffffffffffffff81168114610cd557600080fd5b50565b8035610ce381610cb3565b919050565b600060808284031215610cfa57600080fd5b50919050565b60008083601f840112610d1257600080fd5b50813567ffffffffffffffff811115610d2a57600080fd5b602083019150836020828501011115610d4257600080fd5b9250929050565b600080600080600080600080610140898b031215610d6657600080fd5b8835610d7181610cb3565b97506020890135610d8181610cb3565b96506040890135610d9181610cb3565b95506060890135945060808901359350610dae8a60a08b01610ce8565b925061012089013567ffffffffffffffff811115610dcb57600080fd5b610dd78b828c01610d00565b999c989b5096995094979396929594505050565b600060208284031215610dfd57600080fd5b8135610e0881610cb3565b9392505050565b600060208284031215610e2157600080fd5b5035919050565b600060208083528351808285015260005b81811015610e5557858101830151858201604001528201610e39565b5060006040828601015260407fffffffffffffffffffffffffffffffffffffffffffffffffffffffffffffffe0601f8301168501019250505092915050565b60008060408385031215610ea757600080fd5b8235610eb281610cb3565b91506020830135610ec281610cb3565b809150509250929050565b60008060008060008060008060e0898b031215610ee957600080fd5b8835610ef481610cb3565b97506020890135610f0481610cb3565b9650604089013595506060890135610f1b81610cb3565b94506080890135935060a0890135925060c089013567ffffffffffffffff811115610dcb57600080fd5b600080600080600080600080610140898b031215610f6257600080fd5b8835610f6d81610cb3565b97506020890135610f7d81610cb3565b9650604089013595506060890135945060808901359350610dae8a60a08b01610ce8565b7f4e487b7100000000000000000000000000000000000000000000000000000000600052604160045260246000fd5b600082601f830112610fe157600080fd5b813567ffffffffffffffff80821115610ffc57610ffc610fa1565b604051601f83017fffffffffffffffffffffffffffffffffffffffffffffffffffffffffffffffe0908116603f0116810190828211818310171561104257611042610fa1565b8160405283815286602085880101111561105b57600080fd5b836020870160208301376000602085830101528094505050505092915050565b6000806000806000806000806000806101408b8d03121561109b57600080fd5b8a356110a681610cb3565b995060208b01356110b681610cb3565b985060408b01356110c681610cb3565b975060608b01356110d681610cb3565b965060808b01356110e681610cb3565b955060a08b013594506110fb60c08c01610cd8565b935060e08b013592506101008b013591506101208b013567ffffffffffffffff81111561112757600080fd5b6111338d828e01610fd0565b9150509295989b9194979a5092959850565b600080600080600080610120878903121561115f57600080fd5b863561116a81610cb3565b9550602087013561117a81610cb3565b9450604087013561118a81610cb3565b9350606087013592506111a08860808901610ce8565b915061010087013567ffffffffffffffff8111156111bd57600080fd5b6111c989828a01610fd0565b9150509295509295509295565b6000608082840312156111e857600080fd5b6040516080810181811067ffffffffffffffff8211171561120b5761120b610fa1565b8060405250823581526020830135602082015260408301356040820152606083013560608201528091505092915050565b7f4e487b7100000000000000000000000000000000000000000000000000000000600052601160045260246000fd5b8181038181111561127e5761127e61123c565b92915050565b600181811c9082168061129857607f821691505b602082108103610cfa577f4e487b7100000000000000000000000000000000000000000000000000000000600052602260045260246000fd5b600080845481600182811c9150808316806112ed57607f831692505b60208084108203611325577f4e487b710000000000000000000000000000000000000000000000000000000086526022600452602486fd5b818015611339576001811461136c57611399565b7fffffffffffffffffffffffffffffffffffffffffffffffffffffffffffffff0086168952841515850289019650611399565b60008b81526020902060005b868110156113915781548b820152908501908301611378565b505084890196505b509785525050509301949350505050565b600080604083850312156113bd57600080fd5b823591506020830135610ec281610cb3565b8082018082111561127e5761127e61123c565b6000602082840312156113f457600080fd5b8151610e0881610cb3565b6000817fffffffffffffffffffffffffffffffffffffffffffffffffffffffffffffffff04831182151516156114375761143761123c565b500290565b600082611472577f4e487b7100000000000000000000000000000000000000000000000000000000600052601260045260246000fd5b50049056fea26469706673582212201b7a7bebb28136743dfd5151a82cb78332749e596c0c3d3291c5bee9a71b2c4c64736f6c63430008100033",
    "linkReferences": {}
  },
  "methodIdentifiers": {
    "REGISTRAR()": "cb609077",
    "_URI()": "b4e87e8f",
    "dappOperatorFees(address)": "1385a7b6",
    "getFees(address)": "9af608c9",
    "processApproval(address,address,address,uint256,(address,uint256,uint256,address),bytes)": "e4175968",
    "processCash(address,address,address,uint256,uint256,(address,uint256,uint256,address),bytes)": "06890cd0",
    "processFund(address,address,uint256,uint256,uint256,(address,uint256,uint256,address),bytes)": "be2f3fdd",
    "processTokenURI(uint256)": "4fe17e1a",
    "processTransfer(address,address,address,address,address,uint256,address,uint256,uint256,bytes)": "c0c9572c",
    "processWrite(address,address,uint256,address,uint256,uint256,bytes)": "b5d701ba",
    "releaseDate(uint256)": "4eaad1ee",
    "revenue(address,address)": "9a0ea37a",
    "setFees((uint256,uint256,uint256,uint256))": "fd77c960",
    "withdrawFees(address)": "164e68de"
  },
  "id": 54
}