{
  "abi": [
    {
      "anonymous": false,
      "inputs": [
        {
          "indexed": true,
          "internalType": "address",
          "name": "previousOwner",
          "type": "address"
        },
        {
          "indexed": true,
          "internalType": "address",
          "name": "newOwner",
          "type": "address"
        }
      ],
      "name": "OwnershipTransferred",
      "type": "event"
    },
    {
      "inputs": [
        {
          "internalType": "address",
          "name": "module",
          "type": "address"
        }
      ],
      "name": "_returnCodeHash",
      "outputs": [
        {
          "internalType": "bytes32",
          "name": "",
          "type": "bytes32"
        }
      ],
      "stateMutability": "view",
      "type": "function"
    },
    {
      "inputs": [
        {
          "internalType": "address",
          "name": "module",
          "type": "address"
        }
      ],
      "name": "moduleWhitelisted",
      "outputs": [
        {
          "internalType": "bool",
          "name": "",
          "type": "bool"
        },
        {
          "internalType": "bool",
          "name": "",
          "type": "bool"
        }
      ],
      "stateMutability": "view",
      "type": "function"
    },
    {
      "inputs": [
        {
          "internalType": "address",
          "name": "token",
          "type": "address"
        },
        {
          "internalType": "uint256",
          "name": "amount",
          "type": "uint256"
        },
        {
          "internalType": "address",
          "name": "to",
          "type": "address"
        }
      ],
      "name": "moduleWithdraw",
      "outputs": [],
      "stateMutability": "nonpayable",
      "type": "function"
    },
    {
      "inputs": [],
      "name": "owner",
      "outputs": [
        {
          "internalType": "address",
          "name": "",
          "type": "address"
        }
      ],
      "stateMutability": "view",
      "type": "function"
    },
    {
      "inputs": [],
      "name": "renounceOwnership",
      "outputs": [],
      "stateMutability": "nonpayable",
      "type": "function"
    },
    {
      "inputs": [
        {
          "internalType": "address",
          "name": "token",
          "type": "address"
        }
      ],
      "name": "tokenWhitelisted",
      "outputs": [
        {
          "internalType": "bool",
          "name": "",
          "type": "bool"
        }
      ],
      "stateMutability": "view",
      "type": "function"
    },
    {
      "inputs": [
        {
          "internalType": "address",
          "name": "newOwner",
          "type": "address"
        }
      ],
      "name": "transferOwnership",
      "outputs": [],
      "stateMutability": "nonpayable",
      "type": "function"
    },
    {
      "inputs": [
        {
          "internalType": "address",
          "name": "module",
          "type": "address"
        },
        {
          "internalType": "address",
          "name": "token",
          "type": "address"
        }
      ],
      "name": "validWrite",
      "outputs": [
        {
          "internalType": "bool",
          "name": "",
          "type": "bool"
        }
      ],
      "stateMutability": "view",
      "type": "function"
    },
    {
      "inputs": [
        {
          "internalType": "address",
          "name": "module",
          "type": "address"
        },
        {
          "internalType": "bool",
          "name": "bytecodeAccepted",
          "type": "bool"
        },
        {
          "internalType": "bool",
          "name": "addressAccepted",
          "type": "bool"
        }
      ],
      "name": "whitelistModule",
      "outputs": [],
      "stateMutability": "nonpayable",
      "type": "function"
    },
    {
      "inputs": [
        {
          "internalType": "address",
          "name": "_token",
          "type": "address"
        },
        {
          "internalType": "bool",
          "name": "accepted",
          "type": "bool"
        }
      ],
      "name": "whitelistToken",
      "outputs": [],
      "stateMutability": "nonpayable",
      "type": "function"
    }
  ],
  "bytecode": {
    "object": "0x608060405234801561001057600080fd5b5061001a3361001f565b61006f565b600080546001600160a01b038381166001600160a01b0319831681178455604051919092169283917f8be0079c531659141344cd1fd0a4f28419497f9722a3daafe3b4186f6b6457e09190a35050565b610d208061007e6000396000f3fe608060405234801561001057600080fd5b50600436106100be5760003560e01c80638da5cb5b11610076578063dfd5d8111161005b578063dfd5d811146101b8578063f2fde38b146101db578063ff8507e8146101ee57600080fd5b80638da5cb5b1461017d578063d6a4f84c146101a557600080fd5b806352f37f56116100a757806352f37f56146100fd57806353aafb6914610162578063715018a61461017557600080fd5b80630ffb1d8b146100c3578063107e2f3b146100d8575b600080fd5b6100d66100d1366004610b32565b610227565b005b6100ea6100e6366004610b69565b3f90565b6040519081526020015b60405180910390f35b61014b61010b366004610b69565b73ffffffffffffffffffffffffffffffffffffffff8116600090815260036020908152604080832054933f8352600290915290205460ff91821692911690565b6040805192151583529015156020830152016100f4565b6100d6610170366004610b84565b6102d5565b6100d6610414565b60005460405173ffffffffffffffffffffffffffffffffffffffff90911681526020016100f4565b6100d66101b3366004610bcd565b610428565b6101cb6101c6366004610c09565b61050b565b60405190151581526020016100f4565b6100d66101e9366004610b69565b61054e565b6101cb6101fc366004610b69565b73ffffffffffffffffffffffffffffffffffffffff1660009081526004602052604090205460ff1690565b61022f610605565b73ffffffffffffffffffffffffffffffffffffffff8216600081815260046020526040902080547fffffffffffffffffffffffffffffffffffffffffffffffffffffffffffffff0016831515908117909155907f1bf5ef6ada443138fcac941f79625fe01e92ff514fee9f160bff18363199c7a0336040805173ffffffffffffffffffffffffffffffffffffffff90921682524260208301520160405180910390a35050565b6102dd610605565b8015158215151415806102f6575081806102f45750805b155b610361576040517f08c379a000000000000000000000000000000000000000000000000000000000815260206004820152601160248201527f43414e27545f4143434550545f424f544800000000000000000000000000000060448201526064015b60405180910390fd5b823f600090815260026020908152604080832080548615157fffffffffffffffffffffffffffffffffffffffffffffffffffffffffffffff00918216811790925573ffffffffffffffffffffffffffffffffffffffff881680865260038552948390208054871515921682179055825191825292810192909252429082015233907fe82584b416ef90b398503af85e6daba1407060c9e2d2050c858719c4f1b076479060600160405180910390a3505050565b61041c610605565b6104266000610686565b565b33600090815260016020908152604080832073ffffffffffffffffffffffffffffffffffffffff871684529091529020548211156104c2576040517f08c379a000000000000000000000000000000000000000000000000000000000815260206004820152600b60248201527f494e5355465f46554e44530000000000000000000000000000000000000000006044820152606401610358565b33600090815260016020908152604080832073ffffffffffffffffffffffffffffffffffffffff8716808552925290912080548490039055610506903083856106fb565b505050565b600061051683610796565b8015610547575073ffffffffffffffffffffffffffffffffffffffff821660009081526004602052604090205460ff165b9392505050565b610556610605565b73ffffffffffffffffffffffffffffffffffffffff81166105f9576040517f08c379a000000000000000000000000000000000000000000000000000000000815260206004820152602660248201527f4f776e61626c653a206e6577206f776e657220697320746865207a65726f206160448201527f64647265737300000000000000000000000000000000000000000000000000006064820152608401610358565b61060281610686565b50565b60005473ffffffffffffffffffffffffffffffffffffffff163314610426576040517f08c379a000000000000000000000000000000000000000000000000000000000815260206004820181905260248201527f4f776e61626c653a2063616c6c6572206973206e6f7420746865206f776e65726044820152606401610358565b6000805473ffffffffffffffffffffffffffffffffffffffff8381167fffffffffffffffffffffffff0000000000000000000000000000000000000000831681178455604051919092169283917f8be0079c531659141344cd1fd0a4f28419497f9722a3daafe3b4186f6b6457e09190a35050565b6040805173ffffffffffffffffffffffffffffffffffffffff85811660248301528416604482015260648082018490528251808303909101815260849091019091526020810180517bffffffffffffffffffffffffffffffffffffffffffffffffffffffff167f23b872dd000000000000000000000000000000000000000000000000000000001790526107909085906107e0565b50505050565b73ffffffffffffffffffffffffffffffffffffffff811660009081526003602052604081205460ff16806107da5750813f60009081526002602052604090205460ff165b92915050565b6000610842826040518060400160405280602081526020017f5361666545524332303a206c6f772d6c6576656c2063616c6c206661696c65648152508573ffffffffffffffffffffffffffffffffffffffff166108ec9092919063ffffffff16565b80519091501561050657808060200190518101906108609190610c3c565b610506576040517f08c379a000000000000000000000000000000000000000000000000000000000815260206004820152602a60248201527f5361666545524332303a204552433230206f7065726174696f6e20646964206e60448201527f6f742073756363656564000000000000000000000000000000000000000000006064820152608401610358565b60606108fb8484600085610903565b949350505050565b606082471015610995576040517f08c379a000000000000000000000000000000000000000000000000000000000815260206004820152602660248201527f416464726573733a20696e73756666696369656e742062616c616e636520666f60448201527f722063616c6c00000000000000000000000000000000000000000000000000006064820152608401610358565b6000808673ffffffffffffffffffffffffffffffffffffffff1685876040516109be9190610c7d565b60006040518083038185875af1925050503d80600081146109fb576040519150601f19603f3d011682016040523d82523d6000602084013e610a00565b606091505b5091509150610a1187838387610a1c565b979650505050505050565b60608315610ab2578251600003610aab5773ffffffffffffffffffffffffffffffffffffffff85163b610aab576040517f08c379a000000000000000000000000000000000000000000000000000000000815260206004820152601d60248201527f416464726573733a2063616c6c20746f206e6f6e2d636f6e74726163740000006044820152606401610358565b50816108fb565b6108fb8383815115610ac75781518083602001fd5b806040517f08c379a00000000000000000000000000000000000000000000000000000000081526004016103589190610c99565b803573ffffffffffffffffffffffffffffffffffffffff81168114610b1f57600080fd5b919050565b801515811461060257600080fd5b60008060408385031215610b4557600080fd5b610b4e83610afb565b91506020830135610b5e81610b24565b809150509250929050565b600060208284031215610b7b57600080fd5b61054782610afb565b600080600060608486031215610b9957600080fd5b610ba284610afb565b92506020840135610bb281610b24565b91506040840135610bc281610b24565b809150509250925092565b600080600060608486031215610be257600080fd5b610beb84610afb565b925060208401359150610c0060408501610afb565b90509250925092565b60008060408385031215610c1c57600080fd5b610c2583610afb565b9150610c3360208401610afb565b90509250929050565b600060208284031215610c4e57600080fd5b815161054781610b24565b60005b83811015610c74578181015183820152602001610c5c565b50506000910152565b60008251610c8f818460208701610c59565b9190910192915050565b6020815260008251806020840152610cb8816040850160208701610c59565b601f017fffffffffffffffffffffffffffffffffffffffffffffffffffffffffffffffe016919091016040019291505056fea26469706673582212207fd6b2d44997374751e766a8535e2ffb5af8a922627d463df409d59a77eaa28964736f6c63430008100033",
    "linkReferences": {}
  },
  "methodIdentifiers": {
    "_returnCodeHash(address)": "107e2f3b",
    "moduleWhitelisted(address)": "52f37f56",
    "moduleWithdraw(address,uint256,address)": "d6a4f84c",
    "owner()": "8da5cb5b",
    "renounceOwnership()": "715018a6",
    "tokenWhitelisted(address)": "ff8507e8",
    "transferOwnership(address)": "f2fde38b",
    "validWrite(address,address)": "dfd5d811",
    "whitelistModule(address,bool,bool)": "53aafb69",
    "whitelistToken(address,bool)": "0ffb1d8b"
  },
  "id": 36
}