{
  "abi": [
    {
      "inputs": [
        {
          "components": [
            {
              "internalType": "uint256",
              "name": "writeBPS",
              "type": "uint256"
            },
            {
              "internalType": "uint256",
              "name": "transferBPS",
              "type": "uint256"
            },
            {
              "internalType": "uint256",
              "name": "fundBPS",
              "type": "uint256"
            },
            {
              "internalType": "uint256",
              "name": "cashBPS",
              "type": "uint256"
            }
          ],
          "internalType": "struct DataTypes.WTFCFees",
          "name": "_fees",
          "type": "tuple"
        }
      ],
      "stateMutability": "nonpayable",
      "type": "constructor"
    },
    {
      "anonymous": false,
      "inputs": [
        {
          "indexed": true,
          "internalType": "address",
          "name": "previousOwner",
          "type": "address"
        },
        {
          "indexed": true,
          "internalType": "address",
          "name": "newOwner",
          "type": "address"
        }
      ],
      "name": "OwnershipTransferred",
      "type": "event"
    },
    {
      "inputs": [
        {
          "internalType": "address",
          "name": "module",
          "type": "address"
        }
      ],
      "name": "_returnCodeHash",
      "outputs": [
        {
          "internalType": "bytes32",
          "name": "",
          "type": "bytes32"
        }
      ],
      "stateMutability": "view",
      "type": "function"
    },
    {
      "inputs": [],
      "name": "_writeFlatFee",
      "outputs": [
        {
          "internalType": "uint256",
          "name": "",
          "type": "uint256"
        }
      ],
      "stateMutability": "view",
      "type": "function"
    },
    {
      "inputs": [],
      "name": "fees",
      "outputs": [
        {
          "internalType": "uint256",
          "name": "writeBPS",
          "type": "uint256"
        },
        {
          "internalType": "uint256",
          "name": "transferBPS",
          "type": "uint256"
        },
        {
          "internalType": "uint256",
          "name": "fundBPS",
          "type": "uint256"
        },
        {
          "internalType": "uint256",
          "name": "cashBPS",
          "type": "uint256"
        }
      ],
      "stateMutability": "view",
      "type": "function"
    },
    {
      "inputs": [],
      "name": "getFees",
      "outputs": [
        {
          "internalType": "uint256",
          "name": "",
          "type": "uint256"
        },
        {
          "internalType": "uint256",
          "name": "",
          "type": "uint256"
        },
        {
          "internalType": "uint256",
          "name": "",
          "type": "uint256"
        },
        {
          "internalType": "uint256",
          "name": "",
          "type": "uint256"
        }
      ],
      "stateMutability": "view",
      "type": "function"
    },
    {
      "inputs": [
        {
          "internalType": "address",
          "name": "module",
          "type": "address"
        }
      ],
      "name": "moduleWhitelisted",
      "outputs": [
        {
          "internalType": "bool",
          "name": "",
          "type": "bool"
        },
        {
          "internalType": "bool",
          "name": "",
          "type": "bool"
        }
      ],
      "stateMutability": "view",
      "type": "function"
    },
    {
      "inputs": [
        {
          "internalType": "address",
          "name": "token",
          "type": "address"
        },
        {
          "internalType": "uint256",
          "name": "amount",
          "type": "uint256"
        },
        {
          "internalType": "address",
          "name": "to",
          "type": "address"
        }
      ],
      "name": "moduleWithdraw",
      "outputs": [],
      "stateMutability": "nonpayable",
      "type": "function"
    },
    {
      "inputs": [],
      "name": "owner",
      "outputs": [
        {
          "internalType": "address",
          "name": "",
          "type": "address"
        }
      ],
      "stateMutability": "view",
      "type": "function"
    },
    {
      "inputs": [],
      "name": "renounceOwnership",
      "outputs": [],
      "stateMutability": "nonpayable",
      "type": "function"
    },
    {
      "inputs": [
        {
          "internalType": "address",
          "name": "token",
          "type": "address"
        }
      ],
      "name": "tokenWhitelisted",
      "outputs": [
        {
          "internalType": "bool",
          "name": "",
          "type": "bool"
        }
      ],
      "stateMutability": "view",
      "type": "function"
    },
    {
      "inputs": [
        {
          "internalType": "address",
          "name": "newOwner",
          "type": "address"
        }
      ],
      "name": "transferOwnership",
      "outputs": [],
      "stateMutability": "nonpayable",
      "type": "function"
    },
    {
      "inputs": [
        {
          "components": [
            {
              "internalType": "uint256",
              "name": "writeBPS",
              "type": "uint256"
            },
            {
              "internalType": "uint256",
              "name": "transferBPS",
              "type": "uint256"
            },
            {
              "internalType": "uint256",
              "name": "fundBPS",
              "type": "uint256"
            },
            {
              "internalType": "uint256",
              "name": "cashBPS",
              "type": "uint256"
            }
          ],
          "internalType": "struct DataTypes.WTFCFees",
          "name": "_fees",
          "type": "tuple"
        }
      ],
      "name": "updateFees",
      "outputs": [],
      "stateMutability": "nonpayable",
      "type": "function"
    },
    {
      "inputs": [
        {
          "internalType": "address",
          "name": "module",
          "type": "address"
        },
        {
          "internalType": "address",
          "name": "token",
          "type": "address"
        }
      ],
      "name": "validWrite",
      "outputs": [
        {
          "internalType": "bool",
          "name": "",
          "type": "bool"
        }
      ],
      "stateMutability": "view",
      "type": "function"
    },
    {
      "inputs": [
        {
          "internalType": "address",
          "name": "module",
          "type": "address"
        },
        {
          "internalType": "bool",
          "name": "bytecodeAccepted",
          "type": "bool"
        },
        {
          "internalType": "bool",
          "name": "addressAccepted",
          "type": "bool"
        }
      ],
      "name": "whitelistModule",
      "outputs": [],
      "stateMutability": "nonpayable",
      "type": "function"
    },
    {
      "inputs": [
        {
          "internalType": "address",
          "name": "_token",
          "type": "address"
        },
        {
          "internalType": "bool",
          "name": "accepted",
          "type": "bool"
        }
      ],
      "name": "whitelistToken",
      "outputs": [],
      "stateMutability": "nonpayable",
      "type": "function"
    }
  ],
  "bytecode": {
    "object": "0x608060405234801561001057600080fd5b50604051610c5f380380610c5f83398101604081905261002f916100a9565b61003833610059565b8051600655602081015160075560408101516008556060015160095561011c565b600080546001600160a01b038381166001600160a01b0319831681178455604051919092169283917f8be0079c531659141344cd1fd0a4f28419497f9722a3daafe3b4186f6b6457e09190a35050565b6000608082840312156100bb57600080fd5b604051608081016001600160401b03811182821017156100eb57634e487b7160e01b600052604160045260246000fd5b8060405250825181526020830151602082015260408301516040820152606083015160608201528091505092915050565b610b348061012b6000396000f3fe608060405234801561001057600080fd5b50600436106100ea5760003560e01c806398a9c92b1161008c578063db8d55f111610066578063db8d55f11461021c578063dfd5d8111461022d578063f2fde38b14610250578063ff8507e81461026357600080fd5b806398a9c92b146101c05780639af1d35a146101d3578063d6a4f84c1461020957600080fd5b806352f37f56116100c857806352f37f561461013257806353aafb691461018a578063715018a61461019d5780638da5cb5b146101a557600080fd5b80630ffb1d8b146100ef578063107e2f3b146101045780634c80653914610129575b600080fd5b6101026100fd36600461094c565b61028f565b005b610116610112366004610983565b3f90565b6040519081526020015b60405180910390f35b610116600a5481565b610173610140366004610983565b6001600160a01b038116600090815260046020908152604080832054933f8352600390915290205460ff91821692911690565b604080519215158352901515602083015201610120565b61010261019836600461099e565b610305565b6101026103f3565b6000546040516001600160a01b039091168152602001610120565b6101026101ce3660046109e7565b610407565b6006546007546008546009546101e99392919084565b604080519485526020850193909352918301526060820152608001610120565b6101026102173660046109ff565b610432565b6006546007546008546009546101e9565b61024061023b366004610a3b565b6104ca565b6040519015158152602001610120565b61010261025e366004610983565b610500565b610240610271366004610983565b6001600160a01b031660009081526005602052604090205460ff1690565b610297610579565b6001600160a01b0382166000818152600560205260409020805460ff1916831515908117909155907f1bf5ef6ada443138fcac941f79625fe01e92ff514fee9f160bff18363199c7a033604080516001600160a01b0390921682524260208301520160405180910390a35050565b61030d610579565b801515821515141580610326575081806103245750805b155b61036b5760405162461bcd60e51b8152602060048201526011602482015270086829c4ea8be8286868aa0a8be849ea89607b1b60448201526064015b60405180910390fd5b823f6000908152600360209081526040808320805486151560ff1991821681179092556001600160a01b03881680865260048552948390208054871515921682179055825191825292810192909252429082015233907fe82584b416ef90b398503af85e6daba1407060c9e2d2050c858719c4f1b076479060600160405180910390a3505050565b6103fb610579565b61040560006105d3565b565b61040f610579565b80356006556020810135600755604081013560085560600135600955565b505050565b3360009081526001602090815260408083206001600160a01b03871684529091529020548211156104935760405162461bcd60e51b815260206004820152600b60248201526a494e5355465f46554e445360a81b6044820152606401610362565b3360009081526001602090815260408083206001600160a01b03871680855292529091208054849003905561042d90308385610623565b60006104d583610683565b80156104f957506001600160a01b03821660009081526005602052604090205460ff165b9392505050565b610508610579565b6001600160a01b03811661056d5760405162461bcd60e51b815260206004820152602660248201527f4f776e61626c653a206e6577206f776e657220697320746865207a65726f206160448201526564647265737360d01b6064820152608401610362565b610576816105d3565b50565b6000546001600160a01b031633146104055760405162461bcd60e51b815260206004820181905260248201527f4f776e61626c653a2063616c6c6572206973206e6f7420746865206f776e65726044820152606401610362565b600080546001600160a01b038381166001600160a01b0319831681178455604051919092169283917f8be0079c531659141344cd1fd0a4f28419497f9722a3daafe3b4186f6b6457e09190a35050565b604080516001600160a01b0385811660248301528416604482015260648082018490528251808303909101815260849091019091526020810180516001600160e01b03166323b872dd60e01b17905261067d9085906106c0565b50505050565b6001600160a01b03811660009081526004602052604081205460ff16806106ba5750813f60009081526003602052604090205460ff165b92915050565b6000610715826040518060400160405280602081526020017f5361666545524332303a206c6f772d6c6576656c2063616c6c206661696c6564815250856001600160a01b03166107929092919063ffffffff16565b80519091501561042d57808060200190518101906107339190610a6e565b61042d5760405162461bcd60e51b815260206004820152602a60248201527f5361666545524332303a204552433230206f7065726174696f6e20646964206e6044820152691bdd081cdd58d8d9595960b21b6064820152608401610362565b60606107a184846000856107a9565b949350505050565b60608247101561080a5760405162461bcd60e51b815260206004820152602660248201527f416464726573733a20696e73756666696369656e742062616c616e636520666f6044820152651c8818d85b1b60d21b6064820152608401610362565b600080866001600160a01b031685876040516108269190610aaf565b60006040518083038185875af1925050503d8060008114610863576040519150601f19603f3d011682016040523d82523d6000602084013e610868565b606091505b509150915061087987838387610884565b979650505050505050565b606083156108f35782516000036108ec576001600160a01b0385163b6108ec5760405162461bcd60e51b815260206004820152601d60248201527f416464726573733a2063616c6c20746f206e6f6e2d636f6e74726163740000006044820152606401610362565b50816107a1565b6107a183838151156109085781518083602001fd5b8060405162461bcd60e51b81526004016103629190610acb565b80356001600160a01b038116811461093957600080fd5b919050565b801515811461057657600080fd5b6000806040838503121561095f57600080fd5b61096883610922565b915060208301356109788161093e565b809150509250929050565b60006020828403121561099557600080fd5b6104f982610922565b6000806000606084860312156109b357600080fd5b6109bc84610922565b925060208401356109cc8161093e565b915060408401356109dc8161093e565b809150509250925092565b6000608082840312156109f957600080fd5b50919050565b600080600060608486031215610a1457600080fd5b610a1d84610922565b925060208401359150610a3260408501610922565b90509250925092565b60008060408385031215610a4e57600080fd5b610a5783610922565b9150610a6560208401610922565b90509250929050565b600060208284031215610a8057600080fd5b81516104f98161093e565b60005b83811015610aa6578181015183820152602001610a8e565b50506000910152565b60008251610ac1818460208701610a8b565b9190910192915050565b6020815260008251806020840152610aea816040850160208701610a8b565b601f01601f1916919091016040019291505056fea2646970667358221220fd10490eb2aa8a918ed7f25f5d0982d826d08224864cfdfc440081b52cd3b1a064736f6c63430008100033",
    "linkReferences": {}
  },
  "methodIdentifiers": {
    "_returnCodeHash(address)": "107e2f3b",
    "_writeFlatFee()": "4c806539",
    "fees()": "9af1d35a",
    "getFees()": "db8d55f1",
    "moduleWhitelisted(address)": "52f37f56",
    "moduleWithdraw(address,uint256,address)": "d6a4f84c",
    "owner()": "8da5cb5b",
    "renounceOwnership()": "715018a6",
    "tokenWhitelisted(address)": "ff8507e8",
    "transferOwnership(address)": "f2fde38b",
    "updateFees((uint256,uint256,uint256,uint256))": "98a9c92b",
    "validWrite(address,address)": "dfd5d811",
    "whitelistModule(address,bool,bool)": "53aafb69",
    "whitelistToken(address,bool)": "0ffb1d8b"
  },
  "id": 34
}