{
  "contractName": "dCheque",
  "abi": [
    {
      "anonymous": false,
      "inputs": [
        {
          "indexed": true,
          "internalType": "address",
          "name": "user",
          "type": "address"
        },
        {
          "indexed": true,
          "internalType": "address",
          "name": "auditor",
          "type": "address"
        }
      ],
      "name": "AcceptAuditor",
      "type": "event"
    },
    {
      "anonymous": false,
      "inputs": [
        {
          "indexed": true,
          "internalType": "address",
          "name": "auditor",
          "type": "address"
        },
        {
          "indexed": true,
          "internalType": "address",
          "name": "user",
          "type": "address"
        }
      ],
      "name": "AcceptUser",
      "type": "event"
    },
    {
      "anonymous": false,
      "inputs": [
        {
          "indexed": true,
          "internalType": "address",
          "name": "bearer",
          "type": "address"
        },
        {
          "indexed": true,
          "internalType": "uint256",
          "name": "chequeID",
          "type": "uint256"
        }
      ],
      "name": "Cash",
      "type": "event"
    },
    {
      "anonymous": false,
      "inputs": [
        {
          "indexed": true,
          "internalType": "address",
          "name": "from",
          "type": "address"
        },
        {
          "indexed": false,
          "internalType": "uint256",
          "name": "amount",
          "type": "uint256"
        }
      ],
      "name": "Deposit",
      "type": "event"
    },
    {
      "anonymous": false,
      "inputs": [
        {
          "indexed": true,
          "internalType": "address",
          "name": "from",
          "type": "address"
        },
        {
          "indexed": true,
          "internalType": "address",
          "name": "to",
          "type": "address"
        },
        {
          "indexed": true,
          "internalType": "uint256",
          "name": "chequeID",
          "type": "uint256"
        }
      ],
      "name": "Transfer",
      "type": "event"
    },
    {
      "anonymous": false,
      "inputs": [
        {
          "indexed": true,
          "internalType": "address",
          "name": "drawer",
          "type": "address"
        },
        {
          "indexed": true,
          "internalType": "address",
          "name": "auditor",
          "type": "address"
        },
        {
          "indexed": true,
          "internalType": "uint256",
          "name": "chequeID",
          "type": "uint256"
        }
      ],
      "name": "Void",
      "type": "event"
    },
    {
      "inputs": [
        {
          "internalType": "address",
          "name": "",
          "type": "address"
        },
        {
          "internalType": "uint256",
          "name": "",
          "type": "uint256"
        }
      ],
      "name": "acceptedAuditorUsers",
      "outputs": [
        {
          "internalType": "address",
          "name": "",
          "type": "address"
        }
      ],
      "stateMutability": "view",
      "type": "function"
    },
    {
      "inputs": [
        {
          "internalType": "address",
          "name": "",
          "type": "address"
        },
        {
          "internalType": "uint256",
          "name": "",
          "type": "uint256"
        }
      ],
      "name": "acceptedUserAuditors",
      "outputs": [
        {
          "internalType": "address",
          "name": "",
          "type": "address"
        }
      ],
      "stateMutability": "view",
      "type": "function"
    },
    {
      "inputs": [
        {
          "internalType": "address",
          "name": "",
          "type": "address"
        },
        {
          "internalType": "uint256",
          "name": "",
          "type": "uint256"
        }
      ],
      "name": "auditorDurations",
      "outputs": [
        {
          "internalType": "bool",
          "name": "",
          "type": "bool"
        }
      ],
      "stateMutability": "view",
      "type": "function"
    },
    {
      "inputs": [
        {
          "internalType": "address",
          "name": "",
          "type": "address"
        },
        {
          "internalType": "address",
          "name": "",
          "type": "address"
        }
      ],
      "name": "auditorUser",
      "outputs": [
        {
          "internalType": "bool",
          "name": "",
          "type": "bool"
        }
      ],
      "stateMutability": "view",
      "type": "function"
    },
    {
      "inputs": [
        {
          "internalType": "address",
          "name": "",
          "type": "address"
        }
      ],
      "name": "chequeCount",
      "outputs": [
        {
          "internalType": "uint256",
          "name": "",
          "type": "uint256"
        }
      ],
      "stateMutability": "view",
      "type": "function"
    },
    {
      "inputs": [
        {
          "internalType": "uint256",
          "name": "",
          "type": "uint256"
        }
      ],
      "name": "cheques",
      "outputs": [
        {
          "internalType": "address",
          "name": "drawer",
          "type": "address"
        },
        {
          "internalType": "address",
          "name": "recipient",
          "type": "address"
        },
        {
          "internalType": "address",
          "name": "bearer",
          "type": "address"
        },
        {
          "internalType": "address",
          "name": "auditor",
          "type": "address"
        },
        {
          "internalType": "uint256",
          "name": "amount",
          "type": "uint256"
        },
        {
          "internalType": "uint256",
          "name": "expiry",
          "type": "uint256"
        },
        {
          "internalType": "bool",
          "name": "voided",
          "type": "bool"
        },
        {
          "internalType": "bool",
          "name": "transferable",
          "type": "bool"
        }
      ],
      "stateMutability": "view",
      "type": "function"
    },
    {
      "inputs": [
        {
          "internalType": "address",
          "name": "",
          "type": "address"
        }
      ],
      "name": "deposits",
      "outputs": [
        {
          "internalType": "uint256",
          "name": "",
          "type": "uint256"
        }
      ],
      "stateMutability": "view",
      "type": "function"
    },
    {
      "inputs": [
        {
          "internalType": "address",
          "name": "",
          "type": "address"
        }
      ],
      "name": "lastTrustedChange",
      "outputs": [
        {
          "internalType": "uint256",
          "name": "",
          "type": "uint256"
        }
      ],
      "stateMutability": "view",
      "type": "function"
    },
    {
      "inputs": [],
      "name": "totalSupply",
      "outputs": [
        {
          "internalType": "uint256",
          "name": "",
          "type": "uint256"
        }
      ],
      "stateMutability": "view",
      "type": "function"
    },
    {
      "inputs": [
        {
          "internalType": "address",
          "name": "",
          "type": "address"
        }
      ],
      "name": "trustedAccount",
      "outputs": [
        {
          "internalType": "address",
          "name": "",
          "type": "address"
        }
      ],
      "stateMutability": "view",
      "type": "function"
    },
    {
      "inputs": [],
      "name": "trustedAccountCooldown",
      "outputs": [
        {
          "internalType": "uint256",
          "name": "",
          "type": "uint256"
        }
      ],
      "stateMutability": "view",
      "type": "function"
    },
    {
      "inputs": [
        {
          "internalType": "address",
          "name": "",
          "type": "address"
        },
        {
          "internalType": "address",
          "name": "",
          "type": "address"
        }
      ],
      "name": "userAuditor",
      "outputs": [
        {
          "internalType": "bool",
          "name": "",
          "type": "bool"
        }
      ],
      "stateMutability": "view",
      "type": "function"
    },
    {
      "stateMutability": "payable",
      "type": "receive"
    },
    {
      "inputs": [
        {
          "internalType": "address",
          "name": "auditor",
          "type": "address"
        },
        {
          "internalType": "address",
          "name": "recipient",
          "type": "address"
        },
        {
          "internalType": "uint256",
          "name": "chequeID",
          "type": "uint256"
        }
      ],
      "name": "addPayRecipient",
      "outputs": [],
      "stateMutability": "nonpayable",
      "type": "function"
    },
    {
      "inputs": [
        {
          "internalType": "uint256",
          "name": "amount",
          "type": "uint256"
        },
        {
          "internalType": "uint256",
          "name": "duration",
          "type": "uint256"
        },
        {
          "internalType": "address",
          "name": "auditor",
          "type": "address"
        }
      ],
      "name": "writeCheque",
      "outputs": [],
      "stateMutability": "nonpayable",
      "type": "function"
    },
    {
      "inputs": [
        {
          "internalType": "uint256",
          "name": "amount",
          "type": "uint256"
        },
        {
          "internalType": "uint256",
          "name": "duration",
          "type": "uint256"
        },
        {
          "internalType": "address",
          "name": "auditor",
          "type": "address"
        },
        {
          "internalType": "address",
          "name": "recipient",
          "type": "address"
        }
      ],
      "name": "writeCheque",
      "outputs": [],
      "stateMutability": "nonpayable",
      "type": "function"
    },
    {
      "inputs": [
        {
          "internalType": "uint256",
          "name": "chequeID",
          "type": "uint256"
        }
      ],
      "name": "cashCheque",
      "outputs": [],
      "stateMutability": "nonpayable",
      "type": "function"
    },
    {
      "inputs": [
        {
          "internalType": "uint256",
          "name": "chequeID",
          "type": "uint256"
        }
      ],
      "name": "voidCheque",
      "outputs": [],
      "stateMutability": "nonpayable",
      "type": "function"
    },
    {
      "inputs": [
        {
          "internalType": "uint256",
          "name": "chequeID",
          "type": "uint256"
        }
      ],
      "name": "voidRescueCheque",
      "outputs": [],
      "stateMutability": "nonpayable",
      "type": "function"
    },
    {
      "inputs": [
        {
          "internalType": "address",
          "name": "to",
          "type": "address"
        },
        {
          "internalType": "uint256",
          "name": "chequeID",
          "type": "uint256"
        }
      ],
      "name": "transfer",
      "outputs": [],
      "stateMutability": "nonpayable",
      "type": "function"
    },
    {
      "inputs": [
        {
          "internalType": "address",
          "name": "auditor",
          "type": "address"
        }
      ],
      "name": "acceptAuditor",
      "outputs": [
        {
          "internalType": "bool",
          "name": "",
          "type": "bool"
        }
      ],
      "stateMutability": "nonpayable",
      "type": "function"
    },
    {
      "inputs": [
        {
          "internalType": "address",
          "name": "drawer",
          "type": "address"
        }
      ],
      "name": "acceptUser",
      "outputs": [
        {
          "internalType": "bool",
          "name": "",
          "type": "bool"
        }
      ],
      "stateMutability": "nonpayable",
      "type": "function"
    },
    {
      "inputs": [
        {
          "internalType": "uint256",
          "name": "duration",
          "type": "uint256"
        }
      ],
      "name": "setAllowedDuration",
      "outputs": [],
      "stateMutability": "nonpayable",
      "type": "function"
    },
    {
      "inputs": [
        {
          "internalType": "address",
          "name": "account",
          "type": "address"
        }
      ],
      "name": "setTrustedAccount",
      "outputs": [],
      "stateMutability": "nonpayable",
      "type": "function"
    },
    {
      "inputs": [
        {
          "internalType": "uint256",
          "name": "chequeId",
          "type": "uint256"
        }
      ],
      "name": "chequeDrawer",
      "outputs": [
        {
          "internalType": "address",
          "name": "",
          "type": "address"
        }
      ],
      "stateMutability": "view",
      "type": "function"
    },
    {
      "inputs": [
        {
          "internalType": "uint256",
          "name": "chequeId",
          "type": "uint256"
        }
      ],
      "name": "chequeRecipient",
      "outputs": [
        {
          "internalType": "address",
          "name": "",
          "type": "address"
        }
      ],
      "stateMutability": "view",
      "type": "function"
    },
    {
      "inputs": [
        {
          "internalType": "uint256",
          "name": "chequeId",
          "type": "uint256"
        }
      ],
      "name": "ownerOf",
      "outputs": [
        {
          "internalType": "address",
          "name": "",
          "type": "address"
        }
      ],
      "stateMutability": "view",
      "type": "function"
    },
    {
      "inputs": [
        {
          "internalType": "uint256",
          "name": "chequeId",
          "type": "uint256"
        }
      ],
      "name": "chequeAuditor",
      "outputs": [
        {
          "internalType": "address",
          "name": "",
          "type": "address"
        }
      ],
      "stateMutability": "view",
      "type": "function"
    },
    {
      "inputs": [
        {
          "internalType": "uint256",
          "name": "chequeId",
          "type": "uint256"
        }
      ],
      "name": "chequeAmount",
      "outputs": [
        {
          "internalType": "uint256",
          "name": "",
          "type": "uint256"
        }
      ],
      "stateMutability": "view",
      "type": "function"
    },
    {
      "inputs": [
        {
          "internalType": "uint256",
          "name": "chequeId",
          "type": "uint256"
        }
      ],
      "name": "chequeExpiry",
      "outputs": [
        {
          "internalType": "uint256",
          "name": "",
          "type": "uint256"
        }
      ],
      "stateMutability": "view",
      "type": "function"
    },
    {
      "inputs": [
        {
          "internalType": "uint256",
          "name": "chequeId",
          "type": "uint256"
        }
      ],
      "name": "chequeVoided",
      "outputs": [
        {
          "internalType": "bool",
          "name": "",
          "type": "bool"
        }
      ],
      "stateMutability": "view",
      "type": "function"
    },
    {
      "inputs": [
        {
          "internalType": "uint256",
          "name": "chequeId",
          "type": "uint256"
        }
      ],
      "name": "chequeTransferable",
      "outputs": [
        {
          "internalType": "bool",
          "name": "",
          "type": "bool"
        }
      ],
      "stateMutability": "view",
      "type": "function"
    },
    {
      "inputs": [
        {
          "internalType": "address",
          "name": "_address",
          "type": "address"
        }
      ],
      "name": "getAcceptedUserAuditors",
      "outputs": [
        {
          "internalType": "address[]",
          "name": "",
          "type": "address[]"
        }
      ],
      "stateMutability": "view",
      "type": "function"
    },
    {
      "inputs": [
        {
          "internalType": "address",
          "name": "_address",
          "type": "address"
        }
      ],
      "name": "getAcceptedAuditorUsers",
      "outputs": [
        {
          "internalType": "address[]",
          "name": "",
          "type": "address[]"
        }
      ],
      "stateMutability": "view",
      "type": "function"
    }
  ],
  "bytecode": "0x608060405262ed4e00600b5534801561001757600080fd5b5061407a806100276000396000f3fe6080604052600436106101f25760003560e01c806376696e801161010d578063bc3ee717116100a0578063d7ad71eb1161006f578063d7ad71eb1461087c578063e50c42b0146108b9578063e5e8343a146108f6578063fc7e286d14610933578063fc9a7cfd146109705761029c565b8063bc3ee717146107b0578063c1d6fa08146107ed578063cb3b5a261461082a578063ce772667146108535761029c565b806396753bec116100dc57806396753bec146106e4578063a74d670114610721578063a9059cbb1461074a578063bb2d42b9146107735761029c565b806376696e801461060257806386cb5e071461063f5780638b9444231461067c57806390090fe6146106a75761029c565b806345fc544311610185578063584b22d111610154578063584b22d1146105225780636352211e1461054b5780636f46bd8e1461058857806372e3de5d146105c55761029c565b806345fc54431461043b5780634663b4dc146104785780634877eff7146104a157806351208fe4146104de5761029c565b806318160ddd116101c157806318160ddd1461038157806322cb4433146103ac578063247fbf36146103e957806343707fc0146104125761029c565b8063055e46ff146102a157806308bdc24d146102ca578063122229ed14610307578063133f6571146103445761029c565b3661029c573373ffffffffffffffffffffffffffffffffffffffff167fe1fffcc4923d04b559f4d29a8bfc6cda04eb5b0d3c460751c2402c5c5cc9109c3460405161023d9190613269565b60405180910390a234600760003373ffffffffffffffffffffffffffffffffffffffff1673ffffffffffffffffffffffffffffffffffffffff168152602001908152602001600020600082825461029491906132b3565b925050819055005b600080fd5b3480156102ad57600080fd5b506102c860048036038101906102c39190613398565b6109ad565b005b3480156102d657600080fd5b506102f160048036038101906102ec91906133eb565b610c95565b6040516102fe9190613433565b60405180910390f35b34801561031357600080fd5b5061032e600480360381019061032991906133eb565b610f5e565b60405161033b919061350c565b60405180910390f35b34801561035057600080fd5b5061036b600480360381019061036691906133eb565b61102b565b604051610378919061350c565b60405180910390f35b34801561038d57600080fd5b506103966110f8565b6040516103a39190613269565b60405180910390f35b3480156103b857600080fd5b506103d360048036038101906103ce919061352e565b6110fe565b6040516103e09190613433565b60405180910390f35b3480156103f557600080fd5b50610410600480360381019061040b919061356e565b61112d565b005b34801561041e57600080fd5b50610439600480360381019061043491906135c1565b611732565b005b34801561044757600080fd5b50610462600480360381019061045d91906135c1565b611adf565b60405161046f91906135fd565b60405180910390f35b34801561048457600080fd5b5061049f600480360381019061049a91906135c1565b611b1f565b005b3480156104ad57600080fd5b506104c860048036038101906104c391906133eb565b611de8565b6040516104d59190613269565b60405180910390f35b3480156104ea57600080fd5b50610505600480360381019061050091906135c1565b611e00565b604051610519989796959493929190613618565b60405180910390f35b34801561052e57600080fd5b50610549600480360381019061054491906135c1565b611ee2565b005b34801561055757600080fd5b50610572600480360381019061056d91906135c1565b611f4e565b60405161057f91906135fd565b60405180910390f35b34801561059457600080fd5b506105af60048036038101906105aa91906135c1565b611f8e565b6040516105bc9190613433565b60405180910390f35b3480156105d157600080fd5b506105ec60048036038101906105e791906135c1565b611fbb565b6040516105f99190613433565b60405180910390f35b34801561060e57600080fd5b50610629600480360381019061062491906133eb565b611fe8565b6040516106369190613269565b60405180910390f35b34801561064b57600080fd5b50610666600480360381019061066191906135c1565b612000565b60405161067391906135fd565b60405180910390f35b34801561068857600080fd5b50610691612040565b60405161069e9190613269565b60405180910390f35b3480156106b357600080fd5b506106ce60048036038101906106c991906135c1565b612046565b6040516106db91906135fd565b60405180910390f35b3480156106f057600080fd5b5061070b60048036038101906107069190613696565b612086565b6040516107189190613433565b60405180910390f35b34801561072d57600080fd5b50610748600480360381019061074391906135c1565b6120b5565b005b34801561075657600080fd5b50610771600480360381019061076c919061352e565b6123ab565b005b34801561077f57600080fd5b5061079a60048036038101906107959190613696565b612548565b6040516107a79190613433565b60405180910390f35b3480156107bc57600080fd5b506107d760048036038101906107d291906133eb565b612577565b6040516107e491906135fd565b60405180910390f35b3480156107f957600080fd5b50610814600480360381019061080f919061352e565b6125aa565b60405161082191906135fd565b60405180910390f35b34801561083657600080fd5b50610851600480360381019061084c91906133eb565b6125f8565b005b34801561085f57600080fd5b5061087a600480360381019061087591906136d6565b61274b565b005b34801561088857600080fd5b506108a3600480360381019061089e91906135c1565b612ee1565b6040516108b09190613269565b60405180910390f35b3480156108c557600080fd5b506108e060048036038101906108db91906135c1565b612f01565b6040516108ed9190613269565b60405180910390f35b34801561090257600080fd5b5061091d6004803603810190610918919061352e565b612f21565b60405161092a91906135fd565b60405180910390f35b34801561093f57600080fd5b5061095a600480360381019061095591906133eb565b612f6f565b6040516109679190613269565b60405180910390f35b34801561097c57600080fd5b50610997600480360381019061099291906133eb565b612f87565b6040516109a49190613433565b60405180910390f35b60006005600083815260200190815260200160002090503373ffffffffffffffffffffffffffffffffffffffff168160000160009054906101000a900473ffffffffffffffffffffffffffffffffffffffff1673ffffffffffffffffffffffffffffffffffffffff16148015610a7257503373ffffffffffffffffffffffffffffffffffffffff168160020160009054906101000a900473ffffffffffffffffffffffffffffffffffffffff1673ffffffffffffffffffffffffffffffffffffffff16145b610ab1576040517f08c379a0000000000000000000000000000000000000000000000000000000008152600401610aa8906137c0565b60405180910390fd5b600260008573ffffffffffffffffffffffffffffffffffffffff1673ffffffffffffffffffffffffffffffffffffffff16815260200190815260200160002060008473ffffffffffffffffffffffffffffffffffffffff1673ffffffffffffffffffffffffffffffffffffffff16815260200190815260200160002060009054906101000a900460ff16610b7a576040517f08c379a0000000000000000000000000000000000000000000000000000000008152600401610b7190613852565b60405180910390fd5b6000808473ffffffffffffffffffffffffffffffffffffffff1673ffffffffffffffffffffffffffffffffffffffff16815260200190815260200160002060008573ffffffffffffffffffffffffffffffffffffffff1673ffffffffffffffffffffffffffffffffffffffff16815260200190815260200160002060009054906101000a900460ff16610c42576040517f08c379a0000000000000000000000000000000000000000000000000000000008152600401610c39906138e4565b60405180910390fd5b828160010160006101000a81548173ffffffffffffffffffffffffffffffffffffffff021916908373ffffffffffffffffffffffffffffffffffffffff160217905550610c8f83836123ab565b50505050565b60006001600260003373ffffffffffffffffffffffffffffffffffffffff1673ffffffffffffffffffffffffffffffffffffffff16815260200190815260200160002060008473ffffffffffffffffffffffffffffffffffffffff1673ffffffffffffffffffffffffffffffffffffffff16815260200190815260200160002060006101000a81548160ff0219169083151502179055506000808373ffffffffffffffffffffffffffffffffffffffff1673ffffffffffffffffffffffffffffffffffffffff16815260200190815260200160002060003373ffffffffffffffffffffffffffffffffffffffff1673ffffffffffffffffffffffffffffffffffffffff16815260200190815260200160002060009054906101000a900460ff1615610efb57600160008373ffffffffffffffffffffffffffffffffffffffff1673ffffffffffffffffffffffffffffffffffffffff168152602001908152602001600020339080600181540180825580915050600190039060005260206000200160009091909190916101000a81548173ffffffffffffffffffffffffffffffffffffffff021916908373ffffffffffffffffffffffffffffffffffffffff160217905550600360003373ffffffffffffffffffffffffffffffffffffffff1673ffffffffffffffffffffffffffffffffffffffff168152602001908152602001600020829080600181540180825580915050600190039060005260206000200160009091909190916101000a81548173ffffffffffffffffffffffffffffffffffffffff021916908373ffffffffffffffffffffffffffffffffffffffff1602179055505b8173ffffffffffffffffffffffffffffffffffffffff163373ffffffffffffffffffffffffffffffffffffffff167f078dc5664c64160be6b3015282df84a6fba4f7887007587d8b836aada89801c760405160405180910390a360019050919050565b6060600160008373ffffffffffffffffffffffffffffffffffffffff1673ffffffffffffffffffffffffffffffffffffffff16815260200190815260200160002080548060200260200160405190810160405280929190818152602001828054801561101f57602002820191906000526020600020905b8160009054906101000a900473ffffffffffffffffffffffffffffffffffffffff1673ffffffffffffffffffffffffffffffffffffffff1681526020019060010190808311610fd5575b50505050509050919050565b6060600360008373ffffffffffffffffffffffffffffffffffffffff1673ffffffffffffffffffffffffffffffffffffffff1681526020019081526020016000208054806020026020016040519081016040528092919081815260200182805480156110ec57602002820191906000526020600020905b8160009054906101000a900473ffffffffffffffffffffffffffffffffffffffff1673ffffffffffffffffffffffffffffffffffffffff16815260200190600101908083116110a2575b50505050509050919050565b60085481565b60046020528160005260406000206020528060005260406000206000915091509054906101000a900460ff1681565b82600760003373ffffffffffffffffffffffffffffffffffffffff1673ffffffffffffffffffffffffffffffffffffffff1681526020019081526020016000205410156111af576040517f08c379a00000000000000000000000000000000000000000000000000000000081526004016111a690613950565b60405180910390fd5b6000803373ffffffffffffffffffffffffffffffffffffffff1673ffffffffffffffffffffffffffffffffffffffff16815260200190815260200160002060008273ffffffffffffffffffffffffffffffffffffffff1673ffffffffffffffffffffffffffffffffffffffff16815260200190815260200160002060009054906101000a900460ff16611277576040517f08c379a000000000000000000000000000000000000000000000000000000000815260040161126e906139bc565b60405180910390fd5b600260008273ffffffffffffffffffffffffffffffffffffffff1673ffffffffffffffffffffffffffffffffffffffff16815260200190815260200160002060003373ffffffffffffffffffffffffffffffffffffffff1673ffffffffffffffffffffffffffffffffffffffff16815260200190815260200160002060009054906101000a900460ff16611340576040517f08c379a000000000000000000000000000000000000000000000000000000000815260040161133790613a4e565b60405180910390fd5b600460008273ffffffffffffffffffffffffffffffffffffffff1673ffffffffffffffffffffffffffffffffffffffff168152602001908152602001600020600083815260200190815260200160002060009054906101000a900460ff166113dd576040517f08c379a00000000000000000000000000000000000000000000000000000000081526004016113d490613ae0565b60405180910390fd5b82600760003373ffffffffffffffffffffffffffffffffffffffff1673ffffffffffffffffffffffffffffffffffffffff168152602001908152602001600020600082825461142c9190613b00565b9250508190555060016008600082825461144691906132b3565b925050819055506001600660003373ffffffffffffffffffffffffffffffffffffffff1673ffffffffffffffffffffffffffffffffffffffff168152602001908152602001600020600082825461149d91906132b3565b925050819055506040518061010001604052803373ffffffffffffffffffffffffffffffffffffffff1681526020013373ffffffffffffffffffffffffffffffffffffffff1681526020013373ffffffffffffffffffffffffffffffffffffffff1681526020018273ffffffffffffffffffffffffffffffffffffffff168152602001848152602001834261153291906132b3565b81526020016000151581526020016001151581525060056000600854815260200190815260200160002060008201518160000160006101000a81548173ffffffffffffffffffffffffffffffffffffffff021916908373ffffffffffffffffffffffffffffffffffffffff16021790555060208201518160010160006101000a81548173ffffffffffffffffffffffffffffffffffffffff021916908373ffffffffffffffffffffffffffffffffffffffff16021790555060408201518160020160006101000a81548173ffffffffffffffffffffffffffffffffffffffff021916908373ffffffffffffffffffffffffffffffffffffffff16021790555060608201518160030160006101000a81548173ffffffffffffffffffffffffffffffffffffffff021916908373ffffffffffffffffffffffffffffffffffffffff1602179055506080820151816004015560a0820151816005015560c08201518160060160006101000a81548160ff02191690831515021790555060e08201518160060160016101000a81548160ff0219169083151502179055509050506008543373ffffffffffffffffffffffffffffffffffffffff16600073ffffffffffffffffffffffffffffffffffffffff167fddf252ad1be2c89b69c2b068fc378daa952ba7f163c4a11628f55a4df523b3ef60405160405180910390a4505050565b60006005600083815260200190815260200160002090503373ffffffffffffffffffffffffffffffffffffffff168160030160009054906101000a900473ffffffffffffffffffffffffffffffffffffffff1673ffffffffffffffffffffffffffffffffffffffff16146117db576040517f08c379a00000000000000000000000000000000000000000000000000000000081526004016117d290613b80565b60405180910390fd5b42816005015410611821576040517f08c379a000000000000000000000000000000000000000000000000000000000815260040161181890613bec565b60405180910390fd5b60018160060160006101000a81548160ff02191690831515021790555060008160060160016101000a81548160ff0219169083151502179055506001600660008360020160009054906101000a900473ffffffffffffffffffffffffffffffffffffffff1673ffffffffffffffffffffffffffffffffffffffff1673ffffffffffffffffffffffffffffffffffffffff16815260200190815260200160002060008282546118cf9190613b00565b925050819055506000600960008360000160009054906101000a900473ffffffffffffffffffffffffffffffffffffffff1673ffffffffffffffffffffffffffffffffffffffff1673ffffffffffffffffffffffffffffffffffffffff16815260200190815260200160002060009054906101000a900473ffffffffffffffffffffffffffffffffffffffff1690508160040154600760008373ffffffffffffffffffffffffffffffffffffffff1673ffffffffffffffffffffffffffffffffffffffff16815260200190815260200160002060008282546119b191906132b3565b92505081905550828260030160009054906101000a900473ffffffffffffffffffffffffffffffffffffffff1673ffffffffffffffffffffffffffffffffffffffff168360000160009054906101000a900473ffffffffffffffffffffffffffffffffffffffff1673ffffffffffffffffffffffffffffffffffffffff167fea3bb9cc6e72cd3053091f2031a5c9606f318e8220e0a781142e33c23431baa060405160405180910390a4828173ffffffffffffffffffffffffffffffffffffffff168360020160009054906101000a900473ffffffffffffffffffffffffffffffffffffffff1673ffffffffffffffffffffffffffffffffffffffff167fddf252ad1be2c89b69c2b068fc378daa952ba7f163c4a11628f55a4df523b3ef60405160405180910390a4505050565b60006005600083815260200190815260200160002060010160009054906101000a900473ffffffffffffffffffffffffffffffffffffffff169050919050565b60006005600083815260200190815260200160002090503373ffffffffffffffffffffffffffffffffffffffff168160030160009054906101000a900473ffffffffffffffffffffffffffffffffffffffff1673ffffffffffffffffffffffffffffffffffffffff1614611bc8576040517f08c379a0000000000000000000000000000000000000000000000000000000008152600401611bbf90613b80565b60405180910390fd5b42816005015410611c0e576040517f08c379a0000000000000000000000000000000000000000000000000000000008152600401611c0590613bec565b60405180910390fd5b60018160060160006101000a81548160ff02191690831515021790555060008160060160016101000a81548160ff0219169083151502179055506001600660008360020160009054906101000a900473ffffffffffffffffffffffffffffffffffffffff1673ffffffffffffffffffffffffffffffffffffffff1673ffffffffffffffffffffffffffffffffffffffff1681526020019081526020016000206000828254611cbc9190613b00565b925050819055508060040154600760008360000160009054906101000a900473ffffffffffffffffffffffffffffffffffffffff1673ffffffffffffffffffffffffffffffffffffffff1673ffffffffffffffffffffffffffffffffffffffff1681526020019081526020016000206000828254611d3a91906132b3565b92505081905550818160030160009054906101000a900473ffffffffffffffffffffffffffffffffffffffff1673ffffffffffffffffffffffffffffffffffffffff168260000160009054906101000a900473ffffffffffffffffffffffffffffffffffffffff1673ffffffffffffffffffffffffffffffffffffffff167fea3bb9cc6e72cd3053091f2031a5c9606f318e8220e0a781142e33c23431baa060405160405180910390a45050565b60066020528060005260406000206000915090505481565b60056020528060005260406000206000915090508060000160009054906101000a900473ffffffffffffffffffffffffffffffffffffffff16908060010160009054906101000a900473ffffffffffffffffffffffffffffffffffffffff16908060020160009054906101000a900473ffffffffffffffffffffffffffffffffffffffff16908060030160009054906101000a900473ffffffffffffffffffffffffffffffffffffffff16908060040154908060050154908060060160009054906101000a900460ff16908060060160019054906101000a900460ff16905088565b6001600460003373ffffffffffffffffffffffffffffffffffffffff1673ffffffffffffffffffffffffffffffffffffffff168152602001908152602001600020600083815260200190815260200160002060006101000a81548160ff02191690831515021790555050565b60006005600083815260200190815260200160002060020160009054906101000a900473ffffffffffffffffffffffffffffffffffffffff169050919050565b60006005600083815260200190815260200160002060060160009054906101000a900460ff169050919050565b60006005600083815260200190815260200160002060060160019054906101000a900460ff169050919050565b600a6020528060005260406000206000915090505481565b60006005600083815260200190815260200160002060030160009054906101000a900473ffffffffffffffffffffffffffffffffffffffff169050919050565b600b5481565b60006005600083815260200190815260200160002060000160009054906101000a900473ffffffffffffffffffffffffffffffffffffffff169050919050565b60026020528160005260406000206020528060005260406000206000915091509054906101000a900460ff1681565b60006005600083815260200190815260200160002090503373ffffffffffffffffffffffffffffffffffffffff168160020160009054906101000a900473ffffffffffffffffffffffffffffffffffffffff1673ffffffffffffffffffffffffffffffffffffffff161461215e576040517f08c379a000000000000000000000000000000000000000000000000000000000815260040161215590613c58565b60405180910390fd5b428160050154116121a4576040517f08c379a000000000000000000000000000000000000000000000000000000000815260040161219b90613cc4565b60405180910390fd5b8060060160009054906101000a900460ff16156121f6576040517f08c379a00000000000000000000000000000000000000000000000000000000081526004016121ed90613d30565b60405180910390fd5b60018160060160006101000a81548160ff02191690831515021790555060003373ffffffffffffffffffffffffffffffffffffffff16826004015460405161223d90613d81565b60006040518083038185875af1925050503d806000811461227a576040519150601f19603f3d011682016040523d82523d6000602084013e61227f565b606091505b50509050806122c3576040517f08c379a00000000000000000000000000000000000000000000000000000000081526004016122ba90613de2565b60405180910390fd5b6001600660008460020160009054906101000a900473ffffffffffffffffffffffffffffffffffffffff1673ffffffffffffffffffffffffffffffffffffffff1673ffffffffffffffffffffffffffffffffffffffff16815260200190815260200160002060008282546123379190613b00565b92505081905550828260020160009054906101000a900473ffffffffffffffffffffffffffffffffffffffff1673ffffffffffffffffffffffffffffffffffffffff167f730831a1e4aa2d187ddd8e03d7beeac760a3927da5f112d645e0f8df7494b36760405160405180910390a3505050565b60006005600083815260200190815260200160002090503373ffffffffffffffffffffffffffffffffffffffff168160020160009054906101000a900473ffffffffffffffffffffffffffffffffffffffff1673ffffffffffffffffffffffffffffffffffffffff1614612454576040517f08c379a000000000000000000000000000000000000000000000000000000000815260040161244b90613e4e565b60405180910390fd5b8060060160019054906101000a900460ff166124a5576040517f08c379a000000000000000000000000000000000000000000000000000000000815260040161249c90613eba565b60405180910390fd5b828160020160006101000a81548173ffffffffffffffffffffffffffffffffffffffff021916908373ffffffffffffffffffffffffffffffffffffffff160217905550818373ffffffffffffffffffffffffffffffffffffffff163373ffffffffffffffffffffffffffffffffffffffff167fddf252ad1be2c89b69c2b068fc378daa952ba7f163c4a11628f55a4df523b3ef60405160405180910390a4505050565b60006020528160005260406000206020528060005260406000206000915091509054906101000a900460ff1681565b60096020528060005260406000206000915054906101000a900473ffffffffffffffffffffffffffffffffffffffff1681565b600160205281600052604060002081815481106125c657600080fd5b906000526020600020016000915091509054906101000a900473ffffffffffffffffffffffffffffffffffffffff1681565b42600b54600a60003373ffffffffffffffffffffffffffffffffffffffff1673ffffffffffffffffffffffffffffffffffffffff1681526020019081526020016000205461264691906132b3565b10612686576040517f08c379a000000000000000000000000000000000000000000000000000000000815260040161267d90613f4c565b60405180910390fd5b80600960003373ffffffffffffffffffffffffffffffffffffffff1673ffffffffffffffffffffffffffffffffffffffff16815260200190815260200160002060006101000a81548173ffffffffffffffffffffffffffffffffffffffff021916908373ffffffffffffffffffffffffffffffffffffffff16021790555042600a60003373ffffffffffffffffffffffffffffffffffffffff1673ffffffffffffffffffffffffffffffffffffffff1681526020019081526020016000208190555050565b83600760003373ffffffffffffffffffffffffffffffffffffffff1673ffffffffffffffffffffffffffffffffffffffff1681526020019081526020016000205410156127cd576040517f08c379a00000000000000000000000000000000000000000000000000000000081526004016127c490613950565b60405180910390fd5b6000803373ffffffffffffffffffffffffffffffffffffffff1673ffffffffffffffffffffffffffffffffffffffff16815260200190815260200160002060008373ffffffffffffffffffffffffffffffffffffffff1673ffffffffffffffffffffffffffffffffffffffff16815260200190815260200160002060009054906101000a900460ff16612895576040517f08c379a000000000000000000000000000000000000000000000000000000000815260040161288c90613fb8565b60405180910390fd5b6000808273ffffffffffffffffffffffffffffffffffffffff1673ffffffffffffffffffffffffffffffffffffffff16815260200190815260200160002060008373ffffffffffffffffffffffffffffffffffffffff1673ffffffffffffffffffffffffffffffffffffffff16815260200190815260200160002060009054906101000a900460ff1661295d576040517f08c379a0000000000000000000000000000000000000000000000000000000008152600401612954906138e4565b60405180910390fd5b600260008373ffffffffffffffffffffffffffffffffffffffff1673ffffffffffffffffffffffffffffffffffffffff16815260200190815260200160002060003373ffffffffffffffffffffffffffffffffffffffff1673ffffffffffffffffffffffffffffffffffffffff16815260200190815260200160002060009054906101000a900460ff16612a26576040517f08c379a0000000000000000000000000000000000000000000000000000000008152600401612a1d90614024565b60405180910390fd5b600260008373ffffffffffffffffffffffffffffffffffffffff1673ffffffffffffffffffffffffffffffffffffffff16815260200190815260200160002060008273ffffffffffffffffffffffffffffffffffffffff1673ffffffffffffffffffffffffffffffffffffffff16815260200190815260200160002060009054906101000a900460ff16612aef576040517f08c379a0000000000000000000000000000000000000000000000000000000008152600401612ae690613852565b60405180910390fd5b600460008373ffffffffffffffffffffffffffffffffffffffff1673ffffffffffffffffffffffffffffffffffffffff168152602001908152602001600020600084815260200190815260200160002060009054906101000a900460ff16612b8c576040517f08c379a0000000000000000000000000000000000000000000000000000000008152600401612b8390613ae0565b60405180910390fd5b83600760003373ffffffffffffffffffffffffffffffffffffffff1673ffffffffffffffffffffffffffffffffffffffff1681526020019081526020016000206000828254612bdb9190613b00565b92505081905550600160086000828254612bf591906132b3565b925050819055506001600660008373ffffffffffffffffffffffffffffffffffffffff1673ffffffffffffffffffffffffffffffffffffffff1681526020019081526020016000206000828254612c4c91906132b3565b925050819055506040518061010001604052803373ffffffffffffffffffffffffffffffffffffffff1681526020018273ffffffffffffffffffffffffffffffffffffffff1681526020018273ffffffffffffffffffffffffffffffffffffffff1681526020018373ffffffffffffffffffffffffffffffffffffffff1681526020018581526020018442612ce191906132b3565b81526020016000151581526020016001151581525060056000600854815260200190815260200160002060008201518160000160006101000a81548173ffffffffffffffffffffffffffffffffffffffff021916908373ffffffffffffffffffffffffffffffffffffffff16021790555060208201518160010160006101000a81548173ffffffffffffffffffffffffffffffffffffffff021916908373ffffffffffffffffffffffffffffffffffffffff16021790555060408201518160020160006101000a81548173ffffffffffffffffffffffffffffffffffffffff021916908373ffffffffffffffffffffffffffffffffffffffff16021790555060608201518160030160006101000a81548173ffffffffffffffffffffffffffffffffffffffff021916908373ffffffffffffffffffffffffffffffffffffffff1602179055506080820151816004015560a0820151816005015560c08201518160060160006101000a81548160ff02191690831515021790555060e08201518160060160016101000a81548160ff0219169083151502179055509050506008548173ffffffffffffffffffffffffffffffffffffffff163373ffffffffffffffffffffffffffffffffffffffff167fddf252ad1be2c89b69c2b068fc378daa952ba7f163c4a11628f55a4df523b3ef60405160405180910390a450505050565b600060056000838152602001908152602001600020600501549050919050565b600060056000838152602001908152602001600020600401549050919050565b60036020528160005260406000208181548110612f3d57600080fd5b906000526020600020016000915091509054906101000a900473ffffffffffffffffffffffffffffffffffffffff1681565b60076020528060005260406000206000915090505481565b600060016000803373ffffffffffffffffffffffffffffffffffffffff1673ffffffffffffffffffffffffffffffffffffffff16815260200190815260200160002060008473ffffffffffffffffffffffffffffffffffffffff1673ffffffffffffffffffffffffffffffffffffffff16815260200190815260200160002060006101000a81548160ff021916908315150217905550600260008373ffffffffffffffffffffffffffffffffffffffff1673ffffffffffffffffffffffffffffffffffffffff16815260200190815260200160002060003373ffffffffffffffffffffffffffffffffffffffff1673ffffffffffffffffffffffffffffffffffffffff16815260200190815260200160002060009054906101000a900460ff16156131ed57600360008373ffffffffffffffffffffffffffffffffffffffff1673ffffffffffffffffffffffffffffffffffffffff168152602001908152602001600020339080600181540180825580915050600190039060005260206000200160009091909190916101000a81548173ffffffffffffffffffffffffffffffffffffffff021916908373ffffffffffffffffffffffffffffffffffffffff160217905550600160003373ffffffffffffffffffffffffffffffffffffffff1673ffffffffffffffffffffffffffffffffffffffff168152602001908152602001600020829080600181540180825580915050600190039060005260206000200160009091909190916101000a81548173ffffffffffffffffffffffffffffffffffffffff021916908373ffffffffffffffffffffffffffffffffffffffff1602179055505b8173ffffffffffffffffffffffffffffffffffffffff163373ffffffffffffffffffffffffffffffffffffffff167f299ee620f7f943423e6a9788774c2ef64ca767ff063236ec6dc9f8c9c6462eb760405160405180910390a360019050919050565b6000819050919050565b61326381613250565b82525050565b600060208201905061327e600083018461325a565b92915050565b7f4e487b7100000000000000000000000000000000000000000000000000000000600052601160045260246000fd5b60006132be82613250565b91506132c983613250565b9250827fffffffffffffffffffffffffffffffffffffffffffffffffffffffffffffffff038211156132fe576132fd613284565b5b828201905092915050565b600080fd5b600073ffffffffffffffffffffffffffffffffffffffff82169050919050565b60006133398261330e565b9050919050565b6133498161332e565b811461335457600080fd5b50565b60008135905061336681613340565b92915050565b61337581613250565b811461338057600080fd5b50565b6000813590506133928161336c565b92915050565b6000806000606084860312156133b1576133b0613309565b5b60006133bf86828701613357565b93505060206133d086828701613357565b92505060406133e186828701613383565b9150509250925092565b60006020828403121561340157613400613309565b5b600061340f84828501613357565b91505092915050565b60008115159050919050565b61342d81613418565b82525050565b60006020820190506134486000830184613424565b92915050565b600081519050919050565b600082825260208201905092915050565b6000819050602082019050919050565b6134838161332e565b82525050565b6000613495838361347a565b60208301905092915050565b6000602082019050919050565b60006134b98261344e565b6134c38185613459565b93506134ce8361346a565b8060005b838110156134ff5781516134e68882613489565b97506134f1836134a1565b9250506001810190506134d2565b5085935050505092915050565b6000602082019050818103600083015261352681846134ae565b905092915050565b6000806040838503121561354557613544613309565b5b600061355385828601613357565b925050602061356485828601613383565b9150509250929050565b60008060006060848603121561358757613586613309565b5b600061359586828701613383565b93505060206135a686828701613383565b92505060406135b786828701613357565b9150509250925092565b6000602082840312156135d7576135d6613309565b5b60006135e584828501613383565b91505092915050565b6135f78161332e565b82525050565b600060208201905061361260008301846135ee565b92915050565b60006101008201905061362e600083018b6135ee565b61363b602083018a6135ee565b61364860408301896135ee565b61365560608301886135ee565b613662608083018761325a565b61366f60a083018661325a565b61367c60c0830185613424565b61368960e0830184613424565b9998505050505050505050565b600080604083850312156136ad576136ac613309565b5b60006136bb85828601613357565b92505060206136cc85828601613357565b9150509250929050565b600080600080608085870312156136f0576136ef613309565b5b60006136fe87828801613383565b945050602061370f87828801613383565b935050604061372087828801613357565b925050606061373187828801613357565b91505092959194509250565b600082825260208201905092915050565b7f4d7573742062652064726177657220616e64206f776e657220746f206368616e60008201527f676520726563697069656e740000000000000000000000000000000000000000602082015250565b60006137aa602c8361373d565b91506137b58261374e565b604082019050919050565b600060208201905081810360008301526137d98161379d565b9050919050565b7f41756469746f72206d75737420617070726f766520746869732072656369706960008201527f656e740000000000000000000000000000000000000000000000000000000000602082015250565b600061383c60238361373d565b9150613847826137e0565b604082019050919050565b6000602082019050818103600083015261386b8161382f565b9050919050565b7f526563697069656e74206d75737420617070726f76652074686973206175646960008201527f746f720000000000000000000000000000000000000000000000000000000000602082015250565b60006138ce60238361373d565b91506138d982613872565b604082019050919050565b600060208201905081810360008301526138fd816138c1565b9050919050565b7f57726974696e67206d6f7265207468616e20617661696c61626c650000000000600082015250565b600061393a601b8361373d565b915061394582613904565b602082019050919050565b600060208201905081810360008301526139698161392d565b9050919050565b7f55736572206d75737420617070726f766520746869732061756469746f720000600082015250565b60006139a6601e8361373d565b91506139b182613970565b602082019050919050565b600060208201905081810360008301526139d581613999565b9050919050565b7f41756469746f72206d75737420617070726f76652074686973206163636f756e60008201527f7400000000000000000000000000000000000000000000000000000000000000602082015250565b6000613a3860218361373d565b9150613a43826139dc565b604082019050919050565b60006020820190508181036000830152613a6781613a2b565b9050919050565b7f41756469746f7220646f65736e277420616c6c6f77207468697320647572617460008201527f696f6e0000000000000000000000000000000000000000000000000000000000602082015250565b6000613aca60238361373d565b9150613ad582613a6e565b604082019050919050565b60006020820190508181036000830152613af981613abd565b9050919050565b6000613b0b82613250565b9150613b1683613250565b925082821015613b2957613b28613284565b5b828203905092915050565b7f4d7573742062652061756469746f720000000000000000000000000000000000600082015250565b6000613b6a600f8361373d565b9150613b7582613b34565b602082019050919050565b60006020820190508181036000830152613b9981613b5d565b9050919050565b7f43686571756520616c7265616479206d61747572656400000000000000000000600082015250565b6000613bd660168361373d565b9150613be182613ba0565b602082019050919050565b60006020820190508181036000830152613c0581613bc9565b9050919050565b7f4d757374206f776e2063686571756520746f2063617368000000000000000000600082015250565b6000613c4260178361373d565b9150613c4d82613c0c565b602082019050919050565b60006020820190508181036000830152613c7181613c35565b9050919050565b7f436865717565206e6f74206361736861626c6520796574000000000000000000600082015250565b6000613cae60178361373d565b9150613cb982613c78565b602082019050919050565b60006020820190508181036000830152613cdd81613ca1565b9050919050565b7f43686571756520696e76616c6964000000000000000000000000000000000000600082015250565b6000613d1a600e8361373d565b9150613d2582613ce4565b602082019050919050565b60006020820190508181036000830152613d4981613d0d565b9050919050565b600081905092915050565b50565b6000613d6b600083613d50565b9150613d7682613d5b565b600082019050919050565b6000613d8c82613d5e565b9150819050919050565b7f5472616e73666572206661696c65642e00000000000000000000000000000000600082015250565b6000613dcc60108361373d565b9150613dd782613d96565b602082019050919050565b60006020820190508181036000830152613dfb81613dbf565b9050919050565b7f4f6e6c7920636865717565206f776e65722063616e207472616e736665720000600082015250565b6000613e38601e8361373d565b9150613e4382613e02565b602082019050919050565b60006020820190508181036000830152613e6781613e2b565b9050919050565b7f436865717565206e6f74207472616e7366657261626c65000000000000000000600082015250565b6000613ea460178361373d565b9150613eaf82613e6e565b602082019050919050565b60006020820190508181036000830152613ed381613e97565b9050919050565b7f43616e206f6e6c79206368616e67652074727573746564206163636f756e742060008201527f6f6e636520657665727920313830206461797300000000000000000000000000602082015250565b6000613f3660338361373d565b9150613f4182613eda565b604082019050919050565b60006020820190508181036000830152613f6581613f29565b9050919050565b7f596f75206d75737420617070726f766520746869732061756469746f72000000600082015250565b6000613fa2601d8361373d565b9150613fad82613f6c565b602082019050919050565b60006020820190508181036000830152613fd181613f95565b9050919050565b7f41756469746f72206d75737420617070726f766520796f750000000000000000600082015250565b600061400e60188361373d565b915061401982613fd8565b602082019050919050565b6000602082019050818103600083015261403d81614001565b905091905056fea26469706673582212209cee0d9e4cc322ca9ee3ab05826cabfef2c4dc2a9e85da61140f08770312395864736f6c634300080f0033",
  "immutableReferences": {},
  "source": "// SPDX-License-Identifier: MIT\npragma solidity >=0.8.14;\n\n\ncontract dCheque {\n    struct Cheque{\n        address drawer;\n        address recipient;\n        address bearer;\n        address auditor;\n        uint256 amount;\n        uint256 expiry;\n        bool voided;\n        bool transferable;\n    }\n    mapping(address=>mapping(address=>bool)) public userAuditor;  // Whether User accepts Auditor\n    mapping(address=>address[]) public acceptedUserAuditors;  // Auditor addresses that user accepts\n    mapping(address=>mapping(address=>bool)) public auditorUser;  // Whether Auditor accepts User\n    mapping(address=>address[]) public acceptedAuditorUsers;  // User addresses that auditor accepts\n    mapping(address=>mapping(uint256=>bool)) public auditorDurations;  // Auditor voiding periods\n\n    mapping(uint256=>Cheque) public cheques;\n    mapping(address=>uint256) public chequeCount;  // User's balance of cheques\n    mapping(address=>uint256) public deposits;  // Total user deposits\n    uint256 public totalSupply;  // Total cheques created\n\n    mapping(address=>address) public trustedAccount;  // User's trusted account\n    mapping(address=>uint256) public lastTrustedChange;\n    uint256 public trustedAccountCooldown = 180 days;\n\n    event Deposit(address indexed from, uint256 amount);\n    event Transfer(address indexed from, address indexed to, uint256 indexed chequeID);\n    event Void(address indexed drawer, address indexed auditor, uint256 indexed chequeID);\n    event Cash(address indexed bearer, uint256 indexed chequeID);\n    event AcceptAuditor(address indexed user, address indexed auditor);\n    event AcceptUser(address indexed auditor, address indexed user);\n\n    receive() external payable{\n        emit Deposit(msg.sender, msg.value);\n        deposits[msg.sender] += msg.value;\n    }\n    function writeCheque(uint256 amount, uint256 duration, address auditor) public {\n        require(deposits[msg.sender]>=amount, \"Writing more than available\");\n        require(userAuditor[msg.sender][auditor], \"User must approve this auditor\");\n        require(auditorUser[auditor][msg.sender],  \"Auditor must approve this account\");\n        require(auditorDurations[auditor][duration], \"Auditor doesn't allow this duration\");\n        deposits[msg.sender] -= amount;\n        totalSupply += 1;\n        chequeCount[msg.sender]+=1;\n        cheques[totalSupply] = Cheque({drawer: msg.sender, recipient:msg.sender, bearer: msg.sender, expiry: block.timestamp+duration, \n                                         auditor: auditor, amount: amount, voided: false, transferable: true});\n        emit Transfer(address(0), msg.sender, totalSupply);\n    }\n    function addPayRecipient(address auditor, address recipient, uint256 chequeID) external{\n        Cheque storage cheque = cheques[chequeID];\n        require((cheque.drawer==msg.sender)&&(cheque.bearer==msg.sender), \"Must be drawer and owner to change recipient\");\n        require(auditorUser[auditor][recipient],  \"Auditor must approve this recipient\");\n        require(userAuditor[recipient][auditor], \"Recipient must approve this auditor\");\n        cheque.recipient = recipient;\n        transfer(recipient, chequeID);\n    }\n    function writeCheque(uint256 amount, uint256 duration, address auditor, address recipient) public {\n        require(deposits[msg.sender]>=amount, \"Writing more than available\");\n        require(userAuditor[msg.sender][auditor], \"You must approve this auditor\");\n        require(userAuditor[recipient][auditor], \"Recipient must approve this auditor\");\n        require(auditorUser[auditor][msg.sender],  \"Auditor must approve you\");\n        require(auditorUser[auditor][recipient],  \"Auditor must approve this recipient\");\n        require(auditorDurations[auditor][duration], \"Auditor doesn't allow this duration\");\n        deposits[msg.sender] -= amount;\n        totalSupply += 1;\n        chequeCount[recipient]+=1;\n        cheques[totalSupply] = Cheque({drawer: msg.sender, recipient:recipient, bearer: recipient, expiry: block.timestamp+duration, \n                                         auditor: auditor, amount: amount, voided: false, transferable: true});\n        emit Transfer(msg.sender, recipient, totalSupply);\n    }\n    function cashCheque(uint256 chequeID) external {  // Only allow withdraws via cheque writing\n        Cheque storage cheque = cheques[chequeID];\n        require(cheque.bearer==msg.sender, \"Must own cheque to cash\");\n        require(cheque.expiry>block.timestamp, \"Cheque not cashable yet\");\n        require(!cheque.voided, \"Cheque invalid\");\n        cheque.voided = true;\n        (bool success, ) = msg.sender.call{value:cheque.amount}(\"\");\n        require(success, \"Transfer failed.\");\n        chequeCount[cheque.bearer]-=1;\n        emit Cash(cheque.bearer, chequeID);\n    }\n    function voidCheque(uint256 chequeID) external {\n        Cheque storage cheque = cheques[chequeID];\n        require(cheque.auditor==msg.sender, \"Must be auditor\");\n        require(cheque.expiry<block.timestamp, \"Cheque already matured\");\n        cheque.voided = true;\n        cheque.transferable = false;\n        chequeCount[cheque.bearer]-=1;\n        deposits[cheque.drawer] += cheque.amount;  // Add balance back to signer\n        emit Void(cheque.drawer, cheque.auditor, chequeID);\n    }\n    function voidRescueCheque(uint256 chequeID) external {\n        Cheque storage cheque = cheques[chequeID];\n        require(cheque.auditor==msg.sender, \"Must be auditor\");\n        require(cheque.expiry<block.timestamp, \"Cheque already matured\");\n        cheque.voided = true;\n        cheque.transferable = false;\n        chequeCount[cheque.bearer]-=1;\n        address fallbackAccount = trustedAccount[cheque.drawer];\n        deposits[fallbackAccount] += cheque.amount;  // Add cheque amount to trusted account deposit balance\n        emit Void(cheque.drawer, cheque.auditor, chequeID);\n        emit Transfer(cheque.bearer, fallbackAccount, chequeID);\n    }\n    function transfer(address to, uint256 chequeID) public {\n        Cheque storage cheque = cheques[chequeID];\n        require(cheque.bearer==msg.sender, \"Only cheque owner can transfer\");\n        require(cheque.transferable, \"Cheque not transferable\");\n        cheque.bearer = to;\n        emit Transfer(msg.sender, to, chequeID);\n    }\n\n    function acceptAuditor(address auditor) public returns (bool){  // User will set this \n        userAuditor[msg.sender][auditor] = true;\n        if (auditorUser[auditor][msg.sender]){\n            acceptedAuditorUsers[auditor].push(msg.sender);\n            acceptedUserAuditors[msg.sender].push(auditor);\n        }\n        emit AcceptAuditor(msg.sender, auditor);\n        return true;\n    }\n    function acceptUser(address drawer) public returns (bool){  // Auditor will set this \n        auditorUser[msg.sender][drawer] = true;\n        if (userAuditor[drawer][msg.sender]){\n            acceptedUserAuditors[drawer].push(msg.sender);\n            acceptedAuditorUsers[msg.sender].push(drawer);\n        }\n        emit AcceptUser(msg.sender, drawer);\n        return true;\n    }\n    function setAllowedDuration(uint256 duration) external {  // Auditor will set this\n        auditorDurations[msg.sender][duration] = true;\n    }\n    function setTrustedAccount(address account) external {\n        require((lastTrustedChange[msg.sender] + trustedAccountCooldown)<block.timestamp, \"Can only change trusted account once every 180 days\");\n        trustedAccount[msg.sender] = account;\n        lastTrustedChange[msg.sender] = block.timestamp;\n    }\n\n\n    function chequeDrawer(uint256 chequeId) external view returns (address) {\n        return cheques[chequeId].drawer;\n    }\n    function chequeRecipient(uint256 chequeId) external view returns (address) {\n        return cheques[chequeId].recipient;\n    }\n    function ownerOf(uint256 chequeId) external view returns(address) {\n        return cheques[chequeId].bearer;\n    }\n    function chequeAuditor(uint256 chequeId) external view returns (address) {\n        return cheques[chequeId].auditor;\n    } \n    function chequeAmount(uint256 chequeId) external view returns (uint256) {\n        return cheques[chequeId].amount;\n    }\n    function chequeExpiry(uint256 chequeId) external view returns (uint256) {\n        return cheques[chequeId].expiry;\n    }\n    function chequeVoided(uint256 chequeId) external view returns (bool) {\n        return cheques[chequeId].voided;\n    }\n    function chequeTransferable(uint256 chequeId) external view returns (bool) {\n        return cheques[chequeId].transferable;\n    }\n    function getAcceptedUserAuditors(address _address) external view returns (address[] memory){\n        return acceptedUserAuditors[_address];\n    }\n    function getAcceptedAuditorUsers(address _address) external view returns (address[] memory){\n        return acceptedAuditorUsers[_address];\n    }\n}",
  "sourcePath": "/Users/alexa/PycharmProjects/CryptoCheque/src/contracts/dCheque.sol",
  "compiler": {
    "name": "solc",
    "version": "0.8.15+commit.e14f2714.Emscripten.clang"
  },
  "schemaVersion": "3.4.4",
  "updatedAt": "2022-08-04T21:34:27.890Z",
  "devdoc": {
    "kind": "dev",
    "methods": {},
    "version": 1
  },
  "userdoc": {
    "kind": "user",
    "methods": {},
    "version": 1
  }
}