{
  "contractName": "dCheque",
  "abi": [
    {
      "inputs": [
        {
          "internalType": "uint256",
          "name": "_trustedAccountCooldown",
          "type": "uint256"
        }
      ],
      "stateMutability": "nonpayable",
      "type": "constructor"
    },
    {
      "anonymous": false,
      "inputs": [
        {
          "indexed": true,
          "internalType": "address",
          "name": "user",
          "type": "address"
        },
        {
          "indexed": true,
          "internalType": "address",
          "name": "auditor",
          "type": "address"
        }
      ],
      "name": "AcceptAuditor",
      "type": "event"
    },
    {
      "anonymous": false,
      "inputs": [
        {
          "indexed": true,
          "internalType": "address",
          "name": "auditor",
          "type": "address"
        },
        {
          "indexed": true,
          "internalType": "address",
          "name": "user",
          "type": "address"
        }
      ],
      "name": "AcceptUser",
      "type": "event"
    },
    {
      "anonymous": false,
      "inputs": [
        {
          "indexed": true,
          "internalType": "address",
          "name": "owner",
          "type": "address"
        },
        {
          "indexed": true,
          "internalType": "address",
          "name": "approved",
          "type": "address"
        },
        {
          "indexed": true,
          "internalType": "uint256",
          "name": "tokenId",
          "type": "uint256"
        }
      ],
      "name": "Approval",
      "type": "event"
    },
    {
      "anonymous": false,
      "inputs": [
        {
          "indexed": true,
          "internalType": "address",
          "name": "owner",
          "type": "address"
        },
        {
          "indexed": true,
          "internalType": "address",
          "name": "operator",
          "type": "address"
        },
        {
          "indexed": false,
          "internalType": "bool",
          "name": "approved",
          "type": "bool"
        }
      ],
      "name": "ApprovalForAll",
      "type": "event"
    },
    {
      "anonymous": false,
      "inputs": [
        {
          "indexed": true,
          "internalType": "address",
          "name": "bearer",
          "type": "address"
        },
        {
          "indexed": true,
          "internalType": "uint256",
          "name": "chequeID",
          "type": "uint256"
        }
      ],
      "name": "Cash",
      "type": "event"
    },
    {
      "anonymous": false,
      "inputs": [
        {
          "indexed": false,
          "internalType": "contract IERC20",
          "name": "_token",
          "type": "address"
        },
        {
          "indexed": true,
          "internalType": "address",
          "name": "to",
          "type": "address"
        },
        {
          "indexed": false,
          "internalType": "uint256",
          "name": "amount",
          "type": "uint256"
        }
      ],
      "name": "Deposit",
      "type": "event"
    },
    {
      "anonymous": false,
      "inputs": [
        {
          "indexed": true,
          "internalType": "address",
          "name": "previousOwner",
          "type": "address"
        },
        {
          "indexed": true,
          "internalType": "address",
          "name": "newOwner",
          "type": "address"
        }
      ],
      "name": "OwnershipTransferred",
      "type": "event"
    },
    {
      "anonymous": false,
      "inputs": [
        {
          "indexed": false,
          "internalType": "contract IERC20",
          "name": "_token",
          "type": "address"
        },
        {
          "indexed": false,
          "internalType": "uint256",
          "name": "amount",
          "type": "uint256"
        }
      ],
      "name": "SetProtocolFee",
      "type": "event"
    },
    {
      "anonymous": false,
      "inputs": [
        {
          "indexed": true,
          "internalType": "address",
          "name": "from",
          "type": "address"
        },
        {
          "indexed": true,
          "internalType": "address",
          "name": "to",
          "type": "address"
        },
        {
          "indexed": true,
          "internalType": "uint256",
          "name": "tokenId",
          "type": "uint256"
        }
      ],
      "name": "Transfer",
      "type": "event"
    },
    {
      "anonymous": false,
      "inputs": [
        {
          "indexed": true,
          "internalType": "uint256",
          "name": "chequeID",
          "type": "uint256"
        }
      ],
      "name": "Void",
      "type": "event"
    },
    {
      "anonymous": false,
      "inputs": [
        {
          "indexed": true,
          "internalType": "address",
          "name": "_address",
          "type": "address"
        },
        {
          "indexed": false,
          "internalType": "uint256",
          "name": "amount",
          "type": "uint256"
        }
      ],
      "name": "Withdraw",
      "type": "event"
    },
    {
      "inputs": [
        {
          "internalType": "address",
          "name": "",
          "type": "address"
        },
        {
          "internalType": "uint256",
          "name": "",
          "type": "uint256"
        }
      ],
      "name": "acceptedAuditorUsers",
      "outputs": [
        {
          "internalType": "address",
          "name": "",
          "type": "address"
        }
      ],
      "stateMutability": "view",
      "type": "function"
    },
    {
      "inputs": [
        {
          "internalType": "address",
          "name": "",
          "type": "address"
        },
        {
          "internalType": "uint256",
          "name": "",
          "type": "uint256"
        }
      ],
      "name": "acceptedUserAuditors",
      "outputs": [
        {
          "internalType": "address",
          "name": "",
          "type": "address"
        }
      ],
      "stateMutability": "view",
      "type": "function"
    },
    {
      "inputs": [
        {
          "internalType": "address",
          "name": "to",
          "type": "address"
        },
        {
          "internalType": "uint256",
          "name": "tokenId",
          "type": "uint256"
        }
      ],
      "name": "approve",
      "outputs": [],
      "stateMutability": "nonpayable",
      "type": "function"
    },
    {
      "inputs": [
        {
          "internalType": "address",
          "name": "",
          "type": "address"
        },
        {
          "internalType": "uint256",
          "name": "",
          "type": "uint256"
        }
      ],
      "name": "auditorDurations",
      "outputs": [
        {
          "internalType": "bool",
          "name": "",
          "type": "bool"
        }
      ],
      "stateMutability": "view",
      "type": "function"
    },
    {
      "inputs": [
        {
          "internalType": "address",
          "name": "",
          "type": "address"
        },
        {
          "internalType": "address",
          "name": "",
          "type": "address"
        }
      ],
      "name": "auditorUser",
      "outputs": [
        {
          "internalType": "bool",
          "name": "",
          "type": "bool"
        }
      ],
      "stateMutability": "view",
      "type": "function"
    },
    {
      "inputs": [
        {
          "internalType": "address",
          "name": "owner",
          "type": "address"
        }
      ],
      "name": "balanceOf",
      "outputs": [
        {
          "internalType": "uint256",
          "name": "",
          "type": "uint256"
        }
      ],
      "stateMutability": "view",
      "type": "function"
    },
    {
      "inputs": [
        {
          "internalType": "uint256",
          "name": "",
          "type": "uint256"
        }
      ],
      "name": "chequeData",
      "outputs": [
        {
          "internalType": "uint256",
          "name": "amount",
          "type": "uint256"
        },
        {
          "internalType": "uint256",
          "name": "created",
          "type": "uint256"
        },
        {
          "internalType": "uint256",
          "name": "expiry",
          "type": "uint256"
        },
        {
          "internalType": "contract IERC20",
          "name": "token",
          "type": "address"
        },
        {
          "internalType": "address",
          "name": "drawer",
          "type": "address"
        },
        {
          "internalType": "address",
          "name": "recipient",
          "type": "address"
        },
        {
          "internalType": "address",
          "name": "auditor",
          "type": "address"
        }
      ],
      "stateMutability": "view",
      "type": "function"
    },
    {
      "inputs": [
        {
          "internalType": "address",
          "name": "",
          "type": "address"
        },
        {
          "internalType": "contract IERC20",
          "name": "",
          "type": "address"
        }
      ],
      "name": "deposits",
      "outputs": [
        {
          "internalType": "uint256",
          "name": "",
          "type": "uint256"
        }
      ],
      "stateMutability": "view",
      "type": "function"
    },
    {
      "inputs": [
        {
          "internalType": "uint256",
          "name": "tokenId",
          "type": "uint256"
        }
      ],
      "name": "getApproved",
      "outputs": [
        {
          "internalType": "address",
          "name": "",
          "type": "address"
        }
      ],
      "stateMutability": "view",
      "type": "function"
    },
    {
      "inputs": [
        {
          "internalType": "address",
          "name": "owner",
          "type": "address"
        },
        {
          "internalType": "address",
          "name": "operator",
          "type": "address"
        }
      ],
      "name": "isApprovedForAll",
      "outputs": [
        {
          "internalType": "bool",
          "name": "",
          "type": "bool"
        }
      ],
      "stateMutability": "view",
      "type": "function"
    },
    {
      "inputs": [
        {
          "internalType": "address",
          "name": "",
          "type": "address"
        }
      ],
      "name": "lastTrustedChange",
      "outputs": [
        {
          "internalType": "uint256",
          "name": "",
          "type": "uint256"
        }
      ],
      "stateMutability": "view",
      "type": "function"
    },
    {
      "inputs": [],
      "name": "name",
      "outputs": [
        {
          "internalType": "string",
          "name": "",
          "type": "string"
        }
      ],
      "stateMutability": "view",
      "type": "function"
    },
    {
      "inputs": [],
      "name": "owner",
      "outputs": [
        {
          "internalType": "address",
          "name": "",
          "type": "address"
        }
      ],
      "stateMutability": "view",
      "type": "function"
    },
    {
      "inputs": [
        {
          "internalType": "uint256",
          "name": "tokenId",
          "type": "uint256"
        }
      ],
      "name": "ownerOf",
      "outputs": [
        {
          "internalType": "address",
          "name": "",
          "type": "address"
        }
      ],
      "stateMutability": "view",
      "type": "function"
    },
    {
      "inputs": [
        {
          "internalType": "contract IERC20",
          "name": "",
          "type": "address"
        }
      ],
      "name": "protocolFee",
      "outputs": [
        {
          "internalType": "uint256",
          "name": "",
          "type": "uint256"
        }
      ],
      "stateMutability": "view",
      "type": "function"
    },
    {
      "inputs": [
        {
          "internalType": "contract IERC20",
          "name": "",
          "type": "address"
        }
      ],
      "name": "protocolReserve",
      "outputs": [
        {
          "internalType": "uint256",
          "name": "",
          "type": "uint256"
        }
      ],
      "stateMutability": "view",
      "type": "function"
    },
    {
      "inputs": [],
      "name": "renounceOwnership",
      "outputs": [],
      "stateMutability": "nonpayable",
      "type": "function"
    },
    {
      "inputs": [
        {
          "internalType": "address",
          "name": "from",
          "type": "address"
        },
        {
          "internalType": "address",
          "name": "to",
          "type": "address"
        },
        {
          "internalType": "uint256",
          "name": "tokenId",
          "type": "uint256"
        }
      ],
      "name": "safeTransferFrom",
      "outputs": [],
      "stateMutability": "nonpayable",
      "type": "function"
    },
    {
      "inputs": [
        {
          "internalType": "address",
          "name": "from",
          "type": "address"
        },
        {
          "internalType": "address",
          "name": "to",
          "type": "address"
        },
        {
          "internalType": "uint256",
          "name": "tokenId",
          "type": "uint256"
        },
        {
          "internalType": "bytes",
          "name": "data",
          "type": "bytes"
        }
      ],
      "name": "safeTransferFrom",
      "outputs": [],
      "stateMutability": "nonpayable",
      "type": "function"
    },
    {
      "inputs": [
        {
          "internalType": "address",
          "name": "operator",
          "type": "address"
        },
        {
          "internalType": "bool",
          "name": "approved",
          "type": "bool"
        }
      ],
      "name": "setApprovalForAll",
      "outputs": [],
      "stateMutability": "nonpayable",
      "type": "function"
    },
    {
      "inputs": [
        {
          "internalType": "bytes4",
          "name": "interfaceId",
          "type": "bytes4"
        }
      ],
      "name": "supportsInterface",
      "outputs": [
        {
          "internalType": "bool",
          "name": "",
          "type": "bool"
        }
      ],
      "stateMutability": "view",
      "type": "function"
    },
    {
      "inputs": [],
      "name": "symbol",
      "outputs": [
        {
          "internalType": "string",
          "name": "",
          "type": "string"
        }
      ],
      "stateMutability": "view",
      "type": "function"
    },
    {
      "inputs": [
        {
          "internalType": "uint256",
          "name": "tokenId",
          "type": "uint256"
        }
      ],
      "name": "tokenURI",
      "outputs": [
        {
          "internalType": "string",
          "name": "",
          "type": "string"
        }
      ],
      "stateMutability": "view",
      "type": "function"
    },
    {
      "inputs": [
        {
          "internalType": "address",
          "name": "from",
          "type": "address"
        },
        {
          "internalType": "address",
          "name": "to",
          "type": "address"
        },
        {
          "internalType": "uint256",
          "name": "tokenId",
          "type": "uint256"
        }
      ],
      "name": "transferFrom",
      "outputs": [],
      "stateMutability": "nonpayable",
      "type": "function"
    },
    {
      "inputs": [
        {
          "internalType": "address",
          "name": "newOwner",
          "type": "address"
        }
      ],
      "name": "transferOwnership",
      "outputs": [],
      "stateMutability": "nonpayable",
      "type": "function"
    },
    {
      "inputs": [
        {
          "internalType": "address",
          "name": "",
          "type": "address"
        }
      ],
      "name": "trustedAccount",
      "outputs": [
        {
          "internalType": "address",
          "name": "",
          "type": "address"
        }
      ],
      "stateMutability": "view",
      "type": "function"
    },
    {
      "inputs": [],
      "name": "trustedAccountCooldown",
      "outputs": [
        {
          "internalType": "uint256",
          "name": "",
          "type": "uint256"
        }
      ],
      "stateMutability": "view",
      "type": "function"
    },
    {
      "inputs": [
        {
          "internalType": "address",
          "name": "",
          "type": "address"
        },
        {
          "internalType": "address",
          "name": "",
          "type": "address"
        }
      ],
      "name": "userAuditor",
      "outputs": [
        {
          "internalType": "bool",
          "name": "",
          "type": "bool"
        }
      ],
      "stateMutability": "view",
      "type": "function"
    },
    {
      "inputs": [
        {
          "internalType": "contract IERC20",
          "name": "_token",
          "type": "address"
        },
        {
          "internalType": "uint256",
          "name": "_protocolFee",
          "type": "uint256"
        }
      ],
      "name": "setProtocolFee",
      "outputs": [],
      "stateMutability": "nonpayable",
      "type": "function"
    },
    {
      "inputs": [
        {
          "internalType": "contract IERC20",
          "name": "_token",
          "type": "address"
        },
        {
          "internalType": "uint256",
          "name": "_amount",
          "type": "uint256"
        }
      ],
      "name": "withdraw",
      "outputs": [],
      "stateMutability": "nonpayable",
      "type": "function"
    },
    {
      "inputs": [
        {
          "internalType": "contract IERC20",
          "name": "_token",
          "type": "address"
        },
        {
          "internalType": "uint256",
          "name": "_amount",
          "type": "uint256"
        }
      ],
      "name": "deposit",
      "outputs": [
        {
          "internalType": "bool",
          "name": "",
          "type": "bool"
        }
      ],
      "stateMutability": "nonpayable",
      "type": "function"
    },
    {
      "inputs": [
        {
          "internalType": "contract IERC20",
          "name": "_token",
          "type": "address"
        },
        {
          "internalType": "uint256",
          "name": "_amount",
          "type": "uint256"
        },
        {
          "internalType": "address",
          "name": "_address",
          "type": "address"
        }
      ],
      "name": "deposit",
      "outputs": [
        {
          "internalType": "bool",
          "name": "",
          "type": "bool"
        }
      ],
      "stateMutability": "nonpayable",
      "type": "function"
    },
    {
      "inputs": [
        {
          "internalType": "contract IERC20",
          "name": "_token",
          "type": "address"
        },
        {
          "internalType": "address",
          "name": "_to",
          "type": "address"
        },
        {
          "internalType": "uint256",
          "name": "_amount",
          "type": "uint256"
        }
      ],
      "name": "directTransfer",
      "outputs": [],
      "stateMutability": "nonpayable",
      "type": "function"
    },
    {
      "inputs": [
        {
          "internalType": "contract IERC20",
          "name": "_token",
          "type": "address"
        },
        {
          "internalType": "uint256",
          "name": "amount",
          "type": "uint256"
        },
        {
          "internalType": "uint256",
          "name": "duration",
          "type": "uint256"
        },
        {
          "internalType": "address",
          "name": "auditor",
          "type": "address"
        },
        {
          "internalType": "address",
          "name": "recipient",
          "type": "address"
        }
      ],
      "name": "writeCheque",
      "outputs": [],
      "stateMutability": "nonpayable",
      "type": "function"
    },
    {
      "inputs": [
        {
          "internalType": "uint256",
          "name": "chequeID",
          "type": "uint256"
        }
      ],
      "name": "cashCheque",
      "outputs": [],
      "stateMutability": "nonpayable",
      "type": "function"
    },
    {
      "inputs": [
        {
          "internalType": "uint256",
          "name": "chequeID",
          "type": "uint256"
        }
      ],
      "name": "voidCheque",
      "outputs": [],
      "stateMutability": "nonpayable",
      "type": "function"
    },
    {
      "inputs": [
        {
          "internalType": "uint256",
          "name": "chequeID",
          "type": "uint256"
        }
      ],
      "name": "voidRescueCheque",
      "outputs": [],
      "stateMutability": "nonpayable",
      "type": "function"
    },
    {
      "inputs": [
        {
          "internalType": "address",
          "name": "to",
          "type": "address"
        },
        {
          "internalType": "uint256",
          "name": "chequeID",
          "type": "uint256"
        }
      ],
      "name": "transfer",
      "outputs": [],
      "stateMutability": "nonpayable",
      "type": "function"
    },
    {
      "inputs": [
        {
          "internalType": "address",
          "name": "auditor",
          "type": "address"
        }
      ],
      "name": "acceptAuditor",
      "outputs": [
        {
          "internalType": "bool",
          "name": "",
          "type": "bool"
        }
      ],
      "stateMutability": "nonpayable",
      "type": "function"
    },
    {
      "inputs": [
        {
          "internalType": "address",
          "name": "drawer",
          "type": "address"
        }
      ],
      "name": "acceptUser",
      "outputs": [
        {
          "internalType": "bool",
          "name": "",
          "type": "bool"
        }
      ],
      "stateMutability": "nonpayable",
      "type": "function"
    },
    {
      "inputs": [
        {
          "internalType": "uint256",
          "name": "duration",
          "type": "uint256"
        }
      ],
      "name": "setAllowedDuration",
      "outputs": [],
      "stateMutability": "nonpayable",
      "type": "function"
    },
    {
      "inputs": [
        {
          "internalType": "address",
          "name": "account",
          "type": "address"
        }
      ],
      "name": "setTrustedAccount",
      "outputs": [],
      "stateMutability": "nonpayable",
      "type": "function"
    },
    {
      "inputs": [
        {
          "internalType": "uint256",
          "name": "chequeId",
          "type": "uint256"
        }
      ],
      "name": "chequeDrawer",
      "outputs": [
        {
          "internalType": "address",
          "name": "",
          "type": "address"
        }
      ],
      "stateMutability": "view",
      "type": "function"
    },
    {
      "inputs": [
        {
          "internalType": "uint256",
          "name": "chequeId",
          "type": "uint256"
        }
      ],
      "name": "chequeRecipient",
      "outputs": [
        {
          "internalType": "address",
          "name": "",
          "type": "address"
        }
      ],
      "stateMutability": "view",
      "type": "function"
    },
    {
      "inputs": [
        {
          "internalType": "uint256",
          "name": "chequeId",
          "type": "uint256"
        }
      ],
      "name": "chequeAuditor",
      "outputs": [
        {
          "internalType": "address",
          "name": "",
          "type": "address"
        }
      ],
      "stateMutability": "view",
      "type": "function"
    },
    {
      "inputs": [
        {
          "internalType": "uint256",
          "name": "chequeId",
          "type": "uint256"
        }
      ],
      "name": "chequeAmount",
      "outputs": [
        {
          "internalType": "uint256",
          "name": "",
          "type": "uint256"
        }
      ],
      "stateMutability": "view",
      "type": "function"
    },
    {
      "inputs": [
        {
          "internalType": "uint256",
          "name": "chequeId",
          "type": "uint256"
        }
      ],
      "name": "chequeExpiry",
      "outputs": [
        {
          "internalType": "uint256",
          "name": "",
          "type": "uint256"
        }
      ],
      "stateMutability": "view",
      "type": "function"
    },
    {
      "inputs": [
        {
          "internalType": "uint256",
          "name": "chequeId",
          "type": "uint256"
        }
      ],
      "name": "chequeCreated",
      "outputs": [
        {
          "internalType": "uint256",
          "name": "",
          "type": "uint256"
        }
      ],
      "stateMutability": "view",
      "type": "function"
    },
    {
      "inputs": [
        {
          "internalType": "address",
          "name": "_address",
          "type": "address"
        }
      ],
      "name": "getAcceptedUserAuditors",
      "outputs": [
        {
          "internalType": "address[]",
          "name": "",
          "type": "address[]"
        }
      ],
      "stateMutability": "view",
      "type": "function"
    },
    {
      "inputs": [
        {
          "internalType": "address",
          "name": "_address",
          "type": "address"
        }
      ],
      "name": "getAcceptedAuditorUsers",
      "outputs": [
        {
          "internalType": "address[]",
          "name": "",
          "type": "address[]"
        }
      ],
      "stateMutability": "view",
      "type": "function"
    }
  ],
  "bytecode": "0x60806040523480156200001157600080fd5b50604051620063e7380380620063e7833981810160405281019062000037919062000205565b6040518060400160405280600781526020017f64436865717565000000000000000000000000000000000000000000000000008152506040518060400160405280600481526020017f64434851000000000000000000000000000000000000000000000000000000008152508160009081620000b49190620004a7565b508060019081620000c69190620004a7565b505050620000e9620000dd620000f760201b60201c565b620000ff60201b60201c565b80600e81905550506200058e565b600033905090565b6000600660009054906101000a900473ffffffffffffffffffffffffffffffffffffffff16905081600660006101000a81548173ffffffffffffffffffffffffffffffffffffffff021916908373ffffffffffffffffffffffffffffffffffffffff1602179055508173ffffffffffffffffffffffffffffffffffffffff168173ffffffffffffffffffffffffffffffffffffffff167f8be0079c531659141344cd1fd0a4f28419497f9722a3daafe3b4186f6b6457e060405160405180910390a35050565b600080fd5b6000819050919050565b620001df81620001ca565b8114620001eb57600080fd5b50565b600081519050620001ff81620001d4565b92915050565b6000602082840312156200021e576200021d620001c5565b5b60006200022e84828501620001ee565b91505092915050565b600081519050919050565b7f4e487b7100000000000000000000000000000000000000000000000000000000600052604160045260246000fd5b7f4e487b7100000000000000000000000000000000000000000000000000000000600052602260045260246000fd5b60006002820490506001821680620002b957607f821691505b602082108103620002cf57620002ce62000271565b5b50919050565b60008190508160005260206000209050919050565b60006020601f8301049050919050565b600082821b905092915050565b600060088302620003397fffffffffffffffffffffffffffffffffffffffffffffffffffffffffffffffff82620002fa565b620003458683620002fa565b95508019841693508086168417925050509392505050565b6000819050919050565b600062000388620003826200037c84620001ca565b6200035d565b620001ca565b9050919050565b6000819050919050565b620003a48362000367565b620003bc620003b3826200038f565b84845462000307565b825550505050565b600090565b620003d3620003c4565b620003e081848462000399565b505050565b5b818110156200040857620003fc600082620003c9565b600181019050620003e6565b5050565b601f82111562000457576200042181620002d5565b6200042c84620002ea565b810160208510156200043c578190505b620004546200044b85620002ea565b830182620003e5565b50505b505050565b600082821c905092915050565b60006200047c600019846008026200045c565b1980831691505092915050565b600062000497838362000469565b9150826002028217905092915050565b620004b28262000237565b67ffffffffffffffff811115620004ce57620004cd62000242565b5b620004da8254620002a0565b620004e78282856200040c565b600060209050601f8311600181146200051f57600084156200050a578287015190505b62000516858262000489565b86555062000586565b601f1984166200052f86620002d5565b60005b82811015620005595784890151825560018201915060208501945060208101905062000532565b8683101562000579578489015162000575601f89168262000469565b8355505b6001600288020188555050505b505050505050565b615e49806200059e6000396000f3fe608060405234801561001057600080fd5b50600436106102d65760003560e01c806390090fe611610182578063c75db0da116100e9578063e985e9c5116100a2578063f45346dc1161007c578063f45346dc146109e7578063f83d179114610a17578063fc9a7cfd14610a33578063ff9081a814610a63576102d6565b8063e985e9c51461097f578063f2fde38b146109af578063f3fef3a3146109cb576102d6565b8063c75db0da1461086d578063c87b56dd146108a3578063cb3b5a26146108d3578063d7ad71eb146108ef578063e50c42b01461091f578063e5e8343a1461094f576102d6565b8063b5b3ca2c1161013b578063b5b3ca2c14610775578063b62b31e414610791578063b88d4fde146107c1578063bb2d42b9146107dd578063bc3ee7171461080d578063c1d6fa081461083d576102d6565b806390090fe6146106a357806395d89b41146106d357806396753bec146106f1578063a22cb46514610721578063a74d67011461073d578063a9059cbb14610759576102d6565b806343707fc01161024157806370a08231116101fa57806386cb5e07116101d457806386cb5e07146106075780638b944423146106375780638da5cb5b146106555780638f601f6614610673576102d6565b806370a082311461059d578063715018a6146105cd57806376696e80146105d7576102d6565b806343707fc0146104b957806345fc5443146104d55780634663b4dc1461050557806347e7ef2414610521578063584b22d1146105515780636352211e1461056d576102d6565b8063122229ed11610293578063122229ed146103d5578063133f65711461040557806322cb44331461043557806323b872dd146104655780632a5f290a1461048157806342842e0e1461049d576102d6565b806301ffc9a7146102db578063067893461461030b57806306fdde031461033b578063081812fc1461035957806308bdc24d14610389578063095ea7b3146103b9575b600080fd5b6102f560048036038101906102f09190614427565b610a93565b604051610302919061446f565b60405180910390f35b610325600480360381019061032091906144c0565b610b75565b60405161033291906144fc565b60405180910390f35b610343610b95565b60405161035091906145a7565b60405180910390f35b610373600480360381019061036e91906144c0565b610c27565b604051610380919061460a565b60405180910390f35b6103a3600480360381019061039e9190614651565b610c6d565b6040516103b0919061446f565b60405180910390f35b6103d360048036038101906103ce919061467e565b610ffa565b005b6103ef60048036038101906103ea9190614651565b611111565b6040516103fc919061477c565b60405180910390f35b61041f600480360381019061041a9190614651565b6111de565b60405161042c919061477c565b60405180910390f35b61044f600480360381019061044a919061467e565b6112ab565b60405161045c919061446f565b60405180910390f35b61047f600480360381019061047a919061479e565b6112da565b005b61049b6004803603810190610496919061482f565b61133a565b005b6104b760048036038101906104b2919061479e565b611a96565b005b6104d360048036038101906104ce91906144c0565b611ab6565b005b6104ef60048036038101906104ea91906144c0565b611b58565b6040516104fc919061460a565b60405180910390f35b61051f600480360381019061051a91906144c0565b611b98565b005b61053b600480360381019061053691906148aa565b611bac565b604051610548919061446f565b60405180910390f35b61056b600480360381019061056691906144c0565b611bca565b005b610587600480360381019061058291906144c0565b611c3d565b604051610594919061460a565b60405180910390f35b6105b760048036038101906105b29190614651565b611cee565b6040516105c491906144fc565b60405180910390f35b6105d5611da5565b005b6105f160048036038101906105ec9190614651565b611db9565b6040516105fe91906144fc565b60405180910390f35b610621600480360381019061061c91906144c0565b611dd1565b60405161062e919061460a565b60405180910390f35b61063f611e11565b60405161064c91906144fc565b60405180910390f35b61065d611e17565b60405161066a919061460a565b60405180910390f35b61068d600480360381019061068891906148ea565b611e41565b60405161069a91906144fc565b60405180910390f35b6106bd60048036038101906106b891906144c0565b611e66565b6040516106ca919061460a565b60405180910390f35b6106db611ea6565b6040516106e891906145a7565b60405180910390f35b61070b6004803603810190610706919061492a565b611f38565b604051610718919061446f565b60405180910390f35b61073b60048036038101906107369190614996565b611f67565b005b610757600480360381019061075291906144c0565b611f7d565b005b610773600480360381019061076e919061467e565b612176565b005b61078f600480360381019061078a91906148aa565b6122bd565b005b6107ab60048036038101906107a691906149d6565b612346565b6040516107b891906144fc565b60405180910390f35b6107db60048036038101906107d69190614b38565b61235e565b005b6107f760048036038101906107f2919061492a565b6123c0565b604051610804919061446f565b60405180910390f35b61082760048036038101906108229190614651565b6123ef565b604051610834919061460a565b60405180910390f35b6108576004803603810190610852919061467e565b612422565b604051610864919061460a565b60405180910390f35b610887600480360381019061088291906144c0565b612470565b60405161089a9796959493929190614c1a565b60405180910390f35b6108bd60048036038101906108b891906144c0565b612532565b6040516108ca91906145a7565b60405180910390f35b6108ed60048036038101906108e89190614651565b61259a565b005b610909600480360381019061090491906144c0565b612702565b60405161091691906144fc565b60405180910390f35b610939600480360381019061093491906144c0565b612722565b60405161094691906144fc565b60405180910390f35b6109696004803603810190610964919061467e565b612742565b604051610976919061460a565b60405180910390f35b6109996004803603810190610994919061492a565b612790565b6040516109a6919061446f565b60405180910390f35b6109c960048036038101906109c49190614651565b612824565b005b6109e560048036038101906109e091906148aa565b6128a7565b005b610a0160048036038101906109fc9190614c89565b612aac565b604051610a0e919061446f565b60405180910390f35b610a316004803603810190610a2c9190614cdc565b612ac4565b005b610a4d6004803603810190610a489190614651565b612cb2565b604051610a5a919061446f565b60405180910390f35b610a7d6004803603810190610a7891906149d6565b61303f565b604051610a8a91906144fc565b60405180910390f35b60007f80ac58cd000000000000000000000000000000000000000000000000000000007bffffffffffffffffffffffffffffffffffffffffffffffffffffffff1916827bffffffffffffffffffffffffffffffffffffffffffffffffffffffff19161480610b5e57507f5b5e139f000000000000000000000000000000000000000000000000000000007bffffffffffffffffffffffffffffffffffffffffffffffffffffffff1916827bffffffffffffffffffffffffffffffffffffffffffffffffffffffff1916145b80610b6e5750610b6d82613057565b5b9050919050565b6000600f6000838152602001908152602001600020600101549050919050565b606060008054610ba490614d5e565b80601f0160208091040260200160405190810160405280929190818152602001828054610bd090614d5e565b8015610c1d5780601f10610bf257610100808354040283529160200191610c1d565b820191906000526020600020905b815481529060010190602001808311610c0057829003601f168201915b5050505050905090565b6000610c32826130c1565b6004600083815260200190815260200160002060009054906101000a900473ffffffffffffffffffffffffffffffffffffffff169050919050565b600060096000610c7b61310c565b73ffffffffffffffffffffffffffffffffffffffff1673ffffffffffffffffffffffffffffffffffffffff16815260200190815260200160002060008373ffffffffffffffffffffffffffffffffffffffff1673ffffffffffffffffffffffffffffffffffffffff16815260200190815260200160002060009054906101000a900460ff1615610d0e5760019050610ff5565b600160096000610d1c61310c565b73ffffffffffffffffffffffffffffffffffffffff1673ffffffffffffffffffffffffffffffffffffffff16815260200190815260200160002060008473ffffffffffffffffffffffffffffffffffffffff1673ffffffffffffffffffffffffffffffffffffffff16815260200190815260200160002060006101000a81548160ff021916908315150217905550600760008373ffffffffffffffffffffffffffffffffffffffff1673ffffffffffffffffffffffffffffffffffffffff1681526020019081526020016000206000610df361310c565b73ffffffffffffffffffffffffffffffffffffffff1673ffffffffffffffffffffffffffffffffffffffff16815260200190815260200160002060009054906101000a900460ff1615610f8f57600860008373ffffffffffffffffffffffffffffffffffffffff1673ffffffffffffffffffffffffffffffffffffffff168152602001908152602001600020610e8761310c565b9080600181540180825580915050600190039060005260206000200160009091909190916101000a81548173ffffffffffffffffffffffffffffffffffffffff021916908373ffffffffffffffffffffffffffffffffffffffff160217905550600a6000610ef361310c565b73ffffffffffffffffffffffffffffffffffffffff1673ffffffffffffffffffffffffffffffffffffffff168152602001908152602001600020829080600181540180825580915050600190039060005260206000200160009091909190916101000a81548173ffffffffffffffffffffffffffffffffffffffff021916908373ffffffffffffffffffffffffffffffffffffffff1602179055505b8173ffffffffffffffffffffffffffffffffffffffff16610fae61310c565b73ffffffffffffffffffffffffffffffffffffffff167f078dc5664c64160be6b3015282df84a6fba4f7887007587d8b836aada89801c760405160405180910390a3600190505b919050565b600061100582611c3d565b90508073ffffffffffffffffffffffffffffffffffffffff168373ffffffffffffffffffffffffffffffffffffffff1603611075576040517f08c379a000000000000000000000000000000000000000000000000000000000815260040161106c90614e01565b60405180910390fd5b8073ffffffffffffffffffffffffffffffffffffffff1661109461310c565b73ffffffffffffffffffffffffffffffffffffffff1614806110c357506110c2816110bd61310c565b612790565b5b611102576040517f08c379a00000000000000000000000000000000000000000000000000000000081526004016110f990614e93565b60405180910390fd5b61110c8383613114565b505050565b6060600860008373ffffffffffffffffffffffffffffffffffffffff1673ffffffffffffffffffffffffffffffffffffffff1681526020019081526020016000208054806020026020016040519081016040528092919081815260200182805480156111d257602002820191906000526020600020905b8160009054906101000a900473ffffffffffffffffffffffffffffffffffffffff1673ffffffffffffffffffffffffffffffffffffffff1681526020019060010190808311611188575b50505050509050919050565b6060600a60008373ffffffffffffffffffffffffffffffffffffffff1673ffffffffffffffffffffffffffffffffffffffff16815260200190815260200160002080548060200260200160405190810160405280929190818152602001828054801561129f57602002820191906000526020600020905b8160009054906101000a900473ffffffffffffffffffffffffffffffffffffffff1673ffffffffffffffffffffffffffffffffffffffff1681526020019060010190808311611255575b50505050509050919050565b600b6020528160005260406000206020528060005260406000206000915091509054906101000a900460ff1681565b6112eb6112e561310c565b826131cd565b61132a576040517f08c379a000000000000000000000000000000000000000000000000000000000815260040161132190614f25565b60405180910390fd5b611335838383613262565b505050565b8484838584836010600061134c61310c565b73ffffffffffffffffffffffffffffffffffffffff1673ffffffffffffffffffffffffffffffffffffffff16815260200190815260200160002060008773ffffffffffffffffffffffffffffffffffffffff1673ffffffffffffffffffffffffffffffffffffffff168152602001908152602001600020541015611405576040517f08c379a00000000000000000000000000000000000000000000000000000000081526004016113fc90614f91565b60405180910390fd5b6007600061141161310c565b73ffffffffffffffffffffffffffffffffffffffff1673ffffffffffffffffffffffffffffffffffffffff16815260200190815260200160002060008473ffffffffffffffffffffffffffffffffffffffff1673ffffffffffffffffffffffffffffffffffffffff16815260200190815260200160002060009054906101000a900460ff166114d5576040517f08c379a00000000000000000000000000000000000000000000000000000000081526004016114cc90614ffd565b60405180910390fd5b600960008473ffffffffffffffffffffffffffffffffffffffff1673ffffffffffffffffffffffffffffffffffffffff168152602001908152602001600020600061151e61310c565b73ffffffffffffffffffffffffffffffffffffffff1673ffffffffffffffffffffffffffffffffffffffff16815260200190815260200160002060009054906101000a900460ff166115a5576040517f08c379a000000000000000000000000000000000000000000000000000000000815260040161159c90615069565b60405180910390fd5b600960008473ffffffffffffffffffffffffffffffffffffffff1673ffffffffffffffffffffffffffffffffffffffff16815260200190815260200160002060008273ffffffffffffffffffffffffffffffffffffffff1673ffffffffffffffffffffffffffffffffffffffff16815260200190815260200160002060009054906101000a900460ff1661166e576040517f08c379a0000000000000000000000000000000000000000000000000000000008152600401611665906150d5565b60405180910390fd5b600760008273ffffffffffffffffffffffffffffffffffffffff1673ffffffffffffffffffffffffffffffffffffffff16815260200190815260200160002060008473ffffffffffffffffffffffffffffffffffffffff1673ffffffffffffffffffffffffffffffffffffffff16815260200190815260200160002060009054906101000a900460ff16611737576040517f08c379a000000000000000000000000000000000000000000000000000000000815260040161172e90615141565b60405180910390fd5b600b60008473ffffffffffffffffffffffffffffffffffffffff1673ffffffffffffffffffffffffffffffffffffffff168152602001908152602001600020600083815260200190815260200160002060009054906101000a900460ff166117d4576040517f08c379a00000000000000000000000000000000000000000000000000000000081526004016117cb906151ad565b60405180910390fd5b88601060006117e161310c565b73ffffffffffffffffffffffffffffffffffffffff1673ffffffffffffffffffffffffffffffffffffffff16815260200190815260200160002060008c73ffffffffffffffffffffffffffffffffffffffff1673ffffffffffffffffffffffffffffffffffffffff168152602001908152602001600020600082825461186791906151fc565b9250508190555061188161187961310c565b6011546134c8565b6040518060e001604052808a815260200142815260200189426118a49190615230565b81526020018b73ffffffffffffffffffffffffffffffffffffffff1681526020016118cd61310c565b73ffffffffffffffffffffffffffffffffffffffff1681526020018773ffffffffffffffffffffffffffffffffffffffff1681526020018873ffffffffffffffffffffffffffffffffffffffff16815250600f6000601154815260200190815260200160002060008201518160000155602082015181600101556040820151816002015560608201518160030160006101000a81548173ffffffffffffffffffffffffffffffffffffffff021916908373ffffffffffffffffffffffffffffffffffffffff16021790555060808201518160040160006101000a81548173ffffffffffffffffffffffffffffffffffffffff021916908373ffffffffffffffffffffffffffffffffffffffff16021790555060a08201518160050160006101000a81548173ffffffffffffffffffffffffffffffffffffffff021916908373ffffffffffffffffffffffffffffffffffffffff16021790555060c08201518160060160006101000a81548173ffffffffffffffffffffffffffffffffffffffff021916908373ffffffffffffffffffffffffffffffffffffffff160217905550905050600160116000828254611a839190615230565b9250508190555050505050505050505050565b611ab18383836040518060200160405280600081525061235e565b505050565b611b5581600c6000600f600086815260200190815260200160002060040160009054906101000a900473ffffffffffffffffffffffffffffffffffffffff1673ffffffffffffffffffffffffffffffffffffffff1673ffffffffffffffffffffffffffffffffffffffff16815260200190815260200160002060009054906101000a900473ffffffffffffffffffffffffffffffffffffffff166134e6565b50565b6000600f600083815260200190815260200160002060050160009054906101000a900473ffffffffffffffffffffffffffffffffffffffff169050919050565b611ba981611ba461310c565b6134e6565b50565b6000611bc083611bba61310c565b84613813565b6001905092915050565b6001600b6000611bd861310c565b73ffffffffffffffffffffffffffffffffffffffff1673ffffffffffffffffffffffffffffffffffffffff168152602001908152602001600020600083815260200190815260200160002060006101000a81548160ff02191690831515021790555050565b6000806002600084815260200190815260200160002060009054906101000a900473ffffffffffffffffffffffffffffffffffffffff169050600073ffffffffffffffffffffffffffffffffffffffff168173ffffffffffffffffffffffffffffffffffffffff1603611ce5576040517f08c379a0000000000000000000000000000000000000000000000000000000008152600401611cdc906152b0565b60405180910390fd5b80915050919050565b60008073ffffffffffffffffffffffffffffffffffffffff168273ffffffffffffffffffffffffffffffffffffffff1603611d5e576040517f08c379a0000000000000000000000000000000000000000000000000000000008152600401611d5590615342565b60405180910390fd5b600360008373ffffffffffffffffffffffffffffffffffffffff1673ffffffffffffffffffffffffffffffffffffffff168152602001908152602001600020549050919050565b611dad6139c7565b611db76000613a45565b565b600d6020528060005260406000206000915090505481565b6000600f600083815260200190815260200160002060060160009054906101000a900473ffffffffffffffffffffffffffffffffffffffff169050919050565b600e5481565b6000600660009054906101000a900473ffffffffffffffffffffffffffffffffffffffff16905090565b6010602052816000526040600020602052806000526040600020600091509150505481565b6000600f600083815260200190815260200160002060040160009054906101000a900473ffffffffffffffffffffffffffffffffffffffff169050919050565b606060018054611eb590614d5e565b80601f0160208091040260200160405190810160405280929190818152602001828054611ee190614d5e565b8015611f2e5780601f10611f0357610100808354040283529160200191611f2e565b820191906000526020600020905b815481529060010190602001808311611f1157829003601f168201915b5050505050905090565b60096020528160005260406000206020528060005260406000206000915091509054906101000a900460ff1681565b611f79611f7261310c565b8383613b0b565b5050565b6000600f60008381526020019081526020016000209050611fa5611f9f61310c565b836131cd565b611fe4576040517f08c379a0000000000000000000000000000000000000000000000000000000008152600401611fdb906153ae565b60405180910390fd5b4281600201541161202a576040517f08c379a00000000000000000000000000000000000000000000000000000000081526004016120219061541a565b60405180910390fd5b60008160030160009054906101000a900473ffffffffffffffffffffffffffffffffffffffff1673ffffffffffffffffffffffffffffffffffffffff166323b872dd3061207561310c565b85600001546040518463ffffffff1660e01b81526004016120989392919061543a565b6020604051808303816000875af11580156120b7573d6000803e3d6000fd5b505050506040513d601f19601f820116820180604052508101906120db9190615486565b90508061211d576040517f08c379a0000000000000000000000000000000000000000000000000000000008152600401612114906154ff565b60405180910390fd5b61212683613c77565b8261212f61310c565b73ffffffffffffffffffffffffffffffffffffffff167f730831a1e4aa2d187ddd8e03d7beeac760a3927da5f112d645e0f8df7494b36760405160405180910390a3505050565b61218861218161310c565b8383611a96565b6000600f6000838152602001908152602001600020905060008160030160009054906101000a900473ffffffffffffffffffffffffffffffffffffffff169050601260008273ffffffffffffffffffffffffffffffffffffffff1673ffffffffffffffffffffffffffffffffffffffff1681526020019081526020016000205482600001600082825461221b91906151fc565b92505081905550601260008273ffffffffffffffffffffffffffffffffffffffff1673ffffffffffffffffffffffffffffffffffffffff16815260200190815260200160002054601360008373ffffffffffffffffffffffffffffffffffffffff1673ffffffffffffffffffffffffffffffffffffffff16815260200190815260200160002060008282546122b09190615230565b9250508190555050505050565b6122c56139c7565b80601260008473ffffffffffffffffffffffffffffffffffffffff1673ffffffffffffffffffffffffffffffffffffffff168152602001908152602001600020819055507f8fcddb702fa6c4fe68a01a3dbae30ae032fc6ce52e4aec0ce68bcc33d395cca5828260405161233a92919061551f565b60405180910390a15050565b60126020528060005260406000206000915090505481565b61236f61236961310c565b836131cd565b6123ae576040517f08c379a00000000000000000000000000000000000000000000000000000000081526004016123a590614f25565b60405180910390fd5b6123ba84848484613d94565b50505050565b60076020528160005260406000206020528060005260406000206000915091509054906101000a900460ff1681565b600c6020528060005260406000206000915054906101000a900473ffffffffffffffffffffffffffffffffffffffff1681565b6008602052816000526040600020818154811061243e57600080fd5b906000526020600020016000915091509054906101000a900473ffffffffffffffffffffffffffffffffffffffff1681565b600f6020528060005260406000206000915090508060000154908060010154908060020154908060030160009054906101000a900473ffffffffffffffffffffffffffffffffffffffff16908060040160009054906101000a900473ffffffffffffffffffffffffffffffffffffffff16908060050160009054906101000a900473ffffffffffffffffffffffffffffffffffffffff16908060060160009054906101000a900473ffffffffffffffffffffffffffffffffffffffff16905087565b606061253d826130c1565b6000612547613df0565b905060008151116125675760405180602001604052806000815250612592565b8061257184613e07565b604051602001612582929190615584565b6040516020818303038152906040525b915050919050565b42600e54600d60006125aa61310c565b73ffffffffffffffffffffffffffffffffffffffff1673ffffffffffffffffffffffffffffffffffffffff168152602001908152602001600020546125ef9190615230565b1061262f576040517f08c379a0000000000000000000000000000000000000000000000000000000008152600401612626906155f4565b60405180910390fd5b80600c600061263c61310c565b73ffffffffffffffffffffffffffffffffffffffff1673ffffffffffffffffffffffffffffffffffffffff16815260200190815260200160002060006101000a81548173ffffffffffffffffffffffffffffffffffffffff021916908373ffffffffffffffffffffffffffffffffffffffff16021790555042600d60006126c161310c565b73ffffffffffffffffffffffffffffffffffffffff1673ffffffffffffffffffffffffffffffffffffffff1681526020019081526020016000208190555050565b6000600f6000838152602001908152602001600020600201549050919050565b6000600f6000838152602001908152602001600020600001549050919050565b600a602052816000526040600020818154811061275e57600080fd5b906000526020600020016000915091509054906101000a900473ffffffffffffffffffffffffffffffffffffffff1681565b6000600560008473ffffffffffffffffffffffffffffffffffffffff1673ffffffffffffffffffffffffffffffffffffffff16815260200190815260200160002060008373ffffffffffffffffffffffffffffffffffffffff1673ffffffffffffffffffffffffffffffffffffffff16815260200190815260200160002060009054906101000a900460ff16905092915050565b61282c6139c7565b600073ffffffffffffffffffffffffffffffffffffffff168173ffffffffffffffffffffffffffffffffffffffff160361289b576040517f08c379a000000000000000000000000000000000000000000000000000000000815260040161289290615686565b60405180910390fd5b6128a481613a45565b50565b6128af6139c7565b80601360008473ffffffffffffffffffffffffffffffffffffffff1673ffffffffffffffffffffffffffffffffffffffff168152602001908152602001600020541015612931576040517f08c379a0000000000000000000000000000000000000000000000000000000008152600401612928906156f2565b60405180910390fd5b80601360008473ffffffffffffffffffffffffffffffffffffffff1673ffffffffffffffffffffffffffffffffffffffff168152602001908152602001600020600082825461298091906151fc565b9250508190555060008273ffffffffffffffffffffffffffffffffffffffff166323b872dd306129ae61310c565b856040518463ffffffff1660e01b81526004016129cd9392919061543a565b6020604051808303816000875af11580156129ec573d6000803e3d6000fd5b505050506040513d601f19601f82011682018060405250810190612a109190615486565b905080612a52576040517f08c379a0000000000000000000000000000000000000000000000000000000008152600401612a49906154ff565b60405180910390fd5b612a5a61310c565b73ffffffffffffffffffffffffffffffffffffffff167f884edad9ce6fa2440d8a54cc123490eb96d2768479d49ff9c7366125a942436483604051612a9f91906144fc565b60405180910390a2505050565b6000612ab9848385613813565b600190509392505050565b600060106000612ad261310c565b73ffffffffffffffffffffffffffffffffffffffff1673ffffffffffffffffffffffffffffffffffffffff16815260200190815260200160002060008573ffffffffffffffffffffffffffffffffffffffff1673ffffffffffffffffffffffffffffffffffffffff16815260200190815260200160002054905081811015612b8f576040517f08c379a0000000000000000000000000000000000000000000000000000000008152600401612b869061575e565b60405180910390fd5b81810360106000612b9e61310c565b73ffffffffffffffffffffffffffffffffffffffff1673ffffffffffffffffffffffffffffffffffffffff16815260200190815260200160002060008673ffffffffffffffffffffffffffffffffffffffff1673ffffffffffffffffffffffffffffffffffffffff1681526020019081526020016000208190555081601060008573ffffffffffffffffffffffffffffffffffffffff1673ffffffffffffffffffffffffffffffffffffffff16815260200190815260200160002060008673ffffffffffffffffffffffffffffffffffffffff1673ffffffffffffffffffffffffffffffffffffffff1681526020019081526020016000206000828254612ca59190615230565b9250508190555050505050565b600060076000612cc061310c565b73ffffffffffffffffffffffffffffffffffffffff1673ffffffffffffffffffffffffffffffffffffffff16815260200190815260200160002060008373ffffffffffffffffffffffffffffffffffffffff1673ffffffffffffffffffffffffffffffffffffffff16815260200190815260200160002060009054906101000a900460ff1615612d53576001905061303a565b600160076000612d6161310c565b73ffffffffffffffffffffffffffffffffffffffff1673ffffffffffffffffffffffffffffffffffffffff16815260200190815260200160002060008473ffffffffffffffffffffffffffffffffffffffff1673ffffffffffffffffffffffffffffffffffffffff16815260200190815260200160002060006101000a81548160ff021916908315150217905550600960008373ffffffffffffffffffffffffffffffffffffffff1673ffffffffffffffffffffffffffffffffffffffff1681526020019081526020016000206000612e3861310c565b73ffffffffffffffffffffffffffffffffffffffff1673ffffffffffffffffffffffffffffffffffffffff16815260200190815260200160002060009054906101000a900460ff1615612fd457600a60008373ffffffffffffffffffffffffffffffffffffffff1673ffffffffffffffffffffffffffffffffffffffff168152602001908152602001600020612ecc61310c565b9080600181540180825580915050600190039060005260206000200160009091909190916101000a81548173ffffffffffffffffffffffffffffffffffffffff021916908373ffffffffffffffffffffffffffffffffffffffff16021790555060086000612f3861310c565b73ffffffffffffffffffffffffffffffffffffffff1673ffffffffffffffffffffffffffffffffffffffff168152602001908152602001600020829080600181540180825580915050600190039060005260206000200160009091909190916101000a81548173ffffffffffffffffffffffffffffffffffffffff021916908373ffffffffffffffffffffffffffffffffffffffff1602179055505b8173ffffffffffffffffffffffffffffffffffffffff16612ff361310c565b73ffffffffffffffffffffffffffffffffffffffff167f299ee620f7f943423e6a9788774c2ef64ca767ff063236ec6dc9f8c9c6462eb760405160405180910390a3600190505b919050565b60136020528060005260406000206000915090505481565b60007f01ffc9a7000000000000000000000000000000000000000000000000000000007bffffffffffffffffffffffffffffffffffffffffffffffffffffffff1916827bffffffffffffffffffffffffffffffffffffffffffffffffffffffff1916149050919050565b6130ca81613f67565b613109576040517f08c379a0000000000000000000000000000000000000000000000000000000008152600401613100906152b0565b60405180910390fd5b50565b600033905090565b816004600083815260200190815260200160002060006101000a81548173ffffffffffffffffffffffffffffffffffffffff021916908373ffffffffffffffffffffffffffffffffffffffff160217905550808273ffffffffffffffffffffffffffffffffffffffff1661318783611c3d565b73ffffffffffffffffffffffffffffffffffffffff167f8c5be1e5ebec7d5bd14f71427d1e84f3dd0314c0f7b2291e5b200ac8c7c3b92560405160405180910390a45050565b6000806131d983611c3d565b90508073ffffffffffffffffffffffffffffffffffffffff168473ffffffffffffffffffffffffffffffffffffffff16148061321b575061321a8185612790565b5b8061325957508373ffffffffffffffffffffffffffffffffffffffff1661324184610c27565b73ffffffffffffffffffffffffffffffffffffffff16145b91505092915050565b8273ffffffffffffffffffffffffffffffffffffffff1661328282611c3d565b73ffffffffffffffffffffffffffffffffffffffff16146132d8576040517f08c379a00000000000000000000000000000000000000000000000000000000081526004016132cf906157f0565b60405180910390fd5b600073ffffffffffffffffffffffffffffffffffffffff168273ffffffffffffffffffffffffffffffffffffffff1603613347576040517f08c379a000000000000000000000000000000000000000000000000000000000815260040161333e90615882565b60405180910390fd5b613352838383613fd3565b61335d600082613114565b6001600360008573ffffffffffffffffffffffffffffffffffffffff1673ffffffffffffffffffffffffffffffffffffffff16815260200190815260200160002060008282546133ad91906151fc565b925050819055506001600360008473ffffffffffffffffffffffffffffffffffffffff1673ffffffffffffffffffffffffffffffffffffffff16815260200190815260200160002060008282546134049190615230565b92505081905550816002600083815260200190815260200160002060006101000a81548173ffffffffffffffffffffffffffffffffffffffff021916908373ffffffffffffffffffffffffffffffffffffffff160217905550808273ffffffffffffffffffffffffffffffffffffffff168473ffffffffffffffffffffffffffffffffffffffff167fddf252ad1be2c89b69c2b068fc378daa952ba7f163c4a11628f55a4df523b3ef60405160405180910390a46134c3838383613fd8565b505050565b6134e2828260405180602001604052806000815250613fdd565b5050565b6000600f60008481526020019081526020016000206040518060e00160405290816000820154815260200160018201548152602001600282015481526020016003820160009054906101000a900473ffffffffffffffffffffffffffffffffffffffff1673ffffffffffffffffffffffffffffffffffffffff1673ffffffffffffffffffffffffffffffffffffffff1681526020016004820160009054906101000a900473ffffffffffffffffffffffffffffffffffffffff1673ffffffffffffffffffffffffffffffffffffffff1673ffffffffffffffffffffffffffffffffffffffff1681526020016005820160009054906101000a900473ffffffffffffffffffffffffffffffffffffffff1673ffffffffffffffffffffffffffffffffffffffff1673ffffffffffffffffffffffffffffffffffffffff1681526020016006820160009054906101000a900473ffffffffffffffffffffffffffffffffffffffff1673ffffffffffffffffffffffffffffffffffffffff1673ffffffffffffffffffffffffffffffffffffffff1681525050905061368661310c565b73ffffffffffffffffffffffffffffffffffffffff168160c0015173ffffffffffffffffffffffffffffffffffffffff16146136f7576040517f08c379a00000000000000000000000000000000000000000000000000000000081526004016136ee906158ee565b60405180910390fd5b4281604001511061373d576040517f08c379a00000000000000000000000000000000000000000000000000000000081526004016137349061595a565b60405180910390fd5b61374683613c77565b8060000151601060008473ffffffffffffffffffffffffffffffffffffffff1673ffffffffffffffffffffffffffffffffffffffff1681526020019081526020016000206000836060015173ffffffffffffffffffffffffffffffffffffffff1673ffffffffffffffffffffffffffffffffffffffff16815260200190815260200160002060008282546137da9190615230565b92505081905550827f4be31150f33b90fe5b51b66ab7aae29ea3418e82b50afb32b5e83531a2641aed60405160405180910390a2505050565b60008373ffffffffffffffffffffffffffffffffffffffff166323b872dd61383961310c565b30856040518463ffffffff1660e01b81526004016138599392919061543a565b6020604051808303816000875af1158015613878573d6000803e3d6000fd5b505050506040513d601f19601f8201168201806040525081019061389c9190615486565b9050806138de576040517f08c379a00000000000000000000000000000000000000000000000000000000081526004016138d5906159c6565b60405180910390fd5b81601060008573ffffffffffffffffffffffffffffffffffffffff1673ffffffffffffffffffffffffffffffffffffffff16815260200190815260200160002060008673ffffffffffffffffffffffffffffffffffffffff1673ffffffffffffffffffffffffffffffffffffffff168152602001908152602001600020600082825461396a9190615230565b925050819055508273ffffffffffffffffffffffffffffffffffffffff167f5548c837ab068cf56a2c2479df0882a4922fd203edb7517321831d95078c5f6285846040516139b992919061551f565b60405180910390a250505050565b6139cf61310c565b73ffffffffffffffffffffffffffffffffffffffff166139ed611e17565b73ffffffffffffffffffffffffffffffffffffffff1614613a43576040517f08c379a0000000000000000000000000000000000000000000000000000000008152600401613a3a90615a32565b60405180910390fd5b565b6000600660009054906101000a900473ffffffffffffffffffffffffffffffffffffffff16905081600660006101000a81548173ffffffffffffffffffffffffffffffffffffffff021916908373ffffffffffffffffffffffffffffffffffffffff1602179055508173ffffffffffffffffffffffffffffffffffffffff168173ffffffffffffffffffffffffffffffffffffffff167f8be0079c531659141344cd1fd0a4f28419497f9722a3daafe3b4186f6b6457e060405160405180910390a35050565b8173ffffffffffffffffffffffffffffffffffffffff168373ffffffffffffffffffffffffffffffffffffffff1603613b79576040517f08c379a0000000000000000000000000000000000000000000000000000000008152600401613b7090615a9e565b60405180910390fd5b80600560008573ffffffffffffffffffffffffffffffffffffffff1673ffffffffffffffffffffffffffffffffffffffff16815260200190815260200160002060008473ffffffffffffffffffffffffffffffffffffffff1673ffffffffffffffffffffffffffffffffffffffff16815260200190815260200160002060006101000a81548160ff0219169083151502179055508173ffffffffffffffffffffffffffffffffffffffff168373ffffffffffffffffffffffffffffffffffffffff167f17307eab39ab6107e8899845ad3d59bd9653f200f220920489ca2b5937696c3183604051613c6a919061446f565b60405180910390a3505050565b6000613c8282611c3d565b9050613c9081600084613fd3565b613c9b600083613114565b6001600360008373ffffffffffffffffffffffffffffffffffffffff1673ffffffffffffffffffffffffffffffffffffffff1681526020019081526020016000206000828254613ceb91906151fc565b925050819055506002600083815260200190815260200160002060006101000a81549073ffffffffffffffffffffffffffffffffffffffff021916905581600073ffffffffffffffffffffffffffffffffffffffff168273ffffffffffffffffffffffffffffffffffffffff167fddf252ad1be2c89b69c2b068fc378daa952ba7f163c4a11628f55a4df523b3ef60405160405180910390a4613d9081600084613fd8565b5050565b613d9f848484613262565b613dab84848484614038565b613dea576040517f08c379a0000000000000000000000000000000000000000000000000000000008152600401613de190615b30565b60405180910390fd5b50505050565b606060405180602001604052806000815250905090565b606060008203613e4e576040518060400160405280600181526020017f30000000000000000000000000000000000000000000000000000000000000008152509050613f62565b600082905060005b60008214613e80578080613e6990615b50565b915050600a82613e799190615bc7565b9150613e56565b60008167ffffffffffffffff811115613e9c57613e9b614a0d565b5b6040519080825280601f01601f191660200182016040528015613ece5781602001600182028036833780820191505090505b5090505b60008514613f5b57600182613ee791906151fc565b9150600a85613ef69190615bf8565b6030613f029190615230565b60f81b818381518110613f1857613f17615c29565b5b60200101907effffffffffffffffffffffffffffffffffffffffffffffffffffffffffffff1916908160001a905350600a85613f549190615bc7565b9450613ed2565b8093505050505b919050565b60008073ffffffffffffffffffffffffffffffffffffffff166002600084815260200190815260200160002060009054906101000a900473ffffffffffffffffffffffffffffffffffffffff1673ffffffffffffffffffffffffffffffffffffffff1614159050919050565b505050565b505050565b613fe783836141bf565b613ff46000848484614038565b614033576040517f08c379a000000000000000000000000000000000000000000000000000000000815260040161402a90615b30565b60405180910390fd5b505050565b60006140598473ffffffffffffffffffffffffffffffffffffffff16614398565b156141b2578373ffffffffffffffffffffffffffffffffffffffff1663150b7a0261408261310c565b8786866040518563ffffffff1660e01b81526004016140a49493929190615cad565b6020604051808303816000875af19250505080156140e057506040513d601f19601f820116820180604052508101906140dd9190615d0e565b60015b614162573d8060008114614110576040519150601f19603f3d011682016040523d82523d6000602084013e614115565b606091505b50600081510361415a576040517f08c379a000000000000000000000000000000000000000000000000000000000815260040161415190615b30565b60405180910390fd5b805181602001fd5b63150b7a0260e01b7bffffffffffffffffffffffffffffffffffffffffffffffffffffffff1916817bffffffffffffffffffffffffffffffffffffffffffffffffffffffff1916149150506141b7565b600190505b949350505050565b600073ffffffffffffffffffffffffffffffffffffffff168273ffffffffffffffffffffffffffffffffffffffff160361422e576040517f08c379a000000000000000000000000000000000000000000000000000000000815260040161422590615d87565b60405180910390fd5b61423781613f67565b15614277576040517f08c379a000000000000000000000000000000000000000000000000000000000815260040161426e90615df3565b60405180910390fd5b61428360008383613fd3565b6001600360008473ffffffffffffffffffffffffffffffffffffffff1673ffffffffffffffffffffffffffffffffffffffff16815260200190815260200160002060008282546142d39190615230565b92505081905550816002600083815260200190815260200160002060006101000a81548173ffffffffffffffffffffffffffffffffffffffff021916908373ffffffffffffffffffffffffffffffffffffffff160217905550808273ffffffffffffffffffffffffffffffffffffffff16600073ffffffffffffffffffffffffffffffffffffffff167fddf252ad1be2c89b69c2b068fc378daa952ba7f163c4a11628f55a4df523b3ef60405160405180910390a461439460008383613fd8565b5050565b6000808273ffffffffffffffffffffffffffffffffffffffff163b119050919050565b6000604051905090565b600080fd5b600080fd5b60007fffffffff0000000000000000000000000000000000000000000000000000000082169050919050565b614404816143cf565b811461440f57600080fd5b50565b600081359050614421816143fb565b92915050565b60006020828403121561443d5761443c6143c5565b5b600061444b84828501614412565b91505092915050565b60008115159050919050565b61446981614454565b82525050565b60006020820190506144846000830184614460565b92915050565b6000819050919050565b61449d8161448a565b81146144a857600080fd5b50565b6000813590506144ba81614494565b92915050565b6000602082840312156144d6576144d56143c5565b5b60006144e4848285016144ab565b91505092915050565b6144f68161448a565b82525050565b600060208201905061451160008301846144ed565b92915050565b600081519050919050565b600082825260208201905092915050565b60005b83811015614551578082015181840152602081019050614536565b60008484015250505050565b6000601f19601f8301169050919050565b600061457982614517565b6145838185614522565b9350614593818560208601614533565b61459c8161455d565b840191505092915050565b600060208201905081810360008301526145c1818461456e565b905092915050565b600073ffffffffffffffffffffffffffffffffffffffff82169050919050565b60006145f4826145c9565b9050919050565b614604816145e9565b82525050565b600060208201905061461f60008301846145fb565b92915050565b61462e816145e9565b811461463957600080fd5b50565b60008135905061464b81614625565b92915050565b600060208284031215614667576146666143c5565b5b60006146758482850161463c565b91505092915050565b60008060408385031215614695576146946143c5565b5b60006146a38582860161463c565b92505060206146b4858286016144ab565b9150509250929050565b600081519050919050565b600082825260208201905092915050565b6000819050602082019050919050565b6146f3816145e9565b82525050565b600061470583836146ea565b60208301905092915050565b6000602082019050919050565b6000614729826146be565b61473381856146c9565b935061473e836146da565b8060005b8381101561476f57815161475688826146f9565b975061476183614711565b925050600181019050614742565b5085935050505092915050565b60006020820190508181036000830152614796818461471e565b905092915050565b6000806000606084860312156147b7576147b66143c5565b5b60006147c58682870161463c565b93505060206147d68682870161463c565b92505060406147e7868287016144ab565b9150509250925092565b60006147fc826145e9565b9050919050565b61480c816147f1565b811461481757600080fd5b50565b60008135905061482981614803565b92915050565b600080600080600060a0868803121561484b5761484a6143c5565b5b60006148598882890161481a565b955050602061486a888289016144ab565b945050604061487b888289016144ab565b935050606061488c8882890161463c565b925050608061489d8882890161463c565b9150509295509295909350565b600080604083850312156148c1576148c06143c5565b5b60006148cf8582860161481a565b92505060206148e0858286016144ab565b9150509250929050565b60008060408385031215614901576149006143c5565b5b600061490f8582860161463c565b92505060206149208582860161481a565b9150509250929050565b60008060408385031215614941576149406143c5565b5b600061494f8582860161463c565b92505060206149608582860161463c565b9150509250929050565b61497381614454565b811461497e57600080fd5b50565b6000813590506149908161496a565b92915050565b600080604083850312156149ad576149ac6143c5565b5b60006149bb8582860161463c565b92505060206149cc85828601614981565b9150509250929050565b6000602082840312156149ec576149eb6143c5565b5b60006149fa8482850161481a565b91505092915050565b600080fd5b600080fd5b7f4e487b7100000000000000000000000000000000000000000000000000000000600052604160045260246000fd5b614a458261455d565b810181811067ffffffffffffffff82111715614a6457614a63614a0d565b5b80604052505050565b6000614a776143bb565b9050614a838282614a3c565b919050565b600067ffffffffffffffff821115614aa357614aa2614a0d565b5b614aac8261455d565b9050602081019050919050565b82818337600083830152505050565b6000614adb614ad684614a88565b614a6d565b905082815260208101848484011115614af757614af6614a08565b5b614b02848285614ab9565b509392505050565b600082601f830112614b1f57614b1e614a03565b5b8135614b2f848260208601614ac8565b91505092915050565b60008060008060808587031215614b5257614b516143c5565b5b6000614b608782880161463c565b9450506020614b718782880161463c565b9350506040614b82878288016144ab565b925050606085013567ffffffffffffffff811115614ba357614ba26143ca565b5b614baf87828801614b0a565b91505092959194509250565b6000819050919050565b6000614be0614bdb614bd6846145c9565b614bbb565b6145c9565b9050919050565b6000614bf282614bc5565b9050919050565b6000614c0482614be7565b9050919050565b614c1481614bf9565b82525050565b600060e082019050614c2f600083018a6144ed565b614c3c60208301896144ed565b614c4960408301886144ed565b614c566060830187614c0b565b614c6360808301866145fb565b614c7060a08301856145fb565b614c7d60c08301846145fb565b98975050505050505050565b600080600060608486031215614ca257614ca16143c5565b5b6000614cb08682870161481a565b9350506020614cc1868287016144ab565b9250506040614cd28682870161463c565b9150509250925092565b600080600060608486031215614cf557614cf46143c5565b5b6000614d038682870161481a565b9350506020614d148682870161463c565b9250506040614d25868287016144ab565b9150509250925092565b7f4e487b7100000000000000000000000000000000000000000000000000000000600052602260045260246000fd5b60006002820490506001821680614d7657607f821691505b602082108103614d8957614d88614d2f565b5b50919050565b7f4552433732313a20617070726f76616c20746f2063757272656e74206f776e6560008201527f7200000000000000000000000000000000000000000000000000000000000000602082015250565b6000614deb602183614522565b9150614df682614d8f565b604082019050919050565b60006020820190508181036000830152614e1a81614dde565b9050919050565b7f4552433732313a20617070726f76652063616c6c6572206973206e6f7420746f60008201527f6b656e206f776e6572206e6f7220617070726f76656420666f7220616c6c0000602082015250565b6000614e7d603e83614522565b9150614e8882614e21565b604082019050919050565b60006020820190508181036000830152614eac81614e70565b9050919050565b7f4552433732313a2063616c6c6572206973206e6f7420746f6b656e206f776e6560008201527f72206e6f7220617070726f766564000000000000000000000000000000000000602082015250565b6000614f0f602e83614522565b9150614f1a82614eb3565b604082019050919050565b60006020820190508181036000830152614f3e81614f02565b9050919050565b7f496e73756666696369656e742062616c616e6365000000000000000000000000600082015250565b6000614f7b601483614522565b9150614f8682614f45565b602082019050919050565b60006020820190508181036000830152614faa81614f6e565b9050919050565b7f556e617070726f7665642061756469746f720000000000000000000000000000600082015250565b6000614fe7601283614522565b9150614ff282614fb1565b602082019050919050565b6000602082019050818103600083015261501681614fda565b9050919050565b7f41756469746f72206d75737420617070726f766520796f750000000000000000600082015250565b6000615053601883614522565b915061505e8261501d565b602082019050919050565b6000602082019050818103600083015261508281615046565b9050919050565b7f41756469746f72206d75737420617070726f766520726563697069656e740000600082015250565b60006150bf601e83614522565b91506150ca82615089565b602082019050919050565b600060208201905081810360008301526150ee816150b2565b9050919050565b7f526563697069656e74206d75737420617070726f76652061756469746f720000600082015250565b600061512b601e83614522565b9150615136826150f5565b602082019050919050565b6000602082019050818103600083015261515a8161511e565b9050919050565b7f4475726174696f6e206e6f7420616c6c6f776564000000000000000000000000600082015250565b6000615197601483614522565b91506151a282615161565b602082019050919050565b600060208201905081810360008301526151c68161518a565b9050919050565b7f4e487b7100000000000000000000000000000000000000000000000000000000600052601160045260246000fd5b60006152078261448a565b91506152128361448a565b925082820390508181111561522a576152296151cd565b5b92915050565b600061523b8261448a565b91506152468361448a565b925082820190508082111561525e5761525d6151cd565b5b92915050565b7f4552433732313a20696e76616c696420746f6b656e2049440000000000000000600082015250565b600061529a601883614522565b91506152a582615264565b602082019050919050565b600060208201905081810360008301526152c98161528d565b9050919050565b7f4552433732313a2061646472657373207a65726f206973206e6f74206120766160008201527f6c6964206f776e65720000000000000000000000000000000000000000000000602082015250565b600061532c602983614522565b9150615337826152d0565b604082019050919050565b6000602082019050818103600083015261535b8161531f565b9050919050565b7f4d757374206f776e206368657175650000000000000000000000000000000000600082015250565b6000615398600f83614522565b91506153a382615362565b602082019050919050565b600060208201905081810360008301526153c78161538b565b9050919050565b7f4361736861626c65207965740000000000000000000000000000000000000000600082015250565b6000615404600c83614522565b915061540f826153ce565b602082019050919050565b60006020820190508181036000830152615433816153f7565b9050919050565b600060608201905061544f60008301866145fb565b61545c60208301856145fb565b61546960408301846144ed565b949350505050565b6000815190506154808161496a565b92915050565b60006020828403121561549c5761549b6143c5565b5b60006154aa84828501615471565b91505092915050565b7f5472616e73666572206661696c65642e00000000000000000000000000000000600082015250565b60006154e9601083614522565b91506154f4826154b3565b602082019050919050565b60006020820190508181036000830152615518816154dc565b9050919050565b60006040820190506155346000830185614c0b565b61554160208301846144ed565b9392505050565b600081905092915050565b600061555e82614517565b6155688185615548565b9350615578818560208601614533565b80840191505092915050565b60006155908285615553565b915061559c8284615553565b91508190509392505050565b7f54727573746564206163636f756e7420636f6f6c646f776e0000000000000000600082015250565b60006155de601883614522565b91506155e9826155a8565b602082019050919050565b6000602082019050818103600083015261560d816155d1565b9050919050565b7f4f776e61626c653a206e6577206f776e657220697320746865207a65726f206160008201527f6464726573730000000000000000000000000000000000000000000000000000602082015250565b6000615670602683614522565b915061567b82615614565b604082019050919050565b6000602082019050818103600083015261569f81615663565b9050919050565b7f4d6f7265207468616e20617661696c61626c6500000000000000000000000000600082015250565b60006156dc601383614522565b91506156e7826156a6565b602082019050919050565b6000602082019050818103600083015261570b816156cf565b9050919050565b7f7472616e7366657220616d6f756e7420657863656564732062616c616e636500600082015250565b6000615748601f83614522565b915061575382615712565b602082019050919050565b600060208201905081810360008301526157778161573b565b9050919050565b7f4552433732313a207472616e736665722066726f6d20696e636f72726563742060008201527f6f776e6572000000000000000000000000000000000000000000000000000000602082015250565b60006157da602583614522565b91506157e58261577e565b604082019050919050565b60006020820190508181036000830152615809816157cd565b9050919050565b7f4552433732313a207472616e7366657220746f20746865207a65726f2061646460008201527f7265737300000000000000000000000000000000000000000000000000000000602082015250565b600061586c602483614522565b915061587782615810565b604082019050919050565b6000602082019050818103600083015261589b8161585f565b9050919050565b7f4e6f742061756469746f72000000000000000000000000000000000000000000600082015250565b60006158d8600b83614522565b91506158e3826158a2565b602082019050919050565b60006020820190508181036000830152615907816158cb565b9050919050565b7f436865717565206d617475726564000000000000000000000000000000000000600082015250565b6000615944600e83614522565b915061594f8261590e565b602082019050919050565b6000602082019050818103600083015261597381615937565b9050919050565b7f5472616e73666572206661696c65640000000000000000000000000000000000600082015250565b60006159b0600f83614522565b91506159bb8261597a565b602082019050919050565b600060208201905081810360008301526159df816159a3565b9050919050565b7f4f776e61626c653a2063616c6c6572206973206e6f7420746865206f776e6572600082015250565b6000615a1c602083614522565b9150615a27826159e6565b602082019050919050565b60006020820190508181036000830152615a4b81615a0f565b9050919050565b7f4552433732313a20617070726f766520746f2063616c6c657200000000000000600082015250565b6000615a88601983614522565b9150615a9382615a52565b602082019050919050565b60006020820190508181036000830152615ab781615a7b565b9050919050565b7f4552433732313a207472616e7366657220746f206e6f6e20455243373231526560008201527f63656976657220696d706c656d656e7465720000000000000000000000000000602082015250565b6000615b1a603283614522565b9150615b2582615abe565b604082019050919050565b60006020820190508181036000830152615b4981615b0d565b9050919050565b6000615b5b8261448a565b91507fffffffffffffffffffffffffffffffffffffffffffffffffffffffffffffffff8203615b8d57615b8c6151cd565b5b600182019050919050565b7f4e487b7100000000000000000000000000000000000000000000000000000000600052601260045260246000fd5b6000615bd28261448a565b9150615bdd8361448a565b925082615bed57615bec615b98565b5b828204905092915050565b6000615c038261448a565b9150615c0e8361448a565b925082615c1e57615c1d615b98565b5b828206905092915050565b7f4e487b7100000000000000000000000000000000000000000000000000000000600052603260045260246000fd5b600081519050919050565b600082825260208201905092915050565b6000615c7f82615c58565b615c898185615c63565b9350615c99818560208601614533565b615ca28161455d565b840191505092915050565b6000608082019050615cc260008301876145fb565b615ccf60208301866145fb565b615cdc60408301856144ed565b8181036060830152615cee8184615c74565b905095945050505050565b600081519050615d08816143fb565b92915050565b600060208284031215615d2457615d236143c5565b5b6000615d3284828501615cf9565b91505092915050565b7f4552433732313a206d696e7420746f20746865207a65726f2061646472657373600082015250565b6000615d71602083614522565b9150615d7c82615d3b565b602082019050919050565b60006020820190508181036000830152615da081615d64565b9050919050565b7f4552433732313a20746f6b656e20616c7265616479206d696e74656400000000600082015250565b6000615ddd601c83614522565b9150615de882615da7565b602082019050919050565b60006020820190508181036000830152615e0c81615dd0565b905091905056fea26469706673582212203c112aaae537aa9a756c571f27381c2c358c1471c718f351f409fcf0fc47e7b564736f6c63430008100033",
  "immutableReferences": {},
  "source": "// SPDX-License-Identifier: MIT\npragma solidity >=0.8.14;\nimport \"@openzeppelin/contracts/token/ERC20/IERC20.sol\";\nimport \"@openzeppelin/contracts/token/ERC721/ERC721.sol\";\nimport \"@openzeppelin/contracts/access/Ownable.sol\";\n\ncontract dCheque is ERC721, Ownable {\n    struct Cheque{\n        uint256 amount;\n        uint256 created;\n        uint256 expiry;\n        IERC20 token;\n        address drawer;\n        address recipient;\n        address auditor;\n    }\n\n    mapping(address=>mapping(address=>bool)) public userAuditor;  // Whether User accepts Auditor\n    mapping(address=>address[]) public acceptedUserAuditors;  // Auditor addresses that user accepts\n    mapping(address=>mapping(address=>bool)) public auditorUser;  // Whether Auditor accepts User\n    mapping(address=>address[]) public acceptedAuditorUsers;  // User addresses that auditor accepts\n    mapping(address=>mapping(uint256=>bool)) public auditorDurations;  // Auditor voiding periods\n\n    mapping(address=>address) public trustedAccount;  // User's trusted account\n    mapping(address=>uint256) public lastTrustedChange;\n    uint256 public trustedAccountCooldown;\n\n    mapping(uint256=>Cheque) public chequeData;\n    mapping(address=>mapping(IERC20=>uint256)) public deposits;  // Total user deposits\n    uint256 private totalSupply;  // Total cheques created\n\n    mapping(IERC20=>uint256) public protocolFee;\n    mapping(IERC20=>uint256) public protocolReserve;\n\n    event Deposit(IERC20 _token, address indexed to, uint256 amount);\n    event Cash(address indexed bearer, uint256 indexed chequeID);\n    event Void(uint256 indexed chequeID);\n    \n    event AcceptAuditor(address indexed user, address indexed auditor);\n    event AcceptUser(address indexed auditor, address indexed user);\n    \n    event SetProtocolFee(IERC20 _token, uint256 amount);\n    event Withdraw(address indexed _address, uint256 amount);\n\n    modifier UserAuditorUserHandshake(IERC20 _token, uint256 amount, address auditor, uint256 duration, address recipient){\n        require(deposits[_msgSender()][_token]>=amount, \"Insufficient balance\");\n        require(userAuditor[_msgSender()][auditor], \"Unapproved auditor\");\n        require(auditorUser[auditor][_msgSender()],  \"Auditor must approve you\");\n        require(auditorUser[auditor][recipient],  \"Auditor must approve recipient\");\n        require(userAuditor[recipient][auditor], \"Recipient must approve auditor\");\n        require(auditorDurations[auditor][duration], \"Duration not allowed\");\n        _;\n    }\n\n    // Only Owner Functions //\n    constructor(uint256 _trustedAccountCooldown) ERC721(\"dCheque\", \"dCHQ\"){  // Does this also set inherited constructor variables?\n        trustedAccountCooldown = _trustedAccountCooldown;\n    }\n    function setProtocolFee(IERC20 _token, uint256 _protocolFee) external onlyOwner{  \n        protocolFee[_token] = _protocolFee;\n        emit SetProtocolFee(_token, _protocolFee);\n    }\n    function withdraw(IERC20 _token, uint256 _amount) external onlyOwner{\n        require(protocolReserve[_token]>=_amount, \"More than available\");\n        protocolReserve[_token]-= _amount;\n        bool success = _token.transferFrom(address(this), _msgSender(), _amount);\n        require(success, \"Transfer failed.\");\n        emit Withdraw(_msgSender(), _amount);\n    }\n    // Only Owner Functions //\n\n    // User Deposits //\n    function _deposit(IERC20 _token, address _address, uint256 _amount) private {\n        bool success = _token.transferFrom(_msgSender(), address(this), _amount); \n        require(success, \"Transfer failed\");\n        deposits[_address][_token] += _amount;\n        emit Deposit(_token, _address, _amount);\n    }\n    function deposit(IERC20 _token, uint256 _amount) external returns (bool){\n        _deposit(_token, _msgSender(), _amount);\n        return true;\n    }\n    function deposit(IERC20 _token, uint256 _amount, address _address) external returns (bool){\n        _deposit(_token, _address, _amount);\n        return true;\n    }\n    function directTransfer(IERC20 _token, address _to, uint256 _amount) external{  // Need to add limiter\n        uint256 fromBalance = deposits[_msgSender()][_token];\n        require(fromBalance >= _amount, \"transfer amount exceeds balance\");\n        unchecked {deposits[_msgSender()][_token] = fromBalance - _amount;}\n        deposits[_to][_token] += _amount;\n    }\n    // User Deposits //\n\n    // ERC721 Inherited Function Use //\n    function writeCheque(IERC20 _token, uint256 amount, uint256 duration, address auditor, address recipient) \n        external \n        UserAuditorUserHandshake(_token, amount, auditor, duration, recipient) {\n        deposits[_msgSender()][_token] -= amount;\n        _safeMint(_msgSender(), totalSupply);\n        chequeData[totalSupply] = Cheque({drawer:_msgSender(), recipient:recipient, created:block.timestamp, expiry:block.timestamp+duration, \n                                       auditor:auditor, token:_token, amount:amount});\n        totalSupply += 1;\n    }\n    function cashCheque(uint256 chequeID) external {\n        Cheque storage cheque = chequeData[chequeID];\n        require(_isApprovedOrOwner(_msgSender(), chequeID), \"Must own cheque\");\n        require(cheque.expiry>block.timestamp, \"Cashable yet\");\n        bool success = cheque.token.transferFrom(address(this), _msgSender(), cheque.amount);\n        require(success, \"Transfer failed.\");\n        _burn(chequeID); \n        emit Cash(_msgSender(), chequeID);\n    }\n    function _voidCheque(uint256 chequeID, address depositTo) private {\n        Cheque memory cheque = chequeData[chequeID];\n        require(cheque.auditor==_msgSender(), \"Not auditor\");\n        require(cheque.expiry<block.timestamp, \"Cheque matured\");\n        _burn(chequeID); \n        deposits[depositTo][cheque.token] += cheque.amount;  // Add balance back to drawer\n        emit Void(chequeID);\n    }\n    function voidCheque(uint256 chequeID) external {\n        _voidCheque(chequeID, _msgSender());\n    }\n    function voidRescueCheque(uint256 chequeID) external {\n        _voidCheque(chequeID, trustedAccount[chequeData[chequeID].drawer]);\n    }\n    function transfer(address to, uint256 chequeID) external {\n        safeTransferFrom(_msgSender(), to, chequeID);\n        Cheque storage cheque = chequeData[chequeID];\n        IERC20 _token = cheque.token;\n        cheque.amount -= protocolFee[_token];\n        protocolReserve[_token] += protocolFee[_token];\n    }\n    // Inherited function use //\n\n    function acceptAuditor(address auditor) external returns (bool){  // User will set this \n        if (userAuditor[_msgSender()][auditor]){\n            return true;\n        }\n        userAuditor[_msgSender()][auditor] = true;\n        if (auditorUser[auditor][_msgSender()]){\n            acceptedAuditorUsers[auditor].push(_msgSender());\n            acceptedUserAuditors[_msgSender()].push(auditor);\n        }\n        emit AcceptAuditor(_msgSender(), auditor);\n        return true;\n    }\n    function acceptUser(address drawer) external returns (bool){  // Auditor will set this \n        if (auditorUser[_msgSender()][drawer]){\n            return true;\n        }\n        auditorUser[_msgSender()][drawer] = true;\n        if (userAuditor[drawer][_msgSender()]){\n            acceptedUserAuditors[drawer].push(_msgSender());\n            acceptedAuditorUsers[_msgSender()].push(drawer);\n        }\n        emit AcceptUser(_msgSender(), drawer);\n        return true;\n    }\n    function setAllowedDuration(uint256 duration) external {  // Auditor will set this\n        auditorDurations[_msgSender()][duration] = true;\n    }\n    function setTrustedAccount(address account) external {  // User will set this\n        require((lastTrustedChange[_msgSender()] + trustedAccountCooldown)<block.timestamp, \"Trusted account cooldown\");\n        trustedAccount[_msgSender()] = account;\n        lastTrustedChange[_msgSender()] = block.timestamp;\n    }\n    function chequeDrawer(uint256 chequeId) external view returns (address) {\n        return chequeData[chequeId].drawer;\n    }\n    function chequeRecipient(uint256 chequeId) external view returns (address) {\n        return chequeData[chequeId].recipient;\n    }\n    function chequeAuditor(uint256 chequeId) external view returns (address) {\n        return chequeData[chequeId].auditor;\n    } \n    function chequeAmount(uint256 chequeId) external view returns (uint256) {\n        return chequeData[chequeId].amount;\n    }\n    function chequeExpiry(uint256 chequeId) external view returns (uint256) {\n        return chequeData[chequeId].expiry;\n    }\n    function chequeCreated(uint256 chequeId) external view returns (uint256) {\n        return chequeData[chequeId].created;\n    }\n    function getAcceptedUserAuditors(address _address) external view returns (address[] memory){\n        return acceptedUserAuditors[_address];\n    }\n    function getAcceptedAuditorUsers(address _address) external view returns (address[] memory){\n        return acceptedAuditorUsers[_address];\n    }\n}",
  "sourcePath": "/Users/alexa/PycharmProjects/CryptoCheque/src/contracts/dCheque.sol",
  "compiler": {
    "name": "solc",
    "version": "0.8.16+commit.07a7930e.Emscripten.clang"
  },
  "schemaVersion": "3.4.4",
  "updatedAt": "2022-08-11T20:47:31.026Z",
  "devdoc": {
    "kind": "dev",
    "methods": {
      "approve(address,uint256)": {
        "details": "See {IERC721-approve}."
      },
      "balanceOf(address)": {
        "details": "See {IERC721-balanceOf}."
      },
      "getApproved(uint256)": {
        "details": "See {IERC721-getApproved}."
      },
      "isApprovedForAll(address,address)": {
        "details": "See {IERC721-isApprovedForAll}."
      },
      "name()": {
        "details": "See {IERC721Metadata-name}."
      },
      "owner()": {
        "details": "Returns the address of the current owner."
      },
      "ownerOf(uint256)": {
        "details": "See {IERC721-ownerOf}."
      },
      "renounceOwnership()": {
        "details": "Leaves the contract without owner. It will not be possible to call `onlyOwner` functions anymore. Can only be called by the current owner. NOTE: Renouncing ownership will leave the contract without an owner, thereby removing any functionality that is only available to the owner."
      },
      "safeTransferFrom(address,address,uint256)": {
        "details": "See {IERC721-safeTransferFrom}."
      },
      "safeTransferFrom(address,address,uint256,bytes)": {
        "details": "See {IERC721-safeTransferFrom}."
      },
      "setApprovalForAll(address,bool)": {
        "details": "See {IERC721-setApprovalForAll}."
      },
      "supportsInterface(bytes4)": {
        "details": "See {IERC165-supportsInterface}."
      },
      "symbol()": {
        "details": "See {IERC721Metadata-symbol}."
      },
      "tokenURI(uint256)": {
        "details": "See {IERC721Metadata-tokenURI}."
      },
      "transferFrom(address,address,uint256)": {
        "details": "See {IERC721-transferFrom}."
      },
      "transferOwnership(address)": {
        "details": "Transfers ownership of the contract to a new account (`newOwner`). Can only be called by the current owner."
      }
    },
    "version": 1
  },
  "userdoc": {
    "kind": "user",
    "methods": {},
    "version": 1
  }
}