{
  "contractName": "dCheque",
  "abi": [
    {
      "anonymous": false,
      "inputs": [
        {
          "indexed": true,
          "internalType": "address",
          "name": "user",
          "type": "address"
        },
        {
          "indexed": true,
          "internalType": "address",
          "name": "auditor",
          "type": "address"
        }
      ],
      "name": "AcceptAuditor",
      "type": "event"
    },
    {
      "anonymous": false,
      "inputs": [
        {
          "indexed": true,
          "internalType": "address",
          "name": "auditor",
          "type": "address"
        },
        {
          "indexed": true,
          "internalType": "address",
          "name": "user",
          "type": "address"
        }
      ],
      "name": "AcceptUser",
      "type": "event"
    },
    {
      "anonymous": false,
      "inputs": [
        {
          "indexed": true,
          "internalType": "address",
          "name": "bearer",
          "type": "address"
        },
        {
          "indexed": true,
          "internalType": "uint256",
          "name": "chequeID",
          "type": "uint256"
        }
      ],
      "name": "Cash",
      "type": "event"
    },
    {
      "anonymous": false,
      "inputs": [
        {
          "indexed": true,
          "internalType": "address",
          "name": "from",
          "type": "address"
        },
        {
          "indexed": false,
          "internalType": "uint256",
          "name": "amount",
          "type": "uint256"
        }
      ],
      "name": "Deposit",
      "type": "event"
    },
    {
      "anonymous": false,
      "inputs": [
        {
          "indexed": false,
          "internalType": "uint256",
          "name": "amount",
          "type": "uint256"
        }
      ],
      "name": "SetProtocolFee",
      "type": "event"
    },
    {
      "anonymous": false,
      "inputs": [
        {
          "indexed": true,
          "internalType": "address",
          "name": "from",
          "type": "address"
        },
        {
          "indexed": true,
          "internalType": "address",
          "name": "to",
          "type": "address"
        },
        {
          "indexed": true,
          "internalType": "uint256",
          "name": "chequeID",
          "type": "uint256"
        }
      ],
      "name": "Transfer",
      "type": "event"
    },
    {
      "anonymous": false,
      "inputs": [
        {
          "indexed": true,
          "internalType": "address",
          "name": "drawer",
          "type": "address"
        },
        {
          "indexed": true,
          "internalType": "address",
          "name": "auditor",
          "type": "address"
        },
        {
          "indexed": true,
          "internalType": "uint256",
          "name": "chequeID",
          "type": "uint256"
        }
      ],
      "name": "Void",
      "type": "event"
    },
    {
      "anonymous": false,
      "inputs": [
        {
          "indexed": true,
          "internalType": "address",
          "name": "_address",
          "type": "address"
        },
        {
          "indexed": false,
          "internalType": "uint256",
          "name": "amount",
          "type": "uint256"
        }
      ],
      "name": "Withdraw",
      "type": "event"
    },
    {
      "inputs": [
        {
          "internalType": "address",
          "name": "",
          "type": "address"
        },
        {
          "internalType": "uint256",
          "name": "",
          "type": "uint256"
        }
      ],
      "name": "acceptedAuditorUsers",
      "outputs": [
        {
          "internalType": "address",
          "name": "",
          "type": "address"
        }
      ],
      "stateMutability": "view",
      "type": "function",
      "constant": true
    },
    {
      "inputs": [
        {
          "internalType": "address",
          "name": "",
          "type": "address"
        },
        {
          "internalType": "uint256",
          "name": "",
          "type": "uint256"
        }
      ],
      "name": "acceptedUserAuditors",
      "outputs": [
        {
          "internalType": "address",
          "name": "",
          "type": "address"
        }
      ],
      "stateMutability": "view",
      "type": "function",
      "constant": true
    },
    {
      "inputs": [],
      "name": "addAuditorCooldown",
      "outputs": [
        {
          "internalType": "uint256",
          "name": "",
          "type": "uint256"
        }
      ],
      "stateMutability": "view",
      "type": "function",
      "constant": true
    },
    {
      "inputs": [
        {
          "internalType": "address",
          "name": "",
          "type": "address"
        },
        {
          "internalType": "uint256",
          "name": "",
          "type": "uint256"
        }
      ],
      "name": "auditorDurations",
      "outputs": [
        {
          "internalType": "bool",
          "name": "",
          "type": "bool"
        }
      ],
      "stateMutability": "view",
      "type": "function",
      "constant": true
    },
    {
      "inputs": [
        {
          "internalType": "address",
          "name": "",
          "type": "address"
        },
        {
          "internalType": "address",
          "name": "",
          "type": "address"
        }
      ],
      "name": "auditorUser",
      "outputs": [
        {
          "internalType": "bool",
          "name": "",
          "type": "bool"
        }
      ],
      "stateMutability": "view",
      "type": "function",
      "constant": true
    },
    {
      "inputs": [
        {
          "internalType": "address",
          "name": "",
          "type": "address"
        }
      ],
      "name": "chequeCount",
      "outputs": [
        {
          "internalType": "uint256",
          "name": "",
          "type": "uint256"
        }
      ],
      "stateMutability": "view",
      "type": "function",
      "constant": true
    },
    {
      "inputs": [
        {
          "internalType": "uint256",
          "name": "",
          "type": "uint256"
        }
      ],
      "name": "cheques",
      "outputs": [
        {
          "internalType": "uint256",
          "name": "amount",
          "type": "uint256"
        },
        {
          "internalType": "uint256",
          "name": "created",
          "type": "uint256"
        },
        {
          "internalType": "uint256",
          "name": "expiry",
          "type": "uint256"
        },
        {
          "internalType": "address",
          "name": "drawer",
          "type": "address"
        },
        {
          "internalType": "address",
          "name": "recipient",
          "type": "address"
        },
        {
          "internalType": "address",
          "name": "bearer",
          "type": "address"
        },
        {
          "internalType": "address",
          "name": "auditor",
          "type": "address"
        },
        {
          "internalType": "bool",
          "name": "voided",
          "type": "bool"
        },
        {
          "internalType": "bool",
          "name": "transferable",
          "type": "bool"
        },
        {
          "internalType": "string",
          "name": "memo",
          "type": "string"
        }
      ],
      "stateMutability": "view",
      "type": "function",
      "constant": true
    },
    {
      "inputs": [
        {
          "internalType": "address",
          "name": "",
          "type": "address"
        }
      ],
      "name": "deposits",
      "outputs": [
        {
          "internalType": "uint256",
          "name": "",
          "type": "uint256"
        }
      ],
      "stateMutability": "view",
      "type": "function",
      "constant": true
    },
    {
      "inputs": [
        {
          "internalType": "address",
          "name": "",
          "type": "address"
        }
      ],
      "name": "lastTrustedChange",
      "outputs": [
        {
          "internalType": "uint256",
          "name": "",
          "type": "uint256"
        }
      ],
      "stateMutability": "view",
      "type": "function",
      "constant": true
    },
    {
      "inputs": [],
      "name": "p2pLimit",
      "outputs": [
        {
          "internalType": "uint256",
          "name": "",
          "type": "uint256"
        }
      ],
      "stateMutability": "view",
      "type": "function",
      "constant": true
    },
    {
      "inputs": [],
      "name": "protocolFee",
      "outputs": [
        {
          "internalType": "uint256",
          "name": "",
          "type": "uint256"
        }
      ],
      "stateMutability": "view",
      "type": "function",
      "constant": true
    },
    {
      "inputs": [],
      "name": "protocolReserve",
      "outputs": [
        {
          "internalType": "uint256",
          "name": "",
          "type": "uint256"
        }
      ],
      "stateMutability": "view",
      "type": "function",
      "constant": true
    },
    {
      "inputs": [],
      "name": "totalSupply",
      "outputs": [
        {
          "internalType": "uint256",
          "name": "",
          "type": "uint256"
        }
      ],
      "stateMutability": "view",
      "type": "function",
      "constant": true
    },
    {
      "inputs": [
        {
          "internalType": "address",
          "name": "",
          "type": "address"
        }
      ],
      "name": "trustedAccount",
      "outputs": [
        {
          "internalType": "address",
          "name": "",
          "type": "address"
        }
      ],
      "stateMutability": "view",
      "type": "function",
      "constant": true
    },
    {
      "inputs": [],
      "name": "trustedAccountCooldown",
      "outputs": [
        {
          "internalType": "uint256",
          "name": "",
          "type": "uint256"
        }
      ],
      "stateMutability": "view",
      "type": "function",
      "constant": true
    },
    {
      "inputs": [
        {
          "internalType": "address",
          "name": "",
          "type": "address"
        },
        {
          "internalType": "address",
          "name": "",
          "type": "address"
        }
      ],
      "name": "userAuditor",
      "outputs": [
        {
          "internalType": "bool",
          "name": "",
          "type": "bool"
        }
      ],
      "stateMutability": "view",
      "type": "function",
      "constant": true
    },
    {
      "stateMutability": "payable",
      "type": "receive",
      "payable": true
    },
    {
      "inputs": [
        {
          "internalType": "address",
          "name": "_address",
          "type": "address"
        }
      ],
      "name": "depositTo",
      "outputs": [],
      "stateMutability": "payable",
      "type": "function",
      "payable": true
    },
    {
      "inputs": [
        {
          "internalType": "uint256",
          "name": "_protocolFee",
          "type": "uint256"
        }
      ],
      "name": "setProtocolFee",
      "outputs": [],
      "stateMutability": "nonpayable",
      "type": "function"
    },
    {
      "inputs": [
        {
          "internalType": "address",
          "name": "auditor",
          "type": "address"
        },
        {
          "internalType": "address",
          "name": "recipient",
          "type": "address"
        },
        {
          "internalType": "uint256",
          "name": "chequeID",
          "type": "uint256"
        }
      ],
      "name": "addPayRecipient",
      "outputs": [],
      "stateMutability": "nonpayable",
      "type": "function"
    },
    {
      "inputs": [
        {
          "internalType": "uint256",
          "name": "amount",
          "type": "uint256"
        },
        {
          "internalType": "uint256",
          "name": "duration",
          "type": "uint256"
        },
        {
          "internalType": "address",
          "name": "auditor",
          "type": "address"
        },
        {
          "internalType": "address",
          "name": "recipient",
          "type": "address"
        },
        {
          "internalType": "string",
          "name": "_memo",
          "type": "string"
        }
      ],
      "name": "writeCheque",
      "outputs": [],
      "stateMutability": "nonpayable",
      "type": "function"
    },
    {
      "inputs": [
        {
          "internalType": "uint256",
          "name": "amount",
          "type": "uint256"
        },
        {
          "internalType": "uint256",
          "name": "duration",
          "type": "uint256"
        },
        {
          "internalType": "address",
          "name": "auditor",
          "type": "address"
        },
        {
          "internalType": "string",
          "name": "_memo",
          "type": "string"
        }
      ],
      "name": "writeCheque",
      "outputs": [],
      "stateMutability": "nonpayable",
      "type": "function"
    },
    {
      "inputs": [
        {
          "internalType": "uint256",
          "name": "chequeID",
          "type": "uint256"
        }
      ],
      "name": "cashCheque",
      "outputs": [],
      "stateMutability": "nonpayable",
      "type": "function"
    },
    {
      "inputs": [
        {
          "internalType": "uint256",
          "name": "chequeID",
          "type": "uint256"
        }
      ],
      "name": "voidCheque",
      "outputs": [],
      "stateMutability": "nonpayable",
      "type": "function"
    },
    {
      "inputs": [
        {
          "internalType": "uint256",
          "name": "chequeID",
          "type": "uint256"
        }
      ],
      "name": "voidRescueCheque",
      "outputs": [],
      "stateMutability": "nonpayable",
      "type": "function"
    },
    {
      "inputs": [
        {
          "internalType": "uint256",
          "name": "_amount",
          "type": "uint256"
        },
        {
          "internalType": "address",
          "name": "_to",
          "type": "address"
        }
      ],
      "name": "directTransfer",
      "outputs": [],
      "stateMutability": "nonpayable",
      "type": "function"
    },
    {
      "inputs": [
        {
          "internalType": "address",
          "name": "to",
          "type": "address"
        },
        {
          "internalType": "uint256",
          "name": "chequeID",
          "type": "uint256"
        }
      ],
      "name": "transfer",
      "outputs": [],
      "stateMutability": "nonpayable",
      "type": "function"
    },
    {
      "inputs": [
        {
          "internalType": "uint256",
          "name": "_amount",
          "type": "uint256"
        }
      ],
      "name": "withdraw",
      "outputs": [],
      "stateMutability": "nonpayable",
      "type": "function"
    },
    {
      "inputs": [
        {
          "internalType": "address",
          "name": "auditor",
          "type": "address"
        }
      ],
      "name": "acceptAuditor",
      "outputs": [
        {
          "internalType": "bool",
          "name": "",
          "type": "bool"
        }
      ],
      "stateMutability": "nonpayable",
      "type": "function"
    },
    {
      "inputs": [
        {
          "internalType": "address",
          "name": "drawer",
          "type": "address"
        }
      ],
      "name": "acceptUser",
      "outputs": [
        {
          "internalType": "bool",
          "name": "",
          "type": "bool"
        }
      ],
      "stateMutability": "nonpayable",
      "type": "function"
    },
    {
      "inputs": [
        {
          "internalType": "uint256",
          "name": "duration",
          "type": "uint256"
        }
      ],
      "name": "setAllowedDuration",
      "outputs": [],
      "stateMutability": "nonpayable",
      "type": "function"
    },
    {
      "inputs": [
        {
          "internalType": "address",
          "name": "account",
          "type": "address"
        }
      ],
      "name": "setTrustedAccount",
      "outputs": [],
      "stateMutability": "nonpayable",
      "type": "function"
    },
    {
      "inputs": [
        {
          "internalType": "uint256",
          "name": "chequeId",
          "type": "uint256"
        }
      ],
      "name": "chequeDrawer",
      "outputs": [
        {
          "internalType": "address",
          "name": "",
          "type": "address"
        }
      ],
      "stateMutability": "view",
      "type": "function",
      "constant": true
    },
    {
      "inputs": [
        {
          "internalType": "uint256",
          "name": "chequeId",
          "type": "uint256"
        }
      ],
      "name": "chequeRecipient",
      "outputs": [
        {
          "internalType": "address",
          "name": "",
          "type": "address"
        }
      ],
      "stateMutability": "view",
      "type": "function",
      "constant": true
    },
    {
      "inputs": [
        {
          "internalType": "uint256",
          "name": "chequeId",
          "type": "uint256"
        }
      ],
      "name": "ownerOf",
      "outputs": [
        {
          "internalType": "address",
          "name": "",
          "type": "address"
        }
      ],
      "stateMutability": "view",
      "type": "function",
      "constant": true
    },
    {
      "inputs": [
        {
          "internalType": "uint256",
          "name": "chequeId",
          "type": "uint256"
        }
      ],
      "name": "chequeAuditor",
      "outputs": [
        {
          "internalType": "address",
          "name": "",
          "type": "address"
        }
      ],
      "stateMutability": "view",
      "type": "function",
      "constant": true
    },
    {
      "inputs": [
        {
          "internalType": "uint256",
          "name": "chequeId",
          "type": "uint256"
        }
      ],
      "name": "chequeAmount",
      "outputs": [
        {
          "internalType": "uint256",
          "name": "",
          "type": "uint256"
        }
      ],
      "stateMutability": "view",
      "type": "function",
      "constant": true
    },
    {
      "inputs": [
        {
          "internalType": "uint256",
          "name": "chequeId",
          "type": "uint256"
        }
      ],
      "name": "chequeExpiry",
      "outputs": [
        {
          "internalType": "uint256",
          "name": "",
          "type": "uint256"
        }
      ],
      "stateMutability": "view",
      "type": "function",
      "constant": true
    },
    {
      "inputs": [
        {
          "internalType": "uint256",
          "name": "chequeId",
          "type": "uint256"
        }
      ],
      "name": "chequeVoided",
      "outputs": [
        {
          "internalType": "bool",
          "name": "",
          "type": "bool"
        }
      ],
      "stateMutability": "view",
      "type": "function",
      "constant": true
    },
    {
      "inputs": [
        {
          "internalType": "uint256",
          "name": "chequeId",
          "type": "uint256"
        }
      ],
      "name": "chequeTransferable",
      "outputs": [
        {
          "internalType": "bool",
          "name": "",
          "type": "bool"
        }
      ],
      "stateMutability": "view",
      "type": "function",
      "constant": true
    },
    {
      "inputs": [
        {
          "internalType": "uint256",
          "name": "chequeId",
          "type": "uint256"
        }
      ],
      "name": "chequeCreated",
      "outputs": [
        {
          "internalType": "uint256",
          "name": "",
          "type": "uint256"
        }
      ],
      "stateMutability": "view",
      "type": "function",
      "constant": true
    },
    {
      "inputs": [
        {
          "internalType": "address",
          "name": "_address",
          "type": "address"
        }
      ],
      "name": "getAcceptedUserAuditors",
      "outputs": [
        {
          "internalType": "address[]",
          "name": "",
          "type": "address[]"
        }
      ],
      "stateMutability": "view",
      "type": "function",
      "constant": true
    },
    {
      "inputs": [
        {
          "internalType": "address",
          "name": "_address",
          "type": "address"
        }
      ],
      "name": "getAcceptedAuditorUsers",
      "outputs": [
        {
          "internalType": "address[]",
          "name": "",
          "type": "address[]"
        }
      ],
      "stateMutability": "view",
      "type": "function",
      "constant": true
    }
  ],
  "bytecode": "0x608060405262ed4e00600b5562015180600c55670de0b6b3a7640000600d5534801561002a57600080fd5b50614da08061003a6000396000f3fe6080604052600436106102555760003560e01c8063787dce3d11610139578063bc3ee717116100b6578063e1a45a541161007a578063e1a45a54146109af578063e50c42b0146109da578063e5e8343a14610a17578063fafd92da14610a54578063fc7e286d14610a7f578063fc9a7cfd14610abc57610266565b8063bc3ee717146108a4578063c1d6fa08146108e1578063cb3b5a261461091e578063d02fd16414610947578063d7ad71eb1461097257610266565b8063a74d6701116100fd578063a74d6701146107ce578063a9059cbb146107f7578063b0e21e8a14610820578063b760faf91461084b578063bb2d42b91461086757610266565b8063787dce3d146106c357806386cb5e07146106ec5780638b9444231461072957806390090fe61461075457806396753bec1461079157610266565b806345fc5443116101d25780636352211e116101965780636352211e1461057d5780636f46bd8e146105ba57806372e3de5d146105f75780637456a2011461063457806374ff0d4a1461065d57806376696e801461068657610266565b806345fc54431461046b5780634663b4dc146104a85780634877eff7146104d157806351208fe41461050e578063584b22d11461055457610266565b806318160ddd1161021957806318160ddd14610388578063212b0a2f146103b357806322cb4433146103dc5780632e1a7d4d1461041957806343707fc01461044257610266565b8063055e46ff1461026b578063067893461461029457806308bdc24d146102d1578063122229ed1461030e578063133f65711461034b57610266565b36610266576102643334610af9565b005b600080fd5b34801561027757600080fd5b50610292600480360381019061028d9190613a9e565b610ba1565b005b3480156102a057600080fd5b506102bb60048036038101906102b69190613af1565b610e89565b6040516102c89190613b2d565b60405180910390f35b3480156102dd57600080fd5b506102f860048036038101906102f39190613b48565b610ea9565b6040516103059190613b90565b60405180910390f35b34801561031a57600080fd5b5061033560048036038101906103309190613b48565b61120b565b6040516103429190613c69565b60405180910390f35b34801561035757600080fd5b50610372600480360381019061036d9190613b48565b6112d8565b60405161037f9190613c69565b60405180910390f35b34801561039457600080fd5b5061039d6113a5565b6040516103aa9190613b2d565b60405180910390f35b3480156103bf57600080fd5b506103da60048036038101906103d59190613cf0565b6113ab565b005b3480156103e857600080fd5b5061040360048036038101906103fe9190613d8a565b611bb5565b6040516104109190613b90565b60405180910390f35b34801561042557600080fd5b50610440600480360381019061043b9190613af1565b611be4565b005b34801561044e57600080fd5b5061046960048036038101906104649190613af1565b611d40565b005b34801561047757600080fd5b50610492600480360381019061048d9190613af1565b6120ed565b60405161049f9190613dd9565b60405180910390f35b3480156104b457600080fd5b506104cf60048036038101906104ca9190613af1565b61212d565b005b3480156104dd57600080fd5b506104f860048036038101906104f39190613b48565b6123f6565b6040516105059190613b2d565b60405180910390f35b34801561051a57600080fd5b5061053560048036038101906105309190613af1565b61240e565b60405161054b9a99989796959493929190613e84565b60405180910390f35b34801561056057600080fd5b5061057b60048036038101906105769190613af1565b612584565b005b34801561058957600080fd5b506105a4600480360381019061059f9190613af1565b6125f0565b6040516105b19190613dd9565b60405180910390f35b3480156105c657600080fd5b506105e160048036038101906105dc9190613af1565b612630565b6040516105ee9190613b90565b60405180910390f35b34801561060357600080fd5b5061061e60048036038101906106199190613af1565b61265d565b60405161062b9190613b90565b60405180910390f35b34801561064057600080fd5b5061065b60048036038101906106569190613f27565b61268a565b005b34801561066957600080fd5b50610684600480360381019061067f9190613f67565b61277f565b005b34801561069257600080fd5b506106ad60048036038101906106a89190613b48565b612df8565b6040516106ba9190613b2d565b60405180910390f35b3480156106cf57600080fd5b506106ea60048036038101906106e59190613af1565b612e10565b005b3480156106f857600080fd5b50610713600480360381019061070e9190613af1565b612e51565b6040516107209190613dd9565b60405180910390f35b34801561073557600080fd5b5061073e612e91565b60405161074b9190613b2d565b60405180910390f35b34801561076057600080fd5b5061077b60048036038101906107769190613af1565b612e97565b6040516107889190613dd9565b60405180910390f35b34801561079d57600080fd5b506107b860048036038101906107b39190613fef565b612ed7565b6040516107c59190613b90565b60405180910390f35b3480156107da57600080fd5b506107f560048036038101906107f09190613af1565b612f06565b005b34801561080357600080fd5b5061081e60048036038101906108199190613d8a565b6131fc565b005b34801561082c57600080fd5b506108356133d1565b6040516108429190613b2d565b60405180910390f35b61086560048036038101906108609190613b48565b6133d7565b005b34801561087357600080fd5b5061088e60048036038101906108899190613fef565b6133e4565b60405161089b9190613b90565b60405180910390f35b3480156108b057600080fd5b506108cb60048036038101906108c69190613b48565b613413565b6040516108d89190613dd9565b60405180910390f35b3480156108ed57600080fd5b5061090860048036038101906109039190613d8a565b613446565b6040516109159190613dd9565b60405180910390f35b34801561092a57600080fd5b5061094560048036038101906109409190613b48565b613494565b005b34801561095357600080fd5b5061095c6135e7565b6040516109699190613b2d565b60405180910390f35b34801561097e57600080fd5b5061099960048036038101906109949190613af1565b6135ed565b6040516109a69190613b2d565b60405180910390f35b3480156109bb57600080fd5b506109c461360d565b6040516109d19190613b2d565b60405180910390f35b3480156109e657600080fd5b50610a0160048036038101906109fc9190613af1565b613613565b604051610a0e9190613b2d565b60405180910390f35b348015610a2357600080fd5b50610a3e6004803603810190610a399190613d8a565b613633565b604051610a4b9190613dd9565b60405180910390f35b348015610a6057600080fd5b50610a69613681565b604051610a769190613b2d565b60405180910390f35b348015610a8b57600080fd5b50610aa66004803603810190610aa19190613b48565b613687565b604051610ab39190613b2d565b60405180910390f35b348015610ac857600080fd5b50610ae36004803603810190610ade9190613b48565b61369f565b604051610af09190613b90565b60405180910390f35b80600760008473ffffffffffffffffffffffffffffffffffffffff1673ffffffffffffffffffffffffffffffffffffffff1681526020019081526020016000206000828254610b48919061405e565b925050819055508173ffffffffffffffffffffffffffffffffffffffff167fe1fffcc4923d04b559f4d29a8bfc6cda04eb5b0d3c460751c2402c5c5cc9109c82604051610b959190613b2d565b60405180910390a25050565b60006005600083815260200190815260200160002090503373ffffffffffffffffffffffffffffffffffffffff168160030160009054906101000a900473ffffffffffffffffffffffffffffffffffffffff1673ffffffffffffffffffffffffffffffffffffffff16148015610c6657503373ffffffffffffffffffffffffffffffffffffffff168160050160009054906101000a900473ffffffffffffffffffffffffffffffffffffffff1673ffffffffffffffffffffffffffffffffffffffff16145b610ca5576040517f08c379a0000000000000000000000000000000000000000000000000000000008152600401610c9c90614104565b60405180910390fd5b600260008573ffffffffffffffffffffffffffffffffffffffff1673ffffffffffffffffffffffffffffffffffffffff16815260200190815260200160002060008473ffffffffffffffffffffffffffffffffffffffff1673ffffffffffffffffffffffffffffffffffffffff16815260200190815260200160002060009054906101000a900460ff16610d6e576040517f08c379a0000000000000000000000000000000000000000000000000000000008152600401610d6590614196565b60405180910390fd5b6000808473ffffffffffffffffffffffffffffffffffffffff1673ffffffffffffffffffffffffffffffffffffffff16815260200190815260200160002060008573ffffffffffffffffffffffffffffffffffffffff1673ffffffffffffffffffffffffffffffffffffffff16815260200190815260200160002060009054906101000a900460ff16610e36576040517f08c379a0000000000000000000000000000000000000000000000000000000008152600401610e2d90614228565b60405180910390fd5b828160040160006101000a81548173ffffffffffffffffffffffffffffffffffffffff021916908373ffffffffffffffffffffffffffffffffffffffff160217905550610e8383836131fc565b50505050565b600060056000838152602001908152602001600020600101549050919050565b6000600260003373ffffffffffffffffffffffffffffffffffffffff1673ffffffffffffffffffffffffffffffffffffffff16815260200190815260200160002060008373ffffffffffffffffffffffffffffffffffffffff1673ffffffffffffffffffffffffffffffffffffffff16815260200190815260200160002060009054906101000a900460ff1615610f435760019050611206565b6001600260003373ffffffffffffffffffffffffffffffffffffffff1673ffffffffffffffffffffffffffffffffffffffff16815260200190815260200160002060008473ffffffffffffffffffffffffffffffffffffffff1673ffffffffffffffffffffffffffffffffffffffff16815260200190815260200160002060006101000a81548160ff0219169083151502179055506000808373ffffffffffffffffffffffffffffffffffffffff1673ffffffffffffffffffffffffffffffffffffffff16815260200190815260200160002060003373ffffffffffffffffffffffffffffffffffffffff1673ffffffffffffffffffffffffffffffffffffffff16815260200190815260200160002060009054906101000a900460ff16156111a757600160008373ffffffffffffffffffffffffffffffffffffffff1673ffffffffffffffffffffffffffffffffffffffff168152602001908152602001600020339080600181540180825580915050600190039060005260206000200160009091909190916101000a81548173ffffffffffffffffffffffffffffffffffffffff021916908373ffffffffffffffffffffffffffffffffffffffff160217905550600360003373ffffffffffffffffffffffffffffffffffffffff1673ffffffffffffffffffffffffffffffffffffffff168152602001908152602001600020829080600181540180825580915050600190039060005260206000200160009091909190916101000a81548173ffffffffffffffffffffffffffffffffffffffff021916908373ffffffffffffffffffffffffffffffffffffffff1602179055505b8173ffffffffffffffffffffffffffffffffffffffff163373ffffffffffffffffffffffffffffffffffffffff167f078dc5664c64160be6b3015282df84a6fba4f7887007587d8b836aada89801c760405160405180910390a3600190505b919050565b6060600160008373ffffffffffffffffffffffffffffffffffffffff1673ffffffffffffffffffffffffffffffffffffffff1681526020019081526020016000208054806020026020016040519081016040528092919081815260200182805480156112cc57602002820191906000526020600020905b8160009054906101000a900473ffffffffffffffffffffffffffffffffffffffff1673ffffffffffffffffffffffffffffffffffffffff1681526020019060010190808311611282575b50505050509050919050565b6060600360008373ffffffffffffffffffffffffffffffffffffffff1673ffffffffffffffffffffffffffffffffffffffff16815260200190815260200160002080548060200260200160405190810160405280929190818152602001828054801561139957602002820191906000526020600020905b8160009054906101000a900473ffffffffffffffffffffffffffffffffffffffff1673ffffffffffffffffffffffffffffffffffffffff168152602001906001019080831161134f575b50505050509050919050565b60085481565b85600760003373ffffffffffffffffffffffffffffffffffffffff1673ffffffffffffffffffffffffffffffffffffffff16815260200190815260200160002054101561142d576040517f08c379a000000000000000000000000000000000000000000000000000000000815260040161142490614294565b60405180910390fd5b6000803373ffffffffffffffffffffffffffffffffffffffff1673ffffffffffffffffffffffffffffffffffffffff16815260200190815260200160002060008573ffffffffffffffffffffffffffffffffffffffff1673ffffffffffffffffffffffffffffffffffffffff16815260200190815260200160002060009054906101000a900460ff166114f5576040517f08c379a00000000000000000000000000000000000000000000000000000000081526004016114ec90614300565b60405180910390fd5b6000808473ffffffffffffffffffffffffffffffffffffffff1673ffffffffffffffffffffffffffffffffffffffff16815260200190815260200160002060008573ffffffffffffffffffffffffffffffffffffffff1673ffffffffffffffffffffffffffffffffffffffff16815260200190815260200160002060009054906101000a900460ff166115bd576040517f08c379a00000000000000000000000000000000000000000000000000000000081526004016115b490614228565b60405180910390fd5b600260008573ffffffffffffffffffffffffffffffffffffffff1673ffffffffffffffffffffffffffffffffffffffff16815260200190815260200160002060003373ffffffffffffffffffffffffffffffffffffffff1673ffffffffffffffffffffffffffffffffffffffff16815260200190815260200160002060009054906101000a900460ff16611686576040517f08c379a000000000000000000000000000000000000000000000000000000000815260040161167d9061436c565b60405180910390fd5b600260008573ffffffffffffffffffffffffffffffffffffffff1673ffffffffffffffffffffffffffffffffffffffff16815260200190815260200160002060008473ffffffffffffffffffffffffffffffffffffffff1673ffffffffffffffffffffffffffffffffffffffff16815260200190815260200160002060009054906101000a900460ff1661174f576040517f08c379a000000000000000000000000000000000000000000000000000000000815260040161174690614196565b60405180910390fd5b600460008573ffffffffffffffffffffffffffffffffffffffff1673ffffffffffffffffffffffffffffffffffffffff168152602001908152602001600020600086815260200190815260200160002060009054906101000a900460ff166117ec576040517f08c379a00000000000000000000000000000000000000000000000000000000081526004016117e3906143fe565b60405180910390fd5b85600760003373ffffffffffffffffffffffffffffffffffffffff1673ffffffffffffffffffffffffffffffffffffffff168152602001908152602001600020600082825461183b919061441e565b92505081905550600160086000828254611855919061405e565b925050819055506001600660008573ffffffffffffffffffffffffffffffffffffffff1673ffffffffffffffffffffffffffffffffffffffff16815260200190815260200160002060008282546118ac919061405e565b9250508190555060405180610140016040528087815260200142815260200186426118d7919061405e565b81526020013373ffffffffffffffffffffffffffffffffffffffff1681526020018473ffffffffffffffffffffffffffffffffffffffff1681526020018473ffffffffffffffffffffffffffffffffffffffff1681526020018573ffffffffffffffffffffffffffffffffffffffff16815260200160001515815260200160011515815260200183838080601f016020809104026020016040519081016040528093929190818152602001838380828437600081840152601f19601f8201169050808301925050505050505081525060056000600854815260200190815260200160002060008201518160000155602082015181600101556040820151816002015560608201518160030160006101000a81548173ffffffffffffffffffffffffffffffffffffffff021916908373ffffffffffffffffffffffffffffffffffffffff16021790555060808201518160040160006101000a81548173ffffffffffffffffffffffffffffffffffffffff021916908373ffffffffffffffffffffffffffffffffffffffff16021790555060a08201518160050160006101000a81548173ffffffffffffffffffffffffffffffffffffffff021916908373ffffffffffffffffffffffffffffffffffffffff16021790555060c08201518160060160006101000a81548173ffffffffffffffffffffffffffffffffffffffff021916908373ffffffffffffffffffffffffffffffffffffffff16021790555060e08201518160060160146101000a81548160ff0219169083151502179055506101008201518160060160156101000a81548160ff021916908315150217905550610120820151816007019081611b4c919061468d565b509050506008548373ffffffffffffffffffffffffffffffffffffffff163373ffffffffffffffffffffffffffffffffffffffff167fddf252ad1be2c89b69c2b068fc378daa952ba7f163c4a11628f55a4df523b3ef60405160405180910390a4505050505050565b60046020528160005260406000206020528060005260406000206000915091509054906101000a900460ff1681565b80600f541015611c29576040517f08c379a0000000000000000000000000000000000000000000000000000000008152600401611c20906147d1565b60405180910390fd5b80600f6000828254611c3b919061441e565b9250508190555060003373ffffffffffffffffffffffffffffffffffffffff1682604051611c6890614822565b60006040518083038185875af1925050503d8060008114611ca5576040519150601f19603f3d011682016040523d82523d6000602084013e611caa565b606091505b5050905080611cee576040517f08c379a0000000000000000000000000000000000000000000000000000000008152600401611ce590614883565b60405180910390fd5b3373ffffffffffffffffffffffffffffffffffffffff167f884edad9ce6fa2440d8a54cc123490eb96d2768479d49ff9c7366125a942436483604051611d349190613b2d565b60405180910390a25050565b60006005600083815260200190815260200160002090503373ffffffffffffffffffffffffffffffffffffffff168160060160009054906101000a900473ffffffffffffffffffffffffffffffffffffffff1673ffffffffffffffffffffffffffffffffffffffff1614611de9576040517f08c379a0000000000000000000000000000000000000000000000000000000008152600401611de0906148ef565b60405180910390fd5b42816002015410611e2f576040517f08c379a0000000000000000000000000000000000000000000000000000000008152600401611e269061495b565b60405180910390fd5b60018160060160146101000a81548160ff02191690831515021790555060008160060160156101000a81548160ff0219169083151502179055506001600660008360050160009054906101000a900473ffffffffffffffffffffffffffffffffffffffff1673ffffffffffffffffffffffffffffffffffffffff1673ffffffffffffffffffffffffffffffffffffffff1681526020019081526020016000206000828254611edd919061441e565b925050819055506000600960008360030160009054906101000a900473ffffffffffffffffffffffffffffffffffffffff1673ffffffffffffffffffffffffffffffffffffffff1673ffffffffffffffffffffffffffffffffffffffff16815260200190815260200160002060009054906101000a900473ffffffffffffffffffffffffffffffffffffffff1690508160000154600760008373ffffffffffffffffffffffffffffffffffffffff1673ffffffffffffffffffffffffffffffffffffffff1681526020019081526020016000206000828254611fbf919061405e565b92505081905550828260060160009054906101000a900473ffffffffffffffffffffffffffffffffffffffff1673ffffffffffffffffffffffffffffffffffffffff168360030160009054906101000a900473ffffffffffffffffffffffffffffffffffffffff1673ffffffffffffffffffffffffffffffffffffffff167fea3bb9cc6e72cd3053091f2031a5c9606f318e8220e0a781142e33c23431baa060405160405180910390a4828173ffffffffffffffffffffffffffffffffffffffff168360050160009054906101000a900473ffffffffffffffffffffffffffffffffffffffff1673ffffffffffffffffffffffffffffffffffffffff167fddf252ad1be2c89b69c2b068fc378daa952ba7f163c4a11628f55a4df523b3ef60405160405180910390a4505050565b60006005600083815260200190815260200160002060040160009054906101000a900473ffffffffffffffffffffffffffffffffffffffff169050919050565b60006005600083815260200190815260200160002090503373ffffffffffffffffffffffffffffffffffffffff168160060160009054906101000a900473ffffffffffffffffffffffffffffffffffffffff1673ffffffffffffffffffffffffffffffffffffffff16146121d6576040517f08c379a00000000000000000000000000000000000000000000000000000000081526004016121cd906148ef565b60405180910390fd5b4281600201541061221c576040517f08c379a00000000000000000000000000000000000000000000000000000000081526004016122139061495b565b60405180910390fd5b60018160060160146101000a81548160ff02191690831515021790555060008160060160156101000a81548160ff0219169083151502179055506001600660008360050160009054906101000a900473ffffffffffffffffffffffffffffffffffffffff1673ffffffffffffffffffffffffffffffffffffffff1673ffffffffffffffffffffffffffffffffffffffff16815260200190815260200160002060008282546122ca919061441e565b925050819055508060000154600760008360030160009054906101000a900473ffffffffffffffffffffffffffffffffffffffff1673ffffffffffffffffffffffffffffffffffffffff1673ffffffffffffffffffffffffffffffffffffffff1681526020019081526020016000206000828254612348919061405e565b92505081905550818160060160009054906101000a900473ffffffffffffffffffffffffffffffffffffffff1673ffffffffffffffffffffffffffffffffffffffff168260030160009054906101000a900473ffffffffffffffffffffffffffffffffffffffff1673ffffffffffffffffffffffffffffffffffffffff167fea3bb9cc6e72cd3053091f2031a5c9606f318e8220e0a781142e33c23431baa060405160405180910390a45050565b60066020528060005260406000206000915090505481565b60056020528060005260406000206000915090508060000154908060010154908060020154908060030160009054906101000a900473ffffffffffffffffffffffffffffffffffffffff16908060040160009054906101000a900473ffffffffffffffffffffffffffffffffffffffff16908060050160009054906101000a900473ffffffffffffffffffffffffffffffffffffffff16908060060160009054906101000a900473ffffffffffffffffffffffffffffffffffffffff16908060060160149054906101000a900460ff16908060060160159054906101000a900460ff1690806007018054612501906144b0565b80601f016020809104026020016040519081016040528092919081815260200182805461252d906144b0565b801561257a5780601f1061254f5761010080835404028352916020019161257a565b820191906000526020600020905b81548152906001019060200180831161255d57829003601f168201915b505050505090508a565b6001600460003373ffffffffffffffffffffffffffffffffffffffff1673ffffffffffffffffffffffffffffffffffffffff168152602001908152602001600020600083815260200190815260200160002060006101000a81548160ff02191690831515021790555050565b60006005600083815260200190815260200160002060050160009054906101000a900473ffffffffffffffffffffffffffffffffffffffff169050919050565b60006005600083815260200190815260200160002060060160149054906101000a900460ff169050919050565b60006005600083815260200190815260200160002060060160159054906101000a900460ff169050919050565b600d548211156126cf576040517f08c379a00000000000000000000000000000000000000000000000000000000081526004016126c69061499e565b60405180910390fd5b81600760003373ffffffffffffffffffffffffffffffffffffffff1673ffffffffffffffffffffffffffffffffffffffff168152602001908152602001600020600082825461271e919061441e565b9250508190555081600760008373ffffffffffffffffffffffffffffffffffffffff1673ffffffffffffffffffffffffffffffffffffffff1681526020019081526020016000206000828254612774919061405e565b925050819055505050565b84600760003373ffffffffffffffffffffffffffffffffffffffff1673ffffffffffffffffffffffffffffffffffffffff168152602001908152602001600020541015612801576040517f08c379a00000000000000000000000000000000000000000000000000000000081526004016127f890614294565b60405180910390fd5b6000803373ffffffffffffffffffffffffffffffffffffffff1673ffffffffffffffffffffffffffffffffffffffff16815260200190815260200160002060008473ffffffffffffffffffffffffffffffffffffffff1673ffffffffffffffffffffffffffffffffffffffff16815260200190815260200160002060009054906101000a900460ff166128c9576040517f08c379a00000000000000000000000000000000000000000000000000000000081526004016128c090614a0a565b60405180910390fd5b600260008473ffffffffffffffffffffffffffffffffffffffff1673ffffffffffffffffffffffffffffffffffffffff16815260200190815260200160002060003373ffffffffffffffffffffffffffffffffffffffff1673ffffffffffffffffffffffffffffffffffffffff16815260200190815260200160002060009054906101000a900460ff16612992576040517f08c379a000000000000000000000000000000000000000000000000000000000815260040161298990614a9c565b60405180910390fd5b600460008473ffffffffffffffffffffffffffffffffffffffff1673ffffffffffffffffffffffffffffffffffffffff168152602001908152602001600020600085815260200190815260200160002060009054906101000a900460ff16612a2f576040517f08c379a0000000000000000000000000000000000000000000000000000000008152600401612a26906143fe565b60405180910390fd5b84600760003373ffffffffffffffffffffffffffffffffffffffff1673ffffffffffffffffffffffffffffffffffffffff1681526020019081526020016000206000828254612a7e919061441e565b92505081905550600160086000828254612a98919061405e565b925050819055506001600660003373ffffffffffffffffffffffffffffffffffffffff1673ffffffffffffffffffffffffffffffffffffffff1681526020019081526020016000206000828254612aef919061405e565b925050819055506040518061014001604052808681526020014281526020018542612b1a919061405e565b81526020013373ffffffffffffffffffffffffffffffffffffffff1681526020013373ffffffffffffffffffffffffffffffffffffffff1681526020013373ffffffffffffffffffffffffffffffffffffffff1681526020018473ffffffffffffffffffffffffffffffffffffffff16815260200160001515815260200160011515815260200183838080601f016020809104026020016040519081016040528093929190818152602001838380828437600081840152601f19601f8201169050808301925050505050505081525060056000600854815260200190815260200160002060008201518160000155602082015181600101556040820151816002015560608201518160030160006101000a81548173ffffffffffffffffffffffffffffffffffffffff021916908373ffffffffffffffffffffffffffffffffffffffff16021790555060808201518160040160006101000a81548173ffffffffffffffffffffffffffffffffffffffff021916908373ffffffffffffffffffffffffffffffffffffffff16021790555060a08201518160050160006101000a81548173ffffffffffffffffffffffffffffffffffffffff021916908373ffffffffffffffffffffffffffffffffffffffff16021790555060c08201518160060160006101000a81548173ffffffffffffffffffffffffffffffffffffffff021916908373ffffffffffffffffffffffffffffffffffffffff16021790555060e08201518160060160146101000a81548160ff0219169083151502179055506101008201518160060160156101000a81548160ff021916908315150217905550610120820151816007019081612d8f919061468d565b509050506008543373ffffffffffffffffffffffffffffffffffffffff16600073ffffffffffffffffffffffffffffffffffffffff167fddf252ad1be2c89b69c2b068fc378daa952ba7f163c4a11628f55a4df523b3ef60405160405180910390a45050505050565b600a6020528060005260406000206000915090505481565b80600e819055507fdc0410a296e1e33943a772020d333d5f99319d7fcad932a484c53889f7aaa2b181604051612e469190613b2d565b60405180910390a150565b60006005600083815260200190815260200160002060060160009054906101000a900473ffffffffffffffffffffffffffffffffffffffff169050919050565b600b5481565b60006005600083815260200190815260200160002060030160009054906101000a900473ffffffffffffffffffffffffffffffffffffffff169050919050565b60026020528160005260406000206020528060005260406000206000915091509054906101000a900460ff1681565b60006005600083815260200190815260200160002090503373ffffffffffffffffffffffffffffffffffffffff168160050160009054906101000a900473ffffffffffffffffffffffffffffffffffffffff1673ffffffffffffffffffffffffffffffffffffffff1614612faf576040517f08c379a0000000000000000000000000000000000000000000000000000000008152600401612fa690614b08565b60405180910390fd5b42816002015411612ff5576040517f08c379a0000000000000000000000000000000000000000000000000000000008152600401612fec90614b74565b60405180910390fd5b8060060160149054906101000a900460ff1615613047576040517f08c379a000000000000000000000000000000000000000000000000000000000815260040161303e90614be0565b60405180910390fd5b60018160060160146101000a81548160ff02191690831515021790555060003373ffffffffffffffffffffffffffffffffffffffff16826000015460405161308e90614822565b60006040518083038185875af1925050503d80600081146130cb576040519150601f19603f3d011682016040523d82523d6000602084013e6130d0565b606091505b5050905080613114576040517f08c379a000000000000000000000000000000000000000000000000000000000815260040161310b90614883565b60405180910390fd5b6001600660008460050160009054906101000a900473ffffffffffffffffffffffffffffffffffffffff1673ffffffffffffffffffffffffffffffffffffffff1673ffffffffffffffffffffffffffffffffffffffff1681526020019081526020016000206000828254613188919061441e565b92505081905550828260050160009054906101000a900473ffffffffffffffffffffffffffffffffffffffff1673ffffffffffffffffffffffffffffffffffffffff167f730831a1e4aa2d187ddd8e03d7beeac760a3927da5f112d645e0f8df7494b36760405160405180910390a3505050565b60006005600083815260200190815260200160002090503373ffffffffffffffffffffffffffffffffffffffff168160050160009054906101000a900473ffffffffffffffffffffffffffffffffffffffff1673ffffffffffffffffffffffffffffffffffffffff16146132a5576040517f08c379a000000000000000000000000000000000000000000000000000000000815260040161329c90614c4c565b60405180910390fd5b8060060160159054906101000a900460ff166132f6576040517f08c379a00000000000000000000000000000000000000000000000000000000081526004016132ed90614cb8565b60405180910390fd5b600e5481600001600082825461330c919061441e565b92505081905550600e54600f6000828254613327919061405e565b92505081905550828160050160006101000a81548173ffffffffffffffffffffffffffffffffffffffff021916908373ffffffffffffffffffffffffffffffffffffffff160217905550818373ffffffffffffffffffffffffffffffffffffffff163373ffffffffffffffffffffffffffffffffffffffff167fddf252ad1be2c89b69c2b068fc378daa952ba7f163c4a11628f55a4df523b3ef60405160405180910390a4505050565b600e5481565b6133e18134610af9565b50565b60006020528160005260406000206020528060005260406000206000915091509054906101000a900460ff1681565b60096020528060005260406000206000915054906101000a900473ffffffffffffffffffffffffffffffffffffffff1681565b6001602052816000526040600020818154811061346257600080fd5b906000526020600020016000915091509054906101000a900473ffffffffffffffffffffffffffffffffffffffff1681565b42600b54600a60003373ffffffffffffffffffffffffffffffffffffffff1673ffffffffffffffffffffffffffffffffffffffff168152602001908152602001600020546134e2919061405e565b10613522576040517f08c379a000000000000000000000000000000000000000000000000000000000815260040161351990614d4a565b60405180910390fd5b80600960003373ffffffffffffffffffffffffffffffffffffffff1673ffffffffffffffffffffffffffffffffffffffff16815260200190815260200160002060006101000a81548173ffffffffffffffffffffffffffffffffffffffff021916908373ffffffffffffffffffffffffffffffffffffffff16021790555042600a60003373ffffffffffffffffffffffffffffffffffffffff1673ffffffffffffffffffffffffffffffffffffffff1681526020019081526020016000208190555050565b600f5481565b600060056000838152602001908152602001600020600201549050919050565b600c5481565b600060056000838152602001908152602001600020600001549050919050565b6003602052816000526040600020818154811061364f57600080fd5b906000526020600020016000915091509054906101000a900473ffffffffffffffffffffffffffffffffffffffff1681565b600d5481565b60076020528060005260406000206000915090505481565b60008060003373ffffffffffffffffffffffffffffffffffffffff1673ffffffffffffffffffffffffffffffffffffffff16815260200190815260200160002060008373ffffffffffffffffffffffffffffffffffffffff1673ffffffffffffffffffffffffffffffffffffffff16815260200190815260200160002060009054906101000a900460ff161561373857600190506139fb565b60016000803373ffffffffffffffffffffffffffffffffffffffff1673ffffffffffffffffffffffffffffffffffffffff16815260200190815260200160002060008473ffffffffffffffffffffffffffffffffffffffff1673ffffffffffffffffffffffffffffffffffffffff16815260200190815260200160002060006101000a81548160ff021916908315150217905550600260008373ffffffffffffffffffffffffffffffffffffffff1673ffffffffffffffffffffffffffffffffffffffff16815260200190815260200160002060003373ffffffffffffffffffffffffffffffffffffffff1673ffffffffffffffffffffffffffffffffffffffff16815260200190815260200160002060009054906101000a900460ff161561399c57600360008373ffffffffffffffffffffffffffffffffffffffff1673ffffffffffffffffffffffffffffffffffffffff168152602001908152602001600020339080600181540180825580915050600190039060005260206000200160009091909190916101000a81548173ffffffffffffffffffffffffffffffffffffffff021916908373ffffffffffffffffffffffffffffffffffffffff160217905550600160003373ffffffffffffffffffffffffffffffffffffffff1673ffffffffffffffffffffffffffffffffffffffff168152602001908152602001600020829080600181540180825580915050600190039060005260206000200160009091909190916101000a81548173ffffffffffffffffffffffffffffffffffffffff021916908373ffffffffffffffffffffffffffffffffffffffff1602179055505b8173ffffffffffffffffffffffffffffffffffffffff163373ffffffffffffffffffffffffffffffffffffffff167f299ee620f7f943423e6a9788774c2ef64ca767ff063236ec6dc9f8c9c6462eb760405160405180910390a3600190505b919050565b600080fd5b600080fd5b600073ffffffffffffffffffffffffffffffffffffffff82169050919050565b6000613a3582613a0a565b9050919050565b613a4581613a2a565b8114613a5057600080fd5b50565b600081359050613a6281613a3c565b92915050565b6000819050919050565b613a7b81613a68565b8114613a8657600080fd5b50565b600081359050613a9881613a72565b92915050565b600080600060608486031215613ab757613ab6613a00565b5b6000613ac586828701613a53565b9350506020613ad686828701613a53565b9250506040613ae786828701613a89565b9150509250925092565b600060208284031215613b0757613b06613a00565b5b6000613b1584828501613a89565b91505092915050565b613b2781613a68565b82525050565b6000602082019050613b426000830184613b1e565b92915050565b600060208284031215613b5e57613b5d613a00565b5b6000613b6c84828501613a53565b91505092915050565b60008115159050919050565b613b8a81613b75565b82525050565b6000602082019050613ba56000830184613b81565b92915050565b600081519050919050565b600082825260208201905092915050565b6000819050602082019050919050565b613be081613a2a565b82525050565b6000613bf28383613bd7565b60208301905092915050565b6000602082019050919050565b6000613c1682613bab565b613c208185613bb6565b9350613c2b83613bc7565b8060005b83811015613c5c578151613c438882613be6565b9750613c4e83613bfe565b925050600181019050613c2f565b5085935050505092915050565b60006020820190508181036000830152613c838184613c0b565b905092915050565b600080fd5b600080fd5b600080fd5b60008083601f840112613cb057613caf613c8b565b5b8235905067ffffffffffffffff811115613ccd57613ccc613c90565b5b602083019150836001820283011115613ce957613ce8613c95565b5b9250929050565b60008060008060008060a08789031215613d0d57613d0c613a00565b5b6000613d1b89828a01613a89565b9650506020613d2c89828a01613a89565b9550506040613d3d89828a01613a53565b9450506060613d4e89828a01613a53565b935050608087013567ffffffffffffffff811115613d6f57613d6e613a05565b5b613d7b89828a01613c9a565b92509250509295509295509295565b60008060408385031215613da157613da0613a00565b5b6000613daf85828601613a53565b9250506020613dc085828601613a89565b9150509250929050565b613dd381613a2a565b82525050565b6000602082019050613dee6000830184613dca565b92915050565b600081519050919050565b600082825260208201905092915050565b60005b83811015613e2e578082015181840152602081019050613e13565b60008484015250505050565b6000601f19601f8301169050919050565b6000613e5682613df4565b613e608185613dff565b9350613e70818560208601613e10565b613e7981613e3a565b840191505092915050565b600061014082019050613e9a600083018d613b1e565b613ea7602083018c613b1e565b613eb4604083018b613b1e565b613ec1606083018a613dca565b613ece6080830189613dca565b613edb60a0830188613dca565b613ee860c0830187613dca565b613ef560e0830186613b81565b613f03610100830185613b81565b818103610120830152613f168184613e4b565b90509b9a5050505050505050505050565b60008060408385031215613f3e57613f3d613a00565b5b6000613f4c85828601613a89565b9250506020613f5d85828601613a53565b9150509250929050565b600080600080600060808688031215613f8357613f82613a00565b5b6000613f9188828901613a89565b9550506020613fa288828901613a89565b9450506040613fb388828901613a53565b935050606086013567ffffffffffffffff811115613fd457613fd3613a05565b5b613fe088828901613c9a565b92509250509295509295909350565b6000806040838503121561400657614005613a00565b5b600061401485828601613a53565b925050602061402585828601613a53565b9150509250929050565b7f4e487b7100000000000000000000000000000000000000000000000000000000600052601160045260246000fd5b600061406982613a68565b915061407483613a68565b925082820190508082111561408c5761408b61402f565b5b92915050565b7f4d7573742062652064726177657220616e64206f776e657220746f206368616e60008201527f676520726563697069656e740000000000000000000000000000000000000000602082015250565b60006140ee602c83613dff565b91506140f982614092565b604082019050919050565b6000602082019050818103600083015261411d816140e1565b9050919050565b7f41756469746f72206d75737420617070726f766520746869732072656369706960008201527f656e740000000000000000000000000000000000000000000000000000000000602082015250565b6000614180602383613dff565b915061418b82614124565b604082019050919050565b600060208201905081810360008301526141af81614173565b9050919050565b7f526563697069656e74206d75737420617070726f76652074686973206175646960008201527f746f720000000000000000000000000000000000000000000000000000000000602082015250565b6000614212602383613dff565b915061421d826141b6565b604082019050919050565b6000602082019050818103600083015261424181614205565b9050919050565b7f57726974696e67206d6f7265207468616e20617661696c61626c650000000000600082015250565b600061427e601b83613dff565b915061428982614248565b602082019050919050565b600060208201905081810360008301526142ad81614271565b9050919050565b7f596f75206d75737420617070726f766520746869732061756469746f72000000600082015250565b60006142ea601d83613dff565b91506142f5826142b4565b602082019050919050565b60006020820190508181036000830152614319816142dd565b9050919050565b7f41756469746f72206d75737420617070726f766520796f750000000000000000600082015250565b6000614356601883613dff565b915061436182614320565b602082019050919050565b6000602082019050818103600083015261438581614349565b9050919050565b7f41756469746f7220646f65736e277420616c6c6f77207468697320647572617460008201527f696f6e0000000000000000000000000000000000000000000000000000000000602082015250565b60006143e8602383613dff565b91506143f38261438c565b604082019050919050565b60006020820190508181036000830152614417816143db565b9050919050565b600061442982613a68565b915061443483613a68565b925082820390508181111561444c5761444b61402f565b5b92915050565b7f4e487b7100000000000000000000000000000000000000000000000000000000600052604160045260246000fd5b7f4e487b7100000000000000000000000000000000000000000000000000000000600052602260045260246000fd5b600060028204905060018216806144c857607f821691505b6020821081036144db576144da614481565b5b50919050565b60008190508160005260206000209050919050565b60006020601f8301049050919050565b600082821b905092915050565b6000600883026145437fffffffffffffffffffffffffffffffffffffffffffffffffffffffffffffffff82614506565b61454d8683614506565b95508019841693508086168417925050509392505050565b6000819050919050565b600061458a61458561458084613a68565b614565565b613a68565b9050919050565b6000819050919050565b6145a48361456f565b6145b86145b082614591565b848454614513565b825550505050565b600090565b6145cd6145c0565b6145d881848461459b565b505050565b5b818110156145fc576145f16000826145c5565b6001810190506145de565b5050565b601f82111561464157614612816144e1565b61461b846144f6565b8101602085101561462a578190505b61463e614636856144f6565b8301826145dd565b50505b505050565b600082821c905092915050565b600061466460001984600802614646565b1980831691505092915050565b600061467d8383614653565b9150826002028217905092915050565b61469682613df4565b67ffffffffffffffff8111156146af576146ae614452565b5b6146b982546144b0565b6146c4828285614600565b600060209050601f8311600181146146f757600084156146e5578287015190505b6146ef8582614671565b865550614757565b601f198416614705866144e1565b60005b8281101561472d57848901518255600182019150602085019450602081019050614708565b8683101561474a5784890151614746601f891682614653565b8355505b6001600288020188555050505b505050505050565b7f43616e2774207769746864726177206d6f7265207468616e20617661696c616260008201527f6c65000000000000000000000000000000000000000000000000000000000000602082015250565b60006147bb602283613dff565b91506147c68261475f565b604082019050919050565b600060208201905081810360008301526147ea816147ae565b9050919050565b600081905092915050565b50565b600061480c6000836147f1565b9150614817826147fc565b600082019050919050565b600061482d826147ff565b9150819050919050565b7f5472616e73666572206661696c65642e00000000000000000000000000000000600082015250565b600061486d601083613dff565b915061487882614837565b602082019050919050565b6000602082019050818103600083015261489c81614860565b9050919050565b7f4d7573742062652061756469746f720000000000000000000000000000000000600082015250565b60006148d9600f83613dff565b91506148e4826148a3565b602082019050919050565b60006020820190508181036000830152614908816148cc565b9050919050565b7f43686571756520616c7265616479206d61747572656400000000000000000000600082015250565b6000614945601683613dff565b91506149508261490f565b602082019050919050565b6000602082019050818103600083015261497481614938565b9050919050565b6000614988600083613dff565b9150614993826147fc565b600082019050919050565b600060208201905081810360008301526149b78161497b565b9050919050565b7f55736572206d75737420617070726f766520746869732061756469746f720000600082015250565b60006149f4601e83613dff565b91506149ff826149be565b602082019050919050565b60006020820190508181036000830152614a23816149e7565b9050919050565b7f41756469746f72206d75737420617070726f76652074686973206163636f756e60008201527f7400000000000000000000000000000000000000000000000000000000000000602082015250565b6000614a86602183613dff565b9150614a9182614a2a565b604082019050919050565b60006020820190508181036000830152614ab581614a79565b9050919050565b7f4d757374206f776e2063686571756520746f2063617368000000000000000000600082015250565b6000614af2601783613dff565b9150614afd82614abc565b602082019050919050565b60006020820190508181036000830152614b2181614ae5565b9050919050565b7f436865717565206e6f74206361736861626c6520796574000000000000000000600082015250565b6000614b5e601783613dff565b9150614b6982614b28565b602082019050919050565b60006020820190508181036000830152614b8d81614b51565b9050919050565b7f43686571756520696e76616c6964000000000000000000000000000000000000600082015250565b6000614bca600e83613dff565b9150614bd582614b94565b602082019050919050565b60006020820190508181036000830152614bf981614bbd565b9050919050565b7f4f6e6c7920636865717565206f776e65722063616e207472616e736665720000600082015250565b6000614c36601e83613dff565b9150614c4182614c00565b602082019050919050565b60006020820190508181036000830152614c6581614c29565b9050919050565b7f436865717565206e6f74207472616e7366657261626c65000000000000000000600082015250565b6000614ca2601783613dff565b9150614cad82614c6c565b602082019050919050565b60006020820190508181036000830152614cd181614c95565b9050919050565b7f43616e206f6e6c79206368616e67652074727573746564206163636f756e742060008201527f6f6e636520657665727920313830206461797300000000000000000000000000602082015250565b6000614d34603383613dff565b9150614d3f82614cd8565b604082019050919050565b60006020820190508181036000830152614d6381614d27565b905091905056fea2646970667358221220c3612c342336036b99abfec1f1d4abb24f5da28b92802c79d3f5231cee8de37b64736f6c63430008100033",
  "immutableReferences": {},
  "source": "// SPDX-License-Identifier: MIT\npragma solidity >=0.8.14;\n// import \"@openzeppelin/contracts/token/ERC721/ERC721.sol\";\n\n\ncontract dCheque{\n    struct Cheque{\n        uint256 amount;\n        uint256 created;\n        uint256 expiry;\n        address drawer;\n        address recipient;\n        address bearer;\n        address auditor;\n        bool voided;\n        bool transferable;\n        string memo;\n    }\n    mapping(address=>mapping(address=>bool)) public userAuditor;  // Whether User accepts Auditor\n    mapping(address=>address[]) public acceptedUserAuditors;  // Auditor addresses that user accepts\n    mapping(address=>mapping(address=>bool)) public auditorUser;  // Whether Auditor accepts User\n    mapping(address=>address[]) public acceptedAuditorUsers;  // User addresses that auditor accepts\n    mapping(address=>mapping(uint256=>bool)) public auditorDurations;  // Auditor voiding periods\n\n    mapping(uint256=>Cheque) public cheques;\n    mapping(address=>uint256) public chequeCount;  // User's balance of cheques\n    mapping(address=>uint256) public deposits;  // Total user deposits\n    uint256 public totalSupply;  // Total cheques created\n\n    mapping(address=>address) public trustedAccount;  // User's trusted account\n    mapping(address=>uint256) public lastTrustedChange;\n    uint256 public trustedAccountCooldown = 180 days;\n    uint256 public addAuditorCooldown = 1 days;\n    uint256 public p2pLimit = 1 ether;  // NEED TO PUT TIME LIMIT AS WELL (1ETH PER 24HRS)\n    uint256 public protocolFee;\n    uint256 public protocolReserve;\n\n    event Deposit(address indexed from, uint256 amount);\n    event Transfer(address indexed from, address indexed to, uint256 indexed chequeID);\n    event Void(address indexed drawer, address indexed auditor, uint256 indexed chequeID);\n    event Cash(address indexed bearer, uint256 indexed chequeID);\n    event AcceptAuditor(address indexed user, address indexed auditor);\n    event AcceptUser(address indexed auditor, address indexed user);\n    event Withdraw(address indexed _address, uint256 amount);\n    event SetProtocolFee(uint256 amount);\n\n    function _deposit(address _address, uint256 _amount) private {\n        deposits[_address] += _amount;\n        emit Deposit(_address, _amount);\n    }\n    receive() external payable {\n        _deposit(msg.sender, msg.value);\n    }\n    function depositTo(address _address) external payable {\n        _deposit(_address, msg.value);\n    }\n    function setProtocolFee(uint256 _protocolFee) external {\n        protocolFee = _protocolFee;\n        emit SetProtocolFee(_protocolFee);\n    }\n    function writeCheque(uint256 amount, uint256 duration, address auditor, string calldata _memo) public {\n        require(deposits[msg.sender]>=amount, \"Writing more than available\");\n        require(userAuditor[msg.sender][auditor], \"User must approve this auditor\");\n        require(auditorUser[auditor][msg.sender],  \"Auditor must approve this account\");\n        require(auditorDurations[auditor][duration], \"Auditor doesn't allow this duration\");\n        deposits[msg.sender] -= amount;\n        totalSupply += 1;\n        chequeCount[msg.sender]+=1;\n        cheques[totalSupply] = Cheque({drawer: msg.sender, recipient:msg.sender, bearer: msg.sender, created: block.timestamp, expiry: block.timestamp+duration, \n                                       auditor: auditor, amount: amount, voided: false, transferable: true, memo:_memo});\n        emit Transfer(address(0), msg.sender, totalSupply);\n    }\n    function addPayRecipient(address auditor, address recipient, uint256 chequeID) external{\n        Cheque storage cheque = cheques[chequeID];\n        require((cheque.drawer==msg.sender)&&(cheque.bearer==msg.sender), \"Must be drawer and owner to change recipient\");\n        require(auditorUser[auditor][recipient],  \"Auditor must approve this recipient\");\n        require(userAuditor[recipient][auditor], \"Recipient must approve this auditor\");\n        cheque.recipient = recipient;\n        transfer(recipient, chequeID);\n    }\n    function writeCheque(uint256 amount, uint256 duration, address auditor, address recipient, string calldata _memo) public {\n        require(deposits[msg.sender]>=amount, \"Writing more than available\");\n        require(userAuditor[msg.sender][auditor], \"You must approve this auditor\");\n        require(userAuditor[recipient][auditor], \"Recipient must approve this auditor\");\n        require(auditorUser[auditor][msg.sender],  \"Auditor must approve you\");\n        require(auditorUser[auditor][recipient],  \"Auditor must approve this recipient\");\n        require(auditorDurations[auditor][duration], \"Auditor doesn't allow this duration\");\n        deposits[msg.sender] -= amount;\n        totalSupply += 1;\n        chequeCount[recipient]+=1;\n        cheques[totalSupply] = Cheque({drawer: msg.sender, recipient:recipient, bearer: recipient, created: block.timestamp, expiry: block.timestamp+duration, \n                                         auditor: auditor, amount: amount, voided: false, transferable: true, memo:_memo});\n        emit Transfer(msg.sender, recipient, totalSupply);\n    }\n    function cashCheque(uint256 chequeID) external {  // Only allow withdraws via cheque writing\n        Cheque storage cheque = cheques[chequeID];\n        require(cheque.bearer==msg.sender, \"Must own cheque to cash\");\n        require(cheque.expiry>block.timestamp, \"Cheque not cashable yet\");\n        require(!cheque.voided, \"Cheque invalid\");\n        cheque.voided = true;\n        (bool success, ) = msg.sender.call{value:cheque.amount}(\"\");\n        require(success, \"Transfer failed.\");\n        chequeCount[cheque.bearer]-=1;\n        emit Cash(cheque.bearer, chequeID);\n    }\n    function voidCheque(uint256 chequeID) external {\n        Cheque storage cheque = cheques[chequeID];\n        require(cheque.auditor==msg.sender, \"Must be auditor\");\n        require(cheque.expiry<block.timestamp, \"Cheque already matured\");\n        cheque.voided = true;\n        cheque.transferable = false;\n        chequeCount[cheque.bearer]-=1;\n        deposits[cheque.drawer] += cheque.amount;  // Add balance back to signer\n        emit Void(cheque.drawer, cheque.auditor, chequeID);\n    }\n    function voidRescueCheque(uint256 chequeID) external {\n        Cheque storage cheque = cheques[chequeID];\n        require(cheque.auditor==msg.sender, \"Must be auditor\");\n        require(cheque.expiry<block.timestamp, \"Cheque already matured\");\n        cheque.voided = true;\n        cheque.transferable = false;\n        chequeCount[cheque.bearer]-=1;\n        address fallbackAccount = trustedAccount[cheque.drawer];\n        deposits[fallbackAccount] += cheque.amount;  // Add cheque amount to trusted account deposit balance\n        emit Void(cheque.drawer, cheque.auditor, chequeID);\n        emit Transfer(cheque.bearer, fallbackAccount, chequeID);\n    }\n    function directTransfer(uint256 _amount, address _to) external{  // REENTRANCY GUARD\n        require(_amount<=p2pLimit, \"\");\n        deposits[msg.sender] -= _amount;\n        deposits[_to] += _amount;\n    }\n    function transfer(address to, uint256 chequeID) public {\n        Cheque storage cheque = cheques[chequeID];\n        require(cheque.bearer==msg.sender, \"Only cheque owner can transfer\");\n        require(cheque.transferable, \"Cheque not transferable\");\n        cheque.amount -= protocolFee;\n        protocolReserve += protocolFee;\n        cheque.bearer = to;\n        emit Transfer(msg.sender, to, chequeID);\n    }\n    function withdraw(uint256 _amount) external{ // ONLY OWNER\n        require(protocolReserve>=_amount, \"Can't withdraw more than available\");\n        protocolReserve -= _amount;\n        (bool success, ) = msg.sender.call{value:_amount}(\"\");\n        require(success, \"Transfer failed.\");\n        emit Withdraw(msg.sender, _amount);\n    }\n\n    function acceptAuditor(address auditor) public returns (bool){  // User will set this \n        if (userAuditor[msg.sender][auditor]){\n            return true;\n        }\n        userAuditor[msg.sender][auditor] = true;\n        if (auditorUser[auditor][msg.sender]){\n            acceptedAuditorUsers[auditor].push(msg.sender);\n            acceptedUserAuditors[msg.sender].push(auditor);\n        }\n        emit AcceptAuditor(msg.sender, auditor);\n        return true;\n    }\n    function acceptUser(address drawer) public returns (bool){  // Auditor will set this \n        if (auditorUser[msg.sender][drawer]){\n            return true;\n        }\n        auditorUser[msg.sender][drawer] = true;\n        if (userAuditor[drawer][msg.sender]){\n            acceptedUserAuditors[drawer].push(msg.sender);\n            acceptedAuditorUsers[msg.sender].push(drawer);\n        }\n        emit AcceptUser(msg.sender, drawer);\n        return true;\n    }\n    function setAllowedDuration(uint256 duration) external {  // Auditor will set this\n        auditorDurations[msg.sender][duration] = true;\n    }\n    function setTrustedAccount(address account) external {  // User will set this\n        require((lastTrustedChange[msg.sender] + trustedAccountCooldown)<block.timestamp, \"Can only change trusted account once every 180 days\");\n        trustedAccount[msg.sender] = account;\n        lastTrustedChange[msg.sender] = block.timestamp;\n    }\n\n    function chequeDrawer(uint256 chequeId) external view returns (address) {\n        return cheques[chequeId].drawer;\n    }\n    function chequeRecipient(uint256 chequeId) external view returns (address) {\n        return cheques[chequeId].recipient;\n    }\n    function ownerOf(uint256 chequeId) external view returns(address) {\n        return cheques[chequeId].bearer;\n    }\n    function chequeAuditor(uint256 chequeId) external view returns (address) {\n        return cheques[chequeId].auditor;\n    } \n    function chequeAmount(uint256 chequeId) external view returns (uint256) {\n        return cheques[chequeId].amount;\n    }\n    function chequeExpiry(uint256 chequeId) external view returns (uint256) {\n        return cheques[chequeId].expiry;\n    }\n    function chequeVoided(uint256 chequeId) external view returns (bool) {\n        return cheques[chequeId].voided;\n    }\n    function chequeTransferable(uint256 chequeId) external view returns (bool) {\n        return cheques[chequeId].transferable;\n    }\n    function chequeCreated(uint256 chequeId) external view returns (uint256) {\n        return cheques[chequeId].created;\n    }\n    function getAcceptedUserAuditors(address _address) external view returns (address[] memory){\n        return acceptedUserAuditors[_address];\n    }\n    function getAcceptedAuditorUsers(address _address) external view returns (address[] memory){\n        return acceptedAuditorUsers[_address];\n    }\n}",
  "sourcePath": "/Users/alexa/PycharmProjects/CryptoCheque/src/contracts/dCheque.sol",
  "compiler": {
    "name": "solc",
    "version": "0.8.16+commit.07a7930e.Emscripten.clang"
  },
  "schemaVersion": "3.4.4",
  "updatedAt": "2022-08-09T19:07:50.468Z",
  "networkType": "ethereum",
  "devdoc": {
    "kind": "dev",
    "methods": {},
    "version": 1
  },
  "userdoc": {
    "kind": "user",
    "methods": {},
    "version": 1
  }
}