{
  "contractName": "dCheque",
  "abi": [
    {
      "inputs": [
        {
          "internalType": "address",
          "name": "",
          "type": "address"
        },
        {
          "internalType": "address",
          "name": "",
          "type": "address"
        }
      ],
      "name": "acceptedAuditor",
      "outputs": [
        {
          "internalType": "bool",
          "name": "",
          "type": "bool"
        }
      ],
      "stateMutability": "view",
      "type": "function"
    },
    {
      "inputs": [
        {
          "internalType": "address",
          "name": "",
          "type": "address"
        },
        {
          "internalType": "uint256",
          "name": "",
          "type": "uint256"
        }
      ],
      "name": "auditorDurations",
      "outputs": [
        {
          "internalType": "bool",
          "name": "",
          "type": "bool"
        }
      ],
      "stateMutability": "view",
      "type": "function"
    },
    {
      "inputs": [
        {
          "internalType": "uint256",
          "name": "",
          "type": "uint256"
        }
      ],
      "name": "cheques",
      "outputs": [
        {
          "internalType": "address",
          "name": "drawer",
          "type": "address"
        },
        {
          "internalType": "address",
          "name": "bearer",
          "type": "address"
        },
        {
          "internalType": "address",
          "name": "auditor",
          "type": "address"
        },
        {
          "internalType": "uint256",
          "name": "amount",
          "type": "uint256"
        },
        {
          "internalType": "uint256",
          "name": "expiry",
          "type": "uint256"
        },
        {
          "internalType": "bool",
          "name": "voided",
          "type": "bool"
        },
        {
          "internalType": "bool",
          "name": "transferable",
          "type": "bool"
        }
      ],
      "stateMutability": "view",
      "type": "function"
    },
    {
      "inputs": [
        {
          "internalType": "address",
          "name": "",
          "type": "address"
        }
      ],
      "name": "deposits",
      "outputs": [
        {
          "internalType": "uint256",
          "name": "",
          "type": "uint256"
        }
      ],
      "stateMutability": "view",
      "type": "function"
    },
    {
      "inputs": [
        {
          "internalType": "address",
          "name": "",
          "type": "address"
        }
      ],
      "name": "lastTrustedChange",
      "outputs": [
        {
          "internalType": "uint256",
          "name": "",
          "type": "uint256"
        }
      ],
      "stateMutability": "view",
      "type": "function"
    },
    {
      "inputs": [
        {
          "internalType": "address",
          "name": "",
          "type": "address"
        },
        {
          "internalType": "address",
          "name": "",
          "type": "address"
        }
      ],
      "name": "signerAuditor",
      "outputs": [
        {
          "internalType": "bool",
          "name": "",
          "type": "bool"
        }
      ],
      "stateMutability": "view",
      "type": "function"
    },
    {
      "inputs": [
        {
          "internalType": "address",
          "name": "",
          "type": "address"
        }
      ],
      "name": "trustedAccount",
      "outputs": [
        {
          "internalType": "address",
          "name": "",
          "type": "address"
        }
      ],
      "stateMutability": "view",
      "type": "function"
    },
    {
      "stateMutability": "payable",
      "type": "receive"
    },
    {
      "inputs": [
        {
          "internalType": "uint256",
          "name": "amount",
          "type": "uint256"
        },
        {
          "internalType": "uint256",
          "name": "duration",
          "type": "uint256"
        },
        {
          "internalType": "address",
          "name": "auditor",
          "type": "address"
        }
      ],
      "name": "writeCheque",
      "outputs": [],
      "stateMutability": "nonpayable",
      "type": "function"
    },
    {
      "inputs": [
        {
          "internalType": "uint256",
          "name": "amount",
          "type": "uint256"
        },
        {
          "internalType": "uint256",
          "name": "duration",
          "type": "uint256"
        },
        {
          "internalType": "address",
          "name": "auditor",
          "type": "address"
        },
        {
          "internalType": "address",
          "name": "to",
          "type": "address"
        }
      ],
      "name": "writeCheque",
      "outputs": [],
      "stateMutability": "nonpayable",
      "type": "function"
    },
    {
      "inputs": [
        {
          "internalType": "uint256",
          "name": "chequeID",
          "type": "uint256"
        }
      ],
      "name": "cashCheque",
      "outputs": [],
      "stateMutability": "nonpayable",
      "type": "function"
    },
    {
      "inputs": [
        {
          "internalType": "uint256",
          "name": "chequeID",
          "type": "uint256"
        }
      ],
      "name": "voidCheque",
      "outputs": [],
      "stateMutability": "nonpayable",
      "type": "function"
    },
    {
      "inputs": [
        {
          "internalType": "uint256",
          "name": "chequeID",
          "type": "uint256"
        }
      ],
      "name": "voidTransferCheque",
      "outputs": [],
      "stateMutability": "nonpayable",
      "type": "function"
    },
    {
      "inputs": [
        {
          "internalType": "address",
          "name": "to",
          "type": "address"
        },
        {
          "internalType": "uint256",
          "name": "chequeID",
          "type": "uint256"
        }
      ],
      "name": "transfer",
      "outputs": [],
      "stateMutability": "nonpayable",
      "type": "function"
    },
    {
      "inputs": [
        {
          "internalType": "address",
          "name": "auditor",
          "type": "address"
        }
      ],
      "name": "setAcceptedAuditor",
      "outputs": [],
      "stateMutability": "nonpayable",
      "type": "function"
    },
    {
      "inputs": [
        {
          "internalType": "uint256",
          "name": "chequeId",
          "type": "uint256"
        }
      ],
      "name": "getChequeAuditor",
      "outputs": [
        {
          "internalType": "address",
          "name": "",
          "type": "address"
        }
      ],
      "stateMutability": "view",
      "type": "function"
    },
    {
      "inputs": [
        {
          "internalType": "uint256",
          "name": "duration",
          "type": "uint256"
        }
      ],
      "name": "setAllowedDuration",
      "outputs": [],
      "stateMutability": "nonpayable",
      "type": "function"
    },
    {
      "inputs": [
        {
          "internalType": "address",
          "name": "signer",
          "type": "address"
        }
      ],
      "name": "setAcceptedSigners",
      "outputs": [],
      "stateMutability": "nonpayable",
      "type": "function"
    },
    {
      "inputs": [
        {
          "internalType": "address",
          "name": "account",
          "type": "address"
        }
      ],
      "name": "setTrustedAccount",
      "outputs": [],
      "stateMutability": "nonpayable",
      "type": "function"
    },
    {
      "inputs": [
        {
          "internalType": "uint256",
          "name": "chequeId",
          "type": "uint256"
        }
      ],
      "name": "getChequeDrawer",
      "outputs": [
        {
          "internalType": "address",
          "name": "",
          "type": "address"
        }
      ],
      "stateMutability": "view",
      "type": "function"
    },
    {
      "inputs": [
        {
          "internalType": "uint256",
          "name": "chequeId",
          "type": "uint256"
        }
      ],
      "name": "getChequeBearer",
      "outputs": [
        {
          "internalType": "address",
          "name": "",
          "type": "address"
        }
      ],
      "stateMutability": "view",
      "type": "function"
    },
    {
      "inputs": [
        {
          "internalType": "uint256",
          "name": "chequeId",
          "type": "uint256"
        }
      ],
      "name": "getChequeExpiry",
      "outputs": [
        {
          "internalType": "uint256",
          "name": "",
          "type": "uint256"
        }
      ],
      "stateMutability": "view",
      "type": "function"
    },
    {
      "inputs": [
        {
          "internalType": "uint256",
          "name": "chequeId",
          "type": "uint256"
        }
      ],
      "name": "getChequeAmount",
      "outputs": [
        {
          "internalType": "uint256",
          "name": "",
          "type": "uint256"
        }
      ],
      "stateMutability": "view",
      "type": "function"
    },
    {
      "inputs": [
        {
          "internalType": "uint256",
          "name": "chequeId",
          "type": "uint256"
        }
      ],
      "name": "getChequeVoided",
      "outputs": [
        {
          "internalType": "bool",
          "name": "",
          "type": "bool"
        }
      ],
      "stateMutability": "view",
      "type": "function"
    },
    {
      "inputs": [
        {
          "internalType": "uint256",
          "name": "chequeId",
          "type": "uint256"
        }
      ],
      "name": "getChequeTransferable",
      "outputs": [
        {
          "internalType": "bool",
          "name": "",
          "type": "bool"
        }
      ],
      "stateMutability": "view",
      "type": "function"
    }
  ],
  "bytecode": "0x608060405234801561001057600080fd5b506126ab806100206000396000f3fe60806040526004361061014f5760003560e01c8063a7a9c6bc116100b6578063ce7726671161006f578063ce77266714610560578063d57f6d1414610589578063e26b1e63146105c6578063f5f5478f146105ef578063fba16f841461062c578063fc7e286d14610669576101ab565b8063a7a9c6bc1461042e578063a9059cbb1461046b578063b1544fd114610494578063bc3ee717146104d1578063bea135261461050e578063cb3b5a2614610537576101ab565b80634663b4dc116101085780634663b4dc146102f657806351208fe41461031f578063584b22d1146103625780637343064a1461038b57806376696e80146103c8578063a74d670114610405576101ab565b806306681f74146101b057806306e6bc96146101d95780631ed386db1461021657806322cb443314610253578063247fbf361461029057806330362f9b146102b9576101ab565b366101ab5734600660003373ffffffffffffffffffffffffffffffffffffffff1673ffffffffffffffffffffffffffffffffffffffff16815260200190815260200160002060008282546101a39190611c64565b925050819055005b600080fd5b3480156101bc57600080fd5b506101d760048036038101906101d29190611d1d565b6106a6565b005b3480156101e557600080fd5b5061020060048036038101906101fb9190611d76565b61073d565b60405161020d9190611dbe565b60405180910390f35b34801561022257600080fd5b5061023d60048036038101906102389190611d76565b61076a565b60405161024a9190611de8565b60405180910390f35b34801561025f57600080fd5b5061027a60048036038101906102759190611e03565b6107aa565b6040516102879190611dbe565b60405180910390f35b34801561029c57600080fd5b506102b760048036038101906102b29190611e43565b6107d9565b005b3480156102c557600080fd5b506102e060048036038101906102db9190611d76565b610bf6565b6040516102ed9190611ea5565b60405180910390f35b34801561030257600080fd5b5061031d60048036038101906103189190611d76565b610c16565b005b34801561032b57600080fd5b5061034660048036038101906103419190611d76565b610da4565b6040516103599796959493929190611ec0565b60405180910390f35b34801561036e57600080fd5b5061038960048036038101906103849190611d76565b610e60565b005b34801561039757600080fd5b506103b260048036038101906103ad9190611d76565b610ecc565b6040516103bf9190611de8565b60405180910390f35b3480156103d457600080fd5b506103ef60048036038101906103ea9190611d1d565b610f0c565b6040516103fc9190611ea5565b60405180910390f35b34801561041157600080fd5b5061042c60048036038101906104279190611d76565b610f24565b005b34801561043a57600080fd5b5061045560048036038101906104509190611f2f565b611137565b6040516104629190611dbe565b60405180910390f35b34801561047757600080fd5b50610492600480360381019061048d9190611e03565b611166565b005b3480156104a057600080fd5b506104bb60048036038101906104b69190611d76565b6112c3565b6040516104c89190611dbe565b60405180910390f35b3480156104dd57600080fd5b506104f860048036038101906104f39190611d1d565b6112f0565b6040516105059190611de8565b60405180910390f35b34801561051a57600080fd5b5061053560048036038101906105309190611d76565b611323565b005b34801561054357600080fd5b5061055e60048036038101906105599190611d1d565b611510565b005b34801561056c57600080fd5b5061058760048036038101906105829190611f6f565b611676565b005b34801561059557600080fd5b506105b060048036038101906105ab9190611f2f565b611aed565b6040516105bd9190611dbe565b60405180910390f35b3480156105d257600080fd5b506105ed60048036038101906105e89190611d1d565b611b1c565b005b3480156105fb57600080fd5b5061061660048036038101906106119190611d76565b611bb3565b6040516106239190611ea5565b60405180910390f35b34801561063857600080fd5b50610653600480360381019061064e9190611d76565b611bd3565b6040516106609190611de8565b60405180910390f35b34801561067557600080fd5b50610690600480360381019061068b9190611d1d565b611c13565b60405161069d9190611ea5565b60405180910390f35b60016000803373ffffffffffffffffffffffffffffffffffffffff1673ffffffffffffffffffffffffffffffffffffffff16815260200190815260200160002060008373ffffffffffffffffffffffffffffffffffffffff1673ffffffffffffffffffffffffffffffffffffffff16815260200190815260200160002060006101000a81548160ff02191690831515021790555050565b60006003600083815260200190815260200160002060050160019054906101000a900460ff169050919050565b60006003600083815260200190815260200160002060010160009054906101000a900473ffffffffffffffffffffffffffffffffffffffff169050919050565b60026020528160005260406000206020528060005260406000206000915091509054906101000a900460ff1681565b600073ffffffffffffffffffffffffffffffffffffffff168173ffffffffffffffffffffffffffffffffffffffff1603610848576040517f08c379a000000000000000000000000000000000000000000000000000000000815260040161083f90612033565b60405180910390fd5b600260008273ffffffffffffffffffffffffffffffffffffffff1673ffffffffffffffffffffffffffffffffffffffff168152602001908152602001600020600083815260200190815260200160002060009054906101000a900460ff166108e5576040517f08c379a00000000000000000000000000000000000000000000000000000000081526004016108dc906120c5565b60405180910390fd5b600160003373ffffffffffffffffffffffffffffffffffffffff1673ffffffffffffffffffffffffffffffffffffffff16815260200190815260200160002060008273ffffffffffffffffffffffffffffffffffffffff1673ffffffffffffffffffffffffffffffffffffffff16815260200190815260200160002060009054906101000a900460ff166109ae576040517f08c379a00000000000000000000000000000000000000000000000000000000081526004016109a590612157565b60405180910390fd5b82600660003373ffffffffffffffffffffffffffffffffffffffff1673ffffffffffffffffffffffffffffffffffffffff16815260200190815260200160002060008282546109fd9190612177565b92505081905550600160076000828254610a179190611c64565b925050819055506040518060e001604052803373ffffffffffffffffffffffffffffffffffffffff1681526020013373ffffffffffffffffffffffffffffffffffffffff1681526020018273ffffffffffffffffffffffffffffffffffffffff1681526020018481526020018342610a8f9190611c64565b815260200160001515815260200160011515815250600360006001600754610ab79190611c64565b815260200190815260200160002060008201518160000160006101000a81548173ffffffffffffffffffffffffffffffffffffffff021916908373ffffffffffffffffffffffffffffffffffffffff16021790555060208201518160010160006101000a81548173ffffffffffffffffffffffffffffffffffffffff021916908373ffffffffffffffffffffffffffffffffffffffff16021790555060408201518160020160006101000a81548173ffffffffffffffffffffffffffffffffffffffff021916908373ffffffffffffffffffffffffffffffffffffffff160217905550606082015181600301556080820151816004015560a08201518160050160006101000a81548160ff02191690831515021790555060c08201518160050160016101000a81548160ff021916908315150217905550905050505050565b600060036000838152602001908152602001600020600401549050919050565b60006003600083815260200190815260200160002090503373ffffffffffffffffffffffffffffffffffffffff168160020160009054906101000a900473ffffffffffffffffffffffffffffffffffffffff1673ffffffffffffffffffffffffffffffffffffffff1614610cbf576040517f08c379a0000000000000000000000000000000000000000000000000000000008152600401610cb6906121f7565b60405180910390fd5b42816004015410610d05576040517f08c379a0000000000000000000000000000000000000000000000000000000008152600401610cfc90612263565b60405180910390fd5b60018160050160006101000a81548160ff0219169083151502179055508060030154600660008360000160009054906101000a900473ffffffffffffffffffffffffffffffffffffffff1673ffffffffffffffffffffffffffffffffffffffff1673ffffffffffffffffffffffffffffffffffffffff1681526020019081526020016000206000828254610d999190611c64565b925050819055505050565b60036020528060005260406000206000915090508060000160009054906101000a900473ffffffffffffffffffffffffffffffffffffffff16908060010160009054906101000a900473ffffffffffffffffffffffffffffffffffffffff16908060020160009054906101000a900473ffffffffffffffffffffffffffffffffffffffff16908060030154908060040154908060050160009054906101000a900460ff16908060050160019054906101000a900460ff16905087565b6001600260003373ffffffffffffffffffffffffffffffffffffffff1673ffffffffffffffffffffffffffffffffffffffff168152602001908152602001600020600083815260200190815260200160002060006101000a81548160ff02191690831515021790555050565b60006003600083815260200190815260200160002060020160009054906101000a900473ffffffffffffffffffffffffffffffffffffffff169050919050565b60056020528060005260406000206000915090505481565b60006003600083815260200190815260200160002090503373ffffffffffffffffffffffffffffffffffffffff168160010160009054906101000a900473ffffffffffffffffffffffffffffffffffffffff1673ffffffffffffffffffffffffffffffffffffffff1614610fcd576040517f08c379a0000000000000000000000000000000000000000000000000000000008152600401610fc4906122cf565b60405180910390fd5b42816004015411611013576040517f08c379a000000000000000000000000000000000000000000000000000000000815260040161100a9061233b565b60405180910390fd5b8060050160009054906101000a900460ff1615611065576040517f08c379a000000000000000000000000000000000000000000000000000000000815260040161105c906123a7565b60405180910390fd5b60018160050160006101000a81548160ff02191690831515021790555060003373ffffffffffffffffffffffffffffffffffffffff1682600301546040516110ac906123f8565b60006040518083038185875af1925050503d80600081146110e9576040519150601f19603f3d011682016040523d82523d6000602084013e6110ee565b606091505b5050905080611132576040517f08c379a000000000000000000000000000000000000000000000000000000000815260040161112990612459565b60405180910390fd5b505050565b60006020528160005260406000206020528060005260406000206000915091509054906101000a900460ff1681565b60006003600083815260200190815260200160002090503373ffffffffffffffffffffffffffffffffffffffff168160010160009054906101000a900473ffffffffffffffffffffffffffffffffffffffff1673ffffffffffffffffffffffffffffffffffffffff161461120f576040517f08c379a0000000000000000000000000000000000000000000000000000000008152600401611206906124c5565b60405180910390fd5b8060050160019054906101000a900460ff16801561123c57508060050160009054906101000a900460ff16155b61127b576040517f08c379a000000000000000000000000000000000000000000000000000000000815260040161127290612531565b60405180910390fd5b828160010160006101000a81548173ffffffffffffffffffffffffffffffffffffffff021916908373ffffffffffffffffffffffffffffffffffffffff160217905550505050565b60006003600083815260200190815260200160002060050160009054906101000a900460ff169050919050565b60046020528060005260406000206000915054906101000a900473ffffffffffffffffffffffffffffffffffffffff1681565b60006003600083815260200190815260200160002090503373ffffffffffffffffffffffffffffffffffffffff168160020160009054906101000a900473ffffffffffffffffffffffffffffffffffffffff1673ffffffffffffffffffffffffffffffffffffffff16146113cc576040517f08c379a00000000000000000000000000000000000000000000000000000000081526004016113c3906121f7565b60405180910390fd5b42816004015410611412576040517f08c379a000000000000000000000000000000000000000000000000000000000815260040161140990612263565b60405180910390fd5b60018160050160006101000a81548160ff021916908315150217905550806003015460066000600460008560000160009054906101000a900473ffffffffffffffffffffffffffffffffffffffff1673ffffffffffffffffffffffffffffffffffffffff1673ffffffffffffffffffffffffffffffffffffffff16815260200190815260200160002060009054906101000a900473ffffffffffffffffffffffffffffffffffffffff1673ffffffffffffffffffffffffffffffffffffffff1673ffffffffffffffffffffffffffffffffffffffff16815260200190815260200160002060008282546115059190611c64565b925050819055505050565b4262ed4e00600560003373ffffffffffffffffffffffffffffffffffffffff1673ffffffffffffffffffffffffffffffffffffffff1681526020019081526020016000205461155f9190611c64565b1061159f576040517f08c379a0000000000000000000000000000000000000000000000000000000008152600401611596906125c3565b60405180910390fd5b80600460003373ffffffffffffffffffffffffffffffffffffffff1673ffffffffffffffffffffffffffffffffffffffff16815260200190815260200160002060006101000a81548173ffffffffffffffffffffffffffffffffffffffff021916908373ffffffffffffffffffffffffffffffffffffffff16021790555042600560003373ffffffffffffffffffffffffffffffffffffffff1673ffffffffffffffffffffffffffffffffffffffff168152602001908152602001600020600082825461166c9190611c64565b9250508190555050565b600260008373ffffffffffffffffffffffffffffffffffffffff1673ffffffffffffffffffffffffffffffffffffffff168152602001908152602001600020600084815260200190815260200160002060009054906101000a900460ff16611713576040517f08c379a000000000000000000000000000000000000000000000000000000000815260040161170a906120c5565b60405180910390fd5b600160003373ffffffffffffffffffffffffffffffffffffffff1673ffffffffffffffffffffffffffffffffffffffff16815260200190815260200160002060008373ffffffffffffffffffffffffffffffffffffffff1673ffffffffffffffffffffffffffffffffffffffff16815260200190815260200160002060009054906101000a900460ff166117dc576040517f08c379a00000000000000000000000000000000000000000000000000000000081526004016117d390612157565b60405180910390fd5b6000803373ffffffffffffffffffffffffffffffffffffffff1673ffffffffffffffffffffffffffffffffffffffff16815260200190815260200160002060008373ffffffffffffffffffffffffffffffffffffffff1673ffffffffffffffffffffffffffffffffffffffff16815260200190815260200160002060009054906101000a900460ff166118a4576040517f08c379a000000000000000000000000000000000000000000000000000000000815260040161189b90612655565b60405180910390fd5b83600660003373ffffffffffffffffffffffffffffffffffffffff1673ffffffffffffffffffffffffffffffffffffffff16815260200190815260200160002060008282546118f39190612177565b9250508190555060016007600082825461190d9190611c64565b925050819055506040518060e001604052803373ffffffffffffffffffffffffffffffffffffffff1681526020018273ffffffffffffffffffffffffffffffffffffffff1681526020018373ffffffffffffffffffffffffffffffffffffffff16815260200185815260200184426119859190611c64565b8152602001600015158152602001600115158152506003600060016007546119ad9190611c64565b815260200190815260200160002060008201518160000160006101000a81548173ffffffffffffffffffffffffffffffffffffffff021916908373ffffffffffffffffffffffffffffffffffffffff16021790555060208201518160010160006101000a81548173ffffffffffffffffffffffffffffffffffffffff021916908373ffffffffffffffffffffffffffffffffffffffff16021790555060408201518160020160006101000a81548173ffffffffffffffffffffffffffffffffffffffff021916908373ffffffffffffffffffffffffffffffffffffffff160217905550606082015181600301556080820151816004015560a08201518160050160006101000a81548160ff02191690831515021790555060c08201518160050160016101000a81548160ff02191690831515021790555090505050505050565b60016020528160005260406000206020528060005260406000206000915091509054906101000a900460ff1681565b60018060003373ffffffffffffffffffffffffffffffffffffffff1673ffffffffffffffffffffffffffffffffffffffff16815260200190815260200160002060008373ffffffffffffffffffffffffffffffffffffffff1673ffffffffffffffffffffffffffffffffffffffff16815260200190815260200160002060006101000a81548160ff02191690831515021790555050565b600060036000838152602001908152602001600020600301549050919050565b60006003600083815260200190815260200160002060000160009054906101000a900473ffffffffffffffffffffffffffffffffffffffff169050919050565b60066020528060005260406000206000915090505481565b6000819050919050565b7f4e487b7100000000000000000000000000000000000000000000000000000000600052601160045260246000fd5b6000611c6f82611c2b565b9150611c7a83611c2b565b9250827fffffffffffffffffffffffffffffffffffffffffffffffffffffffffffffffff03821115611caf57611cae611c35565b5b828201905092915050565b600080fd5b600073ffffffffffffffffffffffffffffffffffffffff82169050919050565b6000611cea82611cbf565b9050919050565b611cfa81611cdf565b8114611d0557600080fd5b50565b600081359050611d1781611cf1565b92915050565b600060208284031215611d3357611d32611cba565b5b6000611d4184828501611d08565b91505092915050565b611d5381611c2b565b8114611d5e57600080fd5b50565b600081359050611d7081611d4a565b92915050565b600060208284031215611d8c57611d8b611cba565b5b6000611d9a84828501611d61565b91505092915050565b60008115159050919050565b611db881611da3565b82525050565b6000602082019050611dd36000830184611daf565b92915050565b611de281611cdf565b82525050565b6000602082019050611dfd6000830184611dd9565b92915050565b60008060408385031215611e1a57611e19611cba565b5b6000611e2885828601611d08565b9250506020611e3985828601611d61565b9150509250929050565b600080600060608486031215611e5c57611e5b611cba565b5b6000611e6a86828701611d61565b9350506020611e7b86828701611d61565b9250506040611e8c86828701611d08565b9150509250925092565b611e9f81611c2b565b82525050565b6000602082019050611eba6000830184611e96565b92915050565b600060e082019050611ed5600083018a611dd9565b611ee26020830189611dd9565b611eef6040830188611dd9565b611efc6060830187611e96565b611f096080830186611e96565b611f1660a0830185611daf565b611f2360c0830184611daf565b98975050505050505050565b60008060408385031215611f4657611f45611cba565b5b6000611f5485828601611d08565b9250506020611f6585828601611d08565b9150509250929050565b60008060008060808587031215611f8957611f88611cba565b5b6000611f9787828801611d61565b9450506020611fa887828801611d61565b9350506040611fb987828801611d08565b9250506060611fca87828801611d08565b91505092959194509250565b600082825260208201905092915050565b7f41756469746f72206e756c6c2061646472657373000000000000000000000000600082015250565b600061201d601483611fd6565b915061202882611fe7565b602082019050919050565b6000602082019050818103600083015261204c81612010565b9050919050565b7f41756469746f7220646f65736e277420616c6c6f77207468697320647572617460008201527f696f6e0000000000000000000000000000000000000000000000000000000000602082015250565b60006120af602383611fd6565b91506120ba82612053565b604082019050919050565b600060208201905081810360008301526120de816120a2565b9050919050565b7f41756469746f72206d75737420617070726f76652074686973206163636f756e60008201527f7400000000000000000000000000000000000000000000000000000000000000602082015250565b6000612141602183611fd6565b915061214c826120e5565b604082019050919050565b6000602082019050818103600083015261217081612134565b9050919050565b600061218282611c2b565b915061218d83611c2b565b9250828210156121a05761219f611c35565b5b828203905092915050565b7f4d7573742062652061756469746f720000000000000000000000000000000000600082015250565b60006121e1600f83611fd6565b91506121ec826121ab565b602082019050919050565b60006020820190508181036000830152612210816121d4565b9050919050565b7f43686571756520616c7265616479206d61747572656400000000000000000000600082015250565b600061224d601683611fd6565b915061225882612217565b602082019050919050565b6000602082019050818103600083015261227c81612240565b9050919050565b7f4d757374206f776e2063686571756520746f2063617368000000000000000000600082015250565b60006122b9601783611fd6565b91506122c482612283565b602082019050919050565b600060208201905081810360008301526122e8816122ac565b9050919050565b7f436865717565206e6f74206361736861626c6520796574000000000000000000600082015250565b6000612325601783611fd6565b9150612330826122ef565b602082019050919050565b6000602082019050818103600083015261235481612318565b9050919050565b7f43686571756520696e76616c6964000000000000000000000000000000000000600082015250565b6000612391600e83611fd6565b915061239c8261235b565b602082019050919050565b600060208201905081810360008301526123c081612384565b9050919050565b600081905092915050565b50565b60006123e26000836123c7565b91506123ed826123d2565b600082019050919050565b6000612403826123d5565b9150819050919050565b7f5472616e73666572206661696c65642e00000000000000000000000000000000600082015250565b6000612443601083611fd6565b915061244e8261240d565b602082019050919050565b6000602082019050818103600083015261247281612436565b9050919050565b7f4f6e6c7920636865717565206f776e65722063616e207472616e736665720000600082015250565b60006124af601e83611fd6565b91506124ba82612479565b602082019050919050565b600060208201905081810360008301526124de816124a2565b9050919050565b7f436865717565206e6f74207472616e7366657261626c65000000000000000000600082015250565b600061251b601783611fd6565b9150612526826124e5565b602082019050919050565b6000602082019050818103600083015261254a8161250e565b9050919050565b7f43616e206f6e6c79206368616e67652074727573746564206163636f756e742060008201527f6f6e636520657665727920313830206461797300000000000000000000000000602082015250565b60006125ad603383611fd6565b91506125b882612551565b604082019050919050565b600060208201905081810360008301526125dc816125a0565b9050919050565b7f4d65726368616e7420646f65736e27742061636365707420746869732061756460008201527f69746f7200000000000000000000000000000000000000000000000000000000602082015250565b600061263f602483611fd6565b915061264a826125e3565b604082019050919050565b6000602082019050818103600083015261266e81612632565b905091905056fea264697066735822122086d92072e83e6741ef7dc0e692c22b102d62ef9dfed8ab4887cc4323bf56e80764736f6c634300080f0033",
  "immutableReferences": {},
  "source": "// SPDX-License-Identifier: MIT\r\npragma solidity >=0.8.14;\r\nimport \"@openzeppelin/contracts/token/ERC721/ERC721.sol\";\r\n\r\nstring constant name = \"dCheque\";\r\nstring constant symbol = \"dChQ\";\r\n\r\n\r\ncontract dCheque {  //is ERC721(name, symbol) \r\n    struct Cheque{\r\n        address drawer;\r\n        address bearer;\r\n        address auditor;\r\n        uint256 amount;\r\n        uint256 expiry;\r\n        bool voided;\r\n        bool transferable;\r\n    }\r\n    mapping(address=>mapping(address=>bool)) public acceptedAuditor;  // Merchent=>Auditor\r\n    mapping(address=>mapping(address=>bool)) public signerAuditor;  // Signer=>Auditor\r\n    mapping(address=>mapping(uint256=>bool)) public auditorDurations;  // Auditor\r\n    mapping(uint256=>Cheque) public cheques;\r\n    mapping(address=>address) public trustedAccount;  // User's trusted account\r\n    mapping(address=>uint256) public lastTrustedChange;\r\n    mapping(address=>uint256) public deposits;\r\n    uint256 totalSupply;\r\n\r\n    receive() external payable {\r\n        deposits[msg.sender] += msg.value;\r\n    }\r\n    function writeCheque(uint256 amount, uint256 duration, address auditor) public{\r\n        // if (auditor!=address(0)){\r\n        //     require(auditorDurations[auditor][duration], \"Auditor doesn't allow this duration\");\r\n        //     require(signerAuditor[msg.sender][auditor], \"Auditor must approve this account\");\r\n        // }\r\n        require(auditor!=address(0), \"Auditor null address\");\r\n        require(auditorDurations[auditor][duration], \"Auditor doesn't allow this duration\");\r\n        require(signerAuditor[msg.sender][auditor], \"Auditor must approve this account\");\r\n        deposits[msg.sender] -= amount;\r\n        totalSupply += 1;\r\n        cheques[totalSupply+1] = Cheque({drawer: msg.sender, bearer: msg.sender, expiry: block.timestamp+duration, \r\n                                         auditor: auditor, amount: amount, voided: false, transferable: true});\r\n    }\r\n    function writeCheque(uint256 amount, uint256 duration, address auditor, address to) external{\r\n        require(auditorDurations[auditor][duration], \"Auditor doesn't allow this duration\");\r\n        require(signerAuditor[msg.sender][auditor], \"Auditor must approve this account\");\r\n        require(acceptedAuditor[msg.sender][auditor], \"Merchant doesn't accept this auditor\");\r\n        deposits[msg.sender] -= amount;\r\n        totalSupply += 1;\r\n        cheques[totalSupply+1] = Cheque({drawer: msg.sender, bearer: to, expiry: block.timestamp+duration, \r\n                                       auditor: auditor, amount:amount, voided:false, transferable:true});\r\n    }\r\n    function cashCheque(uint256 chequeID) external{  // Only allow withdraws via cheque writing\r\n        Cheque storage cheque = cheques[chequeID];\r\n        require(cheque.bearer==msg.sender, \"Must own cheque to cash\");\r\n        require(cheque.expiry>block.timestamp, \"Cheque not cashable yet\");\r\n        require(!cheque.voided, \"Cheque invalid\");\r\n        cheque.voided = true;\r\n        (bool success, ) = msg.sender.call{value:cheque.amount}(\"\");\r\n        require(success, \"Transfer failed.\");\r\n    }\r\n    function voidCheque(uint256 chequeID) external{\r\n        Cheque storage cheque = cheques[chequeID];\r\n        require(cheque.auditor==msg.sender, \"Must be auditor\");\r\n        require(cheque.expiry<block.timestamp, \"Cheque already matured\");\r\n        cheque.voided = true;\r\n        deposits[cheque.drawer] += cheque.amount;  // Add balance back to signer\r\n    }\r\n    function voidTransferCheque(uint256 chequeID) external {\r\n        Cheque storage cheque = cheques[chequeID];\r\n        require(cheque.auditor==msg.sender, \"Must be auditor\");\r\n        require(cheque.expiry<block.timestamp, \"Cheque already matured\");\r\n        cheque.voided = true;\r\n        deposits[trustedAccount[cheque.drawer]] += cheque.amount;  // Add balance back to trusted (secondary) account\r\n    }\r\n    function transfer(address to, uint256 chequeID) external{\r\n        Cheque storage cheque = cheques[chequeID];\r\n        require(cheque.bearer==msg.sender, \"Only cheque owner can transfer\");\r\n        require(cheque.transferable && (!cheque.voided), \"Cheque not transferable\");\r\n        cheque.bearer = to;\r\n    }\r\n    function setAcceptedAuditor(address auditor) external{  // Merchant will set this\r\n        acceptedAuditor[msg.sender][auditor] = true;\r\n    }\r\n    function getChequeAuditor(uint256 chequeId) external view returns (address){\r\n        return cheques[chequeId].auditor;\r\n    } \r\n    function setAllowedDuration(uint256 duration) external{  // Auditor will set this\r\n        auditorDurations[msg.sender][duration] = true;\r\n    }\r\n    function setAcceptedSigners(address signer) external{  // Auditor will set this\r\n        signerAuditor[msg.sender][signer] = true;\r\n    }\r\n    function setTrustedAccount(address account) external {\r\n        require((lastTrustedChange[msg.sender] + 180 days)<block.timestamp, \"Can only change trusted account once every 180 days\");\r\n        trustedAccount[msg.sender] = account;\r\n        lastTrustedChange[msg.sender] += block.timestamp;\r\n    }\r\n    function getChequeDrawer(uint256 chequeId) external view returns (address){\r\n        return cheques[chequeId].drawer;\r\n    }\r\n    function getChequeBearer(uint256 chequeId) external view returns (address){\r\n        return cheques[chequeId].bearer;\r\n    }\r\n   \r\n    function getChequeExpiry(uint256 chequeId) external view returns (uint256){\r\n        return cheques[chequeId].expiry;\r\n    }\r\n    function getChequeAmount(uint256 chequeId) external view returns (uint256){\r\n        return cheques[chequeId].amount;\r\n    }\r\n    function getChequeVoided(uint256 chequeId) external view returns (bool){\r\n        return cheques[chequeId].voided;\r\n    }\r\n    function getChequeTransferable(uint256 chequeId) external view returns (bool){\r\n        return cheques[chequeId].transferable;\r\n    }\r\n}",
  "sourcePath": "/Users/alexa/PycharmProjects/dcheque/src/contracts/dCheque.sol",
  "compiler": {
    "name": "solc",
    "version": "0.8.15+commit.e14f2714.Emscripten.clang"
  },
  "schemaVersion": "3.4.4",
  "updatedAt": "2022-06-25T21:38:18.077Z",
  "devdoc": {
    "kind": "dev",
    "methods": {},
    "version": 1
  },
  "userdoc": {
    "kind": "user",
    "methods": {},
    "version": 1
  }
}