{
  "contractName": "dCheque",
  "abi": [
    {
      "anonymous": false,
      "inputs": [
        {
          "indexed": true,
          "internalType": "address",
          "name": "from",
          "type": "address"
        },
        {
          "indexed": false,
          "internalType": "uint256",
          "name": "amount",
          "type": "uint256"
        }
      ],
      "name": "Deposit",
      "type": "event"
    },
    {
      "inputs": [
        {
          "internalType": "address",
          "name": "",
          "type": "address"
        },
        {
          "internalType": "address",
          "name": "",
          "type": "address"
        }
      ],
      "name": "acceptedAuditor",
      "outputs": [
        {
          "internalType": "bool",
          "name": "",
          "type": "bool"
        }
      ],
      "stateMutability": "view",
      "type": "function",
      "constant": true
    },
    {
      "inputs": [
        {
          "internalType": "address",
          "name": "",
          "type": "address"
        },
        {
          "internalType": "uint256",
          "name": "",
          "type": "uint256"
        }
      ],
      "name": "auditorDurations",
      "outputs": [
        {
          "internalType": "bool",
          "name": "",
          "type": "bool"
        }
      ],
      "stateMutability": "view",
      "type": "function",
      "constant": true
    },
    {
      "inputs": [
        {
          "internalType": "address",
          "name": "",
          "type": "address"
        }
      ],
      "name": "chequeCount",
      "outputs": [
        {
          "internalType": "uint256",
          "name": "",
          "type": "uint256"
        }
      ],
      "stateMutability": "view",
      "type": "function",
      "constant": true
    },
    {
      "inputs": [
        {
          "internalType": "uint256",
          "name": "",
          "type": "uint256"
        }
      ],
      "name": "cheques",
      "outputs": [
        {
          "internalType": "address",
          "name": "drawer",
          "type": "address"
        },
        {
          "internalType": "address",
          "name": "bearer",
          "type": "address"
        },
        {
          "internalType": "address",
          "name": "auditor",
          "type": "address"
        },
        {
          "internalType": "uint256",
          "name": "amount",
          "type": "uint256"
        },
        {
          "internalType": "uint256",
          "name": "expiry",
          "type": "uint256"
        },
        {
          "internalType": "bool",
          "name": "voided",
          "type": "bool"
        },
        {
          "internalType": "bool",
          "name": "transferable",
          "type": "bool"
        }
      ],
      "stateMutability": "view",
      "type": "function",
      "constant": true
    },
    {
      "inputs": [
        {
          "internalType": "address",
          "name": "",
          "type": "address"
        }
      ],
      "name": "deposits",
      "outputs": [
        {
          "internalType": "uint256",
          "name": "",
          "type": "uint256"
        }
      ],
      "stateMutability": "view",
      "type": "function",
      "constant": true
    },
    {
      "inputs": [
        {
          "internalType": "address",
          "name": "",
          "type": "address"
        }
      ],
      "name": "lastTrustedChange",
      "outputs": [
        {
          "internalType": "uint256",
          "name": "",
          "type": "uint256"
        }
      ],
      "stateMutability": "view",
      "type": "function",
      "constant": true
    },
    {
      "inputs": [
        {
          "internalType": "address",
          "name": "",
          "type": "address"
        },
        {
          "internalType": "address",
          "name": "",
          "type": "address"
        }
      ],
      "name": "signerAuditor",
      "outputs": [
        {
          "internalType": "bool",
          "name": "",
          "type": "bool"
        }
      ],
      "stateMutability": "view",
      "type": "function",
      "constant": true
    },
    {
      "inputs": [
        {
          "internalType": "address",
          "name": "",
          "type": "address"
        }
      ],
      "name": "trustedAccount",
      "outputs": [
        {
          "internalType": "address",
          "name": "",
          "type": "address"
        }
      ],
      "stateMutability": "view",
      "type": "function",
      "constant": true
    },
    {
      "stateMutability": "payable",
      "type": "receive",
      "payable": true
    },
    {
      "inputs": [
        {
          "internalType": "uint256",
          "name": "chequeId",
          "type": "uint256"
        }
      ],
      "name": "ownerOf",
      "outputs": [
        {
          "internalType": "address",
          "name": "",
          "type": "address"
        }
      ],
      "stateMutability": "view",
      "type": "function",
      "constant": true
    },
    {
      "inputs": [
        {
          "internalType": "uint256",
          "name": "amount",
          "type": "uint256"
        },
        {
          "internalType": "uint256",
          "name": "duration",
          "type": "uint256"
        },
        {
          "internalType": "address",
          "name": "auditor",
          "type": "address"
        }
      ],
      "name": "writeCheque",
      "outputs": [],
      "stateMutability": "nonpayable",
      "type": "function"
    },
    {
      "inputs": [
        {
          "internalType": "uint256",
          "name": "amount",
          "type": "uint256"
        },
        {
          "internalType": "uint256",
          "name": "duration",
          "type": "uint256"
        },
        {
          "internalType": "address",
          "name": "auditor",
          "type": "address"
        },
        {
          "internalType": "address",
          "name": "to",
          "type": "address"
        }
      ],
      "name": "writeCheque",
      "outputs": [],
      "stateMutability": "nonpayable",
      "type": "function"
    },
    {
      "inputs": [
        {
          "internalType": "uint256",
          "name": "chequeID",
          "type": "uint256"
        }
      ],
      "name": "cashCheque",
      "outputs": [],
      "stateMutability": "nonpayable",
      "type": "function"
    },
    {
      "inputs": [
        {
          "internalType": "uint256",
          "name": "chequeID",
          "type": "uint256"
        }
      ],
      "name": "voidCheque",
      "outputs": [],
      "stateMutability": "nonpayable",
      "type": "function"
    },
    {
      "inputs": [
        {
          "internalType": "uint256",
          "name": "chequeID",
          "type": "uint256"
        }
      ],
      "name": "voidTransferCheque",
      "outputs": [],
      "stateMutability": "nonpayable",
      "type": "function"
    },
    {
      "inputs": [
        {
          "internalType": "address",
          "name": "to",
          "type": "address"
        },
        {
          "internalType": "uint256",
          "name": "chequeID",
          "type": "uint256"
        }
      ],
      "name": "transfer",
      "outputs": [],
      "stateMutability": "nonpayable",
      "type": "function"
    },
    {
      "inputs": [
        {
          "internalType": "address",
          "name": "auditor",
          "type": "address"
        }
      ],
      "name": "setAcceptedAuditor",
      "outputs": [],
      "stateMutability": "nonpayable",
      "type": "function"
    },
    {
      "inputs": [
        {
          "internalType": "uint256",
          "name": "chequeId",
          "type": "uint256"
        }
      ],
      "name": "getChequeAuditor",
      "outputs": [
        {
          "internalType": "address",
          "name": "",
          "type": "address"
        }
      ],
      "stateMutability": "view",
      "type": "function",
      "constant": true
    },
    {
      "inputs": [
        {
          "internalType": "uint256",
          "name": "duration",
          "type": "uint256"
        }
      ],
      "name": "setAllowedDuration",
      "outputs": [],
      "stateMutability": "nonpayable",
      "type": "function"
    },
    {
      "inputs": [
        {
          "internalType": "address",
          "name": "signer",
          "type": "address"
        }
      ],
      "name": "setAcceptedDrawers",
      "outputs": [],
      "stateMutability": "nonpayable",
      "type": "function"
    },
    {
      "inputs": [
        {
          "internalType": "address",
          "name": "account",
          "type": "address"
        }
      ],
      "name": "setTrustedAccount",
      "outputs": [],
      "stateMutability": "nonpayable",
      "type": "function"
    },
    {
      "inputs": [
        {
          "internalType": "uint256",
          "name": "chequeId",
          "type": "uint256"
        }
      ],
      "name": "getChequeDrawer",
      "outputs": [
        {
          "internalType": "address",
          "name": "",
          "type": "address"
        }
      ],
      "stateMutability": "view",
      "type": "function",
      "constant": true
    },
    {
      "inputs": [
        {
          "internalType": "uint256",
          "name": "chequeId",
          "type": "uint256"
        }
      ],
      "name": "getChequeBearer",
      "outputs": [
        {
          "internalType": "address",
          "name": "",
          "type": "address"
        }
      ],
      "stateMutability": "view",
      "type": "function",
      "constant": true
    },
    {
      "inputs": [
        {
          "internalType": "uint256",
          "name": "chequeId",
          "type": "uint256"
        }
      ],
      "name": "chequeExpiry",
      "outputs": [
        {
          "internalType": "uint256",
          "name": "",
          "type": "uint256"
        }
      ],
      "stateMutability": "view",
      "type": "function",
      "constant": true
    },
    {
      "inputs": [
        {
          "internalType": "uint256",
          "name": "chequeId",
          "type": "uint256"
        }
      ],
      "name": "chequeAmount",
      "outputs": [
        {
          "internalType": "uint256",
          "name": "",
          "type": "uint256"
        }
      ],
      "stateMutability": "view",
      "type": "function",
      "constant": true
    },
    {
      "inputs": [
        {
          "internalType": "uint256",
          "name": "chequeId",
          "type": "uint256"
        }
      ],
      "name": "chequeVoided",
      "outputs": [
        {
          "internalType": "bool",
          "name": "",
          "type": "bool"
        }
      ],
      "stateMutability": "view",
      "type": "function",
      "constant": true
    },
    {
      "inputs": [
        {
          "internalType": "uint256",
          "name": "chequeId",
          "type": "uint256"
        }
      ],
      "name": "chequeTransferable",
      "outputs": [
        {
          "internalType": "bool",
          "name": "",
          "type": "bool"
        }
      ],
      "stateMutability": "view",
      "type": "function",
      "constant": true
    }
  ],
  "bytecode": "0x608060405234801561001057600080fd5b50612b90806100206000396000f3fe6080604052600436106101855760003560e01c80639145a545116100d1578063cb3b5a261161008a578063d7ad71eb11610064578063d7ad71eb146106b0578063e50c42b0146106ed578063fba16f841461072a578063fc7e286d146107675761022f565b8063cb3b5a2614610621578063ce7726671461064a578063d57f6d14146106735761022f565b80639145a54514610503578063a74d67011461052c578063a7a9c6bc14610555578063a9059cbb14610592578063bc3ee717146105bb578063bea13526146105f85761022f565b806351208fe41161013e5780636f46bd8e116101185780636f46bd8e1461040f57806372e3de5d1461044c5780637343064a1461048957806376696e80146104c65761022f565b806351208fe414610366578063584b22d1146103a95780636352211e146103d25761022f565b806306681f74146102345780631ed386db1461025d57806322cb44331461029a578063247fbf36146102d75780634663b4dc146103005780634877eff7146103295761022f565b3661022f573373ffffffffffffffffffffffffffffffffffffffff167fe1fffcc4923d04b559f4d29a8bfc6cda04eb5b0d3c460751c2402c5c5cc9109c346040516101d091906120bd565b60405180910390a234600660003373ffffffffffffffffffffffffffffffffffffffff1673ffffffffffffffffffffffffffffffffffffffff16815260200190815260200160002060008282546102279190612107565b925050819055005b600080fd5b34801561024057600080fd5b5061025b600480360381019061025691906121c0565b6107a4565b005b34801561026957600080fd5b50610284600480360381019061027f9190612219565b61083b565b6040516102919190612255565b60405180910390f35b3480156102a657600080fd5b506102c160048036038101906102bc9190612270565b61087b565b6040516102ce91906122cb565b60405180910390f35b3480156102e357600080fd5b506102fe60048036038101906102f991906122e6565b6108aa565b005b34801561030c57600080fd5b5061032760048036038101906103229190612219565b610da0565b005b34801561033557600080fd5b50610350600480360381019061034b91906121c0565b610fa9565b60405161035d91906120bd565b60405180910390f35b34801561037257600080fd5b5061038d60048036038101906103889190612219565b610fc1565b6040516103a09796959493929190612339565b60405180910390f35b3480156103b557600080fd5b506103d060048036038101906103cb9190612219565b61107d565b005b3480156103de57600080fd5b506103f960048036038101906103f49190612219565b6110e9565b6040516104069190612255565b60405180910390f35b34801561041b57600080fd5b5061043660048036038101906104319190612219565b611129565b60405161044391906122cb565b60405180910390f35b34801561045857600080fd5b50610473600480360381019061046e9190612219565b611156565b60405161048091906122cb565b60405180910390f35b34801561049557600080fd5b506104b060048036038101906104ab9190612219565b611183565b6040516104bd9190612255565b60405180910390f35b3480156104d257600080fd5b506104ed60048036038101906104e891906121c0565b6111c3565b6040516104fa91906120bd565b60405180910390f35b34801561050f57600080fd5b5061052a600480360381019061052591906121c0565b6111db565b005b34801561053857600080fd5b50610553600480360381019061054e9190612219565b611272565b005b34801561056157600080fd5b5061057c600480360381019061057791906123a8565b611500565b60405161058991906122cb565b60405180910390f35b34801561059e57600080fd5b506105b960048036038101906105b49190612270565b61152f565b005b3480156105c757600080fd5b506105e260048036038101906105dd91906121c0565b61168c565b6040516105ef9190612255565b60405180910390f35b34801561060457600080fd5b5061061f600480360381019061061a9190612219565b6116bf565b005b34801561062d57600080fd5b50610648600480360381019061064391906121c0565b611927565b005b34801561065657600080fd5b50610671600480360381019061066c91906123e8565b611a8d565b005b34801561067f57600080fd5b5061069a600480360381019061069591906123a8565b611fdd565b6040516106a791906122cb565b60405180910390f35b3480156106bc57600080fd5b506106d760048036038101906106d29190612219565b61200c565b6040516106e491906120bd565b60405180910390f35b3480156106f957600080fd5b50610714600480360381019061070f9190612219565b61202c565b60405161072191906120bd565b60405180910390f35b34801561073657600080fd5b50610751600480360381019061074c9190612219565b61204c565b60405161075e9190612255565b60405180910390f35b34801561077357600080fd5b5061078e600480360381019061078991906121c0565b61208c565b60405161079b91906120bd565b60405180910390f35b60016000803373ffffffffffffffffffffffffffffffffffffffff1673ffffffffffffffffffffffffffffffffffffffff16815260200190815260200160002060008373ffffffffffffffffffffffffffffffffffffffff1673ffffffffffffffffffffffffffffffffffffffff16815260200190815260200160002060006101000a81548160ff02191690831515021790555050565b60006003600083815260200190815260200160002060010160009054906101000a900473ffffffffffffffffffffffffffffffffffffffff169050919050565b60026020528160005260406000206020528060005260406000206000915091509054906101000a900460ff1681565b82600660003373ffffffffffffffffffffffffffffffffffffffff1673ffffffffffffffffffffffffffffffffffffffff16815260200190815260200160002054101561092c576040517f08c379a0000000000000000000000000000000000000000000000000000000008152600401610923906124ac565b60405180910390fd5b600073ffffffffffffffffffffffffffffffffffffffff168173ffffffffffffffffffffffffffffffffffffffff160361099b576040517f08c379a000000000000000000000000000000000000000000000000000000000815260040161099290612518565b60405180910390fd5b600260008273ffffffffffffffffffffffffffffffffffffffff1673ffffffffffffffffffffffffffffffffffffffff168152602001908152602001600020600083815260200190815260200160002060009054906101000a900460ff16610a38576040517f08c379a0000000000000000000000000000000000000000000000000000000008152600401610a2f906125aa565b60405180910390fd5b600160003373ffffffffffffffffffffffffffffffffffffffff1673ffffffffffffffffffffffffffffffffffffffff16815260200190815260200160002060008273ffffffffffffffffffffffffffffffffffffffff1673ffffffffffffffffffffffffffffffffffffffff16815260200190815260200160002060009054906101000a900460ff16610b01576040517f08c379a0000000000000000000000000000000000000000000000000000000008152600401610af89061263c565b60405180910390fd5b82600660003373ffffffffffffffffffffffffffffffffffffffff1673ffffffffffffffffffffffffffffffffffffffff1681526020019081526020016000206000828254610b50919061265c565b92505081905550600160086000828254610b6a9190612107565b925050819055506001600760003373ffffffffffffffffffffffffffffffffffffffff1673ffffffffffffffffffffffffffffffffffffffff1681526020019081526020016000206000828254610bc19190612107565b925050819055506040518060e001604052803373ffffffffffffffffffffffffffffffffffffffff1681526020013373ffffffffffffffffffffffffffffffffffffffff1681526020018273ffffffffffffffffffffffffffffffffffffffff1681526020018481526020018342610c399190612107565b815260200160001515815260200160011515815250600360006001600854610c619190612107565b815260200190815260200160002060008201518160000160006101000a81548173ffffffffffffffffffffffffffffffffffffffff021916908373ffffffffffffffffffffffffffffffffffffffff16021790555060208201518160010160006101000a81548173ffffffffffffffffffffffffffffffffffffffff021916908373ffffffffffffffffffffffffffffffffffffffff16021790555060408201518160020160006101000a81548173ffffffffffffffffffffffffffffffffffffffff021916908373ffffffffffffffffffffffffffffffffffffffff160217905550606082015181600301556080820151816004015560a08201518160050160006101000a81548160ff02191690831515021790555060c08201518160050160016101000a81548160ff021916908315150217905550905050505050565b60006003600083815260200190815260200160002090503373ffffffffffffffffffffffffffffffffffffffff168160020160009054906101000a900473ffffffffffffffffffffffffffffffffffffffff1673ffffffffffffffffffffffffffffffffffffffff1614610e49576040517f08c379a0000000000000000000000000000000000000000000000000000000008152600401610e40906126dc565b60405180910390fd5b42816004015410610e8f576040517f08c379a0000000000000000000000000000000000000000000000000000000008152600401610e8690612748565b60405180910390fd5b60018160050160006101000a81548160ff0219169083151502179055506001600760008360010160009054906101000a900473ffffffffffffffffffffffffffffffffffffffff1673ffffffffffffffffffffffffffffffffffffffff1673ffffffffffffffffffffffffffffffffffffffff1681526020019081526020016000206000828254610f20919061265c565b925050819055508060030154600660008360000160009054906101000a900473ffffffffffffffffffffffffffffffffffffffff1673ffffffffffffffffffffffffffffffffffffffff1673ffffffffffffffffffffffffffffffffffffffff1681526020019081526020016000206000828254610f9e9190612107565b925050819055505050565b60076020528060005260406000206000915090505481565b60036020528060005260406000206000915090508060000160009054906101000a900473ffffffffffffffffffffffffffffffffffffffff16908060010160009054906101000a900473ffffffffffffffffffffffffffffffffffffffff16908060020160009054906101000a900473ffffffffffffffffffffffffffffffffffffffff16908060030154908060040154908060050160009054906101000a900460ff16908060050160019054906101000a900460ff16905087565b6001600260003373ffffffffffffffffffffffffffffffffffffffff1673ffffffffffffffffffffffffffffffffffffffff168152602001908152602001600020600083815260200190815260200160002060006101000a81548160ff02191690831515021790555050565b60006003600083815260200190815260200160002060010160009054906101000a900473ffffffffffffffffffffffffffffffffffffffff169050919050565b60006003600083815260200190815260200160002060050160009054906101000a900460ff169050919050565b60006003600083815260200190815260200160002060050160019054906101000a900460ff169050919050565b60006003600083815260200190815260200160002060020160009054906101000a900473ffffffffffffffffffffffffffffffffffffffff169050919050565b60056020528060005260406000206000915090505481565b60018060003373ffffffffffffffffffffffffffffffffffffffff1673ffffffffffffffffffffffffffffffffffffffff16815260200190815260200160002060008373ffffffffffffffffffffffffffffffffffffffff1673ffffffffffffffffffffffffffffffffffffffff16815260200190815260200160002060006101000a81548160ff02191690831515021790555050565b60006003600083815260200190815260200160002090503373ffffffffffffffffffffffffffffffffffffffff168160010160009054906101000a900473ffffffffffffffffffffffffffffffffffffffff1673ffffffffffffffffffffffffffffffffffffffff161461131b576040517f08c379a0000000000000000000000000000000000000000000000000000000008152600401611312906127b4565b60405180910390fd5b42816004015411611361576040517f08c379a000000000000000000000000000000000000000000000000000000000815260040161135890612820565b60405180910390fd5b8060050160009054906101000a900460ff16156113b3576040517f08c379a00000000000000000000000000000000000000000000000000000000081526004016113aa9061288c565b60405180910390fd5b60018160050160006101000a81548160ff02191690831515021790555060003373ffffffffffffffffffffffffffffffffffffffff1682600301546040516113fa906128dd565b60006040518083038185875af1925050503d8060008114611437576040519150601f19603f3d011682016040523d82523d6000602084013e61143c565b606091505b5050905080611480576040517f08c379a00000000000000000000000000000000000000000000000000000000081526004016114779061293e565b60405180910390fd5b6001600760008460010160009054906101000a900473ffffffffffffffffffffffffffffffffffffffff1673ffffffffffffffffffffffffffffffffffffffff1673ffffffffffffffffffffffffffffffffffffffff16815260200190815260200160002060008282546114f4919061265c565b92505081905550505050565b60006020528160005260406000206020528060005260406000206000915091509054906101000a900460ff1681565b60006003600083815260200190815260200160002090503373ffffffffffffffffffffffffffffffffffffffff168160010160009054906101000a900473ffffffffffffffffffffffffffffffffffffffff1673ffffffffffffffffffffffffffffffffffffffff16146115d8576040517f08c379a00000000000000000000000000000000000000000000000000000000081526004016115cf906129aa565b60405180910390fd5b8060050160019054906101000a900460ff16801561160557508060050160009054906101000a900460ff16155b611644576040517f08c379a000000000000000000000000000000000000000000000000000000000815260040161163b90612a16565b60405180910390fd5b828160010160006101000a81548173ffffffffffffffffffffffffffffffffffffffff021916908373ffffffffffffffffffffffffffffffffffffffff160217905550505050565b60046020528060005260406000206000915054906101000a900473ffffffffffffffffffffffffffffffffffffffff1681565b60006003600083815260200190815260200160002090503373ffffffffffffffffffffffffffffffffffffffff168160020160009054906101000a900473ffffffffffffffffffffffffffffffffffffffff1673ffffffffffffffffffffffffffffffffffffffff1614611768576040517f08c379a000000000000000000000000000000000000000000000000000000000815260040161175f906126dc565b60405180910390fd5b428160040154106117ae576040517f08c379a00000000000000000000000000000000000000000000000000000000081526004016117a590612748565b60405180910390fd5b60018160050160006101000a81548160ff0219169083151502179055506001600760008360010160009054906101000a900473ffffffffffffffffffffffffffffffffffffffff1673ffffffffffffffffffffffffffffffffffffffff1673ffffffffffffffffffffffffffffffffffffffff168152602001908152602001600020600082825461183f919061265c565b92505081905550806003015460066000600460008560000160009054906101000a900473ffffffffffffffffffffffffffffffffffffffff1673ffffffffffffffffffffffffffffffffffffffff1673ffffffffffffffffffffffffffffffffffffffff16815260200190815260200160002060009054906101000a900473ffffffffffffffffffffffffffffffffffffffff1673ffffffffffffffffffffffffffffffffffffffff1673ffffffffffffffffffffffffffffffffffffffff168152602001908152602001600020600082825461191c9190612107565b925050819055505050565b4262ed4e00600560003373ffffffffffffffffffffffffffffffffffffffff1673ffffffffffffffffffffffffffffffffffffffff168152602001908152602001600020546119769190612107565b106119b6576040517f08c379a00000000000000000000000000000000000000000000000000000000081526004016119ad90612aa8565b60405180910390fd5b80600460003373ffffffffffffffffffffffffffffffffffffffff1673ffffffffffffffffffffffffffffffffffffffff16815260200190815260200160002060006101000a81548173ffffffffffffffffffffffffffffffffffffffff021916908373ffffffffffffffffffffffffffffffffffffffff16021790555042600560003373ffffffffffffffffffffffffffffffffffffffff1673ffffffffffffffffffffffffffffffffffffffff1681526020019081526020016000206000828254611a839190612107565b9250508190555050565b83600660003373ffffffffffffffffffffffffffffffffffffffff1673ffffffffffffffffffffffffffffffffffffffff168152602001908152602001600020541015611b0f576040517f08c379a0000000000000000000000000000000000000000000000000000000008152600401611b06906124ac565b60405180910390fd5b600260008373ffffffffffffffffffffffffffffffffffffffff1673ffffffffffffffffffffffffffffffffffffffff168152602001908152602001600020600084815260200190815260200160002060009054906101000a900460ff16611bac576040517f08c379a0000000000000000000000000000000000000000000000000000000008152600401611ba3906125aa565b60405180910390fd5b600160003373ffffffffffffffffffffffffffffffffffffffff1673ffffffffffffffffffffffffffffffffffffffff16815260200190815260200160002060008373ffffffffffffffffffffffffffffffffffffffff1673ffffffffffffffffffffffffffffffffffffffff16815260200190815260200160002060009054906101000a900460ff16611c75576040517f08c379a0000000000000000000000000000000000000000000000000000000008152600401611c6c9061263c565b60405180910390fd5b6000803373ffffffffffffffffffffffffffffffffffffffff1673ffffffffffffffffffffffffffffffffffffffff16815260200190815260200160002060008373ffffffffffffffffffffffffffffffffffffffff1673ffffffffffffffffffffffffffffffffffffffff16815260200190815260200160002060009054906101000a900460ff16611d3d576040517f08c379a0000000000000000000000000000000000000000000000000000000008152600401611d3490612b3a565b60405180910390fd5b83600660003373ffffffffffffffffffffffffffffffffffffffff1673ffffffffffffffffffffffffffffffffffffffff1681526020019081526020016000206000828254611d8c919061265c565b92505081905550600160086000828254611da69190612107565b925050819055506001600760008373ffffffffffffffffffffffffffffffffffffffff1673ffffffffffffffffffffffffffffffffffffffff1681526020019081526020016000206000828254611dfd9190612107565b925050819055506040518060e001604052803373ffffffffffffffffffffffffffffffffffffffff1681526020018273ffffffffffffffffffffffffffffffffffffffff1681526020018373ffffffffffffffffffffffffffffffffffffffff1681526020018581526020018442611e759190612107565b815260200160001515815260200160011515815250600360006001600854611e9d9190612107565b815260200190815260200160002060008201518160000160006101000a81548173ffffffffffffffffffffffffffffffffffffffff021916908373ffffffffffffffffffffffffffffffffffffffff16021790555060208201518160010160006101000a81548173ffffffffffffffffffffffffffffffffffffffff021916908373ffffffffffffffffffffffffffffffffffffffff16021790555060408201518160020160006101000a81548173ffffffffffffffffffffffffffffffffffffffff021916908373ffffffffffffffffffffffffffffffffffffffff160217905550606082015181600301556080820151816004015560a08201518160050160006101000a81548160ff02191690831515021790555060c08201518160050160016101000a81548160ff02191690831515021790555090505050505050565b60016020528160005260406000206020528060005260406000206000915091509054906101000a900460ff1681565b600060036000838152602001908152602001600020600401549050919050565b600060036000838152602001908152602001600020600301549050919050565b60006003600083815260200190815260200160002060000160009054906101000a900473ffffffffffffffffffffffffffffffffffffffff169050919050565b60066020528060005260406000206000915090505481565b6000819050919050565b6120b7816120a4565b82525050565b60006020820190506120d260008301846120ae565b92915050565b7f4e487b7100000000000000000000000000000000000000000000000000000000600052601160045260246000fd5b6000612112826120a4565b915061211d836120a4565b9250827fffffffffffffffffffffffffffffffffffffffffffffffffffffffffffffffff03821115612152576121516120d8565b5b828201905092915050565b600080fd5b600073ffffffffffffffffffffffffffffffffffffffff82169050919050565b600061218d82612162565b9050919050565b61219d81612182565b81146121a857600080fd5b50565b6000813590506121ba81612194565b92915050565b6000602082840312156121d6576121d561215d565b5b60006121e4848285016121ab565b91505092915050565b6121f6816120a4565b811461220157600080fd5b50565b600081359050612213816121ed565b92915050565b60006020828403121561222f5761222e61215d565b5b600061223d84828501612204565b91505092915050565b61224f81612182565b82525050565b600060208201905061226a6000830184612246565b92915050565b600080604083850312156122875761228661215d565b5b6000612295858286016121ab565b92505060206122a685828601612204565b9150509250929050565b60008115159050919050565b6122c5816122b0565b82525050565b60006020820190506122e060008301846122bc565b92915050565b6000806000606084860312156122ff576122fe61215d565b5b600061230d86828701612204565b935050602061231e86828701612204565b925050604061232f868287016121ab565b9150509250925092565b600060e08201905061234e600083018a612246565b61235b6020830189612246565b6123686040830188612246565b61237560608301876120ae565b61238260808301866120ae565b61238f60a08301856122bc565b61239c60c08301846122bc565b98975050505050505050565b600080604083850312156123bf576123be61215d565b5b60006123cd858286016121ab565b92505060206123de858286016121ab565b9150509250929050565b600080600080608085870312156124025761240161215d565b5b600061241087828801612204565b945050602061242187828801612204565b9350506040612432878288016121ab565b9250506060612443878288016121ab565b91505092959194509250565b600082825260208201905092915050565b7f57726974696e67206d6f7265207468616e20617661696c61626c650000000000600082015250565b6000612496601b8361244f565b91506124a182612460565b602082019050919050565b600060208201905081810360008301526124c581612489565b9050919050565b7f41756469746f72206e756c6c2061646472657373000000000000000000000000600082015250565b600061250260148361244f565b915061250d826124cc565b602082019050919050565b60006020820190508181036000830152612531816124f5565b9050919050565b7f41756469746f7220646f65736e277420616c6c6f77207468697320647572617460008201527f696f6e0000000000000000000000000000000000000000000000000000000000602082015250565b600061259460238361244f565b915061259f82612538565b604082019050919050565b600060208201905081810360008301526125c381612587565b9050919050565b7f41756469746f72206d75737420617070726f76652074686973206163636f756e60008201527f7400000000000000000000000000000000000000000000000000000000000000602082015250565b600061262660218361244f565b9150612631826125ca565b604082019050919050565b6000602082019050818103600083015261265581612619565b9050919050565b6000612667826120a4565b9150612672836120a4565b925082821015612685576126846120d8565b5b828203905092915050565b7f4d7573742062652061756469746f720000000000000000000000000000000000600082015250565b60006126c6600f8361244f565b91506126d182612690565b602082019050919050565b600060208201905081810360008301526126f5816126b9565b9050919050565b7f43686571756520616c7265616479206d61747572656400000000000000000000600082015250565b600061273260168361244f565b915061273d826126fc565b602082019050919050565b6000602082019050818103600083015261276181612725565b9050919050565b7f4d757374206f776e2063686571756520746f2063617368000000000000000000600082015250565b600061279e60178361244f565b91506127a982612768565b602082019050919050565b600060208201905081810360008301526127cd81612791565b9050919050565b7f436865717565206e6f74206361736861626c6520796574000000000000000000600082015250565b600061280a60178361244f565b9150612815826127d4565b602082019050919050565b60006020820190508181036000830152612839816127fd565b9050919050565b7f43686571756520696e76616c6964000000000000000000000000000000000000600082015250565b6000612876600e8361244f565b915061288182612840565b602082019050919050565b600060208201905081810360008301526128a581612869565b9050919050565b600081905092915050565b50565b60006128c76000836128ac565b91506128d2826128b7565b600082019050919050565b60006128e8826128ba565b9150819050919050565b7f5472616e73666572206661696c65642e00000000000000000000000000000000600082015250565b600061292860108361244f565b9150612933826128f2565b602082019050919050565b600060208201905081810360008301526129578161291b565b9050919050565b7f4f6e6c7920636865717565206f776e65722063616e207472616e736665720000600082015250565b6000612994601e8361244f565b915061299f8261295e565b602082019050919050565b600060208201905081810360008301526129c381612987565b9050919050565b7f436865717565206e6f74207472616e7366657261626c65000000000000000000600082015250565b6000612a0060178361244f565b9150612a0b826129ca565b602082019050919050565b60006020820190508181036000830152612a2f816129f3565b9050919050565b7f43616e206f6e6c79206368616e67652074727573746564206163636f756e742060008201527f6f6e636520657665727920313830206461797300000000000000000000000000602082015250565b6000612a9260338361244f565b9150612a9d82612a36565b604082019050919050565b60006020820190508181036000830152612ac181612a85565b9050919050565b7f4d65726368616e7420646f65736e27742061636365707420746869732061756460008201527f69746f7200000000000000000000000000000000000000000000000000000000602082015250565b6000612b2460248361244f565b9150612b2f82612ac8565b604082019050919050565b60006020820190508181036000830152612b5381612b17565b905091905056fea2646970667358221220c79f62d5a437e418d81fcfd11d9f160856aebd33fc0ae24527a55a448ac54dd064736f6c634300080f0033",
  "immutableReferences": {},
  "source": "// SPDX-License-Identifier: MIT\r\npragma solidity >=0.8.14;\r\n\r\n\r\ncontract dCheque {\r\n    struct Cheque{\r\n        address drawer;\r\n        address bearer;\r\n        address auditor;\r\n        uint256 amount;\r\n        uint256 expiry;\r\n        bool voided;\r\n        bool transferable;\r\n    }\r\n    mapping(address=>mapping(address=>bool)) public acceptedAuditor;  // Merchent=>Auditor\r\n    mapping(address=>mapping(address=>bool)) public signerAuditor;  // Signer=>Auditor\r\n    mapping(address=>mapping(uint256=>bool)) public auditorDurations;  // Auditor\r\n    mapping(uint256=>Cheque) public cheques;\r\n    mapping(address=>address) public trustedAccount;  // User's trusted account\r\n    mapping(address=>uint256) public lastTrustedChange;\r\n    mapping(address=>uint256) public deposits;\r\n    mapping(address=>uint256) public chequeCount;\r\n    uint256 totalSupply;\r\n\r\n    event Deposit(address indexed from, uint256 amount);\r\n\r\n    receive() external payable{\r\n        emit Deposit(msg.sender, msg.value);\r\n        deposits[msg.sender] += msg.value;\r\n    }\r\n\r\n    function ownerOf(uint256 chequeId) external view returns(address) {\r\n        return cheques[chequeId].bearer;\r\n    }\r\n    function writeCheque(uint256 amount, uint256 duration, address auditor) public {\r\n        require(deposits[msg.sender]>=amount, \"Writing more than available\");\r\n        require(auditor!=address(0), \"Auditor null address\");\r\n        require(auditorDurations[auditor][duration], \"Auditor doesn't allow this duration\");\r\n        require(signerAuditor[msg.sender][auditor], \"Auditor must approve this account\");\r\n        deposits[msg.sender] -= amount;\r\n        totalSupply += 1;\r\n        chequeCount[msg.sender]+=1;\r\n        cheques[totalSupply+1] = Cheque({drawer: msg.sender, bearer: msg.sender, expiry: block.timestamp+duration, \r\n                                         auditor: auditor, amount: amount, voided: false, transferable: true});\r\n    }\r\n    function writeCheque(uint256 amount, uint256 duration, address auditor, address to) external {\r\n        require(deposits[msg.sender]>=amount, \"Writing more than available\");\r\n        require(auditorDurations[auditor][duration], \"Auditor doesn't allow this duration\");\r\n        require(signerAuditor[msg.sender][auditor], \"Auditor must approve this account\");\r\n        require(acceptedAuditor[msg.sender][auditor], \"Merchant doesn't accept this auditor\");\r\n        deposits[msg.sender] -= amount;\r\n        totalSupply += 1;\r\n        chequeCount[to]+=1;\r\n        cheques[totalSupply+1] = Cheque({drawer: msg.sender, bearer: to, expiry: block.timestamp+duration, \r\n                                       auditor: auditor, amount:amount, voided:false, transferable:true});\r\n    }\r\n    function cashCheque(uint256 chequeID) external {  // Only allow withdraws via cheque writing\r\n        Cheque storage cheque = cheques[chequeID];\r\n        require(cheque.bearer==msg.sender, \"Must own cheque to cash\");\r\n        require(cheque.expiry>block.timestamp, \"Cheque not cashable yet\");\r\n        require(!cheque.voided, \"Cheque invalid\");\r\n        cheque.voided = true;\r\n        (bool success, ) = msg.sender.call{value:cheque.amount}(\"\");\r\n        require(success, \"Transfer failed.\");\r\n        chequeCount[cheque.bearer]-=1;\r\n    }\r\n    function voidCheque(uint256 chequeID) external {\r\n        Cheque storage cheque = cheques[chequeID];\r\n        require(cheque.auditor==msg.sender, \"Must be auditor\");\r\n        require(cheque.expiry<block.timestamp, \"Cheque already matured\");\r\n        cheque.voided = true;\r\n        chequeCount[cheque.bearer]-=1;\r\n        deposits[cheque.drawer] += cheque.amount;  // Add balance back to signer\r\n    }\r\n    function voidTransferCheque(uint256 chequeID) external {\r\n        Cheque storage cheque = cheques[chequeID];\r\n        require(cheque.auditor==msg.sender, \"Must be auditor\");\r\n        require(cheque.expiry<block.timestamp, \"Cheque already matured\");\r\n        cheque.voided = true;\r\n        chequeCount[cheque.bearer]-=1;\r\n        deposits[trustedAccount[cheque.drawer]] += cheque.amount;  // Add balance back to trusted (secondary) account\r\n    }\r\n    function transfer(address to, uint256 chequeID) external {\r\n        Cheque storage cheque = cheques[chequeID];\r\n        require(cheque.bearer==msg.sender, \"Only cheque owner can transfer\");\r\n        require(cheque.transferable && (!cheque.voided), \"Cheque not transferable\");\r\n        cheque.bearer = to;\r\n    }\r\n    function setAcceptedAuditor(address auditor) external {  // Merchant will set this\r\n        acceptedAuditor[msg.sender][auditor] = true;\r\n    }\r\n    function getChequeAuditor(uint256 chequeId) external view returns (address) {\r\n        return cheques[chequeId].auditor;\r\n    } \r\n    function setAllowedDuration(uint256 duration) external {  // Auditor will set this\r\n        auditorDurations[msg.sender][duration] = true;\r\n    }\r\n    function setAcceptedDrawers(address signer) external {  // Auditor will set this\r\n        signerAuditor[msg.sender][signer] = true;\r\n    }\r\n    function setTrustedAccount(address account) external {\r\n        require((lastTrustedChange[msg.sender] + 180 days)<block.timestamp, \"Can only change trusted account once every 180 days\");\r\n        trustedAccount[msg.sender] = account;\r\n        lastTrustedChange[msg.sender] += block.timestamp;\r\n    }\r\n    function getChequeDrawer(uint256 chequeId) external view returns (address) {\r\n        return cheques[chequeId].drawer;\r\n    }\r\n    function getChequeBearer(uint256 chequeId) external view returns (address) {\r\n        return cheques[chequeId].bearer;\r\n    }\r\n    function chequeExpiry(uint256 chequeId) external view returns (uint256) {\r\n        return cheques[chequeId].expiry;\r\n    }\r\n    function chequeAmount(uint256 chequeId) external view returns (uint256) {\r\n        return cheques[chequeId].amount;\r\n    }\r\n    function chequeVoided(uint256 chequeId) external view returns (bool) {\r\n        return cheques[chequeId].voided;\r\n    }\r\n    function chequeTransferable(uint256 chequeId) external view returns (bool) {\r\n        return cheques[chequeId].transferable;\r\n    }\r\n}",
  "sourcePath": "/Users/alexa/PycharmProjects/CryptoCheque/src/contracts/dCheque.sol",
  "compiler": {
    "name": "solc",
    "version": "0.8.15+commit.e14f2714.Emscripten.clang"
  },
  "schemaVersion": "3.4.4",
  "updatedAt": "2022-06-27T19:47:01.709Z",
  "networkType": "ethereum",
  "devdoc": {
    "kind": "dev",
    "methods": {},
    "version": 1
  },
  "userdoc": {
    "kind": "user",
    "methods": {},
    "version": 1
  }
}