{
  "abi": [
    {
      "inputs": [],
      "stateMutability": "nonpayable",
      "type": "constructor"
    },
    {
      "anonymous": false,
      "inputs": [
        {
          "indexed": true,
          "internalType": "address",
          "name": "owner",
          "type": "address"
        },
        {
          "indexed": true,
          "internalType": "address",
          "name": "approved",
          "type": "address"
        },
        {
          "indexed": true,
          "internalType": "uint256",
          "name": "tokenId",
          "type": "uint256"
        }
      ],
      "name": "Approval",
      "type": "event"
    },
    {
      "anonymous": false,
      "inputs": [
        {
          "indexed": true,
          "internalType": "address",
          "name": "owner",
          "type": "address"
        },
        {
          "indexed": true,
          "internalType": "address",
          "name": "operator",
          "type": "address"
        },
        {
          "indexed": false,
          "internalType": "bool",
          "name": "approved",
          "type": "bool"
        }
      ],
      "name": "ApprovalForAll",
      "type": "event"
    },
    {
      "anonymous": false,
      "inputs": [
        {
          "indexed": true,
          "internalType": "address",
          "name": "previousOwner",
          "type": "address"
        },
        {
          "indexed": true,
          "internalType": "address",
          "name": "newOwner",
          "type": "address"
        }
      ],
      "name": "OwnershipTransferred",
      "type": "event"
    },
    {
      "anonymous": false,
      "inputs": [
        {
          "indexed": true,
          "internalType": "address",
          "name": "from",
          "type": "address"
        },
        {
          "indexed": true,
          "internalType": "address",
          "name": "to",
          "type": "address"
        },
        {
          "indexed": true,
          "internalType": "uint256",
          "name": "tokenId",
          "type": "uint256"
        }
      ],
      "name": "Transfer",
      "type": "event"
    },
    {
      "inputs": [
        {
          "internalType": "address",
          "name": "to",
          "type": "address"
        },
        {
          "internalType": "uint256",
          "name": "tokenId",
          "type": "uint256"
        }
      ],
      "name": "approve",
      "outputs": [],
      "stateMutability": "nonpayable",
      "type": "function"
    },
    {
      "inputs": [
        {
          "internalType": "address",
          "name": "owner",
          "type": "address"
        }
      ],
      "name": "balanceOf",
      "outputs": [
        {
          "internalType": "uint256",
          "name": "",
          "type": "uint256"
        }
      ],
      "stateMutability": "view",
      "type": "function"
    },
    {
      "inputs": [
        {
          "internalType": "uint256",
          "name": "",
          "type": "uint256"
        }
      ],
      "name": "chequeInfo",
      "outputs": [
        {
          "internalType": "uint256",
          "name": "amount",
          "type": "uint256"
        },
        {
          "internalType": "uint256",
          "name": "created",
          "type": "uint256"
        },
        {
          "internalType": "uint256",
          "name": "expiry",
          "type": "uint256"
        },
        {
          "internalType": "contract IERC20",
          "name": "token",
          "type": "address"
        },
        {
          "internalType": "address",
          "name": "drawer",
          "type": "address"
        },
        {
          "internalType": "address",
          "name": "recipient",
          "type": "address"
        },
        {
          "internalType": "address",
          "name": "auditor",
          "type": "address"
        },
        {
          "internalType": "enum CheQ.Transferring",
          "name": "transferring",
          "type": "uint8"
        },
        {
          "internalType": "enum CheQ.Status",
          "name": "status",
          "type": "uint8"
        },
        {
          "internalType": "bool",
          "name": "collateralized",
          "type": "bool"
        }
      ],
      "stateMutability": "view",
      "type": "function"
    },
    {
      "inputs": [
        {
          "internalType": "uint256",
          "name": "",
          "type": "uint256"
        },
        {
          "internalType": "address",
          "name": "",
          "type": "address"
        }
      ],
      "name": "chequeWhitelist",
      "outputs": [
        {
          "internalType": "bool",
          "name": "",
          "type": "bool"
        }
      ],
      "stateMutability": "view",
      "type": "function"
    },
    {
      "inputs": [
        {
          "internalType": "address",
          "name": "",
          "type": "address"
        },
        {
          "internalType": "contract IERC20",
          "name": "",
          "type": "address"
        }
      ],
      "name": "deposits",
      "outputs": [
        {
          "internalType": "uint256",
          "name": "",
          "type": "uint256"
        }
      ],
      "stateMutability": "view",
      "type": "function"
    },
    {
      "inputs": [
        {
          "internalType": "uint256",
          "name": "tokenId",
          "type": "uint256"
        }
      ],
      "name": "getApproved",
      "outputs": [
        {
          "internalType": "address",
          "name": "",
          "type": "address"
        }
      ],
      "stateMutability": "view",
      "type": "function"
    },
    {
      "inputs": [
        {
          "internalType": "address",
          "name": "owner",
          "type": "address"
        },
        {
          "internalType": "address",
          "name": "operator",
          "type": "address"
        }
      ],
      "name": "isApprovedForAll",
      "outputs": [
        {
          "internalType": "bool",
          "name": "",
          "type": "bool"
        }
      ],
      "stateMutability": "view",
      "type": "function"
    },
    {
      "inputs": [],
      "name": "name",
      "outputs": [
        {
          "internalType": "string",
          "name": "",
          "type": "string"
        }
      ],
      "stateMutability": "view",
      "type": "function"
    },
    {
      "inputs": [],
      "name": "owner",
      "outputs": [
        {
          "internalType": "address",
          "name": "",
          "type": "address"
        }
      ],
      "stateMutability": "view",
      "type": "function"
    },
    {
      "inputs": [
        {
          "internalType": "uint256",
          "name": "tokenId",
          "type": "uint256"
        }
      ],
      "name": "ownerOf",
      "outputs": [
        {
          "internalType": "address",
          "name": "",
          "type": "address"
        }
      ],
      "stateMutability": "view",
      "type": "function"
    },
    {
      "inputs": [],
      "name": "renounceOwnership",
      "outputs": [],
      "stateMutability": "nonpayable",
      "type": "function"
    },
    {
      "inputs": [
        {
          "internalType": "address",
          "name": "from",
          "type": "address"
        },
        {
          "internalType": "address",
          "name": "to",
          "type": "address"
        },
        {
          "internalType": "uint256",
          "name": "tokenId",
          "type": "uint256"
        }
      ],
      "name": "safeTransferFrom",
      "outputs": [],
      "stateMutability": "nonpayable",
      "type": "function"
    },
    {
      "inputs": [
        {
          "internalType": "address",
          "name": "from",
          "type": "address"
        },
        {
          "internalType": "address",
          "name": "to",
          "type": "address"
        },
        {
          "internalType": "uint256",
          "name": "chequeID",
          "type": "uint256"
        },
        {
          "internalType": "bytes",
          "name": "data",
          "type": "bytes"
        }
      ],
      "name": "safeTransferFrom",
      "outputs": [],
      "stateMutability": "nonpayable",
      "type": "function"
    },
    {
      "inputs": [
        {
          "internalType": "address",
          "name": "operator",
          "type": "address"
        },
        {
          "internalType": "bool",
          "name": "approved",
          "type": "bool"
        }
      ],
      "name": "setApprovalForAll",
      "outputs": [],
      "stateMutability": "nonpayable",
      "type": "function"
    },
    {
      "inputs": [
        {
          "internalType": "bytes4",
          "name": "interfaceId",
          "type": "bytes4"
        }
      ],
      "name": "supportsInterface",
      "outputs": [
        {
          "internalType": "bool",
          "name": "",
          "type": "bool"
        }
      ],
      "stateMutability": "view",
      "type": "function"
    },
    {
      "inputs": [],
      "name": "symbol",
      "outputs": [
        {
          "internalType": "string",
          "name": "",
          "type": "string"
        }
      ],
      "stateMutability": "view",
      "type": "function"
    },
    {
      "inputs": [
        {
          "internalType": "uint256",
          "name": "tokenId",
          "type": "uint256"
        }
      ],
      "name": "tokenURI",
      "outputs": [
        {
          "internalType": "string",
          "name": "",
          "type": "string"
        }
      ],
      "stateMutability": "view",
      "type": "function"
    },
    {
      "inputs": [
        {
          "internalType": "address",
          "name": "from",
          "type": "address"
        },
        {
          "internalType": "address",
          "name": "to",
          "type": "address"
        },
        {
          "internalType": "uint256",
          "name": "chequeID",
          "type": "uint256"
        }
      ],
      "name": "transferFrom",
      "outputs": [],
      "stateMutability": "nonpayable",
      "type": "function"
    },
    {
      "inputs": [
        {
          "internalType": "address",
          "name": "newOwner",
          "type": "address"
        }
      ],
      "name": "transferOwnership",
      "outputs": [],
      "stateMutability": "nonpayable",
      "type": "function"
    },
    {
      "inputs": [
        {
          "internalType": "contract IERC20",
          "name": "_token",
          "type": "address"
        },
        {
          "internalType": "uint256",
          "name": "amount",
          "type": "uint256"
        },
        {
          "internalType": "uint256",
          "name": "duration",
          "type": "uint256"
        },
        {
          "internalType": "address",
          "name": "auditor",
          "type": "address"
        },
        {
          "internalType": "address",
          "name": "recipient",
          "type": "address"
        },
        {
          "internalType": "enum CheQ.Transferring",
          "name": "_transferring",
          "type": "uint8"
        },
        {
          "internalType": "enum CheQ.Status",
          "name": "_status",
          "type": "uint8"
        },
        {
          "internalType": "bool",
          "name": "_collateralized",
          "type": "bool"
        }
      ],
      "name": "writeCheque",
      "outputs": [
        {
          "internalType": "uint256",
          "name": "",
          "type": "uint256"
        }
      ],
      "stateMutability": "nonpayable",
      "type": "function"
    }
  ],
  "bytecode": {
    "object": "0x60806040523480156200001157600080fd5b50604051806040016040528060078152602001666443686571756560c81b815250604051806040016040528060048152602001636443485160e01b81525081600090816200006091906200018d565b5060016200006f82826200018d565b5050506200008c620000866200009260201b60201c565b62000096565b62000259565b3390565b600680546001600160a01b038381166001600160a01b0319831681179093556040519116919082907f8be0079c531659141344cd1fd0a4f28419497f9722a3daafe3b4186f6b6457e090600090a35050565b634e487b7160e01b600052604160045260246000fd5b600181811c908216806200011357607f821691505b6020821081036200013457634e487b7160e01b600052602260045260246000fd5b50919050565b601f8211156200018857600081815260208120601f850160051c81016020861015620001635750805b601f850160051c820191505b8181101562000184578281556001016200016f565b5050505b505050565b81516001600160401b03811115620001a957620001a9620000e8565b620001c181620001ba8454620000fe565b846200013a565b602080601f831160018114620001f95760008415620001e05750858301515b600019600386901b1c1916600185901b17855562000184565b600085815260208120601f198616915b828110156200022a5788860151825594840194600190910190840162000209565b5085821015620002495787850151600019600388901b60f8161c191681555b5050505050600190811b01905550565b6119a880620002696000396000f3fe608060405234801561001057600080fd5b506004361061012c5760003560e01c806379089355116100ad578063b88d4fde11610071578063b88d4fde1461030d578063c87b56dd14610320578063e985e9c514610333578063f2fde38b14610346578063f86234991461035957600080fd5b806379089355146102235780638da5cb5b146102b65780638f601f66146102c757806395d89b41146102f2578063a22cb465146102fa57600080fd5b806342842e0e116100f457806342842e0e146101c157806347ba4cd3146101d45780636352211e146101f557806370a0823114610208578063715018a61461021b57600080fd5b806301ffc9a71461013157806306fdde0314610159578063081812fc1461016e578063095ea7b31461019957806323b872dd146101ae575b600080fd5b61014461013f3660046113be565b610387565b60405190151581526020015b60405180910390f35b6101616103d9565b604051610150919061142b565b61018161017c36600461143e565b61046b565b6040516001600160a01b039091168152602001610150565b6101ac6101a736600461146c565b610492565b005b6101ac6101bc366004611498565b6105ac565b6101ac6101cf366004611498565b610603565b6101e76101e23660046114fb565b61061e565b604051908152602001610150565b61018161020336600461143e565b61089b565b6101e761021636600461158e565b6108fb565b6101ac610981565b6102a061023136600461143e565b60076020526000908152604090208054600182015460028301546003840154600485015460058601546006909601549495939492936001600160a01b039283169391831692908116919081169060ff600160a01b8204811691600160a81b8104821691600160b01b909104168a565b6040516101509a999897969594939291906115df565b6006546001600160a01b0316610181565b6101e76102d5366004611653565b600860209081526000928352604080842090915290825290205481565b610161610995565b6101ac61030836600461168c565b6109a4565b6101ac61031b3660046116d7565b6109b3565b61016161032e36600461143e565b610a11565b610144610341366004611653565b610a85565b6101ac61035436600461158e565b610ab3565b6101446103673660046117b7565b600960209081526000928352604080842090915290825290205460ff1681565b60006001600160e01b031982166380ac58cd60e01b14806103b857506001600160e01b03198216635b5e139f60e01b145b806103d357506301ffc9a760e01b6001600160e01b03198316145b92915050565b6060600080546103e8906117dc565b80601f0160208091040260200160405190810160405280929190818152602001828054610414906117dc565b80156104615780601f1061043657610100808354040283529160200191610461565b820191906000526020600020905b81548152906001019060200180831161044457829003601f168201915b5050505050905090565b600061047682610b2c565b506000908152600460205260409020546001600160a01b031690565b600061049d8261089b565b9050806001600160a01b0316836001600160a01b03160361050f5760405162461bcd60e51b815260206004820152602160248201527f4552433732313a20617070726f76616c20746f2063757272656e74206f776e656044820152603960f91b60648201526084015b60405180910390fd5b336001600160a01b038216148061052b575061052b8133610a85565b61059d5760405162461bcd60e51b815260206004820152603d60248201527f4552433732313a20617070726f76652063616c6c6572206973206e6f7420746f60448201527f6b656e206f776e6572206f7220617070726f76656420666f7220616c6c0000006064820152608401610506565b6105a78383610b8b565b505050565b6105b63382610bf9565b6105f85760405162461bcd60e51b8152602060048201526013602482015272151c985b9cd9995c88191a5cd85b1b1bddd959606a1b6044820152606401610506565b6105a7838383610c58565b6105a7838383604051806020016040528060008152506109b3565b3360009081526008602090815260408083206001600160a01b038c1684529091528120548811156106885760405162461bcd60e51b8152602060048201526014602482015273496e73756666696369656e742062616c616e636560601b6044820152606401610506565b3360009081526008602090815260408083206001600160a01b038d168452909152812080548a92906106bb90849061182c565b925050819055506106ce85600a54610dbc565b60405180610140016040528089815260200142815260200188426106f2919061183f565b81526001600160a01b038b8116602083015233604083015287811660608301528816608082015260a00185600281111561072e5761072e6115ab565b8152602001846002811115610745576107456115ab565b8152831515602091820152600a546000908152600782526040908190208351815591830151600183015582015160028083019190915560608301516003830180546001600160a01b03199081166001600160a01b03938416179091556080850151600485018054831691841691909117905560a0850151600585018054831691841691909117905560c085015160068501805492831691909316908117835560e0860151936001600160a81b03199092161790600160a01b90849081111561080f5761080f6115ab565b021790555061010082015160068201805460ff60a81b1916600160a81b83600281111561083e5761083e6115ab565b02179055506101208201518160060160166101000a81548160ff0219169083151502179055509050506001600a600082825461087a919061183f565b9091555050600a5461088e9060019061182c565b9998505050505050505050565b6000818152600260205260408120546001600160a01b0316806103d35760405162461bcd60e51b8152602060048201526018602482015277115490cdcc8c4e881a5b9d985b1a59081d1bdad95b88125160421b6044820152606401610506565b60006001600160a01b0382166109655760405162461bcd60e51b815260206004820152602960248201527f4552433732313a2061646472657373207a65726f206973206e6f7420612076616044820152683634b21037bbb732b960b91b6064820152608401610506565b506001600160a01b031660009081526003602052604090205490565b610989610dd6565b6109936000610e30565b565b6060600180546103e8906117dc565b6109af338383610e82565b5050565b6109bd3383610bf9565b6109ff5760405162461bcd60e51b8152602060048201526013602482015272151c985b9cd9995c88191a5cd85b1b1bddd959606a1b6044820152606401610506565b610a0b84848484610f50565b50505050565b6060610a1c82610b2c565b6000610a3360408051602081019091526000815290565b90506000815111610a535760405180602001604052806000815250610a7e565b80610a5d84610f83565b604051602001610a6e929190611852565b6040516020818303038152906040525b9392505050565b6001600160a01b03918216600090815260056020908152604080832093909416825291909152205460ff1690565b610abb610dd6565b6001600160a01b038116610b205760405162461bcd60e51b815260206004820152602660248201527f4f776e61626c653a206e6577206f776e657220697320746865207a65726f206160448201526564647265737360d01b6064820152608401610506565b610b2981610e30565b50565b6000818152600260205260409020546001600160a01b0316610b295760405162461bcd60e51b8152602060048201526018602482015277115490cdcc8c4e881a5b9d985b1a59081d1bdad95b88125160421b6044820152606401610506565b600081815260046020526040902080546001600160a01b0319166001600160a01b0384169081179091558190610bc08261089b565b6001600160a01b03167f8c5be1e5ebec7d5bd14f71427d1e84f3dd0314c0f7b2291e5b200ac8c7c3b92560405160405180910390a45050565b600080610c058361089b565b9050806001600160a01b0316846001600160a01b03161480610c2c5750610c2c8185610a85565b80610c505750836001600160a01b0316610c458461046b565b6001600160a01b0316145b949350505050565b826001600160a01b0316610c6b8261089b565b6001600160a01b031614610c915760405162461bcd60e51b815260040161050690611881565b6001600160a01b038216610cf35760405162461bcd60e51b8152602060048201526024808201527f4552433732313a207472616e7366657220746f20746865207a65726f206164646044820152637265737360e01b6064820152608401610506565b826001600160a01b0316610d068261089b565b6001600160a01b031614610d2c5760405162461bcd60e51b815260040161050690611881565b600081815260046020908152604080832080546001600160a01b03199081169091556001600160a01b0387811680865260038552838620805460001901905590871680865283862080546001019055868652600290945282852080549092168417909155905184937fddf252ad1be2c89b69c2b068fc378daa952ba7f163c4a11628f55a4df523b3ef91a4505050565b6109af8282604051806020016040528060008152506110e9565b6006546001600160a01b031633146109935760405162461bcd60e51b815260206004820181905260248201527f4f776e61626c653a2063616c6c6572206973206e6f7420746865206f776e65726044820152606401610506565b600680546001600160a01b038381166001600160a01b0319831681179093556040519116919082907f8be0079c531659141344cd1fd0a4f28419497f9722a3daafe3b4186f6b6457e090600090a35050565b816001600160a01b0316836001600160a01b031603610ee35760405162461bcd60e51b815260206004820152601960248201527f4552433732313a20617070726f766520746f2063616c6c6572000000000000006044820152606401610506565b6001600160a01b03838116600081815260056020908152604080832094871680845294825291829020805460ff191686151590811790915591519182527f17307eab39ab6107e8899845ad3d59bd9653f200f220920489ca2b5937696c31910160405180910390a3505050565b610f5b848484610c58565b610f678484848461111c565b610a0b5760405162461bcd60e51b8152600401610506906118c6565b606060018272184f03e93ff9f4daa797ed6e38ed64bf6a1f0160401b8110610fc6576040919091019072184f03e93ff9f4daa797ed6e38ed64bf6a1f0160401b90045b6d04ee2d6d415b85acef81000000008110610ff457602091909101906d04ee2d6d415b85acef810000000090045b662386f26fc1000081106110145760109190910190662386f26fc1000090045b6305f5e100811061102e57600891909101906305f5e10090045b6127108110611044576004919091019061271090045b606481106110585760029190910190606490045b600a8110611067576001820191505b60008267ffffffffffffffff811115611082576110826116c1565b6040519080825280601f01601f1916602001820160405280156110ac576020820181803683370190505b5090508281016020015b600019016f181899199a1a9b1b9c1cb0b131b232b360811b600a87061a8153600a86049550856110b65750949350505050565b6110f3838361121d565b611100600084848461111c565b6105a75760405162461bcd60e51b8152600401610506906118c6565b60006001600160a01b0384163b1561121257604051630a85bd0160e11b81526001600160a01b0385169063150b7a0290611160903390899088908890600401611918565b6020604051808303816000875af192505050801561119b575060408051601f3d908101601f1916820190925261119891810190611955565b60015b6111f8573d8080156111c9576040519150601f19603f3d011682016040523d82523d6000602084013e6111ce565b606091505b5080516000036111f05760405162461bcd60e51b8152600401610506906118c6565b805181602001fd5b6001600160e01b031916630a85bd0160e11b149050610c50565b506001949350505050565b6001600160a01b0382166112735760405162461bcd60e51b815260206004820181905260248201527f4552433732313a206d696e7420746f20746865207a65726f20616464726573736044820152606401610506565b6000818152600260205260409020546001600160a01b0316156112d85760405162461bcd60e51b815260206004820152601c60248201527f4552433732313a20746f6b656e20616c7265616479206d696e746564000000006044820152606401610506565b6000818152600260205260409020546001600160a01b03161561133d5760405162461bcd60e51b815260206004820152601c60248201527f4552433732313a20746f6b656e20616c7265616479206d696e746564000000006044820152606401610506565b6001600160a01b038216600081815260036020908152604080832080546001019055848352600290915280822080546001600160a01b0319168417905551839291907fddf252ad1be2c89b69c2b068fc378daa952ba7f163c4a11628f55a4df523b3ef908290a45050565b6001600160e01b031981168114610b2957600080fd5b6000602082840312156113d057600080fd5b8135610a7e816113a8565b60005b838110156113f65781810151838201526020016113de565b50506000910152565b600081518084526114178160208601602086016113db565b601f01601f19169290920160200192915050565b602081526000610a7e60208301846113ff565b60006020828403121561145057600080fd5b5035919050565b6001600160a01b0381168114610b2957600080fd5b6000806040838503121561147f57600080fd5b823561148a81611457565b946020939093013593505050565b6000806000606084860312156114ad57600080fd5b83356114b881611457565b925060208401356114c881611457565b929592945050506040919091013590565b60038110610b2957600080fd5b803580151581146114f657600080fd5b919050565b600080600080600080600080610100898b03121561151857600080fd5b883561152381611457565b97506020890135965060408901359550606089013561154181611457565b9450608089013561155181611457565b935060a0890135611561816114d9565b925060c0890135611571816114d9565b915061157f60e08a016114e6565b90509295985092959890939650565b6000602082840312156115a057600080fd5b8135610a7e81611457565b634e487b7160e01b600052602160045260246000fd5b60038110610b2957634e487b7160e01b600052602160045260246000fd5b8a8152602081018a9052604081018990526001600160a01b038881166060830152878116608083015286811660a0830152851660c08201526101408101611625856115c1565b8460e0830152611634846115c1565b836101008301528215156101208301529b9a5050505050505050505050565b6000806040838503121561166657600080fd5b823561167181611457565b9150602083013561168181611457565b809150509250929050565b6000806040838503121561169f57600080fd5b82356116aa81611457565b91506116b8602084016114e6565b90509250929050565b634e487b7160e01b600052604160045260246000fd5b600080600080608085870312156116ed57600080fd5b84356116f881611457565b9350602085013561170881611457565b925060408501359150606085013567ffffffffffffffff8082111561172c57600080fd5b818701915087601f83011261174057600080fd5b813581811115611752576117526116c1565b604051601f8201601f19908116603f0116810190838211818310171561177a5761177a6116c1565b816040528281528a602084870101111561179357600080fd5b82602086016020830137600060208483010152809550505050505092959194509250565b600080604083850312156117ca57600080fd5b82359150602083013561168181611457565b600181811c908216806117f057607f821691505b60208210810361181057634e487b7160e01b600052602260045260246000fd5b50919050565b634e487b7160e01b600052601160045260246000fd5b818103818111156103d3576103d3611816565b808201808211156103d3576103d3611816565b600083516118648184602088016113db565b8351908301906118788183602088016113db565b01949350505050565b60208082526025908201527f4552433732313a207472616e736665722066726f6d20696e636f72726563742060408201526437bbb732b960d91b606082015260800190565b60208082526032908201527f4552433732313a207472616e7366657220746f206e6f6e20455243373231526560408201527131b2b4bb32b91034b6b83632b6b2b73a32b960711b606082015260800190565b6001600160a01b038581168252841660208201526040810183905260806060820181905260009061194b908301846113ff565b9695505050505050565b60006020828403121561196757600080fd5b8151610a7e816113a856fea264697066735822122025c3adb62a5d25d5d88333e831ee840e66e1a7f771f2721bee011930988451a664736f6c63430008100033",
    "linkReferences": {}
  },
  "methodIdentifiers": {
    "approve(address,uint256)": "095ea7b3",
    "balanceOf(address)": "70a08231",
    "chequeInfo(uint256)": "79089355",
    "chequeWhitelist(uint256,address)": "f8623499",
    "deposits(address,address)": "8f601f66",
    "getApproved(uint256)": "081812fc",
    "isApprovedForAll(address,address)": "e985e9c5",
    "name()": "06fdde03",
    "owner()": "8da5cb5b",
    "ownerOf(uint256)": "6352211e",
    "renounceOwnership()": "715018a6",
    "safeTransferFrom(address,address,uint256)": "42842e0e",
    "safeTransferFrom(address,address,uint256,bytes)": "b88d4fde",
    "setApprovalForAll(address,bool)": "a22cb465",
    "supportsInterface(bytes4)": "01ffc9a7",
    "symbol()": "95d89b41",
    "tokenURI(uint256)": "c87b56dd",
    "transferFrom(address,address,uint256)": "23b872dd",
    "transferOwnership(address)": "f2fde38b",
    "writeCheque(address,uint256,uint256,address,address,uint8,uint8,bool)": "47ba4cd3"
  },
  "id": 21
}