{
  "abi": [
    {
      "inputs": [
        {
          "internalType": "address",
          "name": "registrar",
          "type": "address"
        },
        {
          "internalType": "address",
          "name": "_writeRule",
          "type": "address"
        },
        {
          "internalType": "address",
          "name": "_transferRule",
          "type": "address"
        },
        {
          "internalType": "address",
          "name": "_fundRule",
          "type": "address"
        },
        {
          "internalType": "address",
          "name": "_cashRule",
          "type": "address"
        },
        {
          "internalType": "address",
          "name": "_approveRule",
          "type": "address"
        },
        {
          "components": [
            {
              "internalType": "uint256",
              "name": "writeBPS",
              "type": "uint256"
            },
            {
              "internalType": "uint256",
              "name": "transferBPS",
              "type": "uint256"
            },
            {
              "internalType": "uint256",
              "name": "fundBPS",
              "type": "uint256"
            },
            {
              "internalType": "uint256",
              "name": "cashBPS",
              "type": "uint256"
            }
          ],
          "internalType": "struct DataTypes.WTFCFees",
          "name": "_fees",
          "type": "tuple"
        },
        {
          "internalType": "string",
          "name": "__baseURI",
          "type": "string"
        }
      ],
      "stateMutability": "nonpayable",
      "type": "constructor"
    },
    {
      "inputs": [],
      "name": "InitParamsInvalid",
      "type": "error"
    },
    {
      "inputs": [],
      "name": "NotRegistrar",
      "type": "error"
    },
    {
      "anonymous": false,
      "inputs": [
        {
          "indexed": false,
          "internalType": "uint256",
          "name": "cheqId",
          "type": "uint256"
        },
        {
          "indexed": false,
          "internalType": "bytes32",
          "name": "memoHash",
          "type": "bytes32"
        },
        {
          "indexed": false,
          "internalType": "uint256",
          "name": "amount",
          "type": "uint256"
        },
        {
          "indexed": false,
          "internalType": "uint256",
          "name": "timestamp",
          "type": "uint256"
        },
        {
          "indexed": false,
          "internalType": "address",
          "name": "referer",
          "type": "address"
        }
      ],
      "name": "PaymentCreated",
      "type": "event"
    },
    {
      "inputs": [],
      "name": "REGISTRAR",
      "outputs": [
        {
          "internalType": "address",
          "name": "",
          "type": "address"
        }
      ],
      "stateMutability": "view",
      "type": "function"
    },
    {
      "inputs": [],
      "name": "_URI",
      "outputs": [
        {
          "internalType": "string",
          "name": "",
          "type": "string"
        }
      ],
      "stateMutability": "view",
      "type": "function"
    },
    {
      "inputs": [],
      "name": "approveRule",
      "outputs": [
        {
          "internalType": "address",
          "name": "",
          "type": "address"
        }
      ],
      "stateMutability": "view",
      "type": "function"
    },
    {
      "inputs": [],
      "name": "cashRule",
      "outputs": [
        {
          "internalType": "address",
          "name": "",
          "type": "address"
        }
      ],
      "stateMutability": "view",
      "type": "function"
    },
    {
      "inputs": [],
      "name": "fees",
      "outputs": [
        {
          "internalType": "uint256",
          "name": "writeBPS",
          "type": "uint256"
        },
        {
          "internalType": "uint256",
          "name": "transferBPS",
          "type": "uint256"
        },
        {
          "internalType": "uint256",
          "name": "fundBPS",
          "type": "uint256"
        },
        {
          "internalType": "uint256",
          "name": "cashBPS",
          "type": "uint256"
        }
      ],
      "stateMutability": "view",
      "type": "function"
    },
    {
      "inputs": [],
      "name": "fundRule",
      "outputs": [
        {
          "internalType": "address",
          "name": "",
          "type": "address"
        }
      ],
      "stateMutability": "view",
      "type": "function"
    },
    {
      "inputs": [],
      "name": "getFees",
      "outputs": [
        {
          "internalType": "uint256",
          "name": "",
          "type": "uint256"
        },
        {
          "internalType": "uint256",
          "name": "",
          "type": "uint256"
        },
        {
          "internalType": "uint256",
          "name": "",
          "type": "uint256"
        },
        {
          "internalType": "uint256",
          "name": "",
          "type": "uint256"
        }
      ],
      "stateMutability": "view",
      "type": "function"
    },
    {
      "inputs": [
        {
          "internalType": "uint256",
          "name": "",
          "type": "uint256"
        }
      ],
      "name": "payInfo",
      "outputs": [
        {
          "internalType": "address",
          "name": "drawer",
          "type": "address"
        },
        {
          "internalType": "address",
          "name": "recipient",
          "type": "address"
        },
        {
          "internalType": "uint256",
          "name": "amount",
          "type": "uint256"
        },
        {
          "internalType": "uint256",
          "name": "timestamp",
          "type": "uint256"
        },
        {
          "internalType": "bytes32",
          "name": "memoHash",
          "type": "bytes32"
        },
        {
          "internalType": "bool",
          "name": "wasPaid",
          "type": "bool"
        }
      ],
      "stateMutability": "view",
      "type": "function"
    },
    {
      "inputs": [
        {
          "internalType": "address",
          "name": "caller",
          "type": "address"
        },
        {
          "internalType": "address",
          "name": "owner",
          "type": "address"
        },
        {
          "internalType": "address",
          "name": "to",
          "type": "address"
        },
        {
          "internalType": "uint256",
          "name": "cheqId",
          "type": "uint256"
        },
        {
          "components": [
            {
              "internalType": "address",
              "name": "currency",
              "type": "address"
            },
            {
              "internalType": "uint256",
              "name": "escrowed",
              "type": "uint256"
            },
            {
              "internalType": "uint256",
              "name": "createdAt",
              "type": "uint256"
            },
            {
              "internalType": "address",
              "name": "module",
              "type": "address"
            }
          ],
          "internalType": "struct DataTypes.Cheq",
          "name": "cheq",
          "type": "tuple"
        },
        {
          "internalType": "bytes",
          "name": "initData",
          "type": "bytes"
        }
      ],
      "name": "processApproval",
      "outputs": [],
      "stateMutability": "nonpayable",
      "type": "function"
    },
    {
      "inputs": [
        {
          "internalType": "address",
          "name": "caller",
          "type": "address"
        },
        {
          "internalType": "address",
          "name": "owner",
          "type": "address"
        },
        {
          "internalType": "address",
          "name": "to",
          "type": "address"
        },
        {
          "internalType": "uint256",
          "name": "amount",
          "type": "uint256"
        },
        {
          "internalType": "uint256",
          "name": "cheqId",
          "type": "uint256"
        },
        {
          "components": [
            {
              "internalType": "address",
              "name": "currency",
              "type": "address"
            },
            {
              "internalType": "uint256",
              "name": "escrowed",
              "type": "uint256"
            },
            {
              "internalType": "uint256",
              "name": "createdAt",
              "type": "uint256"
            },
            {
              "internalType": "address",
              "name": "module",
              "type": "address"
            }
          ],
          "internalType": "struct DataTypes.Cheq",
          "name": "cheq",
          "type": "tuple"
        },
        {
          "internalType": "bytes",
          "name": "initData",
          "type": "bytes"
        }
      ],
      "name": "processCash",
      "outputs": [
        {
          "internalType": "uint256",
          "name": "",
          "type": "uint256"
        }
      ],
      "stateMutability": "nonpayable",
      "type": "function"
    },
    {
      "inputs": [
        {
          "internalType": "address",
          "name": "caller",
          "type": "address"
        },
        {
          "internalType": "address",
          "name": "owner",
          "type": "address"
        },
        {
          "internalType": "uint256",
          "name": "amount",
          "type": "uint256"
        },
        {
          "internalType": "uint256",
          "name": "instant",
          "type": "uint256"
        },
        {
          "internalType": "uint256",
          "name": "cheqId",
          "type": "uint256"
        },
        {
          "components": [
            {
              "internalType": "address",
              "name": "currency",
              "type": "address"
            },
            {
              "internalType": "uint256",
              "name": "escrowed",
              "type": "uint256"
            },
            {
              "internalType": "uint256",
              "name": "createdAt",
              "type": "uint256"
            },
            {
              "internalType": "address",
              "name": "module",
              "type": "address"
            }
          ],
          "internalType": "struct DataTypes.Cheq",
          "name": "cheq",
          "type": "tuple"
        },
        {
          "internalType": "bytes",
          "name": "initData",
          "type": "bytes"
        }
      ],
      "name": "processFund",
      "outputs": [
        {
          "internalType": "uint256",
          "name": "",
          "type": "uint256"
        }
      ],
      "stateMutability": "nonpayable",
      "type": "function"
    },
    {
      "inputs": [
        {
          "internalType": "uint256",
          "name": "tokenId",
          "type": "uint256"
        }
      ],
      "name": "processTokenURI",
      "outputs": [
        {
          "internalType": "string",
          "name": "",
          "type": "string"
        }
      ],
      "stateMutability": "view",
      "type": "function"
    },
    {
      "inputs": [
        {
          "internalType": "address",
          "name": "caller",
          "type": "address"
        },
        {
          "internalType": "address",
          "name": "approved",
          "type": "address"
        },
        {
          "internalType": "address",
          "name": "owner",
          "type": "address"
        },
        {
          "internalType": "address",
          "name": "from",
          "type": "address"
        },
        {
          "internalType": "address",
          "name": "to",
          "type": "address"
        },
        {
          "internalType": "uint256",
          "name": "cheqId",
          "type": "uint256"
        },
        {
          "internalType": "address",
          "name": "currency",
          "type": "address"
        },
        {
          "internalType": "uint256",
          "name": "escrowed",
          "type": "uint256"
        },
        {
          "internalType": "uint256",
          "name": "createdAt",
          "type": "uint256"
        },
        {
          "internalType": "bytes",
          "name": "data",
          "type": "bytes"
        }
      ],
      "name": "processTransfer",
      "outputs": [
        {
          "internalType": "uint256",
          "name": "",
          "type": "uint256"
        }
      ],
      "stateMutability": "nonpayable",
      "type": "function"
    },
    {
      "inputs": [
        {
          "internalType": "address",
          "name": "caller",
          "type": "address"
        },
        {
          "internalType": "address",
          "name": "owner",
          "type": "address"
        },
        {
          "internalType": "uint256",
          "name": "cheqId",
          "type": "uint256"
        },
        {
          "internalType": "address",
          "name": "currency",
          "type": "address"
        },
        {
          "internalType": "uint256",
          "name": "escrowed",
          "type": "uint256"
        },
        {
          "internalType": "uint256",
          "name": "instant",
          "type": "uint256"
        },
        {
          "internalType": "bytes",
          "name": "initData",
          "type": "bytes"
        }
      ],
      "name": "processWrite",
      "outputs": [
        {
          "internalType": "uint256",
          "name": "",
          "type": "uint256"
        }
      ],
      "stateMutability": "nonpayable",
      "type": "function"
    },
    {
      "inputs": [
        {
          "internalType": "address",
          "name": "",
          "type": "address"
        },
        {
          "internalType": "address",
          "name": "",
          "type": "address"
        }
      ],
      "name": "revenue",
      "outputs": [
        {
          "internalType": "uint256",
          "name": "",
          "type": "uint256"
        }
      ],
      "stateMutability": "view",
      "type": "function"
    },
    {
      "inputs": [],
      "name": "transferRule",
      "outputs": [
        {
          "internalType": "address",
          "name": "",
          "type": "address"
        }
      ],
      "stateMutability": "view",
      "type": "function"
    },
    {
      "inputs": [
        {
          "internalType": "address",
          "name": "token",
          "type": "address"
        }
      ],
      "name": "withdrawFees",
      "outputs": [],
      "stateMutability": "nonpayable",
      "type": "function"
    },
    {
      "inputs": [],
      "name": "writeRule",
      "outputs": [
        {
          "internalType": "address",
          "name": "",
          "type": "address"
        }
      ],
      "stateMutability": "view",
      "type": "function"
    }
  ],
  "bytecode": {
    "object": "0x60a06040523480156200001157600080fd5b5060405162001c1538038062001c15833981016040819052620000349162000441565b878787878787876001600160a01b03871662000063576040516348be0eb360e01b815260040160405180910390fd5b6001600160a01b038781166080819052604051631fa5b09760e11b81528883166004820152878316602482015286831660448201528583166064820152918416608483015290633f4b612e9060a401602060405180830381865afa158015620000d0573d6000803e3d6000fd5b505050506040513d601f19601f82011682018060405250810190620000f691906200053e565b620001385760405162461bcd60e51b815260206004820152600d60248201526c1495531154d7d2539590531251609a1b60448201526064015b60405180910390fd5b600280546001600160a01b03199081166001600160a01b038981169190911790925560038054821688841617905560048054821687841617905560058054821686841617905560068054909116918416919091179055805161271011620001d15760405162461bcd60e51b8152602060048201526014602482015260008051602062001bf583398151915260448201526064016200012f565b612710816020015110620002175760405162461bcd60e51b8152602060048201526014602482015260008051602062001bf583398151915260448201526064016200012f565b6127108160400151106200025d5760405162461bcd60e51b8152602060048201526014602482015260008051602062001bf583398151915260448201526064016200012f565b612710816060015110620002a35760405162461bcd60e51b8152602060048201526014602482015260008051602062001bf583398151915260448201526064016200012f565b80516007556020808201516008556040808301516009556060830151600a55514281526001600160a01b038916917ff1a1fa6b64aa95186f5a1285e76198d0da80d9c5a88062641d447f1d7c54e56c910160405180910390a2505050505050508060009081620003149190620005f8565b505050505050505050620006c4565b80516001600160a01b03811681146200033b57600080fd5b919050565b634e487b7160e01b600052604160045260246000fd5b604051608081016001600160401b03811182821017156200037b576200037b62000340565b60405290565b604051601f8201601f191681016001600160401b0381118282101715620003ac57620003ac62000340565b604052919050565b600082601f830112620003c657600080fd5b81516001600160401b03811115620003e257620003e262000340565b6020620003f8601f8301601f1916820162000381565b82815285828487010111156200040d57600080fd5b60005b838110156200042d57858101830151828201840152820162000410565b506000928101909101919091529392505050565b600080600080600080600080888a036101608112156200046057600080fd5b6200046b8a62000323565b98506200047b60208b0162000323565b97506200048b60408b0162000323565b96506200049b60608b0162000323565b9550620004ab60808b0162000323565b9450620004bb60a08b0162000323565b9350608060bf1982011215620004d057600080fd5b50620004db62000356565b60c08a0151815260e08a015160208201526101008a015160408201526101208a015160608201526101408a01519092506001600160401b038111156200052057600080fd5b6200052e8b828c01620003b4565b9150509295985092959890939650565b6000602082840312156200055157600080fd5b815180151581146200056257600080fd5b9392505050565b600181811c908216806200057e57607f821691505b6020821081036200059f57634e487b7160e01b600052602260045260246000fd5b50919050565b601f821115620005f357600081815260208120601f850160051c81016020861015620005ce5750805b601f850160051c820191505b81811015620005ef57828155600101620005da565b5050505b505050565b81516001600160401b0381111562000614576200061462000340565b6200062c8162000625845462000569565b84620005a5565b602080601f8311600181146200066457600084156200064b5750858301515b600019600386901b1c1916600185901b178555620005ef565b600085815260208120601f198616915b82811015620006955788860151825594840194600190910190840162000674565b5085821015620006b45787850151600019600388901b60f8161c191681555b5050505050600190811b01905550565b6080516114f262000703600039600081816102e30152818161036f01528181610481015281816105e501528181610a220152610cf801526114f26000f3fe608060405234801561001057600080fd5b50600436106101165760003560e01c8063b5d701ba116100a2578063d4c301da11610071578063d4c301da14610305578063db8d55f114610318578063df1cdb4614610329578063e41759681461033c578063f3ea001e1461034f57600080fd5b8063b5d701ba146102aa578063be2f3fdd146102bd578063c0c9572c146102d0578063cb609077146102de57600080fd5b80634fe17e1a116100e95780634fe17e1a1461019457806370530dac146101b45780639a0ea37a146102415780639af1d35a1461026c578063b4e87e8f146102a257600080fd5b806306890cd01461011b5780630d02cde714610141578063164e68de1461016c578063433d3a7714610181575b600080fd5b61012e610129366004610e33565b610362565b6040519081526020015b60405180910390f35b600354610154906001600160a01b031681565b6040516001600160a01b039091168152602001610138565b61017f61017a366004610ed5565b6103ed565b005b600654610154906001600160a01b031681565b6101a76101a2366004610ef9565b61051e565b6040516101389190610f58565b6102076101c2366004610ef9565b600b602052600090815260409020805460018201546002830154600384015460048501546005909501546001600160a01b039485169593909416939192909160ff1686565b604080516001600160a01b0397881681529690951660208701529385019290925260608401526080830152151560a082015260c001610138565b61012e61024f366004610f6b565b600160209081526000928352604080842090915290825290205481565b600754600854600954600a546102829392919084565b604080519485526020850193909352918301526060820152608001610138565b6101a761054a565b61012e6102b8366004610fa4565b6105d8565b61012e6102cb36600461101c565b610a15565b61012e61012936600461111b565b6101547f000000000000000000000000000000000000000000000000000000000000000081565b600454610154906001600160a01b031681565b600754600854600954600a54610282565b600254610154906001600160a01b031681565b61017f61034a3660046111e5565b610ced565b600554610154906001600160a01b031681565b6000336001600160a01b037f000000000000000000000000000000000000000000000000000000000000000016146103ad57604051632ad9535160e01b815260040160405180910390fd5b60405162461bcd60e51b815260206004820152601060248201526f149d5b194e88111a5cd85b1b1bddd95960821b60448201526064015b60405180910390fd5b3360009081526001602081815260408084206001600160a01b0386168552909152909120549081116104585760405162461bcd60e51b8152602060048201526014602482015273496e73756666696369656e7420726576656e756560601b60448201526064016103e4565b3360009081526001602081815260408084206001600160a01b03878116865292529092208190557f00000000000000000000000000000000000000000000000000000000000000009091169063d6a4f84c9084906104b690856112cd565b6040516001600160e01b031960e085901b1681526001600160a01b0390921660048301526024820152336044820152606401600060405180830381600087803b15801561050257600080fd5b505af1158015610516573d6000803e3d6000fd5b505050505050565b606060008260405160200161053492919061131a565b6040516020818303038152906040529050919050565b60008054610557906112e6565b80601f0160208091040260200160405190810160405280929190818152602001828054610583906112e6565b80156105d05780601f106105a5576101008083540402835291602001916105d0565b820191906000526020600020905b8154815290600101906020018083116105b357829003601f168201915b505050505081565b6000336001600160a01b037f0000000000000000000000000000000000000000000000000000000000000000161461062357604051632ad9535160e01b815260040160405180910390fd5b60008080808080610636888a018a6113bc565b9550955095509550955095508a6000146106925760405162461bcd60e51b815260206004820152601d60248201527f52756c653a20457363726f77696e67206e6f7420737570706f7274656400000060448201526064016103e4565b836000036106d65760405162461bcd60e51b8152602060048201526011602482015270052756c653a20416d6f756e74203d3d203607c1b60448201526064016103e4565b838a14806106e2575089155b6107255760405162461bcd60e51b8152602060048201526014602482015273149d5b194e88135d5cdd081cd95b9908199d5b1b60621b60448201526064016103e4565b846001600160a01b0316866001600160a01b0316036107865760405162461bcd60e51b815260206004820152601960248201527f52756c653a20447261776572203d3d20726563697069656e740000000000000060448201526064016103e4565b856001600160a01b03168f6001600160a01b031614806107b75750846001600160a01b03168f6001600160a01b0316145b6108035760405162461bcd60e51b815260206004820152601a60248201527f52756c653a204f6e6c79206472617765722f726563656976657200000000000060448201526064016103e4565b856001600160a01b03168e6001600160a01b031614806108345750846001600160a01b03168e6001600160a01b0316145b6108805760405162461bcd60e51b815260206004820152601f60248201527f52756c653a204472617765722f726563697069656e7420213d206f776e65720060448201526064016103e4565b6001600160a01b038516158015906108a057506001600160a01b038e1615155b80156108b457506001600160a01b03861615155b6109005760405162461bcd60e51b815260206004820152601c60248201527f52756c653a2043616e277420757365207a65726f20616464726573730000000060448201526064016103e4565b60008d8152600b6020526040812060028101869055600481018590556003018390558061092d8c8e611423565b60075490915061271090610941908361128c565b61094b91906112ab565b9150508060016000846001600160a01b03166001600160a01b0316815260200190815260200160002060008f6001600160a01b03166001600160a01b0316815260200190815260200160002060008282546109a69190611423565b9091555050604080518f815260208101869052908101869052606081018490526001600160a01b03831660808201527fb44afd940522e9e335fe09ab2aaabc381ae0d970f31ec3ad94a5af613bba59959060a00160405180910390a19f9e505050505050505050505050505050565b6000336001600160a01b037f00000000000000000000000000000000000000000000000000000000000000001614610a6057604051632ad9535160e01b815260040160405180910390fd5b8615610aa65760405162461bcd60e51b815260206004820152601560248201527452756c653a204f6e6c79206469726563742070617960581b60448201526064016103e4565b6000858152600b60205260409020600201548614610b065760405162461bcd60e51b815260206004820152601d60248201527f52756c653a204f6e6c792066756c6c2064697265637420616d6f756e7400000060448201526064016103e4565b6000858152600b60205260409020600101546001600160a01b038a811691161480610b4a57506000858152600b60205260409020546001600160a01b038a81169116145b610b965760405162461bcd60e51b815260206004820152601b60248201527f52756c653a204f6e6c79206472617765722f726563697069656e74000000000060448201526064016103e4565b876001600160a01b0316896001600160a01b031603610be95760405162461bcd60e51b815260206004820152600f60248201526e293ab6329d102737ba1037bbb732b960891b60448201526064016103e4565b6000858152600b602052604090206005015460ff1615610c445760405162461bcd60e51b8152602060048201526016602482015275135bd91d5b194e88105b1c9958591e4818d85cda195960521b60448201526064016103e4565b6000610c5283850185610ed5565b60095490915060009061271090610c698a8c611423565b610c73919061128c565b610c7d91906112ab565b6001600160a01b0383166000908152600160209081526040822092935083929190610caa908a018a610ed5565b6001600160a01b03166001600160a01b031681526020019081526020016000206000828254610cd99190611423565b90915550909b9a5050505050505050505050565b336001600160a01b037f00000000000000000000000000000000000000000000000000000000000000001614610d3657604051632ad9535160e01b815260040160405180910390fd5b6006546040516306d25e6160e01b81526001600160a01b03909116906306d25e6190610d7090899089908990899089908990600401611436565b600060405180830381600087803b158015610d8a57600080fd5b505af1158015610d9e573d6000803e3d6000fd5b50505050505050505050565b6001600160a01b0381168114610dbf57600080fd5b50565b8035610dcd81610daa565b919050565b600060808284031215610de457600080fd5b50919050565b60008083601f840112610dfc57600080fd5b50813567ffffffffffffffff811115610e1457600080fd5b602083019150836020828501011115610e2c57600080fd5b9250929050565b600080600080600080600080610140898b031215610e5057600080fd5b8835610e5b81610daa565b97506020890135610e6b81610daa565b96506040890135610e7b81610daa565b95506060890135945060808901359350610e988a60a08b01610dd2565b925061012089013567ffffffffffffffff811115610eb557600080fd5b610ec18b828c01610dea565b999c989b5096995094979396929594505050565b600060208284031215610ee757600080fd5b8135610ef281610daa565b9392505050565b600060208284031215610f0b57600080fd5b5035919050565b6000815180845260005b81811015610f3857602081850181015186830182015201610f1c565b506000602082860101526020601f19601f83011685010191505092915050565b602081526000610ef26020830184610f12565b60008060408385031215610f7e57600080fd5b8235610f8981610daa565b91506020830135610f9981610daa565b809150509250929050565b60008060008060008060008060e0898b031215610fc057600080fd5b8835610fcb81610daa565b97506020890135610fdb81610daa565b9650604089013595506060890135610ff281610daa565b94506080890135935060a0890135925060c089013567ffffffffffffffff811115610eb557600080fd5b600080600080600080600080610140898b03121561103957600080fd5b883561104481610daa565b9750602089013561105481610daa565b9650604089013595506060890135945060808901359350610e988a60a08b01610dd2565b634e487b7160e01b600052604160045260246000fd5b600082601f83011261109f57600080fd5b813567ffffffffffffffff808211156110ba576110ba611078565b604051601f8301601f19908116603f011681019082821181831017156110e2576110e2611078565b816040528381528660208588010111156110fb57600080fd5b836020870160208301376000602085830101528094505050505092915050565b6000806000806000806000806000806101408b8d03121561113b57600080fd5b8a3561114681610daa565b995060208b013561115681610daa565b985060408b013561116681610daa565b975060608b013561117681610daa565b965060808b013561118681610daa565b955060a08b0135945061119b60c08c01610dc2565b935060e08b013592506101008b013591506101208b013567ffffffffffffffff8111156111c757600080fd5b6111d38d828e0161108e565b9150509295989b9194979a5092959850565b60008060008060008061012087890312156111ff57600080fd5b863561120a81610daa565b9550602087013561121a81610daa565b9450604087013561122a81610daa565b9350606087013592506112408860808901610dd2565b915061010087013567ffffffffffffffff81111561125d57600080fd5b61126989828a0161108e565b9150509295509295509295565b634e487b7160e01b600052601160045260246000fd5b60008160001904831182151516156112a6576112a6611276565b500290565b6000826112c857634e487b7160e01b600052601260045260246000fd5b500490565b818103818111156112e0576112e0611276565b92915050565b600181811c908216806112fa57607f821691505b602082108103610de457634e487b7160e01b600052602260045260246000fd5b600080845481600182811c91508083168061133657607f831692505b6020808410820361135557634e487b7160e01b86526022600452602486fd5b818015611369576001811461137e576113ab565b60ff19861689528415158502890196506113ab565b60008b81526020902060005b868110156113a35781548b82015290850190830161138a565b505084890196505b509785525050509301949350505050565b60008060008060008060c087890312156113d557600080fd5b86356113e081610daa565b955060208701356113f081610daa565b945060408701359350606087013592506080870135915060a087013561141581610daa565b809150509295509295509295565b808201808211156112e0576112e0611276565b6001600160a01b038781168252868116602083015285811660408301526060820185905260009061012090853561146c81610daa565b81166080850152602086013560a0850152604086013560c0850152606086013561149581610daa565b1660e084015261010083018190526114af81840185610f12565b999850505050505050505056fea2646970667358221220ffe9a225ed5eb5d9548531fed5e159cc79c6d68720b4fd7222837e8d06c22f9064736f6c634300081000334d6f64756c653a2046656520746f6f2068696768000000000000000000000000",
    "linkReferences": {}
  },
  "methodIdentifiers": {
    "REGISTRAR()": "cb609077",
    "_URI()": "b4e87e8f",
    "approveRule()": "433d3a77",
    "cashRule()": "f3ea001e",
    "fees()": "9af1d35a",
    "fundRule()": "d4c301da",
    "getFees()": "db8d55f1",
    "payInfo(uint256)": "70530dac",
    "processApproval(address,address,address,uint256,(address,uint256,uint256,address),bytes)": "e4175968",
    "processCash(address,address,address,uint256,uint256,(address,uint256,uint256,address),bytes)": "06890cd0",
    "processFund(address,address,uint256,uint256,uint256,(address,uint256,uint256,address),bytes)": "be2f3fdd",
    "processTokenURI(uint256)": "4fe17e1a",
    "processTransfer(address,address,address,address,address,uint256,address,uint256,uint256,bytes)": "c0c9572c",
    "processWrite(address,address,uint256,address,uint256,uint256,bytes)": "b5d701ba",
    "revenue(address,address)": "9a0ea37a",
    "transferRule()": "0d02cde7",
    "withdrawFees(address)": "164e68de",
    "writeRule()": "df1cdb46"
  },
  "id": 53
}