{
  "abi": [
    {
      "inputs": [
        {
          "internalType": "address",
          "name": "registrar",
          "type": "address"
        },
        {
          "components": [
            {
              "internalType": "uint256",
              "name": "writeBPS",
              "type": "uint256"
            },
            {
              "internalType": "uint256",
              "name": "transferBPS",
              "type": "uint256"
            },
            {
              "internalType": "uint256",
              "name": "fundBPS",
              "type": "uint256"
            },
            {
              "internalType": "uint256",
              "name": "cashBPS",
              "type": "uint256"
            }
          ],
          "internalType": "struct DataTypes.WTFCFees",
          "name": "_fees",
          "type": "tuple"
        },
        {
          "internalType": "string",
          "name": "__baseURI",
          "type": "string"
        }
      ],
      "stateMutability": "nonpayable",
      "type": "constructor"
    },
    {
      "inputs": [],
      "name": "AddressZero",
      "type": "error"
    },
    {
      "inputs": [],
      "name": "AmountZero",
      "type": "error"
    },
    {
      "inputs": [],
      "name": "Disallowed",
      "type": "error"
    },
    {
      "inputs": [],
      "name": "EscrowUnsupported",
      "type": "error"
    },
    {
      "inputs": [],
      "name": "FeeTooHigh",
      "type": "error"
    },
    {
      "inputs": [],
      "name": "InitParamsInvalid",
      "type": "error"
    },
    {
      "inputs": [],
      "name": "InsufficientPayment",
      "type": "error"
    },
    {
      "inputs": [],
      "name": "InvoiceWithPay",
      "type": "error"
    },
    {
      "inputs": [],
      "name": "NotRegistrar",
      "type": "error"
    },
    {
      "inputs": [],
      "name": "OnlyOwner",
      "type": "error"
    },
    {
      "inputs": [],
      "name": "OnlyOwnerOrApproved",
      "type": "error"
    },
    {
      "anonymous": false,
      "inputs": [
        {
          "indexed": false,
          "internalType": "uint256",
          "name": "cheqId",
          "type": "uint256"
        },
        {
          "indexed": false,
          "internalType": "string",
          "name": "memoHash",
          "type": "string"
        },
        {
          "indexed": false,
          "internalType": "uint256",
          "name": "amount",
          "type": "uint256"
        },
        {
          "indexed": false,
          "internalType": "uint256",
          "name": "timestamp",
          "type": "uint256"
        },
        {
          "indexed": false,
          "internalType": "address",
          "name": "referer",
          "type": "address"
        },
        {
          "indexed": false,
          "internalType": "address",
          "name": "creditor",
          "type": "address"
        },
        {
          "indexed": false,
          "internalType": "address",
          "name": "debtor",
          "type": "address"
        },
        {
          "indexed": false,
          "internalType": "uint256",
          "name": "dueDate",
          "type": "uint256"
        }
      ],
      "name": "PaymentCreated",
      "type": "event"
    },
    {
      "inputs": [],
      "name": "REGISTRAR",
      "outputs": [
        {
          "internalType": "address",
          "name": "",
          "type": "address"
        }
      ],
      "stateMutability": "view",
      "type": "function"
    },
    {
      "inputs": [],
      "name": "_URI",
      "outputs": [
        {
          "internalType": "string",
          "name": "",
          "type": "string"
        }
      ],
      "stateMutability": "view",
      "type": "function"
    },
    {
      "inputs": [
        {
          "internalType": "address",
          "name": "",
          "type": "address"
        }
      ],
      "name": "dappOperatorFees",
      "outputs": [
        {
          "internalType": "uint256",
          "name": "writeBPS",
          "type": "uint256"
        },
        {
          "internalType": "uint256",
          "name": "transferBPS",
          "type": "uint256"
        },
        {
          "internalType": "uint256",
          "name": "fundBPS",
          "type": "uint256"
        },
        {
          "internalType": "uint256",
          "name": "cashBPS",
          "type": "uint256"
        }
      ],
      "stateMutability": "view",
      "type": "function"
    },
    {
      "inputs": [
        {
          "internalType": "address",
          "name": "dappOperator",
          "type": "address"
        }
      ],
      "name": "getFees",
      "outputs": [
        {
          "components": [
            {
              "internalType": "uint256",
              "name": "writeBPS",
              "type": "uint256"
            },
            {
              "internalType": "uint256",
              "name": "transferBPS",
              "type": "uint256"
            },
            {
              "internalType": "uint256",
              "name": "fundBPS",
              "type": "uint256"
            },
            {
              "internalType": "uint256",
              "name": "cashBPS",
              "type": "uint256"
            }
          ],
          "internalType": "struct DataTypes.WTFCFees",
          "name": "",
          "type": "tuple"
        }
      ],
      "stateMutability": "view",
      "type": "function"
    },
    {
      "inputs": [
        {
          "internalType": "uint256",
          "name": "",
          "type": "uint256"
        }
      ],
      "name": "payInfo",
      "outputs": [
        {
          "internalType": "address",
          "name": "creditor",
          "type": "address"
        },
        {
          "internalType": "address",
          "name": "debtor",
          "type": "address"
        },
        {
          "internalType": "uint256",
          "name": "amount",
          "type": "uint256"
        },
        {
          "internalType": "bool",
          "name": "wasPaid",
          "type": "bool"
        },
        {
          "internalType": "string",
          "name": "imageURI",
          "type": "string"
        },
        {
          "internalType": "string",
          "name": "memoHash",
          "type": "string"
        }
      ],
      "stateMutability": "view",
      "type": "function"
    },
    {
      "inputs": [
        {
          "internalType": "address",
          "name": "caller",
          "type": "address"
        },
        {
          "internalType": "address",
          "name": "owner",
          "type": "address"
        },
        {
          "internalType": "address",
          "name": "",
          "type": "address"
        },
        {
          "internalType": "uint256",
          "name": "",
          "type": "uint256"
        },
        {
          "components": [
            {
              "internalType": "address",
              "name": "currency",
              "type": "address"
            },
            {
              "internalType": "uint256",
              "name": "escrowed",
              "type": "uint256"
            },
            {
              "internalType": "uint256",
              "name": "createdAt",
              "type": "uint256"
            },
            {
              "internalType": "address",
              "name": "module",
              "type": "address"
            }
          ],
          "internalType": "struct DataTypes.Cheq",
          "name": "",
          "type": "tuple"
        },
        {
          "internalType": "bytes",
          "name": "",
          "type": "bytes"
        }
      ],
      "name": "processApproval",
      "outputs": [],
      "stateMutability": "view",
      "type": "function"
    },
    {
      "inputs": [
        {
          "internalType": "address",
          "name": "",
          "type": "address"
        },
        {
          "internalType": "address",
          "name": "",
          "type": "address"
        },
        {
          "internalType": "address",
          "name": "",
          "type": "address"
        },
        {
          "internalType": "uint256",
          "name": "",
          "type": "uint256"
        },
        {
          "internalType": "uint256",
          "name": "",
          "type": "uint256"
        },
        {
          "components": [
            {
              "internalType": "address",
              "name": "currency",
              "type": "address"
            },
            {
              "internalType": "uint256",
              "name": "escrowed",
              "type": "uint256"
            },
            {
              "internalType": "uint256",
              "name": "createdAt",
              "type": "uint256"
            },
            {
              "internalType": "address",
              "name": "module",
              "type": "address"
            }
          ],
          "internalType": "struct DataTypes.Cheq",
          "name": "",
          "type": "tuple"
        },
        {
          "internalType": "bytes",
          "name": "",
          "type": "bytes"
        }
      ],
      "name": "processCash",
      "outputs": [
        {
          "internalType": "uint256",
          "name": "",
          "type": "uint256"
        }
      ],
      "stateMutability": "view",
      "type": "function"
    },
    {
      "inputs": [
        {
          "internalType": "address",
          "name": "",
          "type": "address"
        },
        {
          "internalType": "address",
          "name": "owner",
          "type": "address"
        },
        {
          "internalType": "uint256",
          "name": "amount",
          "type": "uint256"
        },
        {
          "internalType": "uint256",
          "name": "instant",
          "type": "uint256"
        },
        {
          "internalType": "uint256",
          "name": "cheqId",
          "type": "uint256"
        },
        {
          "components": [
            {
              "internalType": "address",
              "name": "currency",
              "type": "address"
            },
            {
              "internalType": "uint256",
              "name": "escrowed",
              "type": "uint256"
            },
            {
              "internalType": "uint256",
              "name": "createdAt",
              "type": "uint256"
            },
            {
              "internalType": "address",
              "name": "module",
              "type": "address"
            }
          ],
          "internalType": "struct DataTypes.Cheq",
          "name": "cheq",
          "type": "tuple"
        },
        {
          "internalType": "bytes",
          "name": "initData",
          "type": "bytes"
        }
      ],
      "name": "processFund",
      "outputs": [
        {
          "internalType": "uint256",
          "name": "",
          "type": "uint256"
        }
      ],
      "stateMutability": "nonpayable",
      "type": "function"
    },
    {
      "inputs": [
        {
          "internalType": "uint256",
          "name": "tokenId",
          "type": "uint256"
        }
      ],
      "name": "processTokenURI",
      "outputs": [
        {
          "internalType": "string",
          "name": "",
          "type": "string"
        }
      ],
      "stateMutability": "view",
      "type": "function"
    },
    {
      "inputs": [
        {
          "internalType": "address",
          "name": "caller",
          "type": "address"
        },
        {
          "internalType": "address",
          "name": "approved",
          "type": "address"
        },
        {
          "internalType": "address",
          "name": "owner",
          "type": "address"
        },
        {
          "internalType": "address",
          "name": "",
          "type": "address"
        },
        {
          "internalType": "address",
          "name": "",
          "type": "address"
        },
        {
          "internalType": "uint256",
          "name": "",
          "type": "uint256"
        },
        {
          "internalType": "address",
          "name": "currency",
          "type": "address"
        },
        {
          "internalType": "uint256",
          "name": "escrowed",
          "type": "uint256"
        },
        {
          "internalType": "uint256",
          "name": "",
          "type": "uint256"
        },
        {
          "internalType": "bytes",
          "name": "data",
          "type": "bytes"
        }
      ],
      "name": "processTransfer",
      "outputs": [
        {
          "internalType": "uint256",
          "name": "",
          "type": "uint256"
        }
      ],
      "stateMutability": "nonpayable",
      "type": "function"
    },
    {
      "inputs": [
        {
          "internalType": "address",
          "name": "caller",
          "type": "address"
        },
        {
          "internalType": "address",
          "name": "owner",
          "type": "address"
        },
        {
          "internalType": "uint256",
          "name": "cheqId",
          "type": "uint256"
        },
        {
          "internalType": "address",
          "name": "currency",
          "type": "address"
        },
        {
          "internalType": "uint256",
          "name": "escrowed",
          "type": "uint256"
        },
        {
          "internalType": "uint256",
          "name": "instant",
          "type": "uint256"
        },
        {
          "internalType": "bytes",
          "name": "initData",
          "type": "bytes"
        }
      ],
      "name": "processWrite",
      "outputs": [
        {
          "internalType": "uint256",
          "name": "",
          "type": "uint256"
        }
      ],
      "stateMutability": "nonpayable",
      "type": "function"
    },
    {
      "inputs": [
        {
          "internalType": "address",
          "name": "",
          "type": "address"
        },
        {
          "internalType": "address",
          "name": "",
          "type": "address"
        }
      ],
      "name": "revenue",
      "outputs": [
        {
          "internalType": "uint256",
          "name": "",
          "type": "uint256"
        }
      ],
      "stateMutability": "view",
      "type": "function"
    },
    {
      "inputs": [
        {
          "components": [
            {
              "internalType": "uint256",
              "name": "writeBPS",
              "type": "uint256"
            },
            {
              "internalType": "uint256",
              "name": "transferBPS",
              "type": "uint256"
            },
            {
              "internalType": "uint256",
              "name": "fundBPS",
              "type": "uint256"
            },
            {
              "internalType": "uint256",
              "name": "cashBPS",
              "type": "uint256"
            }
          ],
          "internalType": "struct DataTypes.WTFCFees",
          "name": "_fees",
          "type": "tuple"
        }
      ],
      "name": "setFees",
      "outputs": [],
      "stateMutability": "nonpayable",
      "type": "function"
    },
    {
      "inputs": [
        {
          "internalType": "address",
          "name": "token",
          "type": "address"
        }
      ],
      "name": "withdrawFees",
      "outputs": [],
      "stateMutability": "nonpayable",
      "type": "function"
    }
  ],
  "bytecode": {
    "object": "0x60a06040523480156200001157600080fd5b50604051620023393803806200233983398101604081905262000034916200029e565b82826001600160a01b0382166200005e576040516348be0eb360e01b815260040160405180910390fd5b6001600160a01b03821660805280516127101015620000905760405163cd4e616760e01b815260040160405180910390fd5b80602001516127101015620000b85760405163cd4e616760e01b815260040160405180910390fd5b80604001516127101015620000e05760405163cd4e616760e01b815260040160405180910390fd5b80606001516127101015620001085760405163cd4e616760e01b815260040160405180910390fd5b336000908152600160208181526040928390208451815590840151918101919091558183015160028201556060830151600390910155516001600160a01b038316907ff1a1fa6b64aa95186f5a1285e76198d0da80d9c5a88062641d447f1d7c54e56c906200017a9042815260200190565b60405180910390a25060029050620001938282620003d6565b50505050620004a2565b634e487b7160e01b600052604160045260246000fd5b604051608081016001600160401b0381118282101715620001d857620001d86200019d565b60405290565b604051601f8201601f191681016001600160401b03811182821017156200020957620002096200019d565b604052919050565b600082601f8301126200022357600080fd5b81516001600160401b038111156200023f576200023f6200019d565b602062000255601f8301601f19168201620001de565b82815285828487010111156200026a57600080fd5b60005b838110156200028a5785810183015182820184015282016200026d565b506000928101909101919091529392505050565b600080600083850360c0811215620002b557600080fd5b84516001600160a01b0381168114620002cd57600080fd5b93506080601f1982011215620002e257600080fd5b50620002ed620001b3565b602085015181526040850151602082015260608501516040820152608085015160608201528092505060a084015160018060401b038111156200032f57600080fd5b6200033d8682870162000211565b9150509250925092565b600181811c908216806200035c57607f821691505b6020821081036200037d57634e487b7160e01b600052602260045260246000fd5b50919050565b601f821115620003d157600081815260208120601f850160051c81016020861015620003ac5750805b601f850160051c820191505b81811015620003cd57828155600101620003b8565b5050505b505050565b81516001600160401b03811115620003f257620003f26200019d565b6200040a8162000403845462000347565b8462000383565b602080601f831160018114620004425760008415620004295750858301515b600019600386901b1c1916600185901b178555620003cd565b600085815260208120601f198616915b82811015620004735788860151825594840194600190910190840162000452565b5085821015620004925787850151600019600388901b60f8161c191681555b5050505050600190811b01905550565b608051611e51620004e86000396000818161027901528181610334015281816104920152818161087601528181610c9a01528181610e9c0152610fd90152611e516000f3fe608060405234801561001057600080fd5b50600436106100ea5760003560e01c8063b4e87e8f1161008c578063c0c9572c11610066578063c0c9572c14610261578063cb60907714610274578063e4175968146102c0578063fd77c960146102d357600080fd5b8063b4e87e8f14610233578063b5d701ba1461023b578063be2f3fdd1461024e57600080fd5b80634fe17e1a116100c85780634fe17e1a1461018057806370530dac146101a05780639a0ea37a146101c55780639af608c9146101ed57600080fd5b806306890cd0146100ef5780631385a7b614610115578063164e68de1461016b575b600080fd5b6101026100fd36600461133d565b61031a565b6040519081526020015b60405180910390f35b61014b6101233660046113df565b6001602081905260009182526040909120805491810154600282015460039092015490919084565b60408051948552602085019390935291830152606082015260800161010c565b61017e6101793660046113df565b6103bd565b005b61019361018e366004611403565b610554565b60405161010c919061148a565b6101b36101ae366004611403565b6105e4565b60405161010c9695949392919061149d565b6101026101d33660046114f6565b600060208181529281526040808220909352908152205481565b6102006101fb3660046113df565b610749565b60405161010c91908151815260208083015190820152604080830151908201526060918201519181019190915260800190565b6101936107ce565b61010261024936600461152f565b61085c565b61010261025c3660046115a7565b610c80565b61010261026f3660046116dd565b610e82565b61029b7f000000000000000000000000000000000000000000000000000000000000000081565b60405173ffffffffffffffffffffffffffffffffffffffff909116815260200161010c565b61017e6102ce3660046117a7565b610fc1565b61017e6102e1366004611838565b33600090815260016020818152604092839020845181559084015191810191909155908201516002820155606090910151600390910155565b60003373ffffffffffffffffffffffffffffffffffffffff7f0000000000000000000000000000000000000000000000000000000000000000161461038b576040517f2ad9535100000000000000000000000000000000000000000000000000000000815260040160405180910390fd5b6040517f5a89288700000000000000000000000000000000000000000000000000000000815260040160405180910390fd5b3360009081526020818152604080832073ffffffffffffffffffffffffffffffffffffffff851684529091529020546001811161045b576040517f08c379a000000000000000000000000000000000000000000000000000000000815260206004820152601460248201527f496e73756666696369656e7420726576656e756500000000000000000000000060448201526064015b60405180910390fd5b3360009081526020818152604080832073ffffffffffffffffffffffffffffffffffffffff868116855292529091206001908190557f00000000000000000000000000000000000000000000000000000000000000009091169063d6a4f84c9084906104c790856118cd565b6040517fffffffff0000000000000000000000000000000000000000000000000000000060e085901b16815273ffffffffffffffffffffffffffffffffffffffff90921660048301526024820152336044820152606401600060405180830381600087803b15801561053857600080fd5b505af115801561054c573d6000803e3d6000fd5b505050505050565b606060026003600084815260200190815260200160002060050160405160200161057f9291906119c4565b604080517fffffffffffffffffffffffffffffffffffffffffffffffffffffffffffffffe08184030181528282526000858152600360209081529290206105ce939192600490910191016119e1565b6040516020818303038152906040529050919050565b60036020819052600091825260409091208054600182015460028301549383015460048401805473ffffffffffffffffffffffffffffffffffffffff94851696949093169460ff90921692610638906118e6565b80601f0160208091040260200160405190810160405280929190818152602001828054610664906118e6565b80156106b15780601f10610686576101008083540402835291602001916106b1565b820191906000526020600020905b81548152906001019060200180831161069457829003601f168201915b5050505050908060050180546106c6906118e6565b80601f01602080910402602001604051908101604052809291908181526020018280546106f2906118e6565b801561073f5780601f106107145761010080835404028352916020019161073f565b820191906000526020600020905b81548152906001019060200180831161072257829003601f168201915b5050505050905086565b6107746040518060800160405280600081526020016000815260200160008152602001600081525090565b5073ffffffffffffffffffffffffffffffffffffffff166000908152600160208181526040928390208351608081018552815481529281015491830191909152600281015492820192909252600390910154606082015290565b600280546107db906118e6565b80601f0160208091040260200160405190810160405280929190818152602001828054610807906118e6565b80156108545780601f1061082957610100808354040283529160200191610854565b820191906000526020600020905b81548152906001019060200180831161083757829003601f168201915b505050505081565b60003373ffffffffffffffffffffffffffffffffffffffff7f000000000000000000000000000000000000000000000000000000000000000016146108cd576040517f2ad9535100000000000000000000000000000000000000000000000000000000815260040160405180910390fd5b600080808080806108e0888a018a611a59565b9550955095509550955095508a600014610926576040517f2301b87f00000000000000000000000000000000000000000000000000000000815260040160405180910390fd5b84600003610960576040517fcbca5aa200000000000000000000000000000000000000000000000000000000815260040160405180910390fd5b8d73ffffffffffffffffffffffffffffffffffffffff168f73ffffffffffffffffffffffffffffffffffffffff1603610a7a5789156109cb576040517f71c2848500000000000000000000000000000000000000000000000000000000815260040160405180910390fd5b8e600360008f815260200190815260200160002060000160006101000a81548173ffffffffffffffffffffffffffffffffffffffff021916908373ffffffffffffffffffffffffffffffffffffffff16021790555085600360008f815260200190815260200160002060010160006101000a81548173ffffffffffffffffffffffffffffffffffffffff021916908373ffffffffffffffffffffffffffffffffffffffff160217905550610c0d565b8573ffffffffffffffffffffffffffffffffffffffff168e73ffffffffffffffffffffffffffffffffffffffff160361038b57848a14610ae6576040517fcd1c886700000000000000000000000000000000000000000000000000000000815260040160405180910390fd5b73ffffffffffffffffffffffffffffffffffffffff8e16610b33576040517f9fabe1c100000000000000000000000000000000000000000000000000000000815260040160405180910390fd5b85600360008f815260200190815260200160002060000160006101000a81548173ffffffffffffffffffffffffffffffffffffffff021916908373ffffffffffffffffffffffffffffffffffffffff1602179055508e600360008f815260200190815260200160002060010160006101000a81548173ffffffffffffffffffffffffffffffffffffffff021916908373ffffffffffffffffffffffffffffffffffffffff1602179055506001600360008f815260200190815260200160002060030160006101000a81548160ff0219169083151502179055505b60008d815260036020526040902060028101869055600501610c2f8282611b32565b5060008d8152600360205260409020600401610c4b8382611b32565b50610c578d8486611095565b610c6d8c610c65878e611c4c565b856000611117565b9f9e505050505050505050505050505050565b60003373ffffffffffffffffffffffffffffffffffffffff7f00000000000000000000000000000000000000000000000000000000000000001614610cf1576040517f2ad9535100000000000000000000000000000000000000000000000000000000815260040160405180910390fd5b73ffffffffffffffffffffffffffffffffffffffff8816610d3e576040517f9fabe1c100000000000000000000000000000000000000000000000000000000815260040160405180910390fd5b8615610d76576040517f2301b87f00000000000000000000000000000000000000000000000000000000815260040160405180910390fd5b6000858152600360205260409020600201548614610dc0576040517fcd1c886700000000000000000000000000000000000000000000000000000000815260040160405180910390fd5b6000858152600360208190526040909120015460ff1615610e0d576040517f5a89288700000000000000000000000000000000000000000000000000000000815260040160405180910390fd5b60008581526003602081815260409092200180547fffffffffffffffffffffffffffffffffffffffffffffffffffffffffffffff00166001179055610e7590610e58908601866113df565b610e62888a611c4c565b610e6e858701876113df565b6002611117565b9998505050505050505050565b60003373ffffffffffffffffffffffffffffffffffffffff7f00000000000000000000000000000000000000000000000000000000000000001614610ef3576040517f2ad9535100000000000000000000000000000000000000000000000000000000815260040160405180910390fd5b8873ffffffffffffffffffffffffffffffffffffffff168b73ffffffffffffffffffffffffffffffffffffffff1614158015610f5b57508973ffffffffffffffffffffffffffffffffffffffff168b73ffffffffffffffffffffffffffffffffffffffff1614155b15610f92576040517faf38dd8c00000000000000000000000000000000000000000000000000000000815260040160405180910390fd5b610fb2858584806020019051810190610fab9190611c5f565b6001611117565b9b9a5050505050505050505050565b3373ffffffffffffffffffffffffffffffffffffffff7f00000000000000000000000000000000000000000000000000000000000000001614611030576040517f2ad9535100000000000000000000000000000000000000000000000000000000815260040160405180910390fd5b8473ffffffffffffffffffffffffffffffffffffffff168673ffffffffffffffffffffffffffffffffffffffff161461054c576040517f5fc483c500000000000000000000000000000000000000000000000000000000815260040160405180910390fd5b6000838152600360205260409081902060028101548154600183015493517fdee8231e00b411bcfab99535e39e9cc1bc72b142b49b7864950b48737e3a90169461110a948994600590910193909242928a9273ffffffffffffffffffffffffffffffffffffffff908116929116908a90611c7c565b60405180910390a1505050565b60008160ff16600003611150575073ffffffffffffffffffffffffffffffffffffffff821660009081526001602052604090205461123b565b8160ff1660010361118b575073ffffffffffffffffffffffffffffffffffffffff82166000908152600160208190526040909120015461123b565b8160ff166002036111c5575073ffffffffffffffffffffffffffffffffffffffff821660009081526001602052604090206002015461123b565b8160ff166003036111ff575073ffffffffffffffffffffffffffffffffffffffff821660009081526001602052604090206003015461123b565b6040517f08c379a00000000000000000000000000000000000000000000000000000000081526020600482015260006024820152604401610452565b6127106112488286611da3565b6112529190611de0565b73ffffffffffffffffffffffffffffffffffffffff808516600090815260208181526040808320938a16835292905290812080549293508392909190611299908490611c4c565b909155509095945050505050565b73ffffffffffffffffffffffffffffffffffffffff811681146112c957600080fd5b50565b80356112d7816112a7565b919050565b6000608082840312156112ee57600080fd5b50919050565b60008083601f84011261130657600080fd5b50813567ffffffffffffffff81111561131e57600080fd5b60208301915083602082850101111561133657600080fd5b9250929050565b600080600080600080600080610140898b03121561135a57600080fd5b8835611365816112a7565b97506020890135611375816112a7565b96506040890135611385816112a7565b955060608901359450608089013593506113a28a60a08b016112dc565b925061012089013567ffffffffffffffff8111156113bf57600080fd5b6113cb8b828c016112f4565b999c989b5096995094979396929594505050565b6000602082840312156113f157600080fd5b81356113fc816112a7565b9392505050565b60006020828403121561141557600080fd5b5035919050565b60005b8381101561143757818101518382015260200161141f565b50506000910152565b6000815180845261145881602086016020860161141c565b601f017fffffffffffffffffffffffffffffffffffffffffffffffffffffffffffffffe0169290920160200192915050565b6020815260006113fc6020830184611440565b600073ffffffffffffffffffffffffffffffffffffffff8089168352808816602084015250856040830152841515606083015260c060808301526114e460c0830185611440565b82810360a0840152610e758185611440565b6000806040838503121561150957600080fd5b8235611514816112a7565b91506020830135611524816112a7565b809150509250929050565b60008060008060008060008060e0898b03121561154b57600080fd5b8835611556816112a7565b97506020890135611566816112a7565b965060408901359550606089013561157d816112a7565b94506080890135935060a0890135925060c089013567ffffffffffffffff8111156113bf57600080fd5b600080600080600080600080610140898b0312156115c457600080fd5b88356115cf816112a7565b975060208901356115df816112a7565b96506040890135955060608901359450608089013593506113a28a60a08b016112dc565b7f4e487b7100000000000000000000000000000000000000000000000000000000600052604160045260246000fd5b600082601f83011261164357600080fd5b813567ffffffffffffffff8082111561165e5761165e611603565b604051601f83017fffffffffffffffffffffffffffffffffffffffffffffffffffffffffffffffe0908116603f011681019082821181831017156116a4576116a4611603565b816040528381528660208588010111156116bd57600080fd5b836020870160208301376000602085830101528094505050505092915050565b6000806000806000806000806000806101408b8d0312156116fd57600080fd5b8a35611708816112a7565b995060208b0135611718816112a7565b985060408b0135611728816112a7565b975060608b0135611738816112a7565b965060808b0135611748816112a7565b955060a08b0135945061175d60c08c016112cc565b935060e08b013592506101008b013591506101208b013567ffffffffffffffff81111561178957600080fd5b6117958d828e01611632565b9150509295989b9194979a5092959850565b60008060008060008061012087890312156117c157600080fd5b86356117cc816112a7565b955060208701356117dc816112a7565b945060408701356117ec816112a7565b93506060870135925061180288608089016112dc565b915061010087013567ffffffffffffffff81111561181f57600080fd5b61182b89828a01611632565b9150509295509295509295565b60006080828403121561184a57600080fd5b6040516080810181811067ffffffffffffffff8211171561186d5761186d611603565b8060405250823581526020830135602082015260408301356040820152606083013560608201528091505092915050565b7f4e487b7100000000000000000000000000000000000000000000000000000000600052601160045260246000fd5b818103818111156118e0576118e061189e565b92915050565b600181811c908216806118fa57607f821691505b6020821081036112ee577f4e487b7100000000000000000000000000000000000000000000000000000000600052602260045260246000fd5b60008154611940816118e6565b60018281168015611958576001811461198b576119ba565b7fffffffffffffffffffffffffffffffffffffffffffffffffffffffffffffff00841687528215158302870194506119ba565b8560005260208060002060005b858110156119b15781548a820152908401908201611998565b50505082870194505b5050505092915050565b60006119d96119d38386611933565b84611933565b949350505050565b7f2c2265787465726e616c5f75726c223a00000000000000000000000000000000815260008351611a1981601085016020880161141c565b7f2c22696d616765223a0000000000000000000000000000000000000000000000601091840191820152611a506019820185611933565b95945050505050565b60008060008060008060c08789031215611a7257600080fd5b8635611a7d816112a7565b955060208701359450604087013593506060870135611a9b816112a7565b9250608087013567ffffffffffffffff80821115611ab857600080fd5b611ac48a838b01611632565b935060a0890135915080821115611ada57600080fd5b5061182b89828a01611632565b601f821115611b2d57600081815260208120601f850160051c81016020861015611b0e5750805b601f850160051c820191505b8181101561054c57828155600101611b1a565b505050565b815167ffffffffffffffff811115611b4c57611b4c611603565b611b6081611b5a84546118e6565b84611ae7565b602080601f831160018114611bb35760008415611b7d5750858301515b7fffffffffffffffffffffffffffffffffffffffffffffffffffffffffffffffff600386901b1c1916600185901b17855561054c565b6000858152602081207fffffffffffffffffffffffffffffffffffffffffffffffffffffffffffffffe08616915b82811015611c0057888601518255948401946001909101908401611be1565b5085821015611c3c57878501517fffffffffffffffffffffffffffffffffffffffffffffffffffffffffffffffff600388901b60f8161c191681555b5050505050600190811b01905550565b808201808211156118e0576118e061189e565b600060208284031215611c7157600080fd5b81516113fc816112a7565b60006101008a83526020818185015260008b54611c98816118e6565b9386018490526101209360018281168015611cba5760018114611cf257611d20565b7fffffffffffffffffffffffffffffffffffffffffffffffffffffffffffffff008416878a01528683151560051b8a01019450611d20565b8f6000528560002060005b84811015611d185781548b82018a0152908301908701611cfd565b8a0188019550505b50505050809350505050876040830152866060830152611d58608083018773ffffffffffffffffffffffffffffffffffffffff169052565b73ffffffffffffffffffffffffffffffffffffffff851660a083015273ffffffffffffffffffffffffffffffffffffffff841660c08301528260e08301529998505050505050505050565b6000817fffffffffffffffffffffffffffffffffffffffffffffffffffffffffffffffff0483118215151615611ddb57611ddb61189e565b500290565b600082611e16577f4e487b7100000000000000000000000000000000000000000000000000000000600052601260045260246000fd5b50049056fea2646970667358221220d7f25a7d634f0b5af238c126d25d9e3b97bd9b2cce667084c80ea9d76e82d01964736f6c63430008100033",
    "linkReferences": {}
  },
  "methodIdentifiers": {
    "REGISTRAR()": "cb609077",
    "_URI()": "b4e87e8f",
    "dappOperatorFees(address)": "1385a7b6",
    "getFees(address)": "9af608c9",
    "payInfo(uint256)": "70530dac",
    "processApproval(address,address,address,uint256,(address,uint256,uint256,address),bytes)": "e4175968",
    "processCash(address,address,address,uint256,uint256,(address,uint256,uint256,address),bytes)": "06890cd0",
    "processFund(address,address,uint256,uint256,uint256,(address,uint256,uint256,address),bytes)": "be2f3fdd",
    "processTokenURI(uint256)": "4fe17e1a",
    "processTransfer(address,address,address,address,address,uint256,address,uint256,uint256,bytes)": "c0c9572c",
    "processWrite(address,address,uint256,address,uint256,uint256,bytes)": "b5d701ba",
    "revenue(address,address)": "9a0ea37a",
    "setFees((uint256,uint256,uint256,uint256))": "fd77c960",
    "withdrawFees(address)": "164e68de"
  },
  "id": 45
}