{
  "abi": [
    {
      "inputs": [
        {
          "internalType": "address",
          "name": "registrar",
          "type": "address"
        },
        {
          "components": [
            {
              "internalType": "uint256",
              "name": "writeBPS",
              "type": "uint256"
            },
            {
              "internalType": "uint256",
              "name": "transferBPS",
              "type": "uint256"
            },
            {
              "internalType": "uint256",
              "name": "fundBPS",
              "type": "uint256"
            },
            {
              "internalType": "uint256",
              "name": "cashBPS",
              "type": "uint256"
            }
          ],
          "internalType": "struct DataTypes.WTFCFees",
          "name": "_fees",
          "type": "tuple"
        },
        {
          "internalType": "string",
          "name": "__baseURI",
          "type": "string"
        }
      ],
      "stateMutability": "nonpayable",
      "type": "constructor"
    },
    {
      "inputs": [],
      "name": "AddressZero",
      "type": "error"
    },
    {
      "inputs": [],
      "name": "AmountZero",
      "type": "error"
    },
    {
      "inputs": [],
      "name": "Disallowed",
      "type": "error"
    },
    {
      "inputs": [],
      "name": "EscrowUnsupported",
      "type": "error"
    },
    {
      "inputs": [],
      "name": "InitParamsInvalid",
      "type": "error"
    },
    {
      "inputs": [],
      "name": "InsufficientPayment",
      "type": "error"
    },
    {
      "inputs": [],
      "name": "InvoiceWithPay",
      "type": "error"
    },
    {
      "inputs": [],
      "name": "NotRegistrar",
      "type": "error"
    },
    {
      "inputs": [],
      "name": "OnlyOwner",
      "type": "error"
    },
    {
      "inputs": [],
      "name": "OnlyOwnerOrApproved",
      "type": "error"
    },
    {
      "anonymous": false,
      "inputs": [
        {
          "indexed": false,
          "internalType": "uint256",
          "name": "cheqId",
          "type": "uint256"
        },
        {
          "indexed": false,
          "internalType": "bytes32",
          "name": "memoHash",
          "type": "bytes32"
        },
        {
          "indexed": false,
          "internalType": "uint256",
          "name": "amount",
          "type": "uint256"
        },
        {
          "indexed": false,
          "internalType": "uint256",
          "name": "timestamp",
          "type": "uint256"
        },
        {
          "indexed": false,
          "internalType": "address",
          "name": "referer",
          "type": "address"
        }
      ],
      "name": "PaymentCreated",
      "type": "event"
    },
    {
      "inputs": [],
      "name": "REGISTRAR",
      "outputs": [
        {
          "internalType": "address",
          "name": "",
          "type": "address"
        }
      ],
      "stateMutability": "view",
      "type": "function"
    },
    {
      "inputs": [],
      "name": "_URI",
      "outputs": [
        {
          "internalType": "string",
          "name": "",
          "type": "string"
        }
      ],
      "stateMutability": "view",
      "type": "function"
    },
    {
      "inputs": [],
      "name": "fees",
      "outputs": [
        {
          "internalType": "uint256",
          "name": "writeBPS",
          "type": "uint256"
        },
        {
          "internalType": "uint256",
          "name": "transferBPS",
          "type": "uint256"
        },
        {
          "internalType": "uint256",
          "name": "fundBPS",
          "type": "uint256"
        },
        {
          "internalType": "uint256",
          "name": "cashBPS",
          "type": "uint256"
        }
      ],
      "stateMutability": "view",
      "type": "function"
    },
    {
      "inputs": [],
      "name": "getFees",
      "outputs": [
        {
          "internalType": "uint256",
          "name": "",
          "type": "uint256"
        },
        {
          "internalType": "uint256",
          "name": "",
          "type": "uint256"
        },
        {
          "internalType": "uint256",
          "name": "",
          "type": "uint256"
        },
        {
          "internalType": "uint256",
          "name": "",
          "type": "uint256"
        }
      ],
      "stateMutability": "view",
      "type": "function"
    },
    {
      "inputs": [
        {
          "internalType": "uint256",
          "name": "",
          "type": "uint256"
        }
      ],
      "name": "payInfo",
      "outputs": [
        {
          "internalType": "address",
          "name": "creditor",
          "type": "address"
        },
        {
          "internalType": "address",
          "name": "debtor",
          "type": "address"
        },
        {
          "internalType": "uint256",
          "name": "amount",
          "type": "uint256"
        },
        {
          "internalType": "uint256",
          "name": "timestamp",
          "type": "uint256"
        },
        {
          "internalType": "bytes32",
          "name": "memoHash",
          "type": "bytes32"
        },
        {
          "internalType": "bool",
          "name": "wasPaid",
          "type": "bool"
        }
      ],
      "stateMutability": "view",
      "type": "function"
    },
    {
      "inputs": [
        {
          "internalType": "address",
          "name": "caller",
          "type": "address"
        },
        {
          "internalType": "address",
          "name": "owner",
          "type": "address"
        },
        {
          "internalType": "address",
          "name": "",
          "type": "address"
        },
        {
          "internalType": "uint256",
          "name": "",
          "type": "uint256"
        },
        {
          "components": [
            {
              "internalType": "address",
              "name": "currency",
              "type": "address"
            },
            {
              "internalType": "uint256",
              "name": "escrowed",
              "type": "uint256"
            },
            {
              "internalType": "uint256",
              "name": "createdAt",
              "type": "uint256"
            },
            {
              "internalType": "address",
              "name": "module",
              "type": "address"
            }
          ],
          "internalType": "struct DataTypes.Cheq",
          "name": "",
          "type": "tuple"
        },
        {
          "internalType": "bytes",
          "name": "",
          "type": "bytes"
        }
      ],
      "name": "processApproval",
      "outputs": [],
      "stateMutability": "view",
      "type": "function"
    },
    {
      "inputs": [
        {
          "internalType": "address",
          "name": "",
          "type": "address"
        },
        {
          "internalType": "address",
          "name": "",
          "type": "address"
        },
        {
          "internalType": "address",
          "name": "",
          "type": "address"
        },
        {
          "internalType": "uint256",
          "name": "",
          "type": "uint256"
        },
        {
          "internalType": "uint256",
          "name": "",
          "type": "uint256"
        },
        {
          "components": [
            {
              "internalType": "address",
              "name": "currency",
              "type": "address"
            },
            {
              "internalType": "uint256",
              "name": "escrowed",
              "type": "uint256"
            },
            {
              "internalType": "uint256",
              "name": "createdAt",
              "type": "uint256"
            },
            {
              "internalType": "address",
              "name": "module",
              "type": "address"
            }
          ],
          "internalType": "struct DataTypes.Cheq",
          "name": "",
          "type": "tuple"
        },
        {
          "internalType": "bytes",
          "name": "",
          "type": "bytes"
        }
      ],
      "name": "processCash",
      "outputs": [
        {
          "internalType": "uint256",
          "name": "",
          "type": "uint256"
        }
      ],
      "stateMutability": "view",
      "type": "function"
    },
    {
      "inputs": [
        {
          "internalType": "address",
          "name": "",
          "type": "address"
        },
        {
          "internalType": "address",
          "name": "",
          "type": "address"
        },
        {
          "internalType": "uint256",
          "name": "amount",
          "type": "uint256"
        },
        {
          "internalType": "uint256",
          "name": "instant",
          "type": "uint256"
        },
        {
          "internalType": "uint256",
          "name": "cheqId",
          "type": "uint256"
        },
        {
          "components": [
            {
              "internalType": "address",
              "name": "currency",
              "type": "address"
            },
            {
              "internalType": "uint256",
              "name": "escrowed",
              "type": "uint256"
            },
            {
              "internalType": "uint256",
              "name": "createdAt",
              "type": "uint256"
            },
            {
              "internalType": "address",
              "name": "module",
              "type": "address"
            }
          ],
          "internalType": "struct DataTypes.Cheq",
          "name": "cheq",
          "type": "tuple"
        },
        {
          "internalType": "bytes",
          "name": "initData",
          "type": "bytes"
        }
      ],
      "name": "processFund",
      "outputs": [
        {
          "internalType": "uint256",
          "name": "",
          "type": "uint256"
        }
      ],
      "stateMutability": "nonpayable",
      "type": "function"
    },
    {
      "inputs": [
        {
          "internalType": "uint256",
          "name": "tokenId",
          "type": "uint256"
        }
      ],
      "name": "processTokenURI",
      "outputs": [
        {
          "internalType": "string",
          "name": "",
          "type": "string"
        }
      ],
      "stateMutability": "view",
      "type": "function"
    },
    {
      "inputs": [
        {
          "internalType": "address",
          "name": "caller",
          "type": "address"
        },
        {
          "internalType": "address",
          "name": "approved",
          "type": "address"
        },
        {
          "internalType": "address",
          "name": "owner",
          "type": "address"
        },
        {
          "internalType": "address",
          "name": "",
          "type": "address"
        },
        {
          "internalType": "address",
          "name": "",
          "type": "address"
        },
        {
          "internalType": "uint256",
          "name": "",
          "type": "uint256"
        },
        {
          "internalType": "address",
          "name": "currency",
          "type": "address"
        },
        {
          "internalType": "uint256",
          "name": "escrowed",
          "type": "uint256"
        },
        {
          "internalType": "uint256",
          "name": "",
          "type": "uint256"
        },
        {
          "internalType": "bytes",
          "name": "data",
          "type": "bytes"
        }
      ],
      "name": "processTransfer",
      "outputs": [
        {
          "internalType": "uint256",
          "name": "",
          "type": "uint256"
        }
      ],
      "stateMutability": "nonpayable",
      "type": "function"
    },
    {
      "inputs": [
        {
          "internalType": "address",
          "name": "caller",
          "type": "address"
        },
        {
          "internalType": "address",
          "name": "owner",
          "type": "address"
        },
        {
          "internalType": "uint256",
          "name": "cheqId",
          "type": "uint256"
        },
        {
          "internalType": "address",
          "name": "currency",
          "type": "address"
        },
        {
          "internalType": "uint256",
          "name": "escrowed",
          "type": "uint256"
        },
        {
          "internalType": "uint256",
          "name": "instant",
          "type": "uint256"
        },
        {
          "internalType": "bytes",
          "name": "initData",
          "type": "bytes"
        }
      ],
      "name": "processWrite",
      "outputs": [
        {
          "internalType": "uint256",
          "name": "",
          "type": "uint256"
        }
      ],
      "stateMutability": "nonpayable",
      "type": "function"
    },
    {
      "inputs": [
        {
          "internalType": "address",
          "name": "",
          "type": "address"
        },
        {
          "internalType": "address",
          "name": "",
          "type": "address"
        }
      ],
      "name": "revenue",
      "outputs": [
        {
          "internalType": "uint256",
          "name": "",
          "type": "uint256"
        }
      ],
      "stateMutability": "view",
      "type": "function"
    },
    {
      "inputs": [
        {
          "internalType": "address",
          "name": "token",
          "type": "address"
        }
      ],
      "name": "withdrawFees",
      "outputs": [],
      "stateMutability": "nonpayable",
      "type": "function"
    }
  ],
  "bytecode": {
    "object": "0x60a06040523480156200001157600080fd5b50604051620017fc380380620017fc8339810160408190526200003491620002f9565b82826001600160a01b0382166200005e576040516348be0eb360e01b815260040160405180910390fd5b6001600160a01b038216608052805161271011620000b25760405162461bcd60e51b81526020600482015260146024820152600080516020620017dc83398151915260448201526064015b60405180910390fd5b612710816020015110620000f85760405162461bcd60e51b81526020600482015260146024820152600080516020620017dc8339815191526044820152606401620000a9565b6127108160400151106200013e5760405162461bcd60e51b81526020600482015260146024820152600080516020620017dc8339815191526044820152606401620000a9565b612710816060015110620001845760405162461bcd60e51b81526020600482015260146024820152600080516020620017dc8339815191526044820152606401620000a9565b80516001556020808201516002556040808301516003556060830151600455514281526001600160a01b038416917ff1a1fa6b64aa95186f5a1285e76198d0da80d9c5a88062641d447f1d7c54e56c910160405180910390a25060059050620001ee828262000431565b50505050620004fd565b634e487b7160e01b600052604160045260246000fd5b604051608081016001600160401b0381118282101715620002335762000233620001f8565b60405290565b604051601f8201601f191681016001600160401b0381118282101715620002645762000264620001f8565b604052919050565b600082601f8301126200027e57600080fd5b81516001600160401b038111156200029a576200029a620001f8565b6020620002b0601f8301601f1916820162000239565b8281528582848701011115620002c557600080fd5b60005b83811015620002e5578581018301518282018401528201620002c8565b506000928101909101919091529392505050565b600080600083850360c08112156200031057600080fd5b84516001600160a01b03811681146200032857600080fd5b93506080601f19820112156200033d57600080fd5b50620003486200020e565b602085015181526040850151602082015260608501516040820152608085015160608201528092505060a084015160018060401b038111156200038a57600080fd5b62000398868287016200026c565b9150509250925092565b600181811c90821680620003b757607f821691505b602082108103620003d857634e487b7160e01b600052602260045260246000fd5b50919050565b601f8211156200042c57600081815260208120601f850160051c81016020861015620004075750805b601f850160051c820191505b81811015620004285782815560010162000413565b5050505b505050565b81516001600160401b038111156200044d576200044d620001f8565b62000465816200045e8454620003a2565b84620003de565b602080601f8311600181146200049d5760008415620004845750858301515b600019600386901b1c1916600185901b17855562000428565b600085815260208120601f198616915b82811015620004ce57888601518255948401946001909101908401620004ad565b5085821015620004ed5787850151600019600388901b60f8161c191681555b5050505050600190811b01905550565b6080516112996200054360003960008181610260015281816102cb015281816103b90152818161052f015281816108a401528181610a300152610b6a01526112996000f3fe608060405234801561001057600080fd5b50600436106100cf5760003560e01c8063b4e87e8f1161008c578063c0c9572c11610066578063c0c9572c14610248578063cb6090771461025b578063db8d55f11461029a578063e4175968146102ab57600080fd5b8063b4e87e8f1461021a578063b5d701ba14610222578063be2f3fdd1461023557600080fd5b806306890cd0146100d4578063164e68de146100fa5780634fe17e1a1461010f57806370530dac1461012f5780639a0ea37a146101bc5780639af1d35a146101e4575b600080fd5b6100e76100e2366004610c63565b6102be565b6040519081526020015b60405180910390f35b61010d610108366004610d05565b610322565b005b61012261011d366004610d29565b610456565b6040516100f19190610d42565b61018261013d366004610d29565b6006602052600090815260409020805460018201546002830154600384015460048501546005909501546001600160a01b039485169593909416939192909160ff1686565b604080516001600160a01b0397881681529690951660208701529385019290925260608401526080830152151560a082015260c0016100f1565b6100e76101ca366004610d90565b600060208181529281526040808220909352908152205481565b6001546002546003546004546101fa9392919084565b6040805194855260208501939093529183015260608201526080016100f1565b610122610494565b6100e7610230366004610dc9565b610522565b6100e7610243366004610e41565b610897565b6100e7610256366004610f40565b610a23565b6102827f000000000000000000000000000000000000000000000000000000000000000081565b6040516001600160a01b0390911681526020016100f1565b6001546002546003546004546101fa565b61010d6102b936600461100a565b610b5f565b6000336001600160a01b037f0000000000000000000000000000000000000000000000000000000000000000161461030957604051632ad9535160e01b815260040160405180910390fd5b604051635a89288760e01b815260040160405180910390fd5b336000908152602081815260408083206001600160a01b03851684529091529020546001811161038f5760405162461bcd60e51b8152602060048201526014602482015273496e73756666696369656e7420726576656e756560601b604482015260640160405180910390fd5b336000908152602081815260408083206001600160a01b03868116855292529091206001908190557f00000000000000000000000000000000000000000000000000000000000000009091169063d6a4f84c9084906103ee90856110b1565b6040516001600160e01b031960e085901b1681526001600160a01b0390921660048301526024820152336044820152606401600060405180830381600087803b15801561043a57600080fd5b505af115801561044e573d6000803e3d6000fd5b505050505050565b60008181526006602090815260409182902060040154915160609261047e92600592016110fe565b6040516020818303038152906040529050919050565b600580546104a1906110ca565b80601f01602080910402602001604051908101604052809291908181526020018280546104cd906110ca565b801561051a5780601f106104ef5761010080835404028352916020019161051a565b820191906000526020600020905b8154815290600101906020018083116104fd57829003601f168201915b505050505081565b6000336001600160a01b037f0000000000000000000000000000000000000000000000000000000000000000161461056d57604051632ad9535160e01b815260040160405180910390fd5b60008080808061057f878901896111a0565b94509450945094509450896000146105aa57604051632301b87f60e01b815260040160405180910390fd5b836000036105cb576040516365e52d5160e11b815260040160405180910390fd5b8c6001600160a01b03168e6001600160a01b03160361067e578815610603576040516371c2848560e01b815260040160405180910390fd5b8d600660008e815260200190815260200160002060000160006101000a8154816001600160a01b0302191690836001600160a01b0316021790555084600660008e815260200190815260200160002060010160006101000a8154816001600160a01b0302191690836001600160a01b03160217905550610784565b846001600160a01b03168d6001600160a01b031603610309578389146106b75760405163cd1c886760e01b815260040160405180910390fd5b6001600160a01b038d166106de57604051639fabe1c160e01b815260040160405180910390fd5b84600660008e815260200190815260200160002060000160006101000a8154816001600160a01b0302191690836001600160a01b031602179055508d600660008e815260200190815260200160002060010160006101000a8154816001600160a01b0302191690836001600160a01b031602179055506001600660008e815260200190815260200160002060050160006101000a81548160ff0219169083151502179055505b60008c81526006602052604081206002810186905560038101859055600401829055806107b18b8d6111f2565b600154909150612710906107c59083611205565b6107cf9190611224565b91505080600080856001600160a01b03166001600160a01b0316815260200190815260200160002060008e6001600160a01b03166001600160a01b03168152602001908152602001600020600082825461082991906111f2565b9091555050604080518e815260208101849052908101869052606081018590526001600160a01b03841660808201527fb44afd940522e9e335fe09ab2aaabc381ae0d970f31ec3ad94a5af613bba59959060a00160405180910390a19e9d5050505050505050505050505050565b6000336001600160a01b037f000000000000000000000000000000000000000000000000000000000000000016146108e257604051632ad9535160e01b815260040160405180910390fd5b861561090157604051632301b87f60e01b815260040160405180910390fd5b60008581526006602052604090206002015486146109325760405163cd1c886760e01b815260040160405180910390fd5b60008581526006602052604090206005015460ff161561096557604051635a89288760e01b815260040160405180910390fd5b6000858152600660205260408120600501805460ff1916600117905560035461271090610992898b6111f2565b61099c9190611205565b6109a69190611224565b9050806000806109b886880188610d05565b6001600160a01b031681526020808201929092526040016000908120916109e190890189610d05565b6001600160a01b03166001600160a01b031681526020019081526020016000206000828254610a1091906111f2565b90915550909a9950505050505050505050565b6000336001600160a01b037f00000000000000000000000000000000000000000000000000000000000000001614610a6e57604051632ad9535160e01b815260040160405180910390fd5b886001600160a01b03168b6001600160a01b031614158015610aa25750896001600160a01b03168b6001600160a01b031614155b15610ac057604051632bce376360e21b815260040160405180910390fd5b60025460009061271090610ad49087611205565b610ade9190611224565b90508060008085806020019051810190610af89190611246565b6001600160a01b03166001600160a01b031681526020019081526020016000206000886001600160a01b03166001600160a01b031681526020019081526020016000206000828254610b4a91906111f2565b90915550909c9b505050505050505050505050565b336001600160a01b037f00000000000000000000000000000000000000000000000000000000000000001614610ba857604051632ad9535160e01b815260040160405180910390fd5b846001600160a01b0316866001600160a01b03161461044e57604051635fc483c560e01b815260040160405180910390fd5b6001600160a01b0381168114610bef57600080fd5b50565b8035610bfd81610bda565b919050565b600060808284031215610c1457600080fd5b50919050565b60008083601f840112610c2c57600080fd5b50813567ffffffffffffffff811115610c4457600080fd5b602083019150836020828501011115610c5c57600080fd5b9250929050565b600080600080600080600080610140898b031215610c8057600080fd5b8835610c8b81610bda565b97506020890135610c9b81610bda565b96506040890135610cab81610bda565b95506060890135945060808901359350610cc88a60a08b01610c02565b925061012089013567ffffffffffffffff811115610ce557600080fd5b610cf18b828c01610c1a565b999c989b5096995094979396929594505050565b600060208284031215610d1757600080fd5b8135610d2281610bda565b9392505050565b600060208284031215610d3b57600080fd5b5035919050565b600060208083528351808285015260005b81811015610d6f57858101830151858201604001528201610d53565b506000604082860101526040601f19601f8301168501019250505092915050565b60008060408385031215610da357600080fd5b8235610dae81610bda565b91506020830135610dbe81610bda565b809150509250929050565b60008060008060008060008060e0898b031215610de557600080fd5b8835610df081610bda565b97506020890135610e0081610bda565b9650604089013595506060890135610e1781610bda565b94506080890135935060a0890135925060c089013567ffffffffffffffff811115610ce557600080fd5b600080600080600080600080610140898b031215610e5e57600080fd5b8835610e6981610bda565b97506020890135610e7981610bda565b9650604089013595506060890135945060808901359350610cc88a60a08b01610c02565b634e487b7160e01b600052604160045260246000fd5b600082601f830112610ec457600080fd5b813567ffffffffffffffff80821115610edf57610edf610e9d565b604051601f8301601f19908116603f01168101908282118183101715610f0757610f07610e9d565b81604052838152866020858801011115610f2057600080fd5b836020870160208301376000602085830101528094505050505092915050565b6000806000806000806000806000806101408b8d031215610f6057600080fd5b8a35610f6b81610bda565b995060208b0135610f7b81610bda565b985060408b0135610f8b81610bda565b975060608b0135610f9b81610bda565b965060808b0135610fab81610bda565b955060a08b01359450610fc060c08c01610bf2565b935060e08b013592506101008b013591506101208b013567ffffffffffffffff811115610fec57600080fd5b610ff88d828e01610eb3565b9150509295989b9194979a5092959850565b600080600080600080610120878903121561102457600080fd5b863561102f81610bda565b9550602087013561103f81610bda565b9450604087013561104f81610bda565b9350606087013592506110658860808901610c02565b915061010087013567ffffffffffffffff81111561108257600080fd5b61108e89828a01610eb3565b9150509295509295509295565b634e487b7160e01b600052601160045260246000fd5b818103818111156110c4576110c461109b565b92915050565b600181811c908216806110de57607f821691505b602082108103610c1457634e487b7160e01b600052602260045260246000fd5b600080845481600182811c91508083168061111a57607f831692505b6020808410820361113957634e487b7160e01b86526022600452602486fd5b81801561114d57600181146111625761118f565b60ff198616895284151585028901965061118f565b60008b81526020902060005b868110156111875781548b82015290850190830161116e565b505084890196505b509785525050509301949350505050565b600080600080600060a086880312156111b857600080fd5b85356111c381610bda565b9450602086013593506040860135925060608601356111e181610bda565b949793965091946080013592915050565b808201808211156110c4576110c461109b565b600081600019048311821515161561121f5761121f61109b565b500290565b60008261124157634e487b7160e01b600052601260045260246000fd5b500490565b60006020828403121561125857600080fd5b8151610d2281610bda56fea2646970667358221220e0c653744a1b4b1a547d3e47a3894b6af29a9fb47df18caea9fa6c536e086c3e64736f6c634300081000334d6f64756c653a2046656520746f6f2068696768000000000000000000000000",
    "linkReferences": {}
  },
  "methodIdentifiers": {
    "REGISTRAR()": "cb609077",
    "_URI()": "b4e87e8f",
    "fees()": "9af1d35a",
    "getFees()": "db8d55f1",
    "payInfo(uint256)": "70530dac",
    "processApproval(address,address,address,uint256,(address,uint256,uint256,address),bytes)": "e4175968",
    "processCash(address,address,address,uint256,uint256,(address,uint256,uint256,address),bytes)": "06890cd0",
    "processFund(address,address,uint256,uint256,uint256,(address,uint256,uint256,address),bytes)": "be2f3fdd",
    "processTokenURI(uint256)": "4fe17e1a",
    "processTransfer(address,address,address,address,address,uint256,address,uint256,uint256,bytes)": "c0c9572c",
    "processWrite(address,address,uint256,address,uint256,uint256,bytes)": "b5d701ba",
    "revenue(address,address)": "9a0ea37a",
    "withdrawFees(address)": "164e68de"
  },
  "id": 43
}