{
  "abi": [
    {
      "inputs": [
        {
          "internalType": "address",
          "name": "registrar",
          "type": "address"
        },
        {
          "internalType": "address",
          "name": "_writeRule",
          "type": "address"
        },
        {
          "internalType": "address",
          "name": "_transferRule",
          "type": "address"
        },
        {
          "internalType": "address",
          "name": "_fundRule",
          "type": "address"
        },
        {
          "internalType": "address",
          "name": "_cashRule",
          "type": "address"
        },
        {
          "internalType": "address",
          "name": "_approveRule",
          "type": "address"
        },
        {
          "components": [
            {
              "internalType": "uint256",
              "name": "writeBPS",
              "type": "uint256"
            },
            {
              "internalType": "uint256",
              "name": "transferBPS",
              "type": "uint256"
            },
            {
              "internalType": "uint256",
              "name": "fundBPS",
              "type": "uint256"
            },
            {
              "internalType": "uint256",
              "name": "cashBPS",
              "type": "uint256"
            }
          ],
          "internalType": "struct DataTypes.WTFCFees",
          "name": "_fees",
          "type": "tuple"
        },
        {
          "internalType": "string",
          "name": "__baseURI",
          "type": "string"
        }
      ],
      "stateMutability": "nonpayable",
      "type": "constructor"
    },
    {
      "inputs": [],
      "name": "InitParamsInvalid",
      "type": "error"
    },
    {
      "inputs": [],
      "name": "NotRegistrar",
      "type": "error"
    },
    {
      "anonymous": false,
      "inputs": [
        {
          "indexed": true,
          "internalType": "uint256",
          "name": "cheqId",
          "type": "uint256"
        },
        {
          "indexed": false,
          "internalType": "bytes32",
          "name": "memoHash",
          "type": "bytes32"
        }
      ],
      "name": "MemoWritten",
      "type": "event"
    },
    {
      "inputs": [],
      "name": "REGISTRAR",
      "outputs": [
        {
          "internalType": "address",
          "name": "",
          "type": "address"
        }
      ],
      "stateMutability": "view",
      "type": "function"
    },
    {
      "inputs": [],
      "name": "_URI",
      "outputs": [
        {
          "internalType": "string",
          "name": "",
          "type": "string"
        }
      ],
      "stateMutability": "view",
      "type": "function"
    },
    {
      "inputs": [],
      "name": "approveRule",
      "outputs": [
        {
          "internalType": "address",
          "name": "",
          "type": "address"
        }
      ],
      "stateMutability": "view",
      "type": "function"
    },
    {
      "inputs": [],
      "name": "cashRule",
      "outputs": [
        {
          "internalType": "address",
          "name": "",
          "type": "address"
        }
      ],
      "stateMutability": "view",
      "type": "function"
    },
    {
      "inputs": [],
      "name": "fees",
      "outputs": [
        {
          "internalType": "uint256",
          "name": "writeBPS",
          "type": "uint256"
        },
        {
          "internalType": "uint256",
          "name": "transferBPS",
          "type": "uint256"
        },
        {
          "internalType": "uint256",
          "name": "fundBPS",
          "type": "uint256"
        },
        {
          "internalType": "uint256",
          "name": "cashBPS",
          "type": "uint256"
        }
      ],
      "stateMutability": "view",
      "type": "function"
    },
    {
      "inputs": [],
      "name": "fundRule",
      "outputs": [
        {
          "internalType": "address",
          "name": "",
          "type": "address"
        }
      ],
      "stateMutability": "view",
      "type": "function"
    },
    {
      "inputs": [],
      "name": "getFees",
      "outputs": [
        {
          "internalType": "uint256",
          "name": "",
          "type": "uint256"
        },
        {
          "internalType": "uint256",
          "name": "",
          "type": "uint256"
        },
        {
          "internalType": "uint256",
          "name": "",
          "type": "uint256"
        },
        {
          "internalType": "uint256",
          "name": "",
          "type": "uint256"
        }
      ],
      "stateMutability": "view",
      "type": "function"
    },
    {
      "inputs": [
        {
          "internalType": "uint256",
          "name": "",
          "type": "uint256"
        }
      ],
      "name": "isCashed",
      "outputs": [
        {
          "internalType": "bool",
          "name": "",
          "type": "bool"
        }
      ],
      "stateMutability": "view",
      "type": "function"
    },
    {
      "inputs": [
        {
          "internalType": "uint256",
          "name": "",
          "type": "uint256"
        }
      ],
      "name": "memo",
      "outputs": [
        {
          "internalType": "bytes32",
          "name": "",
          "type": "bytes32"
        }
      ],
      "stateMutability": "view",
      "type": "function"
    },
    {
      "inputs": [
        {
          "internalType": "address",
          "name": "caller",
          "type": "address"
        },
        {
          "internalType": "address",
          "name": "owner",
          "type": "address"
        },
        {
          "internalType": "address",
          "name": "to",
          "type": "address"
        },
        {
          "internalType": "uint256",
          "name": "cheqId",
          "type": "uint256"
        },
        {
          "components": [
            {
              "internalType": "address",
              "name": "currency",
              "type": "address"
            },
            {
              "internalType": "uint256",
              "name": "amount",
              "type": "uint256"
            },
            {
              "internalType": "uint256",
              "name": "escrowed",
              "type": "uint256"
            },
            {
              "internalType": "address",
              "name": "drawer",
              "type": "address"
            },
            {
              "internalType": "address",
              "name": "recipient",
              "type": "address"
            },
            {
              "internalType": "address",
              "name": "module",
              "type": "address"
            },
            {
              "internalType": "uint256",
              "name": "mintTimestamp",
              "type": "uint256"
            }
          ],
          "internalType": "struct DataTypes.Cheq",
          "name": "cheq",
          "type": "tuple"
        },
        {
          "internalType": "bytes",
          "name": "initData",
          "type": "bytes"
        }
      ],
      "name": "processApproval",
      "outputs": [],
      "stateMutability": "nonpayable",
      "type": "function"
    },
    {
      "inputs": [
        {
          "internalType": "address",
          "name": "caller",
          "type": "address"
        },
        {
          "internalType": "address",
          "name": "owner",
          "type": "address"
        },
        {
          "internalType": "address",
          "name": "to",
          "type": "address"
        },
        {
          "internalType": "uint256",
          "name": "amount",
          "type": "uint256"
        },
        {
          "internalType": "uint256",
          "name": "cheqId",
          "type": "uint256"
        },
        {
          "components": [
            {
              "internalType": "address",
              "name": "currency",
              "type": "address"
            },
            {
              "internalType": "uint256",
              "name": "amount",
              "type": "uint256"
            },
            {
              "internalType": "uint256",
              "name": "escrowed",
              "type": "uint256"
            },
            {
              "internalType": "address",
              "name": "drawer",
              "type": "address"
            },
            {
              "internalType": "address",
              "name": "recipient",
              "type": "address"
            },
            {
              "internalType": "address",
              "name": "module",
              "type": "address"
            },
            {
              "internalType": "uint256",
              "name": "mintTimestamp",
              "type": "uint256"
            }
          ],
          "internalType": "struct DataTypes.Cheq",
          "name": "cheq",
          "type": "tuple"
        },
        {
          "internalType": "bytes",
          "name": "initData",
          "type": "bytes"
        }
      ],
      "name": "processCash",
      "outputs": [
        {
          "internalType": "uint256",
          "name": "",
          "type": "uint256"
        }
      ],
      "stateMutability": "nonpayable",
      "type": "function"
    },
    {
      "inputs": [
        {
          "internalType": "address",
          "name": "caller",
          "type": "address"
        },
        {
          "internalType": "address",
          "name": "owner",
          "type": "address"
        },
        {
          "internalType": "uint256",
          "name": "amount",
          "type": "uint256"
        },
        {
          "internalType": "uint256",
          "name": "directAmount",
          "type": "uint256"
        },
        {
          "internalType": "uint256",
          "name": "cheqId",
          "type": "uint256"
        },
        {
          "components": [
            {
              "internalType": "address",
              "name": "currency",
              "type": "address"
            },
            {
              "internalType": "uint256",
              "name": "amount",
              "type": "uint256"
            },
            {
              "internalType": "uint256",
              "name": "escrowed",
              "type": "uint256"
            },
            {
              "internalType": "address",
              "name": "drawer",
              "type": "address"
            },
            {
              "internalType": "address",
              "name": "recipient",
              "type": "address"
            },
            {
              "internalType": "address",
              "name": "module",
              "type": "address"
            },
            {
              "internalType": "uint256",
              "name": "mintTimestamp",
              "type": "uint256"
            }
          ],
          "internalType": "struct DataTypes.Cheq",
          "name": "cheq",
          "type": "tuple"
        },
        {
          "internalType": "bytes",
          "name": "initData",
          "type": "bytes"
        }
      ],
      "name": "processFund",
      "outputs": [
        {
          "internalType": "uint256",
          "name": "",
          "type": "uint256"
        }
      ],
      "stateMutability": "nonpayable",
      "type": "function"
    },
    {
      "inputs": [
        {
          "internalType": "uint256",
          "name": "tokenId",
          "type": "uint256"
        }
      ],
      "name": "processTokenURI",
      "outputs": [
        {
          "internalType": "string",
          "name": "",
          "type": "string"
        }
      ],
      "stateMutability": "view",
      "type": "function"
    },
    {
      "inputs": [
        {
          "internalType": "address",
          "name": "caller",
          "type": "address"
        },
        {
          "internalType": "bool",
          "name": "isApproved",
          "type": "bool"
        },
        {
          "internalType": "address",
          "name": "owner",
          "type": "address"
        },
        {
          "internalType": "address",
          "name": "from",
          "type": "address"
        },
        {
          "internalType": "address",
          "name": "to",
          "type": "address"
        },
        {
          "internalType": "uint256",
          "name": "cheqId",
          "type": "uint256"
        },
        {
          "components": [
            {
              "internalType": "address",
              "name": "currency",
              "type": "address"
            },
            {
              "internalType": "uint256",
              "name": "amount",
              "type": "uint256"
            },
            {
              "internalType": "uint256",
              "name": "escrowed",
              "type": "uint256"
            },
            {
              "internalType": "address",
              "name": "drawer",
              "type": "address"
            },
            {
              "internalType": "address",
              "name": "recipient",
              "type": "address"
            },
            {
              "internalType": "address",
              "name": "module",
              "type": "address"
            },
            {
              "internalType": "uint256",
              "name": "mintTimestamp",
              "type": "uint256"
            }
          ],
          "internalType": "struct DataTypes.Cheq",
          "name": "cheq",
          "type": "tuple"
        },
        {
          "internalType": "bytes",
          "name": "data",
          "type": "bytes"
        }
      ],
      "name": "processTransfer",
      "outputs": [
        {
          "internalType": "uint256",
          "name": "",
          "type": "uint256"
        }
      ],
      "stateMutability": "nonpayable",
      "type": "function"
    },
    {
      "inputs": [
        {
          "internalType": "address",
          "name": "caller",
          "type": "address"
        },
        {
          "internalType": "address",
          "name": "owner",
          "type": "address"
        },
        {
          "internalType": "uint256",
          "name": "cheqId",
          "type": "uint256"
        },
        {
          "components": [
            {
              "internalType": "address",
              "name": "currency",
              "type": "address"
            },
            {
              "internalType": "uint256",
              "name": "amount",
              "type": "uint256"
            },
            {
              "internalType": "uint256",
              "name": "escrowed",
              "type": "uint256"
            },
            {
              "internalType": "address",
              "name": "drawer",
              "type": "address"
            },
            {
              "internalType": "address",
              "name": "recipient",
              "type": "address"
            },
            {
              "internalType": "address",
              "name": "module",
              "type": "address"
            },
            {
              "internalType": "uint256",
              "name": "mintTimestamp",
              "type": "uint256"
            }
          ],
          "internalType": "struct DataTypes.Cheq",
          "name": "cheq",
          "type": "tuple"
        },
        {
          "internalType": "uint256",
          "name": "directAmount",
          "type": "uint256"
        },
        {
          "internalType": "bytes",
          "name": "initData",
          "type": "bytes"
        }
      ],
      "name": "processWrite",
      "outputs": [
        {
          "internalType": "uint256",
          "name": "",
          "type": "uint256"
        }
      ],
      "stateMutability": "nonpayable",
      "type": "function"
    },
    {
      "inputs": [],
      "name": "transferRule",
      "outputs": [
        {
          "internalType": "address",
          "name": "",
          "type": "address"
        }
      ],
      "stateMutability": "view",
      "type": "function"
    },
    {
      "inputs": [
        {
          "internalType": "address",
          "name": "token",
          "type": "address"
        }
      ],
      "name": "withdrawFees",
      "outputs": [],
      "stateMutability": "nonpayable",
      "type": "function"
    },
    {
      "inputs": [],
      "name": "writeRule",
      "outputs": [
        {
          "internalType": "address",
          "name": "",
          "type": "address"
        }
      ],
      "stateMutability": "view",
      "type": "function"
    }
  ],
  "bytecode": {
    "object": "0x60a06040523480156200001157600080fd5b50604051620019ce380380620019ce83398101604081905262000034916200045d565b878787878787876001600160a01b03871662000063576040516348be0eb360e01b815260040160405180910390fd5b6001600160a01b038781166080819052604051631fa5b09760e11b81528883166004820152878316602482015286831660448201528583166064820152918416608483015290633f4b612e9060a401602060405180830381865afa158015620000d0573d6000803e3d6000fd5b505050506040513d601f19601f82011682018060405250810190620000f691906200055a565b620001385760405162461bcd60e51b815260206004820152600d60248201526c1495531154d7d2539590531251609a1b60448201526064015b60405180910390fd5b600380546001600160a01b03199081166001600160a01b038981169190911790925560048054821688841617905560058054821687841617905560068054821686841617905560078054909116918416919091179055805161271011620001d15760405162461bcd60e51b81526020600482015260146024820152600080516020620019ae83398151915260448201526064016200012f565b612710816020015110620002175760405162461bcd60e51b81526020600482015260146024820152600080516020620019ae83398151915260448201526064016200012f565b6127108160400151106200025d5760405162461bcd60e51b81526020600482015260146024820152600080516020620019ae83398151915260448201526064016200012f565b612710816060015110620002a35760405162461bcd60e51b81526020600482015260146024820152600080516020620019ae83398151915260448201526064016200012f565b8051600855602080820151600955604080830151600a556060830151600b55514281526001600160a01b038916917ff1a1fa6b64aa95186f5a1285e76198d0da80d9c5a88062641d447f1d7c54e56c910160405180910390a250505050505050806000908162000314919062000614565b5050805160085560208101516009556040810151600a5560600151600b5550620006e0945050505050565b80516001600160a01b03811681146200035757600080fd5b919050565b634e487b7160e01b600052604160045260246000fd5b604051608081016001600160401b03811182821017156200039757620003976200035c565b60405290565b604051601f8201601f191681016001600160401b0381118282101715620003c857620003c86200035c565b604052919050565b600082601f830112620003e257600080fd5b81516001600160401b03811115620003fe57620003fe6200035c565b602062000414601f8301601f191682016200039d565b82815285828487010111156200042957600080fd5b60005b83811015620004495785810183015182820184015282016200042c565b506000928101909101919091529392505050565b600080600080600080600080888a036101608112156200047c57600080fd5b620004878a6200033f565b98506200049760208b016200033f565b9750620004a760408b016200033f565b9650620004b760608b016200033f565b9550620004c760808b016200033f565b9450620004d760a08b016200033f565b9350608060bf1982011215620004ec57600080fd5b50620004f762000372565b60c08a0151815260e08a015160208201526101008a015160408201526101208a015160608201526101408a01519092506001600160401b038111156200053c57600080fd5b6200054a8b828c01620003d0565b9150509295985092959890939650565b6000602082840312156200056d57600080fd5b815180151581146200057e57600080fd5b9392505050565b600181811c908216806200059a57607f821691505b602082108103620005bb57634e487b7160e01b600052602260045260246000fd5b50919050565b601f8211156200060f57600081815260208120601f850160051c81016020861015620005ea5750805b601f850160051c820191505b818110156200060b57828155600101620005f6565b5050505b505050565b81516001600160401b038111156200063057620006306200035c565b620006488162000641845462000585565b84620005c1565b602080601f831160018114620006805760008415620006675750858301515b600019600386901b1c1916600185901b1785556200060b565b600085815260208120601f198616915b82811015620006b15788860151825594840194600190910190840162000690565b5085821015620006d05787850151600019600388901b60f8161c191681555b5050505050600190811b01905550565b60805161128862000726600039600081816102700152818161039e01528181610448015281816105ac015281816106c001528181610882015261099d01526112886000f3fe608060405234801561001057600080fd5b50600436106101165760003560e01c8063aee40bb9116100a2578063d647e1e511610071578063d647e1e5146102a5578063db8d55f1146102b8578063df1cdb46146102c9578063f09b3d9a146102dc578063f3ea001e146102ef57600080fd5b8063aee40bb914610230578063b4e87e8f14610263578063cb6090771461026b578063d4c301da1461029257600080fd5b80634fe17e1a116100e95780634fe17e1a1461019457806384314347146101b457806396eb58f8146101c75780639af1d35a146101e7578063a0663d1b1461021d57600080fd5b80630d02cde71461011b578063164e68de1461014b5780634238a63a14610160578063433d3a7714610181575b600080fd5b60045461012e906001600160a01b031681565b6040516001600160a01b0390911681526020015b60405180910390f35b61015e610159366004610ac9565b610302565b005b61017361016e366004610b4c565b61043b565b604051908152602001610142565b60075461012e906001600160a01b031681565b6101a76101a2366004610bd9565b610564565b6040516101429190610c38565b61015e6101c2366004610cee565b6105a1565b6101736101d5366004610bd9565b60016020526000908152604090205481565b600854600954600a54600b546101fd9392919084565b604080519485526020850193909352918301526060820152608001610142565b61017361022b366004610d79565b6106b3565b61025361023e366004610bd9565b600c6020526000908152604090205460ff1681565b6040519015158152602001610142565b6101a76107e7565b61012e7f000000000000000000000000000000000000000000000000000000000000000081565b60055461012e906001600160a01b031681565b6101736102b3366004610e15565b610875565b600854600954600a54600b546101fd565b60035461012e906001600160a01b031681565b6101736102ea366004610e6d565b610990565b60065461012e906001600160a01b031681565b3360009081526002602090815260408083206001600160a01b0385168452909152902054600181116103725760405162461bcd60e51b8152602060048201526014602482015273496e73756666696369656e7420726576656e756560601b60448201526064015b60405180910390fd5b3360009081526002602090815260408083206001600160a01b03868116855292529091206001908190557f00000000000000000000000000000000000000000000000000000000000000009091169063d6a4f84c9084906103d39085610f21565b6040516001600160e01b031960e085901b1681526001600160a01b0390921660048301526024820152336044820152606401600060405180830381600087803b15801561041f57600080fd5b505af1158015610433573d6000803e3d6000fd5b505050505050565b6000336001600160a01b037f0000000000000000000000000000000000000000000000000000000000000000161461048657604051632ad9535160e01b815260040160405180910390fd5b600354604051638893ae9d60e01b81526001600160a01b0390911690638893ae9d906104c2908b908b908b908b908b908b908b90600401610fdf565b600060405180830381600087803b1580156104dc57600080fd5b505af11580156104f0573d6000803e3d6000fd5b506000925061050491505083850185610bd9565b600088815260016020526040908190208290555190915087907f07c7861582baf574daa482e764ab9bc4954b9525ee7bd155bcc5a97f739e6df99061054c9084815260200190565b60405180910390a25050600854979650505050505050565b6000818152600160209081526040808320549051606093919261058a9291849101611069565b604051602081830303815290604052915050919050565b336001600160a01b037f000000000000000000000000000000000000000000000000000000000000000016146105ea57604051632ad9535160e01b815260040160405180910390fd5b6000838152600c602052604090205460ff1661063f5760405162461bcd60e51b8152602060048201526014602482015273135d5cdd0818994818d85cda195908199a5c9cdd60621b6044820152606401610369565b60075460405163275ecee160e01b81526001600160a01b039091169063275ecee1906106799089908990899089908990899060040161110b565b600060405180830381600087803b15801561069357600080fd5b505af11580156106a7573d6000803e3d6000fd5b50505050505050505050565b6000336001600160a01b037f000000000000000000000000000000000000000000000000000000000000000016146106fe57604051632ad9535160e01b815260040160405180910390fd5b6000858152600c602052604090205460ff161561074e5760405162461bcd60e51b815260206004820152600e60248201526d105b1c9958591e4818d85cda195960921b6044820152606401610369565b6006546040516353ba2df360e01b81526001600160a01b03909116906353ba2df39061078c908c908c908c908c908c908c908c908c90600401611160565b600060405180830381600087803b1580156107a657600080fd5b505af11580156107ba573d6000803e3d6000fd5b5050506000868152600c60205260409020805460ff191660011790555050600b5498975050505050505050565b600080546107f490611035565b80601f016020809104026020016040519081016040528092919081815260200182805461082090611035565b801561086d5780601f106108425761010080835404028352916020019161086d565b820191906000526020600020905b81548152906001019060200180831161085057829003601f168201915b505050505081565b6000336001600160a01b037f000000000000000000000000000000000000000000000000000000000000000016146108c057604051632ad9535160e01b815260040160405180910390fd5b6000858152600c602052604090205460ff16156109105760405162461bcd60e51b815260206004820152600e60248201526d105b1c9958591e4818d85cda195960921b6044820152606401610369565b6005546040516329cc185f60e21b81526001600160a01b039091169063a730617c9061094e908c908c908c908c908c908c908c908c906004016111bf565b600060405180830381600087803b15801561096857600080fd5b505af115801561097c573d6000803e3d6000fd5b5050600a549b9a5050505050505050505050565b6000336001600160a01b037f000000000000000000000000000000000000000000000000000000000000000016146109db57604051632ad9535160e01b815260040160405180910390fd5b6000848152600c602052604090205460ff16610a2e5760405162461bcd60e51b81526020600482015260126024820152714e656564732066756c6c2066756e64696e6760701b6044820152606401610369565b600480546040516309b1079760e21b81526001600160a01b03909116916326c41e5c91610a6b918d918d918d918d918d918d918d918d91016111fa565b600060405180830381600087803b158015610a8557600080fd5b505af1158015610a99573d6000803e3d6000fd5b50506009549b9a5050505050505050505050565b80356001600160a01b0381168114610ac457600080fd5b919050565b600060208284031215610adb57600080fd5b610ae482610aad565b9392505050565b600060e08284031215610afd57600080fd5b50919050565b60008083601f840112610b1557600080fd5b50813567ffffffffffffffff811115610b2d57600080fd5b602083019150836020828501011115610b4557600080fd5b9250929050565b6000806000806000806000610180888a031215610b6857600080fd5b610b7188610aad565b9650610b7f60208901610aad565b955060408801359450610b958960608a01610aeb565b9350610140880135925061016088013567ffffffffffffffff811115610bba57600080fd5b610bc68a828b01610b03565b989b979a50959850939692959293505050565b600060208284031215610beb57600080fd5b5035919050565b6000815180845260005b81811015610c1857602081850181015186830182015201610bfc565b506000602082860101526020601f19601f83011685010191505092915050565b602081526000610ae46020830184610bf2565b634e487b7160e01b600052604160045260246000fd5b600082601f830112610c7257600080fd5b813567ffffffffffffffff80821115610c8d57610c8d610c4b565b604051601f8301601f19908116603f01168101908282118183101715610cb557610cb5610c4b565b81604052838152866020858801011115610cce57600080fd5b836020870160208301376000602085830101528094505050505092915050565b6000806000806000806101808789031215610d0857600080fd5b610d1187610aad565b9550610d1f60208801610aad565b9450610d2d60408801610aad565b935060608701359250610d438860808901610aeb565b915061016087013567ffffffffffffffff811115610d6057600080fd5b610d6c89828a01610c61565b9150509295509295509295565b6000806000806000806000806101a0898b031215610d9657600080fd5b610d9f89610aad565b9750610dad60208a01610aad565b9650610dbb60408a01610aad565b95506060890135945060808901359350610dd88a60a08b01610aeb565b925061018089013567ffffffffffffffff811115610df557600080fd5b610e018b828c01610b03565b999c989b5096995094979396929594505050565b6000806000806000806000806101a0898b031215610e3257600080fd5b610e3b89610aad565b9750610e4960208a01610aad565b9650604089013595506060890135945060808901359350610dd88a60a08b01610aeb565b6000806000806000806000806101c0898b031215610e8a57600080fd5b610e9389610aad565b975060208901358015158114610ea857600080fd5b9650610eb660408a01610aad565b9550610ec460608a01610aad565b9450610ed260808a01610aad565b935060a08901359250610ee88a60c08b01610aeb565b91506101a089013567ffffffffffffffff811115610f0557600080fd5b610f118b828c01610c61565b9150509295985092959890939650565b81810381811115610f4257634e487b7160e01b600052601160045260246000fd5b92915050565b6001600160a01b0380610f5a83610aad565b168352602082013560208401526040820135604084015280610f7e60608401610aad565b16606084015280610f9160808401610aad565b16608084015280610fa460a08401610aad565b1660a08401525060c090810135910152565b81835281816020850137506000828201602090810191909152601f909101601f19169091010190565b6001600160a01b0388811682528716602082015260408101869052600061018061100c6060840188610f48565b85610140840152806101608401526110278184018587610fb6565b9a9950505050505050505050565b600181811c9082168061104957607f821691505b602082108103610afd57634e487b7160e01b600052602260045260246000fd5b600080845481600182811c91508083168061108557607f831692505b602080841082036110a457634e487b7160e01b86526022600452602486fd5b8180156110b857600181146110cd576110fa565b60ff19861689528415158502890196506110fa565b60008b81526020902060005b868110156110f25781548b8201529085019083016110d9565b505084890196505b509785525050509301949350505050565b6001600160a01b0387811682528681166020830152851660408201526060810184905260006101806111406080840186610f48565b8061016084015261115381840185610bf2565b9998505050505050505050565b6001600160a01b038981168252888116602083015287166040820152606081018690526080810185905260006101a061119c60a0840187610f48565b806101808401526111b08184018587610fb6565b9b9a5050505050505050505050565b6001600160a01b0389811682528816602082015260408101879052606081018690526080810185905260006101a061119c60a0840187610f48565b6001600160a01b0389811682528815156020830152878116604083015286811660608301528516608082015260a0810184905260006101c061123f60c0840186610f48565b806101a08401526111b081840185610bf256fea264697066735822122085c558f2bfa2e0074c2ccc32d99a8ff0ba57661616a56fb6d41f06a6b68727be64736f6c634300081000334d6f64756c653a2046656520746f6f2068696768000000000000000000000000",
    "linkReferences": {}
  },
  "methodIdentifiers": {
    "REGISTRAR()": "cb609077",
    "_URI()": "b4e87e8f",
    "approveRule()": "433d3a77",
    "cashRule()": "f3ea001e",
    "fees()": "9af1d35a",
    "fundRule()": "d4c301da",
    "getFees()": "db8d55f1",
    "isCashed(uint256)": "aee40bb9",
    "memo(uint256)": "96eb58f8",
    "processApproval(address,address,address,uint256,(address,uint256,uint256,address,address,address,uint256),bytes)": "84314347",
    "processCash(address,address,address,uint256,uint256,(address,uint256,uint256,address,address,address,uint256),bytes)": "a0663d1b",
    "processFund(address,address,uint256,uint256,uint256,(address,uint256,uint256,address,address,address,uint256),bytes)": "d647e1e5",
    "processTokenURI(uint256)": "4fe17e1a",
    "processTransfer(address,bool,address,address,address,uint256,(address,uint256,uint256,address,address,address,uint256),bytes)": "f09b3d9a",
    "processWrite(address,address,uint256,(address,uint256,uint256,address,address,address,uint256),uint256,bytes)": "4238a63a",
    "transferRule()": "0d02cde7",
    "withdrawFees(address)": "164e68de",
    "writeRule()": "df1cdb46"
  },
  "id": 46
}