{
  "abi": [
    {
      "inputs": [
        {
          "internalType": "address",
          "name": "registrar",
          "type": "address"
        },
        {
          "components": [
            {
              "internalType": "uint256",
              "name": "writeBPS",
              "type": "uint256"
            },
            {
              "internalType": "uint256",
              "name": "transferBPS",
              "type": "uint256"
            },
            {
              "internalType": "uint256",
              "name": "fundBPS",
              "type": "uint256"
            },
            {
              "internalType": "uint256",
              "name": "cashBPS",
              "type": "uint256"
            }
          ],
          "internalType": "struct DataTypes.WTFCFees",
          "name": "_fees",
          "type": "tuple"
        },
        {
          "internalType": "string",
          "name": "__baseURI",
          "type": "string"
        }
      ],
      "stateMutability": "nonpayable",
      "type": "constructor"
    },
    {
      "inputs": [],
      "name": "FeeTooHigh",
      "type": "error"
    },
    {
      "inputs": [],
      "name": "InitParamsInvalid",
      "type": "error"
    },
    {
      "inputs": [],
      "name": "NotRegistrar",
      "type": "error"
    },
    {
      "anonymous": false,
      "inputs": [
        {
          "indexed": false,
          "internalType": "uint256",
          "name": "cheqId",
          "type": "uint256"
        },
        {
          "indexed": false,
          "internalType": "uint256",
          "name": "claimPeriod",
          "type": "uint256"
        },
        {
          "indexed": false,
          "internalType": "uint64",
          "name": "requiredProof",
          "type": "uint64"
        }
      ],
      "name": "Locked",
      "type": "event"
    },
    {
      "anonymous": false,
      "inputs": [
        {
          "indexed": true,
          "internalType": "address",
          "name": "previousOwner",
          "type": "address"
        },
        {
          "indexed": true,
          "internalType": "address",
          "name": "newOwner",
          "type": "address"
        }
      ],
      "name": "OwnershipTransferred",
      "type": "event"
    },
    {
      "inputs": [],
      "name": "REGISTRAR",
      "outputs": [
        {
          "internalType": "address",
          "name": "",
          "type": "address"
        }
      ],
      "stateMutability": "view",
      "type": "function"
    },
    {
      "inputs": [],
      "name": "_URI",
      "outputs": [
        {
          "internalType": "string",
          "name": "",
          "type": "string"
        }
      ],
      "stateMutability": "view",
      "type": "function"
    },
    {
      "inputs": [
        {
          "internalType": "address",
          "name": "",
          "type": "address"
        }
      ],
      "name": "dappOperatorFees",
      "outputs": [
        {
          "internalType": "uint256",
          "name": "writeBPS",
          "type": "uint256"
        },
        {
          "internalType": "uint256",
          "name": "transferBPS",
          "type": "uint256"
        },
        {
          "internalType": "uint256",
          "name": "fundBPS",
          "type": "uint256"
        },
        {
          "internalType": "uint256",
          "name": "cashBPS",
          "type": "uint256"
        }
      ],
      "stateMutability": "view",
      "type": "function"
    },
    {
      "inputs": [
        {
          "internalType": "address",
          "name": "dappOperator",
          "type": "address"
        }
      ],
      "name": "getFees",
      "outputs": [
        {
          "components": [
            {
              "internalType": "uint256",
              "name": "writeBPS",
              "type": "uint256"
            },
            {
              "internalType": "uint256",
              "name": "transferBPS",
              "type": "uint256"
            },
            {
              "internalType": "uint256",
              "name": "fundBPS",
              "type": "uint256"
            },
            {
              "internalType": "uint256",
              "name": "cashBPS",
              "type": "uint256"
            }
          ],
          "internalType": "struct DataTypes.WTFCFees",
          "name": "",
          "type": "tuple"
        }
      ],
      "stateMutability": "view",
      "type": "function"
    },
    {
      "inputs": [],
      "name": "getSupportedRequests",
      "outputs": [
        {
          "internalType": "uint64[]",
          "name": "arr",
          "type": "uint64[]"
        }
      ],
      "stateMutability": "view",
      "type": "function"
    },
    {
      "inputs": [
        {
          "internalType": "uint64",
          "name": "requestId",
          "type": "uint64"
        }
      ],
      "name": "getZKPRequest",
      "outputs": [
        {
          "components": [
            {
              "internalType": "uint256",
              "name": "schema",
              "type": "uint256"
            },
            {
              "internalType": "uint256",
              "name": "claimPathKey",
              "type": "uint256"
            },
            {
              "internalType": "uint256",
              "name": "operator",
              "type": "uint256"
            },
            {
              "internalType": "uint256[]",
              "name": "value",
              "type": "uint256[]"
            },
            {
              "internalType": "uint256",
              "name": "queryHash",
              "type": "uint256"
            },
            {
              "internalType": "string",
              "name": "circuitId",
              "type": "string"
            }
          ],
          "internalType": "struct ICircuitValidator.CircuitQuery",
          "name": "",
          "type": "tuple"
        }
      ],
      "stateMutability": "view",
      "type": "function"
    },
    {
      "inputs": [
        {
          "internalType": "uint256",
          "name": "",
          "type": "uint256"
        }
      ],
      "name": "locks",
      "outputs": [
        {
          "internalType": "uint256",
          "name": "claimPeriod",
          "type": "uint256"
        },
        {
          "internalType": "address",
          "name": "sender",
          "type": "address"
        },
        {
          "internalType": "uint64",
          "name": "requiredProof",
          "type": "uint64"
        }
      ],
      "stateMutability": "view",
      "type": "function"
    },
    {
      "inputs": [],
      "name": "owner",
      "outputs": [
        {
          "internalType": "address",
          "name": "",
          "type": "address"
        }
      ],
      "stateMutability": "view",
      "type": "function"
    },
    {
      "inputs": [
        {
          "internalType": "address",
          "name": "caller",
          "type": "address"
        },
        {
          "internalType": "address",
          "name": "owner",
          "type": "address"
        },
        {
          "internalType": "address",
          "name": "",
          "type": "address"
        },
        {
          "internalType": "uint256",
          "name": "",
          "type": "uint256"
        },
        {
          "components": [
            {
              "internalType": "address",
              "name": "currency",
              "type": "address"
            },
            {
              "internalType": "uint256",
              "name": "escrowed",
              "type": "uint256"
            },
            {
              "internalType": "uint256",
              "name": "createdAt",
              "type": "uint256"
            },
            {
              "internalType": "address",
              "name": "module",
              "type": "address"
            }
          ],
          "internalType": "struct DataTypes.Cheq",
          "name": "",
          "type": "tuple"
        },
        {
          "internalType": "bytes",
          "name": "",
          "type": "bytes"
        }
      ],
      "name": "processApproval",
      "outputs": [],
      "stateMutability": "view",
      "type": "function"
    },
    {
      "inputs": [
        {
          "internalType": "address",
          "name": "caller",
          "type": "address"
        },
        {
          "internalType": "address",
          "name": "owner",
          "type": "address"
        },
        {
          "internalType": "address",
          "name": "",
          "type": "address"
        },
        {
          "internalType": "uint256",
          "name": "amount",
          "type": "uint256"
        },
        {
          "internalType": "uint256",
          "name": "cheqId",
          "type": "uint256"
        },
        {
          "components": [
            {
              "internalType": "address",
              "name": "currency",
              "type": "address"
            },
            {
              "internalType": "uint256",
              "name": "escrowed",
              "type": "uint256"
            },
            {
              "internalType": "uint256",
              "name": "createdAt",
              "type": "uint256"
            },
            {
              "internalType": "address",
              "name": "module",
              "type": "address"
            }
          ],
          "internalType": "struct DataTypes.Cheq",
          "name": "cheq",
          "type": "tuple"
        },
        {
          "internalType": "bytes",
          "name": "initData",
          "type": "bytes"
        }
      ],
      "name": "processCash",
      "outputs": [
        {
          "internalType": "uint256",
          "name": "",
          "type": "uint256"
        }
      ],
      "stateMutability": "nonpayable",
      "type": "function"
    },
    {
      "inputs": [
        {
          "internalType": "address",
          "name": "",
          "type": "address"
        },
        {
          "internalType": "address",
          "name": "",
          "type": "address"
        },
        {
          "internalType": "uint256",
          "name": "",
          "type": "uint256"
        },
        {
          "internalType": "uint256",
          "name": "",
          "type": "uint256"
        },
        {
          "internalType": "uint256",
          "name": "",
          "type": "uint256"
        },
        {
          "components": [
            {
              "internalType": "address",
              "name": "currency",
              "type": "address"
            },
            {
              "internalType": "uint256",
              "name": "escrowed",
              "type": "uint256"
            },
            {
              "internalType": "uint256",
              "name": "createdAt",
              "type": "uint256"
            },
            {
              "internalType": "address",
              "name": "module",
              "type": "address"
            }
          ],
          "internalType": "struct DataTypes.Cheq",
          "name": "",
          "type": "tuple"
        },
        {
          "internalType": "bytes",
          "name": "",
          "type": "bytes"
        }
      ],
      "name": "processFund",
      "outputs": [
        {
          "internalType": "uint256",
          "name": "",
          "type": "uint256"
        }
      ],
      "stateMutability": "view",
      "type": "function"
    },
    {
      "inputs": [
        {
          "internalType": "uint256",
          "name": "tokenId",
          "type": "uint256"
        }
      ],
      "name": "processTokenURI",
      "outputs": [
        {
          "internalType": "string",
          "name": "",
          "type": "string"
        }
      ],
      "stateMutability": "view",
      "type": "function"
    },
    {
      "inputs": [
        {
          "internalType": "address",
          "name": "caller",
          "type": "address"
        },
        {
          "internalType": "address",
          "name": "approved",
          "type": "address"
        },
        {
          "internalType": "address",
          "name": "owner",
          "type": "address"
        },
        {
          "internalType": "address",
          "name": "",
          "type": "address"
        },
        {
          "internalType": "address",
          "name": "to",
          "type": "address"
        },
        {
          "internalType": "uint256",
          "name": "cheqId",
          "type": "uint256"
        },
        {
          "internalType": "address",
          "name": "",
          "type": "address"
        },
        {
          "internalType": "uint256",
          "name": "",
          "type": "uint256"
        },
        {
          "internalType": "uint256",
          "name": "",
          "type": "uint256"
        },
        {
          "internalType": "bytes",
          "name": "",
          "type": "bytes"
        }
      ],
      "name": "processTransfer",
      "outputs": [
        {
          "internalType": "uint256",
          "name": "",
          "type": "uint256"
        }
      ],
      "stateMutability": "view",
      "type": "function"
    },
    {
      "inputs": [
        {
          "internalType": "address",
          "name": "caller",
          "type": "address"
        },
        {
          "internalType": "address",
          "name": "",
          "type": "address"
        },
        {
          "internalType": "uint256",
          "name": "cheqId",
          "type": "uint256"
        },
        {
          "internalType": "address",
          "name": "currency",
          "type": "address"
        },
        {
          "internalType": "uint256",
          "name": "escrowed",
          "type": "uint256"
        },
        {
          "internalType": "uint256",
          "name": "",
          "type": "uint256"
        },
        {
          "internalType": "bytes",
          "name": "initData",
          "type": "bytes"
        }
      ],
      "name": "processWrite",
      "outputs": [
        {
          "internalType": "uint256",
          "name": "",
          "type": "uint256"
        }
      ],
      "stateMutability": "nonpayable",
      "type": "function"
    },
    {
      "inputs": [
        {
          "internalType": "address",
          "name": "",
          "type": "address"
        },
        {
          "internalType": "uint64",
          "name": "",
          "type": "uint64"
        }
      ],
      "name": "proofs",
      "outputs": [
        {
          "internalType": "bool",
          "name": "",
          "type": "bool"
        }
      ],
      "stateMutability": "view",
      "type": "function"
    },
    {
      "inputs": [],
      "name": "renounceOwnership",
      "outputs": [],
      "stateMutability": "nonpayable",
      "type": "function"
    },
    {
      "inputs": [
        {
          "internalType": "uint64",
          "name": "",
          "type": "uint64"
        }
      ],
      "name": "requestQueries",
      "outputs": [
        {
          "internalType": "uint256",
          "name": "schema",
          "type": "uint256"
        },
        {
          "internalType": "uint256",
          "name": "claimPathKey",
          "type": "uint256"
        },
        {
          "internalType": "uint256",
          "name": "operator",
          "type": "uint256"
        },
        {
          "internalType": "uint256",
          "name": "queryHash",
          "type": "uint256"
        },
        {
          "internalType": "string",
          "name": "circuitId",
          "type": "string"
        }
      ],
      "stateMutability": "view",
      "type": "function"
    },
    {
      "inputs": [
        {
          "internalType": "uint64",
          "name": "",
          "type": "uint64"
        }
      ],
      "name": "requestValidators",
      "outputs": [
        {
          "internalType": "contract ICircuitValidator",
          "name": "",
          "type": "address"
        }
      ],
      "stateMutability": "view",
      "type": "function"
    },
    {
      "inputs": [
        {
          "internalType": "address",
          "name": "",
          "type": "address"
        },
        {
          "internalType": "address",
          "name": "",
          "type": "address"
        }
      ],
      "name": "revenue",
      "outputs": [
        {
          "internalType": "uint256",
          "name": "",
          "type": "uint256"
        }
      ],
      "stateMutability": "view",
      "type": "function"
    },
    {
      "inputs": [
        {
          "components": [
            {
              "internalType": "uint256",
              "name": "writeBPS",
              "type": "uint256"
            },
            {
              "internalType": "uint256",
              "name": "transferBPS",
              "type": "uint256"
            },
            {
              "internalType": "uint256",
              "name": "fundBPS",
              "type": "uint256"
            },
            {
              "internalType": "uint256",
              "name": "cashBPS",
              "type": "uint256"
            }
          ],
          "internalType": "struct DataTypes.WTFCFees",
          "name": "_fees",
          "type": "tuple"
        }
      ],
      "name": "setFees",
      "outputs": [],
      "stateMutability": "nonpayable",
      "type": "function"
    },
    {
      "inputs": [
        {
          "internalType": "uint64",
          "name": "requestId",
          "type": "uint64"
        },
        {
          "internalType": "contract ICircuitValidator",
          "name": "validator",
          "type": "address"
        },
        {
          "internalType": "uint256",
          "name": "schema",
          "type": "uint256"
        },
        {
          "internalType": "uint256",
          "name": "claimPathKey",
          "type": "uint256"
        },
        {
          "internalType": "uint256",
          "name": "operator",
          "type": "uint256"
        },
        {
          "internalType": "uint256[]",
          "name": "value",
          "type": "uint256[]"
        }
      ],
      "name": "setZKPRequest",
      "outputs": [
        {
          "internalType": "bool",
          "name": "",
          "type": "bool"
        }
      ],
      "stateMutability": "nonpayable",
      "type": "function"
    },
    {
      "inputs": [
        {
          "internalType": "uint64",
          "name": "requestId",
          "type": "uint64"
        },
        {
          "internalType": "contract ICircuitValidator",
          "name": "validator",
          "type": "address"
        },
        {
          "internalType": "uint256",
          "name": "schema",
          "type": "uint256"
        },
        {
          "internalType": "uint256",
          "name": "claimPathKey",
          "type": "uint256"
        },
        {
          "internalType": "uint256",
          "name": "operator",
          "type": "uint256"
        },
        {
          "internalType": "uint256[]",
          "name": "value",
          "type": "uint256[]"
        },
        {
          "internalType": "uint256",
          "name": "queryHash",
          "type": "uint256"
        }
      ],
      "name": "setZKPRequestRaw",
      "outputs": [
        {
          "internalType": "bool",
          "name": "",
          "type": "bool"
        }
      ],
      "stateMutability": "nonpayable",
      "type": "function"
    },
    {
      "inputs": [
        {
          "internalType": "uint64",
          "name": "requestId",
          "type": "uint64"
        },
        {
          "internalType": "uint256[]",
          "name": "inputs",
          "type": "uint256[]"
        },
        {
          "internalType": "uint256[2]",
          "name": "a",
          "type": "uint256[2]"
        },
        {
          "internalType": "uint256[2][2]",
          "name": "b",
          "type": "uint256[2][2]"
        },
        {
          "internalType": "uint256[2]",
          "name": "c",
          "type": "uint256[2]"
        }
      ],
      "name": "submitZKPResponse",
      "outputs": [
        {
          "internalType": "bool",
          "name": "",
          "type": "bool"
        }
      ],
      "stateMutability": "nonpayable",
      "type": "function"
    },
    {
      "inputs": [
        {
          "internalType": "address",
          "name": "newOwner",
          "type": "address"
        }
      ],
      "name": "transferOwnership",
      "outputs": [],
      "stateMutability": "nonpayable",
      "type": "function"
    },
    {
      "inputs": [
        {
          "internalType": "address",
          "name": "token",
          "type": "address"
        }
      ],
      "name": "withdrawFees",
      "outputs": [],
      "stateMutability": "nonpayable",
      "type": "function"
    }
  ],
  "bytecode": {
    "object": "0x60a06040523480156200001157600080fd5b5060405162002ab738038062002ab78339810160408190526200003491620002fb565b82826001600160a01b0382166200005e576040516348be0eb360e01b815260040160405180910390fd5b6001600160a01b03821660805280516127101015620000905760405163cd4e616760e01b815260040160405180910390fd5b80602001516127101015620000b85760405163cd4e616760e01b815260040160405180910390fd5b80604001516127101015620000e05760405163cd4e616760e01b815260040160405180910390fd5b80606001516127101015620001085760405163cd4e616760e01b815260040160405180910390fd5b336000908152600160208181526040928390208451815590840151918101919091558183015160028201556060830151600390910155516001600160a01b038316907ff1a1fa6b64aa95186f5a1285e76198d0da80d9c5a88062641d447f1d7c54e56c906200017a9042815260200190565b60405180910390a25062000190905033620001a8565b60026200019e828262000433565b50505050620004ff565b600380546001600160a01b038381166001600160a01b0319831681179093556040519116919082907f8be0079c531659141344cd1fd0a4f28419497f9722a3daafe3b4186f6b6457e090600090a35050565b634e487b7160e01b600052604160045260246000fd5b604051608081016001600160401b0381118282101715620002355762000235620001fa565b60405290565b604051601f8201601f191681016001600160401b0381118282101715620002665762000266620001fa565b604052919050565b600082601f8301126200028057600080fd5b81516001600160401b038111156200029c576200029c620001fa565b6020620002b2601f8301601f191682016200023b565b8281528582848701011115620002c757600080fd5b60005b83811015620002e7578581018301518282018401528201620002ca565b506000928101909101919091529392505050565b600080600083850360c08112156200031257600080fd5b84516001600160a01b03811681146200032a57600080fd5b93506080601f19820112156200033f57600080fd5b506200034a62000210565b602085015181526040850151602082015260608501516040820152608085015160608201528092505060a084015160018060401b038111156200038c57600080fd5b6200039a868287016200026e565b9150509250925092565b600181811c90821680620003b957607f821691505b602082108103620003da57634e487b7160e01b600052602260045260246000fd5b50919050565b601f8211156200042e57600081815260208120601f850160051c81016020861015620004095750805b601f850160051c820191505b818110156200042a5782815560010162000415565b5050505b505050565b81516001600160401b038111156200044f576200044f620001fa565b6200046781620004608454620003a4565b84620003e0565b602080601f8311600181146200049f5760008415620004865750858301515b600019600386901b1c1916600185901b1785556200042a565b600085815260208120601f198616915b82811015620004d057888601518255948401946001909101908401620004af565b5085821015620004ef5787850151600019600388901b60f8161c191681555b5050505050600190811b01905550565b60805161257262000545600039600081816104030152818161050d0152818161073701528181610da0015281816111d40152818161126701526114ae01526125726000f3fe608060405234801561001057600080fd5b50600436106101735760003560e01c8063a8723114116100de578063c0c9572c11610097578063e417596811610071578063e417596814610425578063f2fde38b14610438578063f4dadc611461044b578063fd77c960146104b957600080fd5b8063c0c9572c146103cb578063c76d0845146103de578063cb609077146103fe57600080fd5b8063a872311414610333578063b45c0fdf1461035c578063b4e87e8f1461038a578063b5d701ba14610392578063b68967e2146103a5578063be2f3fdd146103b857600080fd5b80638da5cb5b116101305780638da5cb5b1461024657806396bf47411461026b5780639a0ea37a1461028f5780639abdc645146102b75780639af608c9146102da5780639e621bcf1461032057600080fd5b806306890cd0146101785780631385a7b61461019e578063164e68de146101f457806337ba9523146102095780634fe17e1a1461021e578063715018a61461023e575b600080fd5b61018b61018636600461190d565b610500565b6040519081526020015b60405180910390f35b6101d46101ac3660046119ae565b6001602081905260009182526040909120805491810154600282015460039092015490919084565b604080519485526020850193909352918301526060820152608001610195565b6102076102023660046119ae565b6106a4565b005b6102116107d4565b60405161019591906119d2565b61023161022c366004611a1f565b61085e565b6040516101959190611a88565b6102076108b5565b6003546001600160a01b03165b6040516001600160a01b039091168152602001610195565b61027e610279366004611ab2565b6108c9565b604051610195959493929190611acd565b61018b61029d366004611b03565b600060208181529281526040808220909352908152205481565b6102ca6102c5366004611b80565b610982565b6040519015158152602001610195565b6102ed6102e83660046119ae565b610ad3565b60405161019591908151815260208083015190820152604080830151908201526060918201519181019190915260800190565b6102ca61032e366004611c03565b610b4b565b610253610341366004611ab2565b6006602052600090815260409020546001600160a01b031681565b6102ca61036a366004611c8d565b600460209081526000928352604080842090915290825290205460ff1681565b610231610d05565b61018b6103a0366004611cc2565b610d93565b6102ca6103b3366004611d4a565b610ef7565b61018b6103c6366004611dd9565b6111c7565b61018b6103d9366004611ef8565b61125a565b6103f16103ec366004611ab2565b611335565b6040516101959190611fc1565b6102537f000000000000000000000000000000000000000000000000000000000000000081565b610207610433366004612050565b6114a3565b6102076104463660046119ae565b611546565b61048d610459366004611a1f565b600860205260009081526040902080546001909101546001600160a01b03811690600160a01b90046001600160401b031683565b604080519384526001600160a01b0390921660208401526001600160401b031690820152606001610195565b6102076104c73660046120d3565b33600090815260016020818152604092839020845181559084015191810191909155908201516002820155606090910151600390910155565b6000336001600160a01b037f0000000000000000000000000000000000000000000000000000000000000000161461054b57604051632ad9535160e01b815260040160405180910390fd5b836020013586146105955760405162461bcd60e51b815260206004820152600f60248201526e09aeae6e840ccead8d8f240c6c2e6d608b1b60448201526064015b60405180910390fd5b876001600160a01b0316896001600160a01b0316036105bd576105b888866115bf565b610673565b6000858152600860205260409020600101546001600160a01b03908116908a16036106425760008581526008602052604090819020544291610602919087013561214e565b10156105b85760405162461bcd60e51b815260206004820152600f60248201526e139bdd08195e1c1a5c9959081e595d608a1b604482015260640161058c565b60405162461bcd60e51b815260206004820152600660248201526511985a5b195960d21b604482015260640161058c565b61069761068360208601866119ae565b87610690858701876119ae565b6003611642565b9998505050505050505050565b336000908152602081815260408083206001600160a01b03851684529091529020546001811161070d5760405162461bcd60e51b8152602060048201526014602482015273496e73756666696369656e7420726576656e756560601b604482015260640161058c565b336000908152602081815260408083206001600160a01b03868116855292529091206001908190557f00000000000000000000000000000000000000000000000000000000000000009091169063d6a4f84c90849061076c9085612161565b6040516001600160e01b031960e085901b1681526001600160a01b0390921660048301526024820152336044820152606401600060405180830381600087803b1580156107b857600080fd5b505af11580156107cc573d6000803e3d6000fd5b505050505050565b6060600780548060200260200160405190810160405280929190818152602001828054801561085457602002820191906000526020600020906000905b82829054906101000a90046001600160401b03166001600160401b0316815260200190600801906020826007010492830192600103820291508084116108115790505b5050505050905090565b606060006002805461086f90612174565b90501161088b57604051806020016040528060008152506108af565b60028260405160200161089f9291906121a8565b6040516020818303038152906040525b92915050565b6108bd611777565b6108c760006117d1565b565b6005602081905260009182526040909120805460018201546002830154600484015494840180549395929491936108ff90612174565b80601f016020809104026020016040519081016040528092919081815260200182805461092b90612174565b80156109785780601f1061094d57610100808354040283529160200191610978565b820191906000526020600020905b81548152906001019060200180831161095b57829003601f168201915b5050505050905085565b600061098c611777565b6040516340ec6e4960e01b815260009073__$1ee90c09731eb8edeb084cfcbbf4d022d7$__906340ec6e49906109c89087908790600401612255565b602060405180830381865af41580156109e5573d6000803e3d6000fd5b505050506040513d601f19601f82011682018060405250810190610a099190612271565b9050600073__$bd4220928f4632a53a9f39093d9a2b92d7$__63f5b4a7886040518060c001604052808b8152602001600081526020018981526020018a815260200160008152602001858152506040518263ffffffff1660e01b8152600401610a72919061228a565b602060405180830381865af4158015610a8f573d6000803e3d6000fd5b505050506040513d601f19601f82011682018060405250810190610ab39190612271565b9050610ac58a8a8a8a8a8a8a88610b4b565b9a9950505050505050505050565b610afe6040518060800160405280600081526020016000815260200160008152602001600081525090565b506001600160a01b03166000908152600160208181526040928390208351608081018552815481529281015491830191909152600281015492820192909252600390910154606082015290565b6000610b55611777565b6001600160401b0389166000908152600660205260409020546001600160a01b0316610bd957600780546001810182556000919091527fa66cc928b5edb82af9bd49922954155ab7b0942694bea4ce44661d9a8736c6886004820401805460039092166008026101000a6001600160401b0381810219909316928c16029190911790555b6001600160401b038916600090815260056020526040808220600480820186905560029091018890558151632cd1575560e11b815291516001600160a01b038c16936359a2aeaa9380840193919291908290030181865afa158015610c42573d6000803e3d6000fd5b505050506040513d6000823e601f3d908101601f19168201604052610c6a91908101906122bb565b6001600160401b038a1660009081526005602081905260409091200190610c919082612377565b506001600160401b038916600090815260056020526040902060018101879055878155610cc2906003018585611828565b50506001600160401b038816600090815260066020526040902080546001600160a01b0389166001600160a01b0319909116179055600198975050505050505050565b60028054610d1290612174565b80601f0160208091040260200160405190810160405280929190818152602001828054610d3e90612174565b8015610d8b5780601f10610d6057610100808354040283529160200191610d8b565b820191906000526020600020905b815481529060010190602001808311610d6e57829003601f168201915b505050505081565b6000336001600160a01b037f00000000000000000000000000000000000000000000000000000000000000001614610dde57604051632ad9535160e01b815260040160405180910390fd5b60008080610dee85870187612436565b92509250925082600860008c815260200190815260200160002060010160146101000a8154816001600160401b0302191690836001600160401b0316021790555081600860008c8152602001908152602001600020600001819055508b600860008c815260200190815260200160002060010160006101000a8154816001600160a01b0302191690836001600160a01b031602179055507f124ef1ceee3977c0ed279977f26d8e0db6ed852ac07dc2ee992d7b7d5c4b6f768a8385604051610ed29392919092835260208301919091526001600160401b0316604082015260600190565b60405180910390a1610ee78989836000611642565b9c9b505050505050505050505050565b6001600160401b0386166000908152600660205260408120546001600160a01b0316610f765760405162461bcd60e51b815260206004820152602860248201527f76616c696461746f72206973206e6f742073657420666f7220746869732072656044820152671c5d595cdd081a5960c21b606482015260840161058c565b6001600160401b0387166000908152600560205260408120600401549003610fec5760405162461bcd60e51b8152602060048201526024808201527f7175657279206973206e6f742073657420666f722074686973207265717565736044820152631d081a5960e21b606482015260840161058c565b6110488787878080602002602001604051908101604052809392919081815260200183836020028082843760009201829052506001600160401b038e168152600660205260409020546001600160a01b03169250611823915050565b6001600160401b038716600090815260066020908152604080832054600590925291829020600490810154925163434661ef60e01b81526001600160a01b039092169263434661ef926110a7928b928b928b928b928b92909101612476565b602060405180830381865afa1580156110c4573d6000803e3d6000fd5b505050506040513d601f19601f820116820180604052508101906110e891906124d9565b6111345760405162461bcd60e51b815260206004820152601b60248201527f70726f6f6620726573706f6e7365206973206e6f742076616c69640000000000604482015260640161058c565b3360009081526004602090815260408083206001600160401b038b168452825291829020805460ff19166001179055815187820281810183019093528781526111ba928a928a918a9182919085019084908082843760009201829052506001600160401b038e168152600660205260409020546001600160a01b03169250611823915050565b5060019695505050505050565b6000336001600160a01b037f0000000000000000000000000000000000000000000000000000000000000000161461121257604051632ad9535160e01b815260040160405180910390fd5b60405162461bcd60e51b815260206004820152601860248201527f4f6e6c792073656e64696e6720616e642063617368696e670000000000000000604482015260640161058c565b6000336001600160a01b037f000000000000000000000000000000000000000000000000000000000000000016146112a557604051632ad9535160e01b815260040160405180910390fd5b886001600160a01b03168b6001600160a01b031614806112d65750896001600160a01b03168b6001600160a01b0316145b61131a5760405162461bcd60e51b8152602060048201526015602482015274139bdd081bdddb995c881bdc88185c1c1c9bdd9959605a1b604482015260640161058c565b61132487876115bf565b5060009a9950505050505050505050565b61136e6040518060c001604052806000815260200160008152602001600081526020016060815260200160008152602001606081525090565b6001600160401b038216600090815260056020908152604091829020825160c0810184528154815260018201548184015260028201548185015260038201805485518186028101860190965280865291949293606086019392908301828280156113f757602002820191906000526020600020905b8154815260200190600101908083116113e3575b505050505081526020016004820154815260200160058201805461141a90612174565b80601f016020809104026020016040519081016040528092919081815260200182805461144690612174565b80156114935780601f1061146857610100808354040283529160200191611493565b820191906000526020600020905b81548152906001019060200180831161147657829003601f168201915b5050505050815250509050919050565b336001600160a01b037f000000000000000000000000000000000000000000000000000000000000000016146114ec57604051632ad9535160e01b815260040160405180910390fd5b846001600160a01b0316866001600160a01b0316146107cc5760405162461bcd60e51b81526020600482015260166024820152754f6e6c79206f776e65722063616e20617070726f766560501b604482015260640161058c565b61154e611777565b6001600160a01b0381166115b35760405162461bcd60e51b815260206004820152602660248201527f4f776e61626c653a206e6577206f776e657220697320746865207a65726f206160448201526564647265737360d01b606482015260840161058c565b6115bc816117d1565b50565b6001600160a01b03821660009081526004602090815260408083208484526008835281842060010154600160a01b90046001600160401b0316845290915290205460ff1661163e5760405162461bcd60e51b815260206004820152600c60248201526b141c9bdbd98819985a5b195960a21b604482015260640161058c565b5050565b60008160ff1660000361166e57506001600160a01b038216600090815260016020526040902054611718565b8160ff1660010361169c57506001600160a01b03821660009081526001602081905260409091200154611718565b8160ff166002036116c957506001600160a01b038216600090815260016020526040902060020154611718565b8160ff166003036116f657506001600160a01b038216600090815260016020526040902060030154611718565b60405162461bcd60e51b8152602060048201526000602482015260440161058c565b61271061172582866124fb565b61172f919061251a565b6001600160a01b03808516600090815260208181526040808320938a1683529290529081208054929350839290919061176990849061214e565b909155509095945050505050565b6003546001600160a01b031633146108c75760405162461bcd60e51b815260206004820181905260248201527f4f776e61626c653a2063616c6c6572206973206e6f7420746865206f776e6572604482015260640161058c565b600380546001600160a01b038381166001600160a01b0319831681179093556040519116919082907f8be0079c531659141344cd1fd0a4f28419497f9722a3daafe3b4186f6b6457e090600090a35050565b505050565b828054828255906000526020600020908101928215611863579160200282015b82811115611863578235825591602001919060010190611848565b5061186f929150611873565b5090565b5b8082111561186f5760008155600101611874565b6001600160a01b03811681146115bc57600080fd5b80356118a881611888565b919050565b6000608082840312156118bf57600080fd5b50919050565b60008083601f8401126118d757600080fd5b5081356001600160401b038111156118ee57600080fd5b60208301915083602082850101111561190657600080fd5b9250929050565b600080600080600080600080610140898b03121561192a57600080fd5b883561193581611888565b9750602089013561194581611888565b9650604089013561195581611888565b955060608901359450608089013593506119728a60a08b016118ad565b92506101208901356001600160401b0381111561198e57600080fd5b61199a8b828c016118c5565b999c989b5096995094979396929594505050565b6000602082840312156119c057600080fd5b81356119cb81611888565b9392505050565b6020808252825182820181905260009190848201906040850190845b81811015611a135783516001600160401b0316835292840192918401916001016119ee565b50909695505050505050565b600060208284031215611a3157600080fd5b5035919050565b60005b83811015611a53578181015183820152602001611a3b565b50506000910152565b60008151808452611a74816020860160208601611a38565b601f01601f19169290920160200192915050565b6020815260006119cb6020830184611a5c565b80356001600160401b03811681146118a857600080fd5b600060208284031215611ac457600080fd5b6119cb82611a9b565b85815284602082015283604082015282606082015260a060808201526000611af860a0830184611a5c565b979650505050505050565b60008060408385031215611b1657600080fd5b8235611b2181611888565b91506020830135611b3181611888565b809150509250929050565b60008083601f840112611b4e57600080fd5b5081356001600160401b03811115611b6557600080fd5b6020830191508360208260051b850101111561190657600080fd5b600080600080600080600060c0888a031215611b9b57600080fd5b611ba488611a9b565b96506020880135611bb481611888565b955060408801359450606088013593506080880135925060a08801356001600160401b03811115611be457600080fd5b611bf08a828b01611b3c565b989b979a50959850939692959293505050565b60008060008060008060008060e0898b031215611c1f57600080fd5b611c2889611a9b565b97506020890135611c3881611888565b965060408901359550606089013594506080890135935060a08901356001600160401b03811115611c6857600080fd5b611c748b828c01611b3c565b999c989b50969995989497949560c00135949350505050565b60008060408385031215611ca057600080fd5b8235611cab81611888565b9150611cb960208401611a9b565b90509250929050565b60008060008060008060008060e0898b031215611cde57600080fd5b8835611ce981611888565b97506020890135611cf981611888565b9650604089013595506060890135611d1081611888565b94506080890135935060a0890135925060c08901356001600160401b0381111561198e57600080fd5b80604081018310156108af57600080fd5b6000806000806000806101408789031215611d6457600080fd5b611d6d87611a9b565b955060208701356001600160401b03811115611d8857600080fd5b611d9489828a01611b3c565b9096509450611da890508860408901611d39565b9250610100870188811115611dbc57600080fd5b608088019250611dcc8982611d39565b9150509295509295509295565b600080600080600080600080610140898b031215611df657600080fd5b8835611e0181611888565b97506020890135611e1181611888565b96506040890135955060608901359450608089013593506119728a60a08b016118ad565b634e487b7160e01b600052604160045260246000fd5b604051601f8201601f191681016001600160401b0381118282101715611e7357611e73611e35565b604052919050565b60006001600160401b03821115611e9457611e94611e35565b50601f01601f191660200190565b600082601f830112611eb357600080fd5b8135611ec6611ec182611e7b565b611e4b565b818152846020838601011115611edb57600080fd5b816020850160208301376000918101602001919091529392505050565b6000806000806000806000806000806101408b8d031215611f1857600080fd5b8a35611f2381611888565b995060208b0135611f3381611888565b985060408b0135611f4381611888565b975060608b0135611f5381611888565b965060808b0135611f6381611888565b955060a08b01359450611f7860c08c0161189d565b935060e08b013592506101008b013591506101208b01356001600160401b03811115611fa357600080fd5b611faf8d828e01611ea2565b9150509295989b9194979a5092959850565b6000602080835260e0830184518285015281850151604085015260408501516060850152606085015160c06080860152818151808452610100870191508483019350600092505b808310156120285783518252928401926001929092019190840190612008565b50608087015160a087015260a08701519350601f198682030160c0870152611af88185611a5c565b600080600080600080610120878903121561206a57600080fd5b863561207581611888565b9550602087013561208581611888565b9450604087013561209581611888565b9350606087013592506120ab88608089016118ad565b91506101008701356001600160401b038111156120c757600080fd5b611dcc89828a01611ea2565b6000608082840312156120e557600080fd5b604051608081018181106001600160401b038211171561210757612107611e35565b8060405250823581526020830135602082015260408301356040820152606083013560608201528091505092915050565b634e487b7160e01b600052601160045260246000fd5b808201808211156108af576108af612138565b818103818111156108af576108af612138565b600181811c9082168061218857607f821691505b6020821081036118bf57634e487b7160e01b600052602260045260246000fd5b60008084546121b681612174565b600182811680156121ce57600181146121e357612212565b60ff1984168752821515830287019450612212565b8860005260208060002060005b858110156122095781548a8201529084019082016121f0565b50505082870194505b505050938152602001949350505050565b81835260006001600160fb1b0383111561223c57600080fd5b8260051b80836020870137939093016020019392505050565b602081526000612269602083018486612223565b949350505050565b60006020828403121561228357600080fd5b5051919050565b60c08101818360005b60068110156122b2578151835260209283019290910190600101612293565b50505092915050565b6000602082840312156122cd57600080fd5b81516001600160401b038111156122e357600080fd5b8201601f810184136122f457600080fd5b8051612302611ec182611e7b565b81815285602083850101111561231757600080fd5b612328826020830160208601611a38565b95945050505050565b601f82111561182357600081815260208120601f850160051c810160208610156123585750805b601f850160051c820191505b818110156107cc57828155600101612364565b81516001600160401b0381111561239057612390611e35565b6123a48161239e8454612174565b84612331565b602080601f8311600181146123d957600084156123c15750858301515b600019600386901b1c1916600185901b1785556107cc565b600085815260208120601f198616915b82811015612408578886015182559484019460019091019084016123e9565b50858210156124265787850151600019600388901b60f8161c191681555b5050505050600190811b01905550565b60008060006060848603121561244b57600080fd5b61245484611a9b565b925060208401359150604084013561246b81611888565b809150509250925092565b600061014080835261248b818401898b612223565b915050604080876020850137606083018660005b60028110156124bc5783828437918301919083019060010161249f565b505050808560e08501375082610120830152979650505050505050565b6000602082840312156124eb57600080fd5b815180151581146119cb57600080fd5b600081600019048311821515161561251557612515612138565b500290565b60008261253757634e487b7160e01b600052601260045260246000fd5b50049056fea2646970667358221220236420d4d7d36a9ef4252c9e4e1a92670148bc8e3b422fb2853544797e1b432c64736f6c63430008100033",
    "linkReferences": {
      "src/modules/bounties/ClaimWithID.sol": {
        "PoseidonUnit6L": [
          {
            "start": 3924,
            "length": 20
          }
        ],
        "SpongePoseidon": [
          {
            "start": 3811,
            "length": 20
          }
        ]
      }
    }
  },
  "methodIdentifiers": {
    "REGISTRAR()": "cb609077",
    "_URI()": "b4e87e8f",
    "dappOperatorFees(address)": "1385a7b6",
    "getFees(address)": "9af608c9",
    "getSupportedRequests()": "37ba9523",
    "getZKPRequest(uint64)": "c76d0845",
    "locks(uint256)": "f4dadc61",
    "owner()": "8da5cb5b",
    "processApproval(address,address,address,uint256,(address,uint256,uint256,address),bytes)": "e4175968",
    "processCash(address,address,address,uint256,uint256,(address,uint256,uint256,address),bytes)": "06890cd0",
    "processFund(address,address,uint256,uint256,uint256,(address,uint256,uint256,address),bytes)": "be2f3fdd",
    "processTokenURI(uint256)": "4fe17e1a",
    "processTransfer(address,address,address,address,address,uint256,address,uint256,uint256,bytes)": "c0c9572c",
    "processWrite(address,address,uint256,address,uint256,uint256,bytes)": "b5d701ba",
    "proofs(address,uint64)": "b45c0fdf",
    "renounceOwnership()": "715018a6",
    "requestQueries(uint64)": "96bf4741",
    "requestValidators(uint64)": "a8723114",
    "revenue(address,address)": "9a0ea37a",
    "setFees((uint256,uint256,uint256,uint256))": "fd77c960",
    "setZKPRequest(uint64,address,uint256,uint256,uint256,uint256[])": "9abdc645",
    "setZKPRequestRaw(uint64,address,uint256,uint256,uint256,uint256[],uint256)": "9e621bcf",
    "submitZKPResponse(uint64,uint256[],uint256[2],uint256[2][2],uint256[2])": "b68967e2",
    "transferOwnership(address)": "f2fde38b",
    "withdrawFees(address)": "164e68de"
  },
  "id": 46
}