{
  "abi": [
    {
      "inputs": [
        {
          "internalType": "address",
          "name": "registrar",
          "type": "address"
        },
        {
          "components": [
            {
              "internalType": "uint256",
              "name": "writeBPS",
              "type": "uint256"
            },
            {
              "internalType": "uint256",
              "name": "transferBPS",
              "type": "uint256"
            },
            {
              "internalType": "uint256",
              "name": "fundBPS",
              "type": "uint256"
            },
            {
              "internalType": "uint256",
              "name": "cashBPS",
              "type": "uint256"
            }
          ],
          "internalType": "struct DataTypes.WTFCFees",
          "name": "_fees",
          "type": "tuple"
        },
        {
          "internalType": "string",
          "name": "__baseURI",
          "type": "string"
        }
      ],
      "stateMutability": "nonpayable",
      "type": "constructor"
    },
    {
      "inputs": [],
      "name": "InitParamsInvalid",
      "type": "error"
    },
    {
      "inputs": [],
      "name": "NotRegistrar",
      "type": "error"
    },
    {
      "anonymous": false,
      "inputs": [
        {
          "indexed": false,
          "internalType": "uint256",
          "name": "cheqId",
          "type": "uint256"
        },
        {
          "indexed": false,
          "internalType": "uint256",
          "name": "_releaseDate",
          "type": "uint256"
        }
      ],
      "name": "Timelock",
      "type": "event"
    },
    {
      "inputs": [],
      "name": "REGISTRAR",
      "outputs": [
        {
          "internalType": "address",
          "name": "",
          "type": "address"
        }
      ],
      "stateMutability": "view",
      "type": "function"
    },
    {
      "inputs": [],
      "name": "_URI",
      "outputs": [
        {
          "internalType": "string",
          "name": "",
          "type": "string"
        }
      ],
      "stateMutability": "view",
      "type": "function"
    },
    {
      "inputs": [],
      "name": "fees",
      "outputs": [
        {
          "internalType": "uint256",
          "name": "writeBPS",
          "type": "uint256"
        },
        {
          "internalType": "uint256",
          "name": "transferBPS",
          "type": "uint256"
        },
        {
          "internalType": "uint256",
          "name": "fundBPS",
          "type": "uint256"
        },
        {
          "internalType": "uint256",
          "name": "cashBPS",
          "type": "uint256"
        }
      ],
      "stateMutability": "view",
      "type": "function"
    },
    {
      "inputs": [],
      "name": "getFees",
      "outputs": [
        {
          "internalType": "uint256",
          "name": "",
          "type": "uint256"
        },
        {
          "internalType": "uint256",
          "name": "",
          "type": "uint256"
        },
        {
          "internalType": "uint256",
          "name": "",
          "type": "uint256"
        },
        {
          "internalType": "uint256",
          "name": "",
          "type": "uint256"
        }
      ],
      "stateMutability": "view",
      "type": "function"
    },
    {
      "inputs": [
        {
          "internalType": "address",
          "name": "caller",
          "type": "address"
        },
        {
          "internalType": "address",
          "name": "owner",
          "type": "address"
        },
        {
          "internalType": "address",
          "name": "",
          "type": "address"
        },
        {
          "internalType": "uint256",
          "name": "",
          "type": "uint256"
        },
        {
          "components": [
            {
              "internalType": "address",
              "name": "currency",
              "type": "address"
            },
            {
              "internalType": "uint256",
              "name": "escrowed",
              "type": "uint256"
            },
            {
              "internalType": "uint256",
              "name": "createdAt",
              "type": "uint256"
            },
            {
              "internalType": "address",
              "name": "module",
              "type": "address"
            }
          ],
          "internalType": "struct DataTypes.Cheq",
          "name": "",
          "type": "tuple"
        },
        {
          "internalType": "bytes",
          "name": "",
          "type": "bytes"
        }
      ],
      "name": "processApproval",
      "outputs": [],
      "stateMutability": "view",
      "type": "function"
    },
    {
      "inputs": [
        {
          "internalType": "address",
          "name": "",
          "type": "address"
        },
        {
          "internalType": "address",
          "name": "owner",
          "type": "address"
        },
        {
          "internalType": "address",
          "name": "to",
          "type": "address"
        },
        {
          "internalType": "uint256",
          "name": "amount",
          "type": "uint256"
        },
        {
          "internalType": "uint256",
          "name": "cheqId",
          "type": "uint256"
        },
        {
          "components": [
            {
              "internalType": "address",
              "name": "currency",
              "type": "address"
            },
            {
              "internalType": "uint256",
              "name": "escrowed",
              "type": "uint256"
            },
            {
              "internalType": "uint256",
              "name": "createdAt",
              "type": "uint256"
            },
            {
              "internalType": "address",
              "name": "module",
              "type": "address"
            }
          ],
          "internalType": "struct DataTypes.Cheq",
          "name": "cheq",
          "type": "tuple"
        },
        {
          "internalType": "bytes",
          "name": "initData",
          "type": "bytes"
        }
      ],
      "name": "processCash",
      "outputs": [
        {
          "internalType": "uint256",
          "name": "",
          "type": "uint256"
        }
      ],
      "stateMutability": "nonpayable",
      "type": "function"
    },
    {
      "inputs": [
        {
          "internalType": "address",
          "name": "",
          "type": "address"
        },
        {
          "internalType": "address",
          "name": "",
          "type": "address"
        },
        {
          "internalType": "uint256",
          "name": "",
          "type": "uint256"
        },
        {
          "internalType": "uint256",
          "name": "",
          "type": "uint256"
        },
        {
          "internalType": "uint256",
          "name": "",
          "type": "uint256"
        },
        {
          "components": [
            {
              "internalType": "address",
              "name": "currency",
              "type": "address"
            },
            {
              "internalType": "uint256",
              "name": "escrowed",
              "type": "uint256"
            },
            {
              "internalType": "uint256",
              "name": "createdAt",
              "type": "uint256"
            },
            {
              "internalType": "address",
              "name": "module",
              "type": "address"
            }
          ],
          "internalType": "struct DataTypes.Cheq",
          "name": "",
          "type": "tuple"
        },
        {
          "internalType": "bytes",
          "name": "",
          "type": "bytes"
        }
      ],
      "name": "processFund",
      "outputs": [
        {
          "internalType": "uint256",
          "name": "",
          "type": "uint256"
        }
      ],
      "stateMutability": "view",
      "type": "function"
    },
    {
      "inputs": [
        {
          "internalType": "uint256",
          "name": "tokenId",
          "type": "uint256"
        }
      ],
      "name": "processTokenURI",
      "outputs": [
        {
          "internalType": "string",
          "name": "",
          "type": "string"
        }
      ],
      "stateMutability": "view",
      "type": "function"
    },
    {
      "inputs": [
        {
          "internalType": "address",
          "name": "caller",
          "type": "address"
        },
        {
          "internalType": "address",
          "name": "approved",
          "type": "address"
        },
        {
          "internalType": "address",
          "name": "owner",
          "type": "address"
        },
        {
          "internalType": "address",
          "name": "",
          "type": "address"
        },
        {
          "internalType": "address",
          "name": "",
          "type": "address"
        },
        {
          "internalType": "uint256",
          "name": "",
          "type": "uint256"
        },
        {
          "internalType": "address",
          "name": "",
          "type": "address"
        },
        {
          "internalType": "uint256",
          "name": "",
          "type": "uint256"
        },
        {
          "internalType": "uint256",
          "name": "",
          "type": "uint256"
        },
        {
          "internalType": "bytes",
          "name": "",
          "type": "bytes"
        }
      ],
      "name": "processTransfer",
      "outputs": [
        {
          "internalType": "uint256",
          "name": "",
          "type": "uint256"
        }
      ],
      "stateMutability": "view",
      "type": "function"
    },
    {
      "inputs": [
        {
          "internalType": "address",
          "name": "",
          "type": "address"
        },
        {
          "internalType": "address",
          "name": "",
          "type": "address"
        },
        {
          "internalType": "uint256",
          "name": "cheqId",
          "type": "uint256"
        },
        {
          "internalType": "address",
          "name": "currency",
          "type": "address"
        },
        {
          "internalType": "uint256",
          "name": "escrowed",
          "type": "uint256"
        },
        {
          "internalType": "uint256",
          "name": "instant",
          "type": "uint256"
        },
        {
          "internalType": "bytes",
          "name": "initData",
          "type": "bytes"
        }
      ],
      "name": "processWrite",
      "outputs": [
        {
          "internalType": "uint256",
          "name": "",
          "type": "uint256"
        }
      ],
      "stateMutability": "nonpayable",
      "type": "function"
    },
    {
      "inputs": [
        {
          "internalType": "uint256",
          "name": "",
          "type": "uint256"
        }
      ],
      "name": "releaseDate",
      "outputs": [
        {
          "internalType": "uint256",
          "name": "",
          "type": "uint256"
        }
      ],
      "stateMutability": "view",
      "type": "function"
    },
    {
      "inputs": [
        {
          "internalType": "address",
          "name": "",
          "type": "address"
        },
        {
          "internalType": "address",
          "name": "",
          "type": "address"
        }
      ],
      "name": "revenue",
      "outputs": [
        {
          "internalType": "uint256",
          "name": "",
          "type": "uint256"
        }
      ],
      "stateMutability": "view",
      "type": "function"
    },
    {
      "inputs": [
        {
          "internalType": "address",
          "name": "token",
          "type": "address"
        }
      ],
      "name": "withdrawFees",
      "outputs": [],
      "stateMutability": "nonpayable",
      "type": "function"
    }
  ],
  "bytecode": {
    "object": "0x60a06040523480156200001157600080fd5b506040516200151b3803806200151b8339810160408190526200003491620002f9565b82826001600160a01b0382166200005e576040516348be0eb360e01b815260040160405180910390fd5b6001600160a01b038216608052805161271011620000b25760405162461bcd60e51b81526020600482015260146024820152600080516020620014fb83398151915260448201526064015b60405180910390fd5b612710816020015110620000f85760405162461bcd60e51b81526020600482015260146024820152600080516020620014fb8339815191526044820152606401620000a9565b6127108160400151106200013e5760405162461bcd60e51b81526020600482015260146024820152600080516020620014fb8339815191526044820152606401620000a9565b612710816060015110620001845760405162461bcd60e51b81526020600482015260146024820152600080516020620014fb8339815191526044820152606401620000a9565b80516001556020808201516002556040808301516003556060830151600455514281526001600160a01b038416917ff1a1fa6b64aa95186f5a1285e76198d0da80d9c5a88062641d447f1d7c54e56c910160405180910390a25060059050620001ee828262000431565b50505050620004fd565b634e487b7160e01b600052604160045260246000fd5b604051608081016001600160401b0381118282101715620002335762000233620001f8565b60405290565b604051601f8201601f191681016001600160401b0381118282101715620002645762000264620001f8565b604052919050565b600082601f8301126200027e57600080fd5b81516001600160401b038111156200029a576200029a620001f8565b6020620002b0601f8301601f1916820162000239565b8281528582848701011115620002c557600080fd5b60005b83811015620002e5578581018301518282018401528201620002c8565b506000928101909101919091529392505050565b600080600083850360c08112156200031057600080fd5b84516001600160a01b03811681146200032857600080fd5b93506080601f19820112156200033d57600080fd5b50620003486200020e565b602085015181526040850151602082015260608501516040820152608085015160608201528092505060a084015160018060401b038111156200038a57600080fd5b62000398868287016200026c565b9150509250925092565b600181811c90821680620003b757607f821691505b602082108103620003d857634e487b7160e01b600052602260045260246000fd5b50919050565b601f8211156200042c57600081815260208120601f850160051c81016020861015620004075750805b601f850160051c820191505b81811015620004285782815560010162000413565b5050505b505050565b81516001600160401b038111156200044d576200044d620001f8565b62000465816200045e8454620003a2565b84620003de565b602080601f8311600181146200049d5760008415620004845750858301515b600019600386901b1c1916600185901b17855562000428565b600085815260208120601f198616915b82811015620004ce57888601518255948401946001909101908401620004ad565b5085821015620004ed5787850151600019600388901b60f8161c191681555b5050505050600190811b01905550565b608051610fb862000543600039600081816101f30152818161025e01528181610450015281816105df015281816106ea0152818161077d015261084c0152610fb86000f3fe608060405234801561001057600080fd5b50600436106100cf5760003560e01c8063b4e87e8f1161008c578063c0c9572c11610066578063c0c9572c146101db578063cb609077146101ee578063db8d55f11461022d578063e41759681461023e57600080fd5b8063b4e87e8f146101ad578063b5d701ba146101b5578063be2f3fdd146101c857600080fd5b806306890cd0146100d4578063164e68de146100fa5780634eaad1ee1461010f5780634fe17e1a1461012f5780639a0ea37a1461014f5780639af1d35a14610177575b600080fd5b6100e76100e23660046109d2565b610251565b6040519081526020015b60405180910390f35b61010d610108366004610a74565b6103bd565b005b6100e761011d366004610a98565b60066020526000908152604090205481565b61014261013d366004610a98565b6104ed565b6040516100f19190610ab1565b6100e761015d366004610aff565b600060208181529281526040808220909352908152205481565b60015460025460035460045461018d9392919084565b6040805194855260208501939093529183015260608201526080016100f1565b610142610544565b6100e76101c3366004610b38565b6105d2565b6100e76101d6366004610bb0565b6106dd565b6100e76101e9366004610caf565b610770565b6102157f000000000000000000000000000000000000000000000000000000000000000081565b6040516001600160a01b0390911681526020016100f1565b60015460025460035460045461018d565b61010d61024c366004610d79565b610841565b6000336001600160a01b037f0000000000000000000000000000000000000000000000000000000000000000161461029c57604051632ad9535160e01b815260040160405180910390fd5b876001600160a01b0316876001600160a01b0316146102fb5760405162461bcd60e51b815260206004820152601660248201527527b7363c9031b0b9b430b13632903a379037bbb732b960511b60448201526064015b60405180910390fd5b836020013586146103405760405162461bcd60e51b815260206004820152600f60248201526e09aeae6e840ccead8d8f240c6c2e6d608b1b60448201526064016102f2565b60008581526006602052604090205442116103885760405162461bcd60e51b815260206004820152600860248201526754494d454c4f434b60c01b60448201526064016102f2565b600061039683850185610a74565b90506103af6103a86020870187610a74565b88836108e4565b9a9950505050505050505050565b336000908152602081815260408083206001600160a01b0385168452909152902054600181116104265760405162461bcd60e51b8152602060048201526014602482015273496e73756666696369656e7420726576656e756560601b60448201526064016102f2565b336000908152602081815260408083206001600160a01b03868116855292529091206001908190557f00000000000000000000000000000000000000000000000000000000000000009091169063d6a4f84c9084906104859085610e20565b6040516001600160e01b031960e085901b1681526001600160a01b0390921660048301526024820152336044820152606401600060405180830381600087803b1580156104d157600080fd5b505af11580156104e5573d6000803e3d6000fd5b505050505050565b60606000600580546104fe90610e33565b90501161051a576040518060200160405280600081525061053e565b60058260405160200161052e929190610e67565b6040516020818303038152906040525b92915050565b6005805461055190610e33565b80601f016020809104026020016040519081016040528092919081815260200182805461057d90610e33565b80156105ca5780601f1061059f576101008083540402835291602001916105ca565b820191906000526020600020905b8154815290600101906020018083116105ad57829003601f168201915b505050505081565b6000336001600160a01b037f0000000000000000000000000000000000000000000000000000000000000000161461061d57604051632ad9535160e01b815260040160405180910390fd5b83156106635760405162461bcd60e51b8152602060048201526015602482015274125b9cdd185b9d081b9bdd081cdd5c1c1bdc9d1959605a1b60448201526064016102f2565b60008061067284860186610f09565b60008b81526006602090815260409182902084905581518d81529081018490529294509092507f1444b1ec628110b153b1e97d60cdf7ed8cd28664b1e53e8b6d4043795452939f910160405180910390a16106ce8888836108e4565b9b9a5050505050505050505050565b6000336001600160a01b037f0000000000000000000000000000000000000000000000000000000000000000161461072857604051632ad9535160e01b815260040160405180910390fd5b60405162461bcd60e51b815260206004820152601860248201527f4f6e6c792073656e64696e6720616e642063617368696e67000000000000000060448201526064016102f2565b6000336001600160a01b037f000000000000000000000000000000000000000000000000000000000000000016146107bb57604051632ad9535160e01b815260040160405180910390fd5b886001600160a01b03168b6001600160a01b031614806107ec5750896001600160a01b03168b6001600160a01b0316145b6108305760405162461bcd60e51b8152602060048201526015602482015274139bdd081bdddb995c881bdc88185c1c1c9bdd9959605a1b60448201526064016102f2565b5060009a9950505050505050505050565b336001600160a01b037f0000000000000000000000000000000000000000000000000000000000000000161461088a57604051632ad9535160e01b815260040160405180910390fd5b846001600160a01b0316866001600160a01b0316146104e55760405162461bcd60e51b81526020600482015260166024820152754f6e6c79206f776e65722063616e20617070726f766560501b60448201526064016102f2565b600254600090612710906108f89085610f2e565b6109029190610f4d565b6001600160a01b0380841660009081526020818152604080832093891683529290529081208054929350839290919061093c908490610f6f565b9091555090949350505050565b6001600160a01b038116811461095e57600080fd5b50565b803561096c81610949565b919050565b60006080828403121561098357600080fd5b50919050565b60008083601f84011261099b57600080fd5b50813567ffffffffffffffff8111156109b357600080fd5b6020830191508360208285010111156109cb57600080fd5b9250929050565b600080600080600080600080610140898b0312156109ef57600080fd5b88356109fa81610949565b97506020890135610a0a81610949565b96506040890135610a1a81610949565b95506060890135945060808901359350610a378a60a08b01610971565b925061012089013567ffffffffffffffff811115610a5457600080fd5b610a608b828c01610989565b999c989b5096995094979396929594505050565b600060208284031215610a8657600080fd5b8135610a9181610949565b9392505050565b600060208284031215610aaa57600080fd5b5035919050565b600060208083528351808285015260005b81811015610ade57858101830151858201604001528201610ac2565b506000604082860101526040601f19601f8301168501019250505092915050565b60008060408385031215610b1257600080fd5b8235610b1d81610949565b91506020830135610b2d81610949565b809150509250929050565b60008060008060008060008060e0898b031215610b5457600080fd5b8835610b5f81610949565b97506020890135610b6f81610949565b9650604089013595506060890135610b8681610949565b94506080890135935060a0890135925060c089013567ffffffffffffffff811115610a5457600080fd5b600080600080600080600080610140898b031215610bcd57600080fd5b8835610bd881610949565b97506020890135610be881610949565b9650604089013595506060890135945060808901359350610a378a60a08b01610971565b634e487b7160e01b600052604160045260246000fd5b600082601f830112610c3357600080fd5b813567ffffffffffffffff80821115610c4e57610c4e610c0c565b604051601f8301601f19908116603f01168101908282118183101715610c7657610c76610c0c565b81604052838152866020858801011115610c8f57600080fd5b836020870160208301376000602085830101528094505050505092915050565b6000806000806000806000806000806101408b8d031215610ccf57600080fd5b8a35610cda81610949565b995060208b0135610cea81610949565b985060408b0135610cfa81610949565b975060608b0135610d0a81610949565b965060808b0135610d1a81610949565b955060a08b01359450610d2f60c08c01610961565b935060e08b013592506101008b013591506101208b013567ffffffffffffffff811115610d5b57600080fd5b610d678d828e01610c22565b9150509295989b9194979a5092959850565b6000806000806000806101208789031215610d9357600080fd5b8635610d9e81610949565b95506020870135610dae81610949565b94506040870135610dbe81610949565b935060608701359250610dd48860808901610971565b915061010087013567ffffffffffffffff811115610df157600080fd5b610dfd89828a01610c22565b9150509295509295509295565b634e487b7160e01b600052601160045260246000fd5b8181038181111561053e5761053e610e0a565b600181811c90821680610e4757607f821691505b60208210810361098357634e487b7160e01b600052602260045260246000fd5b600080845481600182811c915080831680610e8357607f831692505b60208084108203610ea257634e487b7160e01b86526022600452602486fd5b818015610eb65760018114610ecb57610ef8565b60ff1986168952841515850289019650610ef8565b60008b81526020902060005b86811015610ef05781548b820152908501908301610ed7565b505084890196505b509785525050509301949350505050565b60008060408385031215610f1c57600080fd5b823591506020830135610b2d81610949565b6000816000190483118215151615610f4857610f48610e0a565b500290565b600082610f6a57634e487b7160e01b600052601260045260246000fd5b500490565b8082018082111561053e5761053e610e0a56fea26469706673582212200bdabf522c9b3cc5cd680a5a9e9df984ca1ad3ec24fca306f07cb9750a1f389064736f6c634300081000334d6f64756c653a2046656520746f6f2068696768000000000000000000000000",
    "linkReferences": {}
  },
  "methodIdentifiers": {
    "REGISTRAR()": "cb609077",
    "_URI()": "b4e87e8f",
    "fees()": "9af1d35a",
    "getFees()": "db8d55f1",
    "processApproval(address,address,address,uint256,(address,uint256,uint256,address),bytes)": "e4175968",
    "processCash(address,address,address,uint256,uint256,(address,uint256,uint256,address),bytes)": "06890cd0",
    "processFund(address,address,uint256,uint256,uint256,(address,uint256,uint256,address),bytes)": "be2f3fdd",
    "processTokenURI(uint256)": "4fe17e1a",
    "processTransfer(address,address,address,address,address,uint256,address,uint256,uint256,bytes)": "c0c9572c",
    "processWrite(address,address,uint256,address,uint256,uint256,bytes)": "b5d701ba",
    "releaseDate(uint256)": "4eaad1ee",
    "revenue(address,address)": "9a0ea37a",
    "withdrawFees(address)": "164e68de"
  },
  "id": 53
}