{
  "abi": [
    {
      "inputs": [
        {
          "internalType": "address",
          "name": "registrar",
          "type": "address"
        },
        {
          "components": [
            {
              "internalType": "uint256",
              "name": "writeBPS",
              "type": "uint256"
            },
            {
              "internalType": "uint256",
              "name": "transferBPS",
              "type": "uint256"
            },
            {
              "internalType": "uint256",
              "name": "fundBPS",
              "type": "uint256"
            },
            {
              "internalType": "uint256",
              "name": "cashBPS",
              "type": "uint256"
            }
          ],
          "internalType": "struct DataTypes.WTFCFees",
          "name": "_fees",
          "type": "tuple"
        },
        {
          "internalType": "string",
          "name": "__baseURI",
          "type": "string"
        }
      ],
      "stateMutability": "nonpayable",
      "type": "constructor"
    },
    {
      "inputs": [],
      "name": "InitParamsInvalid",
      "type": "error"
    },
    {
      "inputs": [],
      "name": "NotRegistrar",
      "type": "error"
    },
    {
      "anonymous": false,
      "inputs": [
        {
          "indexed": false,
          "internalType": "uint256",
          "name": "cheqId",
          "type": "uint256"
        },
        {
          "indexed": false,
          "internalType": "uint256",
          "name": "_releaseDate",
          "type": "uint256"
        }
      ],
      "name": "Timelock",
      "type": "event"
    },
    {
      "inputs": [],
      "name": "REGISTRAR",
      "outputs": [
        {
          "internalType": "address",
          "name": "",
          "type": "address"
        }
      ],
      "stateMutability": "view",
      "type": "function"
    },
    {
      "inputs": [],
      "name": "_URI",
      "outputs": [
        {
          "internalType": "string",
          "name": "",
          "type": "string"
        }
      ],
      "stateMutability": "view",
      "type": "function"
    },
    {
      "inputs": [],
      "name": "fees",
      "outputs": [
        {
          "internalType": "uint256",
          "name": "writeBPS",
          "type": "uint256"
        },
        {
          "internalType": "uint256",
          "name": "transferBPS",
          "type": "uint256"
        },
        {
          "internalType": "uint256",
          "name": "fundBPS",
          "type": "uint256"
        },
        {
          "internalType": "uint256",
          "name": "cashBPS",
          "type": "uint256"
        }
      ],
      "stateMutability": "view",
      "type": "function"
    },
    {
      "inputs": [],
      "name": "getFees",
      "outputs": [
        {
          "internalType": "uint256",
          "name": "",
          "type": "uint256"
        },
        {
          "internalType": "uint256",
          "name": "",
          "type": "uint256"
        },
        {
          "internalType": "uint256",
          "name": "",
          "type": "uint256"
        },
        {
          "internalType": "uint256",
          "name": "",
          "type": "uint256"
        }
      ],
      "stateMutability": "view",
      "type": "function"
    },
    {
      "inputs": [
        {
          "internalType": "address",
          "name": "caller",
          "type": "address"
        },
        {
          "internalType": "address",
          "name": "owner",
          "type": "address"
        },
        {
          "internalType": "address",
          "name": "",
          "type": "address"
        },
        {
          "internalType": "uint256",
          "name": "",
          "type": "uint256"
        },
        {
          "components": [
            {
              "internalType": "address",
              "name": "currency",
              "type": "address"
            },
            {
              "internalType": "uint256",
              "name": "escrowed",
              "type": "uint256"
            },
            {
              "internalType": "uint256",
              "name": "createdAt",
              "type": "uint256"
            },
            {
              "internalType": "address",
              "name": "module",
              "type": "address"
            }
          ],
          "internalType": "struct DataTypes.Cheq",
          "name": "",
          "type": "tuple"
        },
        {
          "internalType": "bytes",
          "name": "",
          "type": "bytes"
        }
      ],
      "name": "processApproval",
      "outputs": [],
      "stateMutability": "view",
      "type": "function"
    },
    {
      "inputs": [
        {
          "internalType": "address",
          "name": "",
          "type": "address"
        },
        {
          "internalType": "address",
          "name": "owner",
          "type": "address"
        },
        {
          "internalType": "address",
          "name": "to",
          "type": "address"
        },
        {
          "internalType": "uint256",
          "name": "amount",
          "type": "uint256"
        },
        {
          "internalType": "uint256",
          "name": "cheqId",
          "type": "uint256"
        },
        {
          "components": [
            {
              "internalType": "address",
              "name": "currency",
              "type": "address"
            },
            {
              "internalType": "uint256",
              "name": "escrowed",
              "type": "uint256"
            },
            {
              "internalType": "uint256",
              "name": "createdAt",
              "type": "uint256"
            },
            {
              "internalType": "address",
              "name": "module",
              "type": "address"
            }
          ],
          "internalType": "struct DataTypes.Cheq",
          "name": "cheq",
          "type": "tuple"
        },
        {
          "internalType": "bytes",
          "name": "initData",
          "type": "bytes"
        }
      ],
      "name": "processCash",
      "outputs": [
        {
          "internalType": "uint256",
          "name": "",
          "type": "uint256"
        }
      ],
      "stateMutability": "nonpayable",
      "type": "function"
    },
    {
      "inputs": [
        {
          "internalType": "address",
          "name": "",
          "type": "address"
        },
        {
          "internalType": "address",
          "name": "",
          "type": "address"
        },
        {
          "internalType": "uint256",
          "name": "",
          "type": "uint256"
        },
        {
          "internalType": "uint256",
          "name": "",
          "type": "uint256"
        },
        {
          "internalType": "uint256",
          "name": "",
          "type": "uint256"
        },
        {
          "components": [
            {
              "internalType": "address",
              "name": "currency",
              "type": "address"
            },
            {
              "internalType": "uint256",
              "name": "escrowed",
              "type": "uint256"
            },
            {
              "internalType": "uint256",
              "name": "createdAt",
              "type": "uint256"
            },
            {
              "internalType": "address",
              "name": "module",
              "type": "address"
            }
          ],
          "internalType": "struct DataTypes.Cheq",
          "name": "",
          "type": "tuple"
        },
        {
          "internalType": "bytes",
          "name": "",
          "type": "bytes"
        }
      ],
      "name": "processFund",
      "outputs": [
        {
          "internalType": "uint256",
          "name": "",
          "type": "uint256"
        }
      ],
      "stateMutability": "view",
      "type": "function"
    },
    {
      "inputs": [
        {
          "internalType": "uint256",
          "name": "tokenId",
          "type": "uint256"
        }
      ],
      "name": "processTokenURI",
      "outputs": [
        {
          "internalType": "string",
          "name": "",
          "type": "string"
        }
      ],
      "stateMutability": "view",
      "type": "function"
    },
    {
      "inputs": [
        {
          "internalType": "address",
          "name": "caller",
          "type": "address"
        },
        {
          "internalType": "address",
          "name": "approved",
          "type": "address"
        },
        {
          "internalType": "address",
          "name": "owner",
          "type": "address"
        },
        {
          "internalType": "address",
          "name": "",
          "type": "address"
        },
        {
          "internalType": "address",
          "name": "",
          "type": "address"
        },
        {
          "internalType": "uint256",
          "name": "",
          "type": "uint256"
        },
        {
          "internalType": "address",
          "name": "",
          "type": "address"
        },
        {
          "internalType": "uint256",
          "name": "",
          "type": "uint256"
        },
        {
          "internalType": "uint256",
          "name": "",
          "type": "uint256"
        },
        {
          "internalType": "bytes",
          "name": "",
          "type": "bytes"
        }
      ],
      "name": "processTransfer",
      "outputs": [
        {
          "internalType": "uint256",
          "name": "",
          "type": "uint256"
        }
      ],
      "stateMutability": "view",
      "type": "function"
    },
    {
      "inputs": [
        {
          "internalType": "address",
          "name": "",
          "type": "address"
        },
        {
          "internalType": "address",
          "name": "",
          "type": "address"
        },
        {
          "internalType": "uint256",
          "name": "cheqId",
          "type": "uint256"
        },
        {
          "internalType": "address",
          "name": "currency",
          "type": "address"
        },
        {
          "internalType": "uint256",
          "name": "escrowed",
          "type": "uint256"
        },
        {
          "internalType": "uint256",
          "name": "instant",
          "type": "uint256"
        },
        {
          "internalType": "bytes",
          "name": "initData",
          "type": "bytes"
        }
      ],
      "name": "processWrite",
      "outputs": [
        {
          "internalType": "uint256",
          "name": "",
          "type": "uint256"
        }
      ],
      "stateMutability": "nonpayable",
      "type": "function"
    },
    {
      "inputs": [
        {
          "internalType": "uint256",
          "name": "",
          "type": "uint256"
        }
      ],
      "name": "releaseDate",
      "outputs": [
        {
          "internalType": "uint256",
          "name": "",
          "type": "uint256"
        }
      ],
      "stateMutability": "view",
      "type": "function"
    },
    {
      "inputs": [
        {
          "internalType": "address",
          "name": "",
          "type": "address"
        },
        {
          "internalType": "address",
          "name": "",
          "type": "address"
        }
      ],
      "name": "revenue",
      "outputs": [
        {
          "internalType": "uint256",
          "name": "",
          "type": "uint256"
        }
      ],
      "stateMutability": "view",
      "type": "function"
    },
    {
      "inputs": [
        {
          "internalType": "address",
          "name": "token",
          "type": "address"
        }
      ],
      "name": "withdrawFees",
      "outputs": [],
      "stateMutability": "nonpayable",
      "type": "function"
    }
  ],
  "bytecode": {
    "object": "0x60a06040523480156200001157600080fd5b5060405162001575380380620015758339810160408190526200003491620002f9565b82826001600160a01b0382166200005e576040516348be0eb360e01b815260040160405180910390fd5b6001600160a01b038216608052805161271011620000b25760405162461bcd60e51b815260206004820152601460248201526000805160206200155583398151915260448201526064015b60405180910390fd5b612710816020015110620000f85760405162461bcd60e51b81526020600482015260146024820152600080516020620015558339815191526044820152606401620000a9565b6127108160400151106200013e5760405162461bcd60e51b81526020600482015260146024820152600080516020620015558339815191526044820152606401620000a9565b612710816060015110620001845760405162461bcd60e51b81526020600482015260146024820152600080516020620015558339815191526044820152606401620000a9565b80516002556020808201516003556040808301516004556060830151600555514281526001600160a01b038416917ff1a1fa6b64aa95186f5a1285e76198d0da80d9c5a88062641d447f1d7c54e56c910160405180910390a25060009050620001ee828262000431565b50505050620004fd565b634e487b7160e01b600052604160045260246000fd5b604051608081016001600160401b0381118282101715620002335762000233620001f8565b60405290565b604051601f8201601f191681016001600160401b0381118282101715620002645762000264620001f8565b604052919050565b600082601f8301126200027e57600080fd5b81516001600160401b038111156200029a576200029a620001f8565b6020620002b0601f8301601f1916820162000239565b8281528582848701011115620002c557600080fd5b60005b83811015620002e5578581018301518282018401528201620002c8565b506000928101909101919091529392505050565b600080600083850360c08112156200031057600080fd5b84516001600160a01b03811681146200032857600080fd5b93506080601f19820112156200033d57600080fd5b50620003486200020e565b602085015181526040850151602082015260608501516040820152608085015160608201528092505060a084015160018060401b038111156200038a57600080fd5b62000398868287016200026c565b9150509250925092565b600181811c90821680620003b757607f821691505b602082108103620003d857634e487b7160e01b600052602260045260246000fd5b50919050565b601f8211156200042c57600081815260208120601f850160051c81016020861015620004075750805b601f850160051c820191505b81811015620004285782815560010162000413565b5050505b505050565b81516001600160401b038111156200044d576200044d620001f8565b62000465816200045e8454620003a2565b84620003de565b602080601f8311600181146200049d5760008415620004845750858301515b600019600386901b1c1916600185901b17855562000428565b600085815260208120601f198616915b82811015620004ce57888601518255948401946001909101908401620004ad565b5085821015620004ed5787850151600019600388901b60f8161c191681555b5050505050600190811b01905550565b60805161101262000543600039600081816101f601528181610261015281816104bf0152818161064d015281816107a90152818161083c015261090b01526110126000f3fe608060405234801561001057600080fd5b50600436106100cf5760003560e01c8063b4e87e8f1161008c578063c0c9572c11610066578063c0c9572c146101de578063cb609077146101f1578063db8d55f114610230578063e41759681461024157600080fd5b8063b4e87e8f146101b0578063b5d701ba146101b8578063be2f3fdd146101cb57600080fd5b806306890cd0146100d4578063164e68de146100fa5780634eaad1ee1461010f5780634fe17e1a1461012f5780639a0ea37a1461014f5780639af1d35a1461017a575b600080fd5b6100e76100e2366004610a2c565b610254565b6040519081526020015b60405180910390f35b61010d610108366004610ace565b61042b565b005b6100e761011d366004610af2565b60066020526000908152604090205481565b61014261013d366004610af2565b61055c565b6040516100f19190610b0b565b6100e761015d366004610b59565b600160209081526000928352604080842090915290825290205481565b6002546003546004546005546101909392919084565b6040805194855260208501939093529183015260608201526080016100f1565b6101426105b2565b6100e76101c6366004610b92565b610640565b6100e76101d9366004610c0a565b61079c565b6100e76101ec366004610d09565b61082f565b6102187f000000000000000000000000000000000000000000000000000000000000000081565b6040516001600160a01b0390911681526020016100f1565b600254600354600454600554610190565b61010d61024f366004610dd3565b610900565b6000336001600160a01b037f0000000000000000000000000000000000000000000000000000000000000000161461029f57604051632ad9535160e01b815260040160405180910390fd5b876001600160a01b0316876001600160a01b0316146102fe5760405162461bcd60e51b815260206004820152601660248201527527b7363c9031b0b9b430b13632903a379037bbb732b960511b60448201526064015b60405180910390fd5b836020013586146103435760405162461bcd60e51b815260206004820152600f60248201526e09aeae6e840ccead8d8f240c6c2e6d608b1b60448201526064016102f5565b600085815260066020526040902054421161038b5760405162461bcd60e51b815260206004820152600860248201526754494d454c4f434b60c01b60448201526064016102f5565b600061039983850185610ace565b90506000612710600260010154896103b19190610e7a565b6103bb9190610e99565b6001600160a01b03831660009081526001602090815260408220929350839291906103e8908a018a610ace565b6001600160a01b03166001600160a01b0316815260200190815260200160002060008282546104179190610ebb565b90915550909b9a5050505050505050505050565b3360009081526001602081815260408084206001600160a01b0386168552909152909120549081116104965760405162461bcd60e51b8152602060048201526014602482015273496e73756666696369656e7420726576656e756560601b60448201526064016102f5565b3360009081526001602081815260408084206001600160a01b03878116865292529092208190557f00000000000000000000000000000000000000000000000000000000000000009091169063d6a4f84c9084906104f49085610ece565b6040516001600160e01b031960e085901b1681526001600160a01b0390921660048301526024820152336044820152606401600060405180830381600087803b15801561054057600080fd5b505af1158015610554573d6000803e3d6000fd5b505050505050565b6060600080805461056c90610ee1565b90501161058857604051806020016040528060008152506105ac565b60008260405160200161059c929190610f15565b6040516020818303038152906040525b92915050565b600080546105bf90610ee1565b80601f01602080910402602001604051908101604052809291908181526020018280546105eb90610ee1565b80156106385780601f1061060d57610100808354040283529160200191610638565b820191906000526020600020905b81548152906001019060200180831161061b57829003601f168201915b505050505081565b6000336001600160a01b037f0000000000000000000000000000000000000000000000000000000000000000161461068b57604051632ad9535160e01b815260040160405180910390fd5b83156106d15760405162461bcd60e51b8152602060048201526015602482015274125b9cdd185b9d081b9bdd081cdd5c1c1bdc9d1959605a1b60448201526064016102f5565b6000806106e084860186610fb7565b60008b81526006602052604081208390556003549294509092509061271090610709908a610e7a565b6107139190610e99565b6001600160a01b038084166000908152600160209081526040808320938e1683529290529081208054929350839290919061074f908490610ebb565b9091555050604080518b8152602081018590527f1444b1ec628110b153b1e97d60cdf7ed8cd28664b1e53e8b6d4043795452939f910160405180910390a19b9a5050505050505050505050565b6000336001600160a01b037f000000000000000000000000000000000000000000000000000000000000000016146107e757604051632ad9535160e01b815260040160405180910390fd5b60405162461bcd60e51b815260206004820152601860248201527f4f6e6c792073656e64696e6720616e642063617368696e67000000000000000060448201526064016102f5565b6000336001600160a01b037f0000000000000000000000000000000000000000000000000000000000000000161461087a57604051632ad9535160e01b815260040160405180910390fd5b886001600160a01b03168b6001600160a01b031614806108ab5750896001600160a01b03168b6001600160a01b0316145b6108ef5760405162461bcd60e51b8152602060048201526015602482015274139bdd081bdddb995c881bdc88185c1c1c9bdd9959605a1b60448201526064016102f5565b5060009a9950505050505050505050565b336001600160a01b037f0000000000000000000000000000000000000000000000000000000000000000161461094957604051632ad9535160e01b815260040160405180910390fd5b846001600160a01b0316866001600160a01b0316146105545760405162461bcd60e51b81526020600482015260166024820152754f6e6c79206f776e65722063616e20617070726f766560501b60448201526064016102f5565b6001600160a01b03811681146109b857600080fd5b50565b80356109c6816109a3565b919050565b6000608082840312156109dd57600080fd5b50919050565b60008083601f8401126109f557600080fd5b50813567ffffffffffffffff811115610a0d57600080fd5b602083019150836020828501011115610a2557600080fd5b9250929050565b600080600080600080600080610140898b031215610a4957600080fd5b8835610a54816109a3565b97506020890135610a64816109a3565b96506040890135610a74816109a3565b95506060890135945060808901359350610a918a60a08b016109cb565b925061012089013567ffffffffffffffff811115610aae57600080fd5b610aba8b828c016109e3565b999c989b5096995094979396929594505050565b600060208284031215610ae057600080fd5b8135610aeb816109a3565b9392505050565b600060208284031215610b0457600080fd5b5035919050565b600060208083528351808285015260005b81811015610b3857858101830151858201604001528201610b1c565b506000604082860101526040601f19601f8301168501019250505092915050565b60008060408385031215610b6c57600080fd5b8235610b77816109a3565b91506020830135610b87816109a3565b809150509250929050565b60008060008060008060008060e0898b031215610bae57600080fd5b8835610bb9816109a3565b97506020890135610bc9816109a3565b9650604089013595506060890135610be0816109a3565b94506080890135935060a0890135925060c089013567ffffffffffffffff811115610aae57600080fd5b600080600080600080600080610140898b031215610c2757600080fd5b8835610c32816109a3565b97506020890135610c42816109a3565b9650604089013595506060890135945060808901359350610a918a60a08b016109cb565b634e487b7160e01b600052604160045260246000fd5b600082601f830112610c8d57600080fd5b813567ffffffffffffffff80821115610ca857610ca8610c66565b604051601f8301601f19908116603f01168101908282118183101715610cd057610cd0610c66565b81604052838152866020858801011115610ce957600080fd5b836020870160208301376000602085830101528094505050505092915050565b6000806000806000806000806000806101408b8d031215610d2957600080fd5b8a35610d34816109a3565b995060208b0135610d44816109a3565b985060408b0135610d54816109a3565b975060608b0135610d64816109a3565b965060808b0135610d74816109a3565b955060a08b01359450610d8960c08c016109bb565b935060e08b013592506101008b013591506101208b013567ffffffffffffffff811115610db557600080fd5b610dc18d828e01610c7c565b9150509295989b9194979a5092959850565b6000806000806000806101208789031215610ded57600080fd5b8635610df8816109a3565b95506020870135610e08816109a3565b94506040870135610e18816109a3565b935060608701359250610e2e88608089016109cb565b915061010087013567ffffffffffffffff811115610e4b57600080fd5b610e5789828a01610c7c565b9150509295509295509295565b634e487b7160e01b600052601160045260246000fd5b6000816000190483118215151615610e9457610e94610e64565b500290565b600082610eb657634e487b7160e01b600052601260045260246000fd5b500490565b808201808211156105ac576105ac610e64565b818103818111156105ac576105ac610e64565b600181811c90821680610ef557607f821691505b6020821081036109dd57634e487b7160e01b600052602260045260246000fd5b600080845481600182811c915080831680610f3157607f831692505b60208084108203610f5057634e487b7160e01b86526022600452602486fd5b818015610f645760018114610f7957610fa6565b60ff1986168952841515850289019650610fa6565b60008b81526020902060005b86811015610f9e5781548b820152908501908301610f85565b505084890196505b509785525050509301949350505050565b60008060408385031215610fca57600080fd5b823591506020830135610b87816109a356fea264697066735822122046d56aefe5f8c925d5c0904787de5cac204706f33c0bf3ebc49c8146ca19525f64736f6c634300081000334d6f64756c653a2046656520746f6f2068696768000000000000000000000000",
    "linkReferences": {}
  },
  "methodIdentifiers": {
    "REGISTRAR()": "cb609077",
    "_URI()": "b4e87e8f",
    "fees()": "9af1d35a",
    "getFees()": "db8d55f1",
    "processApproval(address,address,address,uint256,(address,uint256,uint256,address),bytes)": "e4175968",
    "processCash(address,address,address,uint256,uint256,(address,uint256,uint256,address),bytes)": "06890cd0",
    "processFund(address,address,uint256,uint256,uint256,(address,uint256,uint256,address),bytes)": "be2f3fdd",
    "processTokenURI(uint256)": "4fe17e1a",
    "processTransfer(address,address,address,address,address,uint256,address,uint256,uint256,bytes)": "c0c9572c",
    "processWrite(address,address,uint256,address,uint256,uint256,bytes)": "b5d701ba",
    "releaseDate(uint256)": "4eaad1ee",
    "revenue(address,address)": "9a0ea37a",
    "withdrawFees(address)": "164e68de"
  },
  "id": 55
}