{
  "abi": [
    {
      "inputs": [
        {
          "internalType": "address",
          "name": "registrar",
          "type": "address"
        },
        {
          "components": [
            {
              "internalType": "uint256",
              "name": "writeBPS",
              "type": "uint256"
            },
            {
              "internalType": "uint256",
              "name": "transferBPS",
              "type": "uint256"
            },
            {
              "internalType": "uint256",
              "name": "fundBPS",
              "type": "uint256"
            },
            {
              "internalType": "uint256",
              "name": "cashBPS",
              "type": "uint256"
            }
          ],
          "internalType": "struct DataTypes.WTFCFees",
          "name": "_fees",
          "type": "tuple"
        },
        {
          "internalType": "string",
          "name": "__baseURI",
          "type": "string"
        }
      ],
      "stateMutability": "nonpayable",
      "type": "constructor"
    },
    {
      "inputs": [],
      "name": "InitParamsInvalid",
      "type": "error"
    },
    {
      "inputs": [],
      "name": "NotRegistrar",
      "type": "error"
    },
    {
      "inputs": [],
      "name": "REGISTRAR",
      "outputs": [
        {
          "internalType": "address",
          "name": "",
          "type": "address"
        }
      ],
      "stateMutability": "view",
      "type": "function"
    },
    {
      "inputs": [],
      "name": "_URI",
      "outputs": [
        {
          "internalType": "string",
          "name": "",
          "type": "string"
        }
      ],
      "stateMutability": "view",
      "type": "function"
    },
    {
      "inputs": [],
      "name": "fees",
      "outputs": [
        {
          "internalType": "uint256",
          "name": "writeBPS",
          "type": "uint256"
        },
        {
          "internalType": "uint256",
          "name": "transferBPS",
          "type": "uint256"
        },
        {
          "internalType": "uint256",
          "name": "fundBPS",
          "type": "uint256"
        },
        {
          "internalType": "uint256",
          "name": "cashBPS",
          "type": "uint256"
        }
      ],
      "stateMutability": "view",
      "type": "function"
    },
    {
      "inputs": [],
      "name": "getFees",
      "outputs": [
        {
          "internalType": "uint256",
          "name": "",
          "type": "uint256"
        },
        {
          "internalType": "uint256",
          "name": "",
          "type": "uint256"
        },
        {
          "internalType": "uint256",
          "name": "",
          "type": "uint256"
        },
        {
          "internalType": "uint256",
          "name": "",
          "type": "uint256"
        }
      ],
      "stateMutability": "view",
      "type": "function"
    },
    {
      "inputs": [
        {
          "internalType": "uint256",
          "name": "",
          "type": "uint256"
        }
      ],
      "name": "isCashed",
      "outputs": [
        {
          "internalType": "bool",
          "name": "",
          "type": "bool"
        }
      ],
      "stateMutability": "view",
      "type": "function"
    },
    {
      "inputs": [
        {
          "internalType": "address",
          "name": "caller",
          "type": "address"
        },
        {
          "internalType": "address",
          "name": "owner",
          "type": "address"
        },
        {
          "internalType": "address",
          "name": "to",
          "type": "address"
        },
        {
          "internalType": "uint256",
          "name": "cheqId",
          "type": "uint256"
        },
        {
          "components": [
            {
              "internalType": "address",
              "name": "currency",
              "type": "address"
            },
            {
              "internalType": "uint256",
              "name": "escrowed",
              "type": "uint256"
            },
            {
              "internalType": "uint256",
              "name": "createdAt",
              "type": "uint256"
            },
            {
              "internalType": "address",
              "name": "module",
              "type": "address"
            }
          ],
          "internalType": "struct DataTypes.Cheq",
          "name": "cheq",
          "type": "tuple"
        },
        {
          "internalType": "bytes",
          "name": "initData",
          "type": "bytes"
        }
      ],
      "name": "processApproval",
      "outputs": [],
      "stateMutability": "nonpayable",
      "type": "function"
    },
    {
      "inputs": [
        {
          "internalType": "address",
          "name": "",
          "type": "address"
        },
        {
          "internalType": "address",
          "name": "",
          "type": "address"
        },
        {
          "internalType": "address",
          "name": "",
          "type": "address"
        },
        {
          "internalType": "uint256",
          "name": "amount",
          "type": "uint256"
        },
        {
          "internalType": "uint256",
          "name": "cheqId",
          "type": "uint256"
        },
        {
          "components": [
            {
              "internalType": "address",
              "name": "currency",
              "type": "address"
            },
            {
              "internalType": "uint256",
              "name": "escrowed",
              "type": "uint256"
            },
            {
              "internalType": "uint256",
              "name": "createdAt",
              "type": "uint256"
            },
            {
              "internalType": "address",
              "name": "module",
              "type": "address"
            }
          ],
          "internalType": "struct DataTypes.Cheq",
          "name": "",
          "type": "tuple"
        },
        {
          "internalType": "bytes",
          "name": "",
          "type": "bytes"
        }
      ],
      "name": "processCash",
      "outputs": [
        {
          "internalType": "uint256",
          "name": "",
          "type": "uint256"
        }
      ],
      "stateMutability": "nonpayable",
      "type": "function"
    },
    {
      "inputs": [
        {
          "internalType": "address",
          "name": "caller",
          "type": "address"
        },
        {
          "internalType": "address",
          "name": "owner",
          "type": "address"
        },
        {
          "internalType": "uint256",
          "name": "amount",
          "type": "uint256"
        },
        {
          "internalType": "uint256",
          "name": "instant",
          "type": "uint256"
        },
        {
          "internalType": "uint256",
          "name": "cheqId",
          "type": "uint256"
        },
        {
          "components": [
            {
              "internalType": "address",
              "name": "currency",
              "type": "address"
            },
            {
              "internalType": "uint256",
              "name": "escrowed",
              "type": "uint256"
            },
            {
              "internalType": "uint256",
              "name": "createdAt",
              "type": "uint256"
            },
            {
              "internalType": "address",
              "name": "module",
              "type": "address"
            }
          ],
          "internalType": "struct DataTypes.Cheq",
          "name": "cheq",
          "type": "tuple"
        },
        {
          "internalType": "bytes",
          "name": "initData",
          "type": "bytes"
        }
      ],
      "name": "processFund",
      "outputs": [
        {
          "internalType": "uint256",
          "name": "",
          "type": "uint256"
        }
      ],
      "stateMutability": "nonpayable",
      "type": "function"
    },
    {
      "inputs": [
        {
          "internalType": "uint256",
          "name": "tokenId",
          "type": "uint256"
        }
      ],
      "name": "processTokenURI",
      "outputs": [
        {
          "internalType": "string",
          "name": "",
          "type": "string"
        }
      ],
      "stateMutability": "view",
      "type": "function"
    },
    {
      "inputs": [
        {
          "internalType": "address",
          "name": "",
          "type": "address"
        },
        {
          "internalType": "address",
          "name": "",
          "type": "address"
        },
        {
          "internalType": "address",
          "name": "",
          "type": "address"
        },
        {
          "internalType": "address",
          "name": "",
          "type": "address"
        },
        {
          "internalType": "address",
          "name": "",
          "type": "address"
        },
        {
          "internalType": "uint256",
          "name": "cheqId",
          "type": "uint256"
        },
        {
          "internalType": "address",
          "name": "",
          "type": "address"
        },
        {
          "internalType": "uint256",
          "name": "",
          "type": "uint256"
        },
        {
          "internalType": "uint256",
          "name": "",
          "type": "uint256"
        },
        {
          "internalType": "bytes",
          "name": "",
          "type": "bytes"
        }
      ],
      "name": "processTransfer",
      "outputs": [
        {
          "internalType": "uint256",
          "name": "",
          "type": "uint256"
        }
      ],
      "stateMutability": "nonpayable",
      "type": "function"
    },
    {
      "inputs": [
        {
          "internalType": "address",
          "name": "caller",
          "type": "address"
        },
        {
          "internalType": "address",
          "name": "owner",
          "type": "address"
        },
        {
          "internalType": "uint256",
          "name": "cheqId",
          "type": "uint256"
        },
        {
          "internalType": "address",
          "name": "currency",
          "type": "address"
        },
        {
          "internalType": "uint256",
          "name": "escrowed",
          "type": "uint256"
        },
        {
          "internalType": "uint256",
          "name": "instant",
          "type": "uint256"
        },
        {
          "internalType": "bytes",
          "name": "initData",
          "type": "bytes"
        }
      ],
      "name": "processWrite",
      "outputs": [
        {
          "internalType": "uint256",
          "name": "",
          "type": "uint256"
        }
      ],
      "stateMutability": "nonpayable",
      "type": "function"
    },
    {
      "inputs": [
        {
          "internalType": "uint256",
          "name": "",
          "type": "uint256"
        }
      ],
      "name": "releaseDate",
      "outputs": [
        {
          "internalType": "uint256",
          "name": "",
          "type": "uint256"
        }
      ],
      "stateMutability": "view",
      "type": "function"
    },
    {
      "inputs": [
        {
          "internalType": "address",
          "name": "",
          "type": "address"
        },
        {
          "internalType": "address",
          "name": "",
          "type": "address"
        }
      ],
      "name": "revenue",
      "outputs": [
        {
          "internalType": "uint256",
          "name": "",
          "type": "uint256"
        }
      ],
      "stateMutability": "view",
      "type": "function"
    },
    {
      "inputs": [
        {
          "internalType": "address",
          "name": "token",
          "type": "address"
        }
      ],
      "name": "withdrawFees",
      "outputs": [],
      "stateMutability": "nonpayable",
      "type": "function"
    }
  ],
  "bytecode": {
    "object": "0x60a06040523480156200001157600080fd5b50604051620012fc380380620012fc8339810160408190526200003491620002f9565b82826001600160a01b0382166200005e576040516348be0eb360e01b815260040160405180910390fd5b6001600160a01b038216608052805161271011620000b25760405162461bcd60e51b81526020600482015260146024820152600080516020620012dc83398151915260448201526064015b60405180910390fd5b612710816020015110620000f85760405162461bcd60e51b81526020600482015260146024820152600080516020620012dc8339815191526044820152606401620000a9565b6127108160400151106200013e5760405162461bcd60e51b81526020600482015260146024820152600080516020620012dc8339815191526044820152606401620000a9565b612710816060015110620001845760405162461bcd60e51b81526020600482015260146024820152600080516020620012dc8339815191526044820152606401620000a9565b80516002556020808201516003556040808301516004556060830151600555514281526001600160a01b038416917ff1a1fa6b64aa95186f5a1285e76198d0da80d9c5a88062641d447f1d7c54e56c910160405180910390a25060009050620001ee828262000431565b50505050620004fd565b634e487b7160e01b600052604160045260246000fd5b604051608081016001600160401b0381118282101715620002335762000233620001f8565b60405290565b604051601f8201601f191681016001600160401b0381118282101715620002645762000264620001f8565b604052919050565b600082601f8301126200027e57600080fd5b81516001600160401b038111156200029a576200029a620001f8565b6020620002b0601f8301601f1916820162000239565b8281528582848701011115620002c557600080fd5b60005b83811015620002e5578581018301518282018401528201620002c8565b506000928101909101919091529392505050565b600080600083850360c08112156200031057600080fd5b84516001600160a01b03811681146200032857600080fd5b93506080601f19820112156200033d57600080fd5b50620003486200020e565b602085015181526040850151602082015260608501516040820152608085015160608201528092505060a084015160018060401b038111156200038a57600080fd5b62000398868287016200026c565b9150509250925092565b600181811c90821680620003b757607f821691505b602082108103620003d857634e487b7160e01b600052602260045260246000fd5b50919050565b601f8211156200042c57600081815260208120601f850160051c81016020861015620004075750805b601f850160051c820191505b81811015620004285782815560010162000413565b5050505b505050565b81516001600160401b038111156200044d576200044d620001f8565b62000465816200045e8454620003a2565b84620003de565b602080601f8311600181146200049d5760008415620004845750858301515b600019600386901b1c1916600185901b17855562000428565b600085815260208120601f198616915b82811015620004ce57888601518255948401946001909101908401620004ad565b5085821015620004ed5787850151600019600388901b60f8161c191681555b5050505050600190811b01905550565b608051610d996200054360003960008181610244015281816102af015281816103ff01528181610574015281816105ed0152818161069801526107460152610d996000f3fe608060405234801561001057600080fd5b50600436106100ea5760003560e01c8063b4e87e8f1161008c578063c0c9572c11610066578063c0c9572c1461022c578063cb6090771461023f578063db8d55f11461027e578063e41759681461028f57600080fd5b8063b4e87e8f146101fe578063b5d701ba14610206578063be2f3fdd1461021957600080fd5b80634fe17e1a116100c85780634fe17e1a1461014a5780639a0ea37a1461016a5780639af1d35a14610195578063aee40bb9146101cb57600080fd5b806306890cd0146100ef578063164e68de146101155780634eaad1ee1461012a575b600080fd5b6101026100fd366004610856565b6102a2565b6040519081526020015b60405180910390f35b6101286101233660046108f2565b61036b565b005b610102610138366004610914565b60076020526000908152604090205481565b61015d610158366004610914565b61049c565b60405161010c919061092d565b61010261017836600461097b565b600160209081526000928352604080842090915290825290205481565b6002546003546004546005546101ab9392919084565b60408051948552602085019390935291830152606082015260800161010c565b6101ee6101d9366004610914565b60066020526000908152604090205460ff1681565b604051901515815260200161010c565b61015d6104d9565b6101026102143660046109ae565b610567565b610102610227366004610a20565b6105e0565b61010261023a366004610b1b565b61068b565b6102667f000000000000000000000000000000000000000000000000000000000000000081565b6040516001600160a01b03909116815260200161010c565b6002546003546004546005546101ab565b61012861029d366004610bdb565b61073b565b6000336001600160a01b037f000000000000000000000000000000000000000000000000000000000000000016146102ed57604051632ad9535160e01b815260040160405180910390fd5b60008581526006602052604090205460ff16156103425760405162461bcd60e51b815260206004820152600e60248201526d105b1c9958591e4818d85cda195960921b60448201526064015b60405180910390fd5b506000848152600660205260409020805460ff1916600117905560055498975050505050505050565b3360009081526001602081815260408084206001600160a01b0386168552909152909120549081116103d65760405162461bcd60e51b8152602060048201526014602482015273496e73756666696369656e7420726576656e756560601b6044820152606401610339565b3360009081526001602081815260408084206001600160a01b03878116865292529092208190557f00000000000000000000000000000000000000000000000000000000000000009091169063d6a4f84c9084906104349085610c66565b6040516001600160e01b031960e085901b1681526001600160a01b0390921660048301526024820152336044820152606401600060405180830381600087803b15801561048057600080fd5b505af1158015610494573d6000803e3d6000fd5b505050505050565b600081815260076020908152604080832054905160609391926104c29291849101610cc1565b604051602081830303815290604052915050919050565b600080546104e690610c8d565b80601f016020809104026020016040519081016040528092919081815260200182805461051290610c8d565b801561055f5780601f106105345761010080835404028352916020019161055f565b820191906000526020600020905b81548152906001019060200180831161054257829003601f168201915b505050505081565b6000336001600160a01b037f000000000000000000000000000000000000000000000000000000000000000016146105b257604051632ad9535160e01b815260040160405180910390fd5b60006105c083850185610914565b600089815260076020526040902055505060025498975050505050505050565b6000336001600160a01b037f0000000000000000000000000000000000000000000000000000000000000000161461062b57604051632ad9535160e01b815260040160405180910390fd5b60008581526006602052604090205460ff161561067b5760405162461bcd60e51b815260206004820152600e60248201526d105b1c9958591e4818d85cda195960921b6044820152606401610339565b5060045498975050505050505050565b6000336001600160a01b037f000000000000000000000000000000000000000000000000000000000000000016146106d657604051632ad9535160e01b815260040160405180910390fd5b60008681526006602052604090205460ff166107295760405162461bcd60e51b81526020600482015260126024820152714e656564732066756c6c2066756e64696e6760701b6044820152606401610339565b506003549a9950505050505050505050565b336001600160a01b037f0000000000000000000000000000000000000000000000000000000000000000161461078457604051632ad9535160e01b815260040160405180910390fd5b60008381526006602052604090205460ff166104945760405162461bcd60e51b8152602060048201526014602482015273135d5cdd0818994818d85cda195908199a5c9cdd60621b6044820152606401610339565b80356001600160a01b03811681146107f057600080fd5b919050565b60006080828403121561080757600080fd5b50919050565b60008083601f84011261081f57600080fd5b50813567ffffffffffffffff81111561083757600080fd5b60208301915083602082850101111561084f57600080fd5b9250929050565b600080600080600080600080610140898b03121561087357600080fd5b61087c896107d9565b975061088a60208a016107d9565b965061089860408a016107d9565b955060608901359450608089013593506108b58a60a08b016107f5565b925061012089013567ffffffffffffffff8111156108d257600080fd5b6108de8b828c0161080d565b999c989b5096995094979396929594505050565b60006020828403121561090457600080fd5b61090d826107d9565b9392505050565b60006020828403121561092657600080fd5b5035919050565b600060208083528351808285015260005b8181101561095a5785810183015185820160400152820161093e565b506000604082860101526040601f19601f8301168501019250505092915050565b6000806040838503121561098e57600080fd5b610997836107d9565b91506109a5602084016107d9565b90509250929050565b60008060008060008060008060e0898b0312156109ca57600080fd5b6109d3896107d9565b97506109e160208a016107d9565b9650604089013595506109f660608a016107d9565b94506080890135935060a0890135925060c089013567ffffffffffffffff8111156108d257600080fd5b600080600080600080600080610140898b031215610a3d57600080fd5b610a46896107d9565b9750610a5460208a016107d9565b96506040890135955060608901359450608089013593506108b58a60a08b016107f5565b634e487b7160e01b600052604160045260246000fd5b600082601f830112610a9f57600080fd5b813567ffffffffffffffff80821115610aba57610aba610a78565b604051601f8301601f19908116603f01168101908282118183101715610ae257610ae2610a78565b81604052838152866020858801011115610afb57600080fd5b836020870160208301376000602085830101528094505050505092915050565b6000806000806000806000806000806101408b8d031215610b3b57600080fd5b610b448b6107d9565b9950610b5260208c016107d9565b9850610b6060408c016107d9565b9750610b6e60608c016107d9565b9650610b7c60808c016107d9565b955060a08b01359450610b9160c08c016107d9565b935060e08b013592506101008b013591506101208b013567ffffffffffffffff811115610bbd57600080fd5b610bc98d828e01610a8e565b9150509295989b9194979a5092959850565b6000806000806000806101208789031215610bf557600080fd5b610bfe876107d9565b9550610c0c602088016107d9565b9450610c1a604088016107d9565b935060608701359250610c3088608089016107f5565b915061010087013567ffffffffffffffff811115610c4d57600080fd5b610c5989828a01610a8e565b9150509295509295509295565b81810381811115610c8757634e487b7160e01b600052601160045260246000fd5b92915050565b600181811c90821680610ca157607f821691505b60208210810361080757634e487b7160e01b600052602260045260246000fd5b600080845481600182811c915080831680610cdd57607f831692505b60208084108203610cfc57634e487b7160e01b86526022600452602486fd5b818015610d105760018114610d2557610d52565b60ff1986168952841515850289019650610d52565b60008b81526020902060005b86811015610d4a5781548b820152908501908301610d31565b505084890196505b50978552505050930194935050505056fea264697066735822122066198cfc6447007229ec79c83cfe33f606bdbf04f1be639ac198cd176f1cd62a64736f6c634300081000334d6f64756c653a2046656520746f6f2068696768000000000000000000000000",
    "linkReferences": {}
  },
  "methodIdentifiers": {
    "REGISTRAR()": "cb609077",
    "_URI()": "b4e87e8f",
    "fees()": "9af1d35a",
    "getFees()": "db8d55f1",
    "isCashed(uint256)": "aee40bb9",
    "processApproval(address,address,address,uint256,(address,uint256,uint256,address),bytes)": "e4175968",
    "processCash(address,address,address,uint256,uint256,(address,uint256,uint256,address),bytes)": "06890cd0",
    "processFund(address,address,uint256,uint256,uint256,(address,uint256,uint256,address),bytes)": "be2f3fdd",
    "processTokenURI(uint256)": "4fe17e1a",
    "processTransfer(address,address,address,address,address,uint256,address,uint256,uint256,bytes)": "c0c9572c",
    "processWrite(address,address,uint256,address,uint256,uint256,bytes)": "b5d701ba",
    "releaseDate(uint256)": "4eaad1ee",
    "revenue(address,address)": "9a0ea37a",
    "withdrawFees(address)": "164e68de"
  },
  "id": 51
}