{
  "abi": [
    {
      "inputs": [
        {
          "internalType": "address",
          "name": "registrar",
          "type": "address"
        },
        {
          "components": [
            {
              "internalType": "uint256",
              "name": "writeBPS",
              "type": "uint256"
            },
            {
              "internalType": "uint256",
              "name": "transferBPS",
              "type": "uint256"
            },
            {
              "internalType": "uint256",
              "name": "fundBPS",
              "type": "uint256"
            },
            {
              "internalType": "uint256",
              "name": "cashBPS",
              "type": "uint256"
            }
          ],
          "internalType": "struct DataTypes.WTFCFees",
          "name": "_fees",
          "type": "tuple"
        },
        {
          "internalType": "string",
          "name": "__baseURI",
          "type": "string"
        }
      ],
      "stateMutability": "nonpayable",
      "type": "constructor"
    },
    {
      "inputs": [],
      "name": "AddressZero",
      "type": "error"
    },
    {
      "inputs": [],
      "name": "AmountZero",
      "type": "error"
    },
    {
      "inputs": [],
      "name": "Disallowed",
      "type": "error"
    },
    {
      "inputs": [],
      "name": "EscrowUnsupported",
      "type": "error"
    },
    {
      "inputs": [],
      "name": "FeeTooHigh",
      "type": "error"
    },
    {
      "inputs": [],
      "name": "InitParamsInvalid",
      "type": "error"
    },
    {
      "inputs": [],
      "name": "InsufficientPayment",
      "type": "error"
    },
    {
      "inputs": [],
      "name": "InvoiceWithPay",
      "type": "error"
    },
    {
      "inputs": [],
      "name": "NotRegistrar",
      "type": "error"
    },
    {
      "inputs": [],
      "name": "OnlyOwner",
      "type": "error"
    },
    {
      "inputs": [],
      "name": "OnlyOwnerOrApproved",
      "type": "error"
    },
    {
      "anonymous": false,
      "inputs": [],
      "name": "PaymentCreated",
      "type": "event"
    },
    {
      "inputs": [],
      "name": "REGISTRAR",
      "outputs": [
        {
          "internalType": "address",
          "name": "",
          "type": "address"
        }
      ],
      "stateMutability": "view",
      "type": "function"
    },
    {
      "inputs": [],
      "name": "_URI",
      "outputs": [
        {
          "internalType": "string",
          "name": "",
          "type": "string"
        }
      ],
      "stateMutability": "view",
      "type": "function"
    },
    {
      "inputs": [
        {
          "internalType": "address",
          "name": "",
          "type": "address"
        }
      ],
      "name": "dappOperatorFees",
      "outputs": [
        {
          "internalType": "uint256",
          "name": "writeBPS",
          "type": "uint256"
        },
        {
          "internalType": "uint256",
          "name": "transferBPS",
          "type": "uint256"
        },
        {
          "internalType": "uint256",
          "name": "fundBPS",
          "type": "uint256"
        },
        {
          "internalType": "uint256",
          "name": "cashBPS",
          "type": "uint256"
        }
      ],
      "stateMutability": "view",
      "type": "function"
    },
    {
      "inputs": [
        {
          "internalType": "address",
          "name": "dappOperator",
          "type": "address"
        }
      ],
      "name": "getFees",
      "outputs": [
        {
          "components": [
            {
              "internalType": "uint256",
              "name": "writeBPS",
              "type": "uint256"
            },
            {
              "internalType": "uint256",
              "name": "transferBPS",
              "type": "uint256"
            },
            {
              "internalType": "uint256",
              "name": "fundBPS",
              "type": "uint256"
            },
            {
              "internalType": "uint256",
              "name": "cashBPS",
              "type": "uint256"
            }
          ],
          "internalType": "struct DataTypes.WTFCFees",
          "name": "",
          "type": "tuple"
        }
      ],
      "stateMutability": "view",
      "type": "function"
    },
    {
      "inputs": [
        {
          "internalType": "uint256",
          "name": "",
          "type": "uint256"
        }
      ],
      "name": "payments",
      "outputs": [
        {
          "internalType": "address",
          "name": "inspector",
          "type": "address"
        },
        {
          "internalType": "address",
          "name": "drawer",
          "type": "address"
        },
        {
          "internalType": "uint256",
          "name": "inspectionEnd",
          "type": "uint256"
        },
        {
          "internalType": "bytes32",
          "name": "memoHash",
          "type": "bytes32"
        }
      ],
      "stateMutability": "view",
      "type": "function"
    },
    {
      "inputs": [
        {
          "internalType": "address",
          "name": "caller",
          "type": "address"
        },
        {
          "internalType": "address",
          "name": "owner",
          "type": "address"
        },
        {
          "internalType": "address",
          "name": "to",
          "type": "address"
        },
        {
          "internalType": "uint256",
          "name": "cheqId",
          "type": "uint256"
        },
        {
          "components": [
            {
              "internalType": "address",
              "name": "currency",
              "type": "address"
            },
            {
              "internalType": "uint256",
              "name": "escrowed",
              "type": "uint256"
            },
            {
              "internalType": "uint256",
              "name": "createdAt",
              "type": "uint256"
            },
            {
              "internalType": "address",
              "name": "module",
              "type": "address"
            }
          ],
          "internalType": "struct DataTypes.Cheq",
          "name": "cheq",
          "type": "tuple"
        },
        {
          "internalType": "bytes",
          "name": "initData",
          "type": "bytes"
        }
      ],
      "name": "processApproval",
      "outputs": [],
      "stateMutability": "nonpayable",
      "type": "function"
    },
    {
      "inputs": [
        {
          "internalType": "address",
          "name": "caller",
          "type": "address"
        },
        {
          "internalType": "address",
          "name": "",
          "type": "address"
        },
        {
          "internalType": "address",
          "name": "",
          "type": "address"
        },
        {
          "internalType": "uint256",
          "name": "amount",
          "type": "uint256"
        },
        {
          "internalType": "uint256",
          "name": "cheqId",
          "type": "uint256"
        },
        {
          "components": [
            {
              "internalType": "address",
              "name": "currency",
              "type": "address"
            },
            {
              "internalType": "uint256",
              "name": "escrowed",
              "type": "uint256"
            },
            {
              "internalType": "uint256",
              "name": "createdAt",
              "type": "uint256"
            },
            {
              "internalType": "address",
              "name": "module",
              "type": "address"
            }
          ],
          "internalType": "struct DataTypes.Cheq",
          "name": "cheq",
          "type": "tuple"
        },
        {
          "internalType": "bytes",
          "name": "initData",
          "type": "bytes"
        }
      ],
      "name": "processCash",
      "outputs": [
        {
          "internalType": "uint256",
          "name": "",
          "type": "uint256"
        }
      ],
      "stateMutability": "nonpayable",
      "type": "function"
    },
    {
      "inputs": [
        {
          "internalType": "address",
          "name": "",
          "type": "address"
        },
        {
          "internalType": "address",
          "name": "",
          "type": "address"
        },
        {
          "internalType": "uint256",
          "name": "",
          "type": "uint256"
        },
        {
          "internalType": "uint256",
          "name": "",
          "type": "uint256"
        },
        {
          "internalType": "uint256",
          "name": "",
          "type": "uint256"
        },
        {
          "components": [
            {
              "internalType": "address",
              "name": "currency",
              "type": "address"
            },
            {
              "internalType": "uint256",
              "name": "escrowed",
              "type": "uint256"
            },
            {
              "internalType": "uint256",
              "name": "createdAt",
              "type": "uint256"
            },
            {
              "internalType": "address",
              "name": "module",
              "type": "address"
            }
          ],
          "internalType": "struct DataTypes.Cheq",
          "name": "",
          "type": "tuple"
        },
        {
          "internalType": "bytes",
          "name": "",
          "type": "bytes"
        }
      ],
      "name": "processFund",
      "outputs": [
        {
          "internalType": "uint256",
          "name": "",
          "type": "uint256"
        }
      ],
      "stateMutability": "view",
      "type": "function"
    },
    {
      "inputs": [
        {
          "internalType": "uint256",
          "name": "tokenId",
          "type": "uint256"
        }
      ],
      "name": "processTokenURI",
      "outputs": [
        {
          "internalType": "string",
          "name": "",
          "type": "string"
        }
      ],
      "stateMutability": "view",
      "type": "function"
    },
    {
      "inputs": [
        {
          "internalType": "address",
          "name": "caller",
          "type": "address"
        },
        {
          "internalType": "address",
          "name": "approved",
          "type": "address"
        },
        {
          "internalType": "address",
          "name": "owner",
          "type": "address"
        },
        {
          "internalType": "address",
          "name": "",
          "type": "address"
        },
        {
          "internalType": "address",
          "name": "",
          "type": "address"
        },
        {
          "internalType": "uint256",
          "name": "",
          "type": "uint256"
        },
        {
          "internalType": "address",
          "name": "currency",
          "type": "address"
        },
        {
          "internalType": "uint256",
          "name": "escrowed",
          "type": "uint256"
        },
        {
          "internalType": "uint256",
          "name": "",
          "type": "uint256"
        },
        {
          "internalType": "bytes",
          "name": "data",
          "type": "bytes"
        }
      ],
      "name": "processTransfer",
      "outputs": [
        {
          "internalType": "uint256",
          "name": "",
          "type": "uint256"
        }
      ],
      "stateMutability": "nonpayable",
      "type": "function"
    },
    {
      "inputs": [
        {
          "internalType": "address",
          "name": "caller",
          "type": "address"
        },
        {
          "internalType": "address",
          "name": "owner",
          "type": "address"
        },
        {
          "internalType": "uint256",
          "name": "cheqId",
          "type": "uint256"
        },
        {
          "internalType": "address",
          "name": "currency",
          "type": "address"
        },
        {
          "internalType": "uint256",
          "name": "escrowed",
          "type": "uint256"
        },
        {
          "internalType": "uint256",
          "name": "instant",
          "type": "uint256"
        },
        {
          "internalType": "bytes",
          "name": "initData",
          "type": "bytes"
        }
      ],
      "name": "processWrite",
      "outputs": [
        {
          "internalType": "uint256",
          "name": "",
          "type": "uint256"
        }
      ],
      "stateMutability": "nonpayable",
      "type": "function"
    },
    {
      "inputs": [
        {
          "internalType": "address",
          "name": "",
          "type": "address"
        },
        {
          "internalType": "address",
          "name": "",
          "type": "address"
        }
      ],
      "name": "revenue",
      "outputs": [
        {
          "internalType": "uint256",
          "name": "",
          "type": "uint256"
        }
      ],
      "stateMutability": "view",
      "type": "function"
    },
    {
      "inputs": [
        {
          "components": [
            {
              "internalType": "uint256",
              "name": "writeBPS",
              "type": "uint256"
            },
            {
              "internalType": "uint256",
              "name": "transferBPS",
              "type": "uint256"
            },
            {
              "internalType": "uint256",
              "name": "fundBPS",
              "type": "uint256"
            },
            {
              "internalType": "uint256",
              "name": "cashBPS",
              "type": "uint256"
            }
          ],
          "internalType": "struct DataTypes.WTFCFees",
          "name": "_fees",
          "type": "tuple"
        }
      ],
      "name": "setFees",
      "outputs": [],
      "stateMutability": "nonpayable",
      "type": "function"
    },
    {
      "inputs": [
        {
          "internalType": "address",
          "name": "token",
          "type": "address"
        }
      ],
      "name": "withdrawFees",
      "outputs": [],
      "stateMutability": "nonpayable",
      "type": "function"
    }
  ],
  "bytecode": {
    "object": "0x60a06040523480156200001157600080fd5b5060405162001b0138038062001b0183398101604081905262000034916200029e565b82826001600160a01b0382166200005e576040516348be0eb360e01b815260040160405180910390fd5b6001600160a01b03821660805280516127101015620000905760405163cd4e616760e01b815260040160405180910390fd5b80602001516127101015620000b85760405163cd4e616760e01b815260040160405180910390fd5b80604001516127101015620000e05760405163cd4e616760e01b815260040160405180910390fd5b80606001516127101015620001085760405163cd4e616760e01b815260040160405180910390fd5b336000908152600160208181526040928390208451815590840151918101919091558183015160028201556060830151600390910155516001600160a01b038316907ff1a1fa6b64aa95186f5a1285e76198d0da80d9c5a88062641d447f1d7c54e56c906200017a9042815260200190565b60405180910390a25060029050620001938282620003d6565b50505050620004a2565b634e487b7160e01b600052604160045260246000fd5b604051608081016001600160401b0381118282101715620001d857620001d86200019d565b60405290565b604051601f8201601f191681016001600160401b03811182821017156200020957620002096200019d565b604052919050565b600082601f8301126200022357600080fd5b81516001600160401b038111156200023f576200023f6200019d565b602062000255601f8301601f19168201620001de565b82815285828487010111156200026a57600080fd5b60005b838110156200028a5785810183015182820184015282016200026d565b506000928101909101919091529392505050565b600080600083850360c0811215620002b557600080fd5b84516001600160a01b0381168114620002cd57600080fd5b93506080601f1982011215620002e257600080fd5b50620002ed620001b3565b602085015181526040850151602082015260608501516040820152608085015160608201528092505060a084015160018060401b038111156200032f57600080fd5b6200033d8682870162000211565b9150509250925092565b600181811c908216806200035c57607f821691505b6020821081036200037d57634e487b7160e01b600052602260045260246000fd5b50919050565b601f821115620003d157600081815260208120601f850160051c81016020861015620003ac5750805b601f850160051c820191505b81811015620003cd57828155600101620003b8565b5050505b505050565b81516001600160401b03811115620003f257620003f26200019d565b6200040a8162000403845462000347565b8462000383565b602080601f831160018114620004425760008415620004295750858301515b600019600386901b1c1916600185901b178555620003cd565b600085815260208120601f198616915b82811015620004735788860151825594840194600190910190840162000452565b5085821015620004925787850151600019600388901b60f8161c191681555b5050505050600190811b01905550565b608051611619620004e8600039600081816102dd0152818161039801528181610585015281816107cb01528181610a1501528181610ac20152610c2c01526116196000f3fe608060405234801561001057600080fd5b50600436106100ea5760003560e01c8063b4e87e8f1161008c578063c0c9572c11610066578063c0c9572c146102c5578063cb609077146102d8578063e417596814610324578063fd77c9601461033757600080fd5b8063b4e87e8f14610297578063b5d701ba1461029f578063be2f3fdd146102b257600080fd5b80634fe17e1a116100c85780634fe17e1a1461018057806387d81789146101a05780639a0ea37a146102295780639af608c91461025157600080fd5b806306890cd0146100ef5780631385a7b614610115578063164e68de1461016b575b600080fd5b6101026100fd366004610e69565b61037e565b6040519081526020015b60405180910390f35b61014b610123366004610f0b565b6001602081905260009182526040909120805491810154600282015460039092015490919084565b60408051948552602085019390935291830152606082015260800161010c565b61017e610179366004610f0b565b6104b5565b005b61019361018e366004610f2f565b610647565b60405161010c9190610f48565b6101f16101ae366004610f2f565b6003602081905260009182526040909120805460018201546002830154929093015473ffffffffffffffffffffffffffffffffffffffff91821693909116919084565b6040805173ffffffffffffffffffffffffffffffffffffffff958616815294909316602085015291830152606082015260800161010c565b610102610237366004610fb4565b600060208181529281526040808220909352908152205481565b61026461025f366004610f0b565b61069e565b60405161010c91908151815260208083015190820152604080830151908201526060918201519181019190915260800190565b610193610723565b6101026102ad366004610fed565b6107b1565b6101026102c0366004611065565b6109fb565b6101026102d336600461119b565b610aa8565b6102ff7f000000000000000000000000000000000000000000000000000000000000000081565b60405173ffffffffffffffffffffffffffffffffffffffff909116815260200161010c565b61017e610332366004611265565b610c14565b61017e6103453660046112f6565b33600090815260016020818152604092839020845181559084015191810191909155908201516002820155606090910151600390910155565b60003373ffffffffffffffffffffffffffffffffffffffff7f000000000000000000000000000000000000000000000000000000000000000016146103ef576040517f2ad9535100000000000000000000000000000000000000000000000000000000815260040160405180910390fd5b60008581526003602052604090205473ffffffffffffffffffffffffffffffffffffffff8a8116911614610484576040517f08c379a000000000000000000000000000000000000000000000000000000000815260206004820152601860248201527f496e73706563746f72206361736820666f72206f776e6572000000000000000060448201526064015b60405180910390fd5b6104a86104946020860186610f0b565b876104a185870187610f0b565b6003610c83565b9998505050505050505050565b3360009081526020818152604080832073ffffffffffffffffffffffffffffffffffffffff851684529091529020546001811161054e576040517f08c379a000000000000000000000000000000000000000000000000000000000815260206004820152601460248201527f496e73756666696369656e7420726576656e7565000000000000000000000000604482015260640161047b565b3360009081526020818152604080832073ffffffffffffffffffffffffffffffffffffffff868116855292529091206001908190557f00000000000000000000000000000000000000000000000000000000000000009091169063d6a4f84c9084906105ba908561138b565b6040517fffffffff0000000000000000000000000000000000000000000000000000000060e085901b16815273ffffffffffffffffffffffffffffffffffffffff90921660048301526024820152336044820152606401600060405180830381600087803b15801561062b57600080fd5b505af115801561063f573d6000803e3d6000fd5b505050505050565b60606000600280546106589061139e565b9050116106745760405180602001604052806000815250610698565b6002826040516020016106889291906113eb565b6040516020818303038152906040525b92915050565b6106c96040518060800160405280600081526020016000815260200160008152602001600081525090565b5073ffffffffffffffffffffffffffffffffffffffff166000908152600160208181526040928390208351608081018552815481529281015491830191909152600281015492820192909252600390910154606082015290565b600280546107309061139e565b80601f016020809104026020016040519081016040528092919081815260200182805461075c9061139e565b80156107a95780601f1061077e576101008083540402835291602001916107a9565b820191906000526020600020905b81548152906001019060200180831161078c57829003601f168201915b505050505081565b60003373ffffffffffffffffffffffffffffffffffffffff7f00000000000000000000000000000000000000000000000000000000000000001614610822576040517f2ad9535100000000000000000000000000000000000000000000000000000000815260040160405180910390fd5b6000808080610833868801886114f3565b93509350935093508b73ffffffffffffffffffffffffffffffffffffffff168d73ffffffffffffffffffffffffffffffffffffffff161415801561088c575073ffffffffffffffffffffffffffffffffffffffff8c1615155b6108f2576040517f08c379a000000000000000000000000000000000000000000000000000000000815260206004820152600e60248201527f496e76616c696420506172616d73000000000000000000000000000000000000604482015260640161047b565b83600360008d815260200190815260200160002060000160006101000a81548173ffffffffffffffffffffffffffffffffffffffff021916908373ffffffffffffffffffffffffffffffffffffffff16021790555082600360008d8152602001908152602001600020600201819055508c600360008d815260200190815260200160002060010160006101000a81548173ffffffffffffffffffffffffffffffffffffffff021916908373ffffffffffffffffffffffffffffffffffffffff16021790555080600360008d8152602001908152602001600020600301819055506109ea8a898b6109e2919061153b565b846000610c83565b9d9c50505050505050505050505050565b60003373ffffffffffffffffffffffffffffffffffffffff7f00000000000000000000000000000000000000000000000000000000000000001614610a6c576040517f2ad9535100000000000000000000000000000000000000000000000000000000815260040160405180910390fd5b6040517f08c379a0000000000000000000000000000000000000000000000000000000008152602060048201526000602482015260440161047b565b60003373ffffffffffffffffffffffffffffffffffffffff7f00000000000000000000000000000000000000000000000000000000000000001614610b19576040517f2ad9535100000000000000000000000000000000000000000000000000000000815260040160405180910390fd5b8873ffffffffffffffffffffffffffffffffffffffff168b73ffffffffffffffffffffffffffffffffffffffff161480610b7e57508973ffffffffffffffffffffffffffffffffffffffff168b73ffffffffffffffffffffffffffffffffffffffff16145b610be4576040517f08c379a000000000000000000000000000000000000000000000000000000000815260206004820152601660248201527f4f6e6c79206f776e6572206f7220617070726f76656400000000000000000000604482015260640161047b565b610c0585600084806020019051810190610bfe919061154e565b6001610c83565b9b9a5050505050505050505050565b3373ffffffffffffffffffffffffffffffffffffffff7f0000000000000000000000000000000000000000000000000000000000000000161461063f576040517f2ad9535100000000000000000000000000000000000000000000000000000000815260040160405180910390fd5b60008160ff16600003610cbc575073ffffffffffffffffffffffffffffffffffffffff8216600090815260016020526040902054610d67565b8160ff16600103610cf7575073ffffffffffffffffffffffffffffffffffffffff821660009081526001602081905260409091200154610d67565b8160ff16600203610d31575073ffffffffffffffffffffffffffffffffffffffff8216600090815260016020526040902060020154610d67565b8160ff16600303610a6c575073ffffffffffffffffffffffffffffffffffffffff82166000908152600160205260409020600301545b612710610d74828661156b565b610d7e91906115a8565b73ffffffffffffffffffffffffffffffffffffffff808516600090815260208181526040808320938a16835292905290812080549293508392909190610dc590849061153b565b909155509095945050505050565b73ffffffffffffffffffffffffffffffffffffffff81168114610df557600080fd5b50565b8035610e0381610dd3565b919050565b600060808284031215610e1a57600080fd5b50919050565b60008083601f840112610e3257600080fd5b50813567ffffffffffffffff811115610e4a57600080fd5b602083019150836020828501011115610e6257600080fd5b9250929050565b600080600080600080600080610140898b031215610e8657600080fd5b8835610e9181610dd3565b97506020890135610ea181610dd3565b96506040890135610eb181610dd3565b95506060890135945060808901359350610ece8a60a08b01610e08565b925061012089013567ffffffffffffffff811115610eeb57600080fd5b610ef78b828c01610e20565b999c989b5096995094979396929594505050565b600060208284031215610f1d57600080fd5b8135610f2881610dd3565b9392505050565b600060208284031215610f4157600080fd5b5035919050565b600060208083528351808285015260005b81811015610f7557858101830151858201604001528201610f59565b5060006040828601015260407fffffffffffffffffffffffffffffffffffffffffffffffffffffffffffffffe0601f8301168501019250505092915050565b60008060408385031215610fc757600080fd5b8235610fd281610dd3565b91506020830135610fe281610dd3565b809150509250929050565b60008060008060008060008060e0898b03121561100957600080fd5b883561101481610dd3565b9750602089013561102481610dd3565b965060408901359550606089013561103b81610dd3565b94506080890135935060a0890135925060c089013567ffffffffffffffff811115610eeb57600080fd5b600080600080600080600080610140898b03121561108257600080fd5b883561108d81610dd3565b9750602089013561109d81610dd3565b9650604089013595506060890135945060808901359350610ece8a60a08b01610e08565b7f4e487b7100000000000000000000000000000000000000000000000000000000600052604160045260246000fd5b600082601f83011261110157600080fd5b813567ffffffffffffffff8082111561111c5761111c6110c1565b604051601f83017fffffffffffffffffffffffffffffffffffffffffffffffffffffffffffffffe0908116603f01168101908282118183101715611162576111626110c1565b8160405283815286602085880101111561117b57600080fd5b836020870160208301376000602085830101528094505050505092915050565b6000806000806000806000806000806101408b8d0312156111bb57600080fd5b8a356111c681610dd3565b995060208b01356111d681610dd3565b985060408b01356111e681610dd3565b975060608b01356111f681610dd3565b965060808b013561120681610dd3565b955060a08b0135945061121b60c08c01610df8565b935060e08b013592506101008b013591506101208b013567ffffffffffffffff81111561124757600080fd5b6112538d828e016110f0565b9150509295989b9194979a5092959850565b600080600080600080610120878903121561127f57600080fd5b863561128a81610dd3565b9550602087013561129a81610dd3565b945060408701356112aa81610dd3565b9350606087013592506112c08860808901610e08565b915061010087013567ffffffffffffffff8111156112dd57600080fd5b6112e989828a016110f0565b9150509295509295509295565b60006080828403121561130857600080fd5b6040516080810181811067ffffffffffffffff8211171561132b5761132b6110c1565b8060405250823581526020830135602082015260408301356040820152606083013560608201528091505092915050565b7f4e487b7100000000000000000000000000000000000000000000000000000000600052601160045260246000fd5b818103818111156106985761069861135c565b600181811c908216806113b257607f821691505b602082108103610e1a577f4e487b7100000000000000000000000000000000000000000000000000000000600052602260045260246000fd5b7f2c2265787465726e616c5f75726c223a000000000000000000000000000000008152600060106000855481600182811c91508083168061142d57607f831692505b60208084108203611465577f4e487b710000000000000000000000000000000000000000000000000000000086526022600452602486fd5b81801561147957600181146114b0576114e1565b7fffffffffffffffffffffffffffffffffffffffffffffffffffffffffffffff008616888b01528785151586028b010196506114e1565b60008c81526020902060005b868110156114d75781548c82018b01529085019083016114bc565b505087858b010196505b50988552505050940195945050505050565b6000806000806080858703121561150957600080fd5b843561151481610dd3565b935060208501359250604085013561152b81610dd3565b9396929550929360600135925050565b808201808211156106985761069861135c565b60006020828403121561156057600080fd5b8151610f2881610dd3565b6000817fffffffffffffffffffffffffffffffffffffffffffffffffffffffffffffffff04831182151516156115a3576115a361135c565b500290565b6000826115de577f4e487b7100000000000000000000000000000000000000000000000000000000600052601260045260246000fd5b50049056fea264697066735822122035aea10f3b6b7f54209bab6565c5b802edd55f25535addbf21e403a885ab651b64736f6c63430008100033",
    "linkReferences": {}
  },
  "methodIdentifiers": {
    "REGISTRAR()": "cb609077",
    "_URI()": "b4e87e8f",
    "dappOperatorFees(address)": "1385a7b6",
    "getFees(address)": "9af608c9",
    "payments(uint256)": "87d81789",
    "processApproval(address,address,address,uint256,(address,uint256,uint256,address),bytes)": "e4175968",
    "processCash(address,address,address,uint256,uint256,(address,uint256,uint256,address),bytes)": "06890cd0",
    "processFund(address,address,uint256,uint256,uint256,(address,uint256,uint256,address),bytes)": "be2f3fdd",
    "processTokenURI(uint256)": "4fe17e1a",
    "processTransfer(address,address,address,address,address,uint256,address,uint256,uint256,bytes)": "c0c9572c",
    "processWrite(address,address,uint256,address,uint256,uint256,bytes)": "b5d701ba",
    "revenue(address,address)": "9a0ea37a",
    "setFees((uint256,uint256,uint256,uint256))": "fd77c960",
    "withdrawFees(address)": "164e68de"
  },
  "id": 51
}