{
  "abi": [
    {
      "inputs": [
        {
          "internalType": "address",
          "name": "registrar",
          "type": "address"
        },
        {
          "components": [
            {
              "internalType": "uint256",
              "name": "writeBPS",
              "type": "uint256"
            },
            {
              "internalType": "uint256",
              "name": "transferBPS",
              "type": "uint256"
            },
            {
              "internalType": "uint256",
              "name": "fundBPS",
              "type": "uint256"
            },
            {
              "internalType": "uint256",
              "name": "cashBPS",
              "type": "uint256"
            }
          ],
          "internalType": "struct DataTypes.WTFCFees",
          "name": "_fees",
          "type": "tuple"
        },
        {
          "internalType": "string",
          "name": "__baseURI",
          "type": "string"
        }
      ],
      "stateMutability": "nonpayable",
      "type": "constructor"
    },
    {
      "inputs": [],
      "name": "InitParamsInvalid",
      "type": "error"
    },
    {
      "inputs": [],
      "name": "NotRegistrar",
      "type": "error"
    },
    {
      "inputs": [],
      "name": "REGISTRAR",
      "outputs": [
        {
          "internalType": "address",
          "name": "",
          "type": "address"
        }
      ],
      "stateMutability": "view",
      "type": "function"
    },
    {
      "inputs": [],
      "name": "_URI",
      "outputs": [
        {
          "internalType": "string",
          "name": "",
          "type": "string"
        }
      ],
      "stateMutability": "view",
      "type": "function"
    },
    {
      "inputs": [],
      "name": "fees",
      "outputs": [
        {
          "internalType": "uint256",
          "name": "writeBPS",
          "type": "uint256"
        },
        {
          "internalType": "uint256",
          "name": "transferBPS",
          "type": "uint256"
        },
        {
          "internalType": "uint256",
          "name": "fundBPS",
          "type": "uint256"
        },
        {
          "internalType": "uint256",
          "name": "cashBPS",
          "type": "uint256"
        }
      ],
      "stateMutability": "view",
      "type": "function"
    },
    {
      "inputs": [],
      "name": "getFees",
      "outputs": [
        {
          "internalType": "uint256",
          "name": "",
          "type": "uint256"
        },
        {
          "internalType": "uint256",
          "name": "",
          "type": "uint256"
        },
        {
          "internalType": "uint256",
          "name": "",
          "type": "uint256"
        },
        {
          "internalType": "uint256",
          "name": "",
          "type": "uint256"
        }
      ],
      "stateMutability": "view",
      "type": "function"
    },
    {
      "inputs": [
        {
          "internalType": "uint256",
          "name": "",
          "type": "uint256"
        }
      ],
      "name": "payments",
      "outputs": [
        {
          "internalType": "address",
          "name": "inspector",
          "type": "address"
        },
        {
          "internalType": "address",
          "name": "drawer",
          "type": "address"
        },
        {
          "internalType": "uint256",
          "name": "inspectionEnd",
          "type": "uint256"
        },
        {
          "internalType": "bytes32",
          "name": "memoHash",
          "type": "bytes32"
        }
      ],
      "stateMutability": "view",
      "type": "function"
    },
    {
      "inputs": [
        {
          "internalType": "address",
          "name": "caller",
          "type": "address"
        },
        {
          "internalType": "address",
          "name": "owner",
          "type": "address"
        },
        {
          "internalType": "address",
          "name": "to",
          "type": "address"
        },
        {
          "internalType": "uint256",
          "name": "cheqId",
          "type": "uint256"
        },
        {
          "components": [
            {
              "internalType": "address",
              "name": "currency",
              "type": "address"
            },
            {
              "internalType": "uint256",
              "name": "escrowed",
              "type": "uint256"
            },
            {
              "internalType": "uint256",
              "name": "createdAt",
              "type": "uint256"
            },
            {
              "internalType": "address",
              "name": "module",
              "type": "address"
            }
          ],
          "internalType": "struct DataTypes.Cheq",
          "name": "cheq",
          "type": "tuple"
        },
        {
          "internalType": "bytes",
          "name": "initData",
          "type": "bytes"
        }
      ],
      "name": "processApproval",
      "outputs": [],
      "stateMutability": "nonpayable",
      "type": "function"
    },
    {
      "inputs": [
        {
          "internalType": "address",
          "name": "caller",
          "type": "address"
        },
        {
          "internalType": "address",
          "name": "",
          "type": "address"
        },
        {
          "internalType": "address",
          "name": "",
          "type": "address"
        },
        {
          "internalType": "uint256",
          "name": "amount",
          "type": "uint256"
        },
        {
          "internalType": "uint256",
          "name": "cheqId",
          "type": "uint256"
        },
        {
          "components": [
            {
              "internalType": "address",
              "name": "currency",
              "type": "address"
            },
            {
              "internalType": "uint256",
              "name": "escrowed",
              "type": "uint256"
            },
            {
              "internalType": "uint256",
              "name": "createdAt",
              "type": "uint256"
            },
            {
              "internalType": "address",
              "name": "module",
              "type": "address"
            }
          ],
          "internalType": "struct DataTypes.Cheq",
          "name": "cheq",
          "type": "tuple"
        },
        {
          "internalType": "bytes",
          "name": "initData",
          "type": "bytes"
        }
      ],
      "name": "processCash",
      "outputs": [
        {
          "internalType": "uint256",
          "name": "",
          "type": "uint256"
        }
      ],
      "stateMutability": "nonpayable",
      "type": "function"
    },
    {
      "inputs": [
        {
          "internalType": "address",
          "name": "",
          "type": "address"
        },
        {
          "internalType": "address",
          "name": "",
          "type": "address"
        },
        {
          "internalType": "uint256",
          "name": "",
          "type": "uint256"
        },
        {
          "internalType": "uint256",
          "name": "",
          "type": "uint256"
        },
        {
          "internalType": "uint256",
          "name": "",
          "type": "uint256"
        },
        {
          "components": [
            {
              "internalType": "address",
              "name": "currency",
              "type": "address"
            },
            {
              "internalType": "uint256",
              "name": "escrowed",
              "type": "uint256"
            },
            {
              "internalType": "uint256",
              "name": "createdAt",
              "type": "uint256"
            },
            {
              "internalType": "address",
              "name": "module",
              "type": "address"
            }
          ],
          "internalType": "struct DataTypes.Cheq",
          "name": "",
          "type": "tuple"
        },
        {
          "internalType": "bytes",
          "name": "",
          "type": "bytes"
        }
      ],
      "name": "processFund",
      "outputs": [
        {
          "internalType": "uint256",
          "name": "",
          "type": "uint256"
        }
      ],
      "stateMutability": "view",
      "type": "function"
    },
    {
      "inputs": [
        {
          "internalType": "uint256",
          "name": "tokenId",
          "type": "uint256"
        }
      ],
      "name": "processTokenURI",
      "outputs": [
        {
          "internalType": "string",
          "name": "",
          "type": "string"
        }
      ],
      "stateMutability": "view",
      "type": "function"
    },
    {
      "inputs": [
        {
          "internalType": "address",
          "name": "caller",
          "type": "address"
        },
        {
          "internalType": "address",
          "name": "approved",
          "type": "address"
        },
        {
          "internalType": "address",
          "name": "owner",
          "type": "address"
        },
        {
          "internalType": "address",
          "name": "",
          "type": "address"
        },
        {
          "internalType": "address",
          "name": "",
          "type": "address"
        },
        {
          "internalType": "uint256",
          "name": "",
          "type": "uint256"
        },
        {
          "internalType": "address",
          "name": "currency",
          "type": "address"
        },
        {
          "internalType": "uint256",
          "name": "escrowed",
          "type": "uint256"
        },
        {
          "internalType": "uint256",
          "name": "",
          "type": "uint256"
        },
        {
          "internalType": "bytes",
          "name": "",
          "type": "bytes"
        }
      ],
      "name": "processTransfer",
      "outputs": [
        {
          "internalType": "uint256",
          "name": "",
          "type": "uint256"
        }
      ],
      "stateMutability": "nonpayable",
      "type": "function"
    },
    {
      "inputs": [
        {
          "internalType": "address",
          "name": "caller",
          "type": "address"
        },
        {
          "internalType": "address",
          "name": "owner",
          "type": "address"
        },
        {
          "internalType": "uint256",
          "name": "cheqId",
          "type": "uint256"
        },
        {
          "internalType": "address",
          "name": "currency",
          "type": "address"
        },
        {
          "internalType": "uint256",
          "name": "escrowed",
          "type": "uint256"
        },
        {
          "internalType": "uint256",
          "name": "instant",
          "type": "uint256"
        },
        {
          "internalType": "bytes",
          "name": "initData",
          "type": "bytes"
        }
      ],
      "name": "processWrite",
      "outputs": [
        {
          "internalType": "uint256",
          "name": "",
          "type": "uint256"
        }
      ],
      "stateMutability": "nonpayable",
      "type": "function"
    },
    {
      "inputs": [
        {
          "internalType": "address",
          "name": "",
          "type": "address"
        },
        {
          "internalType": "address",
          "name": "",
          "type": "address"
        }
      ],
      "name": "revenue",
      "outputs": [
        {
          "internalType": "uint256",
          "name": "",
          "type": "uint256"
        }
      ],
      "stateMutability": "view",
      "type": "function"
    },
    {
      "inputs": [
        {
          "internalType": "address",
          "name": "token",
          "type": "address"
        }
      ],
      "name": "withdrawFees",
      "outputs": [],
      "stateMutability": "nonpayable",
      "type": "function"
    }
  ],
  "bytecode": {
    "object": "0x60a06040523480156200001157600080fd5b5060405162001554380380620015548339810160408190526200003491620002f9565b82826001600160a01b0382166200005e576040516348be0eb360e01b815260040160405180910390fd5b6001600160a01b038216608052805161271011620000b25760405162461bcd60e51b815260206004820152601460248201526000805160206200153483398151915260448201526064015b60405180910390fd5b612710816020015110620000f85760405162461bcd60e51b81526020600482015260146024820152600080516020620015348339815191526044820152606401620000a9565b6127108160400151106200013e5760405162461bcd60e51b81526020600482015260146024820152600080516020620015348339815191526044820152606401620000a9565b612710816060015110620001845760405162461bcd60e51b81526020600482015260146024820152600080516020620015348339815191526044820152606401620000a9565b80516001556020808201516002556040808301516003556060830151600455514281526001600160a01b038416917ff1a1fa6b64aa95186f5a1285e76198d0da80d9c5a88062641d447f1d7c54e56c910160405180910390a25060059050620001ee828262000431565b50505050620004fd565b634e487b7160e01b600052604160045260246000fd5b604051608081016001600160401b0381118282101715620002335762000233620001f8565b60405290565b604051601f8201601f191681016001600160401b0381118282101715620002645762000264620001f8565b604052919050565b600082601f8301126200027e57600080fd5b81516001600160401b038111156200029a576200029a620001f8565b6020620002b0601f8301601f1916820162000239565b8281528582848701011115620002c557600080fd5b60005b83811015620002e5578581018301518282018401528201620002c8565b506000928101909101919091529392505050565b600080600083850360c08112156200031057600080fd5b84516001600160a01b03811681146200032857600080fd5b93506080601f19820112156200033d57600080fd5b50620003486200020e565b602085015181526040850151602082015260608501516040820152608085015160608201528092505060a084015160018060401b038111156200038a57600080fd5b62000398868287016200026c565b9150509250925092565b600181811c90821680620003b757607f821691505b602082108103620003d857634e487b7160e01b600052602260045260246000fd5b50919050565b601f8211156200042c57600081815260208120601f850160051c81016020861015620004075750805b601f850160051c820191505b81811015620004285782815560010162000413565b5050505b505050565b81516001600160401b038111156200044d576200044d620001f8565b62000465816200045e8454620003a2565b84620003de565b602080601f8311600181146200049d5760008415620004845750858301515b600019600386901b1c1916600185901b17855562000428565b600085815260208120601f198616915b82811015620004ce57888601518255948401946001909101908401620004ad565b5085821015620004ed5787850151600019600388901b60f8161c191681555b5050505050600190811b01905550565b608051610fea6200054a60003960008181610240015281816102ab0152818161041b015281816105aa0152818161073e015281816107ab0152818161086801526108a60152610fea6000f3fe608060405234801561001057600080fd5b50600436106100cf5760003560e01c8063b4e87e8f1161008c578063c0c9572c11610066578063c0c9572c14610228578063cb6090771461023b578063db8d55f11461027a578063e41759681461028b57600080fd5b8063b4e87e8f146101fa578063b5d701ba14610202578063be2f3fdd1461021557600080fd5b806306890cd0146100d4578063164e68de146100fa5780634fe17e1a1461010f57806387d817891461012f5780639a0ea37a1461019c5780639af1d35a146101c4575b600080fd5b6100e76100e23660046109e1565b61029e565b6040519081526020015b60405180910390f35b61010d610108366004610a83565b610388565b005b61012261011d366004610aa7565b6104b8565b6040516100f19190610ac0565b61017161013d366004610aa7565b60066020526000908152604090208054600182015460028301546003909301546001600160a01b0392831693919092169184565b604080516001600160a01b0395861681529490931660208501529183015260608201526080016100f1565b6100e76101aa366004610b0e565b600060208181529281526040808220909352908152205481565b6001546002546003546004546101da9392919084565b6040805194855260208501939093529183015260608201526080016100f1565b61012261050f565b6100e7610210366004610b47565b61059d565b6100e7610223366004610bbf565b610731565b6100e7610236366004610cbe565b61079e565b6102627f000000000000000000000000000000000000000000000000000000000000000081565b6040516001600160a01b0390911681526020016100f1565b6001546002546003546004546101da565b61010d610299366004610d88565b61089b565b6000336001600160a01b037f000000000000000000000000000000000000000000000000000000000000000016146102e957604051632ad9535160e01b815260040160405180910390fd5b6000858152600660205260409020546001600160a01b038a81169116146103575760405162461bcd60e51b815260206004820152601860248201527f496e73706563746f72206361736820666f72206f776e6572000000000000000060448201526064015b60405180910390fd5b61037b60008761036a6020880188610a83565b61037686880188610a83565b6108e4565b9998505050505050505050565b336000908152602081815260408083206001600160a01b0385168452909152902054600181116103f15760405162461bcd60e51b8152602060048201526014602482015273496e73756666696369656e7420726576656e756560601b604482015260640161034e565b336000908152602081815260408083206001600160a01b03868116855292529091206001908190557f00000000000000000000000000000000000000000000000000000000000000009091169063d6a4f84c9084906104509085610e2f565b6040516001600160e01b031960e085901b1681526001600160a01b0390921660048301526024820152336044820152606401600060405180830381600087803b15801561049c57600080fd5b505af11580156104b0573d6000803e3d6000fd5b505050505050565b60606000600580546104c990610e42565b9050116104e55760405180602001604052806000815250610509565b6005826040516020016104f9929190610e76565b6040516020818303038152906040525b92915050565b6005805461051c90610e42565b80601f016020809104026020016040519081016040528092919081815260200182805461054890610e42565b80156105955780601f1061056a57610100808354040283529160200191610595565b820191906000526020600020905b81548152906001019060200180831161057857829003601f168201915b505050505081565b6000336001600160a01b037f000000000000000000000000000000000000000000000000000000000000000016146105e857604051632ad9535160e01b815260040160405180910390fd5b60008080806105f986880188610f18565b93509350935093508b6001600160a01b03168d6001600160a01b03161415801561062b57506001600160a01b038c1615155b6106685760405162461bcd60e51b815260206004820152600e60248201526d496e76616c696420506172616d7360901b604482015260640161034e565b83600660008d815260200190815260200160002060000160006101000a8154816001600160a01b0302191690836001600160a01b0316021790555082600660008d8152602001908152602001600020600201819055508c600660008d815260200190815260200160002060010160006101000a8154816001600160a01b0302191690836001600160a01b0316021790555080600660008d81526020019081526020016000206003018190555061072089898c856108e4565b9d9c50505050505050505050505050565b6000336001600160a01b037f0000000000000000000000000000000000000000000000000000000000000000161461077c57604051632ad9535160e01b815260040160405180910390fd5b60405162461bcd60e51b8152602060048201526000602482015260440161034e565b6000336001600160a01b037f000000000000000000000000000000000000000000000000000000000000000016146107e957604051632ad9535160e01b815260040160405180910390fd5b886001600160a01b03168b6001600160a01b0316148061081a5750896001600160a01b03168b6001600160a01b0316145b61085f5760405162461bcd60e51b815260206004820152601660248201527513db9b1e481bdddb995c881bdc88185c1c1c9bdd995960521b604482015260640161034e565b61088c846000877f00000000000000000000000000000000000000000000000000000000000000006108e4565b9b9a5050505050505050505050565b336001600160a01b037f000000000000000000000000000000000000000000000000000000000000000016146104b057604051632ad9535160e01b815260040160405180910390fd5b6000806108f18587610f60565b600154909150612710906109059083610f73565b61090f9190610f92565b6001600160a01b03808516600090815260208181526040808320938916835292905290812080549294508492909190610949908490610f60565b90915550919695505050505050565b6001600160a01b038116811461096d57600080fd5b50565b803561097b81610958565b919050565b60006080828403121561099257600080fd5b50919050565b60008083601f8401126109aa57600080fd5b50813567ffffffffffffffff8111156109c257600080fd5b6020830191508360208285010111156109da57600080fd5b9250929050565b600080600080600080600080610140898b0312156109fe57600080fd5b8835610a0981610958565b97506020890135610a1981610958565b96506040890135610a2981610958565b95506060890135945060808901359350610a468a60a08b01610980565b925061012089013567ffffffffffffffff811115610a6357600080fd5b610a6f8b828c01610998565b999c989b5096995094979396929594505050565b600060208284031215610a9557600080fd5b8135610aa081610958565b9392505050565b600060208284031215610ab957600080fd5b5035919050565b600060208083528351808285015260005b81811015610aed57858101830151858201604001528201610ad1565b506000604082860101526040601f19601f8301168501019250505092915050565b60008060408385031215610b2157600080fd5b8235610b2c81610958565b91506020830135610b3c81610958565b809150509250929050565b60008060008060008060008060e0898b031215610b6357600080fd5b8835610b6e81610958565b97506020890135610b7e81610958565b9650604089013595506060890135610b9581610958565b94506080890135935060a0890135925060c089013567ffffffffffffffff811115610a6357600080fd5b600080600080600080600080610140898b031215610bdc57600080fd5b8835610be781610958565b97506020890135610bf781610958565b9650604089013595506060890135945060808901359350610a468a60a08b01610980565b634e487b7160e01b600052604160045260246000fd5b600082601f830112610c4257600080fd5b813567ffffffffffffffff80821115610c5d57610c5d610c1b565b604051601f8301601f19908116603f01168101908282118183101715610c8557610c85610c1b565b81604052838152866020858801011115610c9e57600080fd5b836020870160208301376000602085830101528094505050505092915050565b6000806000806000806000806000806101408b8d031215610cde57600080fd5b8a35610ce981610958565b995060208b0135610cf981610958565b985060408b0135610d0981610958565b975060608b0135610d1981610958565b965060808b0135610d2981610958565b955060a08b01359450610d3e60c08c01610970565b935060e08b013592506101008b013591506101208b013567ffffffffffffffff811115610d6a57600080fd5b610d768d828e01610c31565b9150509295989b9194979a5092959850565b6000806000806000806101208789031215610da257600080fd5b8635610dad81610958565b95506020870135610dbd81610958565b94506040870135610dcd81610958565b935060608701359250610de38860808901610980565b915061010087013567ffffffffffffffff811115610e0057600080fd5b610e0c89828a01610c31565b9150509295509295509295565b634e487b7160e01b600052601160045260246000fd5b8181038181111561050957610509610e19565b600181811c90821680610e5657607f821691505b60208210810361099257634e487b7160e01b600052602260045260246000fd5b600080845481600182811c915080831680610e9257607f831692505b60208084108203610eb157634e487b7160e01b86526022600452602486fd5b818015610ec55760018114610eda57610f07565b60ff1986168952841515850289019650610f07565b60008b81526020902060005b86811015610eff5781548b820152908501908301610ee6565b505084890196505b509785525050509301949350505050565b60008060008060808587031215610f2e57600080fd5b8435610f3981610958565b9350602085013592506040850135610f5081610958565b9396929550929360600135925050565b8082018082111561050957610509610e19565b6000816000190483118215151615610f8d57610f8d610e19565b500290565b600082610faf57634e487b7160e01b600052601260045260246000fd5b50049056fea2646970667358221220467d46ef0a78092adb772d08e4cbf452ccfbe3c1dfa27d73d8e699c42c617eec64736f6c634300081000334d6f64756c653a2046656520746f6f2068696768000000000000000000000000",
    "linkReferences": {}
  },
  "methodIdentifiers": {
    "REGISTRAR()": "cb609077",
    "_URI()": "b4e87e8f",
    "fees()": "9af1d35a",
    "getFees()": "db8d55f1",
    "payments(uint256)": "87d81789",
    "processApproval(address,address,address,uint256,(address,uint256,uint256,address),bytes)": "e4175968",
    "processCash(address,address,address,uint256,uint256,(address,uint256,uint256,address),bytes)": "06890cd0",
    "processFund(address,address,uint256,uint256,uint256,(address,uint256,uint256,address),bytes)": "be2f3fdd",
    "processTokenURI(uint256)": "4fe17e1a",
    "processTransfer(address,address,address,address,address,uint256,address,uint256,uint256,bytes)": "c0c9572c",
    "processWrite(address,address,uint256,address,uint256,uint256,bytes)": "b5d701ba",
    "revenue(address,address)": "9a0ea37a",
    "withdrawFees(address)": "164e68de"
  },
  "id": 53
}