{
  "abi": [
    {
      "inputs": [
        {
          "internalType": "address",
          "name": "registrar",
          "type": "address"
        },
        {
          "components": [
            {
              "internalType": "uint256",
              "name": "writeBPS",
              "type": "uint256"
            },
            {
              "internalType": "uint256",
              "name": "transferBPS",
              "type": "uint256"
            },
            {
              "internalType": "uint256",
              "name": "fundBPS",
              "type": "uint256"
            },
            {
              "internalType": "uint256",
              "name": "cashBPS",
              "type": "uint256"
            }
          ],
          "internalType": "struct DataTypes.WTFCFees",
          "name": "_fees",
          "type": "tuple"
        },
        {
          "internalType": "string",
          "name": "__baseURI",
          "type": "string"
        }
      ],
      "stateMutability": "nonpayable",
      "type": "constructor"
    },
    {
      "inputs": [],
      "name": "FeeTooHigh",
      "type": "error"
    },
    {
      "inputs": [],
      "name": "InitParamsInvalid",
      "type": "error"
    },
    {
      "inputs": [],
      "name": "NotRegistrar",
      "type": "error"
    },
    {
      "inputs": [],
      "name": "AT_STAT",
      "outputs": [
        {
          "internalType": "contract AttestationStation",
          "name": "",
          "type": "address"
        }
      ],
      "stateMutability": "view",
      "type": "function"
    },
    {
      "inputs": [],
      "name": "REGISTRAR",
      "outputs": [
        {
          "internalType": "address",
          "name": "",
          "type": "address"
        }
      ],
      "stateMutability": "view",
      "type": "function"
    },
    {
      "inputs": [],
      "name": "_URI",
      "outputs": [
        {
          "internalType": "string",
          "name": "",
          "type": "string"
        }
      ],
      "stateMutability": "view",
      "type": "function"
    },
    {
      "inputs": [
        {
          "internalType": "uint256",
          "name": "",
          "type": "uint256"
        }
      ],
      "name": "attestGates",
      "outputs": [
        {
          "internalType": "address",
          "name": "attSource",
          "type": "address"
        },
        {
          "internalType": "bytes32",
          "name": "key",
          "type": "bytes32"
        },
        {
          "internalType": "uint256",
          "name": "index",
          "type": "uint256"
        },
        {
          "internalType": "bytes32",
          "name": "expectedVal",
          "type": "bytes32"
        }
      ],
      "stateMutability": "view",
      "type": "function"
    },
    {
      "inputs": [
        {
          "internalType": "address",
          "name": "",
          "type": "address"
        }
      ],
      "name": "dappOperatorFees",
      "outputs": [
        {
          "internalType": "uint256",
          "name": "writeBPS",
          "type": "uint256"
        },
        {
          "internalType": "uint256",
          "name": "transferBPS",
          "type": "uint256"
        },
        {
          "internalType": "uint256",
          "name": "fundBPS",
          "type": "uint256"
        },
        {
          "internalType": "uint256",
          "name": "cashBPS",
          "type": "uint256"
        }
      ],
      "stateMutability": "view",
      "type": "function"
    },
    {
      "inputs": [
        {
          "internalType": "address",
          "name": "dappOperator",
          "type": "address"
        }
      ],
      "name": "getFees",
      "outputs": [
        {
          "components": [
            {
              "internalType": "uint256",
              "name": "writeBPS",
              "type": "uint256"
            },
            {
              "internalType": "uint256",
              "name": "transferBPS",
              "type": "uint256"
            },
            {
              "internalType": "uint256",
              "name": "fundBPS",
              "type": "uint256"
            },
            {
              "internalType": "uint256",
              "name": "cashBPS",
              "type": "uint256"
            }
          ],
          "internalType": "struct DataTypes.WTFCFees",
          "name": "",
          "type": "tuple"
        }
      ],
      "stateMutability": "view",
      "type": "function"
    },
    {
      "inputs": [
        {
          "internalType": "address",
          "name": "",
          "type": "address"
        },
        {
          "internalType": "address",
          "name": "",
          "type": "address"
        },
        {
          "internalType": "address",
          "name": "",
          "type": "address"
        },
        {
          "internalType": "uint256",
          "name": "",
          "type": "uint256"
        },
        {
          "components": [
            {
              "internalType": "address",
              "name": "currency",
              "type": "address"
            },
            {
              "internalType": "uint256",
              "name": "escrowed",
              "type": "uint256"
            },
            {
              "internalType": "uint256",
              "name": "createdAt",
              "type": "uint256"
            },
            {
              "internalType": "address",
              "name": "module",
              "type": "address"
            }
          ],
          "internalType": "struct DataTypes.Cheq",
          "name": "",
          "type": "tuple"
        },
        {
          "internalType": "bytes",
          "name": "",
          "type": "bytes"
        }
      ],
      "name": "processApproval",
      "outputs": [],
      "stateMutability": "view",
      "type": "function"
    },
    {
      "inputs": [
        {
          "internalType": "address",
          "name": "",
          "type": "address"
        },
        {
          "internalType": "address",
          "name": "",
          "type": "address"
        },
        {
          "internalType": "address",
          "name": "",
          "type": "address"
        },
        {
          "internalType": "uint256",
          "name": "amount",
          "type": "uint256"
        },
        {
          "internalType": "uint256",
          "name": "",
          "type": "uint256"
        },
        {
          "components": [
            {
              "internalType": "address",
              "name": "currency",
              "type": "address"
            },
            {
              "internalType": "uint256",
              "name": "escrowed",
              "type": "uint256"
            },
            {
              "internalType": "uint256",
              "name": "createdAt",
              "type": "uint256"
            },
            {
              "internalType": "address",
              "name": "module",
              "type": "address"
            }
          ],
          "internalType": "struct DataTypes.Cheq",
          "name": "cheq",
          "type": "tuple"
        },
        {
          "internalType": "bytes",
          "name": "initData",
          "type": "bytes"
        }
      ],
      "name": "processCash",
      "outputs": [
        {
          "internalType": "uint256",
          "name": "",
          "type": "uint256"
        }
      ],
      "stateMutability": "nonpayable",
      "type": "function"
    },
    {
      "inputs": [
        {
          "internalType": "address",
          "name": "caller",
          "type": "address"
        },
        {
          "internalType": "address",
          "name": "owner",
          "type": "address"
        },
        {
          "internalType": "uint256",
          "name": "amount",
          "type": "uint256"
        },
        {
          "internalType": "uint256",
          "name": "instant",
          "type": "uint256"
        },
        {
          "internalType": "uint256",
          "name": "cheqId",
          "type": "uint256"
        },
        {
          "components": [
            {
              "internalType": "address",
              "name": "currency",
              "type": "address"
            },
            {
              "internalType": "uint256",
              "name": "escrowed",
              "type": "uint256"
            },
            {
              "internalType": "uint256",
              "name": "createdAt",
              "type": "uint256"
            },
            {
              "internalType": "address",
              "name": "module",
              "type": "address"
            }
          ],
          "internalType": "struct DataTypes.Cheq",
          "name": "cheq",
          "type": "tuple"
        },
        {
          "internalType": "bytes",
          "name": "initData",
          "type": "bytes"
        }
      ],
      "name": "processFund",
      "outputs": [
        {
          "internalType": "uint256",
          "name": "",
          "type": "uint256"
        }
      ],
      "stateMutability": "nonpayable",
      "type": "function"
    },
    {
      "inputs": [
        {
          "internalType": "uint256",
          "name": "tokenId",
          "type": "uint256"
        }
      ],
      "name": "processTokenURI",
      "outputs": [
        {
          "internalType": "string",
          "name": "",
          "type": "string"
        }
      ],
      "stateMutability": "view",
      "type": "function"
    },
    {
      "inputs": [
        {
          "internalType": "address",
          "name": "",
          "type": "address"
        },
        {
          "internalType": "address",
          "name": "",
          "type": "address"
        },
        {
          "internalType": "address",
          "name": "",
          "type": "address"
        },
        {
          "internalType": "address",
          "name": "",
          "type": "address"
        },
        {
          "internalType": "address",
          "name": "to",
          "type": "address"
        },
        {
          "internalType": "uint256",
          "name": "cheqId",
          "type": "uint256"
        },
        {
          "internalType": "address",
          "name": "",
          "type": "address"
        },
        {
          "internalType": "uint256",
          "name": "escrowed",
          "type": "uint256"
        },
        {
          "internalType": "uint256",
          "name": "",
          "type": "uint256"
        },
        {
          "internalType": "bytes",
          "name": "",
          "type": "bytes"
        }
      ],
      "name": "processTransfer",
      "outputs": [
        {
          "internalType": "uint256",
          "name": "",
          "type": "uint256"
        }
      ],
      "stateMutability": "view",
      "type": "function"
    },
    {
      "inputs": [
        {
          "internalType": "address",
          "name": "caller",
          "type": "address"
        },
        {
          "internalType": "address",
          "name": "owner",
          "type": "address"
        },
        {
          "internalType": "uint256",
          "name": "cheqId",
          "type": "uint256"
        },
        {
          "internalType": "address",
          "name": "currency",
          "type": "address"
        },
        {
          "internalType": "uint256",
          "name": "escrowed",
          "type": "uint256"
        },
        {
          "internalType": "uint256",
          "name": "instant",
          "type": "uint256"
        },
        {
          "internalType": "bytes",
          "name": "initData",
          "type": "bytes"
        }
      ],
      "name": "processWrite",
      "outputs": [
        {
          "internalType": "uint256",
          "name": "",
          "type": "uint256"
        }
      ],
      "stateMutability": "nonpayable",
      "type": "function"
    },
    {
      "inputs": [
        {
          "internalType": "address",
          "name": "",
          "type": "address"
        },
        {
          "internalType": "address",
          "name": "",
          "type": "address"
        }
      ],
      "name": "revenue",
      "outputs": [
        {
          "internalType": "uint256",
          "name": "",
          "type": "uint256"
        }
      ],
      "stateMutability": "view",
      "type": "function"
    },
    {
      "inputs": [
        {
          "components": [
            {
              "internalType": "uint256",
              "name": "writeBPS",
              "type": "uint256"
            },
            {
              "internalType": "uint256",
              "name": "transferBPS",
              "type": "uint256"
            },
            {
              "internalType": "uint256",
              "name": "fundBPS",
              "type": "uint256"
            },
            {
              "internalType": "uint256",
              "name": "cashBPS",
              "type": "uint256"
            }
          ],
          "internalType": "struct DataTypes.WTFCFees",
          "name": "_fees",
          "type": "tuple"
        }
      ],
      "name": "setFees",
      "outputs": [],
      "stateMutability": "nonpayable",
      "type": "function"
    },
    {
      "inputs": [
        {
          "internalType": "uint256",
          "name": "",
          "type": "uint256"
        }
      ],
      "name": "tokenURIs",
      "outputs": [
        {
          "internalType": "bytes",
          "name": "",
          "type": "bytes"
        }
      ],
      "stateMutability": "view",
      "type": "function"
    },
    {
      "inputs": [
        {
          "internalType": "uint256",
          "name": "cheqId",
          "type": "uint256"
        },
        {
          "internalType": "bytes",
          "name": "newURI",
          "type": "bytes"
        }
      ],
      "name": "updateURI",
      "outputs": [],
      "stateMutability": "nonpayable",
      "type": "function"
    },
    {
      "inputs": [
        {
          "internalType": "address",
          "name": "token",
          "type": "address"
        }
      ],
      "name": "withdrawFees",
      "outputs": [],
      "stateMutability": "nonpayable",
      "type": "function"
    }
  ],
  "bytecode": {
    "object": "0x60a06040523480156200001157600080fd5b5060405162001b7838038062001b7883398101604081905262000034916200029e565b82826001600160a01b0382166200005e576040516348be0eb360e01b815260040160405180910390fd5b6001600160a01b03821660805280516127101015620000905760405163cd4e616760e01b815260040160405180910390fd5b80602001516127101015620000b85760405163cd4e616760e01b815260040160405180910390fd5b80604001516127101015620000e05760405163cd4e616760e01b815260040160405180910390fd5b80606001516127101015620001085760405163cd4e616760e01b815260040160405180910390fd5b336000908152600160208181526040928390208451815590840151918101919091558183015160028201556060830151600390910155516001600160a01b038316907ff1a1fa6b64aa95186f5a1285e76198d0da80d9c5a88062641d447f1d7c54e56c906200017a9042815260200190565b60405180910390a25060029050620001938282620003d6565b50505050620004a2565b634e487b7160e01b600052604160045260246000fd5b604051608081016001600160401b0381118282101715620001d857620001d86200019d565b60405290565b604051601f8201601f191681016001600160401b03811182821017156200020957620002096200019d565b604052919050565b600082601f8301126200022357600080fd5b81516001600160401b038111156200023f576200023f6200019d565b602062000255601f8301601f19168201620001de565b82815285828487010111156200026a57600080fd5b60005b838110156200028a5785810183015182820184015282016200026d565b506000928101909101919091529392505050565b600080600083850360c0811215620002b557600080fd5b84516001600160a01b0381168114620002cd57600080fd5b93506080601f1982011215620002e257600080fd5b50620002ed620001b3565b602085015181526040850151602082015260608501516040820152608085015160608201528092505060a084015160018060401b038111156200032f57600080fd5b6200033d8682870162000211565b9150509250925092565b600181811c908216806200035c57607f821691505b6020821081036200037d57634e487b7160e01b600052602260045260246000fd5b50919050565b601f821115620003d157600081815260208120601f850160051c81016020861015620003ac5750805b601f850160051c820191505b81811015620003cd57828155600101620003b8565b5050505b505050565b81516001600160401b03811115620003f257620003f26200019d565b6200040a8162000403845462000347565b8462000383565b602080601f831160018114620004425760008415620004295750858301515b600019600386901b1c1916600185901b178555620003cd565b600085815260208120601f198616915b82811015620004735788860151825594840194600190910190840162000452565b5085821015620004925787850151600019600388901b60f8161c191681555b5050505050600190811b01905550565b608051611689620004ef600039600081816102b3015281816103b8015281816104bf0152818161077b015281816108c80152818161098d01528181610a300152610b1a01526116896000f3fe608060405234801561001057600080fd5b506004361061010b5760003560e01c8063b4e87e8f116100a2578063cb60907711610071578063cb609077146102ae578063cfbd2caf146102d5578063e4175968146102e8578063f86e827c146102fb578063fd77c9601461036457600080fd5b8063b4e87e8f1461026d578063b5d701ba14610275578063be2f3fdd14610288578063c0c9572c1461029b57600080fd5b80634fe17e1a116100de5780634fe17e1a146101cc5780636c8b703f146101ec5780639a0ea37a146101ff5780639af608c91461022757600080fd5b806306890cd0146101105780631385a7b614610136578063164e68de1461018c5780633374960e146101a1575b600080fd5b61012361011e366004610df5565b6103ab565b6040519081526020015b60405180910390f35b61016c610144366004610e97565b6001602081905260009182526040909120805491810154600282015460039092015490919084565b60408051948552602085019390935291830152606082015260800161012d565b61019f61019a366004610e97565b610427565b005b6003546101b4906001600160a01b031681565b6040516001600160a01b03909116815260200161012d565b6101df6101da366004610ebb565b61055c565b60405161012d9190610f24565b6101df6101fa366004610ebb565b61064f565b61012361020d366004610f37565b600060208181529281526040808220909352908152205481565b61023a610235366004610e97565b6106e9565b60405161012d91908151815260208083015190820152604080830151908201526060918201519181019190915260800190565b6101df610761565b610123610283366004610f70565b61076e565b610123610296366004610fe8565b6108bb565b6101236102a9366004611109565b610980565b6101b47f000000000000000000000000000000000000000000000000000000000000000081565b61019f6102e33660046111d3565b610a1a565b61019f6102f636600461121f565b610b0f565b61033a610309366004610ebb565b60046020526000908152604090208054600182015460028301546003909301546001600160a01b0390921692909184565b604080516001600160a01b039095168552602085019390935291830152606082015260800161012d565b61019f6103723660046112b0565b33600090815260016020818152604092839020845181559084015191810191909155908201516002820155606090910151600390910155565b6000336001600160a01b037f000000000000000000000000000000000000000000000000000000000000000016146103f657604051632ad9535160e01b815260040160405180910390fd5b61041a6104066020860186610e97565b8761041385870187610e97565b6003610b58565b9998505050505050505050565b336000908152602081815260408083206001600160a01b0385168452909152902054600181116104955760405162461bcd60e51b8152602060048201526014602482015273496e73756666696369656e7420726576656e756560601b60448201526064015b60405180910390fd5b336000908152602081815260408083206001600160a01b03868116855292529091206001908190557f00000000000000000000000000000000000000000000000000000000000000009091169063d6a4f84c9084906104f4908561132c565b6040516001600160e01b031960e085901b1681526001600160a01b0390921660048301526024820152336044820152606401600060405180830381600087803b15801561054057600080fd5b505af1158015610554573d6000803e3d6000fd5b505050505050565b600081815260056020526040902080546060919061057990611345565b90506000036105ac57600282604051602001610596929190611379565b6040516020818303038152906040529050919050565b600082815260056020526040902080546105c590611345565b80601f01602080910402602001604051908101604052809291908181526020018280546105f190611345565b801561063e5780601f106106135761010080835404028352916020019161063e565b820191906000526020600020905b81548152906001019060200180831161062157829003601f168201915b50505050509050919050565b919050565b6005602052600090815260409020805461066890611345565b80601f016020809104026020016040519081016040528092919081815260200182805461069490611345565b80156106e15780601f106106b6576101008083540402835291602001916106e1565b820191906000526020600020905b8154815290600101906020018083116106c457829003601f168201915b505050505081565b6107146040518060800160405280600081526020016000815260200160008152602001600081525090565b506001600160a01b03166000908152600160208181526040928390208351608081018552815481529281015491830191909152600281015492820192909252600390910154606082015290565b6002805461066890611345565b6000336001600160a01b037f000000000000000000000000000000000000000000000000000000000000000016146107b957604051632ad9535160e01b815260040160405180910390fd5b6001600160a01b038816158015906107e35750876001600160a01b0316896001600160a01b031614155b61082f5760405162461bcd60e51b815260206004820152601860248201527f41646472657373207a65726f206f722073656c662d6f776e0000000000000000604482015260640161048c565b600080808080610841878901896113f4565b94509450945094509450610858858e868686610c8d565b60008c815260046020526040902080546001600160a01b0319166001600160a01b03871617815560018101859055600281018490556003018290556108a98b6108a18b8d61144a565b836000610b58565b9e9d5050505050505050505050505050565b6000336001600160a01b037f0000000000000000000000000000000000000000000000000000000000000000161461090657604051632ad9535160e01b815260040160405180910390fd5b876001600160a01b0316896001600160a01b0316146109535760405162461bcd60e51b81526020600482015260096024820152682737ba1037bbb732b960b91b604482015260640161048c565b61041a6109636020860186610e97565b61096d888a61144a565b61097985870187610e97565b6002610b58565b6000336001600160a01b037f000000000000000000000000000000000000000000000000000000000000000016146109cb57604051632ad9535160e01b815260040160405180910390fd5b60008681526004602052604090208054600182015460028301546003909301548a938a93610a07936001600160a01b0390911692869290610c8d565b5060009c9b505050505050505050505050565b6040516331a9108f60e11b8152600481018490527f00000000000000000000000000000000000000000000000000000000000000006001600160a01b031690636352211e90602401602060405180830381865afa158015610a7f573d6000803e3d6000fd5b505050506040513d601f19601f82011682018060405250810190610aa3919061145d565b6001600160a01b0316336001600160a01b031614610af05760405162461bcd60e51b815260206004820152600a60248201526927b7363c9027bbb732b960b11b604482015260640161048c565b6000838152600560205260409020610b098284836114c5565b50505050565b336001600160a01b037f0000000000000000000000000000000000000000000000000000000000000000161461055457604051632ad9535160e01b815260040160405180910390fd5b60008160ff16600003610b8457506001600160a01b038216600090815260016020526040902054610c2e565b8160ff16600103610bb257506001600160a01b03821660009081526001602081905260409091200154610c2e565b8160ff16600203610bdf57506001600160a01b038216600090815260016020526040902060020154610c2e565b8160ff16600303610c0c57506001600160a01b038216600090815260016020526040902060030154610c2e565b60405162461bcd60e51b8152602060048201526000602482015260440161048c565b612710610c3b8286611585565b610c4591906115a4565b6001600160a01b03808516600090815260208181526040808320938a16835292905290812080549293508392909190610c7f90849061144a565b909155509095945050505050565b6003546040516329b42cb560e01b81526001600160a01b038681166004830152878116602483015260448201869052839216906329b42cb590606401600060405180830381865afa158015610ce6573d6000803e3d6000fd5b505050506040513d6000823e601f3d908101601f19168201604052610d0e91908101906115c6565b8381518110610d1f57610d1f61163d565b01602001516001600160f81b03191614610d6a5760405162461bcd60e51b815260206004820152600c60248201526b139bdd08185d1d195cdd195960a21b604482015260640161048c565b5050505050565b6001600160a01b0381168114610d8657600080fd5b50565b803561064a81610d71565b600060808284031215610da657600080fd5b50919050565b60008083601f840112610dbe57600080fd5b50813567ffffffffffffffff811115610dd657600080fd5b602083019150836020828501011115610dee57600080fd5b9250929050565b600080600080600080600080610140898b031215610e1257600080fd5b8835610e1d81610d71565b97506020890135610e2d81610d71565b96506040890135610e3d81610d71565b95506060890135945060808901359350610e5a8a60a08b01610d94565b925061012089013567ffffffffffffffff811115610e7757600080fd5b610e838b828c01610dac565b999c989b5096995094979396929594505050565b600060208284031215610ea957600080fd5b8135610eb481610d71565b9392505050565b600060208284031215610ecd57600080fd5b5035919050565b60005b83811015610eef578181015183820152602001610ed7565b50506000910152565b60008151808452610f10816020860160208601610ed4565b601f01601f19169290920160200192915050565b602081526000610eb46020830184610ef8565b60008060408385031215610f4a57600080fd5b8235610f5581610d71565b91506020830135610f6581610d71565b809150509250929050565b60008060008060008060008060e0898b031215610f8c57600080fd5b8835610f9781610d71565b97506020890135610fa781610d71565b9650604089013595506060890135610fbe81610d71565b94506080890135935060a0890135925060c089013567ffffffffffffffff811115610e7757600080fd5b600080600080600080600080610140898b03121561100557600080fd5b883561101081610d71565b9750602089013561102081610d71565b9650604089013595506060890135945060808901359350610e5a8a60a08b01610d94565b634e487b7160e01b600052604160045260246000fd5b604051601f8201601f1916810167ffffffffffffffff8111828210171561108357611083611044565b604052919050565b600067ffffffffffffffff8211156110a5576110a5611044565b50601f01601f191660200190565b600082601f8301126110c457600080fd5b81356110d76110d28261108b565b61105a565b8181528460208386010111156110ec57600080fd5b816020850160208301376000918101602001919091529392505050565b6000806000806000806000806000806101408b8d03121561112957600080fd5b8a3561113481610d71565b995060208b013561114481610d71565b985060408b013561115481610d71565b975060608b013561116481610d71565b965060808b013561117481610d71565b955060a08b0135945061118960c08c01610d89565b935060e08b013592506101008b013591506101208b013567ffffffffffffffff8111156111b557600080fd5b6111c18d828e016110b3565b9150509295989b9194979a5092959850565b6000806000604084860312156111e857600080fd5b83359250602084013567ffffffffffffffff81111561120657600080fd5b61121286828701610dac565b9497909650939450505050565b600080600080600080610120878903121561123957600080fd5b863561124481610d71565b9550602087013561125481610d71565b9450604087013561126481610d71565b93506060870135925061127a8860808901610d94565b915061010087013567ffffffffffffffff81111561129757600080fd5b6112a389828a016110b3565b9150509295509295509295565b6000608082840312156112c257600080fd5b6040516080810181811067ffffffffffffffff821117156112e5576112e5611044565b8060405250823581526020830135602082015260408301356040820152606083013560608201528091505092915050565b634e487b7160e01b600052601160045260246000fd5b8181038181111561133f5761133f611316565b92915050565b600181811c9082168061135957607f821691505b602082108103610da657634e487b7160e01b600052602260045260246000fd5b600080845461138781611345565b6001828116801561139f57600181146113b4576113e3565b60ff19841687528215158302870194506113e3565b8860005260208060002060005b858110156113da5781548a8201529084019082016113c1565b50505082870194505b505050938152602001949350505050565b600080600080600060a0868803121561140c57600080fd5b853561141781610d71565b9450602086013593506040860135925060608601359150608086013561143c81610d71565b809150509295509295909350565b8082018082111561133f5761133f611316565b60006020828403121561146f57600080fd5b8151610eb481610d71565b601f8211156114c057600081815260208120601f850160051c810160208610156114a15750805b601f850160051c820191505b81811015610554578281556001016114ad565b505050565b67ffffffffffffffff8311156114dd576114dd611044565b6114f1836114eb8354611345565b8361147a565b6000601f841160018114611525576000851561150d5750838201355b600019600387901b1c1916600186901b178355610d6a565b600083815260209020601f19861690835b828110156115565786850135825560209485019460019092019101611536565b50868210156115735760001960f88860031b161c19848701351681555b505060018560011b0183555050505050565b600081600019048311821515161561159f5761159f611316565b500290565b6000826115c157634e487b7160e01b600052601260045260246000fd5b500490565b6000602082840312156115d857600080fd5b815167ffffffffffffffff8111156115ef57600080fd5b8201601f8101841361160057600080fd5b805161160e6110d28261108b565b81815285602083850101111561162357600080fd5b611634826020830160208601610ed4565b95945050505050565b634e487b7160e01b600052603260045260246000fdfea2646970667358221220683eda01ac7d9335d3026914b078ddd234610708518914a6fe003771b4bfd38264736f6c63430008100033",
    "linkReferences": {}
  },
  "methodIdentifiers": {
    "AT_STAT()": "3374960e",
    "REGISTRAR()": "cb609077",
    "_URI()": "b4e87e8f",
    "attestGates(uint256)": "f86e827c",
    "dappOperatorFees(address)": "1385a7b6",
    "getFees(address)": "9af608c9",
    "processApproval(address,address,address,uint256,(address,uint256,uint256,address),bytes)": "e4175968",
    "processCash(address,address,address,uint256,uint256,(address,uint256,uint256,address),bytes)": "06890cd0",
    "processFund(address,address,uint256,uint256,uint256,(address,uint256,uint256,address),bytes)": "be2f3fdd",
    "processTokenURI(uint256)": "4fe17e1a",
    "processTransfer(address,address,address,address,address,uint256,address,uint256,uint256,bytes)": "c0c9572c",
    "processWrite(address,address,uint256,address,uint256,uint256,bytes)": "b5d701ba",
    "revenue(address,address)": "9a0ea37a",
    "setFees((uint256,uint256,uint256,uint256))": "fd77c960",
    "tokenURIs(uint256)": "6c8b703f",
    "updateURI(uint256,bytes)": "cfbd2caf",
    "withdrawFees(address)": "164e68de"
  },
  "id": 28
}