{
  "abi": [
    {
      "inputs": [
        {
          "internalType": "address",
          "name": "account",
          "type": "address"
        }
      ],
      "name": "toString",
      "outputs": [
        {
          "internalType": "string",
          "name": "",
          "type": "string"
        }
      ],
      "stateMutability": "pure",
      "type": "function"
    },
    {
      "inputs": [
        {
          "internalType": "bytes",
          "name": "data",
          "type": "bytes"
        }
      ],
      "name": "toString",
      "outputs": [
        {
          "internalType": "string",
          "name": "",
          "type": "string"
        }
      ],
      "stateMutability": "pure",
      "type": "function"
    },
    {
      "inputs": [
        {
          "internalType": "bytes32",
          "name": "value",
          "type": "bytes32"
        }
      ],
      "name": "toString",
      "outputs": [
        {
          "internalType": "string",
          "name": "",
          "type": "string"
        }
      ],
      "stateMutability": "pure",
      "type": "function"
    }
  ],
  "bytecode": {
    "object": "0x608060405234801561001057600080fd5b50610510806100206000396000f3fe608060405234801561001057600080fd5b50600436106100415760003560e01c806356ca623e1461004657806371aad10d1461006f578063b11a19e814610082575b600080fd5b610059610054366004610305565b610095565b6040516100669190610335565b60405180910390f35b61005961007d366004610399565b6100d4565b61005961009036600461044a565b6102ed565b604051606082811b6bffffffffffffffffffffffff19166020830152906100ce906034015b6040516020818303038152906040526100d4565b92915050565b60408051808201909152601081526f181899199a1a9b1b9c1cb0b131b232b360811b602082015281516060919060009061010f906002610479565b61011a906002610498565b67ffffffffffffffff81111561013257610132610383565b6040519080825280601f01601f19166020018201604052801561015c576020820181803683370190505b509050600360fc1b81600081518110610177576101776104ab565b60200101906001600160f81b031916908160001a905350600f60fb1b816001815181106101a6576101a66104ab565b60200101906001600160f81b031916908160001a90535060005b84518110156102e5578260048683815181106101de576101de6104ab565b016020015182516001600160f81b031990911690911c60f81c908110610206576102066104ab565b01602001516001600160f81b03191682610221836002610479565b61022c906002610498565b8151811061023c5761023c6104ab565b60200101906001600160f81b031916908160001a90535082858281518110610266576102666104ab565b602091010151815160f89190911c600f16908110610286576102866104ab565b01602001516001600160f81b031916826102a1836002610479565b6102ac906003610498565b815181106102bc576102bc6104ab565b60200101906001600160f81b031916908160001a905350806102dd816104c1565b9150506101c0565b509392505050565b60606100ce826040516020016100ba91815260200190565b60006020828403121561031757600080fd5b81356001600160a01b038116811461032e57600080fd5b9392505050565b600060208083528351808285015260005b8181101561036257858101830151858201604001528201610346565b506000604082860101526040601f19601f8301168501019250505092915050565b634e487b7160e01b600052604160045260246000fd5b6000602082840312156103ab57600080fd5b813567ffffffffffffffff808211156103c357600080fd5b818401915084601f8301126103d757600080fd5b8135818111156103e9576103e9610383565b604051601f8201601f19908116603f0116810190838211818310171561041157610411610383565b8160405282815287602084870101111561042a57600080fd5b826020860160208301376000928101602001929092525095945050505050565b60006020828403121561045c57600080fd5b5035919050565b634e487b7160e01b600052601160045260246000fd5b600081600019048311821515161561049357610493610463565b500290565b808201808211156100ce576100ce610463565b634e487b7160e01b600052603260045260246000fd5b6000600182016104d3576104d3610463565b506001019056fea2646970667358221220a64e088d0899fa6205754da0298282a1cc12bbee579041864be692114cbed54e64736f6c63430008100033",
    "linkReferences": {}
  },
  "methodIdentifiers": {
    "toString(address)": "56ca623e",
    "toString(bytes)": "71aad10d",
    "toString(bytes32)": "b11a19e8"
  },
  "id": 41
}