{
  "abi": [
    {
      "inputs": [
        {
          "internalType": "uint256",
          "name": "_tokenId",
          "type": "uint256"
        },
        {
          "internalType": "address",
          "name": "currency",
          "type": "address"
        },
        {
          "internalType": "uint256",
          "name": "escrowed",
          "type": "uint256"
        },
        {
          "internalType": "address",
          "name": "module",
          "type": "address"
        }
      ],
      "name": "buildMetadata",
      "outputs": [
        {
          "internalType": "string",
          "name": "",
          "type": "string"
        }
      ],
      "stateMutability": "pure",
      "type": "function"
    }
  ],
  "bytecode": {
    "object": "0x6105f361003a600b82828239805160001a60731461002d57634e487b7160e01b600052600060045260246000fd5b30600052607381538281f3fe73000000000000000000000000000000000000000030146080604052600436106100355760003560e01c806311fd6f261461003a575b600080fd5b61004d61004836600461022b565b610063565b60405161005a9190610295565b60405180910390f35b60606100938585858560405160200161007f94939291906102c8565b6040516020818303038152906040526100bc565b6040516020016100a391906104b2565b6040516020818303038152906040529050949350505050565b606081516000036100db57505060408051602081019091526000815290565b600060405180606001604052806040815260200161057e604091399050600060038451600261010a919061050d565b6101149190610526565b61011f906004610548565b67ffffffffffffffff81111561013757610137610567565b6040519080825280601f01601f191660200182016040528015610161576020820181803683370190505b509050600182016020820185865187015b808210156101cd576003820191508151603f8160121c168501518453600184019350603f81600c1c168501518453600184019350603f8160061c168501518453600184019350603f8116850151845350600183019250610172565b50506003865106600181146101e957600281146101fc57610204565b603d6001830353603d6002830353610204565b603d60018303535b509195945050505050565b80356001600160a01b038116811461022657600080fd5b919050565b6000806000806080858703121561024157600080fd5b843593506102516020860161020f565b9250604085013591506102666060860161020f565b905092959194509250565b60005b8381101561028c578181015183820152602001610274565b50506000910152565b60208152600082518060208401526102b4816040850160208701610271565b601f01601f19169190910160400192915050565b673d913730b6b2911d60c11b815273436865712073657269616c206e756d626572202360601b6008820152601c81018590526f016101130ba3a3934b13aba32b9911d160851b603c820152605b60f81b604c8201527f7b2274726169745f74797065223a2022546f6b656e222c000000000000000000604d82015267113b30b63ab2911d60c11b6064820152610372606c82018560601b6bffffffffffffffffffffffff19169052565b607d60f81b60808201527f7b2274726169745f74797065223a2022416d6f756e74222c0000000000000000608182015260006103fc6103e86103bf609985015b607d60f81b815260010190565b7f7b2274726169745f74797065223a2022457363726f776564222c0000000000008152601a0190565b67113b30b63ab2911d60c11b815260080190565b848152607d60f81b60208201527f7b2274726169745f74797065223a2022447261776572222c0000000000000000602182015261046a6103e8610441603984016103b2565b7f7b2274726169745f74797065223a20224d6f64756c65222c0000000000000000815260180190565b9050610487818560601b6bffffffffffffffffffffffff19169052565b607d60f81b6014820152605d60f81b60158201526104a7601682016103b2565b979650505050505050565b7f646174613a6170706c69636174696f6e2f6a736f6e3b6261736536342c0000008152600082516104ea81601d850160208701610271565b91909101601d0192915050565b634e487b7160e01b600052601160045260246000fd5b80820180821115610520576105206104f7565b92915050565b60008261054357634e487b7160e01b600052601260045260246000fd5b500490565b6000816000190483118215151615610562576105626104f7565b500290565b634e487b7160e01b600052604160045260246000fdfe4142434445464748494a4b4c4d4e4f505152535455565758595a6162636465666768696a6b6c6d6e6f707172737475767778797a303132333435363738392b2fa2646970667358221220ae50a05aa78a6c2aac624ed0f6af8b0592023a6f09daf4f4738be4962481fd2b64736f6c63430008100033",
    "linkReferences": {}
  },
  "methodIdentifiers": {
    "buildMetadata(uint256,address,uint256,address)": "11fd6f26"
  },
  "id": 49
}