{
  "abi": [
    {
      "inputs": [
        {
          "internalType": "uint256",
          "name": "_tokenId",
          "type": "uint256"
        },
        {
          "internalType": "address",
          "name": "currency",
          "type": "address"
        },
        {
          "internalType": "uint256",
          "name": "escrowed",
          "type": "uint256"
        },
        {
          "internalType": "uint256",
          "name": "createdAt",
          "type": "uint256"
        },
        {
          "internalType": "address",
          "name": "module",
          "type": "address"
        },
        {
          "internalType": "string",
          "name": "_tokenURI",
          "type": "string"
        }
      ],
      "name": "buildMetadata",
      "outputs": [
        {
          "internalType": "string",
          "name": "",
          "type": "string"
        }
      ],
      "stateMutability": "pure",
      "type": "function"
    }
  ],
  "bytecode": {
    "object": "0x6106f061003a600b82828239805160001a60731461002d57634e487b7160e01b600052600060045260246000fd5b30600052607381538281f3fe73000000000000000000000000000000000000000030146080604052600436106100355760003560e01c80637dbe2f7d1461003a575b600080fd5b61004d610048366004610247565b610063565b60405161005a9190610359565b60405180910390f35b60606100978783888888886040516020016100839695949392919061038c565b6040516020818303038152906040526100c2565b6040516020016100a791906105c5565b60405160208183030381529060405290509695505050505050565b606081516000036100e157505060408051602081019091526000815290565b600060405180606001604052806040815260200161067b60409139905060006003845160026101109190610620565b61011a9190610639565b61012590600461065b565b67ffffffffffffffff81111561013d5761013d610231565b6040519080825280601f01601f191660200182016040528015610167576020820181803683370190505b509050600182016020820185865187015b808210156101d3576003820191508151603f8160121c168501518453600184019350603f81600c1c168501518453600184019350603f8160061c168501518453600184019350603f8116850151845350600183019250610178565b50506003865106600181146101ef57600281146102025761020a565b603d6001830353603d600283035361020a565b603d60018303535b509195945050505050565b80356001600160a01b038116811461022c57600080fd5b919050565b634e487b7160e01b600052604160045260246000fd5b60008060008060008060c0878903121561026057600080fd5b8635955061027060208801610215565b9450604087013593506060870135925061028c60808801610215565b915060a087013567ffffffffffffffff808211156102a957600080fd5b818901915089601f8301126102bd57600080fd5b8135818111156102cf576102cf610231565b604051601f8201601f19908116603f011681019083821181831017156102f7576102f7610231565b816040528281528c602084870101111561031057600080fd5b8260208601602083013760006020848301015280955050505050509295509295509295565b60005b83811015610350578181015183820152602001610338565b50506000910152565b6020815260008251806020840152610378816040850160208701610335565b601f01601f19169190910160400192915050565b673d913730b6b2911d60c11b815273436865712073657269616c206e756d626572202360601b6008820152601c8101879052721116101132bc3a32b93730b62fbab936111d1160691b603c82015285516000906103f081604f850160208b01610335565b61046861045461042b61041e604f858801016f016101130ba3a3934b13aba32b9911d160851b815260100190565b605b60f81b815260010190565b7f7b2274726169745f74797065223a2022546f6b656e222c000000000000000000815260170190565b67113b30b63ab2911d60c11b815260080190565b9050610485818860601b6bffffffffffffffffffffffff19169052565b607d60f81b60148201527f7b2274726169745f74797065223a2022457363726f776564222c00000000000060158201526104c1602f8201610454565b868152607d60f81b60208201527f7b2274726169745f74797065223a2022447261776572222c00000000000000006021820152905061053a610454610511603984015b607d60f81b815260010190565b7f7b2274726169745f74797065223a202243726561746564204174222c000000008152601c0190565b858152607d60f81b60208201527f7b2274726169745f74797065223a20224d6f64756c65222c00000000000000006021820152905061057b60398201610454565b9050610598818560601b6bffffffffffffffffffffffff19169052565b607d60f81b6014820152605d60f81b60158201526105b860168201610504565b9998505050505050505050565b7f646174613a6170706c69636174696f6e2f6a736f6e3b6261736536342c0000008152600082516105fd81601d850160208701610335565b91909101601d0192915050565b634e487b7160e01b600052601160045260246000fd5b808201808211156106335761063361060a565b92915050565b60008261065657634e487b7160e01b600052601260045260246000fd5b500490565b60008160001904831182151516156106755761067561060a565b50029056fe4142434445464748494a4b4c4d4e4f505152535455565758595a6162636465666768696a6b6c6d6e6f707172737475767778797a303132333435363738392b2fa2646970667358221220fd6ba8428f8619516713266365b97650622b86a384e2d85c0a354101da7bbc3a64736f6c63430008100033",
    "linkReferences": {}
  },
  "methodIdentifiers": {
    "buildMetadata(uint256,address,uint256,uint256,address,string)": "7dbe2f7d"
  },
  "id": 41
}