{
  "abi": [
    {
      "inputs": [
        {
          "internalType": "address",
          "name": "registrar",
          "type": "address"
        },
        {
          "components": [
            {
              "internalType": "uint256",
              "name": "writeBPS",
              "type": "uint256"
            },
            {
              "internalType": "uint256",
              "name": "transferBPS",
              "type": "uint256"
            },
            {
              "internalType": "uint256",
              "name": "fundBPS",
              "type": "uint256"
            },
            {
              "internalType": "uint256",
              "name": "cashBPS",
              "type": "uint256"
            }
          ],
          "internalType": "struct DataTypes.WTFCFees",
          "name": "_fees",
          "type": "tuple"
        },
        {
          "internalType": "string",
          "name": "__baseURI",
          "type": "string"
        }
      ],
      "stateMutability": "nonpayable",
      "type": "constructor"
    },
    {
      "inputs": [],
      "name": "FeeTooHigh",
      "type": "error"
    },
    {
      "inputs": [],
      "name": "InitParamsInvalid",
      "type": "error"
    },
    {
      "inputs": [],
      "name": "NotRegistrar",
      "type": "error"
    },
    {
      "anonymous": false,
      "inputs": [
        {
          "indexed": false,
          "internalType": "uint256",
          "name": "cheqId",
          "type": "uint256"
        },
        {
          "indexed": false,
          "internalType": "uint256",
          "name": "claimPeriod",
          "type": "uint256"
        },
        {
          "indexed": false,
          "internalType": "uint64",
          "name": "requiredProof",
          "type": "uint64"
        }
      ],
      "name": "Locked",
      "type": "event"
    },
    {
      "anonymous": false,
      "inputs": [
        {
          "indexed": true,
          "internalType": "address",
          "name": "previousOwner",
          "type": "address"
        },
        {
          "indexed": true,
          "internalType": "address",
          "name": "newOwner",
          "type": "address"
        }
      ],
      "name": "OwnershipTransferred",
      "type": "event"
    },
    {
      "inputs": [],
      "name": "REGISTRAR",
      "outputs": [
        {
          "internalType": "address",
          "name": "",
          "type": "address"
        }
      ],
      "stateMutability": "view",
      "type": "function"
    },
    {
      "inputs": [],
      "name": "_URI",
      "outputs": [
        {
          "internalType": "string",
          "name": "",
          "type": "string"
        }
      ],
      "stateMutability": "view",
      "type": "function"
    },
    {
      "inputs": [
        {
          "internalType": "address",
          "name": "",
          "type": "address"
        }
      ],
      "name": "dappOperatorFees",
      "outputs": [
        {
          "internalType": "uint256",
          "name": "writeBPS",
          "type": "uint256"
        },
        {
          "internalType": "uint256",
          "name": "transferBPS",
          "type": "uint256"
        },
        {
          "internalType": "uint256",
          "name": "fundBPS",
          "type": "uint256"
        },
        {
          "internalType": "uint256",
          "name": "cashBPS",
          "type": "uint256"
        }
      ],
      "stateMutability": "view",
      "type": "function"
    },
    {
      "inputs": [
        {
          "internalType": "address",
          "name": "dappOperator",
          "type": "address"
        }
      ],
      "name": "getFees",
      "outputs": [
        {
          "components": [
            {
              "internalType": "uint256",
              "name": "writeBPS",
              "type": "uint256"
            },
            {
              "internalType": "uint256",
              "name": "transferBPS",
              "type": "uint256"
            },
            {
              "internalType": "uint256",
              "name": "fundBPS",
              "type": "uint256"
            },
            {
              "internalType": "uint256",
              "name": "cashBPS",
              "type": "uint256"
            }
          ],
          "internalType": "struct DataTypes.WTFCFees",
          "name": "",
          "type": "tuple"
        }
      ],
      "stateMutability": "view",
      "type": "function"
    },
    {
      "inputs": [],
      "name": "getSupportedRequests",
      "outputs": [
        {
          "internalType": "uint64[]",
          "name": "arr",
          "type": "uint64[]"
        }
      ],
      "stateMutability": "view",
      "type": "function"
    },
    {
      "inputs": [
        {
          "internalType": "uint64",
          "name": "requestId",
          "type": "uint64"
        }
      ],
      "name": "getZKPRequest",
      "outputs": [
        {
          "components": [
            {
              "internalType": "uint256",
              "name": "schema",
              "type": "uint256"
            },
            {
              "internalType": "uint256",
              "name": "claimPathKey",
              "type": "uint256"
            },
            {
              "internalType": "uint256",
              "name": "operator",
              "type": "uint256"
            },
            {
              "internalType": "uint256[]",
              "name": "value",
              "type": "uint256[]"
            },
            {
              "internalType": "uint256",
              "name": "queryHash",
              "type": "uint256"
            },
            {
              "internalType": "string",
              "name": "circuitId",
              "type": "string"
            }
          ],
          "internalType": "struct ICircuitValidator.CircuitQuery",
          "name": "",
          "type": "tuple"
        }
      ],
      "stateMutability": "view",
      "type": "function"
    },
    {
      "inputs": [
        {
          "internalType": "uint256",
          "name": "",
          "type": "uint256"
        }
      ],
      "name": "locks",
      "outputs": [
        {
          "internalType": "uint256",
          "name": "claimPeriod",
          "type": "uint256"
        },
        {
          "internalType": "address",
          "name": "sender",
          "type": "address"
        },
        {
          "internalType": "uint64",
          "name": "requiredProof",
          "type": "uint64"
        }
      ],
      "stateMutability": "view",
      "type": "function"
    },
    {
      "inputs": [],
      "name": "owner",
      "outputs": [
        {
          "internalType": "address",
          "name": "",
          "type": "address"
        }
      ],
      "stateMutability": "view",
      "type": "function"
    },
    {
      "inputs": [
        {
          "internalType": "address",
          "name": "caller",
          "type": "address"
        },
        {
          "internalType": "address",
          "name": "owner",
          "type": "address"
        },
        {
          "internalType": "address",
          "name": "",
          "type": "address"
        },
        {
          "internalType": "uint256",
          "name": "",
          "type": "uint256"
        },
        {
          "components": [
            {
              "internalType": "address",
              "name": "currency",
              "type": "address"
            },
            {
              "internalType": "uint256",
              "name": "escrowed",
              "type": "uint256"
            },
            {
              "internalType": "uint256",
              "name": "createdAt",
              "type": "uint256"
            },
            {
              "internalType": "address",
              "name": "module",
              "type": "address"
            }
          ],
          "internalType": "struct DataTypes.Cheq",
          "name": "",
          "type": "tuple"
        },
        {
          "internalType": "bytes",
          "name": "",
          "type": "bytes"
        }
      ],
      "name": "processApproval",
      "outputs": [],
      "stateMutability": "view",
      "type": "function"
    },
    {
      "inputs": [
        {
          "internalType": "address",
          "name": "caller",
          "type": "address"
        },
        {
          "internalType": "address",
          "name": "owner",
          "type": "address"
        },
        {
          "internalType": "address",
          "name": "",
          "type": "address"
        },
        {
          "internalType": "uint256",
          "name": "amount",
          "type": "uint256"
        },
        {
          "internalType": "uint256",
          "name": "cheqId",
          "type": "uint256"
        },
        {
          "components": [
            {
              "internalType": "address",
              "name": "currency",
              "type": "address"
            },
            {
              "internalType": "uint256",
              "name": "escrowed",
              "type": "uint256"
            },
            {
              "internalType": "uint256",
              "name": "createdAt",
              "type": "uint256"
            },
            {
              "internalType": "address",
              "name": "module",
              "type": "address"
            }
          ],
          "internalType": "struct DataTypes.Cheq",
          "name": "cheq",
          "type": "tuple"
        },
        {
          "internalType": "bytes",
          "name": "initData",
          "type": "bytes"
        }
      ],
      "name": "processCash",
      "outputs": [
        {
          "internalType": "uint256",
          "name": "",
          "type": "uint256"
        }
      ],
      "stateMutability": "nonpayable",
      "type": "function"
    },
    {
      "inputs": [
        {
          "internalType": "address",
          "name": "",
          "type": "address"
        },
        {
          "internalType": "address",
          "name": "",
          "type": "address"
        },
        {
          "internalType": "uint256",
          "name": "",
          "type": "uint256"
        },
        {
          "internalType": "uint256",
          "name": "",
          "type": "uint256"
        },
        {
          "internalType": "uint256",
          "name": "",
          "type": "uint256"
        },
        {
          "components": [
            {
              "internalType": "address",
              "name": "currency",
              "type": "address"
            },
            {
              "internalType": "uint256",
              "name": "escrowed",
              "type": "uint256"
            },
            {
              "internalType": "uint256",
              "name": "createdAt",
              "type": "uint256"
            },
            {
              "internalType": "address",
              "name": "module",
              "type": "address"
            }
          ],
          "internalType": "struct DataTypes.Cheq",
          "name": "",
          "type": "tuple"
        },
        {
          "internalType": "bytes",
          "name": "",
          "type": "bytes"
        }
      ],
      "name": "processFund",
      "outputs": [
        {
          "internalType": "uint256",
          "name": "",
          "type": "uint256"
        }
      ],
      "stateMutability": "view",
      "type": "function"
    },
    {
      "inputs": [
        {
          "internalType": "uint256",
          "name": "tokenId",
          "type": "uint256"
        }
      ],
      "name": "processTokenURI",
      "outputs": [
        {
          "internalType": "string",
          "name": "",
          "type": "string"
        }
      ],
      "stateMutability": "view",
      "type": "function"
    },
    {
      "inputs": [
        {
          "internalType": "address",
          "name": "caller",
          "type": "address"
        },
        {
          "internalType": "address",
          "name": "approved",
          "type": "address"
        },
        {
          "internalType": "address",
          "name": "owner",
          "type": "address"
        },
        {
          "internalType": "address",
          "name": "",
          "type": "address"
        },
        {
          "internalType": "address",
          "name": "to",
          "type": "address"
        },
        {
          "internalType": "uint256",
          "name": "cheqId",
          "type": "uint256"
        },
        {
          "internalType": "address",
          "name": "",
          "type": "address"
        },
        {
          "internalType": "uint256",
          "name": "",
          "type": "uint256"
        },
        {
          "internalType": "uint256",
          "name": "",
          "type": "uint256"
        },
        {
          "internalType": "bytes",
          "name": "",
          "type": "bytes"
        }
      ],
      "name": "processTransfer",
      "outputs": [
        {
          "internalType": "uint256",
          "name": "",
          "type": "uint256"
        }
      ],
      "stateMutability": "view",
      "type": "function"
    },
    {
      "inputs": [
        {
          "internalType": "address",
          "name": "caller",
          "type": "address"
        },
        {
          "internalType": "address",
          "name": "",
          "type": "address"
        },
        {
          "internalType": "uint256",
          "name": "cheqId",
          "type": "uint256"
        },
        {
          "internalType": "address",
          "name": "currency",
          "type": "address"
        },
        {
          "internalType": "uint256",
          "name": "escrowed",
          "type": "uint256"
        },
        {
          "internalType": "uint256",
          "name": "",
          "type": "uint256"
        },
        {
          "internalType": "bytes",
          "name": "initData",
          "type": "bytes"
        }
      ],
      "name": "processWrite",
      "outputs": [
        {
          "internalType": "uint256",
          "name": "",
          "type": "uint256"
        }
      ],
      "stateMutability": "nonpayable",
      "type": "function"
    },
    {
      "inputs": [
        {
          "internalType": "address",
          "name": "",
          "type": "address"
        },
        {
          "internalType": "uint64",
          "name": "",
          "type": "uint64"
        }
      ],
      "name": "proofs",
      "outputs": [
        {
          "internalType": "bool",
          "name": "",
          "type": "bool"
        }
      ],
      "stateMutability": "view",
      "type": "function"
    },
    {
      "inputs": [],
      "name": "renounceOwnership",
      "outputs": [],
      "stateMutability": "nonpayable",
      "type": "function"
    },
    {
      "inputs": [
        {
          "internalType": "uint64",
          "name": "",
          "type": "uint64"
        }
      ],
      "name": "requestQueries",
      "outputs": [
        {
          "internalType": "uint256",
          "name": "schema",
          "type": "uint256"
        },
        {
          "internalType": "uint256",
          "name": "claimPathKey",
          "type": "uint256"
        },
        {
          "internalType": "uint256",
          "name": "operator",
          "type": "uint256"
        },
        {
          "internalType": "uint256",
          "name": "queryHash",
          "type": "uint256"
        },
        {
          "internalType": "string",
          "name": "circuitId",
          "type": "string"
        }
      ],
      "stateMutability": "view",
      "type": "function"
    },
    {
      "inputs": [
        {
          "internalType": "uint64",
          "name": "",
          "type": "uint64"
        }
      ],
      "name": "requestValidators",
      "outputs": [
        {
          "internalType": "contract ICircuitValidator",
          "name": "",
          "type": "address"
        }
      ],
      "stateMutability": "view",
      "type": "function"
    },
    {
      "inputs": [
        {
          "internalType": "address",
          "name": "",
          "type": "address"
        },
        {
          "internalType": "address",
          "name": "",
          "type": "address"
        }
      ],
      "name": "revenue",
      "outputs": [
        {
          "internalType": "uint256",
          "name": "",
          "type": "uint256"
        }
      ],
      "stateMutability": "view",
      "type": "function"
    },
    {
      "inputs": [
        {
          "components": [
            {
              "internalType": "uint256",
              "name": "writeBPS",
              "type": "uint256"
            },
            {
              "internalType": "uint256",
              "name": "transferBPS",
              "type": "uint256"
            },
            {
              "internalType": "uint256",
              "name": "fundBPS",
              "type": "uint256"
            },
            {
              "internalType": "uint256",
              "name": "cashBPS",
              "type": "uint256"
            }
          ],
          "internalType": "struct DataTypes.WTFCFees",
          "name": "_fees",
          "type": "tuple"
        }
      ],
      "name": "setFees",
      "outputs": [],
      "stateMutability": "nonpayable",
      "type": "function"
    },
    {
      "inputs": [
        {
          "internalType": "uint64",
          "name": "requestId",
          "type": "uint64"
        },
        {
          "internalType": "contract ICircuitValidator",
          "name": "validator",
          "type": "address"
        },
        {
          "internalType": "uint256",
          "name": "schema",
          "type": "uint256"
        },
        {
          "internalType": "uint256",
          "name": "claimPathKey",
          "type": "uint256"
        },
        {
          "internalType": "uint256",
          "name": "operator",
          "type": "uint256"
        },
        {
          "internalType": "uint256[]",
          "name": "value",
          "type": "uint256[]"
        }
      ],
      "name": "setZKPRequest",
      "outputs": [
        {
          "internalType": "bool",
          "name": "",
          "type": "bool"
        }
      ],
      "stateMutability": "nonpayable",
      "type": "function"
    },
    {
      "inputs": [
        {
          "internalType": "uint64",
          "name": "requestId",
          "type": "uint64"
        },
        {
          "internalType": "contract ICircuitValidator",
          "name": "validator",
          "type": "address"
        },
        {
          "internalType": "uint256",
          "name": "schema",
          "type": "uint256"
        },
        {
          "internalType": "uint256",
          "name": "claimPathKey",
          "type": "uint256"
        },
        {
          "internalType": "uint256",
          "name": "operator",
          "type": "uint256"
        },
        {
          "internalType": "uint256[]",
          "name": "value",
          "type": "uint256[]"
        },
        {
          "internalType": "uint256",
          "name": "queryHash",
          "type": "uint256"
        }
      ],
      "name": "setZKPRequestRaw",
      "outputs": [
        {
          "internalType": "bool",
          "name": "",
          "type": "bool"
        }
      ],
      "stateMutability": "nonpayable",
      "type": "function"
    },
    {
      "inputs": [
        {
          "internalType": "uint64",
          "name": "requestId",
          "type": "uint64"
        },
        {
          "internalType": "uint256[]",
          "name": "inputs",
          "type": "uint256[]"
        },
        {
          "internalType": "uint256[2]",
          "name": "a",
          "type": "uint256[2]"
        },
        {
          "internalType": "uint256[2][2]",
          "name": "b",
          "type": "uint256[2][2]"
        },
        {
          "internalType": "uint256[2]",
          "name": "c",
          "type": "uint256[2]"
        }
      ],
      "name": "submitZKPResponse",
      "outputs": [
        {
          "internalType": "bool",
          "name": "",
          "type": "bool"
        }
      ],
      "stateMutability": "nonpayable",
      "type": "function"
    },
    {
      "inputs": [
        {
          "internalType": "address",
          "name": "newOwner",
          "type": "address"
        }
      ],
      "name": "transferOwnership",
      "outputs": [],
      "stateMutability": "nonpayable",
      "type": "function"
    },
    {
      "inputs": [
        {
          "internalType": "address",
          "name": "token",
          "type": "address"
        }
      ],
      "name": "withdrawFees",
      "outputs": [],
      "stateMutability": "nonpayable",
      "type": "function"
    }
  ],
  "bytecode": {
    "object": "0x60a06040523480156200001157600080fd5b5060405162003234380380620032348339810160408190526200003491620002fb565b82826001600160a01b0382166200005e576040516348be0eb360e01b815260040160405180910390fd5b6001600160a01b03821660805280516127101015620000905760405163cd4e616760e01b815260040160405180910390fd5b80602001516127101015620000b85760405163cd4e616760e01b815260040160405180910390fd5b80604001516127101015620000e05760405163cd4e616760e01b815260040160405180910390fd5b80606001516127101015620001085760405163cd4e616760e01b815260040160405180910390fd5b336000908152600160208181526040928390208451815590840151918101919091558183015160028201556060830151600390910155516001600160a01b038316907ff1a1fa6b64aa95186f5a1285e76198d0da80d9c5a88062641d447f1d7c54e56c906200017a9042815260200190565b60405180910390a25062000190905033620001a8565b60026200019e828262000433565b50505050620004ff565b600380546001600160a01b038381166001600160a01b0319831681179093556040519116919082907f8be0079c531659141344cd1fd0a4f28419497f9722a3daafe3b4186f6b6457e090600090a35050565b634e487b7160e01b600052604160045260246000fd5b604051608081016001600160401b0381118282101715620002355762000235620001fa565b60405290565b604051601f8201601f191681016001600160401b0381118282101715620002665762000266620001fa565b604052919050565b600082601f8301126200028057600080fd5b81516001600160401b038111156200029c576200029c620001fa565b6020620002b2601f8301601f191682016200023b565b8281528582848701011115620002c757600080fd5b60005b83811015620002e7578581018301518282018401528201620002ca565b506000928101909101919091529392505050565b600080600083850360c08112156200031257600080fd5b84516001600160a01b03811681146200032a57600080fd5b93506080601f19820112156200033f57600080fd5b506200034a62000210565b602085015181526040850151602082015260608501516040820152608085015160608201528092505060a084015160018060401b038111156200038c57600080fd5b6200039a868287016200026e565b9150509250925092565b600181811c90821680620003b957607f821691505b602082108103620003da57634e487b7160e01b600052602260045260246000fd5b50919050565b601f8211156200042e57600081815260208120601f850160051c81016020861015620004095750805b601f850160051c820191505b818110156200042a5782815560010162000415565b5050505b505050565b81516001600160401b038111156200044f576200044f620001fa565b6200046781620004608454620003a4565b84620003e0565b602080601f8311600181146200049f5760008415620004865750858301515b600019600386901b1c1916600185901b1785556200042a565b600085815260208120601f198616915b82811015620004d057888601518255948401946001909101908401620004af565b5085821015620004ef5787850151600019600388901b60f8161c191681555b5050505050600190811b01905550565b608051612cef620005456000396000818161045a0152818161059e015281816108c601528181611005015281816115690152818161163c01526119000152612cef6000f3fe608060405234801561001057600080fd5b50600436106101a35760003560e01c8063a8723114116100ee578063c0c9572c11610097578063e417596811610071578063e41759681461047c578063f2fde38b1461048f578063f4dadc61146104a2578063fd77c9601461053d57600080fd5b8063c0c9572c14610422578063c76d084514610435578063cb6090771461045557600080fd5b8063b5d701ba116100c8578063b5d701ba146103e9578063b68967e2146103fc578063be2f3fdd1461040f57600080fd5b8063a87231141461037d578063b45c0fdf146103b3578063b4e87e8f146103e157600080fd5b80638da5cb5b116101505780639abdc6451161012a5780639abdc645146103015780639af608c9146103245780639e621bcf1461036a57600080fd5b80638da5cb5b1461027657806396bf4741146102b55780639a0ea37a146102d957600080fd5b806337ba95231161018157806337ba9523146102395780634fe17e1a1461024e578063715018a61461026e57600080fd5b806306890cd0146101a85780631385a7b6146101ce578063164e68de14610224575b600080fd5b6101bb6101b6366004611ef0565b610584565b6040519081526020015b60405180910390f35b6102046101dc366004611f92565b6001602081905260009182526040909120805491810154600282015460039092015490919084565b6040805194855260208501939093529183015260608201526080016101c5565b610237610232366004611f92565b6107f6565b005b610241610988565b6040516101c59190611fb6565b61026161025c366004612004565b610a14565b6040516101c5919061208b565b610237610a6b565b60035473ffffffffffffffffffffffffffffffffffffffff165b60405173ffffffffffffffffffffffffffffffffffffffff90911681526020016101c5565b6102c86102c33660046120b6565b610a7f565b6040516101c59594939291906120d1565b6101bb6102e7366004612107565b600060208181529281526040808220909352908152205481565b61031461030f366004612185565b610b38565b60405190151581526020016101c5565b610337610332366004611f92565b610ca2565b6040516101c591908151815260208083015190820152604080830151908201526060918201519181019190915260800190565b610314610378366004612209565b610d27565b61029061038b3660046120b6565b60066020526000908152604090205473ffffffffffffffffffffffffffffffffffffffff1681565b6103146103c1366004612294565b600460209081526000928352604080842090915290825290205460ff1681565b610261610f5d565b6101bb6103f73660046122c9565b610feb565b61031461040a366004612352565b611192565b6101bb61041d3660046123e2565b61154f565b6101bb610430366004612558565b611622565b6104486104433660046120b6565b611779565b6040516101c59190612622565b6102907f000000000000000000000000000000000000000000000000000000000000000081565b61023761048a3660046126cf565b6118e8565b61023761049d366004611f92565b6119ec565b6105036104b0366004612004565b6008602052600090815260409020805460019091015473ffffffffffffffffffffffffffffffffffffffff81169074010000000000000000000000000000000000000000900467ffffffffffffffff1683565b6040805193845273ffffffffffffffffffffffffffffffffffffffff909216602084015267ffffffffffffffff16908201526060016101c5565b61023761054b366004612753565b33600090815260016020818152604092839020845181559084015191810191909155908201516002820155606090910151600390910155565b60003373ffffffffffffffffffffffffffffffffffffffff7f000000000000000000000000000000000000000000000000000000000000000016146105f5576040517f2ad9535100000000000000000000000000000000000000000000000000000000815260040160405180910390fd5b83602001358614610667576040517f08c379a000000000000000000000000000000000000000000000000000000000815260206004820152600f60248201527f4d7573742066756c6c792063617368000000000000000000000000000000000060448201526064015b60405180910390fd5b8773ffffffffffffffffffffffffffffffffffffffff168973ffffffffffffffffffffffffffffffffffffffff16036106a9576106a48886611aa3565b6107c5565b60008581526008602052604090206001015473ffffffffffffffffffffffffffffffffffffffff908116908a160361076357600085815260086020526040908190205442916106fb91908701356127e8565b10156106a4576040517f08c379a000000000000000000000000000000000000000000000000000000000815260206004820152600f60248201527f4e6f742065787069726564207965740000000000000000000000000000000000604482015260640161065e565b6040517f08c379a000000000000000000000000000000000000000000000000000000000815260206004820152600660248201527f4661696c65640000000000000000000000000000000000000000000000000000604482015260640161065e565b6107e96107d56020860186611f92565b876107e285870187611f92565b6003611b70565b9998505050505050505050565b3360009081526020818152604080832073ffffffffffffffffffffffffffffffffffffffff851684529091529020546001811161088f576040517f08c379a000000000000000000000000000000000000000000000000000000000815260206004820152601460248201527f496e73756666696369656e7420726576656e7565000000000000000000000000604482015260640161065e565b3360009081526020818152604080832073ffffffffffffffffffffffffffffffffffffffff868116855292529091206001908190557f00000000000000000000000000000000000000000000000000000000000000009091169063d6a4f84c9084906108fb90856127fb565b6040517fffffffff0000000000000000000000000000000000000000000000000000000060e085901b16815273ffffffffffffffffffffffffffffffffffffffff90921660048301526024820152336044820152606401600060405180830381600087803b15801561096c57600080fd5b505af1158015610980573d6000803e3d6000fd5b505050505050565b60606007805480602002602001604051908101604052809291908181526020018280548015610a0a57602002820191906000526020600020906000905b82829054906101000a900467ffffffffffffffff1667ffffffffffffffff16815260200190600801906020826007010492830192600103820291508084116109c55790505b5050505050905090565b6060600060028054610a259061280e565b905011610a415760405180602001604052806000815250610a65565b600282604051602001610a5592919061285b565b6040516020818303038152906040525b92915050565b610a73611d00565b610a7d6000611d81565b565b600560208190526000918252604090912080546001820154600283015460048401549484018054939592949193610ab59061280e565b80601f0160208091040260200160405190810160405280929190818152602001828054610ae19061280e565b8015610b2e5780601f10610b0357610100808354040283529160200191610b2e565b820191906000526020600020905b815481529060010190602001808311610b1157829003601f168201915b5050505050905085565b6000610b42611d00565b6040517f40ec6e4900000000000000000000000000000000000000000000000000000000815260009073__$794542bf2298016dc4cb1bb292e8abe9a6$__906340ec6e4990610b97908790879060040161293f565b602060405180830381865af4158015610bb4573d6000803e3d6000fd5b505050506040513d601f19601f82011682018060405250810190610bd8919061295b565b9050600073__$b12667875de82e9b7f462320cbd376df80$__63f5b4a7886040518060c001604052808b8152602001600081526020018981526020018a815260200160008152602001858152506040518263ffffffff1660e01b8152600401610c419190612974565b602060405180830381865af4158015610c5e573d6000803e3d6000fd5b505050506040513d601f19601f82011682018060405250810190610c82919061295b565b9050610c948a8a8a8a8a8a8a88610d27565b9a9950505050505050505050565b610ccd6040518060800160405280600081526020016000815260200160008152602001600081525090565b5073ffffffffffffffffffffffffffffffffffffffff166000908152600160208181526040928390208351608081018552815481529281015491830191909152600281015492820192909252600390910154606082015290565b6000610d31611d00565b67ffffffffffffffff891660009081526006602052604090205473ffffffffffffffffffffffffffffffffffffffff16610dc457600780546001810182556000919091527fa66cc928b5edb82af9bd49922954155ab7b0942694bea4ce44661d9a8736c6886004820401805460039092166008026101000a67ffffffffffffffff81810219909316928c16029190911790555b67ffffffffffffffff89166000908152600560205260408082206004808201869055600290910188905581517f59a2aeaa000000000000000000000000000000000000000000000000000000008152915173ffffffffffffffffffffffffffffffffffffffff8c16936359a2aeaa9380840193919291908290030181865afa158015610e54573d6000803e3d6000fd5b505050506040513d6000823e601f3d9081017fffffffffffffffffffffffffffffffffffffffffffffffffffffffffffffffe0168201604052610e9a91908101906129a5565b67ffffffffffffffff8a1660009081526005602081905260409091200190610ec29082612a62565b5067ffffffffffffffff8916600090815260056020526040902060018101879055878155610ef4906003018585611dfd565b505067ffffffffffffffff88166000908152600660205260409020805473ffffffffffffffffffffffffffffffffffffffff89167fffffffffffffffffffffffff0000000000000000000000000000000000000000909116179055600198975050505050505050565b60028054610f6a9061280e565b80601f0160208091040260200160405190810160405280929190818152602001828054610f969061280e565b8015610fe35780601f10610fb857610100808354040283529160200191610fe3565b820191906000526020600020905b815481529060010190602001808311610fc657829003601f168201915b505050505081565b60003373ffffffffffffffffffffffffffffffffffffffff7f0000000000000000000000000000000000000000000000000000000000000000161461105c576040517f2ad9535100000000000000000000000000000000000000000000000000000000815260040160405180910390fd5b6000808061106c85870187612b7c565b92509250925082600860008c815260200190815260200160002060010160146101000a81548167ffffffffffffffff021916908367ffffffffffffffff16021790555081600860008c8152602001908152602001600020600001819055508b600860008c815260200190815260200160002060010160006101000a81548173ffffffffffffffffffffffffffffffffffffffff021916908373ffffffffffffffffffffffffffffffffffffffff1602179055507f124ef1ceee3977c0ed279977f26d8e0db6ed852ac07dc2ee992d7b7d5c4b6f768a838560405161116d93929190928352602083019190915267ffffffffffffffff16604082015260600190565b60405180910390a16111828989836000611b70565b9c9b505050505050505050505050565b67ffffffffffffffff861660009081526006602052604081205473ffffffffffffffffffffffffffffffffffffffff1661124e576040517f08c379a000000000000000000000000000000000000000000000000000000000815260206004820152602860248201527f76616c696461746f72206973206e6f742073657420666f72207468697320726560448201527f7175657374206964000000000000000000000000000000000000000000000000606482015260840161065e565b67ffffffffffffffff871660009081526005602052604081206004015490036112f8576040517f08c379a0000000000000000000000000000000000000000000000000000000008152602060048201526024808201527f7175657279206973206e6f742073657420666f7220746869732072657175657360448201527f7420696400000000000000000000000000000000000000000000000000000000606482015260840161065e565b61136287878780806020026020016040519081016040528093929190818152602001838360200280828437600092018290525067ffffffffffffffff8e1681526006602052604090205473ffffffffffffffffffffffffffffffffffffffff169250611df8915050565b67ffffffffffffffff871660009081526006602090815260408083205460059092529182902060049081015492517f434661ef00000000000000000000000000000000000000000000000000000000815273ffffffffffffffffffffffffffffffffffffffff9092169263434661ef926113e8928b928b928b928b928b92909101612bbc565b602060405180830381865afa158015611405573d6000803e3d6000fd5b505050506040513d601f19601f820116820180604052508101906114299190612c1f565b61148f576040517f08c379a000000000000000000000000000000000000000000000000000000000815260206004820152601b60248201527f70726f6f6620726573706f6e7365206973206e6f742076616c69640000000000604482015260640161065e565b33600090815260046020908152604080832067ffffffffffffffff8b16845282529182902080547fffffffffffffffffffffffffffffffffffffffffffffffffffffffffffffff0016600117905581518782028181018301909352878152611542928a928a918a91829190850190849080828437600092018290525067ffffffffffffffff8e1681526006602052604090205473ffffffffffffffffffffffffffffffffffffffff169250611df8915050565b5060019695505050505050565b60003373ffffffffffffffffffffffffffffffffffffffff7f000000000000000000000000000000000000000000000000000000000000000016146115c0576040517f2ad9535100000000000000000000000000000000000000000000000000000000815260040160405180910390fd5b6040517f08c379a000000000000000000000000000000000000000000000000000000000815260206004820152601860248201527f4f6e6c792073656e64696e6720616e642063617368696e670000000000000000604482015260640161065e565b60003373ffffffffffffffffffffffffffffffffffffffff7f00000000000000000000000000000000000000000000000000000000000000001614611693576040517f2ad9535100000000000000000000000000000000000000000000000000000000815260040160405180910390fd5b8873ffffffffffffffffffffffffffffffffffffffff168b73ffffffffffffffffffffffffffffffffffffffff1614806116f857508973ffffffffffffffffffffffffffffffffffffffff168b73ffffffffffffffffffffffffffffffffffffffff16145b61175e576040517f08c379a000000000000000000000000000000000000000000000000000000000815260206004820152601560248201527f4e6f74206f776e6572206f7220617070726f7665640000000000000000000000604482015260640161065e565b6117688787611aa3565b5060009a9950505050505050505050565b6117b26040518060c001604052806000815260200160008152602001600081526020016060815260200160008152602001606081525090565b67ffffffffffffffff8216600090815260056020908152604091829020825160c08101845281548152600182015481840152600282015481850152600382018054855181860281018601909652808652919492936060860193929083018282801561183c57602002820191906000526020600020905b815481526020019060010190808311611828575b505050505081526020016004820154815260200160058201805461185f9061280e565b80601f016020809104026020016040519081016040528092919081815260200182805461188b9061280e565b80156118d85780601f106118ad576101008083540402835291602001916118d8565b820191906000526020600020905b8154815290600101906020018083116118bb57829003601f168201915b5050505050815250509050919050565b3373ffffffffffffffffffffffffffffffffffffffff7f00000000000000000000000000000000000000000000000000000000000000001614611957576040517f2ad9535100000000000000000000000000000000000000000000000000000000815260040160405180910390fd5b8473ffffffffffffffffffffffffffffffffffffffff168673ffffffffffffffffffffffffffffffffffffffff1614610980576040517f08c379a000000000000000000000000000000000000000000000000000000000815260206004820152601660248201527f4f6e6c79206f776e65722063616e20617070726f766500000000000000000000604482015260640161065e565b6119f4611d00565b73ffffffffffffffffffffffffffffffffffffffff8116611a97576040517f08c379a000000000000000000000000000000000000000000000000000000000815260206004820152602660248201527f4f776e61626c653a206e6577206f776e657220697320746865207a65726f206160448201527f6464726573730000000000000000000000000000000000000000000000000000606482015260840161065e565b611aa081611d81565b50565b73ffffffffffffffffffffffffffffffffffffffff82166000908152600460209081526040808320848452600883528184206001015474010000000000000000000000000000000000000000900467ffffffffffffffff16845290915290205460ff16611b6c576040517f08c379a000000000000000000000000000000000000000000000000000000000815260206004820152600c60248201527f50726f6f66206661696c65640000000000000000000000000000000000000000604482015260640161065e565b5050565b60008160ff16600003611ba9575073ffffffffffffffffffffffffffffffffffffffff8216600090815260016020526040902054611c94565b8160ff16600103611be4575073ffffffffffffffffffffffffffffffffffffffff821660009081526001602081905260409091200154611c94565b8160ff16600203611c1e575073ffffffffffffffffffffffffffffffffffffffff8216600090815260016020526040902060020154611c94565b8160ff16600303611c58575073ffffffffffffffffffffffffffffffffffffffff8216600090815260016020526040902060030154611c94565b6040517f08c379a0000000000000000000000000000000000000000000000000000000008152602060048201526000602482015260440161065e565b612710611ca18286612c41565b611cab9190612c7e565b73ffffffffffffffffffffffffffffffffffffffff808516600090815260208181526040808320938a16835292905290812080549293508392909190611cf29084906127e8565b909155509095945050505050565b60035473ffffffffffffffffffffffffffffffffffffffff163314610a7d576040517f08c379a000000000000000000000000000000000000000000000000000000000815260206004820181905260248201527f4f776e61626c653a2063616c6c6572206973206e6f7420746865206f776e6572604482015260640161065e565b6003805473ffffffffffffffffffffffffffffffffffffffff8381167fffffffffffffffffffffffff0000000000000000000000000000000000000000831681179093556040519116919082907f8be0079c531659141344cd1fd0a4f28419497f9722a3daafe3b4186f6b6457e090600090a35050565b505050565b828054828255906000526020600020908101928215611e38579160200282015b82811115611e38578235825591602001919060010190611e1d565b50611e44929150611e48565b5090565b5b80821115611e445760008155600101611e49565b73ffffffffffffffffffffffffffffffffffffffff81168114611aa057600080fd5b8035611e8a81611e5d565b919050565b600060808284031215611ea157600080fd5b50919050565b60008083601f840112611eb957600080fd5b50813567ffffffffffffffff811115611ed157600080fd5b602083019150836020828501011115611ee957600080fd5b9250929050565b600080600080600080600080610140898b031215611f0d57600080fd5b8835611f1881611e5d565b97506020890135611f2881611e5d565b96506040890135611f3881611e5d565b95506060890135945060808901359350611f558a60a08b01611e8f565b925061012089013567ffffffffffffffff811115611f7257600080fd5b611f7e8b828c01611ea7565b999c989b5096995094979396929594505050565b600060208284031215611fa457600080fd5b8135611faf81611e5d565b9392505050565b6020808252825182820181905260009190848201906040850190845b81811015611ff857835167ffffffffffffffff1683529284019291840191600101611fd2565b50909695505050505050565b60006020828403121561201657600080fd5b5035919050565b60005b83811015612038578181015183820152602001612020565b50506000910152565b6000815180845261205981602086016020860161201d565b601f017fffffffffffffffffffffffffffffffffffffffffffffffffffffffffffffffe0169290920160200192915050565b602081526000611faf6020830184612041565b803567ffffffffffffffff81168114611e8a57600080fd5b6000602082840312156120c857600080fd5b611faf8261209e565b85815284602082015283604082015282606082015260a0608082015260006120fc60a0830184612041565b979650505050505050565b6000806040838503121561211a57600080fd5b823561212581611e5d565b9150602083013561213581611e5d565b809150509250929050565b60008083601f84011261215257600080fd5b50813567ffffffffffffffff81111561216a57600080fd5b6020830191508360208260051b8501011115611ee957600080fd5b600080600080600080600060c0888a0312156121a057600080fd5b6121a98861209e565b965060208801356121b981611e5d565b955060408801359450606088013593506080880135925060a088013567ffffffffffffffff8111156121ea57600080fd5b6121f68a828b01612140565b989b979a50959850939692959293505050565b60008060008060008060008060e0898b03121561222557600080fd5b61222e8961209e565b9750602089013561223e81611e5d565b965060408901359550606089013594506080890135935060a089013567ffffffffffffffff81111561226f57600080fd5b61227b8b828c01612140565b999c989b50969995989497949560c00135949350505050565b600080604083850312156122a757600080fd5b82356122b281611e5d565b91506122c06020840161209e565b90509250929050565b60008060008060008060008060e0898b0312156122e557600080fd5b88356122f081611e5d565b9750602089013561230081611e5d565b965060408901359550606089013561231781611e5d565b94506080890135935060a0890135925060c089013567ffffffffffffffff811115611f7257600080fd5b8060408101831015610a6557600080fd5b600080600080600080610140878903121561236c57600080fd5b6123758761209e565b9550602087013567ffffffffffffffff81111561239157600080fd5b61239d89828a01612140565b90965094506123b190508860408901612341565b92506101008701888111156123c557600080fd5b6080880192506123d58982612341565b9150509295509295509295565b600080600080600080600080610140898b0312156123ff57600080fd5b883561240a81611e5d565b9750602089013561241a81611e5d565b9650604089013595506060890135945060808901359350611f558a60a08b01611e8f565b7f4e487b7100000000000000000000000000000000000000000000000000000000600052604160045260246000fd5b604051601f82017fffffffffffffffffffffffffffffffffffffffffffffffffffffffffffffffe016810167ffffffffffffffff811182821017156124b4576124b461243e565b604052919050565b600067ffffffffffffffff8211156124d6576124d661243e565b50601f017fffffffffffffffffffffffffffffffffffffffffffffffffffffffffffffffe01660200190565b600082601f83011261251357600080fd5b8135612526612521826124bc565b61246d565b81815284602083860101111561253b57600080fd5b816020850160208301376000918101602001919091529392505050565b6000806000806000806000806000806101408b8d03121561257857600080fd5b8a3561258381611e5d565b995060208b013561259381611e5d565b985060408b01356125a381611e5d565b975060608b01356125b381611e5d565b965060808b01356125c381611e5d565b955060a08b013594506125d860c08c01611e7f565b935060e08b013592506101008b013591506101208b013567ffffffffffffffff81111561260457600080fd5b6126108d828e01612502565b9150509295989b9194979a5092959850565b6000602080835260e0830184518285015281850151604085015260408501516060850152606085015160c06080860152818151808452610100870191508483019350600092505b808310156126895783518252928401926001929092019190840190612669565b50608087015160a087015260a087015193507fffffffffffffffffffffffffffffffffffffffffffffffffffffffffffffffe08682030160c08701526120fc8185612041565b60008060008060008061012087890312156126e957600080fd5b86356126f481611e5d565b9550602087013561270481611e5d565b9450604087013561271481611e5d565b93506060870135925061272a8860808901611e8f565b915061010087013567ffffffffffffffff81111561274757600080fd5b6123d589828a01612502565b60006080828403121561276557600080fd5b6040516080810181811067ffffffffffffffff821117156127885761278861243e565b8060405250823581526020830135602082015260408301356040820152606083013560608201528091505092915050565b7f4e487b7100000000000000000000000000000000000000000000000000000000600052601160045260246000fd5b80820180821115610a6557610a656127b9565b81810381811115610a6557610a656127b9565b600181811c9082168061282257607f821691505b602082108103611ea1577f4e487b7100000000000000000000000000000000000000000000000000000000600052602260045260246000fd5b60008084546128698161280e565b6001828116801561288157600181146128b4576128e3565b7fffffffffffffffffffffffffffffffffffffffffffffffffffffffffffffff00841687528215158302870194506128e3565b8860005260208060002060005b858110156128da5781548a8201529084019082016128c1565b50505082870194505b505050938152602001949350505050565b81835260007f07ffffffffffffffffffffffffffffffffffffffffffffffffffffffffffffff83111561292657600080fd5b8260051b80836020870137939093016020019392505050565b6020815260006129536020830184866128f4565b949350505050565b60006020828403121561296d57600080fd5b5051919050565b60c08101818360005b600681101561299c57815183526020928301929091019060010161297d565b50505092915050565b6000602082840312156129b757600080fd5b815167ffffffffffffffff8111156129ce57600080fd5b8201601f810184136129df57600080fd5b80516129ed612521826124bc565b818152856020838501011115612a0257600080fd5b612a1382602083016020860161201d565b95945050505050565b601f821115611df857600081815260208120601f850160051c81016020861015612a435750805b601f850160051c820191505b8181101561098057828155600101612a4f565b815167ffffffffffffffff811115612a7c57612a7c61243e565b612a9081612a8a845461280e565b84612a1c565b602080601f831160018114612ae35760008415612aad5750858301515b7fffffffffffffffffffffffffffffffffffffffffffffffffffffffffffffffff600386901b1c1916600185901b178555610980565b6000858152602081207fffffffffffffffffffffffffffffffffffffffffffffffffffffffffffffffe08616915b82811015612b3057888601518255948401946001909101908401612b11565b5085821015612b6c57878501517fffffffffffffffffffffffffffffffffffffffffffffffffffffffffffffffff600388901b60f8161c191681555b5050505050600190811b01905550565b600080600060608486031215612b9157600080fd5b612b9a8461209e565b9250602084013591506040840135612bb181611e5d565b809150509250925092565b6000610140808352612bd1818401898b6128f4565b915050604080876020850137606083018660005b6002811015612c0257838284379183019190830190600101612be5565b505050808560e08501375082610120830152979650505050505050565b600060208284031215612c3157600080fd5b81518015158114611faf57600080fd5b6000817fffffffffffffffffffffffffffffffffffffffffffffffffffffffffffffffff0483118215151615612c7957612c796127b9565b500290565b600082612cb4577f4e487b7100000000000000000000000000000000000000000000000000000000600052601260045260246000fd5b50049056fea2646970667358221220502b5f47909a55e9bd5b3f335ff9bdee75c954a77e3e51b70a2480d741f61c6664736f6c63430008100033",
    "linkReferences": {
      "src/contracts/modules/bounties/ClaimWithID.sol": {
        "PoseidonUnit6L": [
          {
            "start": 4387,
            "length": 20
          }
        ],
        "SpongePoseidon": [
          {
            "start": 4274,
            "length": 20
          }
        ]
      }
    }
  },
  "methodIdentifiers": {
    "REGISTRAR()": "cb609077",
    "_URI()": "b4e87e8f",
    "dappOperatorFees(address)": "1385a7b6",
    "getFees(address)": "9af608c9",
    "getSupportedRequests()": "37ba9523",
    "getZKPRequest(uint64)": "c76d0845",
    "locks(uint256)": "f4dadc61",
    "owner()": "8da5cb5b",
    "processApproval(address,address,address,uint256,(address,uint256,uint256,address),bytes)": "e4175968",
    "processCash(address,address,address,uint256,uint256,(address,uint256,uint256,address),bytes)": "06890cd0",
    "processFund(address,address,uint256,uint256,uint256,(address,uint256,uint256,address),bytes)": "be2f3fdd",
    "processTokenURI(uint256)": "4fe17e1a",
    "processTransfer(address,address,address,address,address,uint256,address,uint256,uint256,bytes)": "c0c9572c",
    "processWrite(address,address,uint256,address,uint256,uint256,bytes)": "b5d701ba",
    "proofs(address,uint64)": "b45c0fdf",
    "renounceOwnership()": "715018a6",
    "requestQueries(uint64)": "96bf4741",
    "requestValidators(uint64)": "a8723114",
    "revenue(address,address)": "9a0ea37a",
    "setFees((uint256,uint256,uint256,uint256))": "fd77c960",
    "setZKPRequest(uint64,address,uint256,uint256,uint256,uint256[])": "9abdc645",
    "setZKPRequestRaw(uint64,address,uint256,uint256,uint256,uint256[],uint256)": "9e621bcf",
    "submitZKPResponse(uint64,uint256[],uint256[2],uint256[2][2],uint256[2])": "b68967e2",
    "transferOwnership(address)": "f2fde38b",
    "withdrawFees(address)": "164e68de"
  },
  "id": 61
}