{
  "abi": [
    {
      "inputs": [
        {
          "internalType": "address",
          "name": "registrar",
          "type": "address"
        },
        {
          "components": [
            {
              "internalType": "uint256",
              "name": "writeBPS",
              "type": "uint256"
            },
            {
              "internalType": "uint256",
              "name": "transferBPS",
              "type": "uint256"
            },
            {
              "internalType": "uint256",
              "name": "fundBPS",
              "type": "uint256"
            },
            {
              "internalType": "uint256",
              "name": "cashBPS",
              "type": "uint256"
            }
          ],
          "internalType": "struct DataTypes.WTFCFees",
          "name": "_fees",
          "type": "tuple"
        },
        {
          "internalType": "string",
          "name": "__baseURI",
          "type": "string"
        }
      ],
      "stateMutability": "nonpayable",
      "type": "constructor"
    },
    {
      "inputs": [],
      "name": "InitParamsInvalid",
      "type": "error"
    },
    {
      "inputs": [],
      "name": "NotRegistrar",
      "type": "error"
    },
    {
      "anonymous": false,
      "inputs": [
        {
          "indexed": false,
          "internalType": "uint256",
          "name": "cheqId",
          "type": "uint256"
        },
        {
          "indexed": false,
          "internalType": "uint256",
          "name": "claimPeriod",
          "type": "uint256"
        },
        {
          "indexed": false,
          "internalType": "uint64",
          "name": "requiredProof",
          "type": "uint64"
        }
      ],
      "name": "Locked",
      "type": "event"
    },
    {
      "anonymous": false,
      "inputs": [
        {
          "indexed": true,
          "internalType": "address",
          "name": "previousOwner",
          "type": "address"
        },
        {
          "indexed": true,
          "internalType": "address",
          "name": "newOwner",
          "type": "address"
        }
      ],
      "name": "OwnershipTransferred",
      "type": "event"
    },
    {
      "inputs": [],
      "name": "REGISTRAR",
      "outputs": [
        {
          "internalType": "address",
          "name": "",
          "type": "address"
        }
      ],
      "stateMutability": "view",
      "type": "function"
    },
    {
      "inputs": [],
      "name": "_URI",
      "outputs": [
        {
          "internalType": "string",
          "name": "",
          "type": "string"
        }
      ],
      "stateMutability": "view",
      "type": "function"
    },
    {
      "inputs": [],
      "name": "fees",
      "outputs": [
        {
          "internalType": "uint256",
          "name": "writeBPS",
          "type": "uint256"
        },
        {
          "internalType": "uint256",
          "name": "transferBPS",
          "type": "uint256"
        },
        {
          "internalType": "uint256",
          "name": "fundBPS",
          "type": "uint256"
        },
        {
          "internalType": "uint256",
          "name": "cashBPS",
          "type": "uint256"
        }
      ],
      "stateMutability": "view",
      "type": "function"
    },
    {
      "inputs": [],
      "name": "getFees",
      "outputs": [
        {
          "internalType": "uint256",
          "name": "",
          "type": "uint256"
        },
        {
          "internalType": "uint256",
          "name": "",
          "type": "uint256"
        },
        {
          "internalType": "uint256",
          "name": "",
          "type": "uint256"
        },
        {
          "internalType": "uint256",
          "name": "",
          "type": "uint256"
        }
      ],
      "stateMutability": "view",
      "type": "function"
    },
    {
      "inputs": [],
      "name": "getSupportedRequests",
      "outputs": [
        {
          "internalType": "uint64[]",
          "name": "arr",
          "type": "uint64[]"
        }
      ],
      "stateMutability": "view",
      "type": "function"
    },
    {
      "inputs": [
        {
          "internalType": "uint64",
          "name": "requestId",
          "type": "uint64"
        }
      ],
      "name": "getZKPRequest",
      "outputs": [
        {
          "components": [
            {
              "internalType": "uint256",
              "name": "schema",
              "type": "uint256"
            },
            {
              "internalType": "uint256",
              "name": "claimPathKey",
              "type": "uint256"
            },
            {
              "internalType": "uint256",
              "name": "operator",
              "type": "uint256"
            },
            {
              "internalType": "uint256[]",
              "name": "value",
              "type": "uint256[]"
            },
            {
              "internalType": "uint256",
              "name": "queryHash",
              "type": "uint256"
            },
            {
              "internalType": "string",
              "name": "circuitId",
              "type": "string"
            }
          ],
          "internalType": "struct ICircuitValidator.CircuitQuery",
          "name": "",
          "type": "tuple"
        }
      ],
      "stateMutability": "view",
      "type": "function"
    },
    {
      "inputs": [
        {
          "internalType": "uint256",
          "name": "",
          "type": "uint256"
        }
      ],
      "name": "locks",
      "outputs": [
        {
          "internalType": "uint256",
          "name": "claimPeriod",
          "type": "uint256"
        },
        {
          "internalType": "address",
          "name": "sender",
          "type": "address"
        },
        {
          "internalType": "uint64",
          "name": "requiredProof",
          "type": "uint64"
        }
      ],
      "stateMutability": "view",
      "type": "function"
    },
    {
      "inputs": [],
      "name": "owner",
      "outputs": [
        {
          "internalType": "address",
          "name": "",
          "type": "address"
        }
      ],
      "stateMutability": "view",
      "type": "function"
    },
    {
      "inputs": [
        {
          "internalType": "address",
          "name": "caller",
          "type": "address"
        },
        {
          "internalType": "address",
          "name": "owner",
          "type": "address"
        },
        {
          "internalType": "address",
          "name": "",
          "type": "address"
        },
        {
          "internalType": "uint256",
          "name": "",
          "type": "uint256"
        },
        {
          "components": [
            {
              "internalType": "address",
              "name": "currency",
              "type": "address"
            },
            {
              "internalType": "uint256",
              "name": "escrowed",
              "type": "uint256"
            },
            {
              "internalType": "uint256",
              "name": "createdAt",
              "type": "uint256"
            },
            {
              "internalType": "address",
              "name": "module",
              "type": "address"
            }
          ],
          "internalType": "struct DataTypes.Cheq",
          "name": "",
          "type": "tuple"
        },
        {
          "internalType": "bytes",
          "name": "",
          "type": "bytes"
        }
      ],
      "name": "processApproval",
      "outputs": [],
      "stateMutability": "view",
      "type": "function"
    },
    {
      "inputs": [
        {
          "internalType": "address",
          "name": "caller",
          "type": "address"
        },
        {
          "internalType": "address",
          "name": "owner",
          "type": "address"
        },
        {
          "internalType": "address",
          "name": "",
          "type": "address"
        },
        {
          "internalType": "uint256",
          "name": "amount",
          "type": "uint256"
        },
        {
          "internalType": "uint256",
          "name": "cheqId",
          "type": "uint256"
        },
        {
          "components": [
            {
              "internalType": "address",
              "name": "currency",
              "type": "address"
            },
            {
              "internalType": "uint256",
              "name": "escrowed",
              "type": "uint256"
            },
            {
              "internalType": "uint256",
              "name": "createdAt",
              "type": "uint256"
            },
            {
              "internalType": "address",
              "name": "module",
              "type": "address"
            }
          ],
          "internalType": "struct DataTypes.Cheq",
          "name": "cheq",
          "type": "tuple"
        },
        {
          "internalType": "bytes",
          "name": "initData",
          "type": "bytes"
        }
      ],
      "name": "processCash",
      "outputs": [
        {
          "internalType": "uint256",
          "name": "",
          "type": "uint256"
        }
      ],
      "stateMutability": "nonpayable",
      "type": "function"
    },
    {
      "inputs": [
        {
          "internalType": "address",
          "name": "",
          "type": "address"
        },
        {
          "internalType": "address",
          "name": "",
          "type": "address"
        },
        {
          "internalType": "uint256",
          "name": "",
          "type": "uint256"
        },
        {
          "internalType": "uint256",
          "name": "",
          "type": "uint256"
        },
        {
          "internalType": "uint256",
          "name": "",
          "type": "uint256"
        },
        {
          "components": [
            {
              "internalType": "address",
              "name": "currency",
              "type": "address"
            },
            {
              "internalType": "uint256",
              "name": "escrowed",
              "type": "uint256"
            },
            {
              "internalType": "uint256",
              "name": "createdAt",
              "type": "uint256"
            },
            {
              "internalType": "address",
              "name": "module",
              "type": "address"
            }
          ],
          "internalType": "struct DataTypes.Cheq",
          "name": "",
          "type": "tuple"
        },
        {
          "internalType": "bytes",
          "name": "",
          "type": "bytes"
        }
      ],
      "name": "processFund",
      "outputs": [
        {
          "internalType": "uint256",
          "name": "",
          "type": "uint256"
        }
      ],
      "stateMutability": "view",
      "type": "function"
    },
    {
      "inputs": [
        {
          "internalType": "uint256",
          "name": "tokenId",
          "type": "uint256"
        }
      ],
      "name": "processTokenURI",
      "outputs": [
        {
          "internalType": "string",
          "name": "",
          "type": "string"
        }
      ],
      "stateMutability": "view",
      "type": "function"
    },
    {
      "inputs": [
        {
          "internalType": "address",
          "name": "caller",
          "type": "address"
        },
        {
          "internalType": "address",
          "name": "approved",
          "type": "address"
        },
        {
          "internalType": "address",
          "name": "owner",
          "type": "address"
        },
        {
          "internalType": "address",
          "name": "",
          "type": "address"
        },
        {
          "internalType": "address",
          "name": "to",
          "type": "address"
        },
        {
          "internalType": "uint256",
          "name": "cheqId",
          "type": "uint256"
        },
        {
          "internalType": "address",
          "name": "",
          "type": "address"
        },
        {
          "internalType": "uint256",
          "name": "",
          "type": "uint256"
        },
        {
          "internalType": "uint256",
          "name": "",
          "type": "uint256"
        },
        {
          "internalType": "bytes",
          "name": "",
          "type": "bytes"
        }
      ],
      "name": "processTransfer",
      "outputs": [
        {
          "internalType": "uint256",
          "name": "",
          "type": "uint256"
        }
      ],
      "stateMutability": "view",
      "type": "function"
    },
    {
      "inputs": [
        {
          "internalType": "address",
          "name": "caller",
          "type": "address"
        },
        {
          "internalType": "address",
          "name": "",
          "type": "address"
        },
        {
          "internalType": "uint256",
          "name": "cheqId",
          "type": "uint256"
        },
        {
          "internalType": "address",
          "name": "currency",
          "type": "address"
        },
        {
          "internalType": "uint256",
          "name": "escrowed",
          "type": "uint256"
        },
        {
          "internalType": "uint256",
          "name": "",
          "type": "uint256"
        },
        {
          "internalType": "bytes",
          "name": "initData",
          "type": "bytes"
        }
      ],
      "name": "processWrite",
      "outputs": [
        {
          "internalType": "uint256",
          "name": "",
          "type": "uint256"
        }
      ],
      "stateMutability": "nonpayable",
      "type": "function"
    },
    {
      "inputs": [
        {
          "internalType": "address",
          "name": "",
          "type": "address"
        },
        {
          "internalType": "uint64",
          "name": "",
          "type": "uint64"
        }
      ],
      "name": "proofs",
      "outputs": [
        {
          "internalType": "bool",
          "name": "",
          "type": "bool"
        }
      ],
      "stateMutability": "view",
      "type": "function"
    },
    {
      "inputs": [],
      "name": "renounceOwnership",
      "outputs": [],
      "stateMutability": "nonpayable",
      "type": "function"
    },
    {
      "inputs": [
        {
          "internalType": "uint64",
          "name": "",
          "type": "uint64"
        }
      ],
      "name": "requestQueries",
      "outputs": [
        {
          "internalType": "uint256",
          "name": "schema",
          "type": "uint256"
        },
        {
          "internalType": "uint256",
          "name": "claimPathKey",
          "type": "uint256"
        },
        {
          "internalType": "uint256",
          "name": "operator",
          "type": "uint256"
        },
        {
          "internalType": "uint256",
          "name": "queryHash",
          "type": "uint256"
        },
        {
          "internalType": "string",
          "name": "circuitId",
          "type": "string"
        }
      ],
      "stateMutability": "view",
      "type": "function"
    },
    {
      "inputs": [
        {
          "internalType": "uint64",
          "name": "",
          "type": "uint64"
        }
      ],
      "name": "requestValidators",
      "outputs": [
        {
          "internalType": "contract ICircuitValidator",
          "name": "",
          "type": "address"
        }
      ],
      "stateMutability": "view",
      "type": "function"
    },
    {
      "inputs": [
        {
          "internalType": "address",
          "name": "",
          "type": "address"
        },
        {
          "internalType": "address",
          "name": "",
          "type": "address"
        }
      ],
      "name": "revenue",
      "outputs": [
        {
          "internalType": "uint256",
          "name": "",
          "type": "uint256"
        }
      ],
      "stateMutability": "view",
      "type": "function"
    },
    {
      "inputs": [
        {
          "internalType": "uint64",
          "name": "requestId",
          "type": "uint64"
        },
        {
          "internalType": "contract ICircuitValidator",
          "name": "validator",
          "type": "address"
        },
        {
          "internalType": "uint256",
          "name": "schema",
          "type": "uint256"
        },
        {
          "internalType": "uint256",
          "name": "claimPathKey",
          "type": "uint256"
        },
        {
          "internalType": "uint256",
          "name": "operator",
          "type": "uint256"
        },
        {
          "internalType": "uint256[]",
          "name": "value",
          "type": "uint256[]"
        }
      ],
      "name": "setZKPRequest",
      "outputs": [
        {
          "internalType": "bool",
          "name": "",
          "type": "bool"
        }
      ],
      "stateMutability": "nonpayable",
      "type": "function"
    },
    {
      "inputs": [
        {
          "internalType": "uint64",
          "name": "requestId",
          "type": "uint64"
        },
        {
          "internalType": "contract ICircuitValidator",
          "name": "validator",
          "type": "address"
        },
        {
          "internalType": "uint256",
          "name": "schema",
          "type": "uint256"
        },
        {
          "internalType": "uint256",
          "name": "claimPathKey",
          "type": "uint256"
        },
        {
          "internalType": "uint256",
          "name": "operator",
          "type": "uint256"
        },
        {
          "internalType": "uint256[]",
          "name": "value",
          "type": "uint256[]"
        },
        {
          "internalType": "uint256",
          "name": "queryHash",
          "type": "uint256"
        }
      ],
      "name": "setZKPRequestRaw",
      "outputs": [
        {
          "internalType": "bool",
          "name": "",
          "type": "bool"
        }
      ],
      "stateMutability": "nonpayable",
      "type": "function"
    },
    {
      "inputs": [
        {
          "internalType": "uint64",
          "name": "requestId",
          "type": "uint64"
        },
        {
          "internalType": "uint256[]",
          "name": "inputs",
          "type": "uint256[]"
        },
        {
          "internalType": "uint256[2]",
          "name": "a",
          "type": "uint256[2]"
        },
        {
          "internalType": "uint256[2][2]",
          "name": "b",
          "type": "uint256[2][2]"
        },
        {
          "internalType": "uint256[2]",
          "name": "c",
          "type": "uint256[2]"
        }
      ],
      "name": "submitZKPResponse",
      "outputs": [
        {
          "internalType": "bool",
          "name": "",
          "type": "bool"
        }
      ],
      "stateMutability": "nonpayable",
      "type": "function"
    },
    {
      "inputs": [
        {
          "internalType": "address",
          "name": "newOwner",
          "type": "address"
        }
      ],
      "name": "transferOwnership",
      "outputs": [],
      "stateMutability": "nonpayable",
      "type": "function"
    },
    {
      "inputs": [
        {
          "internalType": "address",
          "name": "token",
          "type": "address"
        }
      ],
      "name": "withdrawFees",
      "outputs": [],
      "stateMutability": "nonpayable",
      "type": "function"
    }
  ],
  "bytecode": {
    "object": "0x60a06040523480156200001157600080fd5b50604051620028c9380380620028c9833981016040819052620000349162000356565b82826001600160a01b0382166200005e576040516348be0eb360e01b815260040160405180910390fd5b6001600160a01b038216608052805161271011620000b25760405162461bcd60e51b81526020600482015260146024820152600080516020620028a983398151915260448201526064015b60405180910390fd5b612710816020015110620000f85760405162461bcd60e51b81526020600482015260146024820152600080516020620028a98339815191526044820152606401620000a9565b6127108160400151106200013e5760405162461bcd60e51b81526020600482015260146024820152600080516020620028a98339815191526044820152606401620000a9565b612710816060015110620001845760405162461bcd60e51b81526020600482015260146024820152600080516020620028a98339815191526044820152606401620000a9565b80516001556020808201516002556040808301516003556060830151600455514281526001600160a01b038416917ff1a1fa6b64aa95186f5a1285e76198d0da80d9c5a88062641d447f1d7c54e56c910160405180910390a250620001eb90503362000203565b6005620001f982826200048e565b505050506200055a565b600680546001600160a01b038381166001600160a01b0319831681179093556040519116919082907f8be0079c531659141344cd1fd0a4f28419497f9722a3daafe3b4186f6b6457e090600090a35050565b634e487b7160e01b600052604160045260246000fd5b604051608081016001600160401b038111828210171562000290576200029062000255565b60405290565b604051601f8201601f191681016001600160401b0381118282101715620002c157620002c162000255565b604052919050565b600082601f830112620002db57600080fd5b81516001600160401b03811115620002f757620002f762000255565b60206200030d601f8301601f1916820162000296565b82815285828487010111156200032257600080fd5b60005b838110156200034257858101830151828201840152820162000325565b506000928101909101919091529392505050565b600080600083850360c08112156200036d57600080fd5b84516001600160a01b03811681146200038557600080fd5b93506080601f19820112156200039a57600080fd5b50620003a56200026b565b602085015181526040850151602082015260608501516040820152608085015160608201528092505060a084015160018060401b03811115620003e757600080fd5b620003f586828701620002c9565b9150509250925092565b600181811c908216806200041457607f821691505b6020821081036200043557634e487b7160e01b600052602260045260246000fd5b50919050565b601f8211156200048957600081815260208120601f850160051c81016020861015620004645750805b601f850160051c820191505b81811015620004855782815560010162000470565b5050505b505050565b81516001600160401b03811115620004aa57620004aa62000255565b620004c281620004bb8454620003ff565b846200043b565b602080601f831160018114620004fa5760008415620004e15750858301515b600019600386901b1c1916600185901b17855562000485565b600085815260208120601f198616915b828110156200052b578886015182559484019460019091019084016200050a565b50858210156200054a5787850151600019600388901b60f8161c191681555b5050505050600190811b01905550565b608051612309620005a060003960008181610382015281816104560152818161067e01528181610c6e015281816110a001528181611133015261137a01526123096000f3fe608060405234801561001057600080fd5b50600436106101585760003560e01c8063b45c0fdf116100c3578063c76d08451161007c578063c76d08451461035d578063cb6090771461037d578063db8d55f1146103a4578063e4175968146103b5578063f2fde38b146103c8578063f4dadc61146103db57600080fd5b8063b45c0fdf146102db578063b4e87e8f14610309578063b5d701ba14610311578063b68967e214610324578063be2f3fdd14610337578063c0c9572c1461034a57600080fd5b806396bf47411161011557806396bf4741146101fa5780639a0ea37a1461021e5780639abdc645146102465780639af1d35a146102695780639e621bcf1461029f578063a8723114146102b257600080fd5b806306890cd01461015d578063164e68de1461018357806337ba9523146101985780634fe17e1a146101ad578063715018a6146101cd5780638da5cb5b146101d5575b600080fd5b61017061016b366004611709565b610449565b6040519081526020015b60405180910390f35b6101966101913660046117aa565b6105eb565b005b6101a061071b565b60405161017a91906117ce565b6101c06101bb36600461181b565b6107a5565b60405161017a9190611884565b6101966107fc565b6006546001600160a01b03165b6040516001600160a01b03909116815260200161017a565b61020d6102083660046118ae565b610810565b60405161017a9594939291906118c9565b61017061022c3660046118ff565b600060208181529281526040808220909352908152205481565b61025961025436600461197c565b6108c9565b604051901515815260200161017a565b60015460025460035460045461027f9392919084565b60408051948552602085019390935291830152606082015260800161017a565b6102596102ad3660046119ff565b610a1a565b6101e26102c03660046118ae565b6009602052600090815260409020546001600160a01b031681565b6102596102e9366004611a89565b600760209081526000928352604080842090915290825290205460ff1681565b6101c0610bd3565b61017061031f366004611abe565b610c61565b610259610332366004611b46565b610dc3565b610170610345366004611bd5565b611093565b610170610358366004611cf4565b611126565b61037061036b3660046118ae565b611201565b60405161017a9190611dbd565b6101e27f000000000000000000000000000000000000000000000000000000000000000081565b60015460025460035460045461027f565b6101966103c3366004611e4c565b61136f565b6101966103d63660046117aa565b611412565b61041d6103e936600461181b565b600b60205260009081526040902080546001909101546001600160a01b03811690600160a01b90046001600160401b031683565b604080519384526001600160a01b0390921660208401526001600160401b03169082015260600161017a565b6000336001600160a01b037f0000000000000000000000000000000000000000000000000000000000000000161461049457604051632ad9535160e01b815260040160405180910390fd5b836020013586146104de5760405162461bcd60e51b815260206004820152600f60248201526e09aeae6e840ccead8d8f240c6c2e6d608b1b60448201526064015b60405180910390fd5b876001600160a01b0316896001600160a01b03160361050657610501888661148b565b6105bc565b6000858152600b60205260409020600101546001600160a01b03908116908a160361058b576000858152600b60205260409081902054429161054b9190870135611ee5565b10156105015760405162461bcd60e51b815260206004820152600f60248201526e139bdd08195e1c1a5c9959081e595d608a1b60448201526064016104d5565b60405162461bcd60e51b815260206004820152600660248201526511985a5b195960d21b60448201526064016104d5565b6105de6105cc60208601866117aa565b876105d9858701876117aa565b61150e565b9998505050505050505050565b336000908152602081815260408083206001600160a01b0385168452909152902054600181116106545760405162461bcd60e51b8152602060048201526014602482015273496e73756666696369656e7420726576656e756560601b60448201526064016104d5565b336000908152602081815260408083206001600160a01b03868116855292529091206001908190557f00000000000000000000000000000000000000000000000000000000000000009091169063d6a4f84c9084906106b39085611ef8565b6040516001600160e01b031960e085901b1681526001600160a01b0390921660048301526024820152336044820152606401600060405180830381600087803b1580156106ff57600080fd5b505af1158015610713573d6000803e3d6000fd5b505050505050565b6060600a80548060200260200160405190810160405280929190818152602001828054801561079b57602002820191906000526020600020906000905b82829054906101000a90046001600160401b03166001600160401b0316815260200190600801906020826007010492830192600103820291508084116107585790505b5050505050905090565b60606000600580546107b690611f0b565b9050116107d257604051806020016040528060008152506107f6565b6005826040516020016107e6929190611f3f565b6040516020818303038152906040525b92915050565b610804611573565b61080e60006115cd565b565b60086020526000908152604090208054600182015460028301546004840154600585018054949593949293919261084690611f0b565b80601f016020809104026020016040519081016040528092919081815260200182805461087290611f0b565b80156108bf5780601f10610894576101008083540402835291602001916108bf565b820191906000526020600020905b8154815290600101906020018083116108a257829003601f168201915b5050505050905085565b60006108d3611573565b6040516340ec6e4960e01b815260009073__$794542bf2298016dc4cb1bb292e8abe9a6$__906340ec6e499061090f9087908790600401611fec565b602060405180830381865af415801561092c573d6000803e3d6000fd5b505050506040513d601f19601f820116820180604052508101906109509190612008565b9050600073__$b12667875de82e9b7f462320cbd376df80$__63f5b4a7886040518060c001604052808b8152602001600081526020018981526020018a815260200160008152602001858152506040518263ffffffff1660e01b81526004016109b99190612021565b602060405180830381865af41580156109d6573d6000803e3d6000fd5b505050506040513d601f19601f820116820180604052508101906109fa9190612008565b9050610a0c8a8a8a8a8a8a8a88610a1a565b9a9950505050505050505050565b6000610a24611573565b6001600160401b0389166000908152600960205260409020546001600160a01b0316610aa857600a80546001810182556000919091527fc65a7bb8d6351c1cf70c95a316cc6a92839c986682d98bc35f958f4883f9d2a86004820401805460039092166008026101000a6001600160401b0381810219909316928c16029190911790555b6001600160401b038916600090815260086020526040808220600480820186905560029091018890558151632cd1575560e11b815291516001600160a01b038c16936359a2aeaa9380840193919291908290030181865afa158015610b11573d6000803e3d6000fd5b505050506040513d6000823e601f3d908101601f19168201604052610b399190810190612052565b6001600160401b038a16600090815260086020526040902060050190610b5f908261210e565b506001600160401b038916600090815260086020526040902060018101879055878155610b90906003018585611624565b50506001600160401b038816600090815260096020526040902080546001600160a01b0389166001600160a01b0319909116179055600198975050505050505050565b60058054610be090611f0b565b80601f0160208091040260200160405190810160405280929190818152602001828054610c0c90611f0b565b8015610c595780601f10610c2e57610100808354040283529160200191610c59565b820191906000526020600020905b815481529060010190602001808311610c3c57829003601f168201915b505050505081565b6000336001600160a01b037f00000000000000000000000000000000000000000000000000000000000000001614610cac57604051632ad9535160e01b815260040160405180910390fd5b60008080610cbc858701876121cd565b92509250925082600b60008c815260200190815260200160002060010160146101000a8154816001600160401b0302191690836001600160401b0316021790555081600b60008c8152602001908152602001600020600001819055508b600b60008c815260200190815260200160002060010160006101000a8154816001600160a01b0302191690836001600160a01b031602179055507f124ef1ceee3977c0ed279977f26d8e0db6ed852ac07dc2ee992d7b7d5c4b6f768a8385604051610da09392919092835260208301919091526001600160401b0316604082015260600190565b60405180910390a1610db389898361150e565b9c9b505050505050505050505050565b6001600160401b0386166000908152600960205260408120546001600160a01b0316610e425760405162461bcd60e51b815260206004820152602860248201527f76616c696461746f72206973206e6f742073657420666f7220746869732072656044820152671c5d595cdd081a5960c21b60648201526084016104d5565b6001600160401b0387166000908152600860205260408120600401549003610eb85760405162461bcd60e51b8152602060048201526024808201527f7175657279206973206e6f742073657420666f722074686973207265717565736044820152631d081a5960e21b60648201526084016104d5565b610f148787878080602002602001604051908101604052809392919081815260200183836020028082843760009201829052506001600160401b038e168152600960205260409020546001600160a01b0316925061161f915050565b6001600160401b038716600090815260096020908152604080832054600890925291829020600490810154925163434661ef60e01b81526001600160a01b039092169263434661ef92610f73928b928b928b928b928b9290910161220d565b602060405180830381865afa158015610f90573d6000803e3d6000fd5b505050506040513d601f19601f82011682018060405250810190610fb49190612270565b6110005760405162461bcd60e51b815260206004820152601b60248201527f70726f6f6620726573706f6e7365206973206e6f742076616c6964000000000060448201526064016104d5565b3360009081526007602090815260408083206001600160401b038b168452825291829020805460ff1916600117905581518782028181018301909352878152611086928a928a918a9182919085019084908082843760009201829052506001600160401b038e168152600960205260409020546001600160a01b0316925061161f915050565b5060019695505050505050565b6000336001600160a01b037f000000000000000000000000000000000000000000000000000000000000000016146110de57604051632ad9535160e01b815260040160405180910390fd5b60405162461bcd60e51b815260206004820152601860248201527f4f6e6c792073656e64696e6720616e642063617368696e67000000000000000060448201526064016104d5565b6000336001600160a01b037f0000000000000000000000000000000000000000000000000000000000000000161461117157604051632ad9535160e01b815260040160405180910390fd5b886001600160a01b03168b6001600160a01b031614806111a25750896001600160a01b03168b6001600160a01b0316145b6111e65760405162461bcd60e51b8152602060048201526015602482015274139bdd081bdddb995c881bdc88185c1c1c9bdd9959605a1b60448201526064016104d5565b6111f0878761148b565b5060009a9950505050505050505050565b61123a6040518060c001604052806000815260200160008152602001600081526020016060815260200160008152602001606081525090565b6001600160401b038216600090815260086020908152604091829020825160c0810184528154815260018201548184015260028201548185015260038201805485518186028101860190965280865291949293606086019392908301828280156112c357602002820191906000526020600020905b8154815260200190600101908083116112af575b50505050508152602001600482015481526020016005820180546112e690611f0b565b80601f016020809104026020016040519081016040528092919081815260200182805461131290611f0b565b801561135f5780601f106113345761010080835404028352916020019161135f565b820191906000526020600020905b81548152906001019060200180831161134257829003601f168201915b5050505050815250509050919050565b336001600160a01b037f000000000000000000000000000000000000000000000000000000000000000016146113b857604051632ad9535160e01b815260040160405180910390fd5b846001600160a01b0316866001600160a01b0316146107135760405162461bcd60e51b81526020600482015260166024820152754f6e6c79206f776e65722063616e20617070726f766560501b60448201526064016104d5565b61141a611573565b6001600160a01b03811661147f5760405162461bcd60e51b815260206004820152602660248201527f4f776e61626c653a206e6577206f776e657220697320746865207a65726f206160448201526564647265737360d01b60648201526084016104d5565b611488816115cd565b50565b6001600160a01b0382166000908152600760209081526040808320848452600b835281842060010154600160a01b90046001600160401b0316845290915290205460ff1661150a5760405162461bcd60e51b815260206004820152600c60248201526b141c9bdbd98819985a5b195960a21b60448201526064016104d5565b5050565b600254600090612710906115229085612292565b61152c91906122b1565b6001600160a01b03808416600090815260208181526040808320938916835292905290812080549293508392909190611566908490611ee5565b9091555090949350505050565b6006546001600160a01b0316331461080e5760405162461bcd60e51b815260206004820181905260248201527f4f776e61626c653a2063616c6c6572206973206e6f7420746865206f776e657260448201526064016104d5565b600680546001600160a01b038381166001600160a01b0319831681179093556040519116919082907f8be0079c531659141344cd1fd0a4f28419497f9722a3daafe3b4186f6b6457e090600090a35050565b505050565b82805482825590600052602060002090810192821561165f579160200282015b8281111561165f578235825591602001919060010190611644565b5061166b92915061166f565b5090565b5b8082111561166b5760008155600101611670565b6001600160a01b038116811461148857600080fd5b80356116a481611684565b919050565b6000608082840312156116bb57600080fd5b50919050565b60008083601f8401126116d357600080fd5b5081356001600160401b038111156116ea57600080fd5b60208301915083602082850101111561170257600080fd5b9250929050565b600080600080600080600080610140898b03121561172657600080fd5b883561173181611684565b9750602089013561174181611684565b9650604089013561175181611684565b9550606089013594506080890135935061176e8a60a08b016116a9565b92506101208901356001600160401b0381111561178a57600080fd5b6117968b828c016116c1565b999c989b5096995094979396929594505050565b6000602082840312156117bc57600080fd5b81356117c781611684565b9392505050565b6020808252825182820181905260009190848201906040850190845b8181101561180f5783516001600160401b0316835292840192918401916001016117ea565b50909695505050505050565b60006020828403121561182d57600080fd5b5035919050565b60005b8381101561184f578181015183820152602001611837565b50506000910152565b60008151808452611870816020860160208601611834565b601f01601f19169290920160200192915050565b6020815260006117c76020830184611858565b80356001600160401b03811681146116a457600080fd5b6000602082840312156118c057600080fd5b6117c782611897565b85815284602082015283604082015282606082015260a0608082015260006118f460a0830184611858565b979650505050505050565b6000806040838503121561191257600080fd5b823561191d81611684565b9150602083013561192d81611684565b809150509250929050565b60008083601f84011261194a57600080fd5b5081356001600160401b0381111561196157600080fd5b6020830191508360208260051b850101111561170257600080fd5b600080600080600080600060c0888a03121561199757600080fd5b6119a088611897565b965060208801356119b081611684565b955060408801359450606088013593506080880135925060a08801356001600160401b038111156119e057600080fd5b6119ec8a828b01611938565b989b979a50959850939692959293505050565b60008060008060008060008060e0898b031215611a1b57600080fd5b611a2489611897565b97506020890135611a3481611684565b965060408901359550606089013594506080890135935060a08901356001600160401b03811115611a6457600080fd5b611a708b828c01611938565b999c989b50969995989497949560c00135949350505050565b60008060408385031215611a9c57600080fd5b8235611aa781611684565b9150611ab560208401611897565b90509250929050565b60008060008060008060008060e0898b031215611ada57600080fd5b8835611ae581611684565b97506020890135611af581611684565b9650604089013595506060890135611b0c81611684565b94506080890135935060a0890135925060c08901356001600160401b0381111561178a57600080fd5b80604081018310156107f657600080fd5b6000806000806000806101408789031215611b6057600080fd5b611b6987611897565b955060208701356001600160401b03811115611b8457600080fd5b611b9089828a01611938565b9096509450611ba490508860408901611b35565b9250610100870188811115611bb857600080fd5b608088019250611bc88982611b35565b9150509295509295509295565b600080600080600080600080610140898b031215611bf257600080fd5b8835611bfd81611684565b97506020890135611c0d81611684565b965060408901359550606089013594506080890135935061176e8a60a08b016116a9565b634e487b7160e01b600052604160045260246000fd5b604051601f8201601f191681016001600160401b0381118282101715611c6f57611c6f611c31565b604052919050565b60006001600160401b03821115611c9057611c90611c31565b50601f01601f191660200190565b600082601f830112611caf57600080fd5b8135611cc2611cbd82611c77565b611c47565b818152846020838601011115611cd757600080fd5b816020850160208301376000918101602001919091529392505050565b6000806000806000806000806000806101408b8d031215611d1457600080fd5b8a35611d1f81611684565b995060208b0135611d2f81611684565b985060408b0135611d3f81611684565b975060608b0135611d4f81611684565b965060808b0135611d5f81611684565b955060a08b01359450611d7460c08c01611699565b935060e08b013592506101008b013591506101208b01356001600160401b03811115611d9f57600080fd5b611dab8d828e01611c9e565b9150509295989b9194979a5092959850565b6000602080835260e0830184518285015281850151604085015260408501516060850152606085015160c06080860152818151808452610100870191508483019350600092505b80831015611e245783518252928401926001929092019190840190611e04565b50608087015160a087015260a08701519350601f198682030160c08701526118f48185611858565b6000806000806000806101208789031215611e6657600080fd5b8635611e7181611684565b95506020870135611e8181611684565b94506040870135611e9181611684565b935060608701359250611ea788608089016116a9565b91506101008701356001600160401b03811115611ec357600080fd5b611bc889828a01611c9e565b634e487b7160e01b600052601160045260246000fd5b808201808211156107f6576107f6611ecf565b818103818111156107f6576107f6611ecf565b600181811c90821680611f1f57607f821691505b6020821081036116bb57634e487b7160e01b600052602260045260246000fd5b6000808454611f4d81611f0b565b60018281168015611f655760018114611f7a57611fa9565b60ff1984168752821515830287019450611fa9565b8860005260208060002060005b85811015611fa05781548a820152908401908201611f87565b50505082870194505b505050938152602001949350505050565b81835260006001600160fb1b03831115611fd357600080fd5b8260051b80836020870137939093016020019392505050565b602081526000612000602083018486611fba565b949350505050565b60006020828403121561201a57600080fd5b5051919050565b60c08101818360005b600681101561204957815183526020928301929091019060010161202a565b50505092915050565b60006020828403121561206457600080fd5b81516001600160401b0381111561207a57600080fd5b8201601f8101841361208b57600080fd5b8051612099611cbd82611c77565b8181528560208385010111156120ae57600080fd5b6120bf826020830160208601611834565b95945050505050565b601f82111561161f57600081815260208120601f850160051c810160208610156120ef5750805b601f850160051c820191505b81811015610713578281556001016120fb565b81516001600160401b0381111561212757612127611c31565b61213b816121358454611f0b565b846120c8565b602080601f83116001811461217057600084156121585750858301515b600019600386901b1c1916600185901b178555610713565b600085815260208120601f198616915b8281101561219f57888601518255948401946001909101908401612180565b50858210156121bd5787850151600019600388901b60f8161c191681555b5050505050600190811b01905550565b6000806000606084860312156121e257600080fd5b6121eb84611897565b925060208401359150604084013561220281611684565b809150509250925092565b6000610140808352612222818401898b611fba565b915050604080876020850137606083018660005b600281101561225357838284379183019190830190600101612236565b505050808560e08501375082610120830152979650505050505050565b60006020828403121561228257600080fd5b815180151581146117c757600080fd5b60008160001904831182151516156122ac576122ac611ecf565b500290565b6000826122ce57634e487b7160e01b600052601260045260246000fd5b50049056fea2646970667358221220346fae57c468ea91c365c4ea5c9236b956738f15019808459dca29b04487c2b764736f6c634300081000334d6f64756c653a2046656520746f6f2068696768000000000000000000000000",
    "linkReferences": {
      "src/contracts/modules/bounties/ClaimWithID.sol": {
        "PoseidonUnit6L": [
          {
            "start": 3830,
            "length": 20
          }
        ],
        "SpongePoseidon": [
          {
            "start": 3717,
            "length": 20
          }
        ]
      }
    }
  },
  "methodIdentifiers": {
    "REGISTRAR()": "cb609077",
    "_URI()": "b4e87e8f",
    "fees()": "9af1d35a",
    "getFees()": "db8d55f1",
    "getSupportedRequests()": "37ba9523",
    "getZKPRequest(uint64)": "c76d0845",
    "locks(uint256)": "f4dadc61",
    "owner()": "8da5cb5b",
    "processApproval(address,address,address,uint256,(address,uint256,uint256,address),bytes)": "e4175968",
    "processCash(address,address,address,uint256,uint256,(address,uint256,uint256,address),bytes)": "06890cd0",
    "processFund(address,address,uint256,uint256,uint256,(address,uint256,uint256,address),bytes)": "be2f3fdd",
    "processTokenURI(uint256)": "4fe17e1a",
    "processTransfer(address,address,address,address,address,uint256,address,uint256,uint256,bytes)": "c0c9572c",
    "processWrite(address,address,uint256,address,uint256,uint256,bytes)": "b5d701ba",
    "proofs(address,uint64)": "b45c0fdf",
    "renounceOwnership()": "715018a6",
    "requestQueries(uint64)": "96bf4741",
    "requestValidators(uint64)": "a8723114",
    "revenue(address,address)": "9a0ea37a",
    "setZKPRequest(uint64,address,uint256,uint256,uint256,uint256[])": "9abdc645",
    "setZKPRequestRaw(uint64,address,uint256,uint256,uint256,uint256[],uint256)": "9e621bcf",
    "submitZKPResponse(uint64,uint256[],uint256[2],uint256[2][2],uint256[2])": "b68967e2",
    "transferOwnership(address)": "f2fde38b",
    "withdrawFees(address)": "164e68de"
  },
  "id": 63
}