{
  "abi": [
    {
      "inputs": [
        {
          "internalType": "uint256[3]",
          "name": "",
          "type": "uint256[3]"
        }
      ],
      "name": "poseidon",
      "outputs": [
        {
          "internalType": "uint256",
          "name": "",
          "type": "uint256"
        }
      ],
      "stateMutability": "view",
      "type": "function"
    }
  ],
  "bytecode": {
    "object": "0x608060405234801561001057600080fd5b5061010c806100206000396000f3fe6080604052348015600f57600080fd5b506004361060285760003560e01c806325cc70e814602d575b600080fd5b603e60383660046050565b50600090565b60405190815260200160405180910390f35b600060608284031215606157600080fd5b82601f830112606f57600080fd5b6040516060810181811067ffffffffffffffff82111715609f57634e487b7160e01b600052604160045260246000fd5b60405280606084018581111560b357600080fd5b845b8181101560cb57803583526020928301920160b5565b50919594505050505056fea26469706673582212204930aa7037a6b6d21fa8fe0e7ab2a4b63986ef1ae1540561bae843c1e6f5564a64736f6c63430008100033",
    "linkReferences": {}
  },
  "methodIdentifiers": {
    "poseidon(uint256[3])": "25cc70e8"
  },
  "id": 54
}