{
  "abi": [
    {
      "inputs": [
        {
          "internalType": "uint256[1]",
          "name": "",
          "type": "uint256[1]"
        }
      ],
      "name": "poseidon",
      "outputs": [
        {
          "internalType": "uint256",
          "name": "",
          "type": "uint256"
        }
      ],
      "stateMutability": "view",
      "type": "function"
    }
  ],
  "bytecode": {
    "object": "0x61011661003a600b82828239805160001a60731461002d57634e487b7160e01b600052600060045260246000fd5b30600052607381538281f3fe730000000000000000000000000000000000000000301460806040526004361060335760003560e01c80631caab9a7146038575b600080fd5b60496043366004605b565b50600090565b60405190815260200160405180910390f35b60006020808385031215606d57600080fd5b83601f840112607b57600080fd5b60405181810181811067ffffffffffffffff8211171560aa57634e487b7160e01b600052604160045260246000fd5b604052808483018681111560bd57600080fd5b855b8181101560d4578035835291840191840160bf565b5091969550505050505056fea26469706673582212209f08535332b0e20248ba03b84296f30a379de32314b324d42a0a230eebdd73c964736f6c63430008100033",
    "linkReferences": {}
  },
  "methodIdentifiers": {
    "poseidon(uint256[1])": "1caab9a7"
  },
  "id": 10
}