{
  "abi": [
    {
      "inputs": [
        {
          "internalType": "uint256[2]",
          "name": "",
          "type": "uint256[2]"
        }
      ],
      "name": "poseidon",
      "outputs": [
        {
          "internalType": "uint256",
          "name": "",
          "type": "uint256"
        }
      ],
      "stateMutability": "view",
      "type": "function"
    }
  ],
  "bytecode": {
    "object": "0x608060405234801561001057600080fd5b5061010e806100206000396000f3fe6080604052348015600f57600080fd5b506004361060285760003560e01c806329a5f2f614602d575b600080fd5b603e60383660046050565b50600090565b60405190815260200160405180910390f35b600060408284031215606157600080fd5b82601f830112606f57600080fd5b6040516040810181811067ffffffffffffffff82111715609f57634e487b7160e01b600052604160045260246000fd5b806040525080604084018581111560b557600080fd5b845b8181101560cd57803583526020928301920160b7565b50919594505050505056fea26469706673582212206e5950a8a6737420a201b622d99adfc5406a9dda2583190f831e425ef4561bed64736f6c63430008100033",
    "linkReferences": {}
  },
  "methodIdentifiers": {
    "poseidon(uint256[2])": "29a5f2f6"
  },
  "id": 61
}