{
  "abi": [
    {
      "inputs": [
        {
          "internalType": "address",
          "name": "_poseidon2ContractAddr",
          "type": "address"
        },
        {
          "internalType": "address",
          "name": "_poseidon3ContractAddr",
          "type": "address"
        }
      ],
      "stateMutability": "nonpayable",
      "type": "constructor"
    },
    {
      "inputs": [
        {
          "internalType": "uint256[2]",
          "name": "inp",
          "type": "uint256[2]"
        }
      ],
      "name": "hash2",
      "outputs": [
        {
          "internalType": "uint256",
          "name": "",
          "type": "uint256"
        }
      ],
      "stateMutability": "view",
      "type": "function"
    },
    {
      "inputs": [
        {
          "internalType": "uint256[3]",
          "name": "inp",
          "type": "uint256[3]"
        }
      ],
      "name": "hash3",
      "outputs": [
        {
          "internalType": "uint256",
          "name": "",
          "type": "uint256"
        }
      ],
      "stateMutability": "view",
      "type": "function"
    }
  ],
  "bytecode": {
    "object": "0x608060405234801561001057600080fd5b5060405161037138038061037183398101604081905261002f9161007c565b600080546001600160a01b039384166001600160a01b031991821617909155600180549290931691161790556100af565b80516001600160a01b038116811461007757600080fd5b919050565b6000806040838503121561008f57600080fd5b61009883610060565b91506100a660208401610060565b90509250929050565b6102b3806100be6000396000f3fe608060405234801561001057600080fd5b50600436106100365760003560e01c806362a361bb1461003b578063bea140b314610060575b600080fd5b61004e610049366004610132565b610073565b60405190815260200160405180910390f35b61004e61006e3660046101b2565b6100eb565b600080546040516314d2f97b60e11b81526001600160a01b03909116906329a5f2f6906100a490859060040161020b565b602060405180830381865afa1580156100c1573d6000803e3d6000fd5b505050506040513d601f19601f820116820180604052508101906100e5919061023c565b92915050565b6001546040516304b98e1d60e31b81526000916001600160a01b0316906325cc70e8906100a4908590600401610255565b634e487b7160e01b600052604160045260246000fd5b60006040828403121561014457600080fd5b82601f83011261015357600080fd5b6040516040810181811067ffffffffffffffff821117156101765761017661011c565b806040525080604084018581111561018d57600080fd5b845b818110156101a757803583526020928301920161018f565b509195945050505050565b6000606082840312156101c457600080fd5b82601f8301126101d357600080fd5b6040516060810181811067ffffffffffffffff821117156101f6576101f661011c565b60405280606084018581111561018d57600080fd5b60408101818360005b6002811015610233578151835260209283019290910190600101610214565b50505092915050565b60006020828403121561024e57600080fd5b5051919050565b60608101818360005b600381101561023357815183526020928301929091019060010161025e56fea26469706673582212206b649cfb66b2abd4bd81bfc28bb348ae7116433309fc1b0d146a9e3077d0651064736f6c63430008100033",
    "linkReferences": {}
  },
  "methodIdentifiers": {
    "hash2(uint256[2])": "62a361bb",
    "hash3(uint256[3])": "bea140b3"
  },
  "id": 59
}