{
  "abi": [
    {
      "inputs": [
        {
          "internalType": "uint256[]",
          "name": "values",
          "type": "uint256[]"
        }
      ],
      "name": "hash",
      "outputs": [
        {
          "internalType": "uint256",
          "name": "",
          "type": "uint256"
        }
      ],
      "stateMutability": "view",
      "type": "function"
    }
  ],
  "bytecode": {
    "object": "0x61055661003a600b82828239805160001a60731461002d57634e487b7160e01b600052600060045260246000fd5b30600052607381538281f3fe73000000000000000000000000000000000000000030146080604052600436106100355760003560e01c806340ec6e491461003a575b600080fd5b61004d610048366004610349565b61005f565b60405190815260200160405180910390f35b6040805160c0810190915260009081908390829073__$b12667875de82e9b7f462320cbd376df80$__9063f5b4a788908061009c8a878781610301565b81526020016100ae8a8a600189610301565b81526020016100c08a8a600289610301565b81526020016100d28a8a600389610301565b81526020016100e48a8a600489610301565b81526020016100f68a8a600589610301565b8152506040518263ffffffff1660e01b815260040161011591906103be565b602060405180830381865af4158015610132573d6000803e3d6000fd5b505050506040513d601f19601f8201168201806040525081019061015691906103ef565b9050600061016560068461041e565b9050600563ffffffff821611156101bc576000610183600583610458565b9050600063ffffffff8216156101a15761019e82600561041e565b90505b60056101ad828561047b565b6101b79190610498565b955050505b60005b8463ffffffff168163ffffffff1610156102f557600060066101e26005846104bb565b6101ec919061047b565b905073__$b12667875de82e9b7f462320cbd376df80$__63f5b4a7886040518060c001604052808781526020016102258d8d878c610301565b81526020016102408d8d61023a88600161047b565b8c610301565b81526020016102558d8d61023a88600261047b565b815260200161026a8d8d61023a88600361047b565b815260200161027f8d8d61023a88600461047b565b8152506040518263ffffffff1660e01b815260040161029e91906103be565b602060405180830381865af41580156102bb573d6000803e3d6000fd5b505050506040513d601f19601f820116820180604052508101906102df91906103ef565b93505080806102ed906104e7565b9150506101bf565b50909695505050505050565b60008163ffffffff168363ffffffff16101561033d5784848463ffffffff1681811061032f5761032f61050a565b905060200201359050610341565b5060005b949350505050565b6000806020838503121561035c57600080fd5b823567ffffffffffffffff8082111561037457600080fd5b818501915085601f83011261038857600080fd5b81358181111561039757600080fd5b8660208260051b85010111156103ac57600080fd5b60209290920196919550909350505050565b60c08101818360005b60068110156103e65781518352602092830192909101906001016103c7565b50505092915050565b60006020828403121561040157600080fd5b5051919050565b634e487b7160e01b600052601160045260246000fd5b63ffffffff82811682821603908082111561043b5761043b610408565b5092915050565b634e487b7160e01b600052601260045260246000fd5b600063ffffffff8084168061046f5761046f610442565b92169190910692915050565b63ffffffff81811683821601908082111561043b5761043b610408565b600063ffffffff808416806104af576104af610442565b92169190910492915050565b600063ffffffff808316818516818304811182151516156104de576104de610408565b02949350505050565b600063ffffffff80831681810361050057610500610408565b6001019392505050565b634e487b7160e01b600052603260045260246000fdfea264697066735822122005166088e6ef7f02000ee909f3b8eddb97c1b1ba00738fae3e141f4ca31f07ad64736f6c63430008100033",
    "linkReferences": {
      "src/contracts/modules/bounties/ClaimWithID.sol": {
        "PoseidonUnit6L": [
          {
            "start": 175,
            "length": 20
          },
          {
            "start": 554,
            "length": 20
          }
        ]
      }
    }
  },
  "methodIdentifiers": {
    "hash(uint256[])": "40ec6e49"
  },
  "id": 47
}