{
  "abi": [
    {
      "inputs": [
        {
          "internalType": "uint256[]",
          "name": "values",
          "type": "uint256[]"
        }
      ],
      "name": "hash",
      "outputs": [
        {
          "internalType": "uint256",
          "name": "",
          "type": "uint256"
        }
      ],
      "stateMutability": "view",
      "type": "function"
    }
  ],
  "bytecode": {
    "object": "0x6105a161003a600b82828239805160001a60731461002d57634e487b7160e01b600052600060045260246000fd5b30600052607381538281f3fe73000000000000000000000000000000000000000030146080604052600436106100355760003560e01c806340ec6e491461003a575b600080fd5b61004d610048366004610349565b61005f565b60405190815260200160405180910390f35b6040805160c0810190915260009081908390829073__$b12667875de82e9b7f462320cbd376df80$__9063f5b4a788908061009c8a878781610301565b81526020016100ae8a8a600189610301565b81526020016100c08a8a600289610301565b81526020016100d28a8a600389610301565b81526020016100e48a8a600489610301565b81526020016100f68a8a600589610301565b8152506040518263ffffffff1660e01b815260040161011591906103be565b602060405180830381865af4158015610132573d6000803e3d6000fd5b505050506040513d601f19601f8201168201806040525081019061015691906103ef565b90506000610165600684610437565b9050600563ffffffff821611156101bc57600061018360058361048a565b9050600063ffffffff8216156101a15761019e826005610437565b90505b60056101ad82856104ad565b6101b791906104ca565b955050505b60005b8463ffffffff168163ffffffff1610156102f557600060066101e26005846104ed565b6101ec91906104ad565b905073__$b12667875de82e9b7f462320cbd376df80$__63f5b4a7886040518060c001604052808781526020016102258d8d878c610301565b81526020016102408d8d61023a8860016104ad565b8c610301565b81526020016102558d8d61023a8860026104ad565b815260200161026a8d8d61023a8860036104ad565b815260200161027f8d8d61023a8860046104ad565b8152506040518263ffffffff1660e01b815260040161029e91906103be565b602060405180830381865af41580156102bb573d6000803e3d6000fd5b505050506040513d601f19601f820116820180604052508101906102df91906103ef565b93505080806102ed90610519565b9150506101bf565b50909695505050505050565b60008163ffffffff168363ffffffff16101561033d5784848463ffffffff1681811061032f5761032f61053c565b905060200201359050610341565b5060005b949350505050565b6000806020838503121561035c57600080fd5b823567ffffffffffffffff8082111561037457600080fd5b818501915085601f83011261038857600080fd5b81358181111561039757600080fd5b8660208260051b85010111156103ac57600080fd5b60209290920196919550909350505050565b60c08101818360005b60068110156103e65781518352602092830192909101906001016103c7565b50505092915050565b60006020828403121561040157600080fd5b5051919050565b7f4e487b7100000000000000000000000000000000000000000000000000000000600052601160045260246000fd5b63ffffffff82811682821603908082111561045457610454610408565b5092915050565b7f4e487b7100000000000000000000000000000000000000000000000000000000600052601260045260246000fd5b600063ffffffff808416806104a1576104a161045b565b92169190910692915050565b63ffffffff81811683821601908082111561045457610454610408565b600063ffffffff808416806104e1576104e161045b565b92169190910492915050565b600063ffffffff8083168185168183048111821515161561051057610510610408565b02949350505050565b600063ffffffff80831681810361053257610532610408565b6001019392505050565b7f4e487b7100000000000000000000000000000000000000000000000000000000600052603260045260246000fdfea264697066735822122010488300cfb458acd1223ce229d02e8ca70eb01ab7509ca2e15066311e99ad0a64736f6c63430008100033",
    "linkReferences": {
      "src/contracts/modules/bounties/ClaimWithID.sol": {
        "PoseidonUnit6L": [
          {
            "start": 175,
            "length": 20
          },
          {
            "start": 554,
            "length": 20
          }
        ]
      }
    }
  },
  "methodIdentifiers": {
    "hash(uint256[])": "40ec6e49"
  },
  "id": 61
}