{
  "abi": [
    {
      "anonymous": false,
      "inputs": [
        {
          "indexed": true,
          "internalType": "address",
          "name": "previousOwner",
          "type": "address"
        },
        {
          "indexed": true,
          "internalType": "address",
          "name": "newOwner",
          "type": "address"
        }
      ],
      "name": "OwnershipTransferred",
      "type": "event"
    },
    {
      "inputs": [],
      "name": "getSupportedRequests",
      "outputs": [
        {
          "internalType": "uint64[]",
          "name": "arr",
          "type": "uint64[]"
        }
      ],
      "stateMutability": "view",
      "type": "function"
    },
    {
      "inputs": [
        {
          "internalType": "uint64",
          "name": "requestId",
          "type": "uint64"
        }
      ],
      "name": "getZKPRequest",
      "outputs": [
        {
          "components": [
            {
              "internalType": "uint256",
              "name": "schema",
              "type": "uint256"
            },
            {
              "internalType": "uint256",
              "name": "claimPathKey",
              "type": "uint256"
            },
            {
              "internalType": "uint256",
              "name": "operator",
              "type": "uint256"
            },
            {
              "internalType": "uint256[]",
              "name": "value",
              "type": "uint256[]"
            },
            {
              "internalType": "uint256",
              "name": "queryHash",
              "type": "uint256"
            },
            {
              "internalType": "string",
              "name": "circuitId",
              "type": "string"
            }
          ],
          "internalType": "struct ICircuitValidator.CircuitQuery",
          "name": "",
          "type": "tuple"
        }
      ],
      "stateMutability": "view",
      "type": "function"
    },
    {
      "inputs": [],
      "name": "owner",
      "outputs": [
        {
          "internalType": "address",
          "name": "",
          "type": "address"
        }
      ],
      "stateMutability": "view",
      "type": "function"
    },
    {
      "inputs": [
        {
          "internalType": "address",
          "name": "",
          "type": "address"
        },
        {
          "internalType": "uint64",
          "name": "",
          "type": "uint64"
        }
      ],
      "name": "proofs",
      "outputs": [
        {
          "internalType": "bool",
          "name": "",
          "type": "bool"
        }
      ],
      "stateMutability": "view",
      "type": "function"
    },
    {
      "inputs": [],
      "name": "renounceOwnership",
      "outputs": [],
      "stateMutability": "nonpayable",
      "type": "function"
    },
    {
      "inputs": [
        {
          "internalType": "uint64",
          "name": "",
          "type": "uint64"
        }
      ],
      "name": "requestQueries",
      "outputs": [
        {
          "internalType": "uint256",
          "name": "schema",
          "type": "uint256"
        },
        {
          "internalType": "uint256",
          "name": "claimPathKey",
          "type": "uint256"
        },
        {
          "internalType": "uint256",
          "name": "operator",
          "type": "uint256"
        },
        {
          "internalType": "uint256",
          "name": "queryHash",
          "type": "uint256"
        },
        {
          "internalType": "string",
          "name": "circuitId",
          "type": "string"
        }
      ],
      "stateMutability": "view",
      "type": "function"
    },
    {
      "inputs": [
        {
          "internalType": "uint64",
          "name": "",
          "type": "uint64"
        }
      ],
      "name": "requestValidators",
      "outputs": [
        {
          "internalType": "contract ICircuitValidator",
          "name": "",
          "type": "address"
        }
      ],
      "stateMutability": "view",
      "type": "function"
    },
    {
      "inputs": [
        {
          "internalType": "uint64",
          "name": "requestId",
          "type": "uint64"
        },
        {
          "internalType": "contract ICircuitValidator",
          "name": "validator",
          "type": "address"
        },
        {
          "internalType": "uint256",
          "name": "schema",
          "type": "uint256"
        },
        {
          "internalType": "uint256",
          "name": "claimPathKey",
          "type": "uint256"
        },
        {
          "internalType": "uint256",
          "name": "operator",
          "type": "uint256"
        },
        {
          "internalType": "uint256[]",
          "name": "value",
          "type": "uint256[]"
        }
      ],
      "name": "setZKPRequest",
      "outputs": [
        {
          "internalType": "bool",
          "name": "",
          "type": "bool"
        }
      ],
      "stateMutability": "nonpayable",
      "type": "function"
    },
    {
      "inputs": [
        {
          "internalType": "uint64",
          "name": "requestId",
          "type": "uint64"
        },
        {
          "internalType": "contract ICircuitValidator",
          "name": "validator",
          "type": "address"
        },
        {
          "internalType": "uint256",
          "name": "schema",
          "type": "uint256"
        },
        {
          "internalType": "uint256",
          "name": "claimPathKey",
          "type": "uint256"
        },
        {
          "internalType": "uint256",
          "name": "operator",
          "type": "uint256"
        },
        {
          "internalType": "uint256[]",
          "name": "value",
          "type": "uint256[]"
        },
        {
          "internalType": "uint256",
          "name": "queryHash",
          "type": "uint256"
        }
      ],
      "name": "setZKPRequestRaw",
      "outputs": [
        {
          "internalType": "bool",
          "name": "",
          "type": "bool"
        }
      ],
      "stateMutability": "nonpayable",
      "type": "function"
    },
    {
      "inputs": [
        {
          "internalType": "uint64",
          "name": "requestId",
          "type": "uint64"
        },
        {
          "internalType": "uint256[]",
          "name": "inputs",
          "type": "uint256[]"
        },
        {
          "internalType": "uint256[2]",
          "name": "a",
          "type": "uint256[2]"
        },
        {
          "internalType": "uint256[2][2]",
          "name": "b",
          "type": "uint256[2][2]"
        },
        {
          "internalType": "uint256[2]",
          "name": "c",
          "type": "uint256[2]"
        }
      ],
      "name": "submitZKPResponse",
      "outputs": [
        {
          "internalType": "bool",
          "name": "",
          "type": "bool"
        }
      ],
      "stateMutability": "nonpayable",
      "type": "function"
    },
    {
      "inputs": [
        {
          "internalType": "address",
          "name": "newOwner",
          "type": "address"
        }
      ],
      "name": "transferOwnership",
      "outputs": [],
      "stateMutability": "nonpayable",
      "type": "function"
    }
  ],
  "bytecode": {
    "object": "0x608060405234801561001057600080fd5b5061001a3361001f565b61006f565b600080546001600160a01b038381166001600160a01b0319831681178455604051919092169283917f8be0079c531659141344cd1fd0a4f28419497f9722a3daafe3b4186f6b6457e09190a35050565b6116df8061007e6000396000f3fe608060405234801561001057600080fd5b50600436106100c95760003560e01c80639e621bcf11610081578063b68967e21161005b578063b68967e2146101f3578063c76d084514610206578063f2fde38b1461022657600080fd5b80639e621bcf1461017c578063a87231141461018f578063b45c0fdf146101c557600080fd5b80638da5cb5b116100b25780638da5cb5b146100f657806396bf4741146101355780639abdc6451461015957600080fd5b806337ba9523146100ce578063715018a6146100ec575b600080fd5b6100d6610239565b6040516100e39190610e75565b60405180910390f35b6100f46102c5565b005b60005473ffffffffffffffffffffffffffffffffffffffff165b60405173ffffffffffffffffffffffffffffffffffffffff90911681526020016100e3565b610148610143366004610ee0565b6102d9565b6040516100e3959493929190610f70565b61016c610167366004611014565b610397565b60405190151581526020016100e3565b61016c61018a366004611098565b610501565b61011061019d366004610ee0565b60036020526000908152604090205473ffffffffffffffffffffffffffffffffffffffff1681565b61016c6101d3366004611123565b600160209081526000928352604080842090915290825290205460ff1681565b61016c61020136600461116f565b610734565b610219610214366004610ee0565b610af7565b6040516100e391906111ff565b6100f46102343660046112ac565b610c63565b606060048054806020026020016040519081016040528092919081815260200182805480156102bb57602002820191906000526020600020906000905b82829054906101000a900467ffffffffffffffff1667ffffffffffffffff16815260200190600801906020826007010492830192600103820291508084116102765790505b5050505050905090565b6102cd610d1a565b6102d76000610d9b565b565b6002602052806000526040600020600091509050806000015490806001015490806002015490806004015490806005018054610314906112c9565b80601f0160208091040260200160405190810160405280929190818152602001828054610340906112c9565b801561038d5780601f106103625761010080835404028352916020019161038d565b820191906000526020600020905b81548152906001019060200180831161037057829003601f168201915b5050505050905085565b60006103a1610d1a565b6040517f40ec6e4900000000000000000000000000000000000000000000000000000000815260009073__$794542bf2298016dc4cb1bb292e8abe9a6$__906340ec6e49906103f69087908790600401611367565b602060405180830381865af4158015610413573d6000803e3d6000fd5b505050506040513d601f19601f820116820180604052508101906104379190611383565b9050600073__$b12667875de82e9b7f462320cbd376df80$__63f5b4a7886040518060c001604052808b8152602001600081526020018981526020018a815260200160008152602001858152506040518263ffffffff1660e01b81526004016104a0919061139c565b602060405180830381865af41580156104bd573d6000803e3d6000fd5b505050506040513d601f19601f820116820180604052508101906104e19190611383565b90506104f38a8a8a8a8a8a8a88610501565b9a9950505050505050505050565b600061050b610d1a565b67ffffffffffffffff891660009081526003602052604090205473ffffffffffffffffffffffffffffffffffffffff1661059e576004805460018101825560008290529081047f8a35acfbc15ff81a39ae7d344fd709f28e8600b4aa8c65c6b64bfe7fe36bd19b01805467ffffffffffffffff808d1660086003909516949094026101000a938402930219169190911790555b67ffffffffffffffff891660009081526002602081905260408083206004808201879055920188905580517f59a2aeaa000000000000000000000000000000000000000000000000000000008152905173ffffffffffffffffffffffffffffffffffffffff8c16936359a2aeaa93838101939192918290030181865afa15801561062c573d6000803e3d6000fd5b505050506040513d6000823e601f3d9081017fffffffffffffffffffffffffffffffffffffffffffffffffffffffffffffffe016820160405261067291908101906113fc565b67ffffffffffffffff8a16600090815260026020526040902060050190610699908261150a565b5067ffffffffffffffff89166000908152600260205260409020600181018790558781556106cb906003018585610e15565b505067ffffffffffffffff88166000908152600360205260409020805473ffffffffffffffffffffffffffffffffffffffff89167fffffffffffffffffffffffff0000000000000000000000000000000000000000909116179055600198975050505050505050565b67ffffffffffffffff861660009081526003602052604081205473ffffffffffffffffffffffffffffffffffffffff166107f5576040517f08c379a000000000000000000000000000000000000000000000000000000000815260206004820152602860248201527f76616c696461746f72206973206e6f742073657420666f72207468697320726560448201527f717565737420696400000000000000000000000000000000000000000000000060648201526084015b60405180910390fd5b67ffffffffffffffff8716600090815260026020526040812060040154900361089f576040517f08c379a0000000000000000000000000000000000000000000000000000000008152602060048201526024808201527f7175657279206973206e6f742073657420666f7220746869732072657175657360448201527f742069640000000000000000000000000000000000000000000000000000000060648201526084016107ec565b61090987878780806020026020016040519081016040528093929190818152602001838360200280828437600092018290525067ffffffffffffffff8e1681526003602052604090205473ffffffffffffffffffffffffffffffffffffffff169250610e10915050565b67ffffffffffffffff871660009081526003602090815260408083205460029092529182902060049081015492517f434661ef00000000000000000000000000000000000000000000000000000000815273ffffffffffffffffffffffffffffffffffffffff9092169263434661ef9261098f928b928b928b928b928b92909101611624565b602060405180830381865afa1580156109ac573d6000803e3d6000fd5b505050506040513d601f19601f820116820180604052508101906109d09190611687565b610a36576040517f08c379a000000000000000000000000000000000000000000000000000000000815260206004820152601b60248201527f70726f6f6620726573706f6e7365206973206e6f742076616c6964000000000060448201526064016107ec565b33600090815260016020818152604080842067ffffffffffffffff8c16855282529283902080547fffffffffffffffffffffffffffffffffffffffffffffffffffffffffffffff001690921790915581518782028181018301909352878152610aea928a928a918a91829190850190849080828437600092018290525067ffffffffffffffff8e1681526003602052604090205473ffffffffffffffffffffffffffffffffffffffff169250610e10915050565b5060019695505050505050565b610b306040518060c001604052806000815260200160008152602001600081526020016060815260200160008152602001606081525090565b67ffffffffffffffff8216600090815260026020818152604092839020835160c081018552815481526001820154818401529281015483850152600381018054855181850281018501909652808652939491936060860193830182828015610bb757602002820191906000526020600020905b815481526020019060010190808311610ba3575b5050505050815260200160048201548152602001600582018054610bda906112c9565b80601f0160208091040260200160405190810160405280929190818152602001828054610c06906112c9565b8015610c535780601f10610c2857610100808354040283529160200191610c53565b820191906000526020600020905b815481529060010190602001808311610c3657829003601f168201915b5050505050815250509050919050565b610c6b610d1a565b73ffffffffffffffffffffffffffffffffffffffff8116610d0e576040517f08c379a000000000000000000000000000000000000000000000000000000000815260206004820152602660248201527f4f776e61626c653a206e6577206f776e657220697320746865207a65726f206160448201527f646472657373000000000000000000000000000000000000000000000000000060648201526084016107ec565b610d1781610d9b565b50565b60005473ffffffffffffffffffffffffffffffffffffffff1633146102d7576040517f08c379a000000000000000000000000000000000000000000000000000000000815260206004820181905260248201527f4f776e61626c653a2063616c6c6572206973206e6f7420746865206f776e657260448201526064016107ec565b6000805473ffffffffffffffffffffffffffffffffffffffff8381167fffffffffffffffffffffffff0000000000000000000000000000000000000000831681178455604051919092169283917f8be0079c531659141344cd1fd0a4f28419497f9722a3daafe3b4186f6b6457e09190a35050565b505050565b828054828255906000526020600020908101928215610e50579160200282015b82811115610e50578235825591602001919060010190610e35565b50610e5c929150610e60565b5090565b5b80821115610e5c5760008155600101610e61565b6020808252825182820181905260009190848201906040850190845b81811015610eb757835167ffffffffffffffff1683529284019291840191600101610e91565b50909695505050505050565b803567ffffffffffffffff81168114610edb57600080fd5b919050565b600060208284031215610ef257600080fd5b610efb82610ec3565b9392505050565b60005b83811015610f1d578181015183820152602001610f05565b50506000910152565b60008151808452610f3e816020860160208601610f02565b601f017fffffffffffffffffffffffffffffffffffffffffffffffffffffffffffffffe0169290920160200192915050565b85815284602082015283604082015282606082015260a060808201526000610f9b60a0830184610f26565b979650505050505050565b73ffffffffffffffffffffffffffffffffffffffff81168114610d1757600080fd5b60008083601f840112610fda57600080fd5b50813567ffffffffffffffff811115610ff257600080fd5b6020830191508360208260051b850101111561100d57600080fd5b9250929050565b600080600080600080600060c0888a03121561102f57600080fd5b61103888610ec3565b9650602088013561104881610fa6565b955060408801359450606088013593506080880135925060a088013567ffffffffffffffff81111561107957600080fd5b6110858a828b01610fc8565b989b979a50959850939692959293505050565b60008060008060008060008060e0898b0312156110b457600080fd5b6110bd89610ec3565b975060208901356110cd81610fa6565b965060408901359550606089013594506080890135935060a089013567ffffffffffffffff8111156110fe57600080fd5b61110a8b828c01610fc8565b999c989b50969995989497949560c00135949350505050565b6000806040838503121561113657600080fd5b823561114181610fa6565b915061114f60208401610ec3565b90509250929050565b806040810183101561116957600080fd5b92915050565b600080600080600080610140878903121561118957600080fd5b61119287610ec3565b9550602087013567ffffffffffffffff8111156111ae57600080fd5b6111ba89828a01610fc8565b90965094506111ce90508860408901611158565b92506101008701888111156111e257600080fd5b6080880192506111f28982611158565b9150509295509295509295565b6000602080835260e0830184518285015281850151604085015260408501516060850152606085015160c06080860152818151808452610100870191508483019350600092505b808310156112665783518252928401926001929092019190840190611246565b50608087015160a087015260a087015193507fffffffffffffffffffffffffffffffffffffffffffffffffffffffffffffffe08682030160c0870152610f9b8185610f26565b6000602082840312156112be57600080fd5b8135610efb81610fa6565b600181811c908216806112dd57607f821691505b602082108103611316577f4e487b7100000000000000000000000000000000000000000000000000000000600052602260045260246000fd5b50919050565b81835260007f07ffffffffffffffffffffffffffffffffffffffffffffffffffffffffffffff83111561134e57600080fd5b8260051b80836020870137939093016020019392505050565b60208152600061137b60208301848661131c565b949350505050565b60006020828403121561139557600080fd5b5051919050565b60c08101818360005b60068110156113c45781518352602092830192909101906001016113a5565b50505092915050565b7f4e487b7100000000000000000000000000000000000000000000000000000000600052604160045260246000fd5b60006020828403121561140e57600080fd5b815167ffffffffffffffff8082111561142657600080fd5b818401915084601f83011261143a57600080fd5b81518181111561144c5761144c6113cd565b604051601f82017fffffffffffffffffffffffffffffffffffffffffffffffffffffffffffffffe0908116603f01168101908382118183101715611492576114926113cd565b816040528281528760208487010111156114ab57600080fd5b610f9b836020830160208801610f02565b601f821115610e1057600081815260208120601f850160051c810160208610156114e35750805b601f850160051c820191505b81811015611502578281556001016114ef565b505050505050565b815167ffffffffffffffff811115611524576115246113cd565b6115388161153284546112c9565b846114bc565b602080601f83116001811461158b57600084156115555750858301515b7fffffffffffffffffffffffffffffffffffffffffffffffffffffffffffffffff600386901b1c1916600185901b178555611502565b6000858152602081207fffffffffffffffffffffffffffffffffffffffffffffffffffffffffffffffe08616915b828110156115d8578886015182559484019460019091019084016115b9565b508582101561161457878501517fffffffffffffffffffffffffffffffffffffffffffffffffffffffffffffffff600388901b60f8161c191681555b5050505050600190811b01905550565b6000610140808352611639818401898b61131c565b915050604080876020850137606083018660005b600281101561166a5783828437918301919083019060010161164d565b505050808560e08501375082610120830152979650505050505050565b60006020828403121561169957600080fd5b81518015158114610efb57600080fdfea2646970667358221220fcada377b5120f9676f2f4fdc86bd4b4d9e060c7c1213b57269398e8bd34e32664736f6c63430008100033",
    "linkReferences": {
      "src/contracts/modules/bounties/ClaimWithID.sol": {
        "PoseidonUnit6L": [
          {
            "start": 1211,
            "length": 20
          }
        ],
        "SpongePoseidon": [
          {
            "start": 1098,
            "length": 20
          }
        ]
      }
    }
  },
  "methodIdentifiers": {
    "getSupportedRequests()": "37ba9523",
    "getZKPRequest(uint64)": "c76d0845",
    "owner()": "8da5cb5b",
    "proofs(address,uint64)": "b45c0fdf",
    "renounceOwnership()": "715018a6",
    "requestQueries(uint64)": "96bf4741",
    "requestValidators(uint64)": "a8723114",
    "setZKPRequest(uint64,address,uint256,uint256,uint256,uint256[])": "9abdc645",
    "setZKPRequestRaw(uint64,address,uint256,uint256,uint256,uint256[],uint256)": "9e621bcf",
    "submitZKPResponse(uint64,uint256[],uint256[2],uint256[2][2],uint256[2])": "b68967e2",
    "transferOwnership(address)": "f2fde38b"
  },
  "id": 61
}