{
  "abi": [
    {
      "inputs": [
        {
          "internalType": "contract Cheq",
          "name": "_cheq",
          "type": "address"
        }
      ],
      "stateMutability": "nonpayable",
      "type": "constructor"
    },
    {
      "inputs": [
        {
          "internalType": "address",
          "name": "",
          "type": "address"
        }
      ],
      "name": "blacklist",
      "outputs": [
        {
          "internalType": "bool",
          "name": "",
          "type": "bool"
        }
      ],
      "stateMutability": "view",
      "type": "function"
    },
    {
      "inputs": [],
      "name": "cheq",
      "outputs": [
        {
          "internalType": "contract Cheq",
          "name": "",
          "type": "address"
        }
      ],
      "stateMutability": "view",
      "type": "function"
    },
    {
      "inputs": [],
      "name": "deployPool",
      "outputs": [
        {
          "internalType": "contract CheqPool",
          "name": "",
          "type": "address"
        }
      ],
      "stateMutability": "nonpayable",
      "type": "function"
    },
    {
      "inputs": [
        {
          "internalType": "address",
          "name": "to",
          "type": "address"
        },
        {
          "internalType": "uint256",
          "name": "tokenId",
          "type": "uint256"
        }
      ],
      "name": "openSwap",
      "outputs": [],
      "stateMutability": "nonpayable",
      "type": "function"
    },
    {
      "inputs": [
        {
          "internalType": "address",
          "name": "to",
          "type": "address"
        },
        {
          "internalType": "uint256",
          "name": "tokenId",
          "type": "uint256"
        }
      ],
      "name": "sanctionedSwap",
      "outputs": [],
      "stateMutability": "nonpayable",
      "type": "function"
    },
    {
      "inputs": [
        {
          "internalType": "address",
          "name": "",
          "type": "address"
        }
      ],
      "name": "whitelist",
      "outputs": [
        {
          "internalType": "bool",
          "name": "",
          "type": "bool"
        }
      ],
      "stateMutability": "view",
      "type": "function"
    },
    {
      "inputs": [
        {
          "internalType": "address",
          "name": "to",
          "type": "address"
        },
        {
          "internalType": "uint256",
          "name": "tokenId",
          "type": "uint256"
        }
      ],
      "name": "whitelistSwap",
      "outputs": [],
      "stateMutability": "nonpayable",
      "type": "function"
    }
  ],
  "bytecode": {
    "object": "0x608060405234801561001057600080fd5b5060405161079338038061079383398101604081905261002f91610054565b600080546001600160a01b0319166001600160a01b0392909216919091179055610084565b60006020828403121561006657600080fd5b81516001600160a01b038116811461007d57600080fd5b9392505050565b610700806100936000396000f3fe608060405234801561001057600080fd5b506004361061007d5760003560e01c8063809d6f831161005b578063809d6f83146100cf5780639b19251a146100e2578063ba2e9b3c14610115578063f9f92be41461012857600080fd5b806314d5275114610082578063170d1095146100a75780632966cf14146100bc575b600080fd5b61008a61014b565b6040516001600160a01b0390911681526020015b60405180910390f35b6100ba6100b53660046102e2565b61019a565b005b6100ba6100ca3660046102e2565b6101fe565b60005461008a906001600160a01b031681565b6101056100f036600461030c565b60016020526000908152604090205460ff1681565b604051901515815260200161009e565b6100ba6101233660046102e2565b6101f0565b61010561013636600461030c565b60026020526000908152604090205460ff1681565b6000805460405182916001600160a01b031690610167906102b9565b6001600160a01b039091168152602001604051809103906000f080158015610193573d6000803e3d6000fd5b5092915050565b3360009081526001602052604090205460ff166101f05760405162461bcd60e51b815260206004820152600f60248201526e139bdd0815da1a5d195b1a5cdd1959608a1b60448201526064015b60405180910390fd5b6101fa828261024f565b5050565b3360009081526002602052604090205460ff16156101f05760405162461bcd60e51b815260206004820152600e60248201526d125cc8109b1858dadb1a5cdd195960921b60448201526064016101e7565b60005460405163095ea7b360e01b81526001600160a01b038481166004830152602482018490529091169063095ea7b390604401600060405180830381600087803b15801561029d57600080fd5b505af11580156102b1573d6000803e3d6000fd5b505050505050565b61039c8061032f83390190565b80356001600160a01b03811681146102dd57600080fd5b919050565b600080604083850312156102f557600080fd5b6102fe836102c6565b946020939093013593505050565b60006020828403121561031e57600080fd5b610327826102c6565b939250505056fe608060405234801561001057600080fd5b5060405161039c38038061039c83398101604081905261002f91610054565b600080546001600160a01b0319166001600160a01b0392909216919091179055610084565b60006020828403121561006657600080fd5b81516001600160a01b038116811461007d57600080fd5b9392505050565b610309806100936000396000f3fe608060405234801561001057600080fd5b506004361061004c5760003560e01c8063809d6f8314610051578063909feb7114610081578063b69ef8a8146100af578063b6b55f25146100b8575b600080fd5b600054610064906001600160a01b031681565b6040516001600160a01b0390911681526020015b60405180910390f35b6100a161008f36600461024a565b60026020526000908152604090205481565b604051908152602001610078565b6100a160015481565b6100cb6100c636600461027a565b6100cd565b005b60005460405163095ea7b360e01b8152306004820152602481018390526001600160a01b039091169063095ea7b390604401600060405180830381600087803b15801561011957600080fd5b505af115801561012d573d6000803e3d6000fd5b50506000546040516323b872dd60e01b8152336004820152306024820152604481018590526001600160a01b0390911692506323b872dd9150606401600060405180830381600087803b15801561018357600080fd5b505af1158015610197573d6000803e3d6000fd5b505060008054604051630e50c42b60e41b8152600481018690529193506001600160a01b0316915063e50c42b090602401602060405180830381865afa1580156101e5573d6000803e3d6000fd5b505050506040513d601f19601f820116820180604052508101906102099190610293565b9050806001600082825461021d91906102ac565b909155505033600090815260026020526040812080548392906102419084906102ac565b90915550505050565b60006020828403121561025c57600080fd5b81356001600160a01b038116811461027357600080fd5b9392505050565b60006020828403121561028c57600080fd5b5035919050565b6000602082840312156102a557600080fd5b5051919050565b808201808211156102cd57634e487b7160e01b600052601160045260246000fd5b9291505056fea264697066735822122027aff1021e03102d394ee4c4b231a7d4abb5c3edbf84e46a547ee0816c1c4f7764736f6c63430008100033a2646970667358221220c3caf2ddd4c471e075e4d4ae532ee8315e280152af820ace333cfc295511714b64736f6c63430008100033",
    "linkReferences": {}
  },
  "methodIdentifiers": {
    "blacklist(address)": "f9f92be4",
    "cheq()": "809d6f83",
    "deployPool()": "14d52751",
    "openSwap(address,uint256)": "ba2e9b3c",
    "sanctionedSwap(address,uint256)": "2966cf14",
    "whitelist(address)": "9b19251a",
    "whitelistSwap(address,uint256)": "170d1095"
  },
  "id": 22
}