{
  "abi": [
    {
      "inputs": [
        {
          "internalType": "contract Cheq",
          "name": "_cheq",
          "type": "address"
        }
      ],
      "stateMutability": "nonpayable",
      "type": "constructor"
    },
    {
      "inputs": [
        {
          "internalType": "address",
          "name": "",
          "type": "address"
        }
      ],
      "name": "acceptOnPayment",
      "outputs": [
        {
          "internalType": "bool",
          "name": "",
          "type": "bool"
        }
      ],
      "stateMutability": "view",
      "type": "function"
    },
    {
      "inputs": [
        {
          "internalType": "address",
          "name": "",
          "type": "address"
        },
        {
          "internalType": "address",
          "name": "",
          "type": "address"
        }
      ],
      "name": "acceptUserOnPayment",
      "outputs": [
        {
          "internalType": "bool",
          "name": "",
          "type": "bool"
        }
      ],
      "stateMutability": "view",
      "type": "function"
    },
    {
      "inputs": [],
      "name": "cheq",
      "outputs": [
        {
          "internalType": "contract Cheq",
          "name": "",
          "type": "address"
        }
      ],
      "stateMutability": "view",
      "type": "function"
    },
    {
      "inputs": [
        {
          "internalType": "address",
          "name": "",
          "type": "address"
        },
        {
          "internalType": "address",
          "name": "",
          "type": "address"
        }
      ],
      "name": "cheqBook",
      "outputs": [
        {
          "internalType": "uint256",
          "name": "",
          "type": "uint256"
        }
      ],
      "stateMutability": "view",
      "type": "function"
    },
    {
      "inputs": [
        {
          "internalType": "address",
          "name": "",
          "type": "address"
        }
      ],
      "name": "cheqCap",
      "outputs": [
        {
          "internalType": "uint256",
          "name": "",
          "type": "uint256"
        }
      ],
      "stateMutability": "view",
      "type": "function"
    },
    {
      "inputs": [
        {
          "internalType": "address",
          "name": "",
          "type": "address"
        },
        {
          "internalType": "contract IERC20",
          "name": "",
          "type": "address"
        }
      ],
      "name": "cheqPrice",
      "outputs": [
        {
          "internalType": "uint256",
          "name": "",
          "type": "uint256"
        }
      ],
      "stateMutability": "view",
      "type": "function"
    },
    {
      "inputs": [
        {
          "internalType": "address",
          "name": "",
          "type": "address"
        }
      ],
      "name": "currentCheqs",
      "outputs": [
        {
          "internalType": "uint256",
          "name": "",
          "type": "uint256"
        }
      ],
      "stateMutability": "view",
      "type": "function"
    },
    {
      "inputs": [
        {
          "internalType": "address",
          "name": "",
          "type": "address"
        }
      ],
      "name": "isPayable",
      "outputs": [
        {
          "internalType": "bool",
          "name": "",
          "type": "bool"
        }
      ],
      "stateMutability": "view",
      "type": "function"
    },
    {
      "inputs": [
        {
          "internalType": "address",
          "name": "",
          "type": "address"
        }
      ],
      "name": "maxCheqs",
      "outputs": [
        {
          "internalType": "uint256",
          "name": "",
          "type": "uint256"
        }
      ],
      "stateMutability": "view",
      "type": "function"
    },
    {
      "inputs": [
        {
          "internalType": "contract IERC20",
          "name": "token",
          "type": "address"
        },
        {
          "internalType": "uint256",
          "name": "_amount",
          "type": "uint256"
        },
        {
          "internalType": "address",
          "name": "auditor",
          "type": "address"
        }
      ],
      "name": "payAuditor",
      "outputs": [],
      "stateMutability": "nonpayable",
      "type": "function"
    },
    {
      "inputs": [
        {
          "internalType": "address",
          "name": "user",
          "type": "address"
        },
        {
          "internalType": "uint256",
          "name": "_amount",
          "type": "uint256"
        }
      ],
      "name": "setUserCheqs",
      "outputs": [],
      "stateMutability": "nonpayable",
      "type": "function"
    }
  ],
  "bytecode": {
    "object": "0x608060405234801561001057600080fd5b5060405161087438038061087483398101604081905261002f91610054565b600080546001600160a01b0319166001600160a01b0392909216919091179055610084565b60006020828403121561006657600080fd5b81516001600160a01b038116811461007d57600080fd5b9392505050565b6107e1806100936000396000f3fe608060405234801561001057600080fd5b50600436106100a95760003560e01c8063809d6f8311610071578063809d6f831461018c5780638b8d1c9b146101b7578063c6089e6b146101e5578063c8c5663d14610205578063de39682614610230578063eb06510b1461025357600080fd5b80630e93d10c146100ae578063161551e4146100e15780632ee316561461011457806358d44d691461013f5780636a05d65d14610154575b600080fd5b6100ce6100bc366004610670565b60046020526000908152604090205481565b6040519081526020015b60405180910390f35b6101046100ef366004610670565b60056020526000908152604090205460ff1681565b60405190151581526020016100d8565b6100ce610122366004610694565b600660209081526000928352604080842090915290825290205481565b61015261014d3660046106cd565b610273565b005b61015261016236600461070f565b3360009081526008602090815260408083206001600160a01b039590951683529390529190912055565b60005461019f906001600160a01b031681565b6040516001600160a01b0390911681526020016100d8565b6101046101c5366004610694565b600260209081526000928352604080842090915290825290205460ff1681565b6100ce6101f3366004610670565b60036020526000908152604090205481565b6100ce610213366004610694565b600860209081526000928352604080842090915290825290205481565b61010461023e366004610670565b60016020526000908152604090205460ff1681565b6100ce610261366004610670565b60076020526000908152604090205481565b6001600160a01b03811660009081526007602090815260408083205460088352818420338552909252909120546102ab908490610751565b11156102fe5760405162461bcd60e51b815260206004820152601a60248201527f50757263686173696e67204d6f7265205468616e204c696d697400000000000060448201526064015b60405180910390fd5b60005460405163bb2d42b960e01b81523360048201526001600160a01b0383811660248301529091169063bb2d42b990604401602060405180830381865afa15801561034e573d6000803e3d6000fd5b505050506040513d601f19601f82011682018060405250810190610372919061076a565b6103ef576000546040516350efd19f60e11b81526001600160a01b038381166004830152600160248301529091169063a1dfa33e906044016020604051808303816000875af11580156103c9573d6000803e3d6000fd5b505050506040513d601f19601f820116820180604052508101906103ed919061076a565b505b6001600160a01b03811660009081526005602052604090205460ff16801561044557506001600160a01b038116600090815260036020908152604080832054600490925290912054610442908490610751565b11155b15610653576001600160a01b03808216600090815260066020908152604080832093871683529290529081205490036104c05760405162461bcd60e51b815260206004820152601860248201527f41756469746f72204861736e277420536574205072696365000000000000000060448201526064016102f5565b6001600160a01b0380821660009081526006602090815260408083209387168352929052908120546104f390849061078c565b6040516323b872dd60e01b81523360048201526001600160a01b03848116602483015260448201839052919250908516906323b872dd906064016020604051808303816000875af115801561054c573d6000803e3d6000fd5b505050506040513d601f19601f82011682018060405250810190610570919061076a565b506001600160a01b03821660009081526001602052604090205460ff16806105bb57506001600160a01b038216600090815260026020908152604080832033845290915290205460ff165b1561065157600054604051634a9b5c9b60e01b8152336004820152600160248201526001600160a01b0390911690634a9b5c9b906044016020604051808303816000875af1158015610611573d6000803e3d6000fd5b505050506040513d601f19601f82011682018060405250810190610635919061076a565b5033600090815260086020908152604080832090915290208390555b505b505050565b6001600160a01b038116811461066d57600080fd5b50565b60006020828403121561068257600080fd5b813561068d81610658565b9392505050565b600080604083850312156106a757600080fd5b82356106b281610658565b915060208301356106c281610658565b809150509250929050565b6000806000606084860312156106e257600080fd5b83356106ed81610658565b925060208401359150604084013561070481610658565b809150509250925092565b6000806040838503121561072257600080fd5b823561072d81610658565b946020939093013593505050565b634e487b7160e01b600052601160045260246000fd5b808201808211156107645761076461073b565b92915050565b60006020828403121561077c57600080fd5b8151801515811461068d57600080fd5b60008160001904831182151516156107a6576107a661073b565b50029056fea26469706673582212209191b61b8b825a83b02832817e403cbffd258191234b1e848577d5a6d2d1a7b064736f6c63430008100033",
    "linkReferences": {}
  },
  "methodIdentifiers": {
    "acceptOnPayment(address)": "de396826",
    "acceptUserOnPayment(address,address)": "8b8d1c9b",
    "cheq()": "809d6f83",
    "cheqBook(address,address)": "c8c5663d",
    "cheqCap(address)": "eb06510b",
    "cheqPrice(address,address)": "2ee31656",
    "currentCheqs(address)": "0e93d10c",
    "isPayable(address)": "161551e4",
    "maxCheqs(address)": "c6089e6b",
    "payAuditor(address,uint256,address)": "58d44d69",
    "setUserCheqs(address,uint256)": "6a05d65d"
  },
  "id": 22
}